{
  "_format": "hh-sol-artifact-1",
  "contractName": "BackstopPool",
  "sourceName": "contracts/external/BackstopPool.sol",
  "abi": [
    {
      "inputs": [
        {
          "internalType": "contract IERC20",
          "name": "_usdcToken",
          "type": "address"
        },
        {
          "internalType": "contract CatShare",
          "name": "_catShareToken",
          "type": "address"
        },
        {
          "internalType": "contract IYieldAdapter",
          "name": "_initialAdapter",
          "type": "address"
        },
        {
          "internalType": "address",
          "name": "_initialOwner",
          "type": "address"
        }
      ],
      "stateMutability": "nonpayable",
      "type": "constructor"
    },
    {
      "inputs": [
        {
          "internalType": "address",
          "name": "owner",
          "type": "address"
        }
      ],
      "name": "OwnableInvalidOwner",
      "type": "error"
    },
    {
      "inputs": [
        {
          "internalType": "address",
          "name": "account",
          "type": "address"
        }
      ],
      "name": "OwnableUnauthorizedAccount",
      "type": "error"
    },
    {
      "inputs": [],
      "name": "ReentrancyGuardReentrantCall",
      "type": "error"
    },
    {
      "inputs": [
        {
          "internalType": "address",
          "name": "token",
          "type": "address"
        }
      ],
      "name": "SafeERC20FailedOperation",
      "type": "error"
    },
    {
      "anonymous": false,
      "inputs": [
        {
          "indexed": true,
          "internalType": "address",
          "name": "newAdapter",
          "type": "address"
        }
      ],
      "name": "AdapterChanged",
      "type": "event"
    },
    {
      "anonymous": false,
      "inputs": [
        {
          "indexed": true,
          "internalType": "address",
          "name": "newCapitalPoolAddress",
          "type": "address"
        }
      ],
      "name": "CapitalPoolAddressSet",
      "type": "event"
    },
    {
      "anonymous": false,
      "inputs": [
        {
          "indexed": true,
          "internalType": "address",
          "name": "user",
          "type": "address"
        },
        {
          "indexed": false,
          "internalType": "uint256",
          "name": "usdcAmount",
          "type": "uint256"
        },
        {
          "indexed": false,
          "internalType": "uint256",
          "name": "catShareAmountMinted",
          "type": "uint256"
        }
      ],
      "name": "CatLiquidityDeposited",
      "type": "event"
    },
    {
      "anonymous": false,
      "inputs": [
        {
          "indexed": true,
          "internalType": "address",
          "name": "user",
          "type": "address"
        },
        {
          "indexed": false,
          "internalType": "uint256",
          "name": "usdcAmountWithdrawn",
          "type": "uint256"
        },
        {
          "indexed": false,
          "internalType": "uint256",
          "name": "catShareAmountBurned",
          "type": "uint256"
        }
      ],
      "name": "CatLiquidityWithdrawn",
      "type": "event"
    },
    {
      "anonymous": false,
      "inputs": [
        {
          "indexed": false,
          "internalType": "uint256",
          "name": "amount",
          "type": "uint256"
        }
      ],
      "name": "DepositToAdapter",
      "type": "event"
    },
    {
      "anonymous": false,
      "inputs": [
        {
          "indexed": false,
          "internalType": "uint256",
          "name": "requestedAmount",
          "type": "uint256"
        },
        {
          "indexed": false,
          "internalType": "uint256",
          "name": "actualAmountSentToCapitalPool",
          "type": "uint256"
        }
      ],
      "name": "DrawFromFund",
      "type": "event"
    },
    {
      "anonymous": false,
      "inputs": [],
      "name": "Initialized",
      "type": "event"
    },
    {
      "anonymous": false,
      "inputs": [
        {
          "indexed": true,
          "internalType": "address",
          "name": "previousOwner",
          "type": "address"
        },
        {
          "indexed": true,
          "internalType": "address",
          "name": "newOwner",
          "type": "address"
        }
      ],
      "name": "OwnershipTransferred",
      "type": "event"
    },
    {
      "anonymous": false,
      "inputs": [
        {
          "indexed": true,
          "internalType": "address",
          "name": "newPolicyManagerAddress",
          "type": "address"
        }
      ],
      "name": "PolicyManagerAddressSet",
      "type": "event"
    },
    {
      "anonymous": false,
      "inputs": [
        {
          "indexed": true,
          "internalType": "address",
          "name": "token",
          "type": "address"
        },
        {
          "indexed": false,
          "internalType": "uint256",
          "name": "amount",
          "type": "uint256"
        }
      ],
      "name": "ProtocolAssetReceivedForDistribution",
      "type": "event"
    },
    {
      "anonymous": false,
      "inputs": [
        {
          "indexed": true,
          "internalType": "address",
          "name": "user",
          "type": "address"
        },
        {
          "indexed": true,
          "internalType": "address",
          "name": "token",
          "type": "address"
        },
        {
          "indexed": false,
          "internalType": "uint256",
          "name": "amount",
          "type": "uint256"
        }
      ],
      "name": "ProtocolAssetRewardsClaimed",
      "type": "event"
    },
    {
      "anonymous": false,
      "inputs": [
        {
          "indexed": true,
          "internalType": "address",
          "name": "newRewardDistributor",
          "type": "address"
        }
      ],
      "name": "RewardDistributorSet",
      "type": "event"
    },
    {
      "anonymous": false,
      "inputs": [
        {
          "indexed": true,
          "internalType": "address",
          "name": "newRiskManagerAddress",
          "type": "address"
        }
      ],
      "name": "RiskManagerAddressSet",
      "type": "event"
    },
    {
      "anonymous": false,
      "inputs": [
        {
          "indexed": true,
          "internalType": "address",
          "name": "newUnderwriterManagerAddress",
          "type": "address"
        }
      ],
      "name": "UnderwriterManagerAddressSet",
      "type": "event"
    },
    {
      "anonymous": false,
      "inputs": [
        {
          "indexed": false,
          "internalType": "uint256",
          "name": "amount",
          "type": "uint256"
        }
      ],
      "name": "UsdcPremiumReceived",
      "type": "event"
    },
    {
      "anonymous": false,
      "inputs": [
        {
          "indexed": true,
          "internalType": "address",
          "name": "user",
          "type": "address"
        },
        {
          "indexed": false,
          "internalType": "uint256",
          "name": "shareAmount",
          "type": "uint256"
        },
        {
          "indexed": false,
          "internalType": "uint256",
          "name": "timestamp",
          "type": "uint256"
        }
      ],
      "name": "WithdrawalRequested",
      "type": "event"
    },
    {
      "inputs": [],
      "name": "CAT_POOL_REWARD_ID",
      "outputs": [
        {
          "internalType": "uint256",
          "name": "",
          "type": "uint256"
        }
      ],
      "stateMutability": "view",
      "type": "function"
    },
    {
      "inputs": [],
      "name": "MIN_USDC_AMOUNT",
      "outputs": [
        {
          "internalType": "uint256",
          "name": "",
          "type": "uint256"
        }
      ],
      "stateMutability": "view",
      "type": "function"
    },
    {
      "inputs": [],
      "name": "NOTICE_PERIOD",
      "outputs": [
        {
          "internalType": "uint256",
          "name": "",
          "type": "uint256"
        }
      ],
      "stateMutability": "view",
      "type": "function"
    },
    {
      "inputs": [],
      "name": "adapter",
      "outputs": [
        {
          "internalType": "contract IYieldAdapter",
          "name": "",
          "type": "address"
        }
      ],
      "stateMutability": "view",
      "type": "function"
    },
    {
      "inputs": [],
      "name": "capitalPoolAddress",
      "outputs": [
        {
          "internalType": "address",
          "name": "",
          "type": "address"
        }
      ],
      "stateMutability": "view",
      "type": "function"
    },
    {
      "inputs": [],
      "name": "catShareToken",
      "outputs": [
        {
          "internalType": "contract CatShare",
          "name": "",
          "type": "address"
        }
      ],
      "stateMutability": "view",
      "type": "function"
    },
    {
      "inputs": [
        {
          "internalType": "address",
          "name": "protocolAsset",
          "type": "address"
        }
      ],
      "name": "claimProtocolAssetRewards",
      "outputs": [],
      "stateMutability": "nonpayable",
      "type": "function"
    },
    {
      "inputs": [
        {
          "internalType": "address",
          "name": "user",
          "type": "address"
        },
        {
          "internalType": "address",
          "name": "protocolAsset",
          "type": "address"
        }
      ],
      "name": "claimProtocolAssetRewardsFor",
      "outputs": [],
      "stateMutability": "nonpayable",
      "type": "function"
    },
    {
      "inputs": [
        {
          "internalType": "uint256",
          "name": "usdcAmount",
          "type": "uint256"
        }
      ],
      "name": "depositLiquidity",
      "outputs": [],
      "stateMutability": "nonpayable",
      "type": "function"
    },
    {
      "inputs": [
        {
          "internalType": "uint256",
          "name": "amountToDraw",
          "type": "uint256"
        }
      ],
      "name": "drawFund",
      "outputs": [],
      "stateMutability": "nonpayable",
      "type": "function"
    },
    {
      "inputs": [
        {
          "internalType": "uint256",
          "name": "amount",
          "type": "uint256"
        }
      ],
      "name": "flushToAdapter",
      "outputs": [],
      "stateMutability": "nonpayable",
      "type": "function"
    },
    {
      "inputs": [
        {
          "internalType": "address",
          "name": "user",
          "type": "address"
        },
        {
          "internalType": "address",
          "name": "protocolAsset",
          "type": "address"
        }
      ],
      "name": "getPendingProtocolAssetRewards",
      "outputs": [
        {
          "internalType": "uint256",
          "name": "",
          "type": "uint256"
        }
      ],
      "stateMutability": "view",
      "type": "function"
    },
    {
      "inputs": [],
      "name": "idleUSDC",
      "outputs": [
        {
          "internalType": "uint256",
          "name": "",
          "type": "uint256"
        }
      ],
      "stateMutability": "view",
      "type": "function"
    },
    {
      "inputs": [],
      "name": "initialize",
      "outputs": [],
      "stateMutability": "nonpayable",
      "type": "function"
    },
    {
      "inputs": [],
      "name": "liquidUsdc",
      "outputs": [
        {
          "internalType": "uint256",
          "name": "",
          "type": "uint256"
        }
      ],
      "stateMutability": "view",
      "type": "function"
    },
    {
      "inputs": [],
      "name": "owner",
      "outputs": [
        {
          "internalType": "address",
          "name": "",
          "type": "address"
        }
      ],
      "stateMutability": "view",
      "type": "function"
    },
    {
      "inputs": [],
      "name": "policyManagerAddress",
      "outputs": [
        {
          "internalType": "address",
          "name": "",
          "type": "address"
        }
      ],
      "stateMutability": "view",
      "type": "function"
    },
    {
      "inputs": [
        {
          "internalType": "address",
          "name": "protocolAsset",
          "type": "address"
        },
        {
          "internalType": "uint256",
          "name": "amount",
          "type": "uint256"
        }
      ],
      "name": "receiveProtocolAssetsForDistribution",
      "outputs": [],
      "stateMutability": "nonpayable",
      "type": "function"
    },
    {
      "inputs": [
        {
          "internalType": "uint256",
          "name": "amount",
          "type": "uint256"
        }
      ],
      "name": "receiveUsdcPremium",
      "outputs": [],
      "stateMutability": "nonpayable",
      "type": "function"
    },
    {
      "inputs": [],
      "name": "renounceOwnership",
      "outputs": [],
      "stateMutability": "nonpayable",
      "type": "function"
    },
    {
      "inputs": [
        {
          "internalType": "uint256",
          "name": "shareAmount",
          "type": "uint256"
        }
      ],
      "name": "requestWithdrawal",
      "outputs": [],
      "stateMutability": "nonpayable",
      "type": "function"
    },
    {
      "inputs": [],
      "name": "rewardDistributor",
      "outputs": [
        {
          "internalType": "contract IRewardDistributor",
          "name": "",
          "type": "address"
        }
      ],
      "stateMutability": "view",
      "type": "function"
    },
    {
      "inputs": [],
      "name": "riskManagerAddress",
      "outputs": [
        {
          "internalType": "address",
          "name": "",
          "type": "address"
        }
      ],
      "stateMutability": "view",
      "type": "function"
    },
    {
      "inputs": [
        {
          "internalType": "address",
          "name": "newAdapterAddress",
          "type": "address"
        }
      ],
      "name": "setAdapter",
      "outputs": [],
      "stateMutability": "nonpayable",
      "type": "function"
    },
    {
      "inputs": [
        {
          "internalType": "address",
          "name": "newCapitalPoolAddress",
          "type": "address"
        }
      ],
      "name": "setCapitalPool",
      "outputs": [],
      "stateMutability": "nonpayable",
      "type": "function"
    },
    {
      "inputs": [
        {
          "internalType": "address",
          "name": "newPolicyManagerAddress",
          "type": "address"
        }
      ],
      "name": "setPolicyManager",
      "outputs": [],
      "stateMutability": "nonpayable",
      "type": "function"
    },
    {
      "inputs": [
        {
          "internalType": "address",
          "name": "rewardDistributorAddress",
          "type": "address"
        }
      ],
      "name": "setRewardDistributor",
      "outputs": [],
      "stateMutability": "nonpayable",
      "type": "function"
    },
    {
      "inputs": [
        {
          "internalType": "address",
          "name": "newRiskManagerAddress",
          "type": "address"
        }
      ],
      "name": "setRiskManager",
      "outputs": [],
      "stateMutability": "nonpayable",
      "type": "function"
    },
    {
      "inputs": [
        {
          "internalType": "address",
          "name": "newUnderwriterManagerAddress",
          "type": "address"
        }
      ],
      "name": "setUnderwriterManager",
      "outputs": [],
      "stateMutability": "nonpayable",
      "type": "function"
    },
    {
      "inputs": [
        {
          "internalType": "address",
          "name": "newOwner",
          "type": "address"
        }
      ],
      "name": "transferOwnership",
      "outputs": [],
      "stateMutability": "nonpayable",
      "type": "function"
    },
    {
      "inputs": [],
      "name": "underwriterManagerAddress",
      "outputs": [
        {
          "internalType": "address",
          "name": "",
          "type": "address"
        }
      ],
      "stateMutability": "view",
      "type": "function"
    },
    {
      "inputs": [],
      "name": "usdc",
      "outputs": [
        {
          "internalType": "contract IERC20",
          "name": "",
          "type": "address"
        }
      ],
      "stateMutability": "view",
      "type": "function"
    },
    {
      "inputs": [
        {
          "internalType": "uint256",
          "name": "catShareAmountBurn",
          "type": "uint256"
        }
      ],
      "name": "withdrawLiquidity",
      "outputs": [],
      "stateMutability": "nonpayable",
      "type": "function"
    },
    {
      "inputs": [
        {
          "internalType": "address",
          "name": "",
          "type": "address"
        }
      ],
      "name": "withdrawalRequestShares",
      "outputs": [
        {
          "internalType": "uint256",
          "name": "",
          "type": "uint256"
        }
      ],
      "stateMutability": "view",
      "type": "function"
    },
    {
      "inputs": [
        {
          "internalType": "address",
          "name": "",
          "type": "address"
        }
      ],
      "name": "withdrawalRequestTimestamp",
      "outputs": [
        {
          "internalType": "uint256",
          "name": "",
          "type": "uint256"
        }
      ],
      "stateMutability": "view",
      "type": "function"
    }
  ],
  "bytecode": "0x60c034620002f757601f62002dda38819003918201601f191683019291906001600160401b03841183851017620002fc578160809284926040968752833981010312620002f75780516001600160a01b039081811690818103620002f7576020928385015181811692838203620002f7578787015196838816809803620002f7576060015193838516809503620002f7578415620002df57600080546001600160a01b0319808216881783558b51929790969091167f8be0079c531659141344cd1fd0a4f28419497f9722a3daafe3b4186f6b6457e08880a36001805586156200029d5750156200024d5760805260a052846200018f575b8551612a3f90816200039b82396080518181816106460152818161074701528181610b9101528181610cda015281816111210152818161164c015281816119320152611e85015260a0518181816109a701528181610ec90152818161115e01528181611404015281816114ab0152818161174601528181611aa001528181611d5b015281816125620152818161270f01526128e10152f35b8490600254161760025584519280840191818163095ea7b360e01b94858152886024890152600019604489015260448852620001cb8862000312565b87519082885af181513d826200022e575b505015620001ec575b50620000f7565b62000222956200021c938851938401526024830152604482015260448152620002158162000312565b826200032e565b6200032e565b388080808080620001e5565b909150620002445750833b15155b3880620001dc565b6001146200023c565b875162461bcd60e51b815260048101879052602360248201527f4349503a20496e76616c696420436174536861726520746f6b656e206164647260448201526265737360e81b6064820152608490fd5b62461bcd60e51b815260048101889052601f60248201527f4349503a20496e76616c6964205553444320746f6b656e2061646472657373006044820152606490fd5b8851631e4fbdf760e01b815260006004820152602490fd5b600080fd5b634e487b7160e01b600052604160045260246000fd5b608081019081106001600160401b03821117620002fc57604052565b906000602091828151910182855af1156200038e576000513d6200038457506001600160a01b0381163b155b620003625750565b604051635274afe760e01b81526001600160a01b039091166004820152602490fd5b600114156200035a565b6040513d6000823e3d90fdfe6080604081815260048036101561001557600080fd5b600092833560e01c90816303eadcfc146121f4575080630a861f2a14611cf457806312a279e414611a22578063142ca556146118d657806314c4f5d8146118b9578063200e40921461189b57806322df451e146116ec5780632cdbe392146116b557806337eca66f1461168d5780633bba08eb146116705780633e413bee1461162c578063476187cb1461142857806355d66c1b146113e45780635ccea26b1461137557806362ca8460146113065780636af2fa06146112e7578063715018a61461128d57806376d58e1a146110e15780638129fc1c14610e8b578063867ef8ff14610e565780638da5cb5b14610e305780639b154aea14610afd5780639ee679e814610962578063a1809b95146108f3578063a650884f146108cb578063ab1da79c146105b2578063acc2166a1461058a578063adde41e11461051b578063d363dae7146104f3578063d94184c7146104c9578063da77bde514610310578063df592ef2146102d9578063e7c14c681461026a578063ea34ba2a146102495763f2fde38b146101a457600080fd5b34610245576020366003190112610245576101bd612219565b906101c6612880565b6001600160a01b03809216928315610216575050600054826001600160a01b0319821617600055167f8be0079c531659141344cd1fd0a4f28419497f9722a3daafe3b4186f6b6457e0600080a380f35b908460249251917f1e4fbdf7000000000000000000000000000000000000000000000000000000008352820152fd5b8280fd5b505034610266578160031936011261026657602090516103e88152f35b5080fd5b838234610266576020366003190112610266576001600160a01b0361028d612219565b610295612880565b16906102a28215156124e0565b816001600160a01b03198254161790557f23a95e464468da16b375ddda688814183a6cecd086819983bce6be6132abb4048280a280f35b50503461026657602036600319011261026657806020926001600160a01b03610300612219565b1681526009845220549051908152f35b5090346102455760203660031901126102455781359161032e612880565b610336612684565b82156104875760085490818411610444576001600160a01b0360025416918215610401579061036785879493612677565b600855813b1561024557846024849283875195869485937fb6b55f250000000000000000000000000000000000000000000000000000000085528401525af180156103f7576103e3575b507fcc9848fb7d37c13ac4943a6d7ac2860743174ff5263c691ca66349d5554092e36020848451908152a16001805580f35b6103ec90612268565b6102455782386103b1565b83513d84823e3d90fd5b606482602086519162461bcd60e51b8352820152601a60248201527f4349503a205969656c642061646170746572206e6f74207365740000000000006044820152fd5b606490602084519162461bcd60e51b8352820152601d60248201527f4349503a20416d6f756e7420657863656564732069646c6520555344430000006044820152fd5b6020606492519162461bcd60e51b8352820152601760248201527f4349503a20416d6f756e74206d757374206265203e20300000000000000000006044820152fd5b5091346104f057806003193601126104f057506001600160a01b0360209254169051908152f35b80fd5b5050346102665781600319360112610266576020906001600160a01b03600654169051908152f35b83346104f05760203660031901126104f0576001600160a01b0361053d612219565b610545612880565b166105518115156124e0565b806001600160a01b031960055416176005557f96ef4362498b0fa85c8625240e1d0ebcdd2ec5c981849e05d81705ed0720ad478280a280f35b5050346102665781600319360112610266576020906001600160a01b03600754169051908152f35b503461024557602091826003193601126108c7576001600160a01b0319926105d8612219565b6105e0612880565b6105e8612684565b600254936001600160a01b0394858082169316968791161760025581610716575b505082600254169182610644575b85857fa3b58806382f53f51f4e331febaba873954108bfd909dfe4ce75930767fd0a3a8280a26001805580f35b7f0000000000000000000000000000000000000000000000000000000000000000918151938185019582600063095ea7b360e01b988981528460248a0152811960448a01526044895261069689612292565b88519082895af1903d60005190836106f5575b505050156106b9575b5050610617565b6106ea956106e5935192830152602482015260006044820152604481526106df81612292565b82612995565b612995565b3880808080806106b2565b9192509061070c575084163b15155b3880806106a9565b6001915014610704565b83519063119faeb360e01b825283828281865afa9182156108bd57908491899361088c575b5082610804575b5050507f00000000000000000000000000000000000000000000000000000000000000008351908382019284600063095ea7b360e01b958681528360248701528160448701526044865261079586612292565b85519082865af16000513d826107e6575b5050156107b5575b5050610609565b6107dd936106e59187519187830152602482015260006044820152604481526106df81612292565b388080806107ae565b9091506107fc57508682163b15155b38806107a6565b6001146107f5565b8551627b8a6760e11b8152908101928352306020840152918290819060400103818a865af1801561088257879061084e575b6108439150600854612245565b600855388281610742565b508281813d831161087b575b61086481836122ae565b81010312610876576108439051610836565b600080fd5b503d61085a565b84513d89823e3d90fd5b8281939294503d83116108b6575b6108a481836122ae565b8101031261087657839051913861073b565b503d61089a565b85513d8a823e3d90fd5b8380fd5b5050346102665781600319360112610266576020906001600160a01b03600554169051908152f35b83346104f05760203660031901126104f0576001600160a01b03610915612219565b61091d612880565b166109298115156124e0565b806001600160a01b031960075416176007557f075c02c513a415bd4ff5976f8aa6fc5767d2183daca9ec00ab71ce78e8bf81588280a280f35b509034610245576020806003193601126108c757823592610981612684565b8315610abc5782516370a0823160e01b8152338282015282816024816001600160a01b037f0000000000000000000000000000000000000000000000000000000000000000165afa8015610ab25785908790610a81575b6109e4925010156122d0565b338552600a825282852054610a405750907f24b91f4f47caf44230a57777a9be744924e82bf666f2d5702faf97df35e60f9f91338552600a81528382862055600981524282862055815193845242908401523392a26001805580f35b90606492519162461bcd60e51b8352820152601f60248201527f4349503a205769746864726177616c20726571756573742070656e64696e67006044820152fd5b50508281813d8311610aab575b610a9881836122ae565b8101031261087657846109e491516109d8565b503d610a8e565b84513d88823e3d90fd5b90606492519162461bcd60e51b8352820152601360248201527f4349503a20496e76616c696420616d6f756e74000000000000000000000000006044820152fd5b50903461024557602091826003193601126108c7578035906001600160a01b03806006541633148015610e23575b8015610e17575b610b3b90612495565b610b43612684565b8215610daf5780825416918215610d6e57610b5c61238c565b8411610d065790839187876008549586861115600014610bf957505050610bb59350610b8a83600854612677565b60085554167f00000000000000000000000000000000000000000000000000000000000000006127ba565b805b80610bc5575b846001805580f35b7faf79777195e67a77fa488472318c69d16c1a33eea8be9687b7356498870badc3938351928352820152a138808080610bbd565b919486610c099197929597612677565b9181610ccb575b50508460025416908982151580610cc2575b610c33575b50505050509050610bb7565b610c6a9684541693895197889586948593627b8a6760e11b855284019092916001600160a01b036020916040840195845216910152565b03925af1908115610ab2578691610c91575b610c869250612245565b808438808089610c27565b90508482813d8311610cbb575b610ca881836122ae565b8101031261087657610c86915190610c7c565b503d610c9e565b50811515610c22565b8192955090610cfe918b6008557f00000000000000000000000000000000000000000000000000000000000000006127ba565b923880610c10565b6084908686519162461bcd60e51b8352820152602f60248201527f4349503a204472617720616d6f756e7420657863656564732043617420506f6f60448201527f6c2773206c6971756964205553444300000000000000000000000000000000006064820152fd5b606490868087519262461bcd60e51b845283015260248201527f4349503a204361706974616c506f6f6c2061646472657373206e6f74207365746044820152fd5b6084828686519162461bcd60e51b8352820152602160248201527f4349503a204472617720616d6f756e74206d75737420626520706f736974697660448201527f65000000000000000000000000000000000000000000000000000000000000006064820152fd5b50815481163314610b32565b5080600354163314610b2b565b5050346102665781600319360112610266576001600160a01b0360209254169051908152f35b505034610266578060031936011261026657602090610e84610e76612219565b610e7e61222f565b9061252b565b9051908152f35b50829034610266578160031936011261026657610ea6612880565b610eae612684565b6007549260ff8460a01c1661109e576001600160a01b0391827f000000000000000000000000000000000000000000000000000000000000000016928251907f8da5cb5b0000000000000000000000000000000000000000000000000000000082526020828481885afa918215610ab257869261105d575b5030911603610ff557740100000000000000000000000000000000000000007fffffffffffffffffffffff00ffffffffffffffffffffffffffffffffffffffff85961617600755823b15610ff057839260448492845195869384926340c10f1960e01b845230908401526103e860248401525af1908115610fe75750610fd3575b50807f5daa87a0e9463431830481fd4b6e3403442dfb9a12b9c07597e9f61d50b633c891a16001805580f35b610fdc90612268565b6104f0578082610fa7565b513d84823e3d90fd5b505050fd5b6020608492519162461bcd60e51b8352820152602660248201527f4349503a20506f6f6c206d757374206265206f776e6572206f6620736861726560448201527f20746f6b656e00000000000000000000000000000000000000000000000000006064820152fd5b9091506020813d602011611096575b81611079602093836122ae565b8101031261109257518181168103611092579087610f26565b8580fd5b3d915061106c565b906020606492519162461bcd60e51b8352820152601860248201527f4349503a20416c726561647920696e697469616c697a656400000000000000006044820152fd5b5034610245576020366003190112610245578035916110fe612684565b6103e8831061124a57611110836128c4565b9182156112085784906111458530337f0000000000000000000000000000000000000000000000000000000000000000612811565b61115185600854612245565b6008556001600160a01b037f000000000000000000000000000000000000000000000000000000000000000016803b156102455783516340c10f1960e01b81523392810192835260208301869052918391839182908490829060400103925af180156103f7576111f4575b50507f361ba717d7dc431bc0e89a68bfde2949370d66837de51c915057710622ba18a291815193845260208401523392a26001805580f35b6111fd90612268565b6108c75783386111bc565b6020606492519162461bcd60e51b8352820152601660248201527f4349503a204e6f2073686172657320746f206d696e74000000000000000000006044820152fd5b906020606492519162461bcd60e51b8352820152601960248201527f4349503a20416d6f756e742062656c6f77206d696e696d756d000000000000006044820152fd5b83346104f057806003193601126104f0576112a6612880565b60006001600160a01b0381546001600160a01b031981168355167f8be0079c531659141344cd1fd0a4f28419497f9722a3daafe3b4186f6b6457e08280a380f35b5050346102665781600319360112610266576020906008549051908152f35b83346104f05760203660031901126104f0576001600160a01b03611328612219565b611330612880565b1661133c8115156124e0565b806001600160a01b031960035416176003557fdfd2967b9417925459cd79ae13c6dec37092beff03f9cd8ed4c3e687fe93d2e48280a280f35b83346104f05760203660031901126104f0576001600160a01b03611397612219565b61139f612880565b166113ab8115156124e0565b806001600160a01b031960065416176006557f06db6d5b075156acf1957fa22a87371011f8c68f26a39cc49e8ca9cb568b909b8280a280f35b505034610266578160031936011261026657602090516001600160a01b037f0000000000000000000000000000000000000000000000000000000000000000168152f35b5034610245578160031936011261024557611441612219565b61144961222f565b916001600160a01b0380600654163314801561161f575b8015611613575b61147090612495565b611478612684565b806007541693611489851515612341565b8551946370a0823160e01b8652828516948585880152886020958689602481897f0000000000000000000000000000000000000000000000000000000000000000165afa9889156116095782996115d0575b509186939185936115258c519b8c96879586946304b3319360e31b865285016060919493929460808201956001600160a01b03809216835260001960208401521660408201520152565b03925af19485156115c6578795611575575b5084956115677f5558d706dd6960573fef84ad53d8ada2354d00230f2d47b8c12e63ab89cd4d9195961515612424565b519586521693a36001805580f35b9394508284813d83116115bf575b61158d81836122ae565b81010312610876577f5558d706dd6960573fef84ad53d8ada2354d00230f2d47b8c12e63ab89cd4d9193519493611537565b503d611583565b86513d89823e3d90fd5b8780929a5081949593503d8311611602575b6115ec81836122ae565b81010312610876579051969091908990866114db565b503d6115e2565b8a513d84823e3d90fd5b50815481163314611467565b5080600354163314611460565b505034610266578160031936011261026657602090516001600160a01b037f0000000000000000000000000000000000000000000000000000000000000000168152f35b505034610266578160031936011261026657516000198152602090f35b5050346102665781600319360112610266576020906001600160a01b03600354169051908152f35b50503461026657602036600319011261026657806020926001600160a01b036116dc612219565b168152600a845220549051908152f35b50903461024557602091826003193601126108c757611709612219565b611711612684565b6001600160a01b039081600754169261172b841515612341565b868551916370a0823160e01b835233818401528783602481887f0000000000000000000000000000000000000000000000000000000000000000165afa92831561189157908291899461185a575b5087516304b3319360e31b81523391810191825260001960208301526001600160a01b03861660408301526060820193909352919586929091839182906080015b03925af1928315610ab257869361180b575b5082936117fb7f5558d706dd6960573fef84ad53d8ada2354d00230f2d47b8c12e63ab89cd4d91941515612424565b5193845216923392a36001805580f35b92508483813d8311611853575b61182281836122ae565b81010312610876577f5558d706dd6960573fef84ad53d8ada2354d00230f2d47b8c12e63ab89cd4d919251926117cc565b503d611818565b93849193508092503d831161188a575b61187481836122ae565b81010312610876579051869188906117ba611779565b503d61186a565b87513d84823e3d90fd5b5050346102665781600319360112610266576020905162278d008152f35b505034610266578160031936011261026657602090610e8461238c565b509034610245576020366003190112610245578135916001600160a01b036005541633036119bb57821561196d5750816020916119567f448a99f1d3c28ace4a0f299c935b411c4ccbbc061b0622a3c4bdf4800448c7129430337f0000000000000000000000000000000000000000000000000000000000000000612811565b61196282600854612245565b60085551908152a180f35b6020608492519162461bcd60e51b83528201526024808201527f4349503a205072656d69756d20616d6f756e74206d75737420626520706f73696044820152637469766560e01b6064820152fd5b6020608492519162461bcd60e51b83528201526024808201527f4349503a2043616c6c6572206973206e6f742074686520506f6c6963794d616e60448201527f61676572000000000000000000000000000000000000000000000000000000006064820152fd5b509034610245578060031936011261024557611a3c612219565b90602435916001600160a01b039081600354163303611c8b578190611a5f612684565b611a6e82600754161515612341565b16938415611c22578315611bb957908591611a8b85303389612811565b8351916318160ddd60e01b83526020838381847f0000000000000000000000000000000000000000000000000000000000000000165afa928315611baf578493611b78575b506007541691823b156108c7576084849283875195869485937ffc967542000000000000000000000000000000000000000000000000000000008552600019908501528b60248501528a604485015260648401525af180156103f757611b64575b50507ff75655ff28e221f07f858143c1ff3f265ad3b451590cd209591bd5a2c1446d569160209151908152a26001805580f35b611b6d90612268565b6108c7578338611b31565b935091506020833d602011611ba7575b81611b95602093836122ae565b81010312610876578692519138611ad0565b3d9150611b88565b85513d86823e3d90fd5b608490602084519162461bcd60e51b8352820152602e60248201527f4349503a20416d6f756e74206f662070726f746f636f6c206173736574206d7560448201527f737420626520706f7369746976650000000000000000000000000000000000006064820152fd5b608490602084519162461bcd60e51b8352820152602a60248201527f4349503a2050726f746f636f6c2061737365742063616e6e6f74206265207a6560448201527f726f2061646472657373000000000000000000000000000000000000000000006064820152fd5b608485602085519162461bcd60e51b8352820152602260248201527f4349503a2043616c6c6572206973206e6f7420746865205269736b4d616e616760448201527f65720000000000000000000000000000000000000000000000000000000000006064820152fd5b508290346102665760209283600319360112610245578135611d14612684565b80156121a657338452600a855281842054801561216457810361212257338452600985528184205462278d00810180911161210f5742106120cd576001600160a01b0392837f0000000000000000000000000000000000000000000000000000000000000000169383516370a0823160e01b815233838201528781602481895afa8015611fac578490889061209c575b611db0925010156122d0565b611db9836126f2565b946103e8861061203557338752600a88528685812055600988528685812055803b156120315786855180927f9dc29fac000000000000000000000000000000000000000000000000000000008252818381611e2d8a338b8401602090939291936001600160a01b0360408201951681520152565b03925af18015611fac5761201e575b50600854808611611ebb57505050829394611e7a7fcf0ecba4af3b8b67c37965ee7be541c7e75b178af907654d298e79054095038994600854612677565b6008555b611ea985337f00000000000000000000000000000000000000000000000000000000000000006127ba565b82519485528401523392a26001805580f35b611ec59086612677565b9086600855600254168015611fb6578451627b8a6760e11b81528381018381523060208201529091899183919082908b90829060400103925af1908115611fac578791611f7f575b5010611f3d57507fcf0ecba4af3b8b67c37965ee7be541c7e75b178af907654d298e790540950389929394611e7e565b6064908684519162461bcd60e51b8352820152601e60248201527f4349503a2041646170746572207769746864726177616c206661696c656400006044820152fd5b90508781813d8311611fa5575b611f9681836122ae565b81010312610876575188611f0d565b503d611f8c565b85513d89823e3d90fd5b6084838987519162461bcd60e51b8352820152602a60248201527f4349503a20496e73756666696369656e742069646c65205553444320616e642060448201527f6e6f2061646170746572000000000000000000000000000000000000000000006064820152fd5b61202a90969196612268565b9487611e3c565b8680fd5b6084838987519162461bcd60e51b83528201526024808201527f4349503a205769746864726177616c20616d6f756e742062656c6f77206d696e60448201527f696d756d000000000000000000000000000000000000000000000000000000006064820152fd5b50508781813d83116120c6575b6120b381836122ae565b810103126120315783611db09151611da4565b503d6120a9565b6064838684519162461bcd60e51b8352820152601960248201527f4349503a204e6f7469636520706572696f6420616374697665000000000000006044820152fd5b602485601186634e487b7160e01b835252fd5b6064838684519162461bcd60e51b8352820152601460248201527f4349503a20416d6f756e74206d69736d617463680000000000000000000000006044820152fd5b6064848785519162461bcd60e51b8352820152601a60248201527f4349503a204e6f207769746864726177616c20726571756573740000000000006044820152fd5b6084838684519162461bcd60e51b83528201526024808201527f4349503a2053686172657320746f206275726e206d75737420626520706f73696044820152637469766560e01b6064820152fd5b8490346102665781600319360112610266576020906001600160a01b03600254168152f35b600435906001600160a01b038216820361087657565b602435906001600160a01b038216820361087657565b9190820180921161225257565b634e487b7160e01b600052601160045260246000fd5b67ffffffffffffffff811161227c57604052565b634e487b7160e01b600052604160045260246000fd5b6080810190811067ffffffffffffffff82111761227c57604052565b90601f8019910116810190811067ffffffffffffffff82111761227c57604052565b156122d757565b608460405162461bcd60e51b815260206004820152602260248201527f4349503a20496e73756666696369656e742043617453686172652062616c616e60448201527f63650000000000000000000000000000000000000000000000000000000000006064820152fd5b1561234857565b606460405162461bcd60e51b815260206004820152601f60248201527f4349503a20526577617264206469737472696275746f72206e6f7420736574006044820152fd5b6002546001600160a01b03166000816123b0575b6123ad9150600854612245565b90565b60206004926040519384809263119faeb360e01b82525afa9081156124185780916123e1575b506123ad91506123a0565b90506020823d602011612410575b816123fc602093836122ae565b810103126104f057506123ad9051386123d6565b3d91506123ef565b604051903d90823e3d90fd5b1561242b57565b608460405162461bcd60e51b815260206004820152602760248201527f4349503a204e6f207265776172647320746f20636c61696d20666f722074686960448201527f73206173736574000000000000000000000000000000000000000000000000006064820152fd5b1561249c57565b606460405162461bcd60e51b815260206004820152601f60248201527f4349503a2043616c6c6572206973206e6f742074686520617070726f766564006044820152fd5b156124e757565b606460405162461bcd60e51b815260206004820152601b60248201527f4349503a20416464726573732063616e6e6f74206265207a65726f00000000006044820152fd5b906001600160a01b03806007541692831561266e576040519384926370a0823160e01b8452808316600485015283602460209788937f0000000000000000000000000000000000000000000000000000000000000000165afa91821561262d578593600093612639575b506040517f13038af00000000000000000000000000000000000000000000000000000000081526001600160a01b039182166004820152600019602482015294166044850152606484019190915282908180608481015b03915afa91821561262d5760009261260357505090565b90809250813d8311612626575b61261a81836122ae565b81010312610876575190565b503d612610565b6040513d6000823e3d90fd5b8481959294503d8311612667575b61265181836122ae565b81010312610876579151849290916125ec612595565b503d612647565b50505050600090565b9190820391821161225257565b600260015414612695576002600155565b60046040517f3ee5aeb5000000000000000000000000000000000000000000000000000000008152fd5b8181029291811591840414171561225257565b81156126dc570490565b634e487b7160e01b600052601260045260246000fd5b6040516318160ddd60e01b81526020816004816001600160a01b037f0000000000000000000000000000000000000000000000000000000000000000165afa90811561262d57600091612788575b506103e8811115612780576103e7198101908111612252575b8015612779576127746123ad9261276e61238c565b906126bf565b6126d2565b5050600090565b506000612759565b906020823d6020116127b2575b816127a2602093836122ae565b810103126104f057505138612740565b3d9150612795565b6040517fa9059cbb0000000000000000000000000000000000000000000000000000000060208201526001600160a01b0392909216602483015260448083019390935291815261280f916106e56064836122ae565b565b9290604051927f23b872dd0000000000000000000000000000000000000000000000000000000060208501526001600160a01b03809216602485015216604483015260648201526064815260a081019181831067ffffffffffffffff84111761227c5761280f92604052612995565b6001600160a01b0360005416330361289457565b60246040517f118cdaa7000000000000000000000000000000000000000000000000000000008152336004820152fd5b6040516318160ddd60e01b81526020816004816001600160a01b037f0000000000000000000000000000000000000000000000000000000000000000165afa90811561262d57600091612963575b506103e881111561295b576103e7198101908111612252575b61293361238c565b9081158015612953575b61294e57612774906123ad936126bf565b505090565b50801561293d565b50600061292b565b906020823d60201161298d575b8161297d602093836122ae565b810103126104f057505138612912565b3d9150612970565b906000602091828151910182855af11561262d576000513d612a0057506001600160a01b0381163b155b6129c65750565b6024906001600160a01b03604051917f5274afe7000000000000000000000000000000000000000000000000000000008352166004820152fd5b600114156129bf56fea2646970667358221220db1982573212789fa1bd0ec71fb74baba863ddfbcf02e8674aa39d275861711b64736f6c63430008160033",
  "linkReferences": {},
  "deployedLinkReferences": {}
}