{
  "_format": "hh-sol-artifact-1",
  "contractName": "BackstopPool",
  "sourceName": "contracts/external/BackstopPool.sol",
  "abi": [
    {
      "inputs": [
        {
          "internalType": "contract IERC20",
          "name": "_usdcToken",
          "type": "address"
        },
        {
          "internalType": "contract CatShare",
          "name": "_catShareToken",
          "type": "address"
        },
        {
          "internalType": "contract IYieldAdapter",
          "name": "_initialAdapter",
          "type": "address"
        },
        {
          "internalType": "address",
          "name": "_initialOwner",
          "type": "address"
        }
      ],
      "stateMutability": "nonpayable",
      "type": "constructor"
    },
    {
      "inputs": [
        {
          "internalType": "address",
          "name": "owner",
          "type": "address"
        }
      ],
      "name": "OwnableInvalidOwner",
      "type": "error"
    },
    {
      "inputs": [
        {
          "internalType": "address",
          "name": "account",
          "type": "address"
        }
      ],
      "name": "OwnableUnauthorizedAccount",
      "type": "error"
    },
    {
      "inputs": [],
      "name": "ReentrancyGuardReentrantCall",
      "type": "error"
    },
    {
      "inputs": [
        {
          "internalType": "address",
          "name": "token",
          "type": "address"
        }
      ],
      "name": "SafeERC20FailedOperation",
      "type": "error"
    },
    {
      "anonymous": false,
      "inputs": [
        {
          "indexed": true,
          "internalType": "address",
          "name": "newAdapter",
          "type": "address"
        }
      ],
      "name": "AdapterChanged",
      "type": "event"
    },
    {
      "anonymous": false,
      "inputs": [
        {
          "indexed": true,
          "internalType": "address",
          "name": "newCapitalPoolAddress",
          "type": "address"
        }
      ],
      "name": "CapitalPoolAddressSet",
      "type": "event"
    },
    {
      "anonymous": false,
      "inputs": [
        {
          "indexed": true,
          "internalType": "address",
          "name": "user",
          "type": "address"
        },
        {
          "indexed": false,
          "internalType": "uint256",
          "name": "usdcAmount",
          "type": "uint256"
        },
        {
          "indexed": false,
          "internalType": "uint256",
          "name": "catShareAmountMinted",
          "type": "uint256"
        }
      ],
      "name": "CatLiquidityDeposited",
      "type": "event"
    },
    {
      "anonymous": false,
      "inputs": [
        {
          "indexed": true,
          "internalType": "address",
          "name": "user",
          "type": "address"
        },
        {
          "indexed": false,
          "internalType": "uint256",
          "name": "usdcAmountWithdrawn",
          "type": "uint256"
        },
        {
          "indexed": false,
          "internalType": "uint256",
          "name": "catShareAmountBurned",
          "type": "uint256"
        }
      ],
      "name": "CatLiquidityWithdrawn",
      "type": "event"
    },
    {
      "anonymous": false,
      "inputs": [
        {
          "indexed": false,
          "internalType": "uint256",
          "name": "amount",
          "type": "uint256"
        }
      ],
      "name": "DepositToAdapter",
      "type": "event"
    },
    {
      "anonymous": false,
      "inputs": [
        {
          "indexed": false,
          "internalType": "uint256",
          "name": "requestedAmount",
          "type": "uint256"
        },
        {
          "indexed": false,
          "internalType": "uint256",
          "name": "actualAmountSentToCapitalPool",
          "type": "uint256"
        }
      ],
      "name": "DrawFromFund",
      "type": "event"
    },
    {
      "anonymous": false,
      "inputs": [],
      "name": "Initialized",
      "type": "event"
    },
    {
      "anonymous": false,
      "inputs": [
        {
          "indexed": true,
          "internalType": "address",
          "name": "previousOwner",
          "type": "address"
        },
        {
          "indexed": true,
          "internalType": "address",
          "name": "newOwner",
          "type": "address"
        }
      ],
      "name": "OwnershipTransferred",
      "type": "event"
    },
    {
      "anonymous": false,
      "inputs": [
        {
          "indexed": true,
          "internalType": "address",
          "name": "newPolicyManagerAddress",
          "type": "address"
        }
      ],
      "name": "PolicyManagerAddressSet",
      "type": "event"
    },
    {
      "anonymous": false,
      "inputs": [
        {
          "indexed": true,
          "internalType": "address",
          "name": "token",
          "type": "address"
        },
        {
          "indexed": false,
          "internalType": "uint256",
          "name": "amount",
          "type": "uint256"
        }
      ],
      "name": "ProtocolAssetReceivedForDistribution",
      "type": "event"
    },
    {
      "anonymous": false,
      "inputs": [
        {
          "indexed": true,
          "internalType": "address",
          "name": "user",
          "type": "address"
        },
        {
          "indexed": true,
          "internalType": "address",
          "name": "token",
          "type": "address"
        },
        {
          "indexed": false,
          "internalType": "uint256",
          "name": "amount",
          "type": "uint256"
        }
      ],
      "name": "ProtocolAssetRewardsClaimed",
      "type": "event"
    },
    {
      "anonymous": false,
      "inputs": [
        {
          "indexed": true,
          "internalType": "address",
          "name": "newRewardDistributor",
          "type": "address"
        }
      ],
      "name": "RewardDistributorSet",
      "type": "event"
    },
    {
      "anonymous": false,
      "inputs": [
        {
          "indexed": true,
          "internalType": "address",
          "name": "newRiskManagerAddress",
          "type": "address"
        }
      ],
      "name": "RiskManagerAddressSet",
      "type": "event"
    },
    {
      "anonymous": false,
      "inputs": [
        {
          "indexed": false,
          "internalType": "uint256",
          "name": "amount",
          "type": "uint256"
        }
      ],
      "name": "UsdcPremiumReceived",
      "type": "event"
    },
    {
      "anonymous": false,
      "inputs": [
        {
          "indexed": true,
          "internalType": "address",
          "name": "user",
          "type": "address"
        },
        {
          "indexed": false,
          "internalType": "uint256",
          "name": "shareAmount",
          "type": "uint256"
        },
        {
          "indexed": false,
          "internalType": "uint256",
          "name": "timestamp",
          "type": "uint256"
        }
      ],
      "name": "WithdrawalRequested",
      "type": "event"
    },
    {
      "inputs": [],
      "name": "CAT_POOL_REWARD_ID",
      "outputs": [
        {
          "internalType": "uint256",
          "name": "",
          "type": "uint256"
        }
      ],
      "stateMutability": "view",
      "type": "function"
    },
    {
      "inputs": [],
      "name": "MIN_USDC_AMOUNT",
      "outputs": [
        {
          "internalType": "uint256",
          "name": "",
          "type": "uint256"
        }
      ],
      "stateMutability": "view",
      "type": "function"
    },
    {
      "inputs": [],
      "name": "NOTICE_PERIOD",
      "outputs": [
        {
          "internalType": "uint256",
          "name": "",
          "type": "uint256"
        }
      ],
      "stateMutability": "view",
      "type": "function"
    },
    {
      "inputs": [],
      "name": "adapter",
      "outputs": [
        {
          "internalType": "contract IYieldAdapter",
          "name": "",
          "type": "address"
        }
      ],
      "stateMutability": "view",
      "type": "function"
    },
    {
      "inputs": [],
      "name": "capitalPoolAddress",
      "outputs": [
        {
          "internalType": "address",
          "name": "",
          "type": "address"
        }
      ],
      "stateMutability": "view",
      "type": "function"
    },
    {
      "inputs": [],
      "name": "catShareToken",
      "outputs": [
        {
          "internalType": "contract CatShare",
          "name": "",
          "type": "address"
        }
      ],
      "stateMutability": "view",
      "type": "function"
    },
    {
      "inputs": [
        {
          "internalType": "address",
          "name": "protocolAsset",
          "type": "address"
        }
      ],
      "name": "claimProtocolAssetRewards",
      "outputs": [],
      "stateMutability": "nonpayable",
      "type": "function"
    },
    {
      "inputs": [
        {
          "internalType": "address",
          "name": "user",
          "type": "address"
        },
        {
          "internalType": "address",
          "name": "protocolAsset",
          "type": "address"
        }
      ],
      "name": "claimProtocolAssetRewardsFor",
      "outputs": [],
      "stateMutability": "nonpayable",
      "type": "function"
    },
    {
      "inputs": [
        {
          "internalType": "uint256",
          "name": "usdcAmount",
          "type": "uint256"
        }
      ],
      "name": "depositLiquidity",
      "outputs": [],
      "stateMutability": "nonpayable",
      "type": "function"
    },
    {
      "inputs": [
        {
          "internalType": "uint256",
          "name": "amountToDraw",
          "type": "uint256"
        }
      ],
      "name": "drawFund",
      "outputs": [],
      "stateMutability": "nonpayable",
      "type": "function"
    },
    {
      "inputs": [
        {
          "internalType": "uint256",
          "name": "amount",
          "type": "uint256"
        }
      ],
      "name": "flushToAdapter",
      "outputs": [],
      "stateMutability": "nonpayable",
      "type": "function"
    },
    {
      "inputs": [
        {
          "internalType": "address",
          "name": "user",
          "type": "address"
        },
        {
          "internalType": "address",
          "name": "protocolAsset",
          "type": "address"
        }
      ],
      "name": "getPendingProtocolAssetRewards",
      "outputs": [
        {
          "internalType": "uint256",
          "name": "",
          "type": "uint256"
        }
      ],
      "stateMutability": "view",
      "type": "function"
    },
    {
      "inputs": [],
      "name": "idleUSDC",
      "outputs": [
        {
          "internalType": "uint256",
          "name": "",
          "type": "uint256"
        }
      ],
      "stateMutability": "view",
      "type": "function"
    },
    {
      "inputs": [],
      "name": "initialize",
      "outputs": [],
      "stateMutability": "nonpayable",
      "type": "function"
    },
    {
      "inputs": [],
      "name": "liquidUsdc",
      "outputs": [
        {
          "internalType": "uint256",
          "name": "",
          "type": "uint256"
        }
      ],
      "stateMutability": "view",
      "type": "function"
    },
    {
      "inputs": [],
      "name": "owner",
      "outputs": [
        {
          "internalType": "address",
          "name": "",
          "type": "address"
        }
      ],
      "stateMutability": "view",
      "type": "function"
    },
    {
      "inputs": [],
      "name": "policyManagerAddress",
      "outputs": [
        {
          "internalType": "address",
          "name": "",
          "type": "address"
        }
      ],
      "stateMutability": "view",
      "type": "function"
    },
    {
      "inputs": [
        {
          "internalType": "address",
          "name": "protocolAsset",
          "type": "address"
        },
        {
          "internalType": "uint256",
          "name": "amount",
          "type": "uint256"
        }
      ],
      "name": "receiveProtocolAssetsForDistribution",
      "outputs": [],
      "stateMutability": "nonpayable",
      "type": "function"
    },
    {
      "inputs": [
        {
          "internalType": "uint256",
          "name": "amount",
          "type": "uint256"
        }
      ],
      "name": "receiveUsdcPremium",
      "outputs": [],
      "stateMutability": "nonpayable",
      "type": "function"
    },
    {
      "inputs": [],
      "name": "renounceOwnership",
      "outputs": [],
      "stateMutability": "nonpayable",
      "type": "function"
    },
    {
      "inputs": [
        {
          "internalType": "uint256",
          "name": "shareAmount",
          "type": "uint256"
        }
      ],
      "name": "requestWithdrawal",
      "outputs": [],
      "stateMutability": "nonpayable",
      "type": "function"
    },
    {
      "inputs": [],
      "name": "rewardDistributor",
      "outputs": [
        {
          "internalType": "contract IRewardDistributor",
          "name": "",
          "type": "address"
        }
      ],
      "stateMutability": "view",
      "type": "function"
    },
    {
      "inputs": [],
      "name": "riskManagerAddress",
      "outputs": [
        {
          "internalType": "address",
          "name": "",
          "type": "address"
        }
      ],
      "stateMutability": "view",
      "type": "function"
    },
    {
      "inputs": [
        {
          "internalType": "address",
          "name": "newAdapterAddress",
          "type": "address"
        }
      ],
      "name": "setAdapter",
      "outputs": [],
      "stateMutability": "nonpayable",
      "type": "function"
    },
    {
      "inputs": [
        {
          "internalType": "address",
          "name": "newCapitalPoolAddress",
          "type": "address"
        }
      ],
      "name": "setCapitalPoolAddress",
      "outputs": [],
      "stateMutability": "nonpayable",
      "type": "function"
    },
    {
      "inputs": [
        {
          "internalType": "address",
          "name": "newPolicyManagerAddress",
          "type": "address"
        }
      ],
      "name": "setPolicyManagerAddress",
      "outputs": [],
      "stateMutability": "nonpayable",
      "type": "function"
    },
    {
      "inputs": [
        {
          "internalType": "address",
          "name": "rewardDistributorAddress",
          "type": "address"
        }
      ],
      "name": "setRewardDistributor",
      "outputs": [],
      "stateMutability": "nonpayable",
      "type": "function"
    },
    {
      "inputs": [
        {
          "internalType": "address",
          "name": "newRiskManagerAddress",
          "type": "address"
        }
      ],
      "name": "setRiskManagerAddress",
      "outputs": [],
      "stateMutability": "nonpayable",
      "type": "function"
    },
    {
      "inputs": [
        {
          "internalType": "address",
          "name": "newOwner",
          "type": "address"
        }
      ],
      "name": "transferOwnership",
      "outputs": [],
      "stateMutability": "nonpayable",
      "type": "function"
    },
    {
      "inputs": [],
      "name": "usdc",
      "outputs": [
        {
          "internalType": "contract IERC20",
          "name": "",
          "type": "address"
        }
      ],
      "stateMutability": "view",
      "type": "function"
    },
    {
      "inputs": [
        {
          "internalType": "uint256",
          "name": "catShareAmountBurn",
          "type": "uint256"
        }
      ],
      "name": "withdrawLiquidity",
      "outputs": [],
      "stateMutability": "nonpayable",
      "type": "function"
    },
    {
      "inputs": [
        {
          "internalType": "address",
          "name": "",
          "type": "address"
        }
      ],
      "name": "withdrawalRequestShares",
      "outputs": [
        {
          "internalType": "uint256",
          "name": "",
          "type": "uint256"
        }
      ],
      "stateMutability": "view",
      "type": "function"
    },
    {
      "inputs": [
        {
          "internalType": "address",
          "name": "",
          "type": "address"
        }
      ],
      "name": "withdrawalRequestTimestamp",
      "outputs": [
        {
          "internalType": "uint256",
          "name": "",
          "type": "uint256"
        }
      ],
      "stateMutability": "view",
      "type": "function"
    }
  ],
  "bytecode": "0x60c034620002f757601f62002ca738819003918201601f191683019291906001600160401b03841183851017620002fc578160809284926040968752833981010312620002f75780516001600160a01b039081811690818103620002f7576020928385015181811692838203620002f7578787015196838816809803620002f7576060015193838516809503620002f7578415620002df57600080546001600160a01b0319808216881783558b51929790969091167f8be0079c531659141344cd1fd0a4f28419497f9722a3daafe3b4186f6b6457e08880a36001805586156200029d5750156200024d5760805260a052846200018f575b855161290c90816200039b82396080518181816105a1015281816106a201528181610b4c01528181610c95015281816110c4015281816114eb015281816118400152611d2c015260a05181818161097101528181610e6a01528181611101015281816112c901528181611363015281816115e5015281816119b101528181611c020152818161242f015281816125dc01526127ae0152f35b8490600254161760025584519280840191818163095ea7b360e01b94858152886024890152600019604489015260448852620001cb8862000312565b87519082885af181513d826200022e575b505015620001ec575b50620000f7565b62000222956200021c938851938401526024830152604482015260448152620002158162000312565b826200032e565b6200032e565b388080808080620001e5565b909150620002445750833b15155b3880620001dc565b6001146200023c565b875162461bcd60e51b815260048101879052602360248201527f4349503a20496e76616c696420436174536861726520746f6b656e206164647260448201526265737360e81b6064820152608490fd5b62461bcd60e51b815260048101889052601f60248201527f4349503a20496e76616c6964205553444320746f6b656e2061646472657373006044820152606490fd5b8851631e4fbdf760e01b815260006004820152602490fd5b600080fd5b634e487b7160e01b600052604160045260246000fd5b608081019081106001600160401b03821117620002fc57604052565b906000602091828151910182855af1156200038e576000513d6200038457506001600160a01b0381163b155b620003625750565b604051635274afe760e01b81526001600160a01b039091166004820152602490fd5b600114156200035a565b6040513d6000823e3d90fdfe60806040908082526004918236101561001757600080fd5b600092833560e01c92836303eadcfc1461209b575082630a861f2a14611b9c57826312a279e414611930578263142ca556146117e457826314c4f5d8146117c75782631881401314611758578263200e40921461173a57826322df451e1461158b5782632cdbe3921461155457826337eca66f1461152c5782633bba08eb1461150f5782633e413bee146114cb578263476187cb146112ed57826355d66c1b146112a95782636af2fa061461128a578263715018a61461123057826376d58e1a146110825782638129fc1c14610e2d578263867ef8ff14610df85782638da5cb5b14610dd25782639b154aea14610ac75782639ee679e81461092c578263a1809b95146108bd578263a3a372fc1461084e578263a650884f14610826578263ab1da79c1461050b578263acc2166a146104e3578263d94184c7146104bc578263da77bde514610303578263df592ef2146102cc578263ea34ba2a146102ab578263f2fde38b1461020357505063fd067b1b1461019257600080fd5b34610200576020366003190112610200576001600160a01b036101b36120c0565b6101bb61274d565b166101c781151561233c565b806001600160a01b031960055416176005557f96ef4362498b0fa85c8625240e1d0ebcdd2ec5c981849e05d81705ed0720ad478280a280f35b80fd5b909150346102a75760203660031901126102a75761021f6120c0565b9061022861274d565b6001600160a01b03809216928315610278575050600054826001600160a01b0319821617600055167f8be0079c531659141344cd1fd0a4f28419497f9722a3daafe3b4186f6b6457e0600080a380f35b908460249251917f1e4fbdf7000000000000000000000000000000000000000000000000000000008352820152fd5b8280fd5b8382346102c857816003193601126102c857602090516103e88152f35b5080fd5b8382346102c85760203660031901126102c857806020926001600160a01b036102f36120c0565b1681526008845220549051908152f35b9150346102a75760203660031901126102a75781359161032161274d565b610329612551565b821561047a5760075490818411610437576001600160a01b03600254169182156103f4579061035a85879493612544565b600755813b156102a757846024849283875195869485937fb6b55f250000000000000000000000000000000000000000000000000000000085528401525af180156103ea576103d6575b507fcc9848fb7d37c13ac4943a6d7ac2860743174ff5263c691ca66349d5554092e36020848451908152a16001805580f35b6103df9061210f565b6102a75782386103a4565b83513d84823e3d90fd5b606482602086519162461bcd60e51b8352820152601a60248201527f4349503a205969656c642061646170746572206e6f74207365740000000000006044820152fd5b606490602084519162461bcd60e51b8352820152601d60248201527f4349503a20416d6f756e7420657863656564732069646c6520555344430000006044820152fd5b6020606492519162461bcd60e51b8352820152601760248201527f4349503a20416d6f756e74206d757374206265203e20300000000000000000006044820152fd5b908334610200578060031936011261020057506001600160a01b0360209254169051908152f35b8382346102c857816003193601126102c8576020906001600160a01b03600654169051908152f35b909150346102a75760209182600319360112610822576001600160a01b0319926105336120c0565b61053b61274d565b610543612551565b600254936001600160a01b0394858082169316968791161760025581610671575b50508260025416918261059f575b85857fa3b58806382f53f51f4e331febaba873954108bfd909dfe4ce75930767fd0a3a8280a26001805580f35b7f0000000000000000000000000000000000000000000000000000000000000000918151938185019582600063095ea7b360e01b988981528460248a0152811960448a0152604489526105f189612139565b88519082895af1903d6000519083610650575b50505015610614575b5050610572565b610645956106409351928301526024820152600060448201526044815261063a81612139565b82612862565b612862565b38808080808061060d565b91925090610667575084163b15155b388080610604565b600191501461065f565b83519063119faeb360e01b825283828281865afa9182156108185790849189936107e7575b508261075f575b5050507f00000000000000000000000000000000000000000000000000000000000000008351908382019284600063095ea7b360e01b95868152836024870152816044870152604486526106f086612139565b85519082865af16000513d82610741575b505015610710575b5050610564565b6107389361064091875191878301526024820152600060448201526044815261063a81612139565b38808080610709565b90915061075757508682163b15155b3880610701565b600114610750565b8551627b8a6760e11b8152908101928352306020840152918290819060400103818a865af180156107dd5787906107a9575b61079e91506007546120ec565b60075538828161069d565b508281813d83116107d6575b6107bf8183612155565b810103126107d15761079e9051610791565b600080fd5b503d6107b5565b84513d89823e3d90fd5b8281939294503d8311610811575b6107ff8183612155565b810103126107d1578390519138610696565b503d6107f5565b85513d8a823e3d90fd5b8380fd5b8382346102c857816003193601126102c8576020906001600160a01b03600554169051908152f35b8390346102c85760203660031901126102c8576001600160a01b036108716120c0565b61087961274d565b169061088682151561233c565b816001600160a01b03198254161790557f23a95e464468da16b375ddda688814183a6cecd086819983bce6be6132abb4048280a280f35b8334610200576020366003190112610200576001600160a01b036108df6120c0565b6108e761274d565b166108f381151561233c565b806001600160a01b031960065416176006557f075c02c513a415bd4ff5976f8aa6fc5767d2183daca9ec00ab71ce78e8bf81588280a280f35b9150346102a7576020806003193601126108225782359261094b612551565b8315610a865782516370a0823160e01b8152338282015282816024816001600160a01b037f0000000000000000000000000000000000000000000000000000000000000000165afa8015610a7c5785908790610a4b575b6109ae92501015612177565b3385526009825282852054610a0a5750907f24b91f4f47caf44230a57777a9be744924e82bf666f2d5702faf97df35e60f9f91338552600981528382862055600881524282862055815193845242908401523392a26001805580f35b90606492519162461bcd60e51b8352820152601f60248201527f4349503a205769746864726177616c20726571756573742070656e64696e67006044820152fd5b50508281813d8311610a75575b610a628183612155565b810103126107d157846109ae91516109a2565b503d610a58565b84513d88823e3d90fd5b90606492519162461bcd60e51b8352820152601360248201527f4349503a20496e76616c696420616d6f756e74000000000000000000000000006044820152fd5b9150346102a75760209182600319360112610822578035906001600160a01b03610af6816003541633146121e8565b610afe612551565b8215610d6a5780825416918215610d2957610b176122a4565b8411610cc15790839187876007549586861115600014610bb457505050610b709350610b4583600754612544565b60075554167f0000000000000000000000000000000000000000000000000000000000000000612687565b805b80610b80575b846001805580f35b7faf79777195e67a77fa488472318c69d16c1a33eea8be9687b7356498870badc3938351928352820152a138808080610b78565b919486610bc49197929597612544565b9181610c86575b50508460025416908982151580610c7d575b610bee575b50505050509050610b72565b610c259684541693895197889586948593627b8a6760e11b855284019092916001600160a01b036020916040840195845216910152565b03925af1908115610a7c578691610c4c575b610c4192506120ec565b808438808089610be2565b90508482813d8311610c76575b610c638183612155565b810103126107d157610c41915190610c37565b503d610c59565b50811515610bdd565b8192955090610cb9918b6007557f0000000000000000000000000000000000000000000000000000000000000000612687565b923880610bcb565b6084908686519162461bcd60e51b8352820152602f60248201527f4349503a204472617720616d6f756e7420657863656564732043617420506f6f60448201527f6c2773206c6971756964205553444300000000000000000000000000000000006064820152fd5b606490868087519262461bcd60e51b845283015260248201527f4349503a204361706974616c506f6f6c2061646472657373206e6f74207365746044820152fd5b6084828686519162461bcd60e51b8352820152602160248201527f4349503a204472617720616d6f756e74206d75737420626520706f736974697660448201527f65000000000000000000000000000000000000000000000000000000000000006064820152fd5b8382346102c857816003193601126102c8576001600160a01b0360209254169051908152f35b8382346102c857806003193601126102c857602090610e26610e186120c0565b610e206120d6565b906123f8565b9051908152f35b8390346102c857816003193601126102c857610e4761274d565b610e4f612551565b6006549260ff8460a01c1661103f576001600160a01b0391827f000000000000000000000000000000000000000000000000000000000000000016928251907f8da5cb5b0000000000000000000000000000000000000000000000000000000082526020828481885afa918215610a7c578692610ffe575b5030911603610f9657740100000000000000000000000000000000000000007fffffffffffffffffffffff00ffffffffffffffffffffffffffffffffffffffff85961617600655823b15610f9157839260448492845195869384926340c10f1960e01b845230908401526103e860248401525af1908115610f885750610f74575b50807f5daa87a0e9463431830481fd4b6e3403442dfb9a12b9c07597e9f61d50b633c891a16001805580f35b610f7d9061210f565b610200578082610f48565b513d84823e3d90fd5b505050fd5b6020608492519162461bcd60e51b8352820152602660248201527f4349503a20506f6f6c206d757374206265206f776e6572206f6620736861726560448201527f20746f6b656e00000000000000000000000000000000000000000000000000006064820152fd5b9091506020813d602011611037575b8161101a60209383612155565b8101031261103357518181168103611033579087610ec7565b8580fd5b3d915061100d565b906020606492519162461bcd60e51b8352820152601860248201527f4349503a20416c726561647920696e697469616c697a656400000000000000006044820152fd5b909150346102a75760203660031901126102a7578035916110a1612551565b6103e883106111ed576110b383612791565b9182156111ab5784906110e88530337f00000000000000000000000000000000000000000000000000000000000000006126de565b6110f4856007546120ec565b6007556001600160a01b037f000000000000000000000000000000000000000000000000000000000000000016803b156102a75783516340c10f1960e01b81523392810192835260208301869052918391839182908490829060400103925af180156103ea57611197575b50507f361ba717d7dc431bc0e89a68bfde2949370d66837de51c915057710622ba18a291815193845260208401523392a26001805580f35b6111a09061210f565b61082257833861115f565b6020606492519162461bcd60e51b8352820152601660248201527f4349503a204e6f2073686172657320746f206d696e74000000000000000000006044820152fd5b906020606492519162461bcd60e51b8352820152601960248201527f4349503a20416d6f756e742062656c6f77206d696e696d756d000000000000006044820152fd5b833461020057806003193601126102005761124961274d565b60006001600160a01b0381546001600160a01b031981168355167f8be0079c531659141344cd1fd0a4f28419497f9722a3daafe3b4186f6b6457e08280a380f35b8382346102c857816003193601126102c8576020906007549051908152f35b8382346102c857816003193601126102c857602090516001600160a01b037f0000000000000000000000000000000000000000000000000000000000000000168152f35b909150346102a757816003193601126102a7576113086120c0565b6113106120d6565b916001600160a01b03611328816003541633146121e8565b611330612551565b806006541693611341851515612259565b8551946370a0823160e01b8652828516948585880152886020958689602481897f0000000000000000000000000000000000000000000000000000000000000000165afa9889156114c1578299611488575b509186939185936113dd8c519b8c96879586946304b3319360e31b865285016060919493929460808201956001600160a01b03809216835260001960208401521660408201520152565b03925af194851561147e57879561142d575b50849561141f7f5558d706dd6960573fef84ad53d8ada2354d00230f2d47b8c12e63ab89cd4d9195961515612387565b519586521693a36001805580f35b9394508284813d8311611477575b6114458183612155565b810103126107d1577f5558d706dd6960573fef84ad53d8ada2354d00230f2d47b8c12e63ab89cd4d91935194936113ef565b503d61143b565b86513d89823e3d90fd5b8780929a5081949593503d83116114ba575b6114a48183612155565b810103126107d157905196909190899086611393565b503d61149a565b8a513d84823e3d90fd5b8382346102c857816003193601126102c857602090516001600160a01b037f0000000000000000000000000000000000000000000000000000000000000000168152f35b8382346102c857816003193601126102c857516000198152602090f35b8382346102c857816003193601126102c8576020906001600160a01b03600354169051908152f35b8382346102c85760203660031901126102c857806020926001600160a01b0361157b6120c0565b1681526009845220549051908152f35b9150346102a75760209182600319360112610822576115a86120c0565b6115b0612551565b6001600160a01b03908160065416926115ca841515612259565b868551916370a0823160e01b835233818401528783602481887f0000000000000000000000000000000000000000000000000000000000000000165afa9283156117305790829189946116f9575b5087516304b3319360e31b81523391810191825260001960208301526001600160a01b03861660408301526060820193909352919586929091839182906080015b03925af1928315610a7c5786936116aa575b50829361169a7f5558d706dd6960573fef84ad53d8ada2354d00230f2d47b8c12e63ab89cd4d91941515612387565b5193845216923392a36001805580f35b92508483813d83116116f2575b6116c18183612155565b810103126107d1577f5558d706dd6960573fef84ad53d8ada2354d00230f2d47b8c12e63ab89cd4d9192519261166b565b503d6116b7565b93849193508092503d8311611729575b6117138183612155565b810103126107d157905186918890611659611618565b503d611709565b87513d84823e3d90fd5b8382346102c857816003193601126102c8576020905162278d008152f35b8334610200576020366003190112610200576001600160a01b0361177a6120c0565b61178261274d565b1661178e81151561233c565b806001600160a01b031960035416176003557fdfd2967b9417925459cd79ae13c6dec37092beff03f9cd8ed4c3e687fe93d2e48280a280f35b8382346102c857816003193601126102c857602090610e266122a4565b9150346102a75760203660031901126102a7578135916001600160a01b036005541633036118c957821561187b5750816020916118647f448a99f1d3c28ace4a0f299c935b411c4ccbbc061b0622a3c4bdf4800448c7129430337f00000000000000000000000000000000000000000000000000000000000000006126de565b611870826007546120ec565b60075551908152a180f35b6020608492519162461bcd60e51b83528201526024808201527f4349503a205072656d69756d20616d6f756e74206d75737420626520706f73696044820152637469766560e01b6064820152fd5b6020608492519162461bcd60e51b83528201526024808201527f4349503a2043616c6c6572206973206e6f742074686520506f6c6963794d616e60448201527f61676572000000000000000000000000000000000000000000000000000000006064820152fd5b9150346102a757806003193601126102a75761194a6120c0565b90602435916001600160a01b038091611968826003541633146121e8565b611970612551565b61197f82600654161515612259565b16938415611b33578315611aca5790859161199c853033896126de565b8351916318160ddd60e01b83526020838381847f0000000000000000000000000000000000000000000000000000000000000000165afa928315611ac0578493611a89575b506006541691823b15610822576084849283875195869485937ffc967542000000000000000000000000000000000000000000000000000000008552600019908501528b60248501528a604485015260648401525af180156103ea57611a75575b50507ff75655ff28e221f07f858143c1ff3f265ad3b451590cd209591bd5a2c1446d569160209151908152a26001805580f35b611a7e9061210f565b610822578338611a42565b935091506020833d602011611ab8575b81611aa660209383612155565b810103126107d15786925191386119e1565b3d9150611a99565b85513d86823e3d90fd5b608490602084519162461bcd60e51b8352820152602e60248201527f4349503a20416d6f756e74206f662070726f746f636f6c206173736574206d7560448201527f737420626520706f7369746976650000000000000000000000000000000000006064820152fd5b608490602084519162461bcd60e51b8352820152602a60248201527f4349503a2050726f746f636f6c2061737365742063616e6e6f74206265207a6560448201527f726f2061646472657373000000000000000000000000000000000000000000006064820152fd5b8390346102c857602092836003193601126102a7578135611bbb612551565b801561204d573384526009855281842054801561200b578103611fc957338452600885528184205462278d008101809111611fb6574210611f74576001600160a01b0392837f0000000000000000000000000000000000000000000000000000000000000000169383516370a0823160e01b815233838201528781602481895afa8015611e535784908890611f43575b611c5792501015612177565b611c60836125bf565b946103e88610611edc57338752600988528685812055600888528685812055803b15611ed85786855180927f9dc29fac000000000000000000000000000000000000000000000000000000008252818381611cd48a338b8401602090939291936001600160a01b0360408201951681520152565b03925af18015611e5357611ec5575b50600754808611611d6257505050829394611d217fcf0ecba4af3b8b67c37965ee7be541c7e75b178af907654d298e79054095038994600754612544565b6007555b611d5085337f0000000000000000000000000000000000000000000000000000000000000000612687565b82519485528401523392a26001805580f35b611d6c9086612544565b9086600755600254168015611e5d578451627b8a6760e11b81528381018381523060208201529091899183919082908b90829060400103925af1908115611e53578791611e26575b5010611de457507fcf0ecba4af3b8b67c37965ee7be541c7e75b178af907654d298e790540950389929394611d25565b6064908684519162461bcd60e51b8352820152601e60248201527f4349503a2041646170746572207769746864726177616c206661696c656400006044820152fd5b90508781813d8311611e4c575b611e3d8183612155565b810103126107d1575188611db4565b503d611e33565b85513d89823e3d90fd5b6084838987519162461bcd60e51b8352820152602a60248201527f4349503a20496e73756666696369656e742069646c65205553444320616e642060448201527f6e6f2061646170746572000000000000000000000000000000000000000000006064820152fd5b611ed19096919661210f565b9487611ce3565b8680fd5b6084838987519162461bcd60e51b83528201526024808201527f4349503a205769746864726177616c20616d6f756e742062656c6f77206d696e60448201527f696d756d000000000000000000000000000000000000000000000000000000006064820152fd5b50508781813d8311611f6d575b611f5a8183612155565b81010312611ed85783611c579151611c4b565b503d611f50565b6064838684519162461bcd60e51b8352820152601960248201527f4349503a204e6f7469636520706572696f6420616374697665000000000000006044820152fd5b602485601186634e487b7160e01b835252fd5b6064838684519162461bcd60e51b8352820152601460248201527f4349503a20416d6f756e74206d69736d617463680000000000000000000000006044820152fd5b6064848785519162461bcd60e51b8352820152601a60248201527f4349503a204e6f207769746864726177616c20726571756573740000000000006044820152fd5b6084838684519162461bcd60e51b83528201526024808201527f4349503a2053686172657320746f206275726e206d75737420626520706f73696044820152637469766560e01b6064820152fd5b8490346102c857816003193601126102c8576020906001600160a01b03600254168152f35b600435906001600160a01b03821682036107d157565b602435906001600160a01b03821682036107d157565b919082018092116120f957565b634e487b7160e01b600052601160045260246000fd5b67ffffffffffffffff811161212357604052565b634e487b7160e01b600052604160045260246000fd5b6080810190811067ffffffffffffffff82111761212357604052565b90601f8019910116810190811067ffffffffffffffff82111761212357604052565b1561217e57565b608460405162461bcd60e51b815260206004820152602260248201527f4349503a20496e73756666696369656e742043617453686172652062616c616e60448201527f63650000000000000000000000000000000000000000000000000000000000006064820152fd5b156121ef57565b608460405162461bcd60e51b815260206004820152602260248201527f4349503a2043616c6c6572206973206e6f7420746865205269736b4d616e616760448201527f65720000000000000000000000000000000000000000000000000000000000006064820152fd5b1561226057565b606460405162461bcd60e51b815260206004820152601f60248201527f4349503a20526577617264206469737472696275746f72206e6f7420736574006044820152fd5b6002546001600160a01b03166000816122c8575b6122c591506007546120ec565b90565b60206004926040519384809263119faeb360e01b82525afa9081156123305780916122f9575b506122c591506122b8565b90506020823d602011612328575b8161231460209383612155565b8101031261020057506122c59051386122ee565b3d9150612307565b604051903d90823e3d90fd5b1561234357565b606460405162461bcd60e51b815260206004820152601b60248201527f4349503a20416464726573732063616e6e6f74206265207a65726f00000000006044820152fd5b1561238e57565b608460405162461bcd60e51b815260206004820152602760248201527f4349503a204e6f207265776172647320746f20636c61696d20666f722074686960448201527f73206173736574000000000000000000000000000000000000000000000000006064820152fd5b906001600160a01b03806006541692831561253b576040519384926370a0823160e01b8452808316600485015283602460209788937f0000000000000000000000000000000000000000000000000000000000000000165afa9182156124fa578593600093612506575b506040517f13038af00000000000000000000000000000000000000000000000000000000081526001600160a01b039182166004820152600019602482015294166044850152606484019190915282908180608481015b03915afa9182156124fa576000926124d057505090565b90809250813d83116124f3575b6124e78183612155565b810103126107d1575190565b503d6124dd565b6040513d6000823e3d90fd5b8481959294503d8311612534575b61251e8183612155565b810103126107d1579151849290916124b9612462565b503d612514565b50505050600090565b919082039182116120f957565b600260015414612562576002600155565b60046040517f3ee5aeb5000000000000000000000000000000000000000000000000000000008152fd5b818102929181159184041417156120f957565b81156125a9570490565b634e487b7160e01b600052601260045260246000fd5b6040516318160ddd60e01b81526020816004816001600160a01b037f0000000000000000000000000000000000000000000000000000000000000000165afa9081156124fa57600091612655575b506103e881111561264d576103e71981019081116120f9575b8015612646576126416122c59261263b6122a4565b9061258c565b61259f565b5050600090565b506000612626565b906020823d60201161267f575b8161266f60209383612155565b810103126102005750513861260d565b3d9150612662565b6040517fa9059cbb0000000000000000000000000000000000000000000000000000000060208201526001600160a01b039290921660248301526044808301939093529181526126dc91610640606483612155565b565b9290604051927f23b872dd0000000000000000000000000000000000000000000000000000000060208501526001600160a01b03809216602485015216604483015260648201526064815260a081019181831067ffffffffffffffff841117612123576126dc92604052612862565b6001600160a01b0360005416330361276157565b60246040517f118cdaa7000000000000000000000000000000000000000000000000000000008152336004820152fd5b6040516318160ddd60e01b81526020816004816001600160a01b037f0000000000000000000000000000000000000000000000000000000000000000165afa9081156124fa57600091612830575b506103e8811115612828576103e71981019081116120f9575b6128006122a4565b9081158015612820575b61281b57612641906122c59361258c565b505090565b50801561280a565b5060006127f8565b906020823d60201161285a575b8161284a60209383612155565b81010312610200575051386127df565b3d915061283d565b906000602091828151910182855af1156124fa576000513d6128cd57506001600160a01b0381163b155b6128935750565b6024906001600160a01b03604051917f5274afe7000000000000000000000000000000000000000000000000000000008352166004820152fd5b6001141561288c56fea2646970667358221220983f45cff742dac088bee8f5dbc81423cf6ebacb1750663946a117d062b37dfe64736f6c63430008160033",
  "linkReferences": {},
  "deployedLinkReferences": {}
}