{
  "_format": "hh-sol-artifact-1",
  "contractName": "CapitalPool",
  "sourceName": "contracts/core/CapitalPool.sol",
  "abi": [
    {
      "inputs": [
        {
          "internalType": "address",
          "name": "_initialOwner",
          "type": "address"
        },
        {
          "internalType": "address",
          "name": "_underlyingAsset",
          "type": "address"
        }
      ],
      "stateMutability": "nonpayable",
      "type": "constructor"
    },
    {
      "inputs": [],
      "name": "AdapterNotConfigured",
      "type": "error"
    },
    {
      "inputs": [],
      "name": "InconsistentState",
      "type": "error"
    },
    {
      "inputs": [],
      "name": "InsufficientShares",
      "type": "error"
    },
    {
      "inputs": [],
      "name": "InvalidAmount",
      "type": "error"
    },
    {
      "inputs": [],
      "name": "InvalidRequestIndex",
      "type": "error"
    },
    {
      "inputs": [],
      "name": "MismatchedArrayLengths",
      "type": "error"
    },
    {
      "inputs": [],
      "name": "NoActiveDeposit",
      "type": "error"
    },
    {
      "inputs": [],
      "name": "NoSharesToMint",
      "type": "error"
    },
    {
      "inputs": [],
      "name": "NoWithdrawalRequest",
      "type": "error"
    },
    {
      "inputs": [],
      "name": "NotLossDistributor",
      "type": "error"
    },
    {
      "inputs": [],
      "name": "NotRiskManager",
      "type": "error"
    },
    {
      "inputs": [],
      "name": "NoticePeriodActive",
      "type": "error"
    },
    {
      "inputs": [
        {
          "internalType": "address",
          "name": "owner",
          "type": "address"
        }
      ],
      "name": "OwnableInvalidOwner",
      "type": "error"
    },
    {
      "inputs": [
        {
          "internalType": "address",
          "name": "account",
          "type": "address"
        }
      ],
      "name": "OwnableUnauthorizedAccount",
      "type": "error"
    },
    {
      "inputs": [],
      "name": "PayoutExceedsPoolLPCapital",
      "type": "error"
    },
    {
      "inputs": [],
      "name": "ReentrancyGuardReentrantCall",
      "type": "error"
    },
    {
      "inputs": [
        {
          "internalType": "address",
          "name": "token",
          "type": "address"
        }
      ],
      "name": "SafeERC20FailedOperation",
      "type": "error"
    },
    {
      "inputs": [],
      "name": "ZeroAddress",
      "type": "error"
    },
    {
      "anonymous": false,
      "inputs": [
        {
          "indexed": true,
          "internalType": "address",
          "name": "adapterAddress",
          "type": "address"
        },
        {
          "indexed": false,
          "internalType": "string",
          "name": "functionCalled",
          "type": "string"
        },
        {
          "indexed": false,
          "internalType": "string",
          "name": "reason",
          "type": "string"
        }
      ],
      "name": "AdapterCallFailed",
      "type": "event"
    },
    {
      "anonymous": false,
      "inputs": [
        {
          "indexed": true,
          "internalType": "enum YieldPlatform",
          "name": "platform",
          "type": "uint8"
        },
        {
          "indexed": true,
          "internalType": "address",
          "name": "adapterAddress",
          "type": "address"
        }
      ],
      "name": "BaseYieldAdapterSet",
      "type": "event"
    },
    {
      "anonymous": false,
      "inputs": [
        {
          "indexed": true,
          "internalType": "address",
          "name": "user",
          "type": "address"
        },
        {
          "indexed": false,
          "internalType": "uint256",
          "name": "amount",
          "type": "uint256"
        },
        {
          "indexed": false,
          "internalType": "uint256",
          "name": "sharesMinted",
          "type": "uint256"
        },
        {
          "indexed": false,
          "internalType": "enum YieldPlatform",
          "name": "yieldChoice",
          "type": "uint8"
        }
      ],
      "name": "Deposit",
      "type": "event"
    },
    {
      "anonymous": false,
      "inputs": [
        {
          "indexed": true,
          "internalType": "address",
          "name": "newLossDistributor",
          "type": "address"
        }
      ],
      "name": "LossDistributorSet",
      "type": "event"
    },
    {
      "anonymous": false,
      "inputs": [
        {
          "indexed": true,
          "internalType": "address",
          "name": "previousOwner",
          "type": "address"
        },
        {
          "indexed": true,
          "internalType": "address",
          "name": "newOwner",
          "type": "address"
        }
      ],
      "name": "OwnershipTransferred",
      "type": "event"
    },
    {
      "anonymous": false,
      "inputs": [
        {
          "indexed": true,
          "internalType": "address",
          "name": "newRewardDistributor",
          "type": "address"
        }
      ],
      "name": "RewardDistributorSet",
      "type": "event"
    },
    {
      "anonymous": false,
      "inputs": [
        {
          "indexed": true,
          "internalType": "address",
          "name": "newRiskManager",
          "type": "address"
        }
      ],
      "name": "RiskManagerSet",
      "type": "event"
    },
    {
      "anonymous": false,
      "inputs": [
        {
          "indexed": true,
          "internalType": "address",
          "name": "underwriter",
          "type": "address"
        },
        {
          "indexed": false,
          "internalType": "uint256",
          "name": "sharesBurnt",
          "type": "uint256"
        }
      ],
      "name": "SharesBurntForLoss",
      "type": "event"
    },
    {
      "anonymous": false,
      "inputs": [
        {
          "indexed": true,
          "internalType": "address",
          "name": "newUnderwriterManager",
          "type": "address"
        }
      ],
      "name": "UnderwriterManagerSet",
      "type": "event"
    },
    {
      "anonymous": false,
      "inputs": [
        {
          "indexed": false,
          "internalType": "uint256",
          "name": "newPeriod",
          "type": "uint256"
        }
      ],
      "name": "UnderwriterNoticePeriodSet",
      "type": "event"
    },
    {
      "anonymous": false,
      "inputs": [
        {
          "indexed": true,
          "internalType": "address",
          "name": "user",
          "type": "address"
        },
        {
          "indexed": false,
          "internalType": "uint256",
          "name": "assetsReceived",
          "type": "uint256"
        },
        {
          "indexed": false,
          "internalType": "uint256",
          "name": "sharesBurned",
          "type": "uint256"
        },
        {
          "indexed": false,
          "internalType": "uint256",
          "name": "requestIndex",
          "type": "uint256"
        }
      ],
      "name": "WithdrawalExecuted",
      "type": "event"
    },
    {
      "anonymous": false,
      "inputs": [
        {
          "indexed": true,
          "internalType": "address",
          "name": "user",
          "type": "address"
        },
        {
          "indexed": false,
          "internalType": "uint256",
          "name": "sharesCancelled",
          "type": "uint256"
        },
        {
          "indexed": false,
          "internalType": "uint256",
          "name": "requestIndex",
          "type": "uint256"
        }
      ],
      "name": "WithdrawalRequestCancelled",
      "type": "event"
    },
    {
      "anonymous": false,
      "inputs": [
        {
          "indexed": true,
          "internalType": "address",
          "name": "user",
          "type": "address"
        },
        {
          "indexed": false,
          "internalType": "uint256",
          "name": "sharesToBurn",
          "type": "uint256"
        },
        {
          "indexed": false,
          "internalType": "uint256",
          "name": "timestamp",
          "type": "uint256"
        },
        {
          "indexed": false,
          "internalType": "uint256",
          "name": "requestIndex",
          "type": "uint256"
        }
      ],
      "name": "WithdrawalRequested",
      "type": "event"
    },
    {
      "anonymous": false,
      "inputs": [
        {
          "indexed": true,
          "internalType": "address",
          "name": "adapter",
          "type": "address"
        },
        {
          "indexed": true,
          "internalType": "uint256",
          "name": "rewardPoolId",
          "type": "uint256"
        }
      ],
      "name": "YieldAdapterRewardPoolSet",
      "type": "event"
    },
    {
      "anonymous": false,
      "inputs": [
        {
          "indexed": true,
          "internalType": "address",
          "name": "adapter",
          "type": "address"
        },
        {
          "indexed": false,
          "internalType": "uint256",
          "name": "yieldAmount",
          "type": "uint256"
        },
        {
          "indexed": false,
          "internalType": "uint256",
          "name": "rewardPoolId",
          "type": "uint256"
        }
      ],
      "name": "YieldHarvested",
      "type": "event"
    },
    {
      "inputs": [],
      "name": "BPS",
      "outputs": [
        {
          "internalType": "uint256",
          "name": "",
          "type": "uint256"
        }
      ],
      "stateMutability": "view",
      "type": "function"
    },
    {
      "inputs": [
        {
          "internalType": "uint256",
          "name": "",
          "type": "uint256"
        }
      ],
      "name": "activeYieldAdapterAddresses",
      "outputs": [
        {
          "internalType": "address",
          "name": "",
          "type": "address"
        }
      ],
      "stateMutability": "view",
      "type": "function"
    },
    {
      "inputs": [
        {
          "internalType": "enum YieldPlatform",
          "name": "",
          "type": "uint8"
        }
      ],
      "name": "baseYieldAdapters",
      "outputs": [
        {
          "internalType": "contract IYieldAdapter",
          "name": "",
          "type": "address"
        }
      ],
      "stateMutability": "view",
      "type": "function"
    },
    {
      "inputs": [
        {
          "internalType": "address[]",
          "name": "underwriters",
          "type": "address[]"
        },
        {
          "internalType": "uint256[]",
          "name": "sharesToBurn",
          "type": "uint256[]"
        },
        {
          "internalType": "uint256",
          "name": "totalLossAmount",
          "type": "uint256"
        }
      ],
      "name": "burnSharesForLoss",
      "outputs": [],
      "stateMutability": "nonpayable",
      "type": "function"
    },
    {
      "inputs": [
        {
          "internalType": "uint256",
          "name": "_requestIndex",
          "type": "uint256"
        }
      ],
      "name": "cancelWithdrawalRequest",
      "outputs": [],
      "stateMutability": "nonpayable",
      "type": "function"
    },
    {
      "inputs": [
        {
          "internalType": "uint256",
          "name": "_amount",
          "type": "uint256"
        },
        {
          "internalType": "enum YieldPlatform",
          "name": "_yieldChoice",
          "type": "uint8"
        }
      ],
      "name": "deposit",
      "outputs": [],
      "stateMutability": "nonpayable",
      "type": "function"
    },
    {
      "inputs": [
        {
          "components": [
            {
              "internalType": "address",
              "name": "claimant",
              "type": "address"
            },
            {
              "internalType": "uint256",
              "name": "claimantAmount",
              "type": "uint256"
            },
            {
              "internalType": "address",
              "name": "feeRecipient",
              "type": "address"
            },
            {
              "internalType": "uint256",
              "name": "feeAmount",
              "type": "uint256"
            },
            {
              "internalType": "address[]",
              "name": "adapters",
              "type": "address[]"
            },
            {
              "internalType": "uint256[]",
              "name": "capitalPerAdapter",
              "type": "uint256[]"
            },
            {
              "internalType": "uint256",
              "name": "totalCapitalFromPoolLPs",
              "type": "uint256"
            }
          ],
          "internalType": "struct ICapitalPool.PayoutData",
          "name": "_payoutData",
          "type": "tuple"
        }
      ],
      "name": "executePayout",
      "outputs": [],
      "stateMutability": "nonpayable",
      "type": "function"
    },
    {
      "inputs": [
        {
          "internalType": "uint256",
          "name": "_requestIndex",
          "type": "uint256"
        }
      ],
      "name": "executeWithdrawal",
      "outputs": [],
      "stateMutability": "nonpayable",
      "type": "function"
    },
    {
      "inputs": [
        {
          "internalType": "address",
          "name": "_underwriter",
          "type": "address"
        }
      ],
      "name": "getUnderwriterAccount",
      "outputs": [
        {
          "internalType": "uint256",
          "name": "totalDepositedAssetPrincipal",
          "type": "uint256"
        },
        {
          "internalType": "enum YieldPlatform",
          "name": "yieldChoice",
          "type": "uint8"
        },
        {
          "internalType": "uint256",
          "name": "masterShares",
          "type": "uint256"
        },
        {
          "internalType": "uint256",
          "name": "totalPendingWithdrawalShares",
          "type": "uint256"
        }
      ],
      "stateMutability": "view",
      "type": "function"
    },
    {
      "inputs": [
        {
          "internalType": "address",
          "name": "_underwriter",
          "type": "address"
        }
      ],
      "name": "getUnderwriterAdapterAddress",
      "outputs": [
        {
          "internalType": "address",
          "name": "",
          "type": "address"
        }
      ],
      "stateMutability": "view",
      "type": "function"
    },
    {
      "inputs": [
        {
          "internalType": "address",
          "name": "_underwriter",
          "type": "address"
        }
      ],
      "name": "getWithdrawalRequestCount",
      "outputs": [
        {
          "internalType": "uint256",
          "name": "",
          "type": "uint256"
        }
      ],
      "stateMutability": "view",
      "type": "function"
    },
    {
      "inputs": [
        {
          "internalType": "address",
          "name": "adapterAddress",
          "type": "address"
        }
      ],
      "name": "harvestAndDistributeYield",
      "outputs": [],
      "stateMutability": "nonpayable",
      "type": "function"
    },
    {
      "inputs": [
        {
          "internalType": "address",
          "name": "",
          "type": "address"
        }
      ],
      "name": "isAdapterActive",
      "outputs": [
        {
          "internalType": "bool",
          "name": "",
          "type": "bool"
        }
      ],
      "stateMutability": "view",
      "type": "function"
    },
    {
      "inputs": [],
      "name": "lossDistributor",
      "outputs": [
        {
          "internalType": "address",
          "name": "",
          "type": "address"
        }
      ],
      "stateMutability": "view",
      "type": "function"
    },
    {
      "inputs": [],
      "name": "owner",
      "outputs": [
        {
          "internalType": "address",
          "name": "",
          "type": "address"
        }
      ],
      "stateMutability": "view",
      "type": "function"
    },
    {
      "inputs": [
        {
          "internalType": "address",
          "name": "",
          "type": "address"
        }
      ],
      "name": "principalInAdapter",
      "outputs": [
        {
          "internalType": "uint256",
          "name": "",
          "type": "uint256"
        }
      ],
      "stateMutability": "view",
      "type": "function"
    },
    {
      "inputs": [],
      "name": "renounceOwnership",
      "outputs": [],
      "stateMutability": "nonpayable",
      "type": "function"
    },
    {
      "inputs": [
        {
          "internalType": "uint256",
          "name": "_sharesToBurn",
          "type": "uint256"
        }
      ],
      "name": "requestWithdrawal",
      "outputs": [],
      "stateMutability": "nonpayable",
      "type": "function"
    },
    {
      "inputs": [],
      "name": "rewardDistributor",
      "outputs": [
        {
          "internalType": "contract IRewardDistributor",
          "name": "",
          "type": "address"
        }
      ],
      "stateMutability": "view",
      "type": "function"
    },
    {
      "inputs": [],
      "name": "riskManager",
      "outputs": [
        {
          "internalType": "address",
          "name": "",
          "type": "address"
        }
      ],
      "stateMutability": "view",
      "type": "function"
    },
    {
      "inputs": [
        {
          "internalType": "enum YieldPlatform",
          "name": "_platform",
          "type": "uint8"
        },
        {
          "internalType": "address",
          "name": "_adapterAddress",
          "type": "address"
        }
      ],
      "name": "setBaseYieldAdapter",
      "outputs": [],
      "stateMutability": "nonpayable",
      "type": "function"
    },
    {
      "inputs": [
        {
          "internalType": "address",
          "name": "_lossDistributor",
          "type": "address"
        }
      ],
      "name": "setLossDistributor",
      "outputs": [],
      "stateMutability": "nonpayable",
      "type": "function"
    },
    {
      "inputs": [
        {
          "internalType": "address",
          "name": "_rewardDistributor",
          "type": "address"
        }
      ],
      "name": "setRewardDistributor",
      "outputs": [],
      "stateMutability": "nonpayable",
      "type": "function"
    },
    {
      "inputs": [
        {
          "internalType": "address",
          "name": "_riskManager",
          "type": "address"
        }
      ],
      "name": "setRiskManager",
      "outputs": [],
      "stateMutability": "nonpayable",
      "type": "function"
    },
    {
      "inputs": [
        {
          "internalType": "address",
          "name": "_underwriterManager",
          "type": "address"
        }
      ],
      "name": "setUnderwriterManager",
      "outputs": [],
      "stateMutability": "nonpayable",
      "type": "function"
    },
    {
      "inputs": [
        {
          "internalType": "uint256",
          "name": "_newPeriod",
          "type": "uint256"
        }
      ],
      "name": "setUnderwriterNoticePeriod",
      "outputs": [],
      "stateMutability": "nonpayable",
      "type": "function"
    },
    {
      "inputs": [
        {
          "internalType": "address",
          "name": "adapterAddress",
          "type": "address"
        },
        {
          "internalType": "uint256",
          "name": "rewardPoolId",
          "type": "uint256"
        }
      ],
      "name": "setYieldAdapterRewardPool",
      "outputs": [],
      "stateMutability": "nonpayable",
      "type": "function"
    },
    {
      "inputs": [
        {
          "internalType": "uint256",
          "name": "_shares",
          "type": "uint256"
        }
      ],
      "name": "sharesToValue",
      "outputs": [
        {
          "internalType": "uint256",
          "name": "",
          "type": "uint256"
        }
      ],
      "stateMutability": "view",
      "type": "function"
    },
    {
      "inputs": [],
      "name": "totalMasterSharesSystem",
      "outputs": [
        {
          "internalType": "uint256",
          "name": "",
          "type": "uint256"
        }
      ],
      "stateMutability": "view",
      "type": "function"
    },
    {
      "inputs": [],
      "name": "totalSystemValue",
      "outputs": [
        {
          "internalType": "uint256",
          "name": "",
          "type": "uint256"
        }
      ],
      "stateMutability": "view",
      "type": "function"
    },
    {
      "inputs": [
        {
          "internalType": "address",
          "name": "newOwner",
          "type": "address"
        }
      ],
      "name": "transferOwnership",
      "outputs": [],
      "stateMutability": "nonpayable",
      "type": "function"
    },
    {
      "inputs": [],
      "name": "underlyingAsset",
      "outputs": [
        {
          "internalType": "contract IERC20",
          "name": "",
          "type": "address"
        }
      ],
      "stateMutability": "view",
      "type": "function"
    },
    {
      "inputs": [
        {
          "internalType": "address",
          "name": "",
          "type": "address"
        }
      ],
      "name": "underwriterAccounts",
      "outputs": [
        {
          "internalType": "uint256",
          "name": "totalDepositedAssetPrincipal",
          "type": "uint256"
        },
        {
          "internalType": "enum YieldPlatform",
          "name": "yieldChoice",
          "type": "uint8"
        },
        {
          "internalType": "contract IYieldAdapter",
          "name": "yieldAdapter",
          "type": "address"
        },
        {
          "internalType": "uint256",
          "name": "masterShares",
          "type": "uint256"
        },
        {
          "internalType": "uint256",
          "name": "totalPendingWithdrawalShares",
          "type": "uint256"
        }
      ],
      "stateMutability": "view",
      "type": "function"
    },
    {
      "inputs": [],
      "name": "underwriterManager",
      "outputs": [
        {
          "internalType": "contract IUnderwriterManager",
          "name": "",
          "type": "address"
        }
      ],
      "stateMutability": "view",
      "type": "function"
    },
    {
      "inputs": [],
      "name": "underwriterNoticePeriod",
      "outputs": [
        {
          "internalType": "uint256",
          "name": "",
          "type": "uint256"
        }
      ],
      "stateMutability": "view",
      "type": "function"
    },
    {
      "inputs": [
        {
          "internalType": "uint256",
          "name": "_value",
          "type": "uint256"
        }
      ],
      "name": "valueToShares",
      "outputs": [
        {
          "internalType": "uint256",
          "name": "",
          "type": "uint256"
        }
      ],
      "stateMutability": "view",
      "type": "function"
    },
    {
      "inputs": [
        {
          "internalType": "address",
          "name": "",
          "type": "address"
        },
        {
          "internalType": "uint256",
          "name": "",
          "type": "uint256"
        }
      ],
      "name": "withdrawalRequests",
      "outputs": [
        {
          "internalType": "uint256",
          "name": "shares",
          "type": "uint256"
        },
        {
          "internalType": "uint256",
          "name": "unlockTimestamp",
          "type": "uint256"
        }
      ],
      "stateMutability": "view",
      "type": "function"
    },
    {
      "inputs": [
        {
          "internalType": "address",
          "name": "",
          "type": "address"
        }
      ],
      "name": "yieldAdapterRewardPoolId",
      "outputs": [
        {
          "internalType": "uint256",
          "name": "",
          "type": "uint256"
        }
      ],
      "stateMutability": "view",
      "type": "function"
    }
  ],
  "bytecode": "0x60a0346200013e5762002c6990601f38839003908101601f19168201906001600160401b038211838310176200014357808391604095869485528339810103126200013e576200005d6020620000558362000159565b920162000159565b60016000908155916001600160a01b039081169182156200012657600180546001600160a01b0319811685179091558551939083167f8be0079c531659141344cd1fd0a4f28419497f9722a3daafe3b4186f6b6457e08680a383600655169081156200011757506080526002826103e89283600d55808052600b60205220015551612afa90816200016f8239608051818181610ae001528181610c34015281816117c501528181611b4201528181611f8001526126440152f35b63d92e233d60e01b8152600490fd5b8451631e4fbdf760e01b815260048101859052602490fd5b600080fd5b634e487b7160e01b600052604160045260246000fd5b51906001600160a01b03821682036200013e5756fe608080604052600436101561001357600080fd5b600090813560e01c9081630342a90714611d655750806304ac9b1314611d475780630bdf3c7f14611aaf5780631d4e733e14611a3d57806323ed7d32146119fc578063249d39e9146119df57806324f13a761461160057806325d27d8b146115e15780632a9e6501146115c35780632e0163cb146115a5578063359c59131461156d57806337bcdbc1146115305780633c139af61461146e578063426483a6146114475780634537e215146113dd57806345b05d091461124a57806347842663146112235780634e5a2328146111c757806358b12bc3146111795780635ccea26b1461110f57806362ca8460146110a5578063654cfdff14610b60578063715018a614610b045780637158da7c14610ac0578063731f25c014610a5a5780637a3d7bfe14610a175780638a69c8dd146109f05780638da5cb5b146109c95780638ffd61b8146109915780639e1b5855146109555780639ee679e814610770578063a1809b95146106dc578063acc2166a146106b5578063b0616324146105f8578063cbcc43ef146105ce578063d14002921461029e578063f2fde38b146101fd5763fcc48030146101c357600080fd5b346101fa5760203660031901126101fa5760406020916001600160a01b036101e9611d8a565b168152600c83522054604051908152f35b80fd5b50346101fa5760203660031901126101fa57610217611d8a565b61021f612851565b6001600160a01b0380911690811561026d57600154826001600160a01b0319821617600155167f8be0079c531659141344cd1fd0a4f28419497f9722a3daafe3b4186f6b6457e0600080a380f35b602483604051907f1e4fbdf70000000000000000000000000000000000000000000000000000000082526004820152fd5b50346101fa5760603660031901126101fa5767ffffffffffffffff6004358181116105ca576102d1903690600401611e4a565b916024359081116105c6576102ea903690600401611e4a565b90926102f4612895565b6001600160a01b0360035416330361055c57818103610532576044351561050857845b818110610365578561033561032d604435611f06565b600d54611ee3565b600d55600e546044351161035c57610351604435600e54611ee3565b600e555b6001815580f35b80600e55610355565b610378610373828487612841565b611f3c565b610383828588612841565b359081156104fe576001600160a01b0381168852600b60205260408820600281019081548481106104d457846103b891611ee3565b8092556103cf815480861081871802811890611ee3565b905515610417575b907fa75adc8969e089f43b12066debb210e66ae60cf6a09f2058e70e031137102fc660206001600160a01b03600195946040519485521692a25b01610317565b6001600160a01b0381168852600b6020526104476040892060036000918281558260018201558260028201550155565b6001600160a01b0381168852600c602052604088208054908981558161046f575b50506103d7565b7f7fffffffffffffffffffffffffffffffffffffffffffffffffffffffffffffff821682036104c0578952602089209060011b8101905b8181101561046857600080825560018201556002016104a6565b60248a634e487b7160e01b81526011600452fd5b60046040517f39996567000000000000000000000000000000000000000000000000000000008152fd5b5050600190610411565b60046040517f2c5211c6000000000000000000000000000000000000000000000000000000008152fd5b60046040517f568efce2000000000000000000000000000000000000000000000000000000008152fd5b608460405162461bcd60e51b815260206004820152602560248201527f43503a2043616c6c6572206973206e6f7420746865204c6f737344697374726960448201527f6275746f720000000000000000000000000000000000000000000000000000006064820152fd5b8380fd5b8280fd5b50346101fa5760203660031901126101fa576103556105eb611d8a565b6105f3612895565b612538565b50346101fa5760403660031901126101fa57610612611d8a565b6001600160a01b0360243591610626612851565b16808352600960205260ff6040842054161561067157808352600a6020528160408420557f39f12bd3c1b068fe481ee9c1d2e360450711e0dc34d6e6af43d8ed6b92661e568380a380f35b606460405162461bcd60e51b815260206004820152601a60248201527f43503a2041646170746572206d757374206265206163746976650000000000006044820152fd5b50346101fa57806003193601126101fa5760206001600160a01b0360045416604051908152f35b50346101fa5760203660031901126101fa576001600160a01b036106fe611d8a565b610706612851565b16801561074657806001600160a01b031960045416176004557f075c02c513a415bd4ff5976f8aa6fc5767d2183daca9ec00ab71ce78e8bf81588280a280f35b60046040517fd92e233d000000000000000000000000000000000000000000000000000000008152fd5b50346101fa5760203660031901126101fa5760043561078d612895565b801561050857338252600b602052604082206003810160026107b0848354611f2f565b92015482116104d45755816107c48261250b565b6001600160a01b0360055416806108d9575b5050506107e560065442611f2f565b338352600c60205260408320604051906107fe82611e7b565b8382526020820190838252805490680100000000000000008210156108c5579061082d91600182018155611dc8565b9290926108b25751825551600190910155338352600c602052604083205460001981019190821161089e5760408051938452602084019190915282015233907f38e3d972947cfef94205163d483d6287ef27eb312e20cb8e0b13a49989db232e9080606081015b0390a26001815580f35b602484634e487b7160e01b81526011600452fd5b602486634e487b7160e01b815280600452fd5b602487634e487b7160e01b81526041600452fd5b803b156105ca576040517fa2d8e608000000000000000000000000000000000000000000000000000000008152336004820152602481019290925282908290604490829084905af1801561094a57610932575b806107d6565b61093b90611ead565b61094657813861092c565b5080fd5b6040513d84823e3d90fd5b50346101fa5760203660031901126101fa576004359060048210156101fa5760206001600160a01b0361098784611e31565b5416604051908152f35b50346101fa5760203660031901126101fa5760406020916001600160a01b036109b8611d8a565b168152600a83522054604051908152f35b50346101fa57806003193601126101fa5760206001600160a01b0360015416604051908152f35b50346101fa5760203660031901126101fa576020610a0f60043561250b565b604051908152f35b50346101fa5760203660031901126101fa57600435906008548210156101fa5760206001600160a01b03610a4a84611dfa565b9190546040519260031b1c168152f35b50346101fa5760203660031901126101fa5760406080916001600160a01b03610a81611d8a565b168152600b6020522080549060ff60018201541690610ab460036002830154920154926040519485526020850190611da5565b60408301526060820152f35b50346101fa57806003193601126101fa5760206040516001600160a01b037f0000000000000000000000000000000000000000000000000000000000000000168152f35b50346101fa57806003193601126101fa57610b1d612851565b60006001600160a01b036001546001600160a01b03198116600155167f8be0079c531659141344cd1fd0a4f28419497f9722a3daafe3b4186f6b6457e08280a380f35b50346101fa5760403660031901126101fa5760043590602491823560048110156105ca57610b8c612895565b811561050857600090801561107b57338452602091600b835260408520610bb283611e31565b54906001600160a01b039182811691821561107b57600281015415159081611049575b50610fe057610be387612a18565b938415610fb6576040517f23b872dd000000000000000000000000000000000000000000000000000000008882015233818c015230604482015260648082018a9052815267ffffffffffffffff9a907f00000000000000000000000000000000000000000000000000000000000000009060a081018d811182821017610fa1578c9d610c7b8d9e9a9b9c9d9493899360405284612a50565b8c8a60405195610cdd87610ccf858201937f095ea7b300000000000000000000000000000000000000000000000000000000988986528c8401602090939291936001600160a01b0360408201951681520152565b03601f198101895288611ec1565b86519082875af18a513d82610f83575b505015610f16575b50505050833b15610f0757604051917fb6b55f250000000000000000000000000000000000000000000000000000000083528a60048401528683838183895af18015610f0b5788938891610eee575b5050338752600b8a52604087209060028201948554938415610e6e575b5050509081610d758c610d7c959454611f2f565b9055611f2f565b9055610d8a84600d54611f2f565b600d55610d9987600e54611f2f565b600e558252600f855260408220610db1878254611f2f565b90556005541680610e03575b5050610dd6926040519485528401526040830190611da5565b7fa7db47d395930224de3f54139208b4a958fe3747c2ad1dee5a6624643a6def9360603392a26001815580f35b803b15610946576040517f77d9cabd000000000000000000000000000000000000000000000000000000008152336004820152602481018790529082908290604490829084905af1801561094a5715610dbd57610e5f90611ead565b610e6a578438610dbd565b8480fd5b919395969798509193506001840192610edc575081547fffffffffffffffffffffff0000000000000000000000000000000000000000001660ff8a161760089190911b74ffffffffffffffffffffffffffffffffffffffff001617905589949392918691610d7c3880610d61565b8c634e487b7160e01b81526021600452fd5b610efa91929450611ead565b610f075786918638610d44565b8580fd5b6040513d89823e3d90fd5b90919293949596979850604051918c83015287858301528d604483015260448252608082019082821090821117610f6e5791610f608e99989796959492610f659460405282612a50565b612a50565b38808080610cf5565b84634e487b7160e01b60005260416004526000fd5b909150610f9957508883163b15155b3880610ced565b600114610f92565b83634e487b7160e01b60005260416004526000fd5b60046040517f01aeea51000000000000000000000000000000000000000000000000000000008152fd5b60848660318b6040519262461bcd60e51b845260048401528201527f43503a2043616e6e6f74206368616e6765207969656c6420706c6174666f726d60448201527f3b2077697468647261772066697273742e0000000000000000000000000000006064820152fd5b600101546000955060ff16905060048110156110685785141538610bd5565b8989634e487b7160e01b81526021600452fd5b60046040517f967ea58b000000000000000000000000000000000000000000000000000000008152fd5b50346101fa5760203660031901126101fa576001600160a01b036110c7611d8a565b6110cf612851565b16801561074657806001600160a01b031960025416176002557f95329fb8cf31c0dda21532344c24159acccf2f795f93c87a30ac6d3ddb9d03d68280a280f35b50346101fa5760203660031901126101fa576001600160a01b03611131611d8a565b611139612851565b16801561074657806001600160a01b031960055416176005557fda1ab4d9bf3aaf27501818ce6108ebfa2279c6ef7a66e80b0b71555b4182315e8280a280f35b50346101fa5760203660031901126101fa577f5a6df72af1049434e3648d533ba8bc9b230b44f3426d8a18f6e13cebbe2e0a3c60206004356111b9612851565b80600655604051908152a180f35b50346101fa5760403660031901126101fa576111e1611d8a565b6001600160a01b03168152600c60205260408120805460243592908310156101fa57604061120f8484611dc8565b506001815491015482519182526020820152f35b50346101fa57806003193601126101fa5760206001600160a01b0360025416604051908152f35b50346101fa5760203660031901126101fa57600435611267612895565b338252600c602052604082209081548110156113b3576112878183611dc8565b505491836112948461250b565b6001600160a01b036005541680611346575b505050338452600b602052600360408520016112c3848254611ee3565b90558054600019810190811161133257906112f56112e46112fa9383611dc8565b506112ef8584611dc8565b90612497565b6124cd565b60405191825260208201527fb3da01b92e7a69234e378e882a9c251189e2b2f73ddca83aabc48dd7164ebe1060403392a26001815580f35b602485634e487b7160e01b81526011600452fd5b803b156105ca576040517fe20b0977000000000000000000000000000000000000000000000000000000008152336004820152602481019290925282908290604490829084905af1801561094a5761139f575b806112a6565b6113a890611ead565b6105c6578338611399565b60046040517f724950b9000000000000000000000000000000000000000000000000000000008152fd5b50346101fa5760203660031901126101fa576001600160a01b036113ff611d8a565b611407612851565b16801561074657806001600160a01b031960035416176003557f8b96f142c92da55d1d8bb372cd49fb12b32f17d32f3699b97654795894f2eb8e8280a280f35b50346101fa57806003193601126101fa5760206001600160a01b0360035416604051908152f35b50346101fa57600319602036820112610946576004359067ffffffffffffffff82116105ca5760e0908236030112610946576114a8612895565b6001600160a01b036002541633036114c65761035590600401611f50565b608460405162461bcd60e51b815260206004820152602160248201527f43503a2043616c6c6572206973206e6f7420746865205269736b4d616e61676560448201527f72000000000000000000000000000000000000000000000000000000000000006064820152fd5b50346101fa5760203660031901126101fa5760ff60406020926001600160a01b03611559611d8a565b168152600984522054166040519015158152f35b50346101fa5760203660031901126101fa5760406020916001600160a01b03611594611d8a565b168152600f83522054604051908152f35b50346101fa57806003193601126101fa576020600d54604051908152f35b50346101fa57806003193601126101fa576020600654604051908152f35b50346101fa5760203660031901126101fa576020610a0f600435611f06565b50346101fa57602090816003193601126101fa5760043591611620612895565b338252600c81526040822080548410156113b3578361163e91611dc8565b509260016040519461164f86611e7b565b805486520154808386015242106119b557338352600b82526040832091845194600284019586541061198b5751906116868261250b565b95338652600b82526040862090600282019182549285899480611957575b8392916116bf916116b88860039754611ee3565b8555611ee3565b9055016116cd858254611ee3565b90556116db84600d54611ee3565b600d55338752600c8352604087208054600019810190811161194357906112f56117086117139383611dc8565b506112ef8984611dc8565b8695886118c1575b600e546001995083116118b85761173483600e54611ee3565b600e555b6001600160a01b03988991015460081c168752600f83526040872061175e878254611ee3565b905554159660055416908161181a575b50507f1fd2e466982404121834498ff574c408f6bc78e2a56db572a408961b908d567e9394956117ee575b50836117be575b60408051948552602085019190915283015233918060608101610894565b6117e984337f00000000000000000000000000000000000000000000000000000000000000006128f0565b6117a0565b600b90338752526118146040862060036000918281558260018201558260028201550155565b38611799565b813b156118b45786916064839260405194859384927fd01ebe3700000000000000000000000000000000000000000000000000000000845233600485015260248401528c60448401525af180156118a957611876575b8061176e565b946118a27f1fd2e466982404121834498ff574c408f6bc78e2a56db572a408961b908d567e9596611ead565b9493611870565b6040513d88823e3d90fd5b8680fd5b87600e55611738565b6001810154604051627b8a6760e11b8152600481019a909a523060248b01529096508390899060081c6001600160a01b0316818a816044810103925af18015610f0b578790611915575b600198509561171b565b508288813d831161193c575b61192b8183611ec1565b810103126118b4576001975161190b565b503d611921565b602489634e487b7160e01b81526011600452fd5b9450508154868102908082048814901517156104c057906116bf8761197f87600396956128d0565b969150919293506116a4565b60046040517f3e94cfa9000000000000000000000000000000000000000000000000000000008152fd5b60046040517ff214e773000000000000000000000000000000000000000000000000000000008152fd5b50346101fa57806003193601126101fa5760206040516127108152f35b50346101fa5760203660031901126101fa57602090600160406001600160a01b039283611a27611d8a565b168152600b855220015460081c16604051908152f35b50346101fa5760203660031901126101fa5760a09060406001600160a01b039182611a66611d8a565b168152600b60205220908154916001810154916003600283015492015492604051948552611a9a6020860160ff8316611da5565b60081c16604084015260608301526080820152f35b50346101fa5760403660031901126101fa57600435600481101561094657602435906001600160a01b0380831692838103610e6a57611aec612851565b8215611d03578315610746573b15611c99576040517f38d52e0f0000000000000000000000000000000000000000000000000000000081526020908181600481885afa9081156118a9578691611c63575b5082807f000000000000000000000000000000000000000000000000000000000000000016911603611c1f57600990611b7584611e31565b856001600160a01b03198254161790558486525260408420805460ff811615611bc3575b5050507fab3bc9279813edd3b1ca91e3bfe46928f8173d2a7e1708fc9f06b70a14a4c5968380a380f35b60ff1916600117905560085468010000000000000000811015611c0b57806001611bf09201600855611dfa565b819291549060031b9185831b921b1916179055388080611b99565b602485634e487b7160e01b81526041600452fd5b6064906040519062461bcd60e51b82526004820152601a60248201527f43503a2041646170746572206173736574206d69736d617463680000000000006044820152fd5b90508181813d8311611c92575b611c7a8183611ec1565b81010312610f0757518281168103610f075738611b3d565b503d611c70565b608460405162461bcd60e51b815260206004820152602560248201527f43503a20416461707465722061646472657373206973206e6f74206120636f6e60448201527f74726163740000000000000000000000000000000000000000000000000000006064820152fd5b606460405162461bcd60e51b815260206004820152602060248201527f43503a2043616e6e6f742073657420666f72204e4f4e4520706c6174666f726d6044820152fd5b50346101fa57806003193601126101fa576020600e54604051908152f35b9050346109465781600319360112610946576020906001600160a01b03600554168152f35b600435906001600160a01b0382168203611da057565b600080fd5b906004821015611db25752565b634e487b7160e01b600052602160045260246000fd5b8054821015611de45760005260206000209060011b0190600090565b634e487b7160e01b600052603260045260246000fd5b600854811015611de45760086000527ff3f7a9fe364faab93b216da50a3214154f22a0a2b415b23a84c8169e8b636ee30190600090565b6004811015611db2576000526007602052604060002090565b9181601f84011215611da05782359167ffffffffffffffff8311611da0576020808501948460051b010111611da057565b6040810190811067ffffffffffffffff821117611e9757604052565b634e487b7160e01b600052604160045260246000fd5b67ffffffffffffffff8111611e9757604052565b90601f8019910116810190811067ffffffffffffffff821117611e9757604052565b91908203918211611ef057565b634e487b7160e01b600052601160045260246000fd5b600e548015611f2b57600d546103e7198101908111611ef057611f2892612945565b90565b5090565b91908201809211611ef057565b356001600160a01b0381168103611da05790565b611f6260608201356020830135611f2f565b9081156124935760c081013582116124695760c0810135612136575b7f0000000000000000000000000000000000000000000000000000000000000000916001600160a01b03906040517f70a082310000000000000000000000000000000000000000000000000000000081523060048201526020816024818689165afa801561212a5782916000916120f5575b501061208b57600e5481116120805761200b90600e54611ee3565b600e555b6020820135612064575b60608201351515908161204d575b50612030575050565b61204b91612045604060608401359301611f3c565b906128f0565b565b905061205b60408301611f3c565b16151538612027565b61207b602083013561207584611f3c565b856128f0565b612019565b506000600e5561200f565b608460405162461bcd60e51b815260206004820152602e60248201527f43503a205061796f7574206661696c65642c20696e73756666696369656e742060448201527f66756e64732067617468657265640000000000000000000000000000000000006064820152fd5b9150506020813d602011612122575b8161211160209383611ec1565b81010312611da05781905138611ff0565b3d9150612104565b6040513d6000823e3d90fd5b60049260206001600160a01b0360025416604051958680927f5c9244af0000000000000000000000000000000000000000000000000000000082525afa93841561212a57600094612423575b5061219560608301356020840135611f2f565b9060005b6121a660808501856129e2565b905081101561241a576121c6816121c060a08701876129e2565b90612841565b358015612411576121dd9060c08601359085612945565b908115612408576001600160a01b03612200610373836121c060808a018a6129e2565b604051627b8a6760e11b8152600481018590523060248201529116906020816044816000865af190816123dd575b506123d357807f4801b3b9794e8c30779294162ed70e5f040142d8b4c0a2a52d6b80c3abea1e3460c060405160408152600860408201527f7769746864726177000000000000000000000000000000000000000000000000606082015260806020820152600f60808201527f7769746864726177206661696c6564000000000000000000000000000000000060a0820152a26040517fdbf0f3e2000000000000000000000000000000000000000000000000000000008152306004820152602481018490526000916020908290604490829086905af182918161239f575b50612397575b5015612324575b600191505b01612199565b6001600160a01b0387163b15611da057604051917f9b154aea0000000000000000000000000000000000000000000000000000000083526004830152600082602481836001600160a01b038c165af191821561212a57600192612388575b50612319565b61239190611ead565b38612382565b905038612312565b9091506020813d6020116123cb575b816123bb60209383611ec1565b810103126105ca5751903861230c565b3d91506123ae565b506001915061231e565b602090813d8311612401575b6123f38183611ec1565b81010312611da0573861222e565b503d6123e9565b6001915061231e565b5060019061231e565b50935050611f7e565b6020949194813d602011612461575b8161243f60209383611ec1565b810103126109465751906001600160a01b03821682036101fa57509238612182565b3d9150612432565b60046040517f90c4e7f1000000000000000000000000000000000000000000000000000000008152fd5b5050565b91906124b7578082036124a8575050565b60018181925484550154910155565b634e487b7160e01b600052600060045260246000fd5b805480156124f55760001901906124e48282611dc8565b6124b7576001816000809355015555565b634e487b7160e01b600052603160045260246000fd5b600d546103e881111561253157600e546103e7198201918211611ef057611f2892612945565b5050600090565b906001600160a01b038092166000928184526020906009825260409160ff8387205416156127fe5782517f119faeb300000000000000000000000000000000000000000000000000000000815260049082818381895afa8891816127cb575b506125a6575050505050509050565b858852600f835284882054908181116125c5575b505050505050509050565b926125d68193926125fa9695611ee3565b8651627b8a6760e11b81528381019182523060208301529586918291604090910190565b03818b8a5af193841561271a578894612798575b508315158061278c575b612623575b806125ba565b858852600a825284882054928315612724578890878252600f8452868220547f0000000000000000000000000000000000000000000000000000000000000000936126728884835416876128f0565b8281541692833b15610e6a57879360849386928c5198899788967ffc9675420000000000000000000000000000000000000000000000000000000088528701521660248501528a604485015260648401525af1801561271a577ff343dfc1e44c65296fb907b287e6e12133eb7945ba79ec463d65ef129757c2ff9697985061270b575b508351928352820152a28038808080808061261d565b61271490611ead565b386126f5565b85513d8a823e3d90fd5b5060849185519162461bcd60e51b8352820152602360248201527f43503a2052657761726420706f6f6c20666f722061646170746572206e6f742060448201527f73657400000000000000000000000000000000000000000000000000000000006064820152fd5b50828154161515612618565b9093508181813d83116127c4575b6127b08183611ec1565b810103126127c05751923861260e565b8780fd5b503d6127a6565b9091508381813d83116127f7575b6127e38183611ec1565b810103126127f357519038612597565b8880fd5b503d6127d9565b60649083519062461bcd60e51b82526004820152601660248201527f43503a2041646170746572206e6f7420616374697665000000000000000000006044820152fd5b9190811015611de45760051b0190565b6001600160a01b0360015416330361286557565b60246040517f118cdaa7000000000000000000000000000000000000000000000000000000008152336004820152fd5b6002600054146128a6576002600055565b60046040517f3ee5aeb5000000000000000000000000000000000000000000000000000000008152fd5b81156128da570490565b634e487b7160e01b600052601260045260246000fd5b6040517fa9059cbb0000000000000000000000000000000000000000000000000000000060208201526001600160a01b0392909216602483015260448083019390935291815261204b91610f60606483611ec1565b909160001983830992808302928380861095039480860395146129d557848311156129bc579082910981600003821680920460028082600302188083028203028083028203028083028203028083028203028083028203028092029003029360018380600003040190848311900302920304170290565b82634e487b71600052156003026011186020526024601cfd5b505090611f2892506128d0565b903590601e1981360301821215611da0570180359067ffffffffffffffff8211611da057602001918160051b36038313611da057565b600d546103e7198101908111611ef057600e549081158015612a48575b15612a3f57505090565b611f2892612945565b508015612a35565b906000602091828151910182855af11561212a576000513d612abb57506001600160a01b0381163b155b612a815750565b6024906001600160a01b03604051917f5274afe7000000000000000000000000000000000000000000000000000000008352166004820152fd5b60011415612a7a56fea2646970667358221220c5d88a791d032037f4093c79ab6245f2b5f43e28978c3f9aff5674e47f6cc64d64736f6c63430008160033",
  "linkReferences": {},
  "deployedLinkReferences": {}
}