{
  "_format": "hh-sol-artifact-1",
  "contractName": "CapitalPool",
  "sourceName": "contracts/core/CapitalPool.sol",
  "abi": [
    {
      "inputs": [
        {
          "internalType": "address",
          "name": "_initialOwner",
          "type": "address"
        },
        {
          "internalType": "address",
          "name": "_underlyingAsset",
          "type": "address"
        }
      ],
      "stateMutability": "nonpayable",
      "type": "constructor"
    },
    {
      "inputs": [],
      "name": "AdapterNotConfigured",
      "type": "error"
    },
    {
      "inputs": [],
      "name": "InconsistentState",
      "type": "error"
    },
    {
      "inputs": [],
      "name": "InsufficientShares",
      "type": "error"
    },
    {
      "inputs": [],
      "name": "InvalidAmount",
      "type": "error"
    },
    {
      "inputs": [],
      "name": "InvalidRequestIndex",
      "type": "error"
    },
    {
      "inputs": [],
      "name": "NoActiveDeposit",
      "type": "error"
    },
    {
      "inputs": [],
      "name": "NoSharesToMint",
      "type": "error"
    },
    {
      "inputs": [],
      "name": "NoWithdrawalRequest",
      "type": "error"
    },
    {
      "inputs": [],
      "name": "NotRiskManager",
      "type": "error"
    },
    {
      "inputs": [],
      "name": "NoticePeriodActive",
      "type": "error"
    },
    {
      "inputs": [
        {
          "internalType": "address",
          "name": "owner",
          "type": "address"
        }
      ],
      "name": "OwnableInvalidOwner",
      "type": "error"
    },
    {
      "inputs": [
        {
          "internalType": "address",
          "name": "account",
          "type": "address"
        }
      ],
      "name": "OwnableUnauthorizedAccount",
      "type": "error"
    },
    {
      "inputs": [],
      "name": "PayoutExceedsPoolLPCapital",
      "type": "error"
    },
    {
      "inputs": [],
      "name": "ReentrancyGuardReentrantCall",
      "type": "error"
    },
    {
      "inputs": [
        {
          "internalType": "address",
          "name": "token",
          "type": "address"
        }
      ],
      "name": "SafeERC20FailedOperation",
      "type": "error"
    },
    {
      "inputs": [],
      "name": "ZeroAddress",
      "type": "error"
    },
    {
      "anonymous": false,
      "inputs": [
        {
          "indexed": true,
          "internalType": "address",
          "name": "adapterAddress",
          "type": "address"
        },
        {
          "indexed": false,
          "internalType": "string",
          "name": "functionCalled",
          "type": "string"
        },
        {
          "indexed": false,
          "internalType": "string",
          "name": "reason",
          "type": "string"
        }
      ],
      "name": "AdapterCallFailed",
      "type": "event"
    },
    {
      "anonymous": false,
      "inputs": [
        {
          "indexed": true,
          "internalType": "enum YieldPlatform",
          "name": "platform",
          "type": "uint8"
        },
        {
          "indexed": true,
          "internalType": "address",
          "name": "adapterAddress",
          "type": "address"
        }
      ],
      "name": "BaseYieldAdapterSet",
      "type": "event"
    },
    {
      "anonymous": false,
      "inputs": [
        {
          "indexed": true,
          "internalType": "address",
          "name": "user",
          "type": "address"
        },
        {
          "indexed": false,
          "internalType": "uint256",
          "name": "amount",
          "type": "uint256"
        },
        {
          "indexed": false,
          "internalType": "uint256",
          "name": "sharesMinted",
          "type": "uint256"
        },
        {
          "indexed": false,
          "internalType": "enum YieldPlatform",
          "name": "yieldChoice",
          "type": "uint8"
        }
      ],
      "name": "Deposit",
      "type": "event"
    },
    {
      "anonymous": false,
      "inputs": [
        {
          "indexed": true,
          "internalType": "address",
          "name": "underwriter",
          "type": "address"
        },
        {
          "indexed": false,
          "internalType": "uint256",
          "name": "principalLossAmount",
          "type": "uint256"
        },
        {
          "indexed": false,
          "internalType": "bool",
          "name": "wipedOut",
          "type": "bool"
        }
      ],
      "name": "LossesApplied",
      "type": "event"
    },
    {
      "anonymous": false,
      "inputs": [
        {
          "indexed": true,
          "internalType": "address",
          "name": "previousOwner",
          "type": "address"
        },
        {
          "indexed": true,
          "internalType": "address",
          "name": "newOwner",
          "type": "address"
        }
      ],
      "name": "OwnershipTransferred",
      "type": "event"
    },
    {
      "anonymous": false,
      "inputs": [
        {
          "indexed": true,
          "internalType": "address",
          "name": "newRewardDistributor",
          "type": "address"
        }
      ],
      "name": "RewardDistributorSet",
      "type": "event"
    },
    {
      "anonymous": false,
      "inputs": [
        {
          "indexed": true,
          "internalType": "address",
          "name": "newRiskManager",
          "type": "address"
        }
      ],
      "name": "RiskManagerSet",
      "type": "event"
    },
    {
      "anonymous": false,
      "inputs": [
        {
          "indexed": true,
          "internalType": "address",
          "name": "newUnderwriterManager",
          "type": "address"
        }
      ],
      "name": "UnderwriterManagerSet",
      "type": "event"
    },
    {
      "anonymous": false,
      "inputs": [
        {
          "indexed": false,
          "internalType": "uint256",
          "name": "newPeriod",
          "type": "uint256"
        }
      ],
      "name": "UnderwriterNoticePeriodSet",
      "type": "event"
    },
    {
      "anonymous": false,
      "inputs": [
        {
          "indexed": true,
          "internalType": "address",
          "name": "user",
          "type": "address"
        },
        {
          "indexed": false,
          "internalType": "uint256",
          "name": "assetsReceived",
          "type": "uint256"
        },
        {
          "indexed": false,
          "internalType": "uint256",
          "name": "sharesBurned",
          "type": "uint256"
        },
        {
          "indexed": false,
          "internalType": "uint256",
          "name": "requestIndex",
          "type": "uint256"
        }
      ],
      "name": "WithdrawalExecuted",
      "type": "event"
    },
    {
      "anonymous": false,
      "inputs": [
        {
          "indexed": true,
          "internalType": "address",
          "name": "user",
          "type": "address"
        },
        {
          "indexed": false,
          "internalType": "uint256",
          "name": "sharesCancelled",
          "type": "uint256"
        },
        {
          "indexed": false,
          "internalType": "uint256",
          "name": "requestIndex",
          "type": "uint256"
        }
      ],
      "name": "WithdrawalRequestCancelled",
      "type": "event"
    },
    {
      "anonymous": false,
      "inputs": [
        {
          "indexed": true,
          "internalType": "address",
          "name": "user",
          "type": "address"
        },
        {
          "indexed": false,
          "internalType": "uint256",
          "name": "sharesToBurn",
          "type": "uint256"
        },
        {
          "indexed": false,
          "internalType": "uint256",
          "name": "timestamp",
          "type": "uint256"
        },
        {
          "indexed": false,
          "internalType": "uint256",
          "name": "requestIndex",
          "type": "uint256"
        }
      ],
      "name": "WithdrawalRequested",
      "type": "event"
    },
    {
      "anonymous": false,
      "inputs": [
        {
          "indexed": true,
          "internalType": "address",
          "name": "adapter",
          "type": "address"
        },
        {
          "indexed": false,
          "internalType": "uint256",
          "name": "yieldAmount",
          "type": "uint256"
        }
      ],
      "name": "YieldHarvested",
      "type": "event"
    },
    {
      "inputs": [],
      "name": "BPS",
      "outputs": [
        {
          "internalType": "uint256",
          "name": "",
          "type": "uint256"
        }
      ],
      "stateMutability": "view",
      "type": "function"
    },
    {
      "inputs": [
        {
          "internalType": "uint256",
          "name": "",
          "type": "uint256"
        }
      ],
      "name": "activeYieldAdapterAddresses",
      "outputs": [
        {
          "internalType": "address",
          "name": "",
          "type": "address"
        }
      ],
      "stateMutability": "view",
      "type": "function"
    },
    {
      "inputs": [
        {
          "internalType": "address",
          "name": "_underwriter",
          "type": "address"
        },
        {
          "internalType": "uint256",
          "name": "_principalLossAmount",
          "type": "uint256"
        }
      ],
      "name": "applyLosses",
      "outputs": [],
      "stateMutability": "nonpayable",
      "type": "function"
    },
    {
      "inputs": [
        {
          "internalType": "enum YieldPlatform",
          "name": "",
          "type": "uint8"
        }
      ],
      "name": "baseYieldAdapters",
      "outputs": [
        {
          "internalType": "contract IYieldAdapter",
          "name": "",
          "type": "address"
        }
      ],
      "stateMutability": "view",
      "type": "function"
    },
    {
      "inputs": [
        {
          "internalType": "uint256",
          "name": "_requestIndex",
          "type": "uint256"
        }
      ],
      "name": "cancelWithdrawalRequest",
      "outputs": [],
      "stateMutability": "nonpayable",
      "type": "function"
    },
    {
      "inputs": [
        {
          "internalType": "uint256",
          "name": "_amount",
          "type": "uint256"
        },
        {
          "internalType": "enum YieldPlatform",
          "name": "_yieldChoice",
          "type": "uint8"
        }
      ],
      "name": "deposit",
      "outputs": [],
      "stateMutability": "nonpayable",
      "type": "function"
    },
    {
      "inputs": [
        {
          "components": [
            {
              "internalType": "address",
              "name": "claimant",
              "type": "address"
            },
            {
              "internalType": "uint256",
              "name": "claimantAmount",
              "type": "uint256"
            },
            {
              "internalType": "address",
              "name": "feeRecipient",
              "type": "address"
            },
            {
              "internalType": "uint256",
              "name": "feeAmount",
              "type": "uint256"
            },
            {
              "internalType": "address[]",
              "name": "adapters",
              "type": "address[]"
            },
            {
              "internalType": "uint256[]",
              "name": "capitalPerAdapter",
              "type": "uint256[]"
            },
            {
              "internalType": "uint256",
              "name": "totalCapitalFromPoolLPs",
              "type": "uint256"
            }
          ],
          "internalType": "struct ICapitalPool.PayoutData",
          "name": "_payoutData",
          "type": "tuple"
        }
      ],
      "name": "executePayout",
      "outputs": [],
      "stateMutability": "nonpayable",
      "type": "function"
    },
    {
      "inputs": [
        {
          "internalType": "uint256",
          "name": "_requestIndex",
          "type": "uint256"
        }
      ],
      "name": "executeWithdrawal",
      "outputs": [],
      "stateMutability": "nonpayable",
      "type": "function"
    },
    {
      "inputs": [
        {
          "internalType": "address",
          "name": "_underwriter",
          "type": "address"
        }
      ],
      "name": "getUnderwriterAccount",
      "outputs": [
        {
          "internalType": "uint256",
          "name": "totalDepositedAssetPrincipal",
          "type": "uint256"
        },
        {
          "internalType": "enum YieldPlatform",
          "name": "yieldChoice",
          "type": "uint8"
        },
        {
          "internalType": "uint256",
          "name": "masterShares",
          "type": "uint256"
        },
        {
          "internalType": "uint256",
          "name": "totalPendingWithdrawalShares",
          "type": "uint256"
        }
      ],
      "stateMutability": "view",
      "type": "function"
    },
    {
      "inputs": [
        {
          "internalType": "address",
          "name": "_underwriter",
          "type": "address"
        }
      ],
      "name": "getUnderwriterAdapterAddress",
      "outputs": [
        {
          "internalType": "address",
          "name": "",
          "type": "address"
        }
      ],
      "stateMutability": "view",
      "type": "function"
    },
    {
      "inputs": [
        {
          "internalType": "address",
          "name": "_underwriter",
          "type": "address"
        }
      ],
      "name": "getWithdrawalRequestCount",
      "outputs": [
        {
          "internalType": "uint256",
          "name": "",
          "type": "uint256"
        }
      ],
      "stateMutability": "view",
      "type": "function"
    },
    {
      "inputs": [
        {
          "internalType": "address",
          "name": "adapterAddress",
          "type": "address"
        }
      ],
      "name": "harvestAndDistributeYield",
      "outputs": [],
      "stateMutability": "nonpayable",
      "type": "function"
    },
    {
      "inputs": [
        {
          "internalType": "address",
          "name": "",
          "type": "address"
        }
      ],
      "name": "isAdapterActive",
      "outputs": [
        {
          "internalType": "bool",
          "name": "",
          "type": "bool"
        }
      ],
      "stateMutability": "view",
      "type": "function"
    },
    {
      "inputs": [],
      "name": "owner",
      "outputs": [
        {
          "internalType": "address",
          "name": "",
          "type": "address"
        }
      ],
      "stateMutability": "view",
      "type": "function"
    },
    {
      "inputs": [
        {
          "internalType": "address",
          "name": "",
          "type": "address"
        }
      ],
      "name": "principalInAdapter",
      "outputs": [
        {
          "internalType": "uint256",
          "name": "",
          "type": "uint256"
        }
      ],
      "stateMutability": "view",
      "type": "function"
    },
    {
      "inputs": [],
      "name": "renounceOwnership",
      "outputs": [],
      "stateMutability": "nonpayable",
      "type": "function"
    },
    {
      "inputs": [
        {
          "internalType": "uint256",
          "name": "_sharesToBurn",
          "type": "uint256"
        }
      ],
      "name": "requestWithdrawal",
      "outputs": [],
      "stateMutability": "nonpayable",
      "type": "function"
    },
    {
      "inputs": [],
      "name": "rewardDistributor",
      "outputs": [
        {
          "internalType": "contract IRewardDistributor",
          "name": "",
          "type": "address"
        }
      ],
      "stateMutability": "view",
      "type": "function"
    },
    {
      "inputs": [],
      "name": "riskManager",
      "outputs": [
        {
          "internalType": "address",
          "name": "",
          "type": "address"
        }
      ],
      "stateMutability": "view",
      "type": "function"
    },
    {
      "inputs": [
        {
          "internalType": "enum YieldPlatform",
          "name": "_platform",
          "type": "uint8"
        },
        {
          "internalType": "address",
          "name": "_adapterAddress",
          "type": "address"
        }
      ],
      "name": "setBaseYieldAdapter",
      "outputs": [],
      "stateMutability": "nonpayable",
      "type": "function"
    },
    {
      "inputs": [
        {
          "internalType": "address",
          "name": "_rewardDistributor",
          "type": "address"
        }
      ],
      "name": "setRewardDistributor",
      "outputs": [],
      "stateMutability": "nonpayable",
      "type": "function"
    },
    {
      "inputs": [
        {
          "internalType": "address",
          "name": "_riskManager",
          "type": "address"
        }
      ],
      "name": "setRiskManager",
      "outputs": [],
      "stateMutability": "nonpayable",
      "type": "function"
    },
    {
      "inputs": [
        {
          "internalType": "address",
          "name": "_underwriterManager",
          "type": "address"
        }
      ],
      "name": "setUnderwriterManager",
      "outputs": [],
      "stateMutability": "nonpayable",
      "type": "function"
    },
    {
      "inputs": [
        {
          "internalType": "uint256",
          "name": "_newPeriod",
          "type": "uint256"
        }
      ],
      "name": "setUnderwriterNoticePeriod",
      "outputs": [],
      "stateMutability": "nonpayable",
      "type": "function"
    },
    {
      "inputs": [
        {
          "internalType": "uint256",
          "name": "_shares",
          "type": "uint256"
        }
      ],
      "name": "sharesToValue",
      "outputs": [
        {
          "internalType": "uint256",
          "name": "",
          "type": "uint256"
        }
      ],
      "stateMutability": "view",
      "type": "function"
    },
    {
      "inputs": [],
      "name": "totalMasterSharesSystem",
      "outputs": [
        {
          "internalType": "uint256",
          "name": "",
          "type": "uint256"
        }
      ],
      "stateMutability": "view",
      "type": "function"
    },
    {
      "inputs": [],
      "name": "totalSystemValue",
      "outputs": [
        {
          "internalType": "uint256",
          "name": "",
          "type": "uint256"
        }
      ],
      "stateMutability": "view",
      "type": "function"
    },
    {
      "inputs": [
        {
          "internalType": "address",
          "name": "newOwner",
          "type": "address"
        }
      ],
      "name": "transferOwnership",
      "outputs": [],
      "stateMutability": "nonpayable",
      "type": "function"
    },
    {
      "inputs": [],
      "name": "underlyingAsset",
      "outputs": [
        {
          "internalType": "contract IERC20",
          "name": "",
          "type": "address"
        }
      ],
      "stateMutability": "view",
      "type": "function"
    },
    {
      "inputs": [
        {
          "internalType": "address",
          "name": "",
          "type": "address"
        }
      ],
      "name": "underwriterAccounts",
      "outputs": [
        {
          "internalType": "uint256",
          "name": "totalDepositedAssetPrincipal",
          "type": "uint256"
        },
        {
          "internalType": "enum YieldPlatform",
          "name": "yieldChoice",
          "type": "uint8"
        },
        {
          "internalType": "contract IYieldAdapter",
          "name": "yieldAdapter",
          "type": "address"
        },
        {
          "internalType": "uint256",
          "name": "masterShares",
          "type": "uint256"
        },
        {
          "internalType": "uint256",
          "name": "totalPendingWithdrawalShares",
          "type": "uint256"
        }
      ],
      "stateMutability": "view",
      "type": "function"
    },
    {
      "inputs": [],
      "name": "underwriterManager",
      "outputs": [
        {
          "internalType": "contract IUnderwriterManager",
          "name": "",
          "type": "address"
        }
      ],
      "stateMutability": "view",
      "type": "function"
    },
    {
      "inputs": [],
      "name": "underwriterNoticePeriod",
      "outputs": [
        {
          "internalType": "uint256",
          "name": "",
          "type": "uint256"
        }
      ],
      "stateMutability": "view",
      "type": "function"
    },
    {
      "inputs": [
        {
          "internalType": "uint256",
          "name": "_value",
          "type": "uint256"
        }
      ],
      "name": "valueToShares",
      "outputs": [
        {
          "internalType": "uint256",
          "name": "",
          "type": "uint256"
        }
      ],
      "stateMutability": "view",
      "type": "function"
    },
    {
      "inputs": [
        {
          "internalType": "address",
          "name": "",
          "type": "address"
        },
        {
          "internalType": "uint256",
          "name": "",
          "type": "uint256"
        }
      ],
      "name": "withdrawalRequests",
      "outputs": [
        {
          "internalType": "uint256",
          "name": "shares",
          "type": "uint256"
        },
        {
          "internalType": "uint256",
          "name": "unlockTimestamp",
          "type": "uint256"
        }
      ],
      "stateMutability": "view",
      "type": "function"
    }
  ],
  "bytecode": "0x60a0346200014c5762002af590601f38839003908101601f19168201906001600160401b038211838310176200015157808391604095869485528339810103126200014c576200005d6020620000558362000167565b920162000167565b60016000908155916001600160a01b039081169182156200013457600180546001600160a01b0319811685179091558551939083167f8be0079c531659141344cd1fd0a4f28419497f9722a3daafe3b4186f6b6457e08680a383600555169081156200012557506080526002826103e89283600b5580805260096020522001555161297890816200017d82396080518181816106b301528181610821015281816112dd015281816116130152818161170a01528181611a2c01528181611ebd01526125640152f35b63d92e233d60e01b8152600490fd5b8451631e4fbdf760e01b815260048101859052602490fd5b600080fd5b634e487b7160e01b600052604160045260246000fd5b51906001600160a01b03821682036200014c5756fe608060408181526004918236101561001657600080fd5b600092833560e01c9182630342a90714611c645750816304ac9b1314611c455781630bdf3c7f1461199a5781631d4e733e1461192b57816323ed7d32146118eb578163249d39e9146118ce57816324f13a761461143f57816325d27d8b1461141f5781632a9e6501146114005781632e0163cb146113e1578163359c5913146113aa5781633746060d146110e557816337bcdbc1146110a95781633c139af61461104f57816345b05d0914610ed15781634784266314610ea95781634e5a232814610e4d57816358b12bc314610dff5781635ccea26b14610d9457816362ca846014610d26578163654cfdff14610733578163715018a6146106d75781637158da7c14610693578163731f25c01461062f5781637a3d7bfe146105ed5781638a69c8dd146105c65781638da5cb5b1461059e5781639e1b5855146105645781639ee679e814610352578163a1809b95146102d7578163acc2166a146102af578163cbcc43ef1461027b578163f2fde38b146101d4575063fcc480301461019b57600080fd5b346101d05760203660031901126101d057806020926001600160a01b036101c0611c87565b168152600a845220549051908152f35b5080fd5b905034610277576020366003190112610277576101ef611c87565b906101f86126f2565b6001600160a01b03809216928315610248575050600154826001600160a01b0319821617600155167f8be0079c531659141344cd1fd0a4f28419497f9722a3daafe3b4186f6b6457e0600080a380f35b908460249251917f1e4fbdf7000000000000000000000000000000000000000000000000000000008352820152fd5b8280fd5b83346102ac5760203660031901126102ac576102a5610298611c87565b6102a0612736565b61247a565b6001815580f35b80fd5b5050346101d057816003193601126101d0576020906001600160a01b03600354169051908152f35b905034610277576020366003190112610277576001600160a01b036102fa611c87565b6103026126f2565b16918215610345575050806001600160a01b031960035416176003557f075c02c513a415bd4ff5976f8aa6fc5767d2183daca9ec00ab71ce78e8bf81588280a280f35b5163d92e233d60e01b8152fd5b8383346101d05760203660031901126101d057823590610370612736565b8115610555573383526009602052808320600381016002610392858354611e6c565b920154821161052d57556103a58261244d565b6001600160a01b0385541690816104af575b50506103c560055442611e6c565b338452600a6020528184208251906103dc82611d47565b84825260208201908382528054906801000000000000000082101561049c579061040b91600182018155611cc5565b92909261048a5751825551600190910155338452600a6020528184205460001981019290831161047757519283526020830152604082015233907f38e3d972947cfef94205163d483d6287ef27eb312e20cb8e0b13a49989db232e9080606081015b0390a26001815580f35b602485601188634e487b7160e01b835252fd5b602487808a634e487b7160e01b825252fd5b60248860418b634e487b7160e01b835252fd5b813b156105295782517fa2d8e60800000000000000000000000000000000000000000000000000000000815233878201908152602081019290925291859183919082908490829060400103925af1801561051f57908491156103b75761051490611d79565b6102775782856103b7565b82513d86823e3d90fd5b8480fd5b8583517f39996567000000000000000000000000000000000000000000000000000000008152fd5b83905163162908e360e11b8152fd5b8284346102ac5760203660031901126102ac578235928310156102ac57506001600160a01b03610595602093611d2e565b54169051908152f35b5050346101d057816003193601126101d0576020906001600160a01b03600154169051908152f35b8284346102ac5760203660031901126102ac57506105e66020923561244d565b9051908152f35b9050346102775760203660031901126102775735916007548310156102ac57506001600160a01b03610620602093611cf7565b92905490519260031b1c168152f35b5050346101d05760203660031901126101d057806080926001600160a01b03610656611c87565b1681526009602052209081549160ff60018201541691610689600360028401549301549382519586526020860190611ca2565b8301526060820152f35b5050346101d057816003193601126101d057602090516001600160a01b037f0000000000000000000000000000000000000000000000000000000000000000168152f35b83346102ac57806003193601126102ac576106f06126f2565b60006001600160a01b036001546001600160a01b03198116600155167f8be0079c531659141344cd1fd0a4f28419497f9722a3daafe3b4186f6b6457e08280a380f35b90503461027757816003193601126102775780359160249081359183831015610a565761075e612736565b8415610d17576000938315610d09573387526020946009865283882061078386611d2e565b54936001600160a01b0392838616908115610cfa576002840193845491821598891580610cca575b610c6257600b546103e7198101908111610c4f57600c548f9181158015610c47575b15610c38575050995b8a15610c1057918a93918f9593610b96575b50506107f86107ff948254611e6c565b9055611e6c565b835561080d86600b54611e6c565b600b5561081c8a600c54611e6c565b600c557f00000000000000000000000000000000000000000000000000000000000000009187517f23b872dd000000000000000000000000000000000000000000000000000000008b82015233828201523060448201528b60648201526064815260a081019067ffffffffffffffff9181811083821117610b64578e989796959493926108ae8f938f938e52876128ce565b8b5192828b81860161090f876109017f095ea7b300000000000000000000000000000000000000000000000000000000968785528c8c8401602090939291936001600160a01b0360408201951681520152565b03601f198101895288611d8d565b865190828b5af18b513d82610b78575b505015610b0e575b50505050813b15610b0a57868c8a519283917fb6b55f25000000000000000000000000000000000000000000000000000000008352898301528183865af18015610b0057908791610aec575b5052600d89528685206109878b8254611e6c565b905582600354169182610a64575b505050815416806109e5575b5050506109b8938251958652850152830190611ca2565b7fa7db47d395930224de3f54139208b4a958fe3747c2ad1dee5a6624643a6def9360603392a26001815580f35b803b156102775784517f77d9cabd0000000000000000000000000000000000000000000000000000000081523392810192835260208301899052918391839182908490829060400103925af18015610a5a57610a42575b806109a1565b610a4b90611d79565b610a56578538610a3c565b8580fd5b84513d84823e3d90fd5b54823b15610a5657610ab692848780948b51968795869485936386e8748760e01b855216338c85016060919493929460808201956001600160a01b038092168352600060208401521660408201520152565b03925af18015610ae257908491610ace575b80610995565b610ad790611d79565b610277578238610ac8565b86513d86823e3d90fd5b610af590611d79565b610a56578538610973565b89513d89823e3d90fd5b8680fd5b8c9a9192939495969798999a51938401528585840152604483015260448252608082019082821090821117610b64578a528d97969594939291610b5b91610b5590866128ce565b846128ce565b388b8180610927565b8360418a634e487b7160e01b600052526000fd5b909150610b8e57508887163b15155b388061091f565b600114610b87565b916001919395508094500191610bfe5781547fffffffffffffffffffffff0000000000000000000000000000000000000000001660ff8d161760089190911b74ffffffffffffffffffffffffffffffffffffffff00161790558b9188916107f86107ff6107e8565b858f60218b634e487b7160e01b835252fd5b898c517f01aeea51000000000000000000000000000000000000000000000000000000008152fd5b610c41926127eb565b996107d6565b5080156107cd565b50858f60118b634e487b7160e01b835252fd5b506084886031878f8e519362461bcd60e51b85528401528201527f43503a2043616e6e6f74206368616e6765207969656c6420706c6174666f726d60448201527f3b2077697468647261772066697273742e0000000000000000000000000000006064820152fd5b5060018301546000925060ff1689811015610ce7578c14156107ab565b50858f60218b634e487b7160e01b835252fd5b85885163967ea58b60e01b8152fd5b825163967ea58b60e01b8152fd5b83825163162908e360e11b8152fd5b905034610277576020366003190112610277576001600160a01b03610d49611c87565b610d516126f2565b16918215610345575050806001600160a01b031960025416176002557f95329fb8cf31c0dda21532344c24159acccf2f795f93c87a30ac6d3ddb9d03d68280a280f35b905034610277576020366003190112610277576001600160a01b03610db7611c87565b610dbf6126f2565b169182156103455750816001600160a01b03198254161790557fda1ab4d9bf3aaf27501818ce6108ebfa2279c6ef7a66e80b0b71555b4182315e8280a280f35b905034610277576020366003190112610277577f5a6df72af1049434e3648d533ba8bc9b230b44f3426d8a18f6e13cebbe2e0a3c916020913590610e416126f2565b8160055551908152a180f35b5050346101d057806003193601126101d057610e67611c87565b6001600160a01b0360243591168352600a6020528183208054821015610ea55790610e9191611cc5565b506001815491015482519182526020820152f35b8380fd5b5050346101d057816003193601126101d0576020906001600160a01b03600254169051908152f35b8383346101d05760203660031901126101d057823590610eef612736565b338352600a60205280832091825481101561104057610f0e8184611cc5565b505492610f1a8461244d565b6001600160a01b0387541680610fc7575b50503385526009602052600383862001610f46858254611daf565b905580546000198101908111610fb45781610f9b610f8a610fa0937fb3da01b92e7a69234e378e882a9c251189e2b2f73ddca83aabc48dd7164ebe10979695611cc5565b50610f958584611cc5565b906123d9565b61240f565b815193845260208401523392a26001815580f35b602486601189634e487b7160e01b835252fd5b803b15610b0a5784517fe20b097700000000000000000000000000000000000000000000000000000000815233818a019081526020810193909352918791839182908490829060400103925af180156110365790869115610f2b5761102b90611d79565b610529578487610f2b565b84513d88823e3d90fd5b84825163724950b960e01b8152fd5b8390346101d0576003196020368201126102775781359067ffffffffffffffff8211610ea55760e0908236030112610277576102a59161108d612736565b6110a36001600160a01b03600254163314611dfb565b01611e8d565b5050346101d05760203660031901126101d05760ff816020936001600160a01b036110d2611c87565b1681526008855220541690519015158152f35b839150346101d057826003193601126101d057611100611c87565b9260243561110c612736565b6001600160a01b0360029561112682600254163314611dfb565b821561139a5781811694858752602091600983528588209384549586156113725780878061115b931091180287188097611daf565b8555600c5486116113695761117286600c54611daf565b600c555b60019181600187015460081c168a52600d8552878a20611197888254611daf565b9055816003541690816112b2575b50505083541593846111ea575b5050507fcf2865a01efd33efe2337ddb3d6684d6284d1812f1f668f40be36a815ff6991b949596508351928352820152a26001815580f35b600201548061129d575b508688526009835261121a86892060036000918281558260018201558260028201550155565b868852600a835285882080549289825583611236575b506111b2565b7f7fffffffffffffffffffffffffffffffffffffffffffffffffffffffffffffff8416840361128a575088528288209160011b8201915b82811061127a5780611230565b600080825582820155890161126d565b896011602492634e487b7160e01b835252fd5b6112a990600b54611daf565b600b55896111f4565b600287015492823b15611365579161132b93918c80948c51968795869485936386e8748760e01b85527f000000000000000000000000000000000000000000000000000000000000000016908c85016060919493929460808201956001600160a01b038092168352600060208401521660408201520152565b03925af1801561135b57908991611343575b806111a5565b61134c90611d79565b61135757878a61133d565b8780fd5b87513d8b823e3d90fd5b8b80fd5b88600c55611176565b8388517fa542e6b3000000000000000000000000000000000000000000000000000000008152fd5b5050505163162908e360e11b8152fd5b5050346101d05760203660031901126101d057806020926001600160a01b036113d1611c87565b168152600d845220549051908152f35b5050346101d057816003193601126101d057602090600b549051908152f35b5050346101d057816003193601126101d0576020906005549051908152f35b8284346102ac5760203660031901126102ac57506105e660209235611dd2565b919050346102775760209081600319360112610ea557823590611460612736565b3385526009835280852090600a845280862080548410156118bf578361148591611cc5565b509184825161149381611d47565b600185549586835201549182910152421061189757600281019586548411611870576114be8461244d565b9633895260098752838920926002840193845494878c9680611829575b8392916114f6916114ef8a60039754611daf565b8555611daf565b905501611504878254611daf565b905561151286600b54611daf565b600b55338a52600a8852848a20805460001981019081116118165781610f9b61154361154e938f9998979695611cc5565b50610f958c84611cc5565b849980611789575b50600c54600195949392919084116117805761157484600c54611daf565b600c555b6001600160a01b03958691015460081c168452600d895285842061159d8b8254611daf565b90558460035416806116d9575b505415938154169182611667575b50505050907f1fd2e466982404121834498ff574c408f6bc78e2a56db572a408961b908d567e9461046d9261163c575b508561160c575b519283923396846040919493926060820195825260208201520152565b61163786337f0000000000000000000000000000000000000000000000000000000000000000612791565b6115ef565b6009903389525261166181882060036000918281558260018201558260028201550155565b386115e8565b823b15610ea5576064849283885195869485937fd01ebe37000000000000000000000000000000000000000000000000000000008552339085015260248401528860448401525af18015610a5a576116c1575b80806115b8565b6116cd90939293611d79565b610b0a579086386116ba565b819293949154813b156102775787516386e8748760e01b815233868201908152600060208201526001600160a01b037f00000000000000000000000000000000000000000000000000000000000000008a1616604082015260608101929092529291839182908490829060800103925af180156117765761175f575b908a9392916115aa565b61176d909a9193929a611d79565b98909138611755565b86513d8d823e3d90fd5b84600c55611578565b60018201548751627b8a6760e11b8152808601928352306020840152929b509195949392918a91879160081c6001600160a01b03169082908890829060400103925af18015610ae25784906117e8575b60019550999091929394611556565b508885813d831161180f575b6117fe8183611d8d565b81010312610ea557600194516117d9565b503d6117f4565b60248c601187634e487b7160e01b835252fd5b9650508154888102908082048a149015171561185d57906114f6896118518960039695612771565b989150919293506114db565b60248d601188634e487b7160e01b835252fd5b82517f3e94cfa9000000000000000000000000000000000000000000000000000000008152fd5b8582517ff214e773000000000000000000000000000000000000000000000000000000008152fd5b85825163724950b960e01b8152fd5b5050346101d057816003193601126101d057602090516127108152f35b5050346101d05760203660031901126101d0576020916001826001600160a01b039283611916611c87565b1681526009865220015460081c169051908152f35b5050346101d05760203660031901126101d05760a091816001600160a01b039182611954611c87565b168152600960205220805492600182015492600360028401549301549382519586526119866020870160ff8316611ca2565b60081c169084015260608301526080820152f35b9190503461027757806003193601126102775781359082821015610ea557602435926001600160a01b039182851694858103610b0a576119d86126f2565b8415611c02578515611bf4573b15611b8b5780517f38d52e0f000000000000000000000000000000000000000000000000000000008152602090818185818a5afa908115611b81578891611b4b575b5084807f000000000000000000000000000000000000000000000000000000000000000016911603611b0a57600890611a5f86611d2e565b876001600160a01b0319825416179055868852528520805460ff811615611aac575b505050507fab3bc9279813edd3b1ca91e3bfe46928f8173d2a7e1708fc9f06b70a14a4c5968380a380f35b60ff191660011790556007549068010000000000000000821015611af75750806001611adb9201600755611cf7565b819291549060031b9185831b921b191617905538808080611a81565b856041602492634e487b7160e01b835252fd5b60649291519162461bcd60e51b8352820152601a60248201527f43503a2041646170746572206173736574206d69736d617463680000000000006044820152fd5b90508181813d8311611b7a575b611b628183611d8d565b81010312611357575184811681036113575738611a27565b503d611b58565b83513d8a823e3d90fd5b906020608492519162461bcd60e51b8352820152602560248201527f43503a20416461707465722061646472657373206973206e6f74206120636f6e60448201527f74726163740000000000000000000000000000000000000000000000000000006064820152fd5b505163d92e233d60e01b8152fd5b606483602084519162461bcd60e51b8352820152602060248201527f43503a2043616e6e6f742073657420666f72204e4f4e4520706c6174666f726d6044820152fd5b5050346101d057816003193601126101d057602090600c549051908152f35b84346102ac57806003193601126102ac57506001600160a01b0360209254168152f35b600435906001600160a01b0382168203611c9d57565b600080fd5b906004821015611caf5752565b634e487b7160e01b600052602160045260246000fd5b8054821015611ce15760005260206000209060011b0190600090565b634e487b7160e01b600052603260045260246000fd5b600754811015611ce15760076000527fa66cc928b5edb82af9bd49922954155ab7b0942694bea4ce44661d9a8736c6880190600090565b6004811015611caf576000526006602052604060002090565b6040810190811067ffffffffffffffff821117611d6357604052565b634e487b7160e01b600052604160045260246000fd5b67ffffffffffffffff8111611d6357604052565b90601f8019910116810190811067ffffffffffffffff821117611d6357604052565b91908203918211611dbc57565b634e487b7160e01b600052601160045260246000fd5b600c548015611df757600b546103e7198101908111611dbc57611df4926127eb565b90565b5090565b15611e0257565b608460405162461bcd60e51b815260206004820152602160248201527f43503a2043616c6c6572206973206e6f7420746865205269736b4d616e61676560448201527f72000000000000000000000000000000000000000000000000000000000000006064820152fd5b91908201809211611dbc57565b356001600160a01b0381168103611c9d5790565b611e9f60608201356020830135611e6c565b9081156123d55760c081013582116123ab5760c0810135612073575b7f0000000000000000000000000000000000000000000000000000000000000000916001600160a01b03906040517f70a082310000000000000000000000000000000000000000000000000000000081523060048201526020816024818689165afa8015612067578291600091612032575b5010611fc857600c548111611fbd57611f4890600c54611daf565b600c555b6020820135611fa1575b606082013515159081611f8a575b50611f6d575050565b611f8891611f82604060608401359301611e79565b90612791565b565b9050611f9860408301611e79565b16151538611f64565b611fb86020830135611fb284611e79565b85612791565b611f56565b506000600c55611f4c565b608460405162461bcd60e51b815260206004820152602e60248201527f43503a205061796f7574206661696c65642c20696e73756666696369656e742060448201527f66756e64732067617468657265640000000000000000000000000000000000006064820152fd5b9150506020813d60201161205f575b8161204e60209383611d8d565b81010312611c9d5781905138611f2d565b3d9150612041565b6040513d6000823e3d90fd5b60049260206001600160a01b0360025416604051958680927f5c9244af0000000000000000000000000000000000000000000000000000000082525afa93841561206757600094612365575b506120d260608301356020840135611e6c565b9060005b6120e36080850185612888565b905081101561235c57612103816120fd60a0870187612888565b906128be565b3580156123535761211a9060c086013590856127eb565b90811561234a576001600160a01b0361214261213d836120fd60808a018a612888565b611e79565b604051627b8a6760e11b8152600481018590523060248201529116906020816044816000865af1908161231f575b5061231557807f4801b3b9794e8c30779294162ed70e5f040142d8b4c0a2a52d6b80c3abea1e3460c060405160408152600860408201527f7769746864726177000000000000000000000000000000000000000000000000606082015260806020820152600f60808201527f7769746864726177206661696c6564000000000000000000000000000000000060a0820152a26040517fdbf0f3e2000000000000000000000000000000000000000000000000000000008152306004820152602481018490526000916020908290604490829086905af18291816122e1575b506122d9575b5015612266575b600191505b016120d6565b6001600160a01b0387163b15611c9d57604051917f9b154aea0000000000000000000000000000000000000000000000000000000083526004830152600082602481836001600160a01b038c165af1918215612067576001926122ca575b5061225b565b6122d390611d79565b386122c4565b905038612254565b9091506020813d60201161230d575b816122fd60209383611d8d565b810103126102775751903861224e565b3d91506122f0565b5060019150612260565b602090813d8311612343575b6123358183611d8d565b81010312611c9d5738612170565b503d61232b565b60019150612260565b50600190612260565b50935050611ebb565b6020949194813d6020116123a3575b8161238160209383611d8d565b810103126101d05751906001600160a01b03821682036102ac575092386120bf565b3d9150612374565b60046040517f90c4e7f1000000000000000000000000000000000000000000000000000000008152fd5b5050565b91906123f9578082036123ea575050565b60018181925484550154910155565b634e487b7160e01b600052600060045260246000fd5b805480156124375760001901906124268282611cc5565b6123f9576001816000809355015555565b634e487b7160e01b600052603160045260246000fd5b600b546103e881111561247357600c546103e7198201918211611dbc57611df4926127eb565b5050600090565b906001600160a01b038092166000928184526020906008825260409060ff8287205416156126af5781517f119faeb30000000000000000000000000000000000000000000000000000000081528381600481885afa879181612680575b506124e55750505050509050565b848752600d84528287205490818111612503575b5050505050509050565b6125136125389493928692611daf565b8351627b8a6760e11b8152600481019190915230602482015293849081906044820190565b03818a895af192831561263a578793612651575b5082151580612644575b612561575b806124f9565b867f00000000000000000000000000000000000000000000000000000000000000009161259385826003541685612791565b8060035416600b5493813b15610ea55783608492875196879586947ffc96754200000000000000000000000000000000000000000000000000000000865284600487015216602485015289604485015260648401525af1801561263a577faf070de27b945892aaad9c44ade61c1ac81cc8459711bba886304b1a2bf847a89596975061262b575b5051908152a280388080808061255b565b61263490611d79565b3861261a565b82513d89823e3d90fd5b5080600354161515612556565b9092508381813d8311612679575b6126698183611d8d565b81010312610b0a5751913861254c565b503d61265f565b9091508481813d83116126a8575b6126988183611d8d565b81010312611357575190386124d7565b503d61268e565b60648383519062461bcd60e51b82526004820152601660248201527f43503a2041646170746572206e6f7420616374697665000000000000000000006044820152fd5b6001600160a01b0360015416330361270657565b60246040517f118cdaa7000000000000000000000000000000000000000000000000000000008152336004820152fd5b600260005414612747576002600055565b60046040517f3ee5aeb5000000000000000000000000000000000000000000000000000000008152fd5b811561277b570490565b634e487b7160e01b600052601260045260246000fd5b6040517fa9059cbb0000000000000000000000000000000000000000000000000000000060208201526001600160a01b03929092166024830152604480830193909352918152611f88916127e6606483611d8d565b6128ce565b9091600019838309928083029283808610950394808603951461287b5784831115612862579082910981600003821680920460028082600302188083028203028083028203028083028203028083028203028083028203028092029003029360018380600003040190848311900302920304170290565b82634e487b71600052156003026011186020526024601cfd5b505090611df49250612771565b903590601e1981360301821215611c9d570180359067ffffffffffffffff8211611c9d57602001918160051b36038313611c9d57565b9190811015611ce15760051b0190565b906000602091828151910182855af115612067576000513d61293957506001600160a01b0381163b155b6128ff5750565b6024906001600160a01b03604051917f5274afe7000000000000000000000000000000000000000000000000000000008352166004820152fd5b600114156128f856fea26469706673582212208680c2056dd1c769509168769a2a1f6dec3cf028cc7b719366d16159cc63adf764736f6c63430008160033",
  "linkReferences": {},
  "deployedLinkReferences": {}
}