{
  "_format": "hh-sol-artifact-1",
  "contractName": "CapitalPool",
  "sourceName": "contracts/core/CapitalPool.sol",
  "abi": [
    {
      "inputs": [
        {
          "internalType": "address",
          "name": "_initialOwner",
          "type": "address"
        },
        {
          "internalType": "address",
          "name": "_underlyingAsset",
          "type": "address"
        }
      ],
      "stateMutability": "nonpayable",
      "type": "constructor"
    },
    {
      "inputs": [],
      "name": "AdapterDrained",
      "type": "error"
    },
    {
      "inputs": [],
      "name": "AdapterNotConfigured",
      "type": "error"
    },
    {
      "inputs": [],
      "name": "InconsistentState",
      "type": "error"
    },
    {
      "inputs": [],
      "name": "InsufficientShares",
      "type": "error"
    },
    {
      "inputs": [],
      "name": "InvalidAmount",
      "type": "error"
    },
    {
      "inputs": [],
      "name": "InvalidRequestIndex",
      "type": "error"
    },
    {
      "inputs": [],
      "name": "NoActiveDeposit",
      "type": "error"
    },
    {
      "inputs": [],
      "name": "NoSharesToMint",
      "type": "error"
    },
    {
      "inputs": [],
      "name": "NoWithdrawalRequest",
      "type": "error"
    },
    {
      "inputs": [],
      "name": "NotRiskManager",
      "type": "error"
    },
    {
      "inputs": [],
      "name": "NoticePeriodActive",
      "type": "error"
    },
    {
      "inputs": [
        {
          "internalType": "address",
          "name": "owner",
          "type": "address"
        }
      ],
      "name": "OwnableInvalidOwner",
      "type": "error"
    },
    {
      "inputs": [
        {
          "internalType": "address",
          "name": "account",
          "type": "address"
        }
      ],
      "name": "OwnableUnauthorizedAccount",
      "type": "error"
    },
    {
      "inputs": [],
      "name": "PayoutExceedsPoolLPCapital",
      "type": "error"
    },
    {
      "inputs": [],
      "name": "ReentrancyGuardReentrantCall",
      "type": "error"
    },
    {
      "inputs": [
        {
          "internalType": "address",
          "name": "token",
          "type": "address"
        }
      ],
      "name": "SafeERC20FailedOperation",
      "type": "error"
    },
    {
      "inputs": [],
      "name": "ZeroAddress",
      "type": "error"
    },
    {
      "anonymous": false,
      "inputs": [
        {
          "indexed": true,
          "internalType": "address",
          "name": "adapterAddress",
          "type": "address"
        },
        {
          "indexed": false,
          "internalType": "string",
          "name": "functionCalled",
          "type": "string"
        },
        {
          "indexed": false,
          "internalType": "string",
          "name": "reason",
          "type": "string"
        }
      ],
      "name": "AdapterCallFailed",
      "type": "event"
    },
    {
      "anonymous": false,
      "inputs": [
        {
          "indexed": true,
          "internalType": "enum CapitalPool.YieldPlatform",
          "name": "platform",
          "type": "uint8"
        },
        {
          "indexed": true,
          "internalType": "address",
          "name": "adapterAddress",
          "type": "address"
        }
      ],
      "name": "BaseYieldAdapterSet",
      "type": "event"
    },
    {
      "anonymous": false,
      "inputs": [
        {
          "indexed": true,
          "internalType": "address",
          "name": "user",
          "type": "address"
        },
        {
          "indexed": false,
          "internalType": "uint256",
          "name": "amount",
          "type": "uint256"
        },
        {
          "indexed": false,
          "internalType": "uint256",
          "name": "sharesMinted",
          "type": "uint256"
        },
        {
          "indexed": false,
          "internalType": "enum CapitalPool.YieldPlatform",
          "name": "yieldChoice",
          "type": "uint8"
        }
      ],
      "name": "Deposit",
      "type": "event"
    },
    {
      "anonymous": false,
      "inputs": [
        {
          "indexed": true,
          "internalType": "address",
          "name": "underwriter",
          "type": "address"
        },
        {
          "indexed": false,
          "internalType": "uint256",
          "name": "principalLossAmount",
          "type": "uint256"
        },
        {
          "indexed": false,
          "internalType": "bool",
          "name": "wipedOut",
          "type": "bool"
        }
      ],
      "name": "LossesApplied",
      "type": "event"
    },
    {
      "anonymous": false,
      "inputs": [
        {
          "indexed": true,
          "internalType": "address",
          "name": "previousOwner",
          "type": "address"
        },
        {
          "indexed": true,
          "internalType": "address",
          "name": "newOwner",
          "type": "address"
        }
      ],
      "name": "OwnershipTransferred",
      "type": "event"
    },
    {
      "anonymous": false,
      "inputs": [
        {
          "indexed": true,
          "internalType": "address",
          "name": "newRiskManager",
          "type": "address"
        }
      ],
      "name": "RiskManagerSet",
      "type": "event"
    },
    {
      "anonymous": false,
      "inputs": [
        {
          "indexed": false,
          "internalType": "uint256",
          "name": "newTotalSystemValue",
          "type": "uint256"
        },
        {
          "indexed": false,
          "internalType": "uint256",
          "name": "oldTotalSystemValue",
          "type": "uint256"
        }
      ],
      "name": "SystemValueSynced",
      "type": "event"
    },
    {
      "anonymous": false,
      "inputs": [
        {
          "indexed": false,
          "internalType": "uint256",
          "name": "newPeriod",
          "type": "uint256"
        }
      ],
      "name": "UnderwriterNoticePeriodSet",
      "type": "event"
    },
    {
      "anonymous": false,
      "inputs": [
        {
          "indexed": true,
          "internalType": "address",
          "name": "user",
          "type": "address"
        },
        {
          "indexed": false,
          "internalType": "uint256",
          "name": "assetsReceived",
          "type": "uint256"
        },
        {
          "indexed": false,
          "internalType": "uint256",
          "name": "sharesBurned",
          "type": "uint256"
        },
        {
          "indexed": false,
          "internalType": "uint256",
          "name": "requestIndex",
          "type": "uint256"
        }
      ],
      "name": "WithdrawalExecuted",
      "type": "event"
    },
    {
      "anonymous": false,
      "inputs": [
        {
          "indexed": true,
          "internalType": "address",
          "name": "user",
          "type": "address"
        },
        {
          "indexed": false,
          "internalType": "uint256",
          "name": "sharesCancelled",
          "type": "uint256"
        },
        {
          "indexed": false,
          "internalType": "uint256",
          "name": "requestIndex",
          "type": "uint256"
        }
      ],
      "name": "WithdrawalRequestCancelled",
      "type": "event"
    },
    {
      "anonymous": false,
      "inputs": [
        {
          "indexed": true,
          "internalType": "address",
          "name": "user",
          "type": "address"
        },
        {
          "indexed": false,
          "internalType": "uint256",
          "name": "sharesToBurn",
          "type": "uint256"
        },
        {
          "indexed": false,
          "internalType": "uint256",
          "name": "timestamp",
          "type": "uint256"
        },
        {
          "indexed": false,
          "internalType": "uint256",
          "name": "requestIndex",
          "type": "uint256"
        }
      ],
      "name": "WithdrawalRequested",
      "type": "event"
    },
    {
      "inputs": [],
      "name": "BPS",
      "outputs": [
        {
          "internalType": "uint256",
          "name": "",
          "type": "uint256"
        }
      ],
      "stateMutability": "view",
      "type": "function"
    },
    {
      "inputs": [
        {
          "internalType": "uint256",
          "name": "",
          "type": "uint256"
        }
      ],
      "name": "activeYieldAdapterAddresses",
      "outputs": [
        {
          "internalType": "address",
          "name": "",
          "type": "address"
        }
      ],
      "stateMutability": "view",
      "type": "function"
    },
    {
      "inputs": [
        {
          "internalType": "address",
          "name": "_underwriter",
          "type": "address"
        },
        {
          "internalType": "uint256",
          "name": "_principalLossAmount",
          "type": "uint256"
        }
      ],
      "name": "applyLosses",
      "outputs": [],
      "stateMutability": "nonpayable",
      "type": "function"
    },
    {
      "inputs": [
        {
          "internalType": "enum CapitalPool.YieldPlatform",
          "name": "",
          "type": "uint8"
        }
      ],
      "name": "baseYieldAdapters",
      "outputs": [
        {
          "internalType": "contract IYieldAdapter",
          "name": "",
          "type": "address"
        }
      ],
      "stateMutability": "view",
      "type": "function"
    },
    {
      "inputs": [
        {
          "internalType": "uint256",
          "name": "_requestIndex",
          "type": "uint256"
        }
      ],
      "name": "cancelWithdrawalRequest",
      "outputs": [],
      "stateMutability": "nonpayable",
      "type": "function"
    },
    {
      "inputs": [
        {
          "internalType": "uint256",
          "name": "_amount",
          "type": "uint256"
        },
        {
          "internalType": "enum CapitalPool.YieldPlatform",
          "name": "_yieldChoice",
          "type": "uint8"
        }
      ],
      "name": "deposit",
      "outputs": [],
      "stateMutability": "nonpayable",
      "type": "function"
    },
    {
      "inputs": [
        {
          "components": [
            {
              "internalType": "address",
              "name": "claimant",
              "type": "address"
            },
            {
              "internalType": "uint256",
              "name": "claimantAmount",
              "type": "uint256"
            },
            {
              "internalType": "address",
              "name": "feeRecipient",
              "type": "address"
            },
            {
              "internalType": "uint256",
              "name": "feeAmount",
              "type": "uint256"
            },
            {
              "internalType": "address[]",
              "name": "adapters",
              "type": "address[]"
            },
            {
              "internalType": "uint256[]",
              "name": "capitalPerAdapter",
              "type": "uint256[]"
            },
            {
              "internalType": "uint256",
              "name": "totalCapitalFromPoolLPs",
              "type": "uint256"
            }
          ],
          "internalType": "struct CapitalPool.PayoutData",
          "name": "_payoutData",
          "type": "tuple"
        }
      ],
      "name": "executePayout",
      "outputs": [],
      "stateMutability": "nonpayable",
      "type": "function"
    },
    {
      "inputs": [
        {
          "internalType": "uint256",
          "name": "_requestIndex",
          "type": "uint256"
        }
      ],
      "name": "executeWithdrawal",
      "outputs": [],
      "stateMutability": "nonpayable",
      "type": "function"
    },
    {
      "inputs": [
        {
          "internalType": "address",
          "name": "_underwriter",
          "type": "address"
        }
      ],
      "name": "getUnderwriterAccount",
      "outputs": [
        {
          "internalType": "uint256",
          "name": "totalDepositedAssetPrincipal",
          "type": "uint256"
        },
        {
          "internalType": "enum CapitalPool.YieldPlatform",
          "name": "yieldChoice",
          "type": "uint8"
        },
        {
          "internalType": "uint256",
          "name": "masterShares",
          "type": "uint256"
        },
        {
          "internalType": "uint256",
          "name": "totalPendingWithdrawalShares",
          "type": "uint256"
        }
      ],
      "stateMutability": "view",
      "type": "function"
    },
    {
      "inputs": [
        {
          "internalType": "address",
          "name": "_underwriter",
          "type": "address"
        }
      ],
      "name": "getUnderwriterAdapterAddress",
      "outputs": [
        {
          "internalType": "address",
          "name": "",
          "type": "address"
        }
      ],
      "stateMutability": "view",
      "type": "function"
    },
    {
      "inputs": [
        {
          "internalType": "address",
          "name": "_underwriter",
          "type": "address"
        }
      ],
      "name": "getWithdrawalRequestCount",
      "outputs": [
        {
          "internalType": "uint256",
          "name": "",
          "type": "uint256"
        }
      ],
      "stateMutability": "view",
      "type": "function"
    },
    {
      "inputs": [
        {
          "internalType": "address",
          "name": "",
          "type": "address"
        }
      ],
      "name": "isAdapterActive",
      "outputs": [
        {
          "internalType": "bool",
          "name": "",
          "type": "bool"
        }
      ],
      "stateMutability": "view",
      "type": "function"
    },
    {
      "inputs": [],
      "name": "owner",
      "outputs": [
        {
          "internalType": "address",
          "name": "",
          "type": "address"
        }
      ],
      "stateMutability": "view",
      "type": "function"
    },
    {
      "inputs": [],
      "name": "renounceOwnership",
      "outputs": [],
      "stateMutability": "nonpayable",
      "type": "function"
    },
    {
      "inputs": [
        {
          "internalType": "uint256",
          "name": "_sharesToBurn",
          "type": "uint256"
        }
      ],
      "name": "requestWithdrawal",
      "outputs": [],
      "stateMutability": "nonpayable",
      "type": "function"
    },
    {
      "inputs": [],
      "name": "riskManager",
      "outputs": [
        {
          "internalType": "address",
          "name": "",
          "type": "address"
        }
      ],
      "stateMutability": "view",
      "type": "function"
    },
    {
      "inputs": [
        {
          "internalType": "enum CapitalPool.YieldPlatform",
          "name": "_platform",
          "type": "uint8"
        },
        {
          "internalType": "address",
          "name": "_adapterAddress",
          "type": "address"
        }
      ],
      "name": "setBaseYieldAdapter",
      "outputs": [],
      "stateMutability": "nonpayable",
      "type": "function"
    },
    {
      "inputs": [
        {
          "internalType": "address",
          "name": "_riskManager",
          "type": "address"
        }
      ],
      "name": "setRiskManager",
      "outputs": [],
      "stateMutability": "nonpayable",
      "type": "function"
    },
    {
      "inputs": [
        {
          "internalType": "uint256",
          "name": "_newPeriod",
          "type": "uint256"
        }
      ],
      "name": "setUnderwriterNoticePeriod",
      "outputs": [],
      "stateMutability": "nonpayable",
      "type": "function"
    },
    {
      "inputs": [
        {
          "internalType": "uint256",
          "name": "_shares",
          "type": "uint256"
        }
      ],
      "name": "sharesToValue",
      "outputs": [
        {
          "internalType": "uint256",
          "name": "",
          "type": "uint256"
        }
      ],
      "stateMutability": "view",
      "type": "function"
    },
    {
      "inputs": [],
      "name": "syncYieldAndAdjustSystemValue",
      "outputs": [],
      "stateMutability": "nonpayable",
      "type": "function"
    },
    {
      "inputs": [],
      "name": "totalMasterSharesSystem",
      "outputs": [
        {
          "internalType": "uint256",
          "name": "",
          "type": "uint256"
        }
      ],
      "stateMutability": "view",
      "type": "function"
    },
    {
      "inputs": [],
      "name": "totalSystemValue",
      "outputs": [
        {
          "internalType": "uint256",
          "name": "",
          "type": "uint256"
        }
      ],
      "stateMutability": "view",
      "type": "function"
    },
    {
      "inputs": [
        {
          "internalType": "address",
          "name": "newOwner",
          "type": "address"
        }
      ],
      "name": "transferOwnership",
      "outputs": [],
      "stateMutability": "nonpayable",
      "type": "function"
    },
    {
      "inputs": [],
      "name": "underlyingAsset",
      "outputs": [
        {
          "internalType": "contract IERC20",
          "name": "",
          "type": "address"
        }
      ],
      "stateMutability": "view",
      "type": "function"
    },
    {
      "inputs": [
        {
          "internalType": "address",
          "name": "",
          "type": "address"
        }
      ],
      "name": "underwriterAccounts",
      "outputs": [
        {
          "internalType": "uint256",
          "name": "totalDepositedAssetPrincipal",
          "type": "uint256"
        },
        {
          "internalType": "enum CapitalPool.YieldPlatform",
          "name": "yieldChoice",
          "type": "uint8"
        },
        {
          "internalType": "contract IYieldAdapter",
          "name": "yieldAdapter",
          "type": "address"
        },
        {
          "internalType": "uint256",
          "name": "masterShares",
          "type": "uint256"
        },
        {
          "internalType": "uint256",
          "name": "totalPendingWithdrawalShares",
          "type": "uint256"
        }
      ],
      "stateMutability": "view",
      "type": "function"
    },
    {
      "inputs": [],
      "name": "underwriterNoticePeriod",
      "outputs": [
        {
          "internalType": "uint256",
          "name": "",
          "type": "uint256"
        }
      ],
      "stateMutability": "view",
      "type": "function"
    },
    {
      "inputs": [
        {
          "internalType": "uint256",
          "name": "_value",
          "type": "uint256"
        }
      ],
      "name": "valueToShares",
      "outputs": [
        {
          "internalType": "uint256",
          "name": "",
          "type": "uint256"
        }
      ],
      "stateMutability": "view",
      "type": "function"
    },
    {
      "inputs": [
        {
          "internalType": "address",
          "name": "",
          "type": "address"
        },
        {
          "internalType": "uint256",
          "name": "",
          "type": "uint256"
        }
      ],
      "name": "withdrawalRequests",
      "outputs": [
        {
          "internalType": "uint256",
          "name": "shares",
          "type": "uint256"
        },
        {
          "internalType": "uint256",
          "name": "unlockTimestamp",
          "type": "uint256"
        }
      ],
      "stateMutability": "view",
      "type": "function"
    }
  ],
  "bytecode": "0x6080346200011a576200283590601f38839003908101601f19168201906001600160401b038211838310176200011f57808391604095869485528339810103126200011a576200005d6020620000558362000135565b920162000135565b60016000908155916001600160a01b039081169081156200010257600180546001600160a01b0319808216851790925586519491939083167f8be0079c531659141344cd1fd0a4f28419497f9722a3daafe3b4186f6b6457e08780a38460025516918215620000f35750600b541617600b556002826103e892836009558080526007602052200155516126ea90816200014b8239f35b63d92e233d60e01b8152600490fd5b8451631e4fbdf760e01b815260048101859052602490fd5b600080fd5b634e487b7160e01b600052604160045260246000fd5b51906001600160a01b03821682036200011a5756fe608060408181526004918236101561001657600080fd5b60009260e08435811c92836304ac9b1314611c02575082630bdf3c7f146119605782631d4e733e146118f057826323ed7d32146118af578263249d39e91461189157826324f13a761461150557826325d27d8b146114e45782632a9e6501146114c45782632e0163cb146114a45782633746060d1461128257826337bcdbc1146112455782633c139af6146111e557826345b05d091461101a5782634784266314610ff15782634e5a232814610f9857826358b12bc314610f4957826362ca846014610ec0578263654cfdff146109ea578263715018a6146109815782637158da7c14610958578263731f25c0146108f35782637a3d7bfe146108b05782638a69c8dd146108885782638da5cb5b1461085f5782639e1b5855146108215782639ee679e8146105b8578263cfc76ed61461025357508163f2fde38b1461019f575063fcc480301461016657600080fd5b3461019b57602036600319011261019b57806020926001600160a01b0361018b611c1e565b1681526008845220549051908152f35b5080fd5b90503461024f57602036600319011261024f576101ba611c1e565b906101c3611cd9565b6001600160a01b038092169283156102205750506001548273ffffffffffffffffffffffffffffffffffffffff19821617600155167f8be0079c531659141344cd1fd0a4f28419497f9722a3daafe3b4186f6b6457e0600080a380f35b908460249251917f1e4fbdf7000000000000000000000000000000000000000000000000000000008352820152fd5b8280fd5b929150346105b457836003193601126105b45761026e611eb7565b6005548493845b8281106103705750505060206001600160a01b03600b54169160248451809481936370a0823160e01b835230908301525afa908115610366578491610310575b506102e1907fa2b32e18e2fda77cf42270e1b204c6dcee4f7e4d6168e972d2c01147a7b15d0193611dea565b600a5490600a5560095415610307575b600a549082519182526020820152a16001815580f35b83600a556102f1565b90506020813d821161035e575b8161032a60209383611d7f565b8101031261035957517fa2b32e18e2fda77cf42270e1b204c6dcee4f7e4d6168e972d2c01147a7b15d016102b5565b600080fd5b3d915061031d565b82513d86823e3d90fd5b806103826001600160a01b0392611c89565b929054600393841b1c1686517f119faeb300000000000000000000000000000000000000000000000000000000815260209081818981865afa8b9181610585575b5061056d57506001938a903d1161055f575b6308c379a014610490575b6103f0936103f5575b505061203b565b610275565b7f4801b3b9794e8c30779294162ed70e5f040142d8b4c0a2a52d6b80c3abea1e3490888051918183527f556e6b6e6f776e206572726f7200000000000000000000000000000000000000610476838501604090601381527f67657443757272656e7456616c756548656c640000000000000000000000000060208201520190565b91848303928382870152600d815201520190a238806103e9565b6104986125e7565b93846104a6575b93506103e0565b5090919289908851908982526104e98a8301604090601381527f67657443757272656e7456616c756548656c640000000000000000000000000060208201520190565b90828203858401528c815191828452815b8381106105495750508183018601526103f0969594939285927f4801b3b9794e8c30779294162ed70e5f040142d8b4c0a2a52d6b80c3abea1e3492601f01601f191601819003850190a261049f565b8082018801518582018901528f925087016104fa565b50868a803e8951851c6103d5565b9150506103f0925061057f9197611dea565b9561203b565b9091508281813d83116105ad575b61059d8183611d7f565b81010312610359575190386103c3565b503d610593565b8380fd5b5090503461024f57602091826003193601126105b4578135926105d9611eb7565b831561081357338552600781528185206003810160026105fa878354611dea565b92015482116107ea57868061060e88612659565b6001600160a01b03600354169082885161067a8161066c8b8201957fa2d8e6080000000000000000000000000000000000000000000000000000000087523360248401602090939291936001600160a01b0360408201951681520152565b03601f198101835282611d7f565b51925af1610686611df7565b5015610782575561069960025442611dea565b33865260088252828620908351916106b083611d1d565b8683528383019182528054906801000000000000000082101561076f57906106dd91600182018155611c57565b92909261075d5751825551600190910155338552600890528084205460001981019290831161074a575051918252426020830152604082015233907f38e3d972947cfef94205163d483d6287ef27eb312e20cb8e0b13a49989db232e9080606081015b0390a26001815580f35b846011602492634e487b7160e01b835252fd5b6024888088634e487b7160e01b825252fd5b602489604189634e487b7160e01b835252fd5b6084858486519162461bcd60e51b8352820152602b60248201527f43503a205269736b4d616e616765722072656a6563746564207769746864726160448201527f77616c20726571756573740000000000000000000000000000000000000000006064820152fd5b505050517f39996567000000000000000000000000000000000000000000000000000000008152fd5b505163162908e360e11b8152fd5b5082843461085c57602036600319011261085c5782359283101561085c57506001600160a01b03610853602093611cc0565b54169051908152f35b80fd5b5050503461019b578160031936011261019b576020906001600160a01b03600154169051908152f35b5082843461085c57602036600319011261085c57506108a960209235612659565b9051908152f35b5090503461024f57602036600319011261024f57359160055483101561085c57506001600160a01b036108e4602093611c89565b92905490519260031b1c168152f35b5050503461019b57602036600319011261019b57806080926001600160a01b0361091b611c1e565b1681526007602052209081549160ff6001820154169161094e600360028401549301549382519586526020860190611c34565b8301526060820152f35b5050503461019b578160031936011261019b576020906001600160a01b03600b54169051908152f35b843461085c578060031936011261085c5761099a611cd9565b60006001600160a01b0360015473ffffffffffffffffffffffffffffffffffffffff198116600155167f8be0079c531659141344cd1fd0a4f28419497f9722a3daafe3b4186f6b6457e08280a380f35b8385833461019b578260031936011261019b5780359060249384359180831015610ebc57610a16611eb7565b8315610eae5784908315610ea05733865260209660078852838720610a3a86611cc0565b54936001600160a01b0391828616918215610e91576002820191825491821598891580610e63575b610dfb578c600a548015600014610de05750995b8a15610db857908a939291610d45575b50509182610a988d610a9f9554611dea565b9055611dea565b9055610af482600b54168751907f23b872dd000000000000000000000000000000000000000000000000000000008d83015233868301523060448301528a606483015260648252610aef82611d63565b611e37565b888a610b4984600b54168b8a519485809481937f095ea7b3000000000000000000000000000000000000000000000000000000008352898d8401602090939291936001600160a01b0360408201951681520152565b03925af18015610d3b57610d04575b50803b15610d0057888091848851809481937fb6b55f250000000000000000000000000000000000000000000000000000000083528d8a8401525af18015610cf657908a9291610cdb575b508891888361066c610c1d8295610bbc8b600954611dea565b600955610bcb85600a54611dea565b600a5560035416948b519283918201957f77d9cabd000000000000000000000000000000000000000000000000000000008752338b8401602090939291936001600160a01b0360408201951681520152565b51925af1610c29611df7565b5015610c74575050610c479394958251958652850152830190611c34565b7fa7db47d395930224de3f54139208b4a958fe3747c2ad1dee5a6624643a6def9360603392a26001815580f35b90602b6084928986519362461bcd60e51b85528401528201527f43503a204661696c656420746f206e6f74696679205269736b4d616e6167657260448201527f206f66206465706f7369740000000000000000000000000000000000000000006064820152fd5b918861066c9a610ced610c1d95611d4f565b9a505091610ba3565b86513d8b823e3d90fd5b8880fd5b8a81813d8311610d34575b610d198183611d7f565b81010312610d30575180151503610d00578a610b58565b8980fd5b503d610d0f565b87513d8c823e3d90fd5b909192506001830191610da65781547fffffffffffffffffffffff0000000000000000000000000000000000000000001660ff8d161760089190911b74ffffffffffffffffffffffffffffffffffffffff00161790558790610a9f8f610a86565b878e60218b634e487b7160e01b835252fd5b898c517f01aeea51000000000000000000000000000000000000000000000000000000008152fd5b610df0610df59260095490611da1565b611dca565b99610a76565b60848f60318a8c928f519362461bcd60e51b85528401528201527f43503a2043616e6e6f74206368616e6765207969656c6420706c6174666f726d60448201527f3b2077697468647261772066697273742e0000000000000000000000000000006064820152fd5b5060018301548e925060ff1689811015610e7f578c1415610a62565b888f60218c634e487b7160e01b835252fd5b85885163967ea58b60e01b8152fd5b825163967ea58b60e01b8152fd5b905163162908e360e11b8152fd5b8480fd5b5090503461024f57602036600319011261024f576001600160a01b03610ee4611c1e565b610eec611cd9565b16918215610f3c5750508073ffffffffffffffffffffffffffffffffffffffff1960035416176003557f95329fb8cf31c0dda21532344c24159acccf2f795f93c87a30ac6d3ddb9d03d68280a280f35b5163d92e233d60e01b8152fd5b5090503461024f57602036600319011261024f577f5a6df72af1049434e3648d533ba8bc9b230b44f3426d8a18f6e13cebbe2e0a3c916020913590610f8c611cd9565b8160025551908152a180f35b5050503461019b578060031936011261019b57610fb3611c1e565b6001600160a01b0360243591168352600860205281832080548210156105b45790610fdd91611c57565b506001815491015482519182526020820152f35b5050503461019b578160031936011261019b576020906001600160a01b03600354169051908152f35b5083833461019b576020908160031936011261024f57833561103a611eb7565b338452600883528184209283548210156111d6576110588285611c57565b505493858061106687612659565b6001600160a01b0360035416908288516110c48161066c8a8201957fe20b09770000000000000000000000000000000000000000000000000000000087523360248401602090939291936001600160a01b0360408201951681520152565b51925af16110d0611df7565b501561116e57338652600782526003848720016110ee868254611ef2565b90558054600019810190811161115b5781611144611133611149937fb3da01b92e7a69234e378e882a9c251189e2b2f73ddca83aabc48dd7164ebe1098979695611c57565b5061113e8684611c57565b90611eff565b611f35565b82519485528401523392a26001815580f35b60248760118a634e487b7160e01b835252fd5b6084878386519162461bcd60e51b8352820152603060248201527f43503a205269736b4d616e616765722072656a6563746564207769746864726160448201527f77616c2063616e63656c6c6174696f6e000000000000000000000000000000006064820152fd5b85835163724950b960e01b8152fd5b8492503461024f57600319906020368301126105b45782359167ffffffffffffffff8311610ebc57823603011261024f5761123e91611222611eb7565b6112386001600160a01b03600354163314611fca565b016120a4565b6001815580f35b5050503461019b57602036600319011261019b5760ff816020936001600160a01b0361126f611c1e565b1681526006855220541690519015158152f35b8385833461019b578260031936011261019b5761129d611c1e565b92602435936112aa611eb7565b6001600160a01b03906112c282600354163314611fca565b8515611495571691828452600760205281842094855490811561146d578180821091180281189160029661132088820193611303855491610df08884611da1565b90808211611465575b8161131691611ef2565b8555600954611ef2565b60095561132e848254611ef2565b8155600a54848082111561145d5761134591611ef2565b600a555415918215611453575b82611391575b50508251918252151560208201527fcf2865a01efd33efe2337ddb3d6684d6284d1812f1f668f40be36a815ff6991b9190a26001815580f35b548061143e575b5084865260076020526113bf84872060036000918281558260018201558260028201550155565b6008602052838620805491878255826113d9575b50611358565b7f7fffffffffffffffffffffffffffffffffffffffffffffffffffffffffffffff8316830361142b575086526020862090600190811b8201915b828110156113d35780888a9255888382015501611413565b876011602492634e487b7160e01b835252fd5b61144a90600954611ef2565b60095587611398565b8054159250611352565b505086611345565b90508061130c565b8284517fa542e6b3000000000000000000000000000000000000000000000000000000008152fd5b50505163162908e360e11b8152fd5b5050503461019b578160031936011261019b576020906009549051908152f35b5050503461019b578160031936011261019b576020906002549051908152f35b5082843461085c57602036600319011261085c57506108a960209235612688565b8385833461019b576020908160031936011261024f57803590611526611eb7565b33845260078352848420600884528585209384548410156118825761154b8486611c57565b509281885161155981611d1d565b600186549687835201549182910152421061185b5760028301805485116118335761158385612659565b96888098806117a9575b505060038554956115bf886115a2818a611da1565b6115b86115b188548093611dca565b809b611ef2565b8455611ef2565b8455016115cd878254611ef2565b90556115db86600954611ef2565b600955600a5488808211156117a1576115f391611ef2565b600a558054600019810190811161178e57906111446116156116209383611c57565b5061113e8a84611c57565b54159087806001600160a01b0395866003541690828d51888101927fd01ebe3700000000000000000000000000000000000000000000000000000000845233602483015260448201528760648201526064815261167c81611d63565b51925af1611688611df7565b50156117265750917f1fd2e466982404121834498ff574c408f6bc78e2a56db572a408961b908d567e95969791610740936116fb575b5086806116e5575b5050519283923396846040919493926060820195825260208201520152565b6116f4913390600b5416611f73565b87866116c6565b600790338a525261172082892060036000918281558260018201558260028201550155565b886116be565b608490838a519162461bcd60e51b8352820152602e60248201527f43503a204661696c656420746f206e6f74696679205269736b4d616e6167657260448201527f206f66207769746864726177616c0000000000000000000000000000000000006064820152fd5b60248a601186634e487b7160e01b835252fd5b5050886115f3565b60018701548c51627b8a6760e11b8152868101928352306020840152939a5086928492604090849003019183919060081c6001600160a01b03165af19081156118295789916117fc575b5096888b61158d565b90508381813d8311611822575b6118138183611d7f565b81010312610d0057518a6117f3565b503d611809565b8a513d8b823e3d90fd5b5087517f3e94cfa9000000000000000000000000000000000000000000000000000000008152fd5b87517ff214e773000000000000000000000000000000000000000000000000000000008152fd5b82875163724950b960e01b8152fd5b5050503461019b578160031936011261019b57602090516127108152f35b5050503461019b57602036600319011261019b576020916001826001600160a01b0392836118db611c1e565b1681526007865220015460081c169051908152f35b5050503461019b57602036600319011261019b5760a091816001600160a01b03918261191a611c1e565b1681526007602052208054926001820154926003600284015493015493825195865261194c6020870160ff8316611c34565b60081c169084015260608301526080820152f35b8482853461024f578060031936011261024f57813590828210156105b457602435926001600160a01b039182851694858103611bfe5761199e611cd9565b8415611bbb578515611bad573b15611b445780517f38d52e0f000000000000000000000000000000000000000000000000000000008152602090818185818a5afa908115611b3a578891611b00575b508480600b5416911603611abf57600690611a0786611cc0565b8773ffffffffffffffffffffffffffffffffffffffff19825416179055868852528520805460ff811615611a61575b505050507fab3bc9279813edd3b1ca91e3bfe46928f8173d2a7e1708fc9f06b70a14a4c5968380a380f35b60ff191660011790556005549068010000000000000000821015611aac5750806001611a909201600555611c89565b819291549060031b9185831b921b191617905583808080611a36565b856041602492634e487b7160e01b835252fd5b60649291519162461bcd60e51b8352820152601a60248201527f43503a2041646170746572206173736574206d69736d617463680000000000006044820152fd5b90508181813d8311611b33575b611b178183611d7f565b81010312611b2f57518481168103611b2f57886119ed565b8780fd5b503d611b0d565b83513d8a823e3d90fd5b906020608492519162461bcd60e51b8352820152602560248201527f43503a20416461707465722061646472657373206973206e6f74206120636f6e60448201527f74726163740000000000000000000000000000000000000000000000000000006064820152fd5b505163d92e233d60e01b8152fd5b606483602084519162461bcd60e51b8352820152602060248201527f43503a2043616e6e6f742073657420666f72204e4f4e4520706c6174666f726d6044820152fd5b8680fd5b85903461019b578160031936011261019b57602090600a548152f35b600435906001600160a01b038216820361035957565b906004821015611c415752565b634e487b7160e01b600052602160045260246000fd5b8054821015611c735760005260206000209060011b0190600090565b634e487b7160e01b600052603260045260246000fd5b600554811015611c735760056000527f036b6384b5eca791c62761152d0c79bb0604c104a5fb6f4eb0703f3154bb3db00190600090565b6004811015611c41576000526004602052604060002090565b6001600160a01b03600154163303611ced57565b60246040517f118cdaa7000000000000000000000000000000000000000000000000000000008152336004820152fd5b6040810190811067ffffffffffffffff821117611d3957604052565b634e487b7160e01b600052604160045260246000fd5b67ffffffffffffffff8111611d3957604052565b60a0810190811067ffffffffffffffff821117611d3957604052565b90601f8019910116810190811067ffffffffffffffff821117611d3957604052565b81810292918115918404141715611db457565b634e487b7160e01b600052601160045260246000fd5b8115611dd4570490565b634e487b7160e01b600052601260045260246000fd5b91908201809211611db457565b3d15611e32573d9067ffffffffffffffff8211611d395760405191611e26601f8201601f191660200184611d7f565b82523d6000602084013e565b606090565b906000602091828151910182855af115611eab576000513d611ea257506001600160a01b0381163b155b611e685750565b6024906001600160a01b03604051917f5274afe7000000000000000000000000000000000000000000000000000000008352166004820152fd5b60011415611e61565b6040513d6000823e3d90fd5b600260005414611ec8576002600055565b60046040517f3ee5aeb5000000000000000000000000000000000000000000000000000000008152fd5b91908203918211611db457565b9190611f1f57808203611f10575050565b60018181925484550154910155565b634e487b7160e01b600052600060045260246000fd5b80548015611f5d576000190190611f4c8282611c57565b611f1f576001816000809355015555565b634e487b7160e01b600052603160045260246000fd5b6040517fa9059cbb0000000000000000000000000000000000000000000000000000000060208201526001600160a01b03929092166024830152604480830193909352918152611fc891610aef606483611d7f565b565b15611fd157565b608460405162461bcd60e51b815260206004820152602160248201527f43503a2043616c6c6572206973206e6f7420746865205269736b4d616e61676560448201527f72000000000000000000000000000000000000000000000000000000000000006064820152fd5b6000198114611db45760010190565b903590601e1981360301821215610359570180359067ffffffffffffffff821161035957602001918160051b3603831361035957565b9190811015611c735760051b0190565b356001600160a01b03811681036103595790565b6120b660608201356020830135611dea565b80156125e35760c082013581116125b957600460206001600160a01b0360035416604051928380927f5c9244af0000000000000000000000000000000000000000000000000000000082525afa908115611eab57600091612577575b5060c0830135612287575b506001600160a01b03600b5416906040516370a0823160e01b8152306004820152602081602481865afa8015611eab578291600091612252575b50106121e85761216990600a54611ef2565b600a5560208201356121cf575b5060608101351515806121b2575b61218b5750565b611fc8906001600160a01b03600b54166121ac604060608401359301612090565b90611f73565b506001600160a01b036121c760408301612090565b161515612184565b6121e2906020830135906121ac84612090565b38612176565b608460405162461bcd60e51b815260206004820152602e60248201527f43503a205061796f7574206661696c65642c20696e73756666696369656e742060448201527f66756e64732067617468657265640000000000000000000000000000000000006064820152fd5b91506020823d60201161227f575b8161226d60209383611d7f565b8101031261085c575081905138612157565b3d9150612260565b90929160005b61229a608083018361204a565b905081101561256c576001600160a01b036122ca6122c5836122bf608087018761204a565b90612080565b612090565b16906122dd816122bf60a086018661204a565b35806122f4575b506122ef915061203b565b61228d565b61230790610df060c08601359189611da1565b9182156122e457604051627b8a6760e11b81526004810184905230602482015290602090829060449082906000905af19081612541575b50612537576001600160a01b0361235f6122c5836122bf608088018861204a565b167f4801b3b9794e8c30779294162ed70e5f040142d8b4c0a2a52d6b80c3abea1e3460c060405160408152600860408201527f7769746864726177000000000000000000000000000000000000000000000000606082015260806020820152600f60808201527f7769746864726177206661696c6564000000000000000000000000000000000060a0820152a260006124666020846001600160a01b036124106122c5876122bf60808c018c61204a565b1661241a88612090565b856040518096819582947fdbf0f3e200000000000000000000000000000000000000000000000000000000845260048401602090939291936001600160a01b0360408201951681520152565b03925af1829181612503575b506124fb575b501561248b575b6122ef91505b386122e4565b6001600160a01b03841691823b15610359576000926024849260405195869384927f9b154aea00000000000000000000000000000000000000000000000000000000845260048401525af1918215611eab576122ef926124ec575b5061247f565b6124f590611d4f565b386124e6565b905038612478565b9091506020813d60201161252f575b8161251f60209383611d7f565b8101031261024f57519038612472565b3d9150612512565b6122ef9150612485565b602090813d8311612565575b6125578183611d7f565b81010312610359573861233e565b503d61254d565b50919290503861211d565b6020813d6020116125b1575b8161259060209383611d7f565b8101031261019b5751906001600160a01b038216820361085c575038612112565b3d9150612583565b60046040517f90c4e7f1000000000000000000000000000000000000000000000000000000008152fd5b5050565b600060443d1061264557604051600319913d83016004833e815167ffffffffffffffff918282113d60248401111761264857818401948551938411612650573d85010160208487010111612648575061264592910160200190611d7f565b90565b949350505050565b50949350505050565b60095480158015612680575b61267957610df061264592600a5490611da1565b5050600090565b508115612665565b600a54801580156126ac575b6126a857610df06126459260095490611da1565b5090565b50811561269456fea2646970667358221220fdd947f48cd6597896636e31f18b1ac1834e80ee7ffb760c8cbc0aeef9c2069164736f6c63430008140033",
  "linkReferences": {},
  "deployedLinkReferences": {}
}