{
  "_format": "hh-sol-artifact-1",
  "contractName": "CapitalPool",
  "sourceName": "contracts/core/CapitalPool.sol",
  "abi": [
    {
      "inputs": [
        {
          "internalType": "address",
          "name": "_initialOwner",
          "type": "address"
        },
        {
          "internalType": "address",
          "name": "_underlyingAsset",
          "type": "address"
        }
      ],
      "stateMutability": "nonpayable",
      "type": "constructor"
    },
    {
      "inputs": [
        {
          "internalType": "uint8",
          "name": "platform",
          "type": "uint8"
        }
      ],
      "name": "AdapterNotConfigured",
      "type": "error"
    },
    {
      "inputs": [
        {
          "internalType": "address",
          "name": "target",
          "type": "address"
        }
      ],
      "name": "AddressEmptyCode",
      "type": "error"
    },
    {
      "inputs": [
        {
          "internalType": "address",
          "name": "account",
          "type": "address"
        }
      ],
      "name": "AddressInsufficientBalance",
      "type": "error"
    },
    {
      "inputs": [],
      "name": "FailedInnerCall",
      "type": "error"
    },
    {
      "inputs": [
        {
          "internalType": "string",
          "name": "reason",
          "type": "string"
        }
      ],
      "name": "InconsistentState",
      "type": "error"
    },
    {
      "inputs": [
        {
          "internalType": "uint256",
          "name": "requested",
          "type": "uint256"
        },
        {
          "internalType": "uint256",
          "name": "available",
          "type": "uint256"
        }
      ],
      "name": "InsufficientShares",
      "type": "error"
    },
    {
      "inputs": [
        {
          "internalType": "uint256",
          "name": "amount",
          "type": "uint256"
        }
      ],
      "name": "InvalidAmount",
      "type": "error"
    },
    {
      "inputs": [
        {
          "internalType": "uint256",
          "name": "index",
          "type": "uint256"
        },
        {
          "internalType": "uint256",
          "name": "length",
          "type": "uint256"
        }
      ],
      "name": "InvalidRequestIndex",
      "type": "error"
    },
    {
      "inputs": [],
      "name": "MathOverflowedMulDiv",
      "type": "error"
    },
    {
      "inputs": [
        {
          "internalType": "uint256",
          "name": "lengthA",
          "type": "uint256"
        },
        {
          "internalType": "uint256",
          "name": "lengthB",
          "type": "uint256"
        }
      ],
      "name": "MismatchedArrayLengths",
      "type": "error"
    },
    {
      "inputs": [
        {
          "internalType": "address",
          "name": "user",
          "type": "address"
        }
      ],
      "name": "NoActiveDeposit",
      "type": "error"
    },
    {
      "inputs": [
        {
          "internalType": "uint256",
          "name": "amountDeposited",
          "type": "uint256"
        }
      ],
      "name": "NoSharesToMint",
      "type": "error"
    },
    {
      "inputs": [],
      "name": "NoWithdrawalRequest",
      "type": "error"
    },
    {
      "inputs": [
        {
          "internalType": "address",
          "name": "caller",
          "type": "address"
        }
      ],
      "name": "NotLossDistributor",
      "type": "error"
    },
    {
      "inputs": [
        {
          "internalType": "address",
          "name": "caller",
          "type": "address"
        }
      ],
      "name": "NotRiskManager",
      "type": "error"
    },
    {
      "inputs": [
        {
          "internalType": "uint256",
          "name": "unlockTimestamp",
          "type": "uint256"
        },
        {
          "internalType": "uint256",
          "name": "blockTimestamp",
          "type": "uint256"
        }
      ],
      "name": "NoticePeriodActive",
      "type": "error"
    },
    {
      "inputs": [
        {
          "internalType": "address",
          "name": "owner",
          "type": "address"
        }
      ],
      "name": "OwnableInvalidOwner",
      "type": "error"
    },
    {
      "inputs": [
        {
          "internalType": "address",
          "name": "account",
          "type": "address"
        }
      ],
      "name": "OwnableUnauthorizedAccount",
      "type": "error"
    },
    {
      "inputs": [
        {
          "internalType": "uint256",
          "name": "payoutAmount",
          "type": "uint256"
        },
        {
          "internalType": "uint256",
          "name": "availableCapital",
          "type": "uint256"
        }
      ],
      "name": "PayoutExceedsPoolLPCapital",
      "type": "error"
    },
    {
      "inputs": [],
      "name": "ReentrancyGuardReentrantCall",
      "type": "error"
    },
    {
      "inputs": [
        {
          "internalType": "address",
          "name": "token",
          "type": "address"
        }
      ],
      "name": "SafeERC20FailedOperation",
      "type": "error"
    },
    {
      "inputs": [],
      "name": "ZeroAddress",
      "type": "error"
    },
    {
      "anonymous": false,
      "inputs": [
        {
          "indexed": true,
          "internalType": "address",
          "name": "adapterAddress",
          "type": "address"
        },
        {
          "indexed": false,
          "internalType": "string",
          "name": "functionCalled",
          "type": "string"
        },
        {
          "indexed": false,
          "internalType": "string",
          "name": "reason",
          "type": "string"
        }
      ],
      "name": "AdapterCallFailed",
      "type": "event"
    },
    {
      "anonymous": false,
      "inputs": [
        {
          "indexed": true,
          "internalType": "enum YieldPlatform",
          "name": "platform",
          "type": "uint8"
        },
        {
          "indexed": true,
          "internalType": "address",
          "name": "adapterAddress",
          "type": "address"
        }
      ],
      "name": "BaseYieldAdapterSet",
      "type": "event"
    },
    {
      "anonymous": false,
      "inputs": [
        {
          "indexed": true,
          "internalType": "address",
          "name": "user",
          "type": "address"
        },
        {
          "indexed": false,
          "internalType": "uint256",
          "name": "amount",
          "type": "uint256"
        },
        {
          "indexed": false,
          "internalType": "uint256",
          "name": "sharesMinted",
          "type": "uint256"
        },
        {
          "indexed": false,
          "internalType": "enum YieldPlatform",
          "name": "yieldChoice",
          "type": "uint8"
        }
      ],
      "name": "Deposit",
      "type": "event"
    },
    {
      "anonymous": false,
      "inputs": [
        {
          "indexed": true,
          "internalType": "address",
          "name": "newLossDistributor",
          "type": "address"
        }
      ],
      "name": "LossDistributorSet",
      "type": "event"
    },
    {
      "anonymous": false,
      "inputs": [
        {
          "indexed": true,
          "internalType": "address",
          "name": "previousOwner",
          "type": "address"
        },
        {
          "indexed": true,
          "internalType": "address",
          "name": "newOwner",
          "type": "address"
        }
      ],
      "name": "OwnershipTransferred",
      "type": "event"
    },
    {
      "anonymous": false,
      "inputs": [
        {
          "indexed": true,
          "internalType": "address",
          "name": "newRewardDistributor",
          "type": "address"
        }
      ],
      "name": "RewardDistributorSet",
      "type": "event"
    },
    {
      "anonymous": false,
      "inputs": [
        {
          "indexed": true,
          "internalType": "address",
          "name": "newRiskManager",
          "type": "address"
        }
      ],
      "name": "RiskManagerSet",
      "type": "event"
    },
    {
      "anonymous": false,
      "inputs": [
        {
          "indexed": true,
          "internalType": "address",
          "name": "underwriter",
          "type": "address"
        },
        {
          "indexed": false,
          "internalType": "uint256",
          "name": "sharesBurnt",
          "type": "uint256"
        },
        {
          "indexed": false,
          "internalType": "uint256",
          "name": "valueLost",
          "type": "uint256"
        }
      ],
      "name": "SharesBurntForLoss",
      "type": "event"
    },
    {
      "anonymous": false,
      "inputs": [
        {
          "indexed": true,
          "internalType": "address",
          "name": "newUnderwriterManager",
          "type": "address"
        }
      ],
      "name": "UnderwriterManagerSet",
      "type": "event"
    },
    {
      "anonymous": false,
      "inputs": [
        {
          "indexed": false,
          "internalType": "uint256",
          "name": "newPeriod",
          "type": "uint256"
        }
      ],
      "name": "UnderwriterNoticePeriodSet",
      "type": "event"
    },
    {
      "anonymous": false,
      "inputs": [
        {
          "indexed": true,
          "internalType": "address",
          "name": "user",
          "type": "address"
        },
        {
          "indexed": false,
          "internalType": "uint256",
          "name": "assetsReceived",
          "type": "uint256"
        },
        {
          "indexed": false,
          "internalType": "uint256",
          "name": "sharesBurned",
          "type": "uint256"
        },
        {
          "indexed": false,
          "internalType": "uint256",
          "name": "requestIndex",
          "type": "uint256"
        }
      ],
      "name": "WithdrawalExecuted",
      "type": "event"
    },
    {
      "anonymous": false,
      "inputs": [
        {
          "indexed": true,
          "internalType": "address",
          "name": "user",
          "type": "address"
        },
        {
          "indexed": false,
          "internalType": "uint256",
          "name": "sharesCancelled",
          "type": "uint256"
        },
        {
          "indexed": false,
          "internalType": "uint256",
          "name": "requestIndex",
          "type": "uint256"
        }
      ],
      "name": "WithdrawalRequestCancelled",
      "type": "event"
    },
    {
      "anonymous": false,
      "inputs": [
        {
          "indexed": true,
          "internalType": "address",
          "name": "user",
          "type": "address"
        },
        {
          "indexed": false,
          "internalType": "uint256",
          "name": "sharesToBurn",
          "type": "uint256"
        },
        {
          "indexed": false,
          "internalType": "uint256",
          "name": "timestamp",
          "type": "uint256"
        },
        {
          "indexed": false,
          "internalType": "uint256",
          "name": "requestIndex",
          "type": "uint256"
        }
      ],
      "name": "WithdrawalRequested",
      "type": "event"
    },
    {
      "anonymous": false,
      "inputs": [
        {
          "indexed": true,
          "internalType": "address",
          "name": "adapter",
          "type": "address"
        },
        {
          "indexed": true,
          "internalType": "uint256",
          "name": "rewardPoolId",
          "type": "uint256"
        }
      ],
      "name": "YieldAdapterRewardPoolSet",
      "type": "event"
    },
    {
      "anonymous": false,
      "inputs": [
        {
          "indexed": true,
          "internalType": "address",
          "name": "adapter",
          "type": "address"
        },
        {
          "indexed": false,
          "internalType": "uint256",
          "name": "yieldAmount",
          "type": "uint256"
        },
        {
          "indexed": false,
          "internalType": "uint256",
          "name": "rewardPoolId",
          "type": "uint256"
        }
      ],
      "name": "YieldHarvested",
      "type": "event"
    },
    {
      "inputs": [],
      "name": "BPS",
      "outputs": [
        {
          "internalType": "uint256",
          "name": "",
          "type": "uint256"
        }
      ],
      "stateMutability": "view",
      "type": "function"
    },
    {
      "inputs": [
        {
          "internalType": "uint256",
          "name": "",
          "type": "uint256"
        }
      ],
      "name": "activeYieldAdapterAddresses",
      "outputs": [
        {
          "internalType": "address",
          "name": "",
          "type": "address"
        }
      ],
      "stateMutability": "view",
      "type": "function"
    },
    {
      "inputs": [
        {
          "internalType": "enum YieldPlatform",
          "name": "",
          "type": "uint8"
        }
      ],
      "name": "baseYieldAdapters",
      "outputs": [
        {
          "internalType": "contract IYieldAdapter",
          "name": "",
          "type": "address"
        }
      ],
      "stateMutability": "view",
      "type": "function"
    },
    {
      "inputs": [
        {
          "internalType": "address",
          "name": "underwriter",
          "type": "address"
        },
        {
          "internalType": "uint256",
          "name": "burnAmount",
          "type": "uint256"
        }
      ],
      "name": "burnSharesForLoss",
      "outputs": [],
      "stateMutability": "nonpayable",
      "type": "function"
    },
    {
      "inputs": [
        {
          "internalType": "uint256",
          "name": "_requestIndex",
          "type": "uint256"
        }
      ],
      "name": "cancelWithdrawalRequest",
      "outputs": [],
      "stateMutability": "nonpayable",
      "type": "function"
    },
    {
      "inputs": [
        {
          "internalType": "uint256",
          "name": "_amount",
          "type": "uint256"
        },
        {
          "internalType": "enum YieldPlatform",
          "name": "_yieldChoice",
          "type": "uint8"
        }
      ],
      "name": "deposit",
      "outputs": [],
      "stateMutability": "nonpayable",
      "type": "function"
    },
    {
      "inputs": [
        {
          "components": [
            {
              "internalType": "address",
              "name": "claimant",
              "type": "address"
            },
            {
              "internalType": "uint256",
              "name": "claimantAmount",
              "type": "uint256"
            },
            {
              "internalType": "address",
              "name": "feeRecipient",
              "type": "address"
            },
            {
              "internalType": "uint256",
              "name": "feeAmount",
              "type": "uint256"
            },
            {
              "internalType": "address[]",
              "name": "adapters",
              "type": "address[]"
            },
            {
              "internalType": "uint256[]",
              "name": "capitalPerAdapter",
              "type": "uint256[]"
            },
            {
              "internalType": "uint256",
              "name": "totalCapitalFromPoolLPs",
              "type": "uint256"
            }
          ],
          "internalType": "struct ICapitalPool.PayoutData",
          "name": "_payoutData",
          "type": "tuple"
        }
      ],
      "name": "executePayout",
      "outputs": [],
      "stateMutability": "nonpayable",
      "type": "function"
    },
    {
      "inputs": [
        {
          "internalType": "uint256",
          "name": "_requestIndex",
          "type": "uint256"
        }
      ],
      "name": "executeWithdrawal",
      "outputs": [],
      "stateMutability": "nonpayable",
      "type": "function"
    },
    {
      "inputs": [
        {
          "internalType": "address",
          "name": "_underwriter",
          "type": "address"
        }
      ],
      "name": "getUnderwriterAccount",
      "outputs": [
        {
          "internalType": "uint256",
          "name": "totalDepositedAssetPrincipal",
          "type": "uint256"
        },
        {
          "internalType": "enum YieldPlatform",
          "name": "yieldChoice",
          "type": "uint8"
        },
        {
          "internalType": "uint256",
          "name": "masterShares",
          "type": "uint256"
        },
        {
          "internalType": "uint256",
          "name": "totalPendingWithdrawalShares",
          "type": "uint256"
        }
      ],
      "stateMutability": "view",
      "type": "function"
    },
    {
      "inputs": [
        {
          "internalType": "address",
          "name": "_underwriter",
          "type": "address"
        }
      ],
      "name": "getUnderwriterAdapterAddress",
      "outputs": [
        {
          "internalType": "address",
          "name": "",
          "type": "address"
        }
      ],
      "stateMutability": "view",
      "type": "function"
    },
    {
      "inputs": [
        {
          "internalType": "address",
          "name": "_underwriter",
          "type": "address"
        }
      ],
      "name": "getWithdrawalRequestCount",
      "outputs": [
        {
          "internalType": "uint256",
          "name": "",
          "type": "uint256"
        }
      ],
      "stateMutability": "view",
      "type": "function"
    },
    {
      "inputs": [
        {
          "internalType": "address",
          "name": "adapterAddress",
          "type": "address"
        }
      ],
      "name": "harvestAndDistributeYield",
      "outputs": [],
      "stateMutability": "nonpayable",
      "type": "function"
    },
    {
      "inputs": [
        {
          "internalType": "address",
          "name": "",
          "type": "address"
        }
      ],
      "name": "isAdapterActive",
      "outputs": [
        {
          "internalType": "bool",
          "name": "",
          "type": "bool"
        }
      ],
      "stateMutability": "view",
      "type": "function"
    },
    {
      "inputs": [],
      "name": "lossDistributor",
      "outputs": [
        {
          "internalType": "address",
          "name": "",
          "type": "address"
        }
      ],
      "stateMutability": "view",
      "type": "function"
    },
    {
      "inputs": [],
      "name": "owner",
      "outputs": [
        {
          "internalType": "address",
          "name": "",
          "type": "address"
        }
      ],
      "stateMutability": "view",
      "type": "function"
    },
    {
      "inputs": [
        {
          "internalType": "address",
          "name": "",
          "type": "address"
        }
      ],
      "name": "principalInAdapter",
      "outputs": [
        {
          "internalType": "uint256",
          "name": "",
          "type": "uint256"
        }
      ],
      "stateMutability": "view",
      "type": "function"
    },
    {
      "inputs": [],
      "name": "renounceOwnership",
      "outputs": [],
      "stateMutability": "nonpayable",
      "type": "function"
    },
    {
      "inputs": [
        {
          "internalType": "uint256",
          "name": "_sharesToBurn",
          "type": "uint256"
        }
      ],
      "name": "requestWithdrawal",
      "outputs": [],
      "stateMutability": "nonpayable",
      "type": "function"
    },
    {
      "inputs": [],
      "name": "rewardDistributor",
      "outputs": [
        {
          "internalType": "contract IRewardDistributor",
          "name": "",
          "type": "address"
        }
      ],
      "stateMutability": "view",
      "type": "function"
    },
    {
      "inputs": [],
      "name": "riskManager",
      "outputs": [
        {
          "internalType": "address",
          "name": "",
          "type": "address"
        }
      ],
      "stateMutability": "view",
      "type": "function"
    },
    {
      "inputs": [
        {
          "internalType": "enum YieldPlatform",
          "name": "_platform",
          "type": "uint8"
        },
        {
          "internalType": "address",
          "name": "_adapterAddress",
          "type": "address"
        }
      ],
      "name": "setBaseYieldAdapter",
      "outputs": [],
      "stateMutability": "nonpayable",
      "type": "function"
    },
    {
      "inputs": [
        {
          "internalType": "address",
          "name": "_lossDistributor",
          "type": "address"
        }
      ],
      "name": "setLossDistributor",
      "outputs": [],
      "stateMutability": "nonpayable",
      "type": "function"
    },
    {
      "inputs": [
        {
          "internalType": "address",
          "name": "_rewardDistributor",
          "type": "address"
        }
      ],
      "name": "setRewardDistributor",
      "outputs": [],
      "stateMutability": "nonpayable",
      "type": "function"
    },
    {
      "inputs": [
        {
          "internalType": "address",
          "name": "_riskManager",
          "type": "address"
        }
      ],
      "name": "setRiskManager",
      "outputs": [],
      "stateMutability": "nonpayable",
      "type": "function"
    },
    {
      "inputs": [
        {
          "internalType": "address",
          "name": "_underwriterManager",
          "type": "address"
        }
      ],
      "name": "setUnderwriterManager",
      "outputs": [],
      "stateMutability": "nonpayable",
      "type": "function"
    },
    {
      "inputs": [
        {
          "internalType": "uint256",
          "name": "_newPeriod",
          "type": "uint256"
        }
      ],
      "name": "setUnderwriterNoticePeriod",
      "outputs": [],
      "stateMutability": "nonpayable",
      "type": "function"
    },
    {
      "inputs": [
        {
          "internalType": "address",
          "name": "adapterAddress",
          "type": "address"
        },
        {
          "internalType": "uint256",
          "name": "rewardPoolId",
          "type": "uint256"
        }
      ],
      "name": "setYieldAdapterRewardPool",
      "outputs": [],
      "stateMutability": "nonpayable",
      "type": "function"
    },
    {
      "inputs": [
        {
          "internalType": "uint256",
          "name": "_shares",
          "type": "uint256"
        }
      ],
      "name": "sharesToValue",
      "outputs": [
        {
          "internalType": "uint256",
          "name": "",
          "type": "uint256"
        }
      ],
      "stateMutability": "view",
      "type": "function"
    },
    {
      "inputs": [],
      "name": "totalMasterSharesSystem",
      "outputs": [
        {
          "internalType": "uint256",
          "name": "",
          "type": "uint256"
        }
      ],
      "stateMutability": "view",
      "type": "function"
    },
    {
      "inputs": [],
      "name": "totalSystemValue",
      "outputs": [
        {
          "internalType": "uint256",
          "name": "",
          "type": "uint256"
        }
      ],
      "stateMutability": "view",
      "type": "function"
    },
    {
      "inputs": [
        {
          "internalType": "address",
          "name": "newOwner",
          "type": "address"
        }
      ],
      "name": "transferOwnership",
      "outputs": [],
      "stateMutability": "nonpayable",
      "type": "function"
    },
    {
      "inputs": [],
      "name": "underlyingAsset",
      "outputs": [
        {
          "internalType": "contract IERC20",
          "name": "",
          "type": "address"
        }
      ],
      "stateMutability": "view",
      "type": "function"
    },
    {
      "inputs": [
        {
          "internalType": "address",
          "name": "",
          "type": "address"
        }
      ],
      "name": "underwriterAccounts",
      "outputs": [
        {
          "internalType": "uint256",
          "name": "totalDepositedAssetPrincipal",
          "type": "uint256"
        },
        {
          "internalType": "enum YieldPlatform",
          "name": "yieldChoice",
          "type": "uint8"
        },
        {
          "internalType": "contract IYieldAdapter",
          "name": "yieldAdapter",
          "type": "address"
        },
        {
          "internalType": "uint256",
          "name": "masterShares",
          "type": "uint256"
        },
        {
          "internalType": "uint256",
          "name": "totalPendingWithdrawalShares",
          "type": "uint256"
        }
      ],
      "stateMutability": "view",
      "type": "function"
    },
    {
      "inputs": [],
      "name": "underwriterManager",
      "outputs": [
        {
          "internalType": "contract IUnderwriterManager",
          "name": "",
          "type": "address"
        }
      ],
      "stateMutability": "view",
      "type": "function"
    },
    {
      "inputs": [],
      "name": "underwriterNoticePeriod",
      "outputs": [
        {
          "internalType": "uint256",
          "name": "",
          "type": "uint256"
        }
      ],
      "stateMutability": "view",
      "type": "function"
    },
    {
      "inputs": [
        {
          "internalType": "uint256",
          "name": "_value",
          "type": "uint256"
        }
      ],
      "name": "valueToShares",
      "outputs": [
        {
          "internalType": "uint256",
          "name": "",
          "type": "uint256"
        }
      ],
      "stateMutability": "view",
      "type": "function"
    },
    {
      "inputs": [
        {
          "internalType": "address",
          "name": "",
          "type": "address"
        },
        {
          "internalType": "uint256",
          "name": "",
          "type": "uint256"
        }
      ],
      "name": "withdrawalRequests",
      "outputs": [
        {
          "internalType": "uint256",
          "name": "shares",
          "type": "uint256"
        },
        {
          "internalType": "uint256",
          "name": "unlockTimestamp",
          "type": "uint256"
        }
      ],
      "stateMutability": "view",
      "type": "function"
    },
    {
      "inputs": [
        {
          "internalType": "address",
          "name": "",
          "type": "address"
        }
      ],
      "name": "yieldAdapterRewardPoolId",
      "outputs": [
        {
          "internalType": "uint256",
          "name": "",
          "type": "uint256"
        }
      ],
      "stateMutability": "view",
      "type": "function"
    }
  ],
  "bytecode": "0x60a0346200013e5762002de390601f38839003908101601f19168201906001600160401b038211838310176200014357808391604095869485528339810103126200013e576200005d6020620000558362000159565b920162000159565b60016000908155916001600160a01b039081169182156200012657600180546001600160a01b0319811685179091558551939083167f8be0079c531659141344cd1fd0a4f28419497f9722a3daafe3b4186f6b6457e08680a383600655169081156200011757506080526002826103e89283600d55808052600b60205220015551612c7490816200016f82396080518181816108780152818161097f015281816114f301528181611b0201528181611ec301526127cb0152f35b63d92e233d60e01b8152600490fd5b8451631e4fbdf760e01b815260048101859052602490fd5b600080fd5b634e487b7160e01b600052604160045260246000fd5b51906001600160a01b03821682036200013e5756fe608060408181526004918236101561001657600080fd5b600092833560e01c9182630342a9071461172f5750816304ac9b13146117105781630bdf3c7f146114615781631d4e733e146113f257816323ed7d32146113b2578163249d39e91461139557816324f13a761461137057816325d27d8b146113505781632a9e6501146113315781632e0163cb14611312578163359c5913146112db57816337bcdbc11461129f5781633c139af6146111de578163426483a6146111b65781634537e2151461114857816345b05d0914610fb55781634784266314610f8d5781634e5a232814610f3157816358b12bc314610ee35781635ccea26b14610e7557816362ca846014610e07578163654cfdff146108f8578163715018a61461089c5781637158da7c14610858578163731f25c0146107f45781637a3d7bfe146107b257816380229f2b1461070c5781638a69c8dd146106e55781638da5cb5b146106bd5781638ffd61b8146106865781639e1b58551461064c5781639ee679e814610436578163a1809b95146103be578163acc2166a14610397578163b0616324146102db578163cbcc43ef146102a7578163f2fde38b14610200575063fcc48030146101c757600080fd5b346101fc5760203660031901126101fc57806020926001600160a01b036101ec611754565b168152600c845220549051908152f35b5080fd5b9050346102a35760203660031901126102a35761021b611754565b906102246129c4565b6001600160a01b03809216928315610274575050600154826001600160a01b0319821617600155167f8be0079c531659141344cd1fd0a4f28419497f9722a3daafe3b4186f6b6457e0600080a380f35b908460249251917f1e4fbdf7000000000000000000000000000000000000000000000000000000008352820152fd5b8280fd5b83346102d85760203660031901126102d8576102d16102c4611754565b6102cc612a08565b6126bf565b6001815580f35b80fd5b9050346102a357816003193601126102a3576102f5611754565b916001600160a01b036024359361030a6129c4565b1691828552600960205260ff82862054161561035557508290828552600a6020528420557f39f12bd3c1b068fe481ee9c1d2e360450711e0dc34d6e6af43d8ed6b92661e568380a380f35b6020606492519162461bcd60e51b8352820152601a60248201527f43503a2041646170746572206d757374206265206163746976650000000000006044820152fd5b8284346102d857806003193601126102d857506001600160a01b0360209254169051908152f35b9050346102a35760203660031901126102a3576001600160a01b036103e1611754565b6103e96129c4565b169182156104295750816001600160a01b03198254161790557f075c02c513a415bd4ff5976f8aa6fc5767d2183daca9ec00ab71ce78e8bf81588280a280f35b5163d92e233d60e01b8152fd5b8383346101fc5760203660031901126101fc57823590610454612a08565b811561063757338352600b60205280832060038101805460026104778683611e72565b9301548084116106115750505561048d8261268c565b6001600160a01b03600554169081610593575b50506104ae60065442611e72565b338452600c6020528184208251906104c58261183e565b84825260208201908382528054906801000000000000000082101561058057906104f491600182018155611792565b92909261056e5751825551600190910155338452600c6020528184205460001981019290831161055b57519283526020830152604082015233907f38e3d972947cfef94205163d483d6287ef27eb312e20cb8e0b13a49989db232e90606090a26001815580f35b602485601188634e487b7160e01b835252fd5b602487808a634e487b7160e01b825252fd5b60248860418b634e487b7160e01b835252fd5b813b1561060d5782517fa2d8e60800000000000000000000000000000000000000000000000000000000815233878201908152602081019290925291859183919082908490829060400103925af1801561060357908491156104a0576105f890611814565b6102a35782856104a0565b82513d86823e3d90fd5b8480fd5b84866106206044948b9461187c565b91519263658ec5dd60e11b84528301526024820152fd5b51633728b83d60e01b81529283015250602490fd5b8284346102d85760203660031901126102d8578235928310156102d857506001600160a01b0361067d6020936117fb565b54169051908152f35b5050346101fc5760203660031901126101fc57806020926001600160a01b036106ad611754565b168152600a845220549051908152f35b5050346101fc57816003193601126101fc576020906001600160a01b03600154169051908152f35b8284346102d85760203660031901126102d857506107056020923561268c565b9051908152f35b9050346102a357816003193601126102a357610726611754565b916001600160a01b03600354163303610749578361074660243585612447565b80f35b906020608492519162461bcd60e51b8352820152602560248201527f43503a2043616c6c6572206973206e6f7420746865204c6f737344697374726960448201527f6275746f720000000000000000000000000000000000000000000000000000006064820152fd5b9050346102a35760203660031901126102a35735916008548310156102d857506001600160a01b036107e56020936117c4565b92905490519260031b1c168152f35b5050346101fc5760203660031901126101fc57806080926001600160a01b0361081b611754565b168152600b602052209081549160ff6001820154169161084e60036002840154930154938251958652602086019061176f565b8301526060820152f35b5050346101fc57816003193601126101fc57602090516001600160a01b037f0000000000000000000000000000000000000000000000000000000000000000168152f35b83346102d857806003193601126102d8576108b56129c4565b60006001600160a01b036001546001600160a01b03198116600155167f8be0079c531659141344cd1fd0a4f28419497f9722a3daafe3b4186f6b6457e08280a380f35b9050346102a357816003193601126102a35780359160249081359183831015610bfb57610923612a08565b8415610df3578215610ddb57338652602093600b8552828720610945856117fb565b54906001600160a01b0391828116918215610dc357600281015415159081610d97575b50610d305761097689612b92565b948515610d03577f000000000000000000000000000000000000000000000000000000000000000087517f23b872dd000000000000000000000000000000000000000000000000000000008b82015233838201523060448201528b60648201526064815260a081019067ffffffffffffffff9181811083821117610cd1578d928f9998978e8b8e610a0f849b9a99978497835288612bca565b5196610a6d88610a5f858201937f095ea7b300000000000000000000000000000000000000000000000000000000978886528d8401602090939291936001600160a01b0360408201951681520152565b03601f1981018a528961185a565b87519082885af18b513d82610ce5575b505015610c7b575b5050505050823b15610bfb5785885180927fb6b55f250000000000000000000000000000000000000000000000000000000082528d888301528183875af18015610c7157908691610c5d575b5050338552600b8952610b0686898c610aff8b8a209160028301968754948515610c09575b50508254611e72565b9055611e72565b9055610b1485600d54611e72565b600d55610b2389600e54611e72565b600e558352600f8752848320610b3a898254611e72565b90556005541680610b8a575b505050610b5d93825195865285015283019061176f565b7fa7db47d395930224de3f54139208b4a958fe3747c2ad1dee5a6624643a6def9360603392a26001815580f35b803b156102a35784517f77d9cabd0000000000000000000000000000000000000000000000000000000081523392810192835260208301899052918391839182908490829060400103925af18015610bff57610be7575b80610b46565b610bf090611814565b610bfb578538610be1565b8580fd5b84513d84823e3d90fd5b60018501917fffffffffffffffffffffff00000000000000000000000000000000000000000060ff74ffffffffffffffffffffffffffffffffffffffff0085549360081b169316911617179055388e610af6565b610c6690611814565b61060d578438610ad1565b88513d88823e3d90fd5b8c9a9192939495969798999a51938401528786840152604483015260448252608082019082821090821117610cd15791610cc28f99989796959492610cc7948d5282612bca565b612bca565b38808b8180610a85565b8460418a634e487b7160e01b600052526000fd5b909150610cfb57508884163b15155b3880610a7d565b600114610cf4565b848a8851917f9bf3716c000000000000000000000000000000000000000000000000000000008352820152fd5b6084846031878b8a519362461bcd60e51b85528401528201527f43503a2043616e6e6f74206368616e6765207969656c6420706c6174666f726d60448201527f3b2077697468647261772066697273742e0000000000000000000000000000006064820152fd5b60ff9150600101541684811015610db15787141538610968565b858b602187634e487b7160e01b835252fd5b865163e45f958d60e01b815260ff8916818701528690fd5b929060ff90519263e45f958d60e01b84521690820152fd5b9391505191633728b83d60e01b8352820152fd5b9050346102a35760203660031901126102a3576001600160a01b03610e2a611754565b610e326129c4565b16918215610429575050806001600160a01b031960025416176002557f95329fb8cf31c0dda21532344c24159acccf2f795f93c87a30ac6d3ddb9d03d68280a280f35b9050346102a35760203660031901126102a3576001600160a01b03610e98611754565b610ea06129c4565b16918215610429575050806001600160a01b031960055416176005557fda1ab4d9bf3aaf27501818ce6108ebfa2279c6ef7a66e80b0b71555b4182315e8280a280f35b9050346102a35760203660031901126102a3577f5a6df72af1049434e3648d533ba8bc9b230b44f3426d8a18f6e13cebbe2e0a3c916020913590610f256129c4565b8160065551908152a180f35b5050346101fc57806003193601126101fc57610f4b611754565b6001600160a01b0360243591168352600c6020528183208054821015610f895790610f7591611792565b506001815491015482519182526020820152f35b8380fd5b5050346101fc57816003193601126101fc576020906001600160a01b03600254169051908152f35b8383346101fc5760203660031901126101fc57823590610fd3612a08565b338352600c6020528083209182548082101561112d5750610ff48184611792565b5054926110008461268c565b6001600160a01b0360055416806110ae575b5050338552600b60205260038386200161102d85825461187c565b90558054600019810190811161109b5781611082611071611087937fb3da01b92e7a69234e378e882a9c251189e2b2f73ddca83aabc48dd7164ebe10979695611792565b5061107c8584611792565b9061189f565b6118d5565b815193845260208401523392a26001815580f35b602486601189634e487b7160e01b835252fd5b803b156111295784517fe20b097700000000000000000000000000000000000000000000000000000000815233818a019081526020810193909352918791839182908490829060400103925af1801561111f5761110c575b80611012565b61111890959195611814565b9386611106565b84513d88823e3d90fd5b8680fd5b859160449351926336e22d2f60e21b84528301526024820152fd5b9050346102a35760203660031901126102a3576001600160a01b0361116b611754565b6111736129c4565b16918215610429575050806001600160a01b031960035416176003557f8b96f142c92da55d1d8bb372cd49fb12b32f17d32f3699b97654795894f2eb8e8280a280f35b5050346101fc57816003193601126101fc576020906001600160a01b03600354169051908152f35b839150346101fc57600319906020368301126102a35780359167ffffffffffffffff8311610f895760e09083360301126102a35761121a612a08565b6001600160a01b03600254163303611236576102d19101611e93565b608490602085519162461bcd60e51b8352820152602160248201527f43503a2043616c6c6572206973206e6f7420746865205269736b4d616e61676560448201527f72000000000000000000000000000000000000000000000000000000000000006064820152fd5b5050346101fc5760203660031901126101fc5760ff816020936001600160a01b036112c8611754565b1681526009855220541690519015158152f35b5050346101fc5760203660031901126101fc57806020926001600160a01b03611302611754565b168152600f845220549051908152f35b5050346101fc57816003193601126101fc57602090600d549051908152f35b5050346101fc57816003193601126101fc576020906006549051908152f35b8284346102d85760203660031901126102d8575061070560209235611e49565b8390346101fc5760203660031901126101fc576102d19061138f612a08565b35611913565b5050346101fc57816003193601126101fc57602090516127108152f35b5050346101fc5760203660031901126101fc576020916001826001600160a01b0392836113dd611754565b168152600b865220015460081c169051908152f35b5050346101fc5760203660031901126101fc5760a091816001600160a01b03918261141b611754565b168152600b602052208054926001820154926003600284015493015493825195865261144d6020870160ff831661176f565b60081c169084015260608301526080820152f35b919050346102a357806003193601126102a35781359082821015610f8957602435926001600160a01b0391828516948581036111295761149f6129c4565b84156116cd5785156116bf573b156116565780517f38d52e0f000000000000000000000000000000000000000000000000000000008152602090818185818a5afa90811561164c578891611612575b5084807f0000000000000000000000000000000000000000000000000000000000000000169116036115d157600990611526866117fb565b876001600160a01b0319825416179055868852528520805460ff811615611573575b505050507fab3bc9279813edd3b1ca91e3bfe46928f8173d2a7e1708fc9f06b70a14a4c5968380a380f35b60ff1916600117905560085490680100000000000000008210156115be57508060016115a292016008556117c4565b819291549060031b9185831b921b191617905538808080611548565b856041602492634e487b7160e01b835252fd5b60649291519162461bcd60e51b8352820152601a60248201527f43503a2041646170746572206173736574206d69736d617463680000000000006044820152fd5b90508181813d8311611645575b611629818361185a565b810103126116415751848116810361164157386114ee565b8780fd5b503d61161f565b83513d8a823e3d90fd5b906020608492519162461bcd60e51b8352820152602560248201527f43503a20416461707465722061646472657373206973206e6f74206120636f6e60448201527f74726163740000000000000000000000000000000000000000000000000000006064820152fd5b505163d92e233d60e01b8152fd5b606483602084519162461bcd60e51b8352820152602060248201527f43503a2043616e6e6f742073657420666f72204e4f4e4520706c6174666f726d6044820152fd5b5050346101fc57816003193601126101fc57602090600e549051908152f35b8490346101fc57816003193601126101fc576020906001600160a01b03600554168152f35b600435906001600160a01b038216820361176a57565b600080fd5b90600482101561177c5752565b634e487b7160e01b600052602160045260246000fd5b80548210156117ae5760005260206000209060011b0190600090565b634e487b7160e01b600052603260045260246000fd5b6008548110156117ae5760086000527ff3f7a9fe364faab93b216da50a3214154f22a0a2b415b23a84c8169e8b636ee30190600090565b600481101561177c576000526007602052604060002090565b67ffffffffffffffff811161182857604052565b634e487b7160e01b600052604160045260246000fd5b6040810190811067ffffffffffffffff82111761182857604052565b90601f8019910116810190811067ffffffffffffffff82111761182857604052565b9190820391821161188957565b634e487b7160e01b600052601160045260246000fd5b91906118bf578082036118b0575050565b60018181925484550154910155565b634e487b7160e01b600052600060045260246000fd5b805480156118fd5760001901906118ec8282611792565b6118bf576001816000809355015555565b634e487b7160e01b600052603160045260246000fd5b90600091338352602090600c82526040808520805480841015611e2c57508261193b91611792565b50600182519161194a8361183e565b8054835201548085830152804210611df65750338652600b84528186206002825191015410611d735751906001600160a01b039386856005541680611d12575b5050338752600b8152818720946002860195865494858082109118028086189514611c7e576119b88561268c565b96338a52600b8452848a209160036119cf8861268c565b938481541015600014611c76576119e785825461187c565b81555b600281016119f98a825461187c565b905501611a0788825461187c565b9055611a1587600d5461187c565b600d55338b52600c8552858b2080546000198101908111611c625790611082611a41611a4c9383611792565b5061107c8c84611792565b8a809980611bd9575b5050600e5484916001918511611bd057611a7185600e5461187c565b600e555b015460081c168a52600f8452848a20611a8f89825461187c565b90555415916005541680611b56575b505090827f1fd2e466982404121834498ff574c408f6bc78e2a56db572a408961b908d567e969798611af69493611b2b575b50505085611afb575b519283923396846040919493926060820195825260208201520152565b0390a2565b611b2686337f0000000000000000000000000000000000000000000000000000000000000000612a43565b611ad9565b600b611b4e93338352522060036000918281558260018201558260028201550155565b388181611ad0565b90818a923b156102a35760648392875194859384927fd01ebe3700000000000000000000000000000000000000000000000000000000845233600485015260248401528760448401525af18015611bc657611bb2575b80611a9e565b611bbc8991611814565b6116415738611bac565b84513d8b823e3d90fd5b8c600e55611a75565b60018301548851627b8a6760e11b81526004810192909252306024830152929a509186918391604491839160081c89165af1908115611c58579084918c91611c26575b5098908b90611a55565b809250868092503d8311611c51575b611c3f818361185a565b8101031261176a575183906001611c1c565b503d611c35565b86513d8d823e3d90fd5b60248d634e487b7160e01b81526011600452fd5b8c81556119ea565b5050600c919394508095969250528181208054808510611ccf575b50508151938185528401528201527f1fd2e466982404121834498ff574c408f6bc78e2a56db572a408961b908d567e60603392a2565b6000198101908111611cfe5790611082611cec611cf79383611792565b5061107c8784611792565b3880611c99565b602483634e487b7160e01b81526011600452fd5b803b156101fc57819060248551809481937f7cf241420000000000000000000000000000000000000000000000000000000083523360048401525af1801561164c57611d60575b879061198a565b611d6c90979197611814565b9538611d59565b6084848351907f761cd4920000000000000000000000000000000000000000000000000000000082526004820152602e60248201527f50656e64696e67207769746864726177616c207368617265732065786365656460448201527f20746f74616c207368617265732e0000000000000000000000000000000000006064820152fd5b6044908351907f5000bd6d0000000000000000000000000000000000000000000000000000000082526004820152426024820152fd5b836044918451916336e22d2f60e21b835260048301526024820152fd5b600e548015611e6e57600d546103e719810190811161188957611e6b92612a98565b90565b5090565b9190820180921161188957565b356001600160a01b038116810361176a5790565b611ea560608201356020830135611e72565b9081156124435760c081013582116124085760c0810135612079575b7f0000000000000000000000000000000000000000000000000000000000000000916001600160a01b03906040517f70a082310000000000000000000000000000000000000000000000000000000081523060048201526020816024818689165afa801561206d578291600091612038575b5010611fce57600e548111611fc357611f4e90600e5461187c565b600e555b6020820135611fa7575b606082013515159081611f90575b50611f73575050565b611f8e91611f88604060608401359301611e7f565b90612a43565b565b9050611f9e60408301611e7f565b16151538611f6a565b611fbe6020830135611fb884611e7f565b85612a43565b611f5c565b506000600e55611f52565b608460405162461bcd60e51b815260206004820152602e60248201527f43503a205061796f7574206661696c65642c20696e73756666696369656e742060448201527f66756e64732067617468657265640000000000000000000000000000000000006064820152fd5b9150506020813d602011612065575b816120546020938361185a565b8101031261176a5781905138611f33565b3d9150612047565b6040513d6000823e3d90fd5b91600460206001600160a01b0360025416604051928380927f5c9244af0000000000000000000000000000000000000000000000000000000082525afa90811561206d576000916123c6575b50906120d960608501356020860135611e72565b9060005b6120ea6080870187612b4c565b90508110156123bc5761210a8161210460a0890189612b4c565b90612b82565b3580156123b3576121219060c08801359085612a98565b9081156123aa576001600160a01b036121496121448361210460808c018c612b4c565b611e7f565b604051627b8a6760e11b81526004810185905230602482015291169060009060208160448185875af1829181612376575b5061236b5750817f4801b3b9794e8c30779294162ed70e5f040142d8b4c0a2a52d6b80c3abea1e3460c060405160408152600860408201527f7769746864726177000000000000000000000000000000000000000000000000606082015260806020820152600f60808201527f7769746864726177206661696c6564000000000000000000000000000000000060a0820152a26040517fdbf0f3e2000000000000000000000000000000000000000000000000000000008152306004820152602481018590526000919060208160448186885af1839181612337575b5061232f575b5081156122be5750600193505b80612278575b50505b016120dd565b81600052600f9081602052604060002054906000918181116000146122b6576122a1925061187c565b915b600052602052604060002055388061226f565b5050916122a3565b90506001600160a01b03871693843b1561176a576000946024869260405197889384927f9b154aea00000000000000000000000000000000000000000000000000000000845260048401525af193841561206d57600194612320575b50612269565b61232990611814565b3861231a565b91503861225c565b9091506020813d602011612363575b816123536020938361185a565b81010312610f8957519038612256565b3d9150612346565b905060019350612269565b9091506020813d6020116123a2575b816123926020938361185a565b810103126102a35751903861217a565b3d9150612385565b60019150612272565b50600190612272565b5093915050611ec1565b6020813d602011612400575b816123df6020938361185a565b810103126101fc5751906001600160a01b03821682036102d85750386120c5565b3d91506123d2565b9060c0604492604051927f6f6c5fd2000000000000000000000000000000000000000000000000000000008452600484015201356024820152fd5b5050565b91908015612687576001600160a01b039283811691600094838652600b6020526040928387209160028084019384549486861061266a57908a918154612498896124928a8285612a98565b9961187c565b82556124a689600d5461187c565b600d5587808210612660576124ba9161187c565b82555b54156125b2575b5050506005541680612505575b50507fcf52412fa8f88b797d270e43006ec3fecc27d4ad9070638c55f66873befcbfa89394955082519182526020820152a2565b87906125108561268c565b90803b156102a35786517fb41ab3980000000000000000000000000000000000000000000000000000000081526001600160a01b0394909416600485015260248401919091528290604490829084905af180156125a8577fcf52412fa8f88b797d270e43006ec3fecc27d4ad9070638c55f66873befcbfa895969750612599575b8695946124d1565b6125a290611814565b38612591565b84513d89823e3d90fd5b55868952600b6020526125d9868a2060036000918281558260018201558260028201550155565b600c6020528589208054908a8155816125f5575b8a91506124c4565b6001907f7fffffffffffffffffffffffffffffffffffffffffffffffffffffffffffffff8316830361264c578b5260208b209160011b8201915b82811061263c57506125ed565b808c8592558c838201550161262f565b60248c634e487b7160e01b81526011600452fd5b50508282556124bd565b604487878a519163658ec5dd60e11b835260048301526024820152fd5b509050565b600d546103e88111156126b8576103e71981019081116118895780156126b857600e54611e6b92612a98565b5050600090565b906001600160a01b038092166000928184526020906009825260409160ff8387205416156129815782517f119faeb300000000000000000000000000000000000000000000000000000000815260049082818381895afa88918161294e575b5061272d575050505050509050565b858852600f8352848820549081811161274c575b505050505050509050565b9261275d819392612781969561187c565b8651627b8a6760e11b81528381019182523060208301529586918291604090910190565b03818b8a5af19384156128a157889461291f575b5083151580612913575b6127aa575b80612741565b858852600a8252848820549283156128ab578890878252600f8452868220547f0000000000000000000000000000000000000000000000000000000000000000936127f9888483541687612a43565b8281541692833b1561060d57879360849386928c5198899788967ffc9675420000000000000000000000000000000000000000000000000000000088528701521660248501528a604485015260648401525af180156128a1577ff343dfc1e44c65296fb907b287e6e12133eb7945ba79ec463d65ef129757c2ff96979850612892575b508351928352820152a2803880808080806127a4565b61289b90611814565b3861287c565b85513d8a823e3d90fd5b5060849185519162461bcd60e51b8352820152602360248201527f43503a2052657761726420706f6f6c20666f722061646170746572206e6f742060448201527f73657400000000000000000000000000000000000000000000000000000000006064820152fd5b5082815416151561279f565b9093508181813d8311612947575b612937818361185a565b8101031261164157519238612795565b503d61292d565b9091508381813d831161297a575b612966818361185a565b810103126129765751903861271e565b8880fd5b503d61295c565b60649083519062461bcd60e51b82526004820152601660248201527f43503a2041646170746572206e6f7420616374697665000000000000000000006044820152fd5b6001600160a01b036001541633036129d857565b60246040517f118cdaa7000000000000000000000000000000000000000000000000000000008152336004820152fd5b600260005414612a19576002600055565b60046040517f3ee5aeb5000000000000000000000000000000000000000000000000000000008152fd5b6040517fa9059cbb0000000000000000000000000000000000000000000000000000000060208201526001600160a01b03929092166024830152604480830193909352918152611f8e91610cc260648361185a565b90916000198383099280830292838086109503948086039514612b285784831115612b0f579082910981600003821680920460028082600302188083028203028083028203028083028203028083028203028083028203028092029003029360018380600003040190848311900302920304170290565b82634e487b71600052156003026011186020526024601cfd5b505080925015612b36570490565b634e487b7160e01b600052601260045260246000fd5b903590601e198136030182121561176a570180359067ffffffffffffffff821161176a57602001918160051b3603831361176a57565b91908110156117ae5760051b0190565b600d546103e719810190811161188957600e549081158015612bc2575b15612bb957505090565b611e6b92612a98565b508015612baf565b906000602091828151910182855af11561206d576000513d612c3557506001600160a01b0381163b155b612bfb5750565b6024906001600160a01b03604051917f5274afe7000000000000000000000000000000000000000000000000000000008352166004820152fd5b60011415612bf456fea26469706673582212209a2426817abfc2b8e106f45717c2adf2810ba190aee6d7ebe5b2a2ef13a54e5364736f6c63430008160033",
  "linkReferences": {},
  "deployedLinkReferences": {}
}