{
  "_format": "hh-sol-artifact-1",
  "contractName": "ClaimsCollateralManager",
  "sourceName": "contracts/core/ClaimsCollateralManager.sol",
  "abi": [
    {
      "inputs": [
        {
          "internalType": "address",
          "name": "_riskManagerAddress",
          "type": "address"
        },
        {
          "internalType": "address",
          "name": "_initialOwner",
          "type": "address"
        }
      ],
      "stateMutability": "nonpayable",
      "type": "constructor"
    },
    {
      "inputs": [],
      "name": "AlreadyClaimed",
      "type": "error"
    },
    {
      "inputs": [],
      "name": "InvalidInput",
      "type": "error"
    },
    {
      "inputs": [],
      "name": "NoCollateralToClaim",
      "type": "error"
    },
    {
      "inputs": [],
      "name": "NotRiskManager",
      "type": "error"
    },
    {
      "inputs": [
        {
          "internalType": "address",
          "name": "owner",
          "type": "address"
        }
      ],
      "name": "OwnableInvalidOwner",
      "type": "error"
    },
    {
      "inputs": [
        {
          "internalType": "address",
          "name": "account",
          "type": "address"
        }
      ],
      "name": "OwnableUnauthorizedAccount",
      "type": "error"
    },
    {
      "inputs": [],
      "name": "ReentrancyGuardReentrantCall",
      "type": "error"
    },
    {
      "inputs": [
        {
          "internalType": "address",
          "name": "token",
          "type": "address"
        }
      ],
      "name": "SafeERC20FailedOperation",
      "type": "error"
    },
    {
      "inputs": [],
      "name": "ZeroAddress",
      "type": "error"
    },
    {
      "anonymous": false,
      "inputs": [
        {
          "indexed": true,
          "internalType": "uint256",
          "name": "claimId",
          "type": "uint256"
        },
        {
          "indexed": true,
          "internalType": "address",
          "name": "underwriter",
          "type": "address"
        },
        {
          "indexed": false,
          "internalType": "uint256",
          "name": "amount",
          "type": "uint256"
        }
      ],
      "name": "CollateralClaimed",
      "type": "event"
    },
    {
      "anonymous": false,
      "inputs": [
        {
          "indexed": true,
          "internalType": "uint256",
          "name": "claimId",
          "type": "uint256"
        },
        {
          "indexed": true,
          "internalType": "address",
          "name": "collateralAsset",
          "type": "address"
        },
        {
          "indexed": false,
          "internalType": "uint256",
          "name": "amount",
          "type": "uint256"
        }
      ],
      "name": "CollateralDeposited",
      "type": "event"
    },
    {
      "anonymous": false,
      "inputs": [
        {
          "indexed": true,
          "internalType": "address",
          "name": "previousOwner",
          "type": "address"
        },
        {
          "indexed": true,
          "internalType": "address",
          "name": "newOwner",
          "type": "address"
        }
      ],
      "name": "OwnershipTransferred",
      "type": "event"
    },
    {
      "anonymous": false,
      "inputs": [
        {
          "indexed": true,
          "internalType": "address",
          "name": "newRiskManager",
          "type": "address"
        }
      ],
      "name": "RiskManagerSet",
      "type": "event"
    },
    {
      "inputs": [
        {
          "internalType": "uint256",
          "name": "claimId",
          "type": "uint256"
        }
      ],
      "name": "claimCollateral",
      "outputs": [],
      "stateMutability": "nonpayable",
      "type": "function"
    },
    {
      "inputs": [
        {
          "internalType": "uint256",
          "name": "",
          "type": "uint256"
        }
      ],
      "name": "claims",
      "outputs": [
        {
          "internalType": "address",
          "name": "collateralAsset",
          "type": "address"
        },
        {
          "internalType": "uint256",
          "name": "totalAmount",
          "type": "uint256"
        },
        {
          "internalType": "uint256",
          "name": "totalCapitalProvided",
          "type": "uint256"
        }
      ],
      "stateMutability": "view",
      "type": "function"
    },
    {
      "inputs": [
        {
          "internalType": "uint256",
          "name": "claimId",
          "type": "uint256"
        },
        {
          "internalType": "address",
          "name": "collateralAsset",
          "type": "address"
        },
        {
          "internalType": "uint256",
          "name": "amount",
          "type": "uint256"
        },
        {
          "internalType": "address[]",
          "name": "underwriters",
          "type": "address[]"
        },
        {
          "internalType": "uint256[]",
          "name": "capitalProvided",
          "type": "uint256[]"
        }
      ],
      "name": "depositCollateral",
      "outputs": [],
      "stateMutability": "nonpayable",
      "type": "function"
    },
    {
      "inputs": [
        {
          "internalType": "uint256",
          "name": "claimId",
          "type": "uint256"
        },
        {
          "internalType": "address",
          "name": "underwriter",
          "type": "address"
        }
      ],
      "name": "getUnderwriterClaimStatus",
      "outputs": [
        {
          "internalType": "uint256",
          "name": "amount",
          "type": "uint256"
        },
        {
          "internalType": "bool",
          "name": "hasClaimed",
          "type": "bool"
        }
      ],
      "stateMutability": "view",
      "type": "function"
    },
    {
      "inputs": [],
      "name": "owner",
      "outputs": [
        {
          "internalType": "address",
          "name": "",
          "type": "address"
        }
      ],
      "stateMutability": "view",
      "type": "function"
    },
    {
      "inputs": [],
      "name": "renounceOwnership",
      "outputs": [],
      "stateMutability": "nonpayable",
      "type": "function"
    },
    {
      "inputs": [],
      "name": "riskManagerAddress",
      "outputs": [
        {
          "internalType": "address",
          "name": "",
          "type": "address"
        }
      ],
      "stateMutability": "view",
      "type": "function"
    },
    {
      "inputs": [
        {
          "internalType": "address",
          "name": "_newRiskManagerAddress",
          "type": "address"
        }
      ],
      "name": "setRiskManager",
      "outputs": [],
      "stateMutability": "nonpayable",
      "type": "function"
    },
    {
      "inputs": [
        {
          "internalType": "address",
          "name": "newOwner",
          "type": "address"
        }
      ],
      "name": "transferOwnership",
      "outputs": [],
      "stateMutability": "nonpayable",
      "type": "function"
    }
  ],
  "bytecode": "0x60803461011e57601f610b3738819003918201601f19168301916001600160401b0383118484101761012357808492604094855283398101031261011e5780610049602092610139565b6001600160a01b0392909183916100609101610139565b16801561010557600080546001600160a01b031980821684178355604051929592949093909183167f8be0079c531659141344cd1fd0a4f28419497f9722a3daafe3b4186f6b6457e08780a360018055169182156100f65750819060025416176002557f95329fb8cf31c0dda21532344c24159acccf2f795f93c87a30ac6d3ddb9d03d66040519280a26109e9908161014e8239f35b63d92e233d60e01b8152600490fd5b604051631e4fbdf760e01b815260006004820152602490fd5b600080fd5b634e487b7160e01b600052604160045260246000fd5b51906001600160a01b038216820361011e5756fe608080604052600436101561001357600080fd5b60003560e01c90816337eca66f1461075c5750806362ca8460146106bc578063715018a6146106565780638b99099a146103655780638da5cb5b1461033e578063a888c2cd146102f2578063c49785b414610167578063e02e6847146101335763f2fde38b1461008257600080fd5b3461012e57602036600319011261012e5761009b610780565b6100a36108b4565b6001600160a01b038091169081156100fd576000548273ffffffffffffffffffffffffffffffffffffffff19821617600055167f8be0079c531659141344cd1fd0a4f28419497f9722a3daafe3b4186f6b6457e0600080a3005b60246040517f1e4fbdf700000000000000000000000000000000000000000000000000000000815260006004820152fd5b600080fd5b3461012e57604036600319011261012e576040610159610151610796565b600435610836565b825191825215156020820152f35b3461012e57602036600319011261012e576004356101836108f8565b8060005260036020526040600020903360005260038201602052604060002080549081156102c8576001019081549060ff821661029e576101e09260016101d59360ff19161790556001850154610803565b600284015490610816565b918261021a575b506040519182527fccd631c6a824eeaa91ba67065a44b5c5bc5aa9575248e5fd34144c665470fc3260203393a360018055005b6001600160a01b039054166040517fa9059cbb00000000000000000000000000000000000000000000000000000000602082015233602482015283604482015260448152608081019181831067ffffffffffffffff8411176102885761028292604052610933565b826101e7565b634e487b7160e01b600052604160045260246000fd5b60046040517f646cf558000000000000000000000000000000000000000000000000000000008152fd5b60046040517ffc9f68a9000000000000000000000000000000000000000000000000000000008152fd5b3461012e57602036600319011261012e576004356000526003602052606060406000206001600160a01b0381541690600260018201549101549060405192835260208301526040820152f35b3461012e57600036600319011261012e5760206001600160a01b0360005416604051908152f35b3461012e5760a036600319011261012e5761037e610796565b67ffffffffffffffff60643581811161012e5761039f9036906004016107ac565b60849291923582811161012e576103ba9036906004016107ac565b6001600160a01b0360029592955416330361062d576103d76108f8565b6001600160a01b038616158015610623575b8015610619575b8015610611575b6105e75760043560005260036020526040600020936001600160a01b03855416610589576040517f23b872dd00000000000000000000000000000000000000000000000000000000602082015233602482015230604482015260443560648201526064815260a081019181831090831117610288576104879160409795949397526001600160a01b038816610933565b6001600160a01b03861673ffffffffffffffffffffffffffffffffffffffff1985541617845560443560018501556000946000935b83851061050b57878760028801556001600160a01b0360405191604435835216907feec2f3feb835e2f2fd44281034b04700a1ddda63dd402949d470a25a7c40b36c602060043592a360018055005b909192939561051b8784846107dd565b356105278887876107dd565b356001600160a01b038116810361012e576001600160a01b03166000526003870160205260406000205561055c8784846107dd565b3581018091116105735795600101939291906104bc565b634e487b7160e01b600052601160045260246000fd5b60646040517f08c379a000000000000000000000000000000000000000000000000000000000815260206004820152601460248201527f436c61696d20616c7265616479206578697374730000000000000000000000006044820152fd5b60046040517fb4fa3fb3000000000000000000000000000000000000000000000000000000008152fd5b5082156103f7565b50808314156103f0565b50604435156103e9565b60046040517ece6460000000000000000000000000000000000000000000000000000000008152fd5b3461012e57600036600319011261012e5761066f6108b4565b60006001600160a01b03815473ffffffffffffffffffffffffffffffffffffffff1981168355167f8be0079c531659141344cd1fd0a4f28419497f9722a3daafe3b4186f6b6457e08280a3005b3461012e57602036600319011261012e576001600160a01b036106dd610780565b6106e56108b4565b168015610732578073ffffffffffffffffffffffffffffffffffffffff1960025416176002557f95329fb8cf31c0dda21532344c24159acccf2f795f93c87a30ac6d3ddb9d03d6600080a2005b60046040517fd92e233d000000000000000000000000000000000000000000000000000000008152fd5b3461012e57600036600319011261012e576020906001600160a01b03600254168152f35b600435906001600160a01b038216820361012e57565b602435906001600160a01b038216820361012e57565b9181601f8401121561012e5782359167ffffffffffffffff831161012e576020808501948460051b01011161012e57565b91908110156107ed5760051b0190565b634e487b7160e01b600052603260045260246000fd5b8181029291811591840414171561057357565b8115610820570490565b634e487b7160e01b600052601260045260246000fd5b91909160005260036020526001600160a01b0360406000209216600052600382016020526040600020918254801580156108a8575b6108965761088f8260026108866001948560ff970154610803565b91015490610816565b9301541690565b505090600160ff910154169060009190565b5060028201541561086b565b6001600160a01b036000541633036108c857565b60246040517f118cdaa7000000000000000000000000000000000000000000000000000000008152336004820152fd5b600260015414610909576002600155565b60046040517f3ee5aeb5000000000000000000000000000000000000000000000000000000008152fd5b906000602091828151910182855af1156109a7576000513d61099e57506001600160a01b0381163b155b6109645750565b6024906001600160a01b03604051917f5274afe7000000000000000000000000000000000000000000000000000000008352166004820152fd5b6001141561095d565b6040513d6000823e3d90fdfea2646970667358221220e9d7a2cd6fd48c83117d801aa26d2da9954335950cdc09150574697603f9f8fa64736f6c63430008160033",
  "linkReferences": {},
  "deployedLinkReferences": {}
}