{
  "_format": "hh-sol-artifact-1",
  "contractName": "Committee",
  "sourceName": "contracts/governance/Committee.sol",
  "abi": [
    {
      "inputs": [
        {
          "internalType": "address",
          "name": "_riskManagerAddress",
          "type": "address"
        },
        {
          "internalType": "address",
          "name": "_stakingContractAddress",
          "type": "address"
        },
        {
          "internalType": "uint256",
          "name": "_votingPeriod",
          "type": "uint256"
        },
        {
          "internalType": "uint256",
          "name": "_challengePeriod",
          "type": "uint256"
        },
        {
          "internalType": "uint256",
          "name": "_quorumBps",
          "type": "uint256"
        },
        {
          "internalType": "uint256",
          "name": "_slashPercentageBps",
          "type": "uint256"
        }
      ],
      "stateMutability": "nonpayable",
      "type": "constructor"
    },
    {
      "inputs": [],
      "name": "FailedCall",
      "type": "error"
    },
    {
      "inputs": [
        {
          "internalType": "uint256",
          "name": "balance",
          "type": "uint256"
        },
        {
          "internalType": "uint256",
          "name": "needed",
          "type": "uint256"
        }
      ],
      "name": "InsufficientBalance",
      "type": "error"
    },
    {
      "inputs": [
        {
          "internalType": "address",
          "name": "owner",
          "type": "address"
        }
      ],
      "name": "OwnableInvalidOwner",
      "type": "error"
    },
    {
      "inputs": [
        {
          "internalType": "address",
          "name": "account",
          "type": "address"
        }
      ],
      "name": "OwnableUnauthorizedAccount",
      "type": "error"
    },
    {
      "inputs": [],
      "name": "ReentrancyGuardReentrantCall",
      "type": "error"
    },
    {
      "inputs": [
        {
          "internalType": "address",
          "name": "token",
          "type": "address"
        }
      ],
      "name": "SafeERC20FailedOperation",
      "type": "error"
    },
    {
      "anonymous": false,
      "inputs": [
        {
          "indexed": true,
          "internalType": "uint256",
          "name": "proposalId",
          "type": "uint256"
        },
        {
          "indexed": false,
          "internalType": "bool",
          "name": "wasSlashed",
          "type": "bool"
        }
      ],
      "name": "BondResolved",
      "type": "event"
    },
    {
      "anonymous": false,
      "inputs": [
        {
          "indexed": true,
          "internalType": "address",
          "name": "previousOwner",
          "type": "address"
        },
        {
          "indexed": true,
          "internalType": "address",
          "name": "newOwner",
          "type": "address"
        }
      ],
      "name": "OwnershipTransferred",
      "type": "event"
    },
    {
      "anonymous": false,
      "inputs": [
        {
          "indexed": true,
          "internalType": "uint256",
          "name": "proposalId",
          "type": "uint256"
        },
        {
          "indexed": true,
          "internalType": "address",
          "name": "proposer",
          "type": "address"
        },
        {
          "indexed": false,
          "internalType": "uint256",
          "name": "poolId",
          "type": "uint256"
        },
        {
          "indexed": false,
          "internalType": "enum Committee.ProposalType",
          "name": "pType",
          "type": "uint8"
        }
      ],
      "name": "ProposalCreated",
      "type": "event"
    },
    {
      "anonymous": false,
      "inputs": [
        {
          "indexed": true,
          "internalType": "uint256",
          "name": "proposalId",
          "type": "uint256"
        }
      ],
      "name": "ProposalExecuted",
      "type": "event"
    },
    {
      "anonymous": false,
      "inputs": [
        {
          "indexed": true,
          "internalType": "uint256",
          "name": "proposalId",
          "type": "uint256"
        },
        {
          "indexed": true,
          "internalType": "address",
          "name": "user",
          "type": "address"
        },
        {
          "indexed": false,
          "internalType": "uint256",
          "name": "amount",
          "type": "uint256"
        }
      ],
      "name": "RewardClaimed",
      "type": "event"
    },
    {
      "anonymous": false,
      "inputs": [
        {
          "indexed": true,
          "internalType": "uint256",
          "name": "proposalId",
          "type": "uint256"
        },
        {
          "indexed": true,
          "internalType": "address",
          "name": "voter",
          "type": "address"
        },
        {
          "indexed": false,
          "internalType": "enum Committee.VoteOption",
          "name": "vote",
          "type": "uint8"
        },
        {
          "indexed": false,
          "internalType": "uint256",
          "name": "weight",
          "type": "uint256"
        }
      ],
      "name": "Voted",
      "type": "event"
    },
    {
      "inputs": [
        {
          "internalType": "uint256",
          "name": "",
          "type": "uint256"
        }
      ],
      "name": "activeProposalForPool",
      "outputs": [
        {
          "internalType": "bool",
          "name": "",
          "type": "bool"
        }
      ],
      "stateMutability": "view",
      "type": "function"
    },
    {
      "inputs": [],
      "name": "challengePeriod",
      "outputs": [
        {
          "internalType": "uint256",
          "name": "",
          "type": "uint256"
        }
      ],
      "stateMutability": "view",
      "type": "function"
    },
    {
      "inputs": [
        {
          "internalType": "uint256",
          "name": "proposalId",
          "type": "uint256"
        }
      ],
      "name": "claimReward",
      "outputs": [],
      "stateMutability": "nonpayable",
      "type": "function"
    },
    {
      "inputs": [
        {
          "internalType": "uint256",
          "name": "poolId",
          "type": "uint256"
        },
        {
          "internalType": "enum Committee.ProposalType",
          "name": "pType",
          "type": "uint8"
        },
        {
          "internalType": "uint256",
          "name": "bondAmount",
          "type": "uint256"
        }
      ],
      "name": "createProposal",
      "outputs": [
        {
          "internalType": "uint256",
          "name": "",
          "type": "uint256"
        }
      ],
      "stateMutability": "nonpayable",
      "type": "function"
    },
    {
      "inputs": [
        {
          "internalType": "uint256",
          "name": "proposalId",
          "type": "uint256"
        }
      ],
      "name": "executeProposal",
      "outputs": [],
      "stateMutability": "nonpayable",
      "type": "function"
    },
    {
      "inputs": [],
      "name": "governanceToken",
      "outputs": [
        {
          "internalType": "contract IERC20",
          "name": "",
          "type": "address"
        }
      ],
      "stateMutability": "view",
      "type": "function"
    },
    {
      "inputs": [
        {
          "internalType": "uint256",
          "name": "",
          "type": "uint256"
        },
        {
          "internalType": "address",
          "name": "",
          "type": "address"
        }
      ],
      "name": "hasClaimedReward",
      "outputs": [
        {
          "internalType": "bool",
          "name": "",
          "type": "bool"
        }
      ],
      "stateMutability": "view",
      "type": "function"
    },
    {
      "inputs": [
        {
          "internalType": "uint256",
          "name": "proposalId",
          "type": "uint256"
        }
      ],
      "name": "isProposalFinalized",
      "outputs": [
        {
          "internalType": "bool",
          "name": "",
          "type": "bool"
        }
      ],
      "stateMutability": "view",
      "type": "function"
    },
    {
      "inputs": [],
      "name": "maxBondAmount",
      "outputs": [
        {
          "internalType": "uint256",
          "name": "",
          "type": "uint256"
        }
      ],
      "stateMutability": "view",
      "type": "function"
    },
    {
      "inputs": [],
      "name": "maxProposerFeeBps",
      "outputs": [
        {
          "internalType": "uint256",
          "name": "",
          "type": "uint256"
        }
      ],
      "stateMutability": "view",
      "type": "function"
    },
    {
      "inputs": [],
      "name": "minBondAmount",
      "outputs": [
        {
          "internalType": "uint256",
          "name": "",
          "type": "uint256"
        }
      ],
      "stateMutability": "view",
      "type": "function"
    },
    {
      "inputs": [],
      "name": "minProposerFeeBps",
      "outputs": [
        {
          "internalType": "uint256",
          "name": "",
          "type": "uint256"
        }
      ],
      "stateMutability": "view",
      "type": "function"
    },
    {
      "inputs": [],
      "name": "owner",
      "outputs": [
        {
          "internalType": "address",
          "name": "",
          "type": "address"
        }
      ],
      "stateMutability": "view",
      "type": "function"
    },
    {
      "inputs": [],
      "name": "proposalCounter",
      "outputs": [
        {
          "internalType": "uint256",
          "name": "",
          "type": "uint256"
        }
      ],
      "stateMutability": "view",
      "type": "function"
    },
    {
      "inputs": [
        {
          "internalType": "uint256",
          "name": "",
          "type": "uint256"
        }
      ],
      "name": "proposals",
      "outputs": [
        {
          "internalType": "uint256",
          "name": "id",
          "type": "uint256"
        },
        {
          "internalType": "enum Committee.ProposalType",
          "name": "pType",
          "type": "uint8"
        },
        {
          "internalType": "address",
          "name": "proposer",
          "type": "address"
        },
        {
          "internalType": "uint256",
          "name": "poolId",
          "type": "uint256"
        },
        {
          "internalType": "uint256",
          "name": "creationTime",
          "type": "uint256"
        },
        {
          "internalType": "uint256",
          "name": "votingDeadline",
          "type": "uint256"
        },
        {
          "internalType": "uint256",
          "name": "forVotes",
          "type": "uint256"
        },
        {
          "internalType": "uint256",
          "name": "againstVotes",
          "type": "uint256"
        },
        {
          "internalType": "enum Committee.ProposalStatus",
          "name": "status",
          "type": "uint8"
        },
        {
          "internalType": "uint256",
          "name": "bondAmount",
          "type": "uint256"
        },
        {
          "internalType": "uint256",
          "name": "proposerFeeShareBps",
          "type": "uint256"
        },
        {
          "internalType": "uint256",
          "name": "challengeDeadline",
          "type": "uint256"
        },
        {
          "internalType": "uint256",
          "name": "totalRewardFees",
          "type": "uint256"
        }
      ],
      "stateMutability": "view",
      "type": "function"
    },
    {
      "inputs": [],
      "name": "quorumBps",
      "outputs": [
        {
          "internalType": "uint256",
          "name": "",
          "type": "uint256"
        }
      ],
      "stateMutability": "view",
      "type": "function"
    },
    {
      "inputs": [
        {
          "internalType": "uint256",
          "name": "proposalId",
          "type": "uint256"
        }
      ],
      "name": "receiveFees",
      "outputs": [],
      "stateMutability": "payable",
      "type": "function"
    },
    {
      "inputs": [],
      "name": "renounceOwnership",
      "outputs": [],
      "stateMutability": "nonpayable",
      "type": "function"
    },
    {
      "inputs": [
        {
          "internalType": "uint256",
          "name": "proposalId",
          "type": "uint256"
        }
      ],
      "name": "resolvePauseBond",
      "outputs": [],
      "stateMutability": "nonpayable",
      "type": "function"
    },
    {
      "inputs": [],
      "name": "riskManager",
      "outputs": [
        {
          "internalType": "contract IRiskManager",
          "name": "",
          "type": "address"
        }
      ],
      "stateMutability": "view",
      "type": "function"
    },
    {
      "inputs": [],
      "name": "slashPercentageBps",
      "outputs": [
        {
          "internalType": "uint256",
          "name": "",
          "type": "uint256"
        }
      ],
      "stateMutability": "view",
      "type": "function"
    },
    {
      "inputs": [],
      "name": "stakingContract",
      "outputs": [
        {
          "internalType": "contract IStakingContract",
          "name": "",
          "type": "address"
        }
      ],
      "stateMutability": "view",
      "type": "function"
    },
    {
      "inputs": [
        {
          "internalType": "address",
          "name": "newOwner",
          "type": "address"
        }
      ],
      "name": "transferOwnership",
      "outputs": [],
      "stateMutability": "nonpayable",
      "type": "function"
    },
    {
      "inputs": [
        {
          "internalType": "address",
          "name": "voter",
          "type": "address"
        },
        {
          "internalType": "uint256",
          "name": "proposalId",
          "type": "uint256"
        },
        {
          "internalType": "uint256",
          "name": "newWeight",
          "type": "uint256"
        }
      ],
      "name": "updateVoteWeight",
      "outputs": [],
      "stateMutability": "nonpayable",
      "type": "function"
    },
    {
      "inputs": [
        {
          "internalType": "uint256",
          "name": "proposalId",
          "type": "uint256"
        },
        {
          "internalType": "enum Committee.VoteOption",
          "name": "voteOption",
          "type": "uint8"
        }
      ],
      "name": "vote",
      "outputs": [],
      "stateMutability": "nonpayable",
      "type": "function"
    },
    {
      "inputs": [],
      "name": "votingPeriod",
      "outputs": [
        {
          "internalType": "uint256",
          "name": "",
          "type": "uint256"
        }
      ],
      "stateMutability": "view",
      "type": "function"
    }
  ],
  "bytecode": "0x610160604090808252346200025d5760c081620020cb803803809162000026828562000262565b8339810103126200025d576200003c816200029c565b916020906200004d8284016200029c565b918184015160608501519560a06080870151960151943315620002455760008054336001600160a01b03198216811783558751946001600160a01b03948893879360049385938993909284929183167f8be0079c531659141344cd1fd0a4f28419497f9722a3daafe3b4186f6b6457e08b80a360018055166080521660a0819052637cb6d70560e11b82525afa92831562000239578193620001f0575b50505060c05260e0526101009485526101209384526127108311620001ba57506101409182525191611e199384620002b2853960805184818161104801528181611513015281816116500152611802015260a051848181610297015281816107f201528181610b46015281816113590152611a7b015260c05184818161016101528181610d48015281816111650152611307015260e051848181610c2f01526118a10152518381816101a001526114e70152518281816102d301526113a30152518181816103b601526114450152f35b606491519062461bcd60e51b825260048201526011602482015270496e76616c696420736c6173682062707360781b6044820152fd5b909192508481813d831162000231575b6200020c818362000262565b810103126200022d575191821682036200022a5750388080620000ea565b80fd5b5080fd5b503d62000200565b508551903d90823e3d90fd5b8451631e4fbdf760e01b815260006004820152602490fd5b600080fd5b601f909101601f19168101906001600160401b038211908210176200028657604052565b634e487b7160e01b600052604160045260246000fd5b51906001600160a01b03821682036200025d5756fe608060408181526004918236101561001657600080fd5b600092833560e01c918263013cf08b146118c45750816302a251a3146118895781630420592e146117ea5781630c0512e9146117cb5781630d61b519146112b2578163221a3f8c1461128e57816337cf7534146110905781633912f71f1461106c578163478426631461102857816350554c911461100b578163623eeb9c14610fde578163715018a614610f775781637320f85714610eeb57816387e0bdd714610af35781638da5cb5b14610acd578163943e821614610786578163ae169a50146103d9578163ae7ba6001461039e578163bb3e340d14610362578163bf65a00d14610345578163c8b727a1146102f6578163cd2ddd0c146102bb578163ee99205c14610277578163f2fde38b146101c357508063f3f480d9146101895763f96dae0a1461014357600080fd5b34610185578160031936011261018557602090516001600160a01b037f0000000000000000000000000000000000000000000000000000000000000000168152f35b5080fd5b5034610185578160031936011261018557602090517f00000000000000000000000000000000000000000000000000000000000000008152f35b905034610273576020366003190112610273576101de6119ca565b906101e7611cac565b6001600160a01b038092169283156102445750506000548273ffffffffffffffffffffffffffffffffffffffff19821617600055167f8be0079c531659141344cd1fd0a4f28419497f9722a3daafe3b4186f6b6457e0600080a380f35b908460249251917f1e4fbdf7000000000000000000000000000000000000000000000000000000008352820152fd5b8280fd5b505034610185578160031936011261018557602090516001600160a01b037f0000000000000000000000000000000000000000000000000000000000000000168152f35b505034610185578160031936011261018557602090517f00000000000000000000000000000000000000000000000000000000000000008152f35b905034610273578160031936011261027357602435906001600160a01b0382168092036103405760209381849235825285522090600052825260ff81600020541690519015158152f35b600080fd5b505034610185578160031936011261018557602090516109c48152f35b833461039b57606036600319011261039b5761039461037f6119ca565b610387611c15565b6044359060243590611a6f565b6001805580f35b80fd5b505034610185578160031936011261018557602090517f00000000000000000000000000000000000000000000000000000000000000008152f35b9190503461027357602080600319360112610782578235916103f9611c15565b8285526003825280852060ff600782015416600781101561076f578560068214918215610765575b50501561072357600b810154156106e157600c903360005201825260ff81600020541660038110156106ce576002036106675782855283825280852033600052825260ff816000205416610626578285526003825280852093600b8501546104b361049e61271061049660098a015485611a4f565b048093611a62565b33600052600d88018652846000205490611a4f565b6005870154908115610611576001600160a01b03916001910497015460081c163314610600575b5083865280835281862033600052835281600020600160ff198254161790558447106105cb578580808088335af1903d156105c3573d9167ffffffffffffffff83116105b057835192610536601f8201601f1916870185611a2d565b83523d888685013e5b15610577575050907f24b5efa61dd1cfc659205a97fb8ed868f3cb8c81922bab2b96423e5de1de2cb791519384523393a36001805580f35b8151919290911561058a57505080519101fd5b517fd6bda275000000000000000000000000000000000000000000000000000000008152fd5b602488604184634e487b7160e01b835252fd5b60609161053f565b84604492479051927fcf4791810000000000000000000000000000000000000000000000000000000084528301526024820152fd5b61060a91956119e0565b93386104da565b601284634e487b7160e01b6000525260246000fd5b5162461bcd60e51b81529283015250601660248201527f52657761726420616c726561647920636c61696d6564000000000000000000006044820152606490fd5b5162461bcd60e51b81529283015250602660248201527f4d757374206861766520766f7465642027466f722720746f20636c61696d207260448201527f65776172647300000000000000000000000000000000000000000000000000006064820152608490fd5b602486602187634e487b7160e01b835252fd5b6064858484519162461bcd60e51b8352820152601360248201527f4e6f207265776172647320746f20636c61696d000000000000000000000000006044820152fd5b6064858484519162461bcd60e51b8352820152601560248201527f50726f706f73616c206e6f74207265736f6c76656400000000000000000000006044820152fd5b1490508538610421565b602487602188634e487b7160e01b835252fd5b8380fd5b83833461018557806003193601126101855782356024938435926003841015610ac9576107b1611c15565b828552602091600383528186209060ff6007830154166007811015610ab757600103610a765780820154421015610a355785156109f4576001600160a01b037f000000000000000000000000000000000000000000000000000000000000000016835192636021726760e01b8452338385015285848b81855afa9384156109ea5789946109bb575b50600c81013360005280875260ff86600020541691600d81019283895287600020549060038110156109a9578c9695949392919060028103610984575061088560058301918254611a62565b90555b60028b0361096f5760050161089e8782546119e0565b90555b3360005287528560002060ff1981541660ff8b161790558652838560002055803b156102735784517fa446b9000000000000000000000000000000000000000000000000000000000081523392810192835260208301889052918391839182908490829060400103925af180156109655761094d575b50507f2635c84c3a8027a303ca6d6e90b1c4a9604754040372414d244aadfa647175189282519586528501523393a36001805580f35b61095690611a03565b610961578587610917565b8580fd5b84513d84823e3d90fd5b60060161097d8782546119e0565b90556108a1565b600114610992575b50610888565b6109a160068301918254611a62565b90558c61098c565b8d8d602189634e487b7160e01b835252fd5b9093508581813d83116109e3575b6109d38183611a2d565b810103126103405751928a610839565b503d6109c9565b85513d8b823e3d90fd5b6064906013898686519362461bcd60e51b85528401528201527f496e76616c696420766f7465206f7074696f6e000000000000000000000000006044820152fd5b606490600c898686519362461bcd60e51b85528401528201527f566f74696e6720656e64656400000000000000000000000000000000000000006044820152fd5b6064906013898686519362461bcd60e51b85528401528201527f50726f706f73616c206e6f7420616374697665000000000000000000000000006044820152fd5b8888602184634e487b7160e01b835252fd5b8480fd5b5050346101855781600319360112610185576001600160a01b0360209254169051908152f35b83833461018557606036600319011261018557602492803584356002811015610ac9576044803593610b23611c15565b855197636021726760e01b895233828a0152602098898183816001600160a01b037f0000000000000000000000000000000000000000000000000000000000000000165afa908115610ee1578991610eb4575b5015610e75578488526005895260ff8789205416610e36576001958487148015610def57683635c9adc5dea0000082101580610ddc575b15610d9b575b6002546000198114610d8957888a91019a8b6002558b815260038d528181208c81558a810180548b600284015560ff8b16903360081b74ffffffffffffffffffffffffffffffffffffffff0016907fffffffffffffffffffffff00000000000000000000000000000000000000000016171790554260038201557f00000000000000000000000000000000000000000000000000000000000000004290610c59916119e0565b8782015560070160ff19908b828254161790558d8a8352600590528a838320918254161790558b815260038d522090610cd2575b5050505050610ca4908451928352868301906119a7565b837ff16b365c40425cb2ff270f6ebe353a31cb7a9b8b2b4f922e3a91fbede11a6e6d843393a3805551908152f35b8160088201556009610ce383611d70565b9101558751937f23b872dd000000000000000000000000000000000000000000000000000000008b8601523383860152309085015260648401526064835260a083019183831067ffffffffffffffff841117610d76575050610ca49291610d6c9187527f0000000000000000000000000000000000000000000000000000000000000000611cf0565b9087808080610c8d565b604190634e487b7160e01b600052526000fd5b838b601187634e487b7160e01b835252fd5b5050606492600c7f496e76616c696420626f6e640000000000000000000000000000000000000000928b8a519562461bcd60e51b8752860152840152820152fd5b5068878678326eac900000821115610bad565b8115610bb357505060649260137f4e6f20626f6e6420666f7220756e706175736500000000000000000000000000928b8a519562461bcd60e51b8752860152840152820152fd5b60649260177f50726f706f73616c20616c726561647920657869737473000000000000000000928b8a519562461bcd60e51b8752860152840152820152fd5b60649260107f4d7573742062652061207374616b657200000000000000000000000000000000928b8a519562461bcd60e51b8752860152840152820152fd5b90508981813d8311610eda575b610ecb8183611a2d565b8101031261034057518a610b76565b503d610ec1565b88513d8b823e3d90fd5b919050346102735760203660031901126102735781358352600360205260ff60078285200154169260078410159283610f575760038514938415610f6a575b8415610f3d575b60208585519015158152f35b9091929350610f5757505060066020921490388080610f31565b906021602492634e487b7160e01b835252fd5b5084811493506000610f2a565b833461039b578060031936011261039b57610f90611cac565b60006001600160a01b03815473ffffffffffffffffffffffffffffffffffffffff1981168355167f8be0079c531659141344cd1fd0a4f28419497f9722a3daafe3b4186f6b6457e08280a380f35b905034610273576020366003190112610273578160209360ff923581526005855220541690519015158152f35b505034610185578160031936011261018557602090516103e88152f35b505034610185578160031936011261018557602090516001600160a01b037f0000000000000000000000000000000000000000000000000000000000000000168152f35b50503461018557816003193601126101855760209051683635c9adc5dea000008152f35b83833461018557602080600319360112610273578335916110af611c15565b82845260038252808420600181019060ff825416600281101561127b5760010361123957600781019687549060ff82166007811015611226576005036111e457600a83015442106111a257507fef282958cf5ec1f6990080dfe04af90d296e76c847df8e2f2b9ebc5458c55e2b959697600660ff198093161790556002820154885260058552838820908154169055600b8101541515600014611195576001600160a01b03600861118993549201549160081c167f0000000000000000000000000000000000000000000000000000000000000000611c50565b51848152a26001805580f35b50505160018152a2610394565b6064908686519162461bcd60e51b8352820152601960248201527f4368616c6c656e676520706572696f64206e6f74206f766572000000000000006044820152fd5b6064908686519162461bcd60e51b8352820152601660248201527f4e6f7420696e206368616c6c656e6765207068617365000000000000000000006044820152fd5b602489602184634e487b7160e01b835252fd5b6064878585519162461bcd60e51b8352820152601460248201527f4e6f7420612070617573652070726f706f73616c0000000000000000000000006044820152fd5b60248760218a634e487b7160e01b835252fd5b5050346101855781600319360112610185576020905168878678326eac9000008152f35b9190503461027357602080600319360112610782578235916112d2611c15565b82855260038252808520600781019485549060ff821696600788101561122657600180980361176357818401544210611721577f0000000000000000000000000000000000000000000000000000000000000000946001600160a01b03968151947f70a08231000000000000000000000000000000000000000000000000000000008652887f0000000000000000000000000000000000000000000000000000000000000000168587015260249982878c818d8d165afa8015611717578d906116e4575b6113c897506127109788917f000000000000000000000000000000000000000000000000000000000000000090611a4f565b0460058901549060068a0154906113df82846119e0565b109182156116d9575b5050156114a657505060059060ff199360038582541617905560028701548c52528920908154169055868301549560ff87169160028310156114955750508614611437575b5050505050805580f35b60086114719201549061146a7f000000000000000000000000000000000000000000000000000000000000000083611a4f565b0490611a62565b918261147e575b8061142d565b61148c9360081c1690611c50565b38808080611478565b60218a91634e487b7160e01b835252fd5b989392969495509a9998965060ff89850154169a60028c10156116c757898b9c9b999a9b14600014611628575050805460ff1916600517905560029061150c7f0000000000000000000000000000000000000000000000000000000000000000426119e0565b600a8401557f00000000000000000000000000000000000000000000000000000000000000001691018054823b15611624578451906331e28e5560e01b8252848201528886820152868160448183875af1801561161a57908791611606575b50505490803b1561096157859283604492865197889586947f762c4b0f00000000000000000000000000000000000000000000000000000000865285015230908401525af19081156115fd57506115e9575b50505b7f712ae1383f79ac853f8d882153778e0260ef8f03b504e2866e0593e04d2b291f8380a2805580f35b6115f290611a03565b6102735782386115bd565b513d84823e3d90fd5b61160f90611a03565b61096157853861156b565b85513d89823e3d90fd5b8680fd5b91600591946002918760ff9b999a9b19809616179055019384548752528585209081541690557f000000000000000000000000000000000000000000000000000000000000000016905491813b15610782578360449281875198899687956331e28e5560e01b87528601528401525af19081156116be57506116ab575b506115c0565b6116b790939193611a03565b91386116a5565b513d86823e3d90fd5b878b602188634e487b7160e01b835252fd5b1115905038806113e8565b508287813d8311611710575b6116fa8183611a2d565b8101031261170c576113c89651611396565b8c80fd5b503d6116f0565b84513d8f823e3d90fd5b6064828787519162461bcd60e51b8352820152600f60248201527f566f74696e67206e6f74206f76657200000000000000000000000000000000006044820152fd5b6084828787519162461bcd60e51b8352820152602160248201527f50726f706f73616c206e6f742061637469766520666f7220657865637574696f60448201527f6e000000000000000000000000000000000000000000000000000000000000006064820152fd5b5050346101855781600319360112610185576020906002549051908152f35b90506020366003190112610273576001600160a01b037f00000000000000000000000000000000000000000000000000000000000000001633036118475790600b9135835260036020528220016118423482546119e0565b905580f35b6020606492519162461bcd60e51b8352820152601a60248201527f436f6d6d69747465653a204e6f74205269736b4d616e616765720000000000006044820152fd5b505034610185578160031936011261018557602090517f00000000000000000000000000000000000000000000000000000000000000008152f35b83853461039b57602036600319011261039b5783358152600360205281812090815492600183015491600284015490600385015488860154600587015490600688015492600789015460ff169560088a01549760098b0154998d600a8d01549c600b01549d815260200160ff82169061193c916119a7565b60081c6001600160a01b0316908d015260608c015260808b015260a08a015260c089015260e0880152600782101561199457506101a09650610100860152610120850152610140840152610160830152610180820152f35b80602189634e487b7160e01b6024945252fd5b9060028210156119b45752565b634e487b7160e01b600052602160045260246000fd5b600435906001600160a01b038216820361034057565b919082018092116119ed57565b634e487b7160e01b600052601160045260246000fd5b67ffffffffffffffff8111611a1757604052565b634e487b7160e01b600052604160045260246000fd5b90601f8019910116810190811067ffffffffffffffff821117611a1757604052565b818102929181159184041417156119ed57565b919082039182116119ed57565b906001600160a01b03807f0000000000000000000000000000000000000000000000000000000000000000163303611bd15760009182526003602052604082209260ff6007850154166007811015611bbd57600114801590611baf575b611b94571691828252600c810160205260ff604083205416926003841015611b9b578315611b9457600d820191818452826020526040842054868114611b8b57604095600203611b64578681811115611b4457611b2e611b3892600592611a62565b92019182546119e0565b90555b82526020522055565b611b53600591611b5d93611a62565b9201918254611a62565b9055611b3b565b8681811115611b7c57611b2e611b5d92600692611a62565b611b53600691611b5d93611a62565b50505050505050565b5050505050565b602483634e487b7160e01b81526021600452fd5b506004840154421015611acc565b602484634e487b7160e01b81526021600452fd5b606460405162461bcd60e51b815260206004820152601460248201527f4e6f74207374616b696e6720636f6e74726163740000000000000000000000006044820152fd5b600260015414611c26576002600155565b60046040517f3ee5aeb5000000000000000000000000000000000000000000000000000000008152fd5b6040517fa9059cbb0000000000000000000000000000000000000000000000000000000060208201526001600160a01b03929092166024830152604480830193909352918152611caa91611ca5606483611a2d565b611cf0565b565b6001600160a01b03600054163303611cc057565b60246040517f118cdaa7000000000000000000000000000000000000000000000000000000008152336004820152fd5b906000602091828151910182855af115611d64576000513d611d5b57506001600160a01b0381163b155b611d215750565b6024906001600160a01b03604051917f5274afe7000000000000000000000000000000000000000000000000000000008352166004820152fd5b60011415611d1a565b6040513d6000823e3d90fd5b683635c9adc5dea00000811115611ddc5768878678326eac900000811015611dd557683635c9adc5de9fffff1981019081116119ed576105dc908181029181830414901517156119ed57685150ae84a8cdf000006103e8910481018091116119ed5790565b506109c490565b506103e89056fea26469706673582212203ef15f624865dad04022b618a12b67c564a41952534ec58fed402a4f817fdea364736f6c63430008160033",
  "linkReferences": {},
  "deployedLinkReferences": {}
}