{
  "_format": "hh-sol-artifact-1",
  "contractName": "LossDistributor",
  "sourceName": "contracts/utils/LossDistributor.sol",
  "abi": [
    {
      "inputs": [
        {
          "internalType": "address",
          "name": "_riskManagerAddress",
          "type": "address"
        }
      ],
      "stateMutability": "nonpayable",
      "type": "constructor"
    },
    {
      "inputs": [
        {
          "internalType": "address",
          "name": "owner",
          "type": "address"
        }
      ],
      "name": "OwnableInvalidOwner",
      "type": "error"
    },
    {
      "inputs": [
        {
          "internalType": "address",
          "name": "account",
          "type": "address"
        }
      ],
      "name": "OwnableUnauthorizedAccount",
      "type": "error"
    },
    {
      "inputs": [],
      "name": "ZeroAddress",
      "type": "error"
    },
    {
      "anonymous": false,
      "inputs": [
        {
          "indexed": true,
          "internalType": "address",
          "name": "previousOwner",
          "type": "address"
        },
        {
          "indexed": true,
          "internalType": "address",
          "name": "newOwner",
          "type": "address"
        }
      ],
      "name": "OwnershipTransferred",
      "type": "event"
    },
    {
      "anonymous": false,
      "inputs": [
        {
          "indexed": true,
          "internalType": "address",
          "name": "newRiskManager",
          "type": "address"
        }
      ],
      "name": "RiskManagerAddressSet",
      "type": "event"
    },
    {
      "inputs": [],
      "name": "PRECISION_FACTOR",
      "outputs": [
        {
          "internalType": "uint256",
          "name": "",
          "type": "uint256"
        }
      ],
      "stateMutability": "view",
      "type": "function"
    },
    {
      "inputs": [
        {
          "internalType": "uint256",
          "name": "poolId",
          "type": "uint256"
        },
        {
          "internalType": "uint256",
          "name": "lossAmount",
          "type": "uint256"
        },
        {
          "internalType": "uint256",
          "name": "totalPledgeInPool",
          "type": "uint256"
        }
      ],
      "name": "distributeLoss",
      "outputs": [],
      "stateMutability": "nonpayable",
      "type": "function"
    },
    {
      "inputs": [
        {
          "internalType": "address",
          "name": "user",
          "type": "address"
        },
        {
          "internalType": "uint256",
          "name": "poolId",
          "type": "uint256"
        },
        {
          "internalType": "uint256",
          "name": "userPledge",
          "type": "uint256"
        }
      ],
      "name": "getPendingLosses",
      "outputs": [
        {
          "internalType": "uint256",
          "name": "",
          "type": "uint256"
        }
      ],
      "stateMutability": "view",
      "type": "function"
    },
    {
      "inputs": [],
      "name": "owner",
      "outputs": [
        {
          "internalType": "address",
          "name": "",
          "type": "address"
        }
      ],
      "stateMutability": "view",
      "type": "function"
    },
    {
      "inputs": [
        {
          "internalType": "uint256",
          "name": "",
          "type": "uint256"
        }
      ],
      "name": "poolLossTrackers",
      "outputs": [
        {
          "internalType": "uint256",
          "name": "accumulatedLossPerShare",
          "type": "uint256"
        }
      ],
      "stateMutability": "view",
      "type": "function"
    },
    {
      "inputs": [
        {
          "internalType": "address",
          "name": "user",
          "type": "address"
        },
        {
          "internalType": "uint256",
          "name": "poolId",
          "type": "uint256"
        },
        {
          "internalType": "uint256",
          "name": "userPledge",
          "type": "uint256"
        }
      ],
      "name": "realizeLosses",
      "outputs": [
        {
          "internalType": "uint256",
          "name": "",
          "type": "uint256"
        }
      ],
      "stateMutability": "nonpayable",
      "type": "function"
    },
    {
      "inputs": [],
      "name": "renounceOwnership",
      "outputs": [],
      "stateMutability": "nonpayable",
      "type": "function"
    },
    {
      "inputs": [],
      "name": "riskManager",
      "outputs": [
        {
          "internalType": "address",
          "name": "",
          "type": "address"
        }
      ],
      "stateMutability": "view",
      "type": "function"
    },
    {
      "inputs": [
        {
          "internalType": "address",
          "name": "newRiskManager",
          "type": "address"
        }
      ],
      "name": "setRiskManager",
      "outputs": [],
      "stateMutability": "nonpayable",
      "type": "function"
    },
    {
      "inputs": [
        {
          "internalType": "address",
          "name": "newOwner",
          "type": "address"
        }
      ],
      "name": "transferOwnership",
      "outputs": [],
      "stateMutability": "nonpayable",
      "type": "function"
    },
    {
      "inputs": [
        {
          "internalType": "address",
          "name": "",
          "type": "address"
        },
        {
          "internalType": "uint256",
          "name": "",
          "type": "uint256"
        }
      ],
      "name": "userLossStates",
      "outputs": [
        {
          "internalType": "uint256",
          "name": "lossDebt",
          "type": "uint256"
        }
      ],
      "stateMutability": "view",
      "type": "function"
    }
  ],
  "bytecode": "0x6080346100df57601f61074138819003918201601f19168301916001600160401b038311848410176100e4578084926020946040528339810103126100df57516001600160a01b03808216918290036100df5733156100c6576000549060018060a01b0319913383821617600055604051913391167f8be0079c531659141344cd1fd0a4f28419497f9722a3daafe3b4186f6b6457e0600080a382156100b75750600154161760015560405161064690816100fb8239f35b63d92e233d60e01b8152600490fd5b604051631e4fbdf760e01b815260006004820152602490fd5b600080fd5b634e487b7160e01b600052604160045260246000fdfe60806040818152600436101561001457600080fd5b600091823560e01c9081632625339e146103cc57508063304717b714610348578063478426631461032157806353856533146102e557806362ca846014610243578063715018a6146101da5780638da5cb5b146101b55780639c94267914610193578063ccd34cd514610171578063d852849c146101495763f2fde38b1461009b57600080fd5b34610145576020366003190112610145576100b461040d565b6100bc6105cc565b6001600160a01b03809116918215610115575082548273ffffffffffffffffffffffffffffffffffffffff198216178455167f8be0079c531659141344cd1fd0a4f28419497f9722a3daafe3b4186f6b6457e08380a380f35b8360249151907f1e4fbdf70000000000000000000000000000000000000000000000000000000082526004820152fd5b5080fd5b5034610145576020366003190112610145578060209260043581526002845220549051908152f35b503461014557816003193601126101455760209051670de0b6b3a76400008152f35b5034610145576020906101ae6101a836610428565b91610578565b9051908152f35b50346101455781600319360112610145576001600160a01b0360209254169051908152f35b82346102405780600319360112610240576101f36105cc565b806001600160a01b03815473ffffffffffffffffffffffffffffffffffffffff1981168355167f8be0079c531659141344cd1fd0a4f28419497f9722a3daafe3b4186f6b6457e08280a380f35b80fd5b5034610145576020366003190112610145576001600160a01b0361026561040d565b61026d6105cc565b169081156102bc57508073ffffffffffffffffffffffffffffffffffffffff1960015416176001557fdfd2967b9417925459cd79ae13c6dec37092beff03f9cd8ed4c3e687fe93d2e48280a280f35b600490517fd92e233d000000000000000000000000000000000000000000000000000000008152fd5b82346102405760603660031901126102405761030d6001600160a01b03600154163314610452565b61031e6044356024356004356104e0565b80f35b50346101455781600319360112610145576020906001600160a01b03600154169051908152f35b5034610145579060209161035b36610428565b9093916001600160a01b039161037683600154163314610452565b610381818784610578565b9586610391575b87878751908152f35b670de0b6b3a7640000936103bf931685526003885285852090855287528480852094600289522054906104b7565b0490553880808080610388565b919050346104095780600319360112610409576020926001600160a01b036103f261040d565b168152600384528181206024358252845220548152f35b8280fd5b600435906001600160a01b038216820361042357565b600080fd5b6060906003190112610423576004356001600160a01b038116810361042357906024359060443590565b1561045957565b60646040517f08c379a000000000000000000000000000000000000000000000000000000000815260206004820152601360248201527f4c443a204e6f74205269736b4d616e61676572000000000000000000000000006044820152fd5b818102929181159184041417156104ca57565b634e487b7160e01b600052601160045260246000fd5b919091821591828015610570575b61056a57600091825260026020526040822092670de0b6b3a76400008086029586041417156105565780156105425782549304830180931161052e575055565b80634e487b7160e01b602492526011600452fd5b602482634e487b7160e01b81526012600452fd5b602482634e487b7160e01b81526011600452fd5b50505050565b5080156104ee565b916105bc670de0b6b3a76400009160009380855260026020526001600160a01b036040862096168552600360205260408520908552602052604084209454906104b7565b049154820391821161052e575090565b6001600160a01b036000541633036105e057565b60246040517f118cdaa7000000000000000000000000000000000000000000000000000000008152336004820152fdfea264697066735822122017d768fe691e0a815b13cda21029d2aea1e8bd6776a9624eabe06dc7c455305a64736f6c63430008160033",
  "linkReferences": {},
  "deployedLinkReferences": {}
}