{
  "_format": "hh-sol-artifact-1",
  "contractName": "MulticallReader",
  "sourceName": "contracts/utils/MulticallReader.sol",
  "abi": [
    {
      "inputs": [
        {
          "components": [
            {
              "internalType": "address",
              "name": "target",
              "type": "address"
            },
            {
              "internalType": "bytes",
              "name": "callData",
              "type": "bytes"
            }
          ],
          "internalType": "struct MulticallReader.Call[]",
          "name": "calls",
          "type": "tuple[]"
        }
      ],
      "name": "aggregate",
      "outputs": [
        {
          "internalType": "uint256",
          "name": "blockNumber",
          "type": "uint256"
        },
        {
          "internalType": "bytes[]",
          "name": "returnData",
          "type": "bytes[]"
        }
      ],
      "stateMutability": "view",
      "type": "function"
    },
    {
      "inputs": [],
      "name": "getBlockNumber",
      "outputs": [
        {
          "internalType": "uint256",
          "name": "",
          "type": "uint256"
        }
      ],
      "stateMutability": "view",
      "type": "function"
    },
    {
      "inputs": [],
      "name": "getCurrentBlockTimestamp",
      "outputs": [
        {
          "internalType": "uint256",
          "name": "",
          "type": "uint256"
        }
      ],
      "stateMutability": "view",
      "type": "function"
    },
    {
      "inputs": [
        {
          "internalType": "bool",
          "name": "requireSuccess",
          "type": "bool"
        },
        {
          "components": [
            {
              "internalType": "address",
              "name": "target",
              "type": "address"
            },
            {
              "internalType": "bytes",
              "name": "callData",
              "type": "bytes"
            }
          ],
          "internalType": "struct MulticallReader.Call[]",
          "name": "calls",
          "type": "tuple[]"
        }
      ],
      "name": "tryAggregate",
      "outputs": [
        {
          "components": [
            {
              "internalType": "bool",
              "name": "success",
              "type": "bool"
            },
            {
              "internalType": "bytes",
              "name": "returnData",
              "type": "bytes"
            }
          ],
          "internalType": "struct MulticallReader.Result[]",
          "name": "results",
          "type": "tuple[]"
        }
      ],
      "stateMutability": "view",
      "type": "function"
    }
  ],
  "bytecode": "0x60808060405234610016576105d7908161001c8239f35b600080fdfe6080604090808252600436101561001557600080fd5b600090813560e01c9081630f28c97d1461035c57508063252dba421461020b57806342cbb15c146101f05763bce38bd71461004f57600080fd5b346101ed57816003193601126101ed5760043580151581036101e95760243567ffffffffffffffff81116101e55761008b903690600401610376565b61009f61009a82959395610448565b610422565b928184526100ac82610448565b60209590601f190186855b8281106101c657505050835b83811061013b575050505083519280840190808552835180925285850181878460051b880101950193965b8388106100fb5786860387f35b9091929394838061012a600193603f198b820301875285838b51805115158452015191818582015201906103ac565b9701930197019690939291936100ee565b80858061015361014e6001958988610460565b610498565b8b61016b610162868b8a610460565b8d8101906104b9565b8092519283928337810184815203915afa846101856104ec565b906101b8575b6101936103ec565b9115158252898201526101a6828961058d565b526101b1818861058d565b50016100c3565b6101c182610528565b61018b565b6101ce6103ec565b87815260608382015282828a0101520187906100b7565b8280fd5b5080fd5b80fd5b5090346101e957816003193601126101e95760209051438152f35b5090346101e957602090816003193601126101e55760043567ffffffffffffffff81116103585761024184913690600401610376565b61025061009a82949394610448565b9281845261025d82610448565b601f1901835b818110610349575050825b8281106102d8575050508251928084019043855285850152825180915260608401948060608360051b870101940192955b8287106102ac5785850386f35b9091929382806102c8600193605f198a820301865288516103ac565b960192019601959291909261029f565b8084806102ef61014e60019588889d9c9a9d610460565b6103066102fd858989610460565b8b8101906104b9565b90818a519283928337810184815203915afa6103296103236104ec565b91610528565b610333828861058d565b5261033e818761058d565b50019592949561026e565b60608682018901528701610263565b8380fd5b9050346101e957816003193601126101e957602090428152f35b9181601f840112156103a75782359167ffffffffffffffff83116103a7576020808501948460051b0101116103a757565b600080fd5b919082519283825260005b8481106103d8575050826000602080949584010152601f8019910116010190565b6020818301810151848301820152016103b7565b604051906040820182811067ffffffffffffffff82111761040c57604052565b634e487b7160e01b600052604160045260246000fd5b6040519190601f01601f1916820167ffffffffffffffff81118382101761040c57604052565b67ffffffffffffffff811161040c5760051b60200190565b91908110156104825760051b81013590603e19813603018212156103a7570190565b634e487b7160e01b600052603260045260246000fd5b3573ffffffffffffffffffffffffffffffffffffffff811681036103a75790565b903590601e19813603018212156103a7570180359067ffffffffffffffff82116103a7576020019181360383136103a757565b3d15610523573d9067ffffffffffffffff821161040c57610516601f8301601f1916602001610422565b9182523d6000602084013e565b606090565b1561052f57565b60646040517f08c379a000000000000000000000000000000000000000000000000000000000815260206004820152601660248201527f4d756c746963616c6c3a2063616c6c206661696c6564000000000000000000006044820152fd5b80518210156104825760209160051b01019056fea264697066735822122027f9318e155127d850f494073617a0db7914779fe20d6b2cc8d96dfe4ee72c0d64736f6c63430008160033",
  "linkReferences": {},
  "deployedLinkReferences": {}
}