{
  "_format": "hh-sol-artifact-1",
  "contractName": "PolicyNFT",
  "sourceName": "contracts/tokens/PolicyNFT.sol",
  "abi": [
    {
      "inputs": [
        {
          "internalType": "address",
          "name": "_initialPolicyManager",
          "type": "address"
        },
        {
          "internalType": "address",
          "name": "initialOwner",
          "type": "address"
        }
      ],
      "stateMutability": "nonpayable",
      "type": "constructor"
    },
    {
      "inputs": [
        {
          "internalType": "address",
          "name": "sender",
          "type": "address"
        },
        {
          "internalType": "uint256",
          "name": "tokenId",
          "type": "uint256"
        },
        {
          "internalType": "address",
          "name": "owner",
          "type": "address"
        }
      ],
      "name": "ERC721IncorrectOwner",
      "type": "error"
    },
    {
      "inputs": [
        {
          "internalType": "address",
          "name": "operator",
          "type": "address"
        },
        {
          "internalType": "uint256",
          "name": "tokenId",
          "type": "uint256"
        }
      ],
      "name": "ERC721InsufficientApproval",
      "type": "error"
    },
    {
      "inputs": [
        {
          "internalType": "address",
          "name": "approver",
          "type": "address"
        }
      ],
      "name": "ERC721InvalidApprover",
      "type": "error"
    },
    {
      "inputs": [
        {
          "internalType": "address",
          "name": "operator",
          "type": "address"
        }
      ],
      "name": "ERC721InvalidOperator",
      "type": "error"
    },
    {
      "inputs": [
        {
          "internalType": "address",
          "name": "owner",
          "type": "address"
        }
      ],
      "name": "ERC721InvalidOwner",
      "type": "error"
    },
    {
      "inputs": [
        {
          "internalType": "address",
          "name": "receiver",
          "type": "address"
        }
      ],
      "name": "ERC721InvalidReceiver",
      "type": "error"
    },
    {
      "inputs": [
        {
          "internalType": "address",
          "name": "sender",
          "type": "address"
        }
      ],
      "name": "ERC721InvalidSender",
      "type": "error"
    },
    {
      "inputs": [
        {
          "internalType": "uint256",
          "name": "tokenId",
          "type": "uint256"
        }
      ],
      "name": "ERC721NonexistentToken",
      "type": "error"
    },
    {
      "inputs": [
        {
          "internalType": "address",
          "name": "owner",
          "type": "address"
        }
      ],
      "name": "OwnableInvalidOwner",
      "type": "error"
    },
    {
      "inputs": [
        {
          "internalType": "address",
          "name": "account",
          "type": "address"
        }
      ],
      "name": "OwnableUnauthorizedAccount",
      "type": "error"
    },
    {
      "anonymous": false,
      "inputs": [
        {
          "indexed": true,
          "internalType": "address",
          "name": "owner",
          "type": "address"
        },
        {
          "indexed": true,
          "internalType": "address",
          "name": "approved",
          "type": "address"
        },
        {
          "indexed": true,
          "internalType": "uint256",
          "name": "tokenId",
          "type": "uint256"
        }
      ],
      "name": "Approval",
      "type": "event"
    },
    {
      "anonymous": false,
      "inputs": [
        {
          "indexed": true,
          "internalType": "address",
          "name": "owner",
          "type": "address"
        },
        {
          "indexed": true,
          "internalType": "address",
          "name": "operator",
          "type": "address"
        },
        {
          "indexed": false,
          "internalType": "bool",
          "name": "approved",
          "type": "bool"
        }
      ],
      "name": "ApprovalForAll",
      "type": "event"
    },
    {
      "anonymous": false,
      "inputs": [
        {
          "indexed": false,
          "internalType": "uint256",
          "name": "_fromTokenId",
          "type": "uint256"
        },
        {
          "indexed": false,
          "internalType": "uint256",
          "name": "_toTokenId",
          "type": "uint256"
        }
      ],
      "name": "BatchMetadataUpdate",
      "type": "event"
    },
    {
      "anonymous": false,
      "inputs": [
        {
          "indexed": false,
          "internalType": "uint256",
          "name": "_tokenId",
          "type": "uint256"
        }
      ],
      "name": "MetadataUpdate",
      "type": "event"
    },
    {
      "anonymous": false,
      "inputs": [
        {
          "indexed": true,
          "internalType": "address",
          "name": "previousOwner",
          "type": "address"
        },
        {
          "indexed": true,
          "internalType": "address",
          "name": "newOwner",
          "type": "address"
        }
      ],
      "name": "OwnershipTransferred",
      "type": "event"
    },
    {
      "anonymous": false,
      "inputs": [
        {
          "indexed": true,
          "internalType": "uint256",
          "name": "policyId",
          "type": "uint256"
        }
      ],
      "name": "PolicyBurned",
      "type": "event"
    },
    {
      "anonymous": false,
      "inputs": [
        {
          "indexed": true,
          "internalType": "uint256",
          "name": "policyId",
          "type": "uint256"
        },
        {
          "indexed": false,
          "internalType": "uint256",
          "name": "newTotalCoverage",
          "type": "uint256"
        }
      ],
      "name": "PolicyCoverageIncreased",
      "type": "event"
    },
    {
      "anonymous": false,
      "inputs": [
        {
          "indexed": true,
          "internalType": "address",
          "name": "newPolicyManagerAddress",
          "type": "address"
        }
      ],
      "name": "PolicyManagerAddressSet",
      "type": "event"
    },
    {
      "anonymous": false,
      "inputs": [
        {
          "indexed": true,
          "internalType": "address",
          "name": "owner",
          "type": "address"
        },
        {
          "indexed": true,
          "internalType": "uint256",
          "name": "policyId",
          "type": "uint256"
        }
      ],
      "name": "PolicyMinted",
      "type": "event"
    },
    {
      "anonymous": false,
      "inputs": [
        {
          "indexed": true,
          "internalType": "uint256",
          "name": "policyId",
          "type": "uint256"
        },
        {
          "indexed": false,
          "internalType": "uint128",
          "name": "newDeposit",
          "type": "uint128"
        },
        {
          "indexed": false,
          "internalType": "uint128",
          "name": "newDrainTime",
          "type": "uint128"
        }
      ],
      "name": "PolicyPremiumAccountUpdated",
      "type": "event"
    },
    {
      "anonymous": false,
      "inputs": [
        {
          "indexed": true,
          "internalType": "uint256",
          "name": "policyId",
          "type": "uint256"
        }
      ],
      "name": "PolicyUpdated",
      "type": "event"
    },
    {
      "anonymous": false,
      "inputs": [
        {
          "indexed": true,
          "internalType": "address",
          "name": "newRiskManagerAddress",
          "type": "address"
        }
      ],
      "name": "RiskManagerAddressSet",
      "type": "event"
    },
    {
      "anonymous": false,
      "inputs": [
        {
          "indexed": true,
          "internalType": "address",
          "name": "from",
          "type": "address"
        },
        {
          "indexed": true,
          "internalType": "address",
          "name": "to",
          "type": "address"
        },
        {
          "indexed": true,
          "internalType": "uint256",
          "name": "tokenId",
          "type": "uint256"
        }
      ],
      "name": "Transfer",
      "type": "event"
    },
    {
      "inputs": [
        {
          "internalType": "address",
          "name": "to",
          "type": "address"
        },
        {
          "internalType": "uint256",
          "name": "tokenId",
          "type": "uint256"
        }
      ],
      "name": "approve",
      "outputs": [],
      "stateMutability": "nonpayable",
      "type": "function"
    },
    {
      "inputs": [
        {
          "internalType": "address",
          "name": "owner",
          "type": "address"
        }
      ],
      "name": "balanceOf",
      "outputs": [
        {
          "internalType": "uint256",
          "name": "",
          "type": "uint256"
        }
      ],
      "stateMutability": "view",
      "type": "function"
    },
    {
      "inputs": [
        {
          "internalType": "uint256",
          "name": "id",
          "type": "uint256"
        }
      ],
      "name": "burn",
      "outputs": [],
      "stateMutability": "nonpayable",
      "type": "function"
    },
    {
      "inputs": [
        {
          "internalType": "uint256",
          "name": "id",
          "type": "uint256"
        },
        {
          "internalType": "uint256",
          "name": "totalAmountToAdd",
          "type": "uint256"
        }
      ],
      "name": "finalizeIncreases",
      "outputs": [],
      "stateMutability": "nonpayable",
      "type": "function"
    },
    {
      "inputs": [
        {
          "internalType": "uint256",
          "name": "tokenId",
          "type": "uint256"
        }
      ],
      "name": "getApproved",
      "outputs": [
        {
          "internalType": "address",
          "name": "",
          "type": "address"
        }
      ],
      "stateMutability": "view",
      "type": "function"
    },
    {
      "inputs": [
        {
          "internalType": "uint256",
          "name": "id",
          "type": "uint256"
        }
      ],
      "name": "getPolicy",
      "outputs": [
        {
          "components": [
            {
              "internalType": "uint256",
              "name": "coverage",
              "type": "uint256"
            },
            {
              "internalType": "uint256",
              "name": "poolId",
              "type": "uint256"
            },
            {
              "internalType": "uint256",
              "name": "start",
              "type": "uint256"
            },
            {
              "internalType": "uint256",
              "name": "activation",
              "type": "uint256"
            },
            {
              "internalType": "uint128",
              "name": "premiumDeposit",
              "type": "uint128"
            },
            {
              "internalType": "uint128",
              "name": "lastDrainTime",
              "type": "uint128"
            }
          ],
          "internalType": "struct IPolicyNFT.Policy",
          "name": "",
          "type": "tuple"
        }
      ],
      "stateMutability": "view",
      "type": "function"
    },
    {
      "inputs": [
        {
          "internalType": "address",
          "name": "owner",
          "type": "address"
        },
        {
          "internalType": "address",
          "name": "operator",
          "type": "address"
        }
      ],
      "name": "isApprovedForAll",
      "outputs": [
        {
          "internalType": "bool",
          "name": "",
          "type": "bool"
        }
      ],
      "stateMutability": "view",
      "type": "function"
    },
    {
      "inputs": [
        {
          "internalType": "address",
          "name": "to",
          "type": "address"
        },
        {
          "internalType": "uint256",
          "name": "pid",
          "type": "uint256"
        },
        {
          "internalType": "uint256",
          "name": "coverage",
          "type": "uint256"
        },
        {
          "internalType": "uint256",
          "name": "activation",
          "type": "uint256"
        },
        {
          "internalType": "uint128",
          "name": "premiumDeposit",
          "type": "uint128"
        },
        {
          "internalType": "uint128",
          "name": "lastDrainTime",
          "type": "uint128"
        }
      ],
      "name": "mint",
      "outputs": [
        {
          "internalType": "uint256",
          "name": "id",
          "type": "uint256"
        }
      ],
      "stateMutability": "nonpayable",
      "type": "function"
    },
    {
      "inputs": [],
      "name": "name",
      "outputs": [
        {
          "internalType": "string",
          "name": "",
          "type": "string"
        }
      ],
      "stateMutability": "view",
      "type": "function"
    },
    {
      "inputs": [],
      "name": "nextId",
      "outputs": [
        {
          "internalType": "uint256",
          "name": "",
          "type": "uint256"
        }
      ],
      "stateMutability": "view",
      "type": "function"
    },
    {
      "inputs": [],
      "name": "owner",
      "outputs": [
        {
          "internalType": "address",
          "name": "",
          "type": "address"
        }
      ],
      "stateMutability": "view",
      "type": "function"
    },
    {
      "inputs": [
        {
          "internalType": "uint256",
          "name": "id",
          "type": "uint256"
        }
      ],
      "name": "ownerOf",
      "outputs": [
        {
          "internalType": "address",
          "name": "",
          "type": "address"
        }
      ],
      "stateMutability": "view",
      "type": "function"
    },
    {
      "inputs": [
        {
          "internalType": "uint256",
          "name": "",
          "type": "uint256"
        }
      ],
      "name": "policies",
      "outputs": [
        {
          "internalType": "uint256",
          "name": "coverage",
          "type": "uint256"
        },
        {
          "internalType": "uint256",
          "name": "poolId",
          "type": "uint256"
        },
        {
          "internalType": "uint256",
          "name": "start",
          "type": "uint256"
        },
        {
          "internalType": "uint256",
          "name": "activation",
          "type": "uint256"
        },
        {
          "internalType": "uint128",
          "name": "premiumDeposit",
          "type": "uint128"
        },
        {
          "internalType": "uint128",
          "name": "lastDrainTime",
          "type": "uint128"
        }
      ],
      "stateMutability": "view",
      "type": "function"
    },
    {
      "inputs": [],
      "name": "policyManagerContract",
      "outputs": [
        {
          "internalType": "address",
          "name": "",
          "type": "address"
        }
      ],
      "stateMutability": "view",
      "type": "function"
    },
    {
      "inputs": [],
      "name": "renounceOwnership",
      "outputs": [],
      "stateMutability": "nonpayable",
      "type": "function"
    },
    {
      "inputs": [],
      "name": "riskManagerContract",
      "outputs": [
        {
          "internalType": "address",
          "name": "",
          "type": "address"
        }
      ],
      "stateMutability": "view",
      "type": "function"
    },
    {
      "inputs": [
        {
          "internalType": "address",
          "name": "from",
          "type": "address"
        },
        {
          "internalType": "address",
          "name": "to",
          "type": "address"
        },
        {
          "internalType": "uint256",
          "name": "tokenId",
          "type": "uint256"
        }
      ],
      "name": "safeTransferFrom",
      "outputs": [],
      "stateMutability": "nonpayable",
      "type": "function"
    },
    {
      "inputs": [
        {
          "internalType": "address",
          "name": "from",
          "type": "address"
        },
        {
          "internalType": "address",
          "name": "to",
          "type": "address"
        },
        {
          "internalType": "uint256",
          "name": "tokenId",
          "type": "uint256"
        },
        {
          "internalType": "bytes",
          "name": "data",
          "type": "bytes"
        }
      ],
      "name": "safeTransferFrom",
      "outputs": [],
      "stateMutability": "nonpayable",
      "type": "function"
    },
    {
      "inputs": [
        {
          "internalType": "address",
          "name": "operator",
          "type": "address"
        },
        {
          "internalType": "bool",
          "name": "approved",
          "type": "bool"
        }
      ],
      "name": "setApprovalForAll",
      "outputs": [],
      "stateMutability": "nonpayable",
      "type": "function"
    },
    {
      "inputs": [
        {
          "internalType": "address",
          "name": "newPolicyManagerAddress",
          "type": "address"
        }
      ],
      "name": "setPolicyManagerAddress",
      "outputs": [],
      "stateMutability": "nonpayable",
      "type": "function"
    },
    {
      "inputs": [
        {
          "internalType": "address",
          "name": "newRiskManagerAddress",
          "type": "address"
        }
      ],
      "name": "setRiskManagerAddress",
      "outputs": [],
      "stateMutability": "nonpayable",
      "type": "function"
    },
    {
      "inputs": [
        {
          "internalType": "bytes4",
          "name": "interfaceId",
          "type": "bytes4"
        }
      ],
      "name": "supportsInterface",
      "outputs": [
        {
          "internalType": "bool",
          "name": "",
          "type": "bool"
        }
      ],
      "stateMutability": "view",
      "type": "function"
    },
    {
      "inputs": [],
      "name": "symbol",
      "outputs": [
        {
          "internalType": "string",
          "name": "",
          "type": "string"
        }
      ],
      "stateMutability": "view",
      "type": "function"
    },
    {
      "inputs": [
        {
          "internalType": "uint256",
          "name": "tokenId",
          "type": "uint256"
        }
      ],
      "name": "tokenURI",
      "outputs": [
        {
          "internalType": "string",
          "name": "",
          "type": "string"
        }
      ],
      "stateMutability": "view",
      "type": "function"
    },
    {
      "inputs": [
        {
          "internalType": "address",
          "name": "from",
          "type": "address"
        },
        {
          "internalType": "address",
          "name": "to",
          "type": "address"
        },
        {
          "internalType": "uint256",
          "name": "tokenId",
          "type": "uint256"
        }
      ],
      "name": "transferFrom",
      "outputs": [],
      "stateMutability": "nonpayable",
      "type": "function"
    },
    {
      "inputs": [
        {
          "internalType": "address",
          "name": "newOwner",
          "type": "address"
        }
      ],
      "name": "transferOwnership",
      "outputs": [],
      "stateMutability": "nonpayable",
      "type": "function"
    },
    {
      "inputs": [
        {
          "internalType": "uint256",
          "name": "id",
          "type": "uint256"
        },
        {
          "internalType": "uint128",
          "name": "newDeposit",
          "type": "uint128"
        },
        {
          "internalType": "uint128",
          "name": "newDrainTime",
          "type": "uint128"
        }
      ],
      "name": "updatePremiumAccount",
      "outputs": [],
      "stateMutability": "nonpayable",
      "type": "function"
    }
  ],
  "bytecode": "0x608034620003ce57601f90601f19906001600160401b0362001ee53881900385810185168401919083831185841017620003b8578085926040948552833981010312620003ce576200005182620003f3565b620000606020809401620003f3565b916200006b620003d3565b956006875265506f6c69637960d01b8588015262000088620003d3565b60068152652821a7ab22a960d11b86820152875195838711620003b85760009687549960019a8b81811c91168015620003ad575b84821014620003995790818684931162000346575b508390868311600114620002dc578a92620002d0575b5050600019600383901b1c1916908a1b1787555b8151938411620002bc578854978989811c99168015620002b1575b828a10146200029d5783891162000254575b878596979899505081938511600114620001ef5750508692620001e3575b5050600019600383901b1c191690851b1784555b6001600160a01b03918216938415620001ca57600780546001600160a01b03198082168817909255604051969195908516907f8be0079c531659141344cd1fd0a4f28419497f9722a3daafe3b4186f6b6457e09080a36008551690600a541617600a55611adc9081620004098239f35b604051631e4fbdf760e01b815260048101859052602490fd5b01519050388062000146565b899593929193168589528389209389905b8282106200023a575050841162000220575b505050811b0184556200015a565b015160001960f88460031b161c1916905538808062000212565b8484015186558b9790950194938401939081019062000200565b89885281882084860160051c81019983871062000292575b850160051c01988a905b8a81106200028657505062000128565b898155018a9062000276565b90995089906200026c565b634e487b7160e01b88526022600452602488fd5b98607f169862000116565b634e487b7160e01b87526041600452602487fd5b015190503880620000e7565b908b8d9416918b8052858c20928c5b878282106200032657505084116200030c575b505050811b018755620000fb565b015160001960f88460031b161c19169055388080620002fe565b91929395968291958786015181550195019301908e9594939291620002eb565b909150898052838a208680850160051c8201928686106200038f575b918e91869594930160051c01915b82811062000380575050620000d1565b8c81558594508e910162000370565b9250819262000362565b634e487b7160e01b8a52602260045260248afd5b90607f1690620000bc565b634e487b7160e01b600052604160045260246000fd5b600080fd5b60408051919082016001600160401b03811183821017620003b857604052565b51906001600160a01b0382168203620003ce5756fe60406080815260048036101561001457600080fd5b600091823560e01c918263012aa6c31461132657826301ffc9a71461123557826306fdde0314611168578263081812fc1461112d578263095ea7b31461103a5782631881401314610fcb57826323b872dd14610fb35782632b07fce314610ede57826331c0191614610dc7578263342edd7e14610a385782633b6eef7814610a1057826342842e0e146109e157826342966c681461081357826361b8ce8c146107f45782636352211e146107c457826370a0823114610756578263715018a6146106fb5782638da5cb5b146106d357826395d89b41146105b9578263a22cb465146104ff578263ab94fa31146104d7578263b88d4fde14610442578263c87b56dd14610323578263d3e89483146102b6578263e985e9c514610264578263f2fde38b146101bd57505063fd067b1b1461014c57600080fd5b346101ba5760203660031901126101ba576001600160a01b0361016d611455565b61017561191b565b1661018181151561169a565b806001600160a01b0319600a541617600a557f96ef4362498b0fa85c8625240e1d0ebcdd2ec5c981849e05d81705ed0720ad478280a280f35b80fd5b90915034610260576020366003190112610260576101d9611455565b906101e261191b565b6001600160a01b03809216928315610231575050600754826001600160a01b0319821617600755167f8be0079c531659141344cd1fd0a4f28419497f9722a3daafe3b4186f6b6457e08380a380f35b908460249251917f1e4fbdf7000000000000000000000000000000000000000000000000000000008352820152fd5b8280fd5b8382346102b257806003193601126102b25760ff81602093610284611455565b61028c611470565b6001600160a01b0391821683526005875283832091168252855220549151911615158152f35b5080fd5b915034610260576020366003190112610260578060c093833581526009602052208054926001820154926002830154916003840154930154938151958652602086015284015260608301526fffffffffffffffffffffffffffffffff8116608083015260801c60a0820152f35b8382346102b25760209081600319360112610260578335610343816118e0565b508352600682528083209281519381908054906001908260011c92600181168015610438575b888510811461042557848a52899594939291899082156103fe5750506001146103c0575b5050506103bc9392916103a1910386611509565b81516103ac816114ed565b5251928284938452830190611415565b0390f35b8552868520879350859291905b8284106103e657505050820101816103a16103bc61038d565b8054848b0186015289955088949093019281016103cd565b60ff19168782015293151560051b860190930193508492506103a191506103bc905061038d565b60248760228d634e487b7160e01b835252fd5b93607f1693610369565b9150346102605760803660031901126102605761045d611455565b610465611470565b60443591856064359567ffffffffffffffff87116102b257366023880112156102b257860135956104a16104988861152b565b96519687611509565b86865236602488830101116102b257866104d49760246020930183890137860101526104ce83838361170b565b3361195f565b80f35b8382346102b257816003193601126102b2576020906001600160a01b03600a54169051908152f35b915034610260578060031936011261026057610519611455565b90602435918215158093036105b5576001600160a01b03169283156105875750338452600560205280842083855260205280842060ff1981541660ff8416179055519081527f17307eab39ab6107e8899845ad3d59bd9653f200f220920489ca2b5937696c3160203392a380f35b8360249251917f5b08ba18000000000000000000000000000000000000000000000000000000008352820152fd5b8480fd5b9083346101ba57806003193601126101ba5781519181600192600154938460011c91600186169586156106c9575b60209687851081146106b6578899509688969785829a52918260001461068f575050600114610633575b5050506103bc9291610624910385611509565b51928284938452830190611415565b9190869350600183527fb10e2d527612073b26eecdfd717e6a320cf44b4afac2b0732d9fcbe2b7fa0cf65b82841061067757505050820101816106246103bc610611565b8054848a01860152889550879490930192810161065e565b60ff19168782015293151560051b8601909301935084925061062491506103bc9050610611565b60248360228c634e487b7160e01b835252fd5b92607f16926105e7565b8382346102b257816003193601126102b2576020906001600160a01b03600754169051908152f35b83346101ba57806003193601126101ba5761071461191b565b806001600160a01b036007546001600160a01b03198116600755167f8be0079c531659141344cd1fd0a4f28419497f9722a3daafe3b4186f6b6457e08280a380f35b9083346101ba5760203660031901126101ba576001600160a01b03610779611455565b169283156107965750806020938392526003845220549051908152f35b9060249251917f89c62b64000000000000000000000000000000000000000000000000000000008352820152fd5b9083346101ba5760203660031901126101ba57506001600160a01b036107ec602093356118e0565b915191168152f35b8382346102b257816003193601126102b2576020906008549051908152f35b8390346102b257602092836003193601126102605781356001600160a01b0380600b541680158015906109d4575b156109925733148015610985575b1561091d57818552600286528285205416818582159283156108e5575b828252600289528582206001600160a01b031981541690557fddf252ad1be2c89b69c2b068fc378daa952ba7f163c4a11628f55a4df523b3ef8280a46108d05783946009918552528220828155826001820155826002820155826003820155015580f35b602492915191637e27328960e01b8352820152fd5b61090683600052600460205260406000206001600160a01b03198154169055565b80825260038952858220805460001901905561086c565b6084848785519162461bcd60e51b8352820152602360248201527f506f6c6963794e46543a2043616c6c6572206973206e6f7420617574686f726960448201527f7a656400000000000000000000000000000000000000000000000000000000006064820152fd5b5080600a5416331461084f565b6064858886519162461bcd60e51b8352820152601a60248201527f506f6c6963794e46543a2041646472657373206e6f74207365740000000000006044820152fd5b5081600a54161515610841565b8382346102b2576104d4906109f536611486565b91925192610a02846114ed565b8584526104ce83838361170b565b8382346102b257816003193601126102b2576020906001600160a01b03600b54169051908152f35b909150346102605760c036600319011261026057610a54611455565b91602491608435906fffffffffffffffffffffffffffffffff90818316809303610dc35760a435968288168098036101ba576001600160a01b0395610aa987600a5416610aa2811515611547565b33146115b8565b6008549660001998898914610db15760018901600855875190610acb826114ed565b848252828116928315610d9c578a848b9282895260209e8f9160028352858b205416918215159560029287610d65575b50848c52600382528b2060018154019055848b52528c8920826001600160a01b03198254161790557fddf252ad1be2c89b69c2b068fc378daa952ba7f163c4a11628f55a4df523b3ef8980a4610d37573b610c08575b50509280928992888a610c0298978a805194610b6c866114bb565b60443586528386019235835260098287019442865260608801966064358852608089019d8e5260a089019b8c528352522093518455516001840155516002830155516003820155019351166fffffffffffffffffffffffffffffffff1984541617835551166fffffffffffffffffffffffffffffffff6fffffffffffffffffffffffffffffffff1983549260801b169116179055565b51908152f35b93610c4f8a839a96859d948780869f9c999b988e5196879586948593630a85bd0160e11b9b8c865233908601528401528d6044840152608060648401526084830190611415565b03925af1879181610cf3575b50610cb6575050505050503d600014610cae573d610c788161152b565b90610c8585519283611509565b81528091833d92013e5b80519182610cab575050505191633250574960e11b8352820152fd5b01fd5b506060610c8f565b6001600160e01b0319909a94979a999295999693961603610cde575091979091908187610b51565b828a91885191633250574960e11b8352820152fd5b9091508881813d8311610d30575b610d0b8183611509565b81010312610d2c57516001600160e01b031981168103610d2c579038610c5b565b8780fd5b503d610d01565b8386868b51917f73c6ac6e000000000000000000000000000000000000000000000000000000008352820152fd5b610d8687600052600460205260406000206001600160a01b03198154169055565b848d5260038352818d2090815401905538610afb565b8487878c5191633250574960e11b8352820152fd5b8284601187634e487b7160e01b835252fd5b8680fd5b9091503461026057816003193601126102605780359160243591610dfb6001600160a01b03600a5416610aa2811515611547565b8385526009602052610e14600283872001541515611629565b8215610e76578385526009602052818520908154938401809411610e63575091602091817f4e52e5c6c1f2802ac15497743e6c08a4251f6421a26a5cc4c2d82a3c2fded322945551908152a280f35b856011602492634e487b7160e01b835252fd5b6020608492519162461bcd60e51b8352820152603260248201527f506f6c6963794e46543a20416d6f756e7420746f20616464206d75737420626560448201527f2067726561746572207468616e207a65726f00000000000000000000000000006064820152fd5b9091503461026057602036600319011261026057818360c09460a08351610f04816114bb565b828152826020820152828582015282606082015282608082015201528235815260096020522091805192610f37846114bb565b80549384815260018201549160208201928352600281015494848301958652600382015491606084019283520154936fffffffffffffffffffffffffffffffff95869460a060808601958789168752019660801c87528251988952516020890152519087015251606086015251166080840152511660a0820152f35b83346101ba576104d4610fc536611486565b9161170b565b83346101ba5760203660031901126101ba576001600160a01b03610fed611455565b610ff561191b565b1661100181151561169a565b806001600160a01b0319600b541617600b557fdfd2967b9417925459cd79ae13c6dec37092beff03f9cd8ed4c3e687fe93d2e48280a280f35b915034610260578060031936011261026057611054611455565b91602435611061816118e0565b3315158061111a575b806110f2575b6110c35781906001600160a01b03809616958691167f8c5be1e5ebec7d5bd14f71427d1e84f3dd0314c0f7b2291e5b200ac8c7c3b9258880a484526020528220906001600160a01b031982541617905580f35b83517fa9fbf51f0000000000000000000000000000000000000000000000000000000081523381850152602490fd5b506001600160a01b0381168652600560205283862033875260205260ff848720541615611070565b50336001600160a01b038216141561106a565b909150346102605760203660031901126102605781602093826001600160a01b039335611159816118e0565b50825285522054169051908152f35b9083346101ba57806003193601126101ba578151918182549260018460011c916001861695861561122b575b60209687851081146106b6578899509688969785829a52918260001461068f5750506001146111d0575050506103bc9291610624910385611509565b91908693508280527f290decd9548b62a8d60345a988386fc84ba6bc95484008f6362f93160ef3e5635b82841061121357505050820101816106246103bc610611565b8054848a0186015288955087949093019281016111fa565b92607f1692611194565b909150346102605760203660031901126102605735906001600160e01b0319821680920361026057602092507f49064906000000000000000000000000000000000000000000000000000000008214918215611295575b50519015158152f35b9091507f80ac58cd0000000000000000000000000000000000000000000000000000000081149081156112fc575b81156112d2575b50903861128c565b7f01ffc9a700000000000000000000000000000000000000000000000000000000915014386112ca565b7f5b5e139f00000000000000000000000000000000000000000000000000000000811491506112c3565b90915034610260576060366003190112610260578035916024356fffffffffffffffffffffffffffffffff928382168092036114115760443593841690818503610dc3577fa2feae0e047d1059af920dcd066c0d5306bdfde29004cde9e4cdb76b10fd425594611403916113aa6001600160a01b03600a5416610aa2811515611547565b87895260096020526113c36002878b2001541515611629565b87895260096020528589206fffffffffffffffffffffffffffffffff861660809390931b6fffffffffffffffffffffffffffffffff191692909217910155565b82519182526020820152a280f35b8580fd5b919082519283825260005b848110611441575050826000602080949584010152601f8019910116010190565b602081830181015184830182015201611420565b600435906001600160a01b038216820361146b57565b600080fd5b602435906001600160a01b038216820361146b57565b606090600319011261146b576001600160a01b0390600435828116810361146b5791602435908116810361146b579060443590565b60c0810190811067ffffffffffffffff8211176114d757604052565b634e487b7160e01b600052604160045260246000fd5b6020810190811067ffffffffffffffff8211176114d757604052565b90601f8019910116810190811067ffffffffffffffff8211176114d757604052565b67ffffffffffffffff81116114d757601f01601f191660200190565b1561154e57565b608460405162461bcd60e51b815260206004820152602860248201527f506f6c6963794e46543a20506f6c6963794d616e61676572206164647265737360448201527f206e6f74207365740000000000000000000000000000000000000000000000006064820152fd5b156115bf57565b608460405162461bcd60e51b815260206004820152603560248201527f506f6c6963794e46543a2043616c6c6572206973206e6f74207468652061757460448201527f686f72697a656420506f6c6963794d616e6167657200000000000000000000006064820152fd5b1561163057565b608460405162461bcd60e51b815260206004820152603360248201527f506f6c6963794e46543a20506f6c69637920646f6573206e6f7420657869737460448201527f206f7220686173206265656e206275726e6564000000000000000000000000006064820152fd5b156116a157565b608460405162461bcd60e51b815260206004820152602160248201527f506f6c6963794e46543a20416464726573732063616e6e6f74206265207a657260448201527f6f000000000000000000000000000000000000000000000000000000000000006064820152fd5b90916001600160a01b038093169283156118c857600092828452826020956002875260409684888820541696879133151580611819575b509060027fddf252ad1be2c89b69c2b068fc378daa952ba7f163c4a11628f55a4df523b3ef92846117e1575b858352600381528b83206001815401905586835252898120846001600160a01b031982541617905580a416928383036117a75750505050565b6064945051927f64283d7b000000000000000000000000000000000000000000000000000000008452600484015260248301526044820152fd5b61180287600052600460205260406000206001600160a01b03198154169055565b848352600381528b8320805460001901905561176e565b91939450915080611887575b1561183557859291879138611742565b878688611852576024915190637e27328960e01b82526004820152fd5b60449151907f177e802f0000000000000000000000000000000000000000000000000000000082523360048301526024820152fd5b5033871480156118ac575b806118255750858252600481523385898420541614611825565b5086825260058152878220338352815260ff8883205416611892565b6024604051633250574960e11b815260006004820152fd5b8060005260026020526001600160a01b0360406000205416908115611903575090565b60249060405190637e27328960e01b82526004820152fd5b6001600160a01b0360075416330361192f57565b60246040517f118cdaa7000000000000000000000000000000000000000000000000000000008152336004820152fd5b909192833b611970575b5050505050565b6001600160a01b039592939495809516946040519481630a85bd0160e11b94858852166004870152166024850152604484015260806064840152826119bb6020966084830190611415565b039285816000958187895af1849181611a66575b50611a2e575050503d600014611a26573d6119e98161152b565b906119f76040519283611509565b81528091843d92013e5b80519283611a215760248360405190633250574960e11b82526004820152fd5b019050fd5b506060611a01565b9092506001600160e01b03199194501603611a4e57503880808080611969565b60249060405190633250574960e11b82526004820152fd5b9091508681813d8311611a9f575b611a7e8183611509565b810103126105b557516001600160e01b0319811681036105b55790386119cf565b503d611a7456fea26469706673582212207f62704cb63d46142b405d7e5bfe26b8dc61fc1fb9796ac076ffb81a7fc0d5d264736f6c63430008160033",
  "linkReferences": {},
  "deployedLinkReferences": {}
}