{
  "_format": "hh-sol-artifact-1",
  "contractName": "PolicyManager",
  "sourceName": "contracts/core/PolicyManager.sol",
  "abi": [
    {
      "inputs": [
        {
          "internalType": "address",
          "name": "_policyNFT",
          "type": "address"
        },
        {
          "internalType": "address",
          "name": "_initialOwner",
          "type": "address"
        }
      ],
      "stateMutability": "nonpayable",
      "type": "constructor"
    },
    {
      "inputs": [],
      "name": "AddressesNotSet",
      "type": "error"
    },
    {
      "inputs": [],
      "name": "CooldownActive",
      "type": "error"
    },
    {
      "inputs": [],
      "name": "DepositTooLow",
      "type": "error"
    },
    {
      "inputs": [],
      "name": "InsufficientCapacity",
      "type": "error"
    },
    {
      "inputs": [],
      "name": "InvalidAmount",
      "type": "error"
    },
    {
      "inputs": [],
      "name": "NotPolicyOwner",
      "type": "error"
    },
    {
      "inputs": [
        {
          "internalType": "address",
          "name": "owner",
          "type": "address"
        }
      ],
      "name": "OwnableInvalidOwner",
      "type": "error"
    },
    {
      "inputs": [
        {
          "internalType": "address",
          "name": "account",
          "type": "address"
        }
      ],
      "name": "OwnableUnauthorizedAccount",
      "type": "error"
    },
    {
      "inputs": [],
      "name": "PolicyAlreadyTerminated",
      "type": "error"
    },
    {
      "inputs": [],
      "name": "PolicyIsActive",
      "type": "error"
    },
    {
      "inputs": [],
      "name": "PolicyNotActive",
      "type": "error"
    },
    {
      "inputs": [],
      "name": "PoolPaused",
      "type": "error"
    },
    {
      "inputs": [],
      "name": "ReentrancyGuardReentrantCall",
      "type": "error"
    },
    {
      "inputs": [
        {
          "internalType": "address",
          "name": "token",
          "type": "address"
        }
      ],
      "name": "SafeERC20FailedOperation",
      "type": "error"
    },
    {
      "inputs": [],
      "name": "TooManyPendingIncreases",
      "type": "error"
    },
    {
      "anonymous": false,
      "inputs": [
        {
          "indexed": true,
          "internalType": "address",
          "name": "registry",
          "type": "address"
        },
        {
          "indexed": true,
          "internalType": "address",
          "name": "capital",
          "type": "address"
        },
        {
          "indexed": true,
          "internalType": "address",
          "name": "rewards",
          "type": "address"
        },
        {
          "indexed": false,
          "internalType": "address",
          "name": "rm",
          "type": "address"
        }
      ],
      "name": "AddressesSet",
      "type": "event"
    },
    {
      "anonymous": false,
      "inputs": [
        {
          "indexed": true,
          "internalType": "address",
          "name": "newCatPool",
          "type": "address"
        }
      ],
      "name": "CatPoolSet",
      "type": "event"
    },
    {
      "anonymous": false,
      "inputs": [
        {
          "indexed": false,
          "internalType": "uint256",
          "name": "newBps",
          "type": "uint256"
        }
      ],
      "name": "CatPremiumShareSet",
      "type": "event"
    },
    {
      "anonymous": false,
      "inputs": [
        {
          "indexed": false,
          "internalType": "uint256",
          "name": "newPeriod",
          "type": "uint256"
        }
      ],
      "name": "CoverCooldownPeriodSet",
      "type": "event"
    },
    {
      "anonymous": false,
      "inputs": [
        {
          "indexed": true,
          "internalType": "uint256",
          "name": "policyId",
          "type": "uint256"
        },
        {
          "indexed": false,
          "internalType": "uint256",
          "name": "additionalCoverage",
          "type": "uint256"
        },
        {
          "indexed": false,
          "internalType": "uint256",
          "name": "activationTimestamp",
          "type": "uint256"
        }
      ],
      "name": "CoverIncreaseRequested",
      "type": "event"
    },
    {
      "anonymous": false,
      "inputs": [
        {
          "indexed": true,
          "internalType": "address",
          "name": "previousOwner",
          "type": "address"
        },
        {
          "indexed": true,
          "internalType": "address",
          "name": "newOwner",
          "type": "address"
        }
      ],
      "name": "OwnershipTransferred",
      "type": "event"
    },
    {
      "anonymous": false,
      "inputs": [
        {
          "indexed": true,
          "internalType": "uint256",
          "name": "policyId",
          "type": "uint256"
        },
        {
          "indexed": false,
          "internalType": "uint256",
          "name": "amount",
          "type": "uint256"
        }
      ],
      "name": "PremiumAdded",
      "type": "event"
    },
    {
      "inputs": [],
      "name": "BPS",
      "outputs": [
        {
          "internalType": "uint256",
          "name": "",
          "type": "uint256"
        }
      ],
      "stateMutability": "view",
      "type": "function"
    },
    {
      "inputs": [],
      "name": "SECS_YEAR",
      "outputs": [
        {
          "internalType": "uint256",
          "name": "",
          "type": "uint256"
        }
      ],
      "stateMutability": "view",
      "type": "function"
    },
    {
      "inputs": [
        {
          "internalType": "uint256",
          "name": "policyId",
          "type": "uint256"
        },
        {
          "internalType": "uint256",
          "name": "amount",
          "type": "uint256"
        }
      ],
      "name": "addPremium",
      "outputs": [],
      "stateMutability": "nonpayable",
      "type": "function"
    },
    {
      "inputs": [
        {
          "internalType": "uint256",
          "name": "policyId",
          "type": "uint256"
        }
      ],
      "name": "cancelCover",
      "outputs": [],
      "stateMutability": "nonpayable",
      "type": "function"
    },
    {
      "inputs": [],
      "name": "capitalPool",
      "outputs": [
        {
          "internalType": "contract ICapitalPool",
          "name": "",
          "type": "address"
        }
      ],
      "stateMutability": "view",
      "type": "function"
    },
    {
      "inputs": [],
      "name": "catPool",
      "outputs": [
        {
          "internalType": "contract IBackstopPool",
          "name": "",
          "type": "address"
        }
      ],
      "stateMutability": "view",
      "type": "function"
    },
    {
      "inputs": [],
      "name": "catPremiumBps",
      "outputs": [
        {
          "internalType": "uint256",
          "name": "",
          "type": "uint256"
        }
      ],
      "stateMutability": "view",
      "type": "function"
    },
    {
      "inputs": [],
      "name": "coverCooldownPeriod",
      "outputs": [
        {
          "internalType": "uint256",
          "name": "",
          "type": "uint256"
        }
      ],
      "stateMutability": "view",
      "type": "function"
    },
    {
      "inputs": [
        {
          "internalType": "uint256",
          "name": "policyId",
          "type": "uint256"
        }
      ],
      "name": "getPendingIncreases",
      "outputs": [
        {
          "components": [
            {
              "internalType": "uint128",
              "name": "amount",
              "type": "uint128"
            },
            {
              "internalType": "uint128",
              "name": "activationTimestamp",
              "type": "uint128"
            },
            {
              "internalType": "uint256",
              "name": "nextNodeId",
              "type": "uint256"
            }
          ],
          "internalType": "struct PolicyManager.PendingIncreaseNode[]",
          "name": "",
          "type": "tuple[]"
        }
      ],
      "stateMutability": "view",
      "type": "function"
    },
    {
      "inputs": [
        {
          "internalType": "uint256",
          "name": "policyId",
          "type": "uint256"
        },
        {
          "internalType": "uint256",
          "name": "additionalCoverage",
          "type": "uint256"
        }
      ],
      "name": "increaseCover",
      "outputs": [],
      "stateMutability": "nonpayable",
      "type": "function"
    },
    {
      "inputs": [
        {
          "internalType": "uint256",
          "name": "policyId",
          "type": "uint256"
        }
      ],
      "name": "isPolicyActive",
      "outputs": [
        {
          "internalType": "bool",
          "name": "",
          "type": "bool"
        }
      ],
      "stateMutability": "view",
      "type": "function"
    },
    {
      "inputs": [
        {
          "internalType": "uint256",
          "name": "policyId",
          "type": "uint256"
        }
      ],
      "name": "lapsePolicy",
      "outputs": [],
      "stateMutability": "nonpayable",
      "type": "function"
    },
    {
      "inputs": [],
      "name": "owner",
      "outputs": [
        {
          "internalType": "address",
          "name": "",
          "type": "address"
        }
      ],
      "stateMutability": "view",
      "type": "function"
    },
    {
      "inputs": [
        {
          "internalType": "uint256",
          "name": "",
          "type": "uint256"
        }
      ],
      "name": "pendingCoverageSum",
      "outputs": [
        {
          "internalType": "uint256",
          "name": "",
          "type": "uint256"
        }
      ],
      "stateMutability": "view",
      "type": "function"
    },
    {
      "inputs": [
        {
          "internalType": "uint256",
          "name": "",
          "type": "uint256"
        }
      ],
      "name": "pendingIncreaseListHead",
      "outputs": [
        {
          "internalType": "uint256",
          "name": "",
          "type": "uint256"
        }
      ],
      "stateMutability": "view",
      "type": "function"
    },
    {
      "inputs": [],
      "name": "policyNFT",
      "outputs": [
        {
          "internalType": "contract IPolicyNFT",
          "name": "",
          "type": "address"
        }
      ],
      "stateMutability": "view",
      "type": "function"
    },
    {
      "inputs": [],
      "name": "poolRegistry",
      "outputs": [
        {
          "internalType": "contract IPoolRegistry",
          "name": "",
          "type": "address"
        }
      ],
      "stateMutability": "view",
      "type": "function"
    },
    {
      "inputs": [
        {
          "internalType": "uint256",
          "name": "poolId",
          "type": "uint256"
        },
        {
          "internalType": "uint256",
          "name": "coverageAmount",
          "type": "uint256"
        },
        {
          "internalType": "uint256",
          "name": "initialPremiumDeposit",
          "type": "uint256"
        }
      ],
      "name": "purchaseCover",
      "outputs": [
        {
          "internalType": "uint256",
          "name": "policyId",
          "type": "uint256"
        }
      ],
      "stateMutability": "nonpayable",
      "type": "function"
    },
    {
      "inputs": [],
      "name": "renounceOwnership",
      "outputs": [],
      "stateMutability": "nonpayable",
      "type": "function"
    },
    {
      "inputs": [],
      "name": "rewardDistributor",
      "outputs": [
        {
          "internalType": "contract IRewardDistributor",
          "name": "",
          "type": "address"
        }
      ],
      "stateMutability": "view",
      "type": "function"
    },
    {
      "inputs": [],
      "name": "riskManager",
      "outputs": [
        {
          "internalType": "contract IRiskManagerPMHook",
          "name": "",
          "type": "address"
        }
      ],
      "stateMutability": "view",
      "type": "function"
    },
    {
      "inputs": [
        {
          "internalType": "address",
          "name": "registry",
          "type": "address"
        },
        {
          "internalType": "address",
          "name": "capital",
          "type": "address"
        },
        {
          "internalType": "address",
          "name": "cat",
          "type": "address"
        },
        {
          "internalType": "address",
          "name": "rewards",
          "type": "address"
        },
        {
          "internalType": "address",
          "name": "rm",
          "type": "address"
        }
      ],
      "name": "setAddresses",
      "outputs": [],
      "stateMutability": "nonpayable",
      "type": "function"
    },
    {
      "inputs": [
        {
          "internalType": "address",
          "name": "catPoolAddress",
          "type": "address"
        }
      ],
      "name": "setCatPool",
      "outputs": [],
      "stateMutability": "nonpayable",
      "type": "function"
    },
    {
      "inputs": [
        {
          "internalType": "uint256",
          "name": "newBps",
          "type": "uint256"
        }
      ],
      "name": "setCatPremiumShareBps",
      "outputs": [],
      "stateMutability": "nonpayable",
      "type": "function"
    },
    {
      "inputs": [
        {
          "internalType": "uint256",
          "name": "newPeriod",
          "type": "uint256"
        }
      ],
      "name": "setCoverCooldownPeriod",
      "outputs": [],
      "stateMutability": "nonpayable",
      "type": "function"
    },
    {
      "inputs": [
        {
          "internalType": "address",
          "name": "newOwner",
          "type": "address"
        }
      ],
      "name": "transferOwnership",
      "outputs": [],
      "stateMutability": "nonpayable",
      "type": "function"
    }
  ],
  "bytecode": "0x60a0346200013557601f620026cd38819003918201601f19168301916001600160401b038311848410176200013a578084926040948552833981010312620001355760206200004e8262000150565b916001600160a01b0391829162000066910162000150565b169182156200011c57600080546001600160a01b03198116851782556040519491908416907f8be0079c531659141344cd1fd0a4f28419497f9722a3daafe3b4186f6b6457e09080a36001805560006002556107d06008556001600c55166080526125679081620001668239608051818181610329015281816107b601528181610a0801528181610b1b01528181610eab0152818161144b0152818161183601528181611b8501528181611c4f0152611fcb0152f35b604051631e4fbdf760e01b815260006004820152602490fd5b600080fd5b634e487b7160e01b600052604160045260246000fd5b51906001600160a01b0382168203620001355756fe6040608081526004908136101561001557600080fd5b60009160e08335811c908163051b1b86146112ee5781630e38502e146112c65781631e1ac65814611140578163249d39e91461112257816347842663146110f95781635bfb7508146110d15781635c9244af146110a85781635dd68acd14610f785781635ed99faa14610f585781636357ed4c14610e47578163715018a614610de1578163795110ad14610dc15781638a7e415914610aca5781638da5cb5b14610aa35781639a23dfee14610a55578163acc2166a14610a2c578163af02808a146109e7578163afcff50f146109be578163b77b940914610780578163bd8afa4614610753578163cb5cf0b41461072f578163dccb2a6414610707578163ee62d0ed146102e257508063f290cc8d1461027b578063f2fde38b146101cc5763f8fee5301461014257600080fd5b346101c85760203660031901126101c8576001600160a01b03610163611601565b61016b611a48565b169182156101bb5750508073ffffffffffffffffffffffffffffffffffffffff1960055416176005557f82283d6ce7728636b4d495b6b9fc94bc0a15f2a0ab79c8080e5ca70d086986678280a280f35b51630537d15b60e41b8152fd5b8280fd5b50346101c85760203660031901126101c8576101e6611601565b906101ef611a48565b6001600160a01b0380921692831561024c5750506000548273ffffffffffffffffffffffffffffffffffffffff19821617600055167f8be0079c531659141344cd1fd0a4f28419497f9722a3daafe3b4186f6b6457e0600080a380f35b908460249251917f1e4fbdf7000000000000000000000000000000000000000000000000000000008352820152fd5b5090346101c85760203660031901126101c857813591610299611a48565b61138883116102d45750816020917f7ee75ea44b8cd36081f59e6b26f858207321eda7fb20a6db6e7e7ade1ee78e549360085551908152a180f35b905163162908e360e11b8152fd5b929050346105ae576102f33661161c565b90936102fd61199c565b6001600160a01b03938460035416156106f957821580156106e9575b6106db5761032686611a8c565b847f000000000000000000000000000000000000000000000000000000000000000016948451956331a9108f60e11b875287838801526020968781602481855afa9081156106d1578a91610698575b5082339116036106895761038888611804565b1561067a5760c0602491875192838092632b07fce360e01b82528c888301525afa908115610670578991610641575b5080511561063257816003541693878201948a82875160248b518095819363d21c87ad60e01b83528b8301525afa8015610626578192829483926105ed575b50506105de578181106105d0575050895b898b52600b8952878b20548161042689610421848761198f565b61198f565b116105c1579161044d610453926104458a61042188976080995161198f565b928951611da1565b90611f22565b906001600160801b03928391015116106105b25791600a939188866001898b8e986104806002544261198f565b9a8b92600c5497610490896116ae565b600c558c5260098152848c205494838151986104ab8a61165c565b16885283828901951685528701948552878c52528c8a20945116897fffffffffffffffffffffffffffffffff000000000000000000000000000000008654935160801b16921617178355519101558985526009895287852055600b885286842061051687825461198f565b9055600754169151823b156105ae57606484928389519586948593632e949fcf60e11b8552840152896024840152600160448401525af180156105a45761058c575b50507f3943b1ec0048c24179d32e527b9ddafa79654512abcaaad09efac8d43669b331938351928352820152a26001805580f35b61059590611632565b6105a0578538610558565b8580fd5b85513d84823e3d90fd5b8380fd5b828651632b7786bd60e21b8152fd5b858951632e77ac1d60e11b8152fd5b6105d9916117e4565b610407565b85895163146f5dc360e21b8152fd5b92509250506106119250803d1061061f575b6106098183611678565b81019061179a565b5092945090915038806103f6565b503d6105ff565b508851903d90823e3d90fd5b8286516353031cf560e01b8152fd5b610663915060c03d60c011610669575b61065b8183611678565b810190611729565b386103b7565b503d610651565b86513d8b823e3d90fd5b828651638966b51f60e01b8152fd5b82865163f9d492db60e01b8152fd5b90508781813d83116106ca575b6106af8183611678565b810103126106c6576106c09061169a565b38610375565b8980fd5b503d6106a5565b87513d8c823e3d90fd5b835163162908e360e11b8152fd5b506001600160801b038311610319565b8351630537d15b60e41b8152fd5b5050346101c85760203660031901126101c85760209282913581526009845220549051908152f35b5050503461074f578160031936011261074f576020906002549051908152f35b5080fd5b5050913461077d57602036600319011261077d575061077460209235611804565b90519015158152f35b80fd5b505090346101c8576020806003193601126105ae578235906107a061199c565b6001600160a01b03918260035416156109ae57827f00000000000000000000000000000000000000000000000000000000000000001684516331a9108f60e11b815282878201528381602481855afa9081156109a457889161096b575b50843391160361095c579060c060249261081683611a8c565b865193848092632b07fce360e01b8252858b8301525afa918215610952578792610931575b5081511561092257606082015142106108fa579061085b81608093611c23565b01906001600160801b039283835116610877575b866001805580f35b8190865416855196878092631c56369f60e21b82525afa9384156108f1575085936108b8575b506108ad93505116903390611d3b565b38808080808061086f565b90925083813d83116108ea575b6108cf8183611678565b810103126105ae576108e36108ad9361169a565b913861089d565b503d6108c5565b513d87823e3d90fd5b8585517faa9a98df000000000000000000000000000000000000000000000000000000008152fd5b8585516353031cf560e01b8152fd5b61094b91925060c03d60c0116106695761065b8183611678565b903861083b565b85513d89823e3d90fd5b85855163f9d492db60e01b8152fd5b90508381813d831161099d575b6109828183611678565b81010312610999576109939061169a565b386107fd565b8780fd5b503d610978565b86513d8a823e3d90fd5b50505051630537d15b60e41b8152fd5b5050503461074f578160031936011261074f576020906001600160a01b03600354169051908152f35b5050503461074f578160031936011261074f57602090516001600160a01b037f0000000000000000000000000000000000000000000000000000000000000000168152f35b5050503461074f578160031936011261074f576020906001600160a01b03600654169051908152f35b5050346101c85760203660031901126101c8577f6a638c2eecc402883653d67e472b048065b35be8e4dfe5ac805d9026bdb4ffa6916020913590610a97611a48565b8160025551908152a180f35b5050503461074f578160031936011261074f576001600160a01b0360209254169051908152f35b8385843461074f57610adb3661161c565b610ae692919261199c565b6001600160a01b0391826003541615610db3578115610da5576001600160801b0392838311610d9657610b1885611a8c565b807f0000000000000000000000000000000000000000000000000000000000000000168751946331a9108f60e11b865286848701526020958681602481865afa908115610d09578991610d61575b508333911603610d5257610b7987611804565b15610d4357885192632b07fce360e01b8452878585015260c084602481865afa938415610d09578994610d22575b50835115610d13578685918254168b5192838092631c56369f60e21b82525afa8015610d095786908a90610ccd575b610be49250309033906119d7565b806080840151168186160192818411610cba5760a001511692813b1561099957885163012aa6c360e01b81529081018781526001600160801b039384166020820152929093166040830152869183919082908490829060600103925af18015610cb057610c7d575b507f23ebf178beae004862a3c09b00a710ef2173a8910dddb357a1ed55a0e7f9906692939451908152a26001805580f35b93610ca97f23ebf178beae004862a3c09b00a710ef2173a8910dddb357a1ed55a0e7f990669495611632565b9392610c4c565b86513d87823e3d90fd5b602489601187634e487b7160e01b835252fd5b50508681813d8311610d02575b610ce48183611678565b81010312610cfe5785610cf9610be49261169a565b610bd6565b8880fd5b503d610cda565b8a513d8b823e3d90fd5b848a516353031cf560e01b8152fd5b610d3c91945060c03d60c0116106695761065b8183611678565b928a610ba7565b838951638966b51f60e01b8152fd5b83895163f9d492db60e01b8152fd5b90508681813d8311610d8f575b610d788183611678565b81010312610cfe57610d899061169a565b8a610b66565b503d610d6e565b50855163162908e360e11b8152fd5b855163162908e360e11b8152fd5b8551630537d15b60e41b8152fd5b5050503461074f578160031936011261074f576020906008549051908152f35b843461077d578060031936011261077d57610dfa611a48565b806001600160a01b03815473ffffffffffffffffffffffffffffffffffffffff1981168355167f8be0079c531659141344cd1fd0a4f28419497f9722a3daafe3b4186f6b6457e08280a380f35b5050913461077d57602036600319011261077d578235610e6561199c565b6001600160a01b038060035416156109ae57610e8082611a8c565b610e8982611804565b610f2f579260c060249394825194858092632b07fce360e01b8252868a8301527f0000000000000000000000000000000000000000000000000000000000000000165afa928315610f25578493610f04575b50825115610ef5575090610eee91611c23565b6001805580f35b8490516353031cf560e01b8152fd5b610f1e91935060c03d60c0116106695761065b8183611678565b9138610edb565b81513d86823e3d90fd5b505050517fb84876ad000000000000000000000000000000000000000000000000000000008152fd5b5050503461074f578160031936011261074f57602090516301e133808152f35b5050346101c85760a03660031901126101c857610f93611601565b90602435916001600160a01b03938484168094036105a057604435928584168094036110a457606435958087168097036109995760843593818516809503610cfe57610fdd611a48565b16938415801561109c575b8015611094575b801561108c575b8015611084575b6110755791837f04bae238acbca2674eaa41a0c1c5d4e1f2a7e2b094e9200694e1017ffe38ab35949260209473ffffffffffffffffffffffffffffffffffffffff199188836003541617600355898382541617905581600554161760055588816006541617600655600754161760075551908152a480f35b509051630537d15b60e41b8152fd5b508315610ffd565b508615610ff6565b508015610fef565b508515610fe8565b8680fd5b5050503461074f578160031936011261074f576020906001600160a01b03600554169051908152f35b5050913461077d578060031936011261077d57506001600160a01b0360209254169051908152f35b5050503461074f578160031936011261074f576020906001600160a01b03600754169051908152f35b5050503461074f578160031936011261074f57602090516127108152f35b5050913461077d576020928360031936011261074f573592818483526009825283832054905b811515806112bc575b156111915761117d906116ae565b908352600a82526001848420015490611166565b859293915061119f816116d3565b926111ac86519485611678565b8184526111b8826116d3565b601f190185845b828110611296575050508252600984528482205482905b82821061123757505050835192808401908085528351809252808686019401925b8281106112045785850386f35b835180516001600160801b03908116875281840151168684015287015187860152606090940193928101926001016111f7565b806001918552600a8088528886209189516112518161165c565b83546001600160801b038116825260801c8a82015284809401548b820152611279868a6116eb565b5261128485896116eb565b508652875287852001549101906111d6565b88516112a18161165c565b8681528683820152868a8201528282890101520186906111bf565b506032811061116f565b5050346101c85760203660031901126101c8576020928291358152600b845220549051908152f35b8284863461077d57606036600319011261077d57823590602435916044359461131561199c565b6001600160a01b0380600354169788156115f257851580156115ea575b6115db576001600160801b03988989116115cc57908060249289519384809263d21c87ad60e01b825289898301525afa9081156115c2578691879388928992611599575b505061158a5781811061157b57505084905b81611393888361198f565b1161156c576113ac916113a69186611da1565b86611f22565b871061155d576113be6002544261198f565b9781835416988751809a631c56369f60e21b8252818660209d8e935afa8015611553578a90889061151b575b6113f89250309033906119d7565b818851997f342edd7e000000000000000000000000000000000000000000000000000000008b5233868c01528660248c01528860448c01528260648c01521660848a01521660a4880152878760c48187857f0000000000000000000000000000000000000000000000000000000000000000165af19687156115115784976114e2575b5060075416803b156105ae578392918360649288519788958694632e949fcf60e11b86528501526024840152600160448401525af19081156114d757506114c8575b506001805551908152f35b6114d190611632565b836114bd565b8351903d90823e3d90fd5b9096508781813d831161150a575b6114fa8183611678565b810103126105ae5751958861147b565b503d6114f0565b86513d86823e3d90fd5b50508a81813d831161154c575b6115328183611678565b810103126110a457896115476113f89261169a565b6113ea565b503d611528565b89513d89823e3d90fd5b508451632b7786bd60e21b8152fd5b838851632e77ac1d60e11b8152fd5b611584916117e4565b90611388565b84895163146f5dc360e21b8152fd5b92509250506115b49250803d1061061f576106098183611678565b509294509091508c80611376565b88513d88823e3d90fd5b83885163162908e360e11b8152fd5b82875163162908e360e11b8152fd5b508715611332565b828751630537d15b60e41b8152fd5b600435906001600160a01b038216820361161757565b600080fd5b6040906003190112611617576004359060243590565b67ffffffffffffffff811161164657604052565b634e487b7160e01b600052604160045260246000fd5b6060810190811067ffffffffffffffff82111761164657604052565b90601f8019910116810190811067ffffffffffffffff82111761164657604052565b51906001600160a01b038216820361161757565b60001981146116bd5760010190565b634e487b7160e01b600052601160045260246000fd5b67ffffffffffffffff81116116465760051b60200190565b80518210156116ff5760209160051b010190565b634e487b7160e01b600052603260045260246000fd5b51906001600160801b038216820361161757565b908160c0910312611617576040519060c0820182811067ffffffffffffffff821117611646576117929160a0916040528051845260208101516020850152604081015160408501526060810151606085015261178760808201611715565b608085015201611715565b60a082015290565b908160e0910312611617576117ae8161169a565b9160208201519160408101519160608201519160808101518015158103611617579160c06117de60a0840161169a565b92015190565b919082039182116116bd57565b818102929181159184041417156116bd57565b6001600160a01b039081600354169081156119875760c090602460405180958193632b07fce360e01b835260048301527f0000000000000000000000000000000000000000000000000000000000000000165afa91821561195357600092611966575b5081511561195f5760a082016001600160801b03918282511642111561190f576020840160e0815160246040518095819363d21c87ad60e01b835260048301525afa918215611953576118d69260009060009260009161192b575b5081811061191c5750506000915b51611da1565b90811561190f576119066080926119016118f98664496cebb800955116426117e4565b9187516117f1565b6117f1565b04920151161190565b5050906080015116151590565b611925916117e4565b916118d0565b915050611947915060e03d60e01161061f576106098183611678565b505050925091386118c2565b6040513d6000823e3d90fd5b5050600090565b61198091925060c03d60c0116106695761065b8183611678565b9038611867565b505050600090565b919082018092116116bd57565b6002600154146119ad576002600155565b60046040517f3ee5aeb5000000000000000000000000000000000000000000000000000000008152fd5b9290604051927f23b872dd0000000000000000000000000000000000000000000000000000000060208501526001600160a01b03809216602485015216604483015260648201526064815260a081019181831067ffffffffffffffff84111761164657611a4692604052611f4c565b565b6001600160a01b03600054163303611a5c57565b60246040517f118cdaa7000000000000000000000000000000000000000000000000000000008152336004820152fd5b600081815260096020818152604080842054929594849384939084905b80151580611c19575b15611b5e57808752600a90818452858820916001918c8385015494548060801c421015600014611b4d57918b9391611af96001600160801b03611b3498979516809d61198f565b9b8a8652600b8a52611b0f8c87209182546117e4565b90558d611b3a578985528852848a8520555b8352865287822082815501555b916116ae565b90611aa9565b508c845281885284838b86200155611b21565b5050915050611b3491985097611b2e565b505050935090945084611b79575b5050611a46919250611fc0565b81946001600160a01b037f000000000000000000000000000000000000000000000000000000000000000016803b156105ae5760448492845195869384927f31c0191600000000000000000000000000000000000000000000000000000000845289600485015260248401525af1908115611c105750611a46939450611c01575b8392611b6c565b611c0a90611632565b38611bfa565b513d86823e3d90fd5b5060328210611ab2565b90611c2d826123ef565b90611c3c81519260009361198f565b80611cd9575b5050906001600160a01b037f00000000000000000000000000000000000000000000000000000000000000001690813b156101c85782916024839260405194859384927f42966c6800000000000000000000000000000000000000000000000000000000845260048401525af18015611cce57611cbd575050565b611cc78291611632565b61077d5750565b6040513d84823e3d90fd5b60206001600160a01b0360075416920151823b156105ae579060648492836040519586948593632e949fcf60e11b8552600485015260248401528160448401525af18015611cce57611d2c575b80611c42565b611d3590611632565b38611d26565b916001600160a01b03604051927fa9059cbb000000000000000000000000000000000000000000000000000000006020850152166024830152604482015260448152608081019181831067ffffffffffffffff84111761164657611a4692604052611f4c565b91906001600160a01b036003541691608060409460248651809681937fb75adf9400000000000000000000000000000000000000000000000000000000835260048301525afa928315611f1757600093611e91575b508015611e725761271091828102908082048414901517156116bd570492606083019081518510600014611e44575050611e3a611e419360208451940151906117f1565b049061198f565b90565b92611e3a9193611e69611e4196611e61845160208601519061198f565b9651906117e4565b910151906117f1565b5050611e4191611e88825160208401519061198f565b9101519061198f565b6080939193813d608011611f0f575b81611ead60809383611678565b8101031261074f57845191608083019083821067ffffffffffffffff831117611efb575090606091865280518352602081015160208401528581015186840152015160608201529138611df6565b80634e487b7160e01b602492526041600452fd5b3d9150611ea0565b84513d6000823e3d90fd5b90611f2c916117f1565b62093a80908181029181830414901517156116bd5764496cebb800900490565b906000602091828151910182855af115611953576000513d611fb757506001600160a01b0381163b155b611f7d5750565b6024906001600160a01b03604051917f5274afe7000000000000000000000000000000000000000000000000000000008352166004820152fd5b60011415611f76565b6001600160a01b03807f000000000000000000000000000000000000000000000000000000000000000016604090815192632b07fce360e01b8452600490600095808387015260c086602481875afa9586156109525787966123ce575b506001600160801b03938460a0880151164211156123c45761203e87612497565b5094608088018181511696878082109118028718966001881061234d575061206a8783809351166117e4565b1690823b156106c657875163012aa6c360e01b81528681019485526001600160801b03928316602086015242909116919091166040840152918891839182908490829060600103925af180156109525761233a575b50602080950151926120e16127106120d9600854846117f1565b0480926117e4565b9080612260575b50806120f8575b50505050505050565b60249060e0836003541687519384809263d21c87ad60e01b825289898301525afa9182156109a4578892612238575b5081612134575b506120ef565b838784825416885192838092631c56369f60e21b82525afa97881561222e5789986121f6575b505061216b81846006541689611d3b565b826006541692833b15610cfe579288959492869260849589519a8b9889977ffc967542000000000000000000000000000000000000000000000000000000008952880152166024860152604485015260648401525af19081156121ed57506121d9575b80808080808061212e565b6121e38291611632565b61077d57806121ce565b513d84823e3d90fd5b9080929850813d8311612227575b61220e8183611678565b810103126109995761221f9061169a565b95388061215a565b503d612204565b87513d8b823e3d90fd5b61225291925060e03d60e01161061f576106098183611678565b505050505090509038612127565b838784825416885192838092631c56369f60e21b82525afa801561222e5782908a90612302575b6122979250856005541690611d3b565b826005541690813b15610cfe57889160248392895194859384927f142ca5560000000000000000000000000000000000000000000000000000000084528a8401525af180156109a4579088916122ee575b506120e8565b6122f790611632565b6110a45786386122e8565b50508781813d8311612333575b6123198183611678565b81010312610cfe578161232e6122979261169a565b612287565b503d61230f565b61234690969196611632565b94386120bf565b9650509192508093979596503b156123c057855163012aa6c360e01b81529687019182526001600160801b03938416602083015242169092166040830152829185919082908490829060600103925af19182156123b65750506123ad5750565b611a4690611632565b51903d90823e3d90fd5b8480fd5b5050505050505050565b6123e891965060c03d60c0116106695761065b8183611678565b943861201d565b906000828152602092600b6020526040908183205494851561248f5783600960205283852054805b61243457505050825260096020528181812055600b602052812055565b6032821015612466579061245f92918652600a825284862086600182018181549355559283916116ae565b9192612417565b600485517f39017a2a000000000000000000000000000000000000000000000000000000008152fd5b509193505050565b6001600160a01b03600354166020820160e0815160246040518095819363d21c87ad60e01b835260048301525afa918215611953576124f09260009060009260009161192b575081811061191c57505060009151611da1565b90811561252757612523816119018461251c6001600160801b0360a064496cebb80097015116426117e4565b92516117f1565b0491565b505060009060009056fea2646970667358221220ea67dcab27b382ad50ae9c7ce7947ba089642055e9c15c28ac62b1373abee96764736f6c63430008160033",
  "linkReferences": {},
  "deployedLinkReferences": {}
}