{
  "_format": "hh-sol-artifact-1",
  "contractName": "PolicyManager",
  "sourceName": "contracts/core/PolicyManager.sol",
  "abi": [
    {
      "inputs": [
        {
          "internalType": "address",
          "name": "_policyNFT",
          "type": "address"
        },
        {
          "internalType": "address",
          "name": "_initialOwner",
          "type": "address"
        }
      ],
      "stateMutability": "nonpayable",
      "type": "constructor"
    },
    {
      "inputs": [],
      "name": "AddressesNotSet",
      "type": "error"
    },
    {
      "inputs": [],
      "name": "CooldownActive",
      "type": "error"
    },
    {
      "inputs": [],
      "name": "DepositTooLow",
      "type": "error"
    },
    {
      "inputs": [],
      "name": "InsufficientCapacity",
      "type": "error"
    },
    {
      "inputs": [],
      "name": "InvalidAmount",
      "type": "error"
    },
    {
      "inputs": [],
      "name": "NotPolicyOwner",
      "type": "error"
    },
    {
      "inputs": [
        {
          "internalType": "address",
          "name": "owner",
          "type": "address"
        }
      ],
      "name": "OwnableInvalidOwner",
      "type": "error"
    },
    {
      "inputs": [
        {
          "internalType": "address",
          "name": "account",
          "type": "address"
        }
      ],
      "name": "OwnableUnauthorizedAccount",
      "type": "error"
    },
    {
      "inputs": [],
      "name": "PolicyAlreadyTerminated",
      "type": "error"
    },
    {
      "inputs": [],
      "name": "PolicyIsActive",
      "type": "error"
    },
    {
      "inputs": [],
      "name": "PolicyNotActive",
      "type": "error"
    },
    {
      "inputs": [],
      "name": "PoolPaused",
      "type": "error"
    },
    {
      "inputs": [],
      "name": "ReentrancyGuardReentrantCall",
      "type": "error"
    },
    {
      "inputs": [
        {
          "internalType": "address",
          "name": "token",
          "type": "address"
        }
      ],
      "name": "SafeERC20FailedOperation",
      "type": "error"
    },
    {
      "inputs": [],
      "name": "TooManyPendingIncreases",
      "type": "error"
    },
    {
      "anonymous": false,
      "inputs": [
        {
          "indexed": true,
          "internalType": "address",
          "name": "registry",
          "type": "address"
        },
        {
          "indexed": true,
          "internalType": "address",
          "name": "capital",
          "type": "address"
        },
        {
          "indexed": true,
          "internalType": "address",
          "name": "rewards",
          "type": "address"
        },
        {
          "indexed": false,
          "internalType": "address",
          "name": "rm",
          "type": "address"
        }
      ],
      "name": "AddressesSet",
      "type": "event"
    },
    {
      "anonymous": false,
      "inputs": [
        {
          "indexed": true,
          "internalType": "address",
          "name": "newCatPool",
          "type": "address"
        }
      ],
      "name": "CatPoolSet",
      "type": "event"
    },
    {
      "anonymous": false,
      "inputs": [
        {
          "indexed": false,
          "internalType": "uint256",
          "name": "newBps",
          "type": "uint256"
        }
      ],
      "name": "CatPremiumShareSet",
      "type": "event"
    },
    {
      "anonymous": false,
      "inputs": [
        {
          "indexed": false,
          "internalType": "uint256",
          "name": "newPeriod",
          "type": "uint256"
        }
      ],
      "name": "CoverCooldownPeriodSet",
      "type": "event"
    },
    {
      "anonymous": false,
      "inputs": [
        {
          "indexed": true,
          "internalType": "uint256",
          "name": "policyId",
          "type": "uint256"
        },
        {
          "indexed": false,
          "internalType": "uint256",
          "name": "additionalCoverage",
          "type": "uint256"
        },
        {
          "indexed": false,
          "internalType": "uint256",
          "name": "activationTimestamp",
          "type": "uint256"
        }
      ],
      "name": "CoverIncreaseRequested",
      "type": "event"
    },
    {
      "anonymous": false,
      "inputs": [
        {
          "indexed": true,
          "internalType": "address",
          "name": "previousOwner",
          "type": "address"
        },
        {
          "indexed": true,
          "internalType": "address",
          "name": "newOwner",
          "type": "address"
        }
      ],
      "name": "OwnershipTransferred",
      "type": "event"
    },
    {
      "inputs": [],
      "name": "BPS",
      "outputs": [
        {
          "internalType": "uint256",
          "name": "",
          "type": "uint256"
        }
      ],
      "stateMutability": "view",
      "type": "function"
    },
    {
      "inputs": [],
      "name": "SECS_YEAR",
      "outputs": [
        {
          "internalType": "uint256",
          "name": "",
          "type": "uint256"
        }
      ],
      "stateMutability": "view",
      "type": "function"
    },
    {
      "inputs": [
        {
          "internalType": "uint256",
          "name": "policyId",
          "type": "uint256"
        }
      ],
      "name": "cancelCover",
      "outputs": [],
      "stateMutability": "nonpayable",
      "type": "function"
    },
    {
      "inputs": [],
      "name": "capitalPool",
      "outputs": [
        {
          "internalType": "contract ICapitalPool",
          "name": "",
          "type": "address"
        }
      ],
      "stateMutability": "view",
      "type": "function"
    },
    {
      "inputs": [],
      "name": "catPool",
      "outputs": [
        {
          "internalType": "contract IBackstopPool",
          "name": "",
          "type": "address"
        }
      ],
      "stateMutability": "view",
      "type": "function"
    },
    {
      "inputs": [],
      "name": "catPremiumBps",
      "outputs": [
        {
          "internalType": "uint256",
          "name": "",
          "type": "uint256"
        }
      ],
      "stateMutability": "view",
      "type": "function"
    },
    {
      "inputs": [],
      "name": "coverCooldownPeriod",
      "outputs": [
        {
          "internalType": "uint256",
          "name": "",
          "type": "uint256"
        }
      ],
      "stateMutability": "view",
      "type": "function"
    },
    {
      "inputs": [
        {
          "internalType": "uint256",
          "name": "policyId",
          "type": "uint256"
        }
      ],
      "name": "getPendingIncreases",
      "outputs": [
        {
          "components": [
            {
              "internalType": "uint128",
              "name": "amount",
              "type": "uint128"
            },
            {
              "internalType": "uint128",
              "name": "activationTimestamp",
              "type": "uint128"
            },
            {
              "internalType": "uint256",
              "name": "nextNodeId",
              "type": "uint256"
            }
          ],
          "internalType": "struct PolicyManager.PendingIncreaseNode[]",
          "name": "",
          "type": "tuple[]"
        }
      ],
      "stateMutability": "view",
      "type": "function"
    },
    {
      "inputs": [
        {
          "internalType": "uint256",
          "name": "policyId",
          "type": "uint256"
        },
        {
          "internalType": "uint256",
          "name": "additionalCoverage",
          "type": "uint256"
        }
      ],
      "name": "increaseCover",
      "outputs": [],
      "stateMutability": "nonpayable",
      "type": "function"
    },
    {
      "inputs": [
        {
          "internalType": "uint256",
          "name": "policyId",
          "type": "uint256"
        }
      ],
      "name": "isPolicyActive",
      "outputs": [
        {
          "internalType": "bool",
          "name": "",
          "type": "bool"
        }
      ],
      "stateMutability": "view",
      "type": "function"
    },
    {
      "inputs": [
        {
          "internalType": "uint256",
          "name": "policyId",
          "type": "uint256"
        }
      ],
      "name": "lapsePolicy",
      "outputs": [],
      "stateMutability": "nonpayable",
      "type": "function"
    },
    {
      "inputs": [],
      "name": "owner",
      "outputs": [
        {
          "internalType": "address",
          "name": "",
          "type": "address"
        }
      ],
      "stateMutability": "view",
      "type": "function"
    },
    {
      "inputs": [
        {
          "internalType": "uint256",
          "name": "",
          "type": "uint256"
        }
      ],
      "name": "pendingCoverageSum",
      "outputs": [
        {
          "internalType": "uint256",
          "name": "",
          "type": "uint256"
        }
      ],
      "stateMutability": "view",
      "type": "function"
    },
    {
      "inputs": [
        {
          "internalType": "uint256",
          "name": "",
          "type": "uint256"
        }
      ],
      "name": "pendingIncreaseListHead",
      "outputs": [
        {
          "internalType": "uint256",
          "name": "",
          "type": "uint256"
        }
      ],
      "stateMutability": "view",
      "type": "function"
    },
    {
      "inputs": [],
      "name": "policyNFT",
      "outputs": [
        {
          "internalType": "contract IPolicyNFT",
          "name": "",
          "type": "address"
        }
      ],
      "stateMutability": "view",
      "type": "function"
    },
    {
      "inputs": [],
      "name": "poolRegistry",
      "outputs": [
        {
          "internalType": "contract IPoolRegistry",
          "name": "",
          "type": "address"
        }
      ],
      "stateMutability": "view",
      "type": "function"
    },
    {
      "inputs": [
        {
          "internalType": "uint256",
          "name": "poolId",
          "type": "uint256"
        },
        {
          "internalType": "uint256",
          "name": "coverageAmount",
          "type": "uint256"
        },
        {
          "internalType": "uint256",
          "name": "initialPremiumDeposit",
          "type": "uint256"
        }
      ],
      "name": "purchaseCover",
      "outputs": [
        {
          "internalType": "uint256",
          "name": "policyId",
          "type": "uint256"
        }
      ],
      "stateMutability": "nonpayable",
      "type": "function"
    },
    {
      "inputs": [],
      "name": "renounceOwnership",
      "outputs": [],
      "stateMutability": "nonpayable",
      "type": "function"
    },
    {
      "inputs": [],
      "name": "rewardDistributor",
      "outputs": [
        {
          "internalType": "contract IRewardDistributor",
          "name": "",
          "type": "address"
        }
      ],
      "stateMutability": "view",
      "type": "function"
    },
    {
      "inputs": [],
      "name": "riskManager",
      "outputs": [
        {
          "internalType": "contract IRiskManagerPMHook",
          "name": "",
          "type": "address"
        }
      ],
      "stateMutability": "view",
      "type": "function"
    },
    {
      "inputs": [
        {
          "internalType": "address",
          "name": "registry",
          "type": "address"
        },
        {
          "internalType": "address",
          "name": "capital",
          "type": "address"
        },
        {
          "internalType": "address",
          "name": "cat",
          "type": "address"
        },
        {
          "internalType": "address",
          "name": "rewards",
          "type": "address"
        },
        {
          "internalType": "address",
          "name": "rm",
          "type": "address"
        }
      ],
      "name": "setAddresses",
      "outputs": [],
      "stateMutability": "nonpayable",
      "type": "function"
    },
    {
      "inputs": [
        {
          "internalType": "address",
          "name": "catPoolAddress",
          "type": "address"
        }
      ],
      "name": "setCatPool",
      "outputs": [],
      "stateMutability": "nonpayable",
      "type": "function"
    },
    {
      "inputs": [
        {
          "internalType": "uint256",
          "name": "newBps",
          "type": "uint256"
        }
      ],
      "name": "setCatPremiumShareBps",
      "outputs": [],
      "stateMutability": "nonpayable",
      "type": "function"
    },
    {
      "inputs": [
        {
          "internalType": "uint256",
          "name": "newPeriod",
          "type": "uint256"
        }
      ],
      "name": "setCoverCooldownPeriod",
      "outputs": [],
      "stateMutability": "nonpayable",
      "type": "function"
    },
    {
      "inputs": [
        {
          "internalType": "address",
          "name": "newOwner",
          "type": "address"
        }
      ],
      "name": "transferOwnership",
      "outputs": [],
      "stateMutability": "nonpayable",
      "type": "function"
    }
  ],
  "bytecode": "0x60a0346200012e57601f620023cb38819003918201601f19168301916001600160401b03831184841017620001335780849260409485528339810103126200012e5760206200004e8262000149565b916001600160a01b0391829162000066910162000149565b169182156200011557600080546001600160a01b03198116851782556040519491908416907f8be0079c531659141344cd1fd0a4f28419497f9722a3daafe3b4186f6b6457e09080a36001805560006002556107d06008556001600c551660805261226c90816200015f8239608051818181610326015281816107e201528181610a2a01528181610bd6015281816111cc015281816115b4015281816118940152818161195e0152611cda0152f35b604051631e4fbdf760e01b815260006004820152602490fd5b600080fd5b634e487b7160e01b600052604160045260246000fd5b51906001600160a01b03821682036200012e5756fe6040608081526004908136101561001557600080fd5b60009160e08335811c908163051b1b861461101d5781630e38502e14610ff55781631e1ac65814610e6f578163249d39e914610e515781634784266314610e285781635bfb750814610e005781635c9244af14610dd75781635dd68acd14610ca35781635ed99faa14610c835781636357ed4c14610b72578163715018a614610b0c578163795110ad14610aec5781638da5cb5b14610ac55781639a23dfee14610a77578163acc2166a14610a4e578163af02808a14610a09578163afcff50f146109e0578163b77b9409146107ac578163bd8afa461461077f578163cb5cf0b41461075b578163dccb2a6414610733578163ee62d0ed146102d757508063f290cc8d14610270578063f2fde38b146101c15763f8fee5301461013757600080fd5b346101bd5760203660031901126101bd576001600160a01b03610158611395565b610160611755565b169182156101b05750508073ffffffffffffffffffffffffffffffffffffffff1960055416176005557f82283d6ce7728636b4d495b6b9fc94bc0a15f2a0ab79c8080e5ca70d086986678280a280f35b51630537d15b60e41b8152fd5b8280fd5b50346101bd5760203660031901126101bd576101db611395565b906101e4611755565b6001600160a01b038092169283156102415750506000548273ffffffffffffffffffffffffffffffffffffffff19821617600055167f8be0079c531659141344cd1fd0a4f28419497f9722a3daafe3b4186f6b6457e0600080a380f35b908460249251917f1e4fbdf7000000000000000000000000000000000000000000000000000000008352820152fd5b5090346101bd5760203660031901126101bd5781359161028e611755565b61138883116102c95750816020917f7ee75ea44b8cd36081f59e6b26f858207321eda7fb20a6db6e7e7ade1ee78e549360085551908152a180f35b905163162908e360e11b8152fd5b84915083346101bd57806003193601126101bd57833591602435906102fa61171a565b6001600160a01b03958660035416156107255782158015610715575b6107075761032385611799565b867f000000000000000000000000000000000000000000000000000000000000000016968451976331a9108f60e11b895286838a01526020988981602481855afa9081156106fd5789916106c4575b5082339116036106b55761038587611582565b1561068d5760c0602491875192838092632b07fce360e01b82528b888301525afa908115610683578891610654575b508051156106455781600354168982019480865160248a518095819363d21c87ad60e01b83528a8301525afa90811561063b578a918b938c928d92610602575b50506105f3578181106105e5575050885b888a52600b8b52878a2054816104248961041f848761170d565b61170d565b116105d6579161044b610451926104438a61041f88976080995161170d565b928951611ab0565b90611c31565b906001600160801b03928391015116106105c75790868560018b8b7fffffffffffffffffffffffffffffffff000000000000000000000000000000008b99989761049d6002544261170d565b9a8b93600c54986104ad8a61142c565b600c55815260098652600a82822054968484519a6104ca8c6113da565b168a5284818b0197168752838a019788528a83525220955116915160801b161783555191015587895260098a5286892055600b895285882061050d86825461170d565b905560075416915190823b156105c35790606488928388519586948593632e949fcf60e11b8552840152886024840152600160448401525af180156105b957610586575b507f3943b1ec0048c24179d32e527b9ddafa79654512abcaaad09efac8d43669b3319394958351928352820152a26001805580f35b946105b27f3943b1ec0048c24179d32e527b9ddafa79654512abcaaad09efac8d43669b33195966113b0565b9493610551565b84513d88823e3d90fd5b8780fd5b828651632b7786bd60e21b8152fd5b858951632e77ac1d60e11b8152fd5b6105ee91611562565b610405565b85895163146f5dc360e21b8152fd5b92509250506106269250803d10610634575b61061e81836113f6565b810190611518565b509294509091508d806103f4565b503d610614565b88513d8c823e3d90fd5b8286516353031cf560e01b8152fd5b610676915060c03d60c01161067c575b61066e81836113f6565b8101906114a7565b896103b4565b503d610664565b86513d8a823e3d90fd5b8286517f8966b51f000000000000000000000000000000000000000000000000000000008152fd5b82865163f9d492db60e01b8152fd5b90508981813d83116106f6575b6106db81836113f6565b810103126106f2576106ec90611418565b8a610372565b8880fd5b503d6106d1565b87513d8b823e3d90fd5b835163162908e360e11b8152fd5b506001600160801b038311610316565b8351630537d15b60e41b8152fd5b5050346101bd5760203660031901126101bd5760209282913581526009845220549051908152f35b5050503461077b578160031936011261077b576020906002549051908152f35b5080fd5b505091346107a95760203660031901126107a957506107a060209235611582565b90519015158152f35b80fd5b505090346101bd57602080600319360112610916578235906107cc61171a565b6001600160a01b03918260035416156109d057827f00000000000000000000000000000000000000000000000000000000000000001684516331a9108f60e11b815282878201528381602481855afa90811561068357889161099b575b50843391160361098c579060c060249261084283611799565b865193848092632b07fce360e01b8252858b8301525afa918215610982578792610961575b50815115610952576060820151421061092a579061088781608093611932565b01906001600160801b0392838351166108a3575b866001805580f35b8190865416855196878092631c56369f60e21b82525afa938415610921575085936108e4575b506108d993505116903390611a4a565b38808080808061089b565b90925083813d831161091a575b6108fb81836113f6565b810103126109165761090f6108d993611418565b91386108c9565b8380fd5b503d6108f1565b513d87823e3d90fd5b8585517faa9a98df000000000000000000000000000000000000000000000000000000008152fd5b8585516353031cf560e01b8152fd5b61097b91925060c03d60c01161067c5761066e81836113f6565b9038610867565b85513d89823e3d90fd5b85855163f9d492db60e01b8152fd5b90508381813d83116109c9575b6109b281836113f6565b810103126105c3576109c390611418565b38610829565b503d6109a8565b50505051630537d15b60e41b8152fd5b5050503461077b578160031936011261077b576020906001600160a01b03600354169051908152f35b5050503461077b578160031936011261077b57602090516001600160a01b037f0000000000000000000000000000000000000000000000000000000000000000168152f35b5050503461077b578160031936011261077b576020906001600160a01b03600654169051908152f35b5050346101bd5760203660031901126101bd577f6a638c2eecc402883653d67e472b048065b35be8e4dfe5ac805d9026bdb4ffa6916020913590610ab9611755565b8160025551908152a180f35b5050503461077b578160031936011261077b576001600160a01b0360209254169051908152f35b5050503461077b578160031936011261077b576020906008549051908152f35b84346107a957806003193601126107a957610b25611755565b806001600160a01b03815473ffffffffffffffffffffffffffffffffffffffff1981168355167f8be0079c531659141344cd1fd0a4f28419497f9722a3daafe3b4186f6b6457e08280a380f35b505091346107a95760203660031901126107a9578235610b9061171a565b6001600160a01b038060035416156109d057610bab82611799565b610bb482611582565b610c5a579260c060249394825194858092632b07fce360e01b8252868a8301527f0000000000000000000000000000000000000000000000000000000000000000165afa928315610c50578493610c2f575b50825115610c20575090610c1991611932565b6001805580f35b8490516353031cf560e01b8152fd5b610c4991935060c03d60c01161067c5761066e81836113f6565b9138610c06565b81513d86823e3d90fd5b505050517fb84876ad000000000000000000000000000000000000000000000000000000008152fd5b5050503461077b578160031936011261077b57602090516301e133808152f35b5050346101bd5760a03660031901126101bd57610cbe611395565b90602435916001600160a01b0393848416809403610dd35760443592858416809403610dcf57606435958087168097036105c357608435938185168095036106f257610d08611755565b169384158015610dc7575b8015610dbf575b8015610db7575b8015610daf575b610da05791837f04bae238acbca2674eaa41a0c1c5d4e1f2a7e2b094e9200694e1017ffe38ab35949260209473ffffffffffffffffffffffffffffffffffffffff199188836003541617600355898382541617905581600554161760055588816006541617600655600754161760075551908152a480f35b509051630537d15b60e41b8152fd5b508315610d28565b508615610d21565b508015610d1a565b508515610d13565b8680fd5b8580fd5b5050503461077b578160031936011261077b576020906001600160a01b03600554169051908152f35b505091346107a957806003193601126107a957506001600160a01b0360209254169051908152f35b5050503461077b578160031936011261077b576020906001600160a01b03600754169051908152f35b5050503461077b578160031936011261077b57602090516127108152f35b505091346107a9576020928360031936011261077b573592818483526009825283832054905b81151580610feb575b15610ec057610eac9061142c565b908352600a82526001848420015490610e95565b8592939150610ece81611451565b92610edb865194856113f6565b818452610ee782611451565b601f190185845b828110610fc5575050508252600984528482205482905b828210610f6657505050835192808401908085528351809252808686019401925b828110610f335785850386f35b835180516001600160801b0390811687528184015116868401528701518786015260609094019392810192600101610f26565b806001918552600a808852888620918951610f80816113da565b83546001600160801b038116825260801c8a82015284809401548b820152610fa8868a611469565b52610fb38589611469565b50865287528785200154910190610f05565b8851610fd0816113da565b8681528683820152868a820152828289010152018690610eee565b5060328110610e9e565b5050346101bd5760203660031901126101bd576020928291358152600b845220549051908152f35b828486346107a95760603660031901126107a9578235906024918235946044359561104661171a565b6001600160a01b038060035416988915611386578215801561137e575b61136f576001600160801b03998a8a1161136057908088928a519384809263d21c87ad60e01b82528a8a8301525afa908115611356578791889389928a9261132d575b505061131e5781811061130f57505085905b816110c3858361170d565b11611300576110dc916110d69187611ab0565b83611c31565b88106112f1576110ee6002544261170d565b9881845416998851809b631c56369f60e21b8252818760209e8f935afa9081156112e75788916112b2575b508951907f23b872dd000000000000000000000000000000000000000000000000000000008d830152338a8301523060448301528b60648301526064825260a0820182811067ffffffffffffffff8211176112a0578b5261117a9190611c5b565b8189519a7f342edd7e000000000000000000000000000000000000000000000000000000008c5233878d0152878a8d01528560448d01528260648d01521660848b01521660a4890152888860c48188857f0000000000000000000000000000000000000000000000000000000000000000165af1978815611296578598611267575b506007541690813b1561126357918460649281959489519889968795632e949fcf60e11b8752860152840152600160448401525af19081156112585750611249575b506001805551908152f35b611252906113b0565b8361123e565b8351903d90823e3d90fd5b8480fd5b9097508881813d831161128f575b61127f81836113f6565b81010312611263575196896111fc565b503d611275565b87513d87823e3d90fd5b8a8a60418a634e487b7160e01b835252fd5b90508b81813d83116112e0575b6112c981836113f6565b810103126105c3576112da90611418565b8c611119565b503d6112bf565b8a513d8a823e3d90fd5b828751632b7786bd60e21b8152fd5b848951632e77ac1d60e11b8152fd5b61131891611562565b906110b8565b858a5163146f5dc360e21b8152fd5b92509250506113489250803d106106345761061e81836113f6565b509294509091508d806110a6565b89513d89823e3d90fd5b84895163162908e360e11b8152fd5b83885163162908e360e11b8152fd5b508815611063565b838851630537d15b60e41b8152fd5b600435906001600160a01b03821682036113ab57565b600080fd5b67ffffffffffffffff81116113c457604052565b634e487b7160e01b600052604160045260246000fd5b6060810190811067ffffffffffffffff8211176113c457604052565b90601f8019910116810190811067ffffffffffffffff8211176113c457604052565b51906001600160a01b03821682036113ab57565b600019811461143b5760010190565b634e487b7160e01b600052601160045260246000fd5b67ffffffffffffffff81116113c45760051b60200190565b805182101561147d5760209160051b010190565b634e487b7160e01b600052603260045260246000fd5b51906001600160801b03821682036113ab57565b908160c09103126113ab576040519060c0820182811067ffffffffffffffff8211176113c4576115109160a0916040528051845260208101516020850152604081015160408501526060810151606085015261150560808201611493565b608085015201611493565b60a082015290565b908160e09103126113ab5761152c81611418565b91602082015191604081015191606082015191608081015180151581036113ab579160c061155c60a08401611418565b92015190565b9190820391821161143b57565b8181029291811591840414171561143b57565b6001600160a01b039081600354169081156117055760c090602460405180958193632b07fce360e01b835260048301527f0000000000000000000000000000000000000000000000000000000000000000165afa9182156116d1576000926116e4575b508151156116dd5760a082016001600160801b03918282511642111561168d576020840160e0815160246040518095819363d21c87ad60e01b835260048301525afa9182156116d157611654926000906000926000916116a9575b5081811061169a5750506000915b51611ab0565b90811561168d5761168460809261167f6116778664496cebb80095511642611562565b91875161156f565b61156f565b04920151161190565b5050906080015116151590565b6116a391611562565b9161164e565b9150506116c5915060e03d60e0116106345761061e81836113f6565b50505092509138611640565b6040513d6000823e3d90fd5b5050600090565b6116fe91925060c03d60c01161067c5761066e81836113f6565b90386115e5565b505050600090565b9190820180921161143b57565b60026001541461172b576002600155565b60046040517f3ee5aeb5000000000000000000000000000000000000000000000000000000008152fd5b6001600160a01b0360005416330361176957565b60246040517f118cdaa7000000000000000000000000000000000000000000000000000000008152336004820152fd5b600081815260096020818152604080842054929594849384939084905b80151580611928575b1561186b57808752600a90818452858820916001918c8385015494548060801c42101560001461185a57918b93916118066001600160801b0361184198979516809d61170d565b9b8a8652600b8a5261181c8c8720918254611562565b90558d611847578985528852848a8520555b8352865287822082815501555b9161142c565b906117b6565b508c845281885284838b8620015561182e565b50509150506118419198509761183b565b505050935090945084611888575b5050611886919250611ccf565b565b81946001600160a01b037f000000000000000000000000000000000000000000000000000000000000000016803b156109165760448492845195869384927f31c0191600000000000000000000000000000000000000000000000000000000845289600485015260248401525af190811561191f5750611886939450611910575b8392611879565b611919906113b0565b38611909565b513d86823e3d90fd5b50603282106117bf565b9061193c826120f4565b9061194b81519260009361170d565b806119e8575b5050906001600160a01b037f00000000000000000000000000000000000000000000000000000000000000001690813b156101bd5782916024839260405194859384927f42966c6800000000000000000000000000000000000000000000000000000000845260048401525af180156119dd576119cc575050565b6119d682916113b0565b6107a95750565b6040513d84823e3d90fd5b60206001600160a01b0360075416920151823b15610916579060648492836040519586948593632e949fcf60e11b8552600485015260248401528160448401525af180156119dd57611a3b575b80611951565b611a44906113b0565b38611a35565b916001600160a01b03604051927fa9059cbb000000000000000000000000000000000000000000000000000000006020850152166024830152604482015260448152608081019181831067ffffffffffffffff8411176113c45761188692604052611c5b565b91906001600160a01b036003541691608060409460248651809681937fb75adf9400000000000000000000000000000000000000000000000000000000835260048301525afa928315611c2657600093611ba0575b508015611b8157612710918281029080820484149015171561143b570492606083019081518510600014611b53575050611b49611b5093602084519401519061156f565b049061170d565b90565b92611b499193611b78611b5096611b70845160208601519061170d565b965190611562565b9101519061156f565b5050611b5091611b97825160208401519061170d565b9101519061170d565b6080939193813d608011611c1e575b81611bbc608093836113f6565b8101031261077b57845191608083019083821067ffffffffffffffff831117611c0a575090606091865280518352602081015160208401528581015186840152015160608201529138611b05565b80634e487b7160e01b602492526041600452fd5b3d9150611baf565b84513d6000823e3d90fd5b90611c3b9161156f565b62093a809081810291818304149015171561143b5764496cebb800900490565b906000602091828151910182855af1156116d1576000513d611cc657506001600160a01b0381163b155b611c8c5750565b6024906001600160a01b03604051917f5274afe7000000000000000000000000000000000000000000000000000000008352166004820152fd5b60011415611c85565b6001600160a01b03807f000000000000000000000000000000000000000000000000000000000000000016604090815192632b07fce360e01b8452600490600095808387015260c086602481875afa9586156109825787966120d3575b506001600160801b03938460a0880151164211156120c957611d4d8761219c565b509460808801818151169687808210911802871896600188106120565750611d79878380935116611562565b1690823b1561205257875163012aa6c360e01b81528681019485526001600160801b03928316602086015242909116919091166040840152918891839182908490829060600103925af180156109825761203f575b5060208095015192611df0612710611de86008548461156f565b048092611562565b9080611f65575b5080611e07575b50505050505050565b60249060e0836003541687519384809263d21c87ad60e01b825289898301525afa918215610683578892611f3d575b5081611e43575b50611dfe565b838784825416885192838092631c56369f60e21b82525afa9788156106fd578998611f05575b5050611e7a81846006541689611a4a565b826006541692833b156106f2579288959492869260849589519a8b9889977ffc967542000000000000000000000000000000000000000000000000000000008952880152166024860152604485015260648401525af1908115611efc5750611ee8575b808080808080611e3d565b611ef282916113b0565b6107a95780611edd565b513d84823e3d90fd5b9080929850813d8311611f36575b611f1d81836113f6565b810103126105c357611f2e90611418565b953880611e69565b503d611f13565b611f5791925060e03d60e0116106345761061e81836113f6565b505050505090509038611e36565b838784825416885192838092631c56369f60e21b82525afa80156106fd5782908a90612007575b611f9c9250856005541690611a4a565b826005541690813b156106f257889160248392895194859384927f142ca5560000000000000000000000000000000000000000000000000000000084528a8401525af1801561068357908891611ff3575b50611df7565b611ffc906113b0565b610dcf578638611fed565b50508781813d8311612038575b61201e81836113f6565b810103126106f25781612033611f9c92611418565b611f8c565b503d612014565b61204b909691966113b0565b9438611dce565b8980fd5b9650509192508093979596503b1561126357855163012aa6c360e01b81529687019182526001600160801b03938416602083015242169092166040830152829185919082908490829060600103925af19182156120bf5750506120b65750565b611886906113b0565b51903d90823e3d90fd5b5050505050505050565b6120ed91965060c03d60c01161067c5761066e81836113f6565b9438611d2c565b906000828152602092600b602052604090818320549485156121945783600960205283852054805b61213957505050825260096020528181812055600b602052812055565b603282101561216b579061216492918652600a8252848620866001820181815493555592839161142c565b919261211c565b600485517f39017a2a000000000000000000000000000000000000000000000000000000008152fd5b509193505050565b6001600160a01b03600354166020820160e0815160246040518095819363d21c87ad60e01b835260048301525afa9182156116d1576121f5926000906000926000916116a9575081811061169a57505060009151611ab0565b90811561222c576122288161167f846122216001600160801b0360a064496cebb8009701511642611562565b925161156f565b0491565b505060009060009056fea264697066735822122028a4b8aa4d6d4050248640b43ff2ac25d38d2133d49173db6bf00d60d7d323a564736f6c63430008160033",
  "linkReferences": {},
  "deployedLinkReferences": {}
}