{
  "_format": "hh-sol-artifact-1",
  "contractName": "PolicyNFT",
  "sourceName": "contracts/tokens/PolicyNFT.sol",
  "abi": [
    {
      "inputs": [
        {
          "internalType": "address",
          "name": "_initialPolicyManager",
          "type": "address"
        },
        {
          "internalType": "address",
          "name": "initialOwner",
          "type": "address"
        }
      ],
      "stateMutability": "nonpayable",
      "type": "constructor"
    },
    {
      "inputs": [
        {
          "internalType": "address",
          "name": "sender",
          "type": "address"
        },
        {
          "internalType": "uint256",
          "name": "tokenId",
          "type": "uint256"
        },
        {
          "internalType": "address",
          "name": "owner",
          "type": "address"
        }
      ],
      "name": "ERC721IncorrectOwner",
      "type": "error"
    },
    {
      "inputs": [
        {
          "internalType": "address",
          "name": "operator",
          "type": "address"
        },
        {
          "internalType": "uint256",
          "name": "tokenId",
          "type": "uint256"
        }
      ],
      "name": "ERC721InsufficientApproval",
      "type": "error"
    },
    {
      "inputs": [
        {
          "internalType": "address",
          "name": "approver",
          "type": "address"
        }
      ],
      "name": "ERC721InvalidApprover",
      "type": "error"
    },
    {
      "inputs": [
        {
          "internalType": "address",
          "name": "operator",
          "type": "address"
        }
      ],
      "name": "ERC721InvalidOperator",
      "type": "error"
    },
    {
      "inputs": [
        {
          "internalType": "address",
          "name": "owner",
          "type": "address"
        }
      ],
      "name": "ERC721InvalidOwner",
      "type": "error"
    },
    {
      "inputs": [
        {
          "internalType": "address",
          "name": "receiver",
          "type": "address"
        }
      ],
      "name": "ERC721InvalidReceiver",
      "type": "error"
    },
    {
      "inputs": [
        {
          "internalType": "address",
          "name": "sender",
          "type": "address"
        }
      ],
      "name": "ERC721InvalidSender",
      "type": "error"
    },
    {
      "inputs": [
        {
          "internalType": "uint256",
          "name": "tokenId",
          "type": "uint256"
        }
      ],
      "name": "ERC721NonexistentToken",
      "type": "error"
    },
    {
      "inputs": [
        {
          "internalType": "address",
          "name": "owner",
          "type": "address"
        }
      ],
      "name": "OwnableInvalidOwner",
      "type": "error"
    },
    {
      "inputs": [
        {
          "internalType": "address",
          "name": "account",
          "type": "address"
        }
      ],
      "name": "OwnableUnauthorizedAccount",
      "type": "error"
    },
    {
      "anonymous": false,
      "inputs": [
        {
          "indexed": true,
          "internalType": "address",
          "name": "owner",
          "type": "address"
        },
        {
          "indexed": true,
          "internalType": "address",
          "name": "approved",
          "type": "address"
        },
        {
          "indexed": true,
          "internalType": "uint256",
          "name": "tokenId",
          "type": "uint256"
        }
      ],
      "name": "Approval",
      "type": "event"
    },
    {
      "anonymous": false,
      "inputs": [
        {
          "indexed": true,
          "internalType": "address",
          "name": "owner",
          "type": "address"
        },
        {
          "indexed": true,
          "internalType": "address",
          "name": "operator",
          "type": "address"
        },
        {
          "indexed": false,
          "internalType": "bool",
          "name": "approved",
          "type": "bool"
        }
      ],
      "name": "ApprovalForAll",
      "type": "event"
    },
    {
      "anonymous": false,
      "inputs": [
        {
          "indexed": false,
          "internalType": "uint256",
          "name": "_fromTokenId",
          "type": "uint256"
        },
        {
          "indexed": false,
          "internalType": "uint256",
          "name": "_toTokenId",
          "type": "uint256"
        }
      ],
      "name": "BatchMetadataUpdate",
      "type": "event"
    },
    {
      "anonymous": false,
      "inputs": [
        {
          "indexed": false,
          "internalType": "uint256",
          "name": "_tokenId",
          "type": "uint256"
        }
      ],
      "name": "MetadataUpdate",
      "type": "event"
    },
    {
      "anonymous": false,
      "inputs": [
        {
          "indexed": true,
          "internalType": "address",
          "name": "previousOwner",
          "type": "address"
        },
        {
          "indexed": true,
          "internalType": "address",
          "name": "newOwner",
          "type": "address"
        }
      ],
      "name": "OwnershipTransferred",
      "type": "event"
    },
    {
      "anonymous": false,
      "inputs": [
        {
          "indexed": true,
          "internalType": "uint256",
          "name": "policyId",
          "type": "uint256"
        }
      ],
      "name": "PolicyBurned",
      "type": "event"
    },
    {
      "anonymous": false,
      "inputs": [
        {
          "indexed": true,
          "internalType": "uint256",
          "name": "policyId",
          "type": "uint256"
        },
        {
          "indexed": false,
          "internalType": "uint256",
          "name": "newTotalCoverage",
          "type": "uint256"
        }
      ],
      "name": "PolicyCoverageIncreased",
      "type": "event"
    },
    {
      "anonymous": false,
      "inputs": [
        {
          "indexed": true,
          "internalType": "uint256",
          "name": "policyId",
          "type": "uint256"
        },
        {
          "indexed": false,
          "internalType": "uint256",
          "name": "newTotalCoverage",
          "type": "uint256"
        }
      ],
      "name": "PolicyCoverageReduced",
      "type": "event"
    },
    {
      "anonymous": false,
      "inputs": [
        {
          "indexed": true,
          "internalType": "address",
          "name": "newPolicyManagerAddress",
          "type": "address"
        }
      ],
      "name": "PolicyManagerAddressSet",
      "type": "event"
    },
    {
      "anonymous": false,
      "inputs": [
        {
          "indexed": true,
          "internalType": "address",
          "name": "owner",
          "type": "address"
        },
        {
          "indexed": true,
          "internalType": "uint256",
          "name": "policyId",
          "type": "uint256"
        }
      ],
      "name": "PolicyMinted",
      "type": "event"
    },
    {
      "anonymous": false,
      "inputs": [
        {
          "indexed": true,
          "internalType": "uint256",
          "name": "policyId",
          "type": "uint256"
        },
        {
          "indexed": false,
          "internalType": "uint128",
          "name": "newDeposit",
          "type": "uint128"
        },
        {
          "indexed": false,
          "internalType": "uint128",
          "name": "newDrainTime",
          "type": "uint128"
        }
      ],
      "name": "PolicyPremiumAccountUpdated",
      "type": "event"
    },
    {
      "anonymous": false,
      "inputs": [
        {
          "indexed": true,
          "internalType": "uint256",
          "name": "policyId",
          "type": "uint256"
        }
      ],
      "name": "PolicyUpdated",
      "type": "event"
    },
    {
      "anonymous": false,
      "inputs": [
        {
          "indexed": true,
          "internalType": "address",
          "name": "newRiskManagerAddress",
          "type": "address"
        }
      ],
      "name": "RiskManagerAddressSet",
      "type": "event"
    },
    {
      "anonymous": false,
      "inputs": [
        {
          "indexed": true,
          "internalType": "address",
          "name": "from",
          "type": "address"
        },
        {
          "indexed": true,
          "internalType": "address",
          "name": "to",
          "type": "address"
        },
        {
          "indexed": true,
          "internalType": "uint256",
          "name": "tokenId",
          "type": "uint256"
        }
      ],
      "name": "Transfer",
      "type": "event"
    },
    {
      "inputs": [
        {
          "internalType": "address",
          "name": "to",
          "type": "address"
        },
        {
          "internalType": "uint256",
          "name": "tokenId",
          "type": "uint256"
        }
      ],
      "name": "approve",
      "outputs": [],
      "stateMutability": "nonpayable",
      "type": "function"
    },
    {
      "inputs": [
        {
          "internalType": "address",
          "name": "owner",
          "type": "address"
        }
      ],
      "name": "balanceOf",
      "outputs": [
        {
          "internalType": "uint256",
          "name": "",
          "type": "uint256"
        }
      ],
      "stateMutability": "view",
      "type": "function"
    },
    {
      "inputs": [
        {
          "internalType": "uint256",
          "name": "id",
          "type": "uint256"
        }
      ],
      "name": "burn",
      "outputs": [],
      "stateMutability": "nonpayable",
      "type": "function"
    },
    {
      "inputs": [
        {
          "internalType": "uint256",
          "name": "id",
          "type": "uint256"
        },
        {
          "internalType": "uint256",
          "name": "totalAmountToAdd",
          "type": "uint256"
        }
      ],
      "name": "finalizeIncreases",
      "outputs": [],
      "stateMutability": "nonpayable",
      "type": "function"
    },
    {
      "inputs": [
        {
          "internalType": "uint256",
          "name": "tokenId",
          "type": "uint256"
        }
      ],
      "name": "getApproved",
      "outputs": [
        {
          "internalType": "address",
          "name": "",
          "type": "address"
        }
      ],
      "stateMutability": "view",
      "type": "function"
    },
    {
      "inputs": [
        {
          "internalType": "uint256",
          "name": "id",
          "type": "uint256"
        }
      ],
      "name": "getPolicy",
      "outputs": [
        {
          "components": [
            {
              "internalType": "uint256",
              "name": "coverage",
              "type": "uint256"
            },
            {
              "internalType": "uint256",
              "name": "poolId",
              "type": "uint256"
            },
            {
              "internalType": "uint256",
              "name": "start",
              "type": "uint256"
            },
            {
              "internalType": "uint256",
              "name": "activation",
              "type": "uint256"
            },
            {
              "internalType": "uint128",
              "name": "premiumDeposit",
              "type": "uint128"
            },
            {
              "internalType": "uint128",
              "name": "lastDrainTime",
              "type": "uint128"
            }
          ],
          "internalType": "struct IPolicyNFT.Policy",
          "name": "",
          "type": "tuple"
        }
      ],
      "stateMutability": "view",
      "type": "function"
    },
    {
      "inputs": [
        {
          "internalType": "address",
          "name": "owner",
          "type": "address"
        },
        {
          "internalType": "address",
          "name": "operator",
          "type": "address"
        }
      ],
      "name": "isApprovedForAll",
      "outputs": [
        {
          "internalType": "bool",
          "name": "",
          "type": "bool"
        }
      ],
      "stateMutability": "view",
      "type": "function"
    },
    {
      "inputs": [
        {
          "internalType": "address",
          "name": "to",
          "type": "address"
        },
        {
          "internalType": "uint256",
          "name": "pid",
          "type": "uint256"
        },
        {
          "internalType": "uint256",
          "name": "coverage",
          "type": "uint256"
        },
        {
          "internalType": "uint256",
          "name": "activation",
          "type": "uint256"
        },
        {
          "internalType": "uint128",
          "name": "premiumDeposit",
          "type": "uint128"
        },
        {
          "internalType": "uint128",
          "name": "lastDrainTime",
          "type": "uint128"
        }
      ],
      "name": "mint",
      "outputs": [
        {
          "internalType": "uint256",
          "name": "id",
          "type": "uint256"
        }
      ],
      "stateMutability": "nonpayable",
      "type": "function"
    },
    {
      "inputs": [],
      "name": "name",
      "outputs": [
        {
          "internalType": "string",
          "name": "",
          "type": "string"
        }
      ],
      "stateMutability": "view",
      "type": "function"
    },
    {
      "inputs": [],
      "name": "nextId",
      "outputs": [
        {
          "internalType": "uint256",
          "name": "",
          "type": "uint256"
        }
      ],
      "stateMutability": "view",
      "type": "function"
    },
    {
      "inputs": [],
      "name": "owner",
      "outputs": [
        {
          "internalType": "address",
          "name": "",
          "type": "address"
        }
      ],
      "stateMutability": "view",
      "type": "function"
    },
    {
      "inputs": [
        {
          "internalType": "uint256",
          "name": "id",
          "type": "uint256"
        }
      ],
      "name": "ownerOf",
      "outputs": [
        {
          "internalType": "address",
          "name": "",
          "type": "address"
        }
      ],
      "stateMutability": "view",
      "type": "function"
    },
    {
      "inputs": [
        {
          "internalType": "uint256",
          "name": "",
          "type": "uint256"
        }
      ],
      "name": "policies",
      "outputs": [
        {
          "internalType": "uint256",
          "name": "coverage",
          "type": "uint256"
        },
        {
          "internalType": "uint256",
          "name": "poolId",
          "type": "uint256"
        },
        {
          "internalType": "uint256",
          "name": "start",
          "type": "uint256"
        },
        {
          "internalType": "uint256",
          "name": "activation",
          "type": "uint256"
        },
        {
          "internalType": "uint128",
          "name": "premiumDeposit",
          "type": "uint128"
        },
        {
          "internalType": "uint128",
          "name": "lastDrainTime",
          "type": "uint128"
        }
      ],
      "stateMutability": "view",
      "type": "function"
    },
    {
      "inputs": [],
      "name": "policyManagerContract",
      "outputs": [
        {
          "internalType": "address",
          "name": "",
          "type": "address"
        }
      ],
      "stateMutability": "view",
      "type": "function"
    },
    {
      "inputs": [
        {
          "internalType": "uint256",
          "name": "id",
          "type": "uint256"
        },
        {
          "internalType": "uint256",
          "name": "reductionAmount",
          "type": "uint256"
        }
      ],
      "name": "reduceCoverage",
      "outputs": [],
      "stateMutability": "nonpayable",
      "type": "function"
    },
    {
      "inputs": [],
      "name": "renounceOwnership",
      "outputs": [],
      "stateMutability": "nonpayable",
      "type": "function"
    },
    {
      "inputs": [],
      "name": "riskManagerContract",
      "outputs": [
        {
          "internalType": "address",
          "name": "",
          "type": "address"
        }
      ],
      "stateMutability": "view",
      "type": "function"
    },
    {
      "inputs": [
        {
          "internalType": "address",
          "name": "from",
          "type": "address"
        },
        {
          "internalType": "address",
          "name": "to",
          "type": "address"
        },
        {
          "internalType": "uint256",
          "name": "tokenId",
          "type": "uint256"
        }
      ],
      "name": "safeTransferFrom",
      "outputs": [],
      "stateMutability": "nonpayable",
      "type": "function"
    },
    {
      "inputs": [
        {
          "internalType": "address",
          "name": "from",
          "type": "address"
        },
        {
          "internalType": "address",
          "name": "to",
          "type": "address"
        },
        {
          "internalType": "uint256",
          "name": "tokenId",
          "type": "uint256"
        },
        {
          "internalType": "bytes",
          "name": "data",
          "type": "bytes"
        }
      ],
      "name": "safeTransferFrom",
      "outputs": [],
      "stateMutability": "nonpayable",
      "type": "function"
    },
    {
      "inputs": [
        {
          "internalType": "address",
          "name": "operator",
          "type": "address"
        },
        {
          "internalType": "bool",
          "name": "approved",
          "type": "bool"
        }
      ],
      "name": "setApprovalForAll",
      "outputs": [],
      "stateMutability": "nonpayable",
      "type": "function"
    },
    {
      "inputs": [
        {
          "internalType": "address",
          "name": "newPolicyManagerAddress",
          "type": "address"
        }
      ],
      "name": "setPolicyManager",
      "outputs": [],
      "stateMutability": "nonpayable",
      "type": "function"
    },
    {
      "inputs": [
        {
          "internalType": "address",
          "name": "newRiskManagerAddress",
          "type": "address"
        }
      ],
      "name": "setRiskManager",
      "outputs": [],
      "stateMutability": "nonpayable",
      "type": "function"
    },
    {
      "inputs": [
        {
          "internalType": "bytes4",
          "name": "interfaceId",
          "type": "bytes4"
        }
      ],
      "name": "supportsInterface",
      "outputs": [
        {
          "internalType": "bool",
          "name": "",
          "type": "bool"
        }
      ],
      "stateMutability": "view",
      "type": "function"
    },
    {
      "inputs": [],
      "name": "symbol",
      "outputs": [
        {
          "internalType": "string",
          "name": "",
          "type": "string"
        }
      ],
      "stateMutability": "view",
      "type": "function"
    },
    {
      "inputs": [
        {
          "internalType": "uint256",
          "name": "tokenId",
          "type": "uint256"
        }
      ],
      "name": "tokenURI",
      "outputs": [
        {
          "internalType": "string",
          "name": "",
          "type": "string"
        }
      ],
      "stateMutability": "view",
      "type": "function"
    },
    {
      "inputs": [
        {
          "internalType": "address",
          "name": "from",
          "type": "address"
        },
        {
          "internalType": "address",
          "name": "to",
          "type": "address"
        },
        {
          "internalType": "uint256",
          "name": "tokenId",
          "type": "uint256"
        }
      ],
      "name": "transferFrom",
      "outputs": [],
      "stateMutability": "nonpayable",
      "type": "function"
    },
    {
      "inputs": [
        {
          "internalType": "address",
          "name": "newOwner",
          "type": "address"
        }
      ],
      "name": "transferOwnership",
      "outputs": [],
      "stateMutability": "nonpayable",
      "type": "function"
    },
    {
      "inputs": [
        {
          "internalType": "uint256",
          "name": "id",
          "type": "uint256"
        },
        {
          "internalType": "uint128",
          "name": "newDeposit",
          "type": "uint128"
        },
        {
          "internalType": "uint128",
          "name": "newDrainTime",
          "type": "uint128"
        }
      ],
      "name": "updatePremiumAccount",
      "outputs": [],
      "stateMutability": "nonpayable",
      "type": "function"
    }
  ],
  "bytecode": "0x608034620003ce57601f90601f19906001600160401b036200204b3881900385810185168401919083831185841017620003b8578085926040948552833981010312620003ce576200005182620003f3565b620000606020809401620003f3565b916200006b620003d3565b956006875265506f6c69637960d01b8588015262000088620003d3565b60068152652821a7ab22a960d11b86820152875195838711620003b85760009687549960019a8b81811c91168015620003ad575b84821014620003995790818684931162000346575b508390868311600114620002dc578a92620002d0575b5050600019600383901b1c1916908a1b1787555b8151938411620002bc578854978989811c99168015620002b1575b828a10146200029d5783891162000254575b878596979899505081938511600114620001ef5750508692620001e3575b5050600019600383901b1c191690851b1784555b6001600160a01b03918216938415620001ca57600780546001600160a01b03198082168817909255604051969195908516907f8be0079c531659141344cd1fd0a4f28419497f9722a3daafe3b4186f6b6457e09080a36008551690600a541617600a55611c429081620004098239f35b604051631e4fbdf760e01b815260048101859052602490fd5b01519050388062000146565b899593929193168589528389209389905b8282106200023a575050841162000220575b505050811b0184556200015a565b015160001960f88460031b161c1916905538808062000212565b8484015186558b9790950194938401939081019062000200565b89885281882084860160051c81019983871062000292575b850160051c01988a905b8a81106200028657505062000128565b898155018a9062000276565b90995089906200026c565b634e487b7160e01b88526022600452602488fd5b98607f169862000116565b634e487b7160e01b87526041600452602487fd5b015190503880620000e7565b908b8d9416918b8052858c20928c5b878282106200032657505084116200030c575b505050811b018755620000fb565b015160001960f88460031b161c19169055388080620002fe565b91929395968291958786015181550195019301908e9594939291620002eb565b909150898052838a208680850160051c8201928686106200038f575b918e91869594930160051c01915b82811062000380575050620000d1565b8c81558594508e910162000370565b9250819262000362565b634e487b7160e01b8a52602260045260248afd5b90607f1690620000bc565b634e487b7160e01b600052604160045260246000fd5b600080fd5b60408051919082016001600160401b03811183821017620003b857604052565b51906001600160a01b0382168203620003ce5756fe6040608081526004908136101561001557600080fd5b600091823560e01c8063012aa6c3146113bc57806301ffc9a7146112cd57806306fdde0314611200578063081812fc146111c7578063095ea7b3146110d457806323b872dd146110bc5780632b07fce314610fe957806331c0191614610eec578063342edd7e14610b5f5780633b6eef7814610b3757806342842e0e14610b0857806342966c68146109d757806360e0ca8f1461088a57806361b8ce8c1461086b57806362ca8460146107fc5780636352211e146107cc57806370a082311461075e578063715018a6146107035780638da5cb5b146106db57806395d89b41146105c1578063a22cb46514610507578063ab94fa31146104df578063adde41e11461046d578063b88d4fde146103d8578063c87b56dd146102b8578063d3e894831461024b578063e985e9c5146101f95763f2fde38b1461015557600080fd5b346101f55760203660031901126101f55761016e6114e9565b90610177611a81565b6001600160a01b038092169283156101c6575050600754826001600160a01b0319821617600755167f8be0079c531659141344cd1fd0a4f28419497f9722a3daafe3b4186f6b6457e08380a380f35b908460249251917f1e4fbdf7000000000000000000000000000000000000000000000000000000008352820152fd5b8280fd5b50503461024757806003193601126102475760ff816020936102196114e9565b610221611504565b6001600160a01b0391821683526005875283832091168252855220549151911615158152f35b5080fd5b5090346101f55760203660031901126101f5578060c093833581526009602052208054926001820154926002830154916003840154930154938151958652602086015284015260608301526fffffffffffffffffffffffffffffffff8116608083015260801c60a0820152f35b5091903461024757602090816003193601126101f55783356102d981611a46565b508352600682528083209281519381908054906001908260011c926001811680156103ce575b88851081146103bb57848a5289959493929189908215610394575050600114610356575b5050506103529392916103379103866115b3565b815161034281611597565b52519282849384528301906114a9565b0390f35b8552868520879350859291905b82841061037c5750505082010181610337610352610323565b8054848b018601528995508894909301928101610363565b60ff19168782015293151560051b8601909301935084925061033791506103529050610323565b60248760228d634e487b7160e01b835252fd5b93607f16936102ff565b5090346101f55760803660031901126101f5576103f36114e9565b6103fb611504565b60443591856064359567ffffffffffffffff87116102475736602388011215610247578601359561043761042e886115d5565b965196876115b3565b8686523660248883010111610247578661046a976024602093018389013786010152610464838383611744565b33611ac5565b80f35b83346104dc5760203660031901126104dc576001600160a01b0361048f6114e9565b610497611a81565b166104a38115156119d5565b806001600160a01b0319600a541617600a557f96ef4362498b0fa85c8625240e1d0ebcdd2ec5c981849e05d81705ed0720ad478280a280f35b80fd5b5050346102475781600319360112610247576020906001600160a01b03600a54169051908152f35b5090346101f557806003193601126101f5576105216114e9565b90602435918215158093036105bd576001600160a01b031692831561058f5750338452600560205280842083855260205280842060ff1981541660ff8416179055519081527f17307eab39ab6107e8899845ad3d59bd9653f200f220920489ca2b5937696c3160203392a380f35b8360249251917f5b08ba18000000000000000000000000000000000000000000000000000000008352820152fd5b8480fd5b5091346104dc57806003193601126104dc5781519181600192600154938460011c91600186169586156106d1575b60209687851081146106be578899509688969785829a52918260001461069757505060011461063b575b505050610352929161062c9103856115b3565b519282849384528301906114a9565b9190869350600183527fb10e2d527612073b26eecdfd717e6a320cf44b4afac2b0732d9fcbe2b7fa0cf65b82841061067f575050508201018161062c610352610619565b8054848a018601528895508794909301928101610666565b60ff19168782015293151560051b8601909301935084925061062c91506103529050610619565b60248360228c634e487b7160e01b835252fd5b92607f16926105ef565b5050346102475781600319360112610247576020906001600160a01b03600754169051908152f35b83346104dc57806003193601126104dc5761071c611a81565b806001600160a01b036007546001600160a01b03198116600755167f8be0079c531659141344cd1fd0a4f28419497f9722a3daafe3b4186f6b6457e08280a380f35b5091346104dc5760203660031901126104dc576001600160a01b036107816114e9565b1692831561079e5750806020938392526003845220549051908152f35b9060249251917f89c62b64000000000000000000000000000000000000000000000000000000008352820152fd5b5091346104dc5760203660031901126104dc57506001600160a01b036107f460209335611a46565b915191168152f35b83346104dc5760203660031901126104dc576001600160a01b0361081e6114e9565b610826611a81565b166108328115156119d5565b806001600160a01b0319600b541617600b557fdfd2967b9417925459cd79ae13c6dec37092beff03f9cd8ed4c3e687fe93d2e48280a280f35b5050346102475781600319360112610247576020906008549051908152f35b5090346101f55761089a3661154f565b9190926108d06001600160a01b0380600b541680158015906109ca575b6108c090611919565b33149081156109bc575b50611964565b8385526009602052818520906108eb600283015415156116d3565b831515806109b2575b15610949578154938403938411610936575091602091817f6dfa7dfaef4b81d3ef0bf5bf4e47eb1f40273f4080d1373e7407a9246d736b65945551908152a280f35b856011602492634e487b7160e01b835252fd5b608490602084519162461bcd60e51b8352820152602360248201527f506f6c6963794e46543a20496e76616c696420726564756374696f6e20616d6f60448201527f756e7400000000000000000000000000000000000000000000000000000000006064820152fd5b50815484106108f4565b9050600a54163314386108ca565b50600a54821615156108b7565b50829034610247576020366003190112610247578035926001600160a01b0380600b54168015801590610afb575b610a0e90611919565b33148015610aee575b610a2090611964565b8484526002602052818420541684848215928315610ab5575b82825260026020528482206001600160a01b031981541690557fddf252ad1be2c89b69c2b068fc378daa952ba7f163c4a11628f55a4df523b3ef8280a4610a9f578293835260096020528220828155826001820155826002820155826003820155015580f35b90836024925191637e27328960e01b8352820152fd5b610ad683600052600460205260406000206001600160a01b03198154169055565b80825260036020528482208054600019019055610a39565b50600a5481163314610a17565b50600a5482161515610a05565b5050346102475761046a90610b1c3661151a565b91925192610b2984611597565b858452610464838383611744565b5050346102475781600319360112610247576020906001600160a01b03600b54169051908152f35b50346101f55760c03660031901126101f557610b796114e9565b91602491608435906fffffffffffffffffffffffffffffffff90818316809303610ee85760a435968288168098036104dc576001600160a01b0395610bce87600a5416610bc78115156115f1565b3314611662565b6008549660001998898914610ed65760018901600855875190610bf082611597565b848252828116928315610ec1578a848b9282895260209e8f9160028352858b205416918215159560029287610e8a575b50848c52600382528b2060018154019055848b52528c8920826001600160a01b03198254161790557fddf252ad1be2c89b69c2b068fc378daa952ba7f163c4a11628f55a4df523b3ef8980a4610e5c573b610d2d575b50509280928992888a610d2798978a805194610c9186611565565b60443586528386019235835260098287019442865260608801966064358852608089019d8e5260a089019b8c528352522093518455516001840155516002830155516003820155019351166fffffffffffffffffffffffffffffffff1984541617835551166fffffffffffffffffffffffffffffffff6fffffffffffffffffffffffffffffffff1983549260801b169116179055565b51908152f35b93610d748a839a96859d948780869f9c999b988e5196879586948593630a85bd0160e11b9b8c865233908601528401528d60448401526080606484015260848301906114a9565b03925af1879181610e18575b50610ddb575050505050503d600014610dd3573d610d9d816115d5565b90610daa855192836115b3565b81528091833d92013e5b80519182610dd0575050505191633250574960e11b8352820152fd5b01fd5b506060610db4565b6001600160e01b0319909a94979a999295999693961603610e03575091979091908187610c76565b828a91885191633250574960e11b8352820152fd5b9091508881813d8311610e55575b610e3081836115b3565b81010312610e5157516001600160e01b031981168103610e51579038610d80565b8780fd5b503d610e26565b8386868b51917f73c6ac6e000000000000000000000000000000000000000000000000000000008352820152fd5b610eab87600052600460205260406000206001600160a01b03198154169055565b848d5260038352818d2090815401905538610c20565b8487878c5191633250574960e11b8352820152fd5b8284601187634e487b7160e01b835252fd5b8680fd5b5090346101f557610efc3661154f565b919092610f196001600160a01b03600a5416610bc78115156115f1565b8385526009602052610f326002838720015415156116d3565b8215610f81578385526009602052818520908154938401809411610936575091602091817f4e52e5c6c1f2802ac15497743e6c08a4251f6421a26a5cc4c2d82a3c2fded322945551908152a280f35b6020608492519162461bcd60e51b8352820152603260248201527f506f6c6963794e46543a20416d6f756e7420746f20616464206d75737420626560448201527f2067726561746572207468616e207a65726f00000000000000000000000000006064820152fd5b50346101f55760203660031901126101f557818360c09460a0835161100d81611565565b82815282602082015282858201528260608201528260808201520152823581526009602052209180519261104084611565565b80549384815260018201549160208201928352600281015494848301958652600382015491606084019283520154936fffffffffffffffffffffffffffffffff95869460a060808601958789168752019660801c87528251988952516020890152519087015251606086015251166080840152511660a0820152f35b83346104dc5761046a6110ce3661151a565b91611744565b5090346101f557806003193601126101f5576110ee6114e9565b916024356110fb81611a46565b331515806111b4575b8061118c575b61115d5781906001600160a01b03809616958691167f8c5be1e5ebec7d5bd14f71427d1e84f3dd0314c0f7b2291e5b200ac8c7c3b9258880a484526020528220906001600160a01b031982541617905580f35b83517fa9fbf51f0000000000000000000000000000000000000000000000000000000081523381850152602490fd5b506001600160a01b0381168652600560205283862033875260205260ff84872054161561110a565b50336001600160a01b0382161415611104565b50346101f55760203660031901126101f55781602093826001600160a01b0393356111f181611a46565b50825285522054169051908152f35b5091346104dc57806003193601126104dc578151918182549260018460011c91600186169586156112c3575b60209687851081146106be578899509688969785829a52918260001461069757505060011461126857505050610352929161062c9103856115b3565b91908693508280527f290decd9548b62a8d60345a988386fc84ba6bc95484008f6362f93160ef3e5635b8284106112ab575050508201018161062c610352610619565b8054848a018601528895508794909301928101611292565b92607f169261122c565b50346101f55760203660031901126101f55735906001600160e01b031982168092036101f557602092507f4906490600000000000000000000000000000000000000000000000000000000821491821561132b575b50519015158152f35b9091507f80ac58cd000000000000000000000000000000000000000000000000000000008114908115611392575b8115611368575b509038611322565b7f01ffc9a70000000000000000000000000000000000000000000000000000000091501438611360565b7f5b5e139f0000000000000000000000000000000000000000000000000000000081149150611359565b50346101f55760603660031901126101f5578035916024356fffffffffffffffffffffffffffffffff928382168092036114a55760443593841690818503610ee8577fa2feae0e047d1059af920dcd066c0d5306bdfde29004cde9e4cdb76b10fd4255946114979161143e6001600160a01b03600a5416610bc78115156115f1565b87895260096020526114576002878b20015415156116d3565b87895260096020528589206fffffffffffffffffffffffffffffffff861660809390931b6fffffffffffffffffffffffffffffffff191692909217910155565b82519182526020820152a280f35b8580fd5b919082519283825260005b8481106114d5575050826000602080949584010152601f8019910116010190565b6020818301810151848301820152016114b4565b600435906001600160a01b03821682036114ff57565b600080fd5b602435906001600160a01b03821682036114ff57565b60609060031901126114ff576001600160a01b039060043582811681036114ff579160243590811681036114ff579060443590565b60409060031901126114ff576004359060243590565b60c0810190811067ffffffffffffffff82111761158157604052565b634e487b7160e01b600052604160045260246000fd5b6020810190811067ffffffffffffffff82111761158157604052565b90601f8019910116810190811067ffffffffffffffff82111761158157604052565b67ffffffffffffffff811161158157601f01601f191660200190565b156115f857565b608460405162461bcd60e51b815260206004820152602860248201527f506f6c6963794e46543a20506f6c6963794d616e61676572206164647265737360448201527f206e6f74207365740000000000000000000000000000000000000000000000006064820152fd5b1561166957565b608460405162461bcd60e51b815260206004820152603560248201527f506f6c6963794e46543a2043616c6c6572206973206e6f74207468652061757460448201527f686f72697a656420506f6c6963794d616e6167657200000000000000000000006064820152fd5b156116da57565b608460405162461bcd60e51b815260206004820152603360248201527f506f6c6963794e46543a20506f6c69637920646f6573206e6f7420657869737460448201527f206f7220686173206265656e206275726e6564000000000000000000000000006064820152fd5b90916001600160a01b0380931692831561190157600092828452826020956002875260409684888820541696879133151580611852575b509060027fddf252ad1be2c89b69c2b068fc378daa952ba7f163c4a11628f55a4df523b3ef928461181a575b858352600381528b83206001815401905586835252898120846001600160a01b031982541617905580a416928383036117e05750505050565b6064945051927f64283d7b000000000000000000000000000000000000000000000000000000008452600484015260248301526044820152fd5b61183b87600052600460205260406000206001600160a01b03198154169055565b848352600381528b832080546000190190556117a7565b919394509150806118c0575b1561186e5785929187913861177b565b87868861188b576024915190637e27328960e01b82526004820152fd5b60449151907f177e802f0000000000000000000000000000000000000000000000000000000082523360048301526024820152fd5b5033871480156118e5575b8061185e575085825260048152338589842054161461185e565b5086825260058152878220338352815260ff88832054166118cb565b6024604051633250574960e11b815260006004820152fd5b1561192057565b606460405162461bcd60e51b815260206004820152601a60248201527f506f6c6963794e46543a2041646472657373206e6f74207365740000000000006044820152fd5b1561196b57565b608460405162461bcd60e51b815260206004820152602360248201527f506f6c6963794e46543a2043616c6c6572206973206e6f7420617574686f726960448201527f7a656400000000000000000000000000000000000000000000000000000000006064820152fd5b156119dc57565b608460405162461bcd60e51b815260206004820152602160248201527f506f6c6963794e46543a20416464726573732063616e6e6f74206265207a657260448201527f6f000000000000000000000000000000000000000000000000000000000000006064820152fd5b8060005260026020526001600160a01b0360406000205416908115611a69575090565b60249060405190637e27328960e01b82526004820152fd5b6001600160a01b03600754163303611a9557565b60246040517f118cdaa7000000000000000000000000000000000000000000000000000000008152336004820152fd5b909192833b611ad6575b5050505050565b6001600160a01b039592939495809516946040519481630a85bd0160e11b9485885216600487015216602485015260448401526080606484015282611b2160209660848301906114a9565b039285816000958187895af1849181611bcc575b50611b94575050503d600014611b8c573d611b4f816115d5565b90611b5d60405192836115b3565b81528091843d92013e5b80519283611b875760248360405190633250574960e11b82526004820152fd5b019050fd5b506060611b67565b9092506001600160e01b03199194501603611bb457503880808080611acf565b60249060405190633250574960e11b82526004820152fd5b9091508681813d8311611c05575b611be481836115b3565b810103126105bd57516001600160e01b0319811681036105bd579038611b35565b503d611bda56fea2646970667358221220d16871c724216d383ffe9be91d9fa70224e6fb8b64b185d3194a0d96c67206c464736f6c63430008160033",
  "linkReferences": {},
  "deployedLinkReferences": {}
}