{
  "_format": "hh-sol-artifact-1",
  "contractName": "PolicyManager",
  "sourceName": "contracts/core/PolicyManager.sol",
  "abi": [
    {
      "inputs": [
        {
          "internalType": "address",
          "name": "_policyNFT",
          "type": "address"
        },
        {
          "internalType": "address",
          "name": "_initialOwner",
          "type": "address"
        }
      ],
      "stateMutability": "nonpayable",
      "type": "constructor"
    },
    {
      "inputs": [],
      "name": "AddressesNotSet",
      "type": "error"
    },
    {
      "inputs": [],
      "name": "CooldownActive",
      "type": "error"
    },
    {
      "inputs": [],
      "name": "DepositTooLow",
      "type": "error"
    },
    {
      "inputs": [],
      "name": "InsufficientCapacity",
      "type": "error"
    },
    {
      "inputs": [],
      "name": "InvalidAmount",
      "type": "error"
    },
    {
      "inputs": [],
      "name": "NotPolicyOwner",
      "type": "error"
    },
    {
      "inputs": [
        {
          "internalType": "address",
          "name": "owner",
          "type": "address"
        }
      ],
      "name": "OwnableInvalidOwner",
      "type": "error"
    },
    {
      "inputs": [
        {
          "internalType": "address",
          "name": "account",
          "type": "address"
        }
      ],
      "name": "OwnableUnauthorizedAccount",
      "type": "error"
    },
    {
      "inputs": [],
      "name": "PolicyAlreadyTerminated",
      "type": "error"
    },
    {
      "inputs": [],
      "name": "PolicyIsActive",
      "type": "error"
    },
    {
      "inputs": [],
      "name": "PolicyNotActive",
      "type": "error"
    },
    {
      "inputs": [],
      "name": "PoolPaused",
      "type": "error"
    },
    {
      "inputs": [],
      "name": "ReentrancyGuardReentrantCall",
      "type": "error"
    },
    {
      "inputs": [
        {
          "internalType": "address",
          "name": "token",
          "type": "address"
        }
      ],
      "name": "SafeERC20FailedOperation",
      "type": "error"
    },
    {
      "inputs": [],
      "name": "TooManyPendingIncreases",
      "type": "error"
    },
    {
      "anonymous": false,
      "inputs": [
        {
          "indexed": true,
          "internalType": "address",
          "name": "registry",
          "type": "address"
        },
        {
          "indexed": true,
          "internalType": "address",
          "name": "capital",
          "type": "address"
        },
        {
          "indexed": true,
          "internalType": "address",
          "name": "rewards",
          "type": "address"
        },
        {
          "indexed": false,
          "internalType": "address",
          "name": "rm",
          "type": "address"
        },
        {
          "indexed": false,
          "internalType": "address",
          "name": "um",
          "type": "address"
        }
      ],
      "name": "AddressesSet",
      "type": "event"
    },
    {
      "anonymous": false,
      "inputs": [
        {
          "indexed": true,
          "internalType": "address",
          "name": "newCatPool",
          "type": "address"
        }
      ],
      "name": "CatPoolSet",
      "type": "event"
    },
    {
      "anonymous": false,
      "inputs": [
        {
          "indexed": false,
          "internalType": "uint256",
          "name": "newBps",
          "type": "uint256"
        }
      ],
      "name": "CatPremiumShareSet",
      "type": "event"
    },
    {
      "anonymous": false,
      "inputs": [
        {
          "indexed": false,
          "internalType": "uint256",
          "name": "newPeriod",
          "type": "uint256"
        }
      ],
      "name": "CoverCooldownPeriodSet",
      "type": "event"
    },
    {
      "anonymous": false,
      "inputs": [
        {
          "indexed": true,
          "internalType": "uint256",
          "name": "policyId",
          "type": "uint256"
        },
        {
          "indexed": false,
          "internalType": "uint256",
          "name": "additionalCoverage",
          "type": "uint256"
        },
        {
          "indexed": false,
          "internalType": "uint256",
          "name": "activationTimestamp",
          "type": "uint256"
        }
      ],
      "name": "CoverIncreaseRequested",
      "type": "event"
    },
    {
      "anonymous": false,
      "inputs": [
        {
          "indexed": true,
          "internalType": "address",
          "name": "previousOwner",
          "type": "address"
        },
        {
          "indexed": true,
          "internalType": "address",
          "name": "newOwner",
          "type": "address"
        }
      ],
      "name": "OwnershipTransferred",
      "type": "event"
    },
    {
      "anonymous": false,
      "inputs": [
        {
          "indexed": true,
          "internalType": "uint256",
          "name": "policyId",
          "type": "uint256"
        },
        {
          "indexed": false,
          "internalType": "uint256",
          "name": "amount",
          "type": "uint256"
        }
      ],
      "name": "PremiumAdded",
      "type": "event"
    },
    {
      "inputs": [],
      "name": "BPS",
      "outputs": [
        {
          "internalType": "uint256",
          "name": "",
          "type": "uint256"
        }
      ],
      "stateMutability": "view",
      "type": "function"
    },
    {
      "inputs": [],
      "name": "SECS_YEAR",
      "outputs": [
        {
          "internalType": "uint256",
          "name": "",
          "type": "uint256"
        }
      ],
      "stateMutability": "view",
      "type": "function"
    },
    {
      "inputs": [
        {
          "internalType": "uint256",
          "name": "policyId",
          "type": "uint256"
        },
        {
          "internalType": "uint256",
          "name": "amount",
          "type": "uint256"
        }
      ],
      "name": "addPremium",
      "outputs": [],
      "stateMutability": "nonpayable",
      "type": "function"
    },
    {
      "inputs": [
        {
          "internalType": "uint256",
          "name": "policyId",
          "type": "uint256"
        }
      ],
      "name": "cancelCover",
      "outputs": [],
      "stateMutability": "nonpayable",
      "type": "function"
    },
    {
      "inputs": [],
      "name": "capitalPool",
      "outputs": [
        {
          "internalType": "contract ICapitalPool",
          "name": "",
          "type": "address"
        }
      ],
      "stateMutability": "view",
      "type": "function"
    },
    {
      "inputs": [],
      "name": "catPool",
      "outputs": [
        {
          "internalType": "contract IBackstopPool",
          "name": "",
          "type": "address"
        }
      ],
      "stateMutability": "view",
      "type": "function"
    },
    {
      "inputs": [],
      "name": "catPremiumBps",
      "outputs": [
        {
          "internalType": "uint256",
          "name": "",
          "type": "uint256"
        }
      ],
      "stateMutability": "view",
      "type": "function"
    },
    {
      "inputs": [],
      "name": "coverCooldownPeriod",
      "outputs": [
        {
          "internalType": "uint256",
          "name": "",
          "type": "uint256"
        }
      ],
      "stateMutability": "view",
      "type": "function"
    },
    {
      "inputs": [
        {
          "internalType": "uint256",
          "name": "policyId",
          "type": "uint256"
        }
      ],
      "name": "getPendingIncreases",
      "outputs": [
        {
          "components": [
            {
              "internalType": "uint128",
              "name": "amount",
              "type": "uint128"
            },
            {
              "internalType": "uint128",
              "name": "activationTimestamp",
              "type": "uint128"
            },
            {
              "internalType": "uint256",
              "name": "nextNodeId",
              "type": "uint256"
            }
          ],
          "internalType": "struct PolicyManager.PendingIncreaseNode[]",
          "name": "",
          "type": "tuple[]"
        }
      ],
      "stateMutability": "view",
      "type": "function"
    },
    {
      "inputs": [
        {
          "internalType": "uint256",
          "name": "policyId",
          "type": "uint256"
        },
        {
          "internalType": "uint256",
          "name": "additionalCoverage",
          "type": "uint256"
        }
      ],
      "name": "increaseCover",
      "outputs": [],
      "stateMutability": "nonpayable",
      "type": "function"
    },
    {
      "inputs": [
        {
          "internalType": "uint256",
          "name": "policyId",
          "type": "uint256"
        }
      ],
      "name": "isPolicyActive",
      "outputs": [
        {
          "internalType": "bool",
          "name": "",
          "type": "bool"
        }
      ],
      "stateMutability": "view",
      "type": "function"
    },
    {
      "inputs": [
        {
          "internalType": "uint256",
          "name": "policyId",
          "type": "uint256"
        }
      ],
      "name": "lapsePolicy",
      "outputs": [],
      "stateMutability": "nonpayable",
      "type": "function"
    },
    {
      "inputs": [],
      "name": "owner",
      "outputs": [
        {
          "internalType": "address",
          "name": "",
          "type": "address"
        }
      ],
      "stateMutability": "view",
      "type": "function"
    },
    {
      "inputs": [
        {
          "internalType": "uint256",
          "name": "",
          "type": "uint256"
        }
      ],
      "name": "pendingCoverageSum",
      "outputs": [
        {
          "internalType": "uint256",
          "name": "",
          "type": "uint256"
        }
      ],
      "stateMutability": "view",
      "type": "function"
    },
    {
      "inputs": [
        {
          "internalType": "uint256",
          "name": "",
          "type": "uint256"
        }
      ],
      "name": "pendingIncreaseListHead",
      "outputs": [
        {
          "internalType": "uint256",
          "name": "",
          "type": "uint256"
        }
      ],
      "stateMutability": "view",
      "type": "function"
    },
    {
      "inputs": [],
      "name": "policyNFT",
      "outputs": [
        {
          "internalType": "contract IPolicyNFT",
          "name": "",
          "type": "address"
        }
      ],
      "stateMutability": "view",
      "type": "function"
    },
    {
      "inputs": [],
      "name": "poolRegistry",
      "outputs": [
        {
          "internalType": "contract IPoolRegistry",
          "name": "",
          "type": "address"
        }
      ],
      "stateMutability": "view",
      "type": "function"
    },
    {
      "inputs": [
        {
          "internalType": "uint256",
          "name": "poolId",
          "type": "uint256"
        },
        {
          "internalType": "uint256",
          "name": "coverageAmount",
          "type": "uint256"
        },
        {
          "internalType": "uint256",
          "name": "initialPremiumDeposit",
          "type": "uint256"
        }
      ],
      "name": "purchaseCover",
      "outputs": [
        {
          "internalType": "uint256",
          "name": "policyId",
          "type": "uint256"
        }
      ],
      "stateMutability": "nonpayable",
      "type": "function"
    },
    {
      "inputs": [],
      "name": "renounceOwnership",
      "outputs": [],
      "stateMutability": "nonpayable",
      "type": "function"
    },
    {
      "inputs": [],
      "name": "rewardDistributor",
      "outputs": [
        {
          "internalType": "contract IRewardDistributor",
          "name": "",
          "type": "address"
        }
      ],
      "stateMutability": "view",
      "type": "function"
    },
    {
      "inputs": [],
      "name": "riskManager",
      "outputs": [
        {
          "internalType": "contract IRiskManagerPMHook",
          "name": "",
          "type": "address"
        }
      ],
      "stateMutability": "view",
      "type": "function"
    },
    {
      "inputs": [
        {
          "internalType": "address",
          "name": "registry",
          "type": "address"
        },
        {
          "internalType": "address",
          "name": "capital",
          "type": "address"
        },
        {
          "internalType": "address",
          "name": "cat",
          "type": "address"
        },
        {
          "internalType": "address",
          "name": "rewards",
          "type": "address"
        },
        {
          "internalType": "address",
          "name": "rm",
          "type": "address"
        },
        {
          "internalType": "address",
          "name": "um",
          "type": "address"
        }
      ],
      "name": "setAddresses",
      "outputs": [],
      "stateMutability": "nonpayable",
      "type": "function"
    },
    {
      "inputs": [
        {
          "internalType": "address",
          "name": "catPoolAddress",
          "type": "address"
        }
      ],
      "name": "setCatPool",
      "outputs": [],
      "stateMutability": "nonpayable",
      "type": "function"
    },
    {
      "inputs": [
        {
          "internalType": "uint256",
          "name": "newBps",
          "type": "uint256"
        }
      ],
      "name": "setCatPremiumShareBps",
      "outputs": [],
      "stateMutability": "nonpayable",
      "type": "function"
    },
    {
      "inputs": [
        {
          "internalType": "uint256",
          "name": "newPeriod",
          "type": "uint256"
        }
      ],
      "name": "setCoverCooldownPeriod",
      "outputs": [],
      "stateMutability": "nonpayable",
      "type": "function"
    },
    {
      "inputs": [
        {
          "internalType": "address",
          "name": "newOwner",
          "type": "address"
        }
      ],
      "name": "transferOwnership",
      "outputs": [],
      "stateMutability": "nonpayable",
      "type": "function"
    },
    {
      "inputs": [],
      "name": "underwriterManager",
      "outputs": [
        {
          "internalType": "contract IUnderwriterManager",
          "name": "",
          "type": "address"
        }
      ],
      "stateMutability": "view",
      "type": "function"
    }
  ],
  "bytecode": "0x60a0346200013557601f62002af938819003918201601f19168301916001600160401b038311848410176200013a578084926040948552833981010312620001355760206200004e8262000150565b916001600160a01b0391829162000066910162000150565b169182156200011c57600080546001600160a01b03198116851782556040519491908416907f8be0079c531659141344cd1fd0a4f28419497f9722a3daafe3b4186f6b6457e09080a36001805560006002556107d06009556001600d551660805261299390816200016682396080518181816103310152818161087401528181610ac801528181610bd8015281816110c00152818161157901528181611ac101528181611e9f01528181611f69015261232a0152f35b604051631e4fbdf760e01b815260006004820152602490fd5b600080fd5b634e487b7160e01b600052604160045260246000fd5b51906001600160a01b0382168203620001355756fe6080604081815260048036101561001557600080fd5b600092833560e01c9081630342a9071461178257508063051b1b86146113cc5780630e38502e146113a55780631e1ac65814611220578063249d39e91461120357806347842663146111db5780635bfb7508146111b45780635c9244af1461118c5780635ed99faa1461116d5780636357ed4c1461105d5780636cfb6bf914610f03578063715018a614610e9d578063795110ad14610e7e5780638a7e415914610b875780638da5cb5b14610b615780639a23dfee14610b14578063acc2166a14610aec578063af02808a14610aa8578063afcff50f14610a80578063b77b94091461083f578063bd8afa4614610813578063cb5cf0b4146107f0578063dccb2a64146107c9578063ee62d0ed146102ec578063f290cc8d14610285578063f2fde38b146101d65763f8fee5301461014c57600080fd5b346101d25760203660031901126101d2576001600160a01b0361016d6117a7565b610175612055565b169182156101c55750508073ffffffffffffffffffffffffffffffffffffffff1960055416176005557f82283d6ce7728636b4d495b6b9fc94bc0a15f2a0ab79c8080e5ca70d086986678280a280f35b51630537d15b60e41b8152fd5b8280fd5b50346101d25760203660031901126101d2576101f06117a7565b906101f9612055565b6001600160a01b038092169283156102565750506000548273ffffffffffffffffffffffffffffffffffffffff19821617600055167f8be0079c531659141344cd1fd0a4f28419497f9722a3daafe3b4186f6b6457e0600080a380f35b908460249251917f1e4fbdf7000000000000000000000000000000000000000000000000000000008352820152fd5b5090346101d25760203660031901126101d2578135916102a3612055565b61138883116102de5750816020917f7ee75ea44b8cd36081f59e6b26f858207321eda7fb20a6db6e7e7ade1ee78e549360095551908152a180f35b905163162908e360e11b8152fd5b50346101d2576102fb366117bd565b610306939193611cfa565b6001600160a01b038060035416156107ba57811580156107aa575b61079b5761032e85611da6565b807f000000000000000000000000000000000000000000000000000000000000000016938351916331a9108f60e11b8352868284015260209560249387818681855afa908115610791578a91610758575b5082339116036107495761039288611a90565b1561073a579060c08492875193848092632b07fce360e01b82528c888301525afa9182156107305789926106ff575b508151156106f0578060035416918781019260a08451878a5180948193634e06ad0960e01b83528a8301525afa80156106e6578b918c916106b0575b506106a1578260085416845190895191630e139c3f60e41b8352878301528c828981845afa91821561066f578d92610679575b508a8651898c5180948193636fd4cac760e01b83528c8301525afa90811561066f578d9161063d575b5081811061062f5750508a5b8a8c52600c8a52888c2054816104848a61047f8487611ced565b611ced565b1161062057916104ab6104b1926104a38b61047f889760809951611ced565b9288516120ff565b90612275565b906001600160801b03928391015116106106115791899391898760018a8c600b9a986104df60025442611ced565b9b8c92600d54976104ef8961184f565b600d558d52600a8152848d2054948381519861050a8a6117fd565b16885283828901951685528701948552878d52528d8b209451168a7fffffffffffffffffffffffffffffffff000000000000000000000000000000008654935160801b16921617178355519101558a8652600a8a5288862055600c8952878520610575888254611ced565b905560075416905190803b1561060d57849283606492898b519788968795632e949fcf60e11b8752860152840152600160448401525af18015610603576105eb575b50507f3943b1ec0048c24179d32e527b9ddafa79654512abcaaad09efac8d43669b331938351928352820152a26001805580f35b6105f4906117d3565b6105ff5785386105b7565b8580fd5b85513d84823e3d90fd5b8480fd5b838751632b7786bd60e21b8152fd5b868a51632e77ac1d60e11b8152fd5b61063891611a70565b610465565b90508a81813d8311610668575b6106548183611819565b81010312610663575138610459565b600080fd5b503d61064a565b8a513d8f823e3d90fd5b6106979192508d3d8091833e61068f8183611819565b810190611979565b9150509038610430565b84885163146f5dc360e21b8152fd5b90506106d4915060a03d60a0116106df575b6106cc8183611819565b81019061193b565b5050915090386103fd565b503d6106c2565b88513d8d823e3d90fd5b8286516353031cf560e01b8152fd5b61072291925060c03d60c011610729575b61071a8183611819565b8101906118ca565b90386103c1565b503d610710565b86513d8b823e3d90fd5b828651638966b51f60e01b8152fd5b82865163f9d492db60e01b8152fd5b90508781813d831161078a575b61076f8183611819565b81010312610786576107809061183b565b3861037f565b8980fd5b503d610765565b87513d8c823e3d90fd5b50505163162908e360e11b8152fd5b506001600160801b038211610321565b505051630537d15b60e41b8152fd5b50346101d25760203660031901126101d2576020928291358152600a845220549051908152f35b50503461080f578160031936011261080f576020906002549051908152f35b5080fd5b50913461083c57602036600319011261083c575061083360209235611a90565b90519015158152f35b80fd5b5090346101d2576020806003193601126109a85782359061085e611cfa565b6001600160a01b0391826003541615610a7057827f00000000000000000000000000000000000000000000000000000000000000001684516331a9108f60e11b815282878201528381602481855afa908115610a66578891610a2d575b508433911603610a1e579060c06024926108d483611da6565b865193848092632b07fce360e01b8252858b8301525afa918215610a145787926109f3575b508151156109e457606082015142106109bc579061091981608093611f3d565b01906001600160801b039283835116610935575b866001805580f35b8190865416855196878092631c56369f60e21b82525afa9384156109b357508593610976575b5061096b93505116903390612099565b38808080808061092d565b90925083813d83116109ac575b61098d8183611819565b810103126109a8576109a161096b9361183b565b913861095b565b8380fd5b503d610983565b513d87823e3d90fd5b8585517faa9a98df000000000000000000000000000000000000000000000000000000008152fd5b8585516353031cf560e01b8152fd5b610a0d91925060c03d60c0116107295761071a8183611819565b90386108f9565b85513d89823e3d90fd5b85855163f9d492db60e01b8152fd5b90508381813d8311610a5f575b610a448183611819565b81010312610a5b57610a559061183b565b386108bb565b8780fd5b503d610a3a565b86513d8a823e3d90fd5b50505051630537d15b60e41b8152fd5b50503461080f578160031936011261080f576020906001600160a01b03600354169051908152f35b50503461080f578160031936011261080f57602090516001600160a01b037f0000000000000000000000000000000000000000000000000000000000000000168152f35b50503461080f578160031936011261080f576020906001600160a01b03600654169051908152f35b50346101d25760203660031901126101d2577f6a638c2eecc402883653d67e472b048065b35be8e4dfe5ac805d9026bdb4ffa6916020913590610b55612055565b8160025551908152a180f35b50503461080f578160031936011261080f576001600160a01b0360209254169051908152f35b5082903461080f57610b98366117bd565b610ba3929192611cfa565b6001600160a01b0391826003541615610e70578115610e62576001600160801b0392838311610e5357610bd585611da6565b807f0000000000000000000000000000000000000000000000000000000000000000168751946331a9108f60e11b865286848701526020958681602481865afa908115610dc6578991610e1e575b508333911603610e0f57610c3687611a90565b15610e0057885192632b07fce360e01b8452878585015260c084602481865afa938415610dc6578994610ddf575b50835115610dd0578685918254168b5192838092631c56369f60e21b82525afa8015610dc65786908a90610d8a575b610ca1925030903390611d35565b806080840151168186160192818411610d775760a001511692813b15610a5b57885163012aa6c360e01b81529081018781526001600160801b039384166020820152929093166040830152869183919082908490829060600103925af18015610d6d57610d3a575b507f23ebf178beae004862a3c09b00a710ef2173a8910dddb357a1ed55a0e7f9906692939451908152a26001805580f35b93610d667f23ebf178beae004862a3c09b00a710ef2173a8910dddb357a1ed55a0e7f9906694956117d3565b9392610d09565b86513d87823e3d90fd5b602489601187634e487b7160e01b835252fd5b50508681813d8311610dbf575b610da18183611819565b81010312610dbb5785610db6610ca19261183b565b610c93565b8880fd5b503d610d97565b8a513d8b823e3d90fd5b848a516353031cf560e01b8152fd5b610df991945060c03d60c0116107295761071a8183611819565b928a610c64565b838951638966b51f60e01b8152fd5b83895163f9d492db60e01b8152fd5b90508681813d8311610e4c575b610e358183611819565b81010312610dbb57610e469061183b565b8a610c23565b503d610e2b565b50855163162908e360e11b8152fd5b855163162908e360e11b8152fd5b8551630537d15b60e41b8152fd5b50503461080f578160031936011261080f576020906009549051908152f35b833461083c578060031936011261083c57610eb6612055565b806001600160a01b03815473ffffffffffffffffffffffffffffffffffffffff1981168355167f8be0079c531659141344cd1fd0a4f28419497f9722a3daafe3b4186f6b6457e08280a380f35b5090346101d25760c03660031901126101d257610f1e6117a7565b602435916001600160a01b038084168094036105ff57604435928184168094036110595760643595828716809703610a5b5760843592808416809403610dbb5760a4359281841680940361078657610f74612055565b169485158015611051575b8015611049575b8015611041575b8015611039575b8015611031575b611022579180917fcd9027aa719066ae45aefb678f46a58285ad017474508d59372c505994ad0eb295949373ffffffffffffffffffffffffffffffffffffffff19918883600354161760035589838254161790558160055416176005558881600654161760065583816007541617600755600854161760085582519182526020820152a480f35b508351630537d15b60e41b8152fd5b508215610f9b565b508315610f94565b508715610f8d565b508015610f86565b508615610f7f565b8680fd5b50913461083c57602036600319011261083c57823561107a611cfa565b6001600160a01b03806003541615610a705761109582611da6565b61109e82611a90565b611144579260c060249394825194858092632b07fce360e01b8252868a8301527f0000000000000000000000000000000000000000000000000000000000000000165afa92831561113a578493611119575b5082511561110a57509061110391611f3d565b6001805580f35b8490516353031cf560e01b8152fd5b61113391935060c03d60c0116107295761071a8183611819565b91386110f0565b81513d86823e3d90fd5b505050517fb84876ad000000000000000000000000000000000000000000000000000000008152fd5b50503461080f578160031936011261080f57602090516301e133808152f35b50503461080f578160031936011261080f576020906001600160a01b03600554169051908152f35b50913461083c578060031936011261083c57506001600160a01b0360209254169051908152f35b50503461080f578160031936011261080f576020906001600160a01b03600754169051908152f35b50503461080f578160031936011261080f57602090516127108152f35b50913461083c576020928360031936011261080f57359281848352600a825283832054905b8115158061139b575b156112705761125c9061184f565b908352600b82526001848420015490611245565b859293915061127e81611874565b9261128b86519485611819565b81845261129782611874565b601f190185845b828110611375575050508252600a84528482205482905b82821061131657505050835192808401908085528351809252808686019401925b8281106112e35785850386f35b835180516001600160801b03908116875281840151168684015287015187860152606090940193928101926001016112d6565b806001918552600b808852888620918951611330816117fd565b83546001600160801b038116825260801c8a82015284809401548b820152611358868a61188c565b52611363858961188c565b508652875287852001549101906112b5565b8851611380816117fd565b8681528683820152868a82015282828901015201869061129e565b506032811061124e565b50346101d25760203660031901126101d2576020928291358152600c845220549051908152f35b5091903461080f57606036600319011261080f57604435916024359084356113f2611cfa565b6001600160a01b03958660035416968715611773578415801561176b575b61175c576001600160801b0380881161174d5760a060249988519a8b8092634e06ad0960e01b825288888301525afa8015611743578599869161171b575b5061170c578160085416986024868b8a5192838092630e139c3f60e41b82528a8a8301525afa9081156116815787916116ef575b508851809b636fd4cac760e01b8252878783015281602460209e8f935afa9081156116e55788916116b8575b508181106116a957505085905b816114c68983611ced565b1161169a576114df916114d991876120ff565b87612275565b881061168b576114f160025442611ced565b838a848254168a5192838092631c56369f60e21b82525afa8015611681578a908890611649575b611526925030903390611d35565b818851997f342edd7e000000000000000000000000000000000000000000000000000000008b5233868c01528660248c01528860448c01528260648c01521660848a01521660a4880152878760c48187857f0000000000000000000000000000000000000000000000000000000000000000165af196871561163f578497611610575b5060075416803b156109a8578392918360649288519788958694632e949fcf60e11b86528501526024840152600160448401525af190811561160557506115f6575b506001805551908152f35b6115ff906117d3565b386115eb565b8351903d90823e3d90fd5b9096508781813d8311611638575b6116288183611819565b810103126109a8575195386115a9565b503d61161e565b86513d86823e3d90fd5b50508a81813d831161167a575b6116608183611819565b8101031261105957896116756115269261183b565b611518565b503d611656565b89513d89823e3d90fd5b828751632b7786bd60e21b8152fd5b848951632e77ac1d60e11b8152fd5b6116b291611a70565b906114bb565b90508b81813d83116116de575b6116cf8183611819565b81010312610a5b5751386114ae565b503d6116c5565b8a513d8a823e3d90fd5b61170391503d8089833e61068f8183611819565b91505038611482565b82875163146f5dc360e21b8152fd5b905061173791995060a03d60a0116106df576106cc8183611819565b5050999150983861144e565b87513d87823e3d90fd5b82875163162908e360e11b8152fd5b50845163162908e360e11b8152fd5b508615611410565b508451630537d15b60e41b8152fd5b84903461080f578160031936011261080f576020906001600160a01b03600854168152f35b600435906001600160a01b038216820361066357565b6040906003190112610663576004359060243590565b67ffffffffffffffff81116117e757604052565b634e487b7160e01b600052604160045260246000fd5b6060810190811067ffffffffffffffff8211176117e757604052565b90601f8019910116810190811067ffffffffffffffff8211176117e757604052565b51906001600160a01b038216820361066357565b600019811461185e5760010190565b634e487b7160e01b600052601160045260246000fd5b67ffffffffffffffff81116117e75760051b60200190565b80518210156118a05760209160051b010190565b634e487b7160e01b600052603260045260246000fd5b51906001600160801b038216820361066357565b908160c0910312610663576040519060c0820182811067ffffffffffffffff8211176117e7576119339160a09160405280518452602081015160208501526040810151604085015260608101516060850152611928608082016118b6565b6080850152016118b6565b60a082015290565b908160a09103126106635761194f8161183b565b9160208201519160408101518015158103610663579160806119736060840161183b565b92015190565b90916060828403126106635781519267ffffffffffffffff9384811161066357830181601f820112156106635780516020916119b482611874565b916119c26040519384611819565b808352838084019160051b830101918583116106635784809101915b838310611a58575050505094818501519081116106635784019180601f84011215610663578251611a0e81611874565b93611a1c6040519586611819565b818552838086019260051b820101928311610663578301905b828210611a49575050505060409092015190565b81518152908301908301611a35565b8190611a638461183b565b81520191019084906119de565b9190820391821161185e57565b8181029291811591840414171561185e57565b6001600160a01b038060035416908115611ce5576040805193632b07fce360e01b8552600485015260c084602481857f0000000000000000000000000000000000000000000000000000000000000000165afa938415611c7057600094611cc4575b50835115611cbb5760a08401916001600160801b039384845116421115611cac57602086019160a083516024865180958193634e06ad0960e01b835260048301525afa918215611ca157600092611c7b575b506008541692825190805191630e139c3f60e41b83526004830152600082602481885afa918215611c7057600092611c50575b50602084516024835180988193636fd4cac760e01b835260048301525afa908115611c465750600090611c12575b611bbd9450818110611c035750506000915b516120ff565b908115611bf657611bed608092611be8611be08664496cebb80095511642611a70565b918751611a7d565b611a7d565b04920151161190565b5050906080015116151590565b611c0c91611a70565b91611bb7565b506020843d602011611c3e575b81611c2c60209383611819565b8101031261066357611bbd9351611ba5565b3d9150611c1f565b513d6000823e3d90fd5b611c669192503d806000833e61068f8183611819565b9150509038611b77565b50513d6000823e3d90fd5b611c9591925060a03d60a0116106df576106cc8183611819565b50505090509038611b44565b84513d6000823e3d90fd5b50505050906080015116151590565b50505050600090565b611cde91945060c03d60c0116107295761071a8183611819565b9238611af2565b505050600090565b9190820180921161185e57565b600260015414611d0b576002600155565b60046040517f3ee5aeb5000000000000000000000000000000000000000000000000000000008152fd5b9290604051927f23b872dd0000000000000000000000000000000000000000000000000000000060208501526001600160a01b03809216602485015216604483015260648201526064815260a081019181831067ffffffffffffffff8411176117e757611da49260405261229f565b565b6000818152600a6020818152604080842054929594849384939084905b80151580611f33575b15611e7857808752600b90818452858820916001918c8385015494548060801c421015600014611e6757918b9391611e136001600160801b03611e4e98979516809d611ced565b9b8a8652600c8a52611e298c8720918254611a70565b90558d611e54578985528852848a8520555b8352865287822082815501555b9161184f565b90611dc3565b508c845281885284838b86200155611e3b565b5050915050611e4e91985097611e48565b505050935090945084611e93575b5050611da491925061231f565b81946001600160a01b037f000000000000000000000000000000000000000000000000000000000000000016803b156109a85760448492845195869384927f31c0191600000000000000000000000000000000000000000000000000000000845289600485015260248401525af1908115611f2a5750611da4939450611f1b575b8392611e86565b611f24906117d3565b38611f14565b513d86823e3d90fd5b5060328210611dcc565b90611f4782612740565b90611f56815192600093611ced565b80611ff3575b5050906001600160a01b037f00000000000000000000000000000000000000000000000000000000000000001690813b156101d25782916024839260405194859384927f42966c6800000000000000000000000000000000000000000000000000000000845260048401525af18015611fe857611fd7575050565b611fe182916117d3565b61083c5750565b6040513d84823e3d90fd5b60206001600160a01b0360075416920151823b156109a8579060648492836040519586948593632e949fcf60e11b8552600485015260248401528160448401525af18015611fe857612046575b80611f5c565b61204f906117d3565b38612040565b6001600160a01b0360005416330361206957565b60246040517f118cdaa7000000000000000000000000000000000000000000000000000000008152336004820152fd5b916001600160a01b03604051927fa9059cbb000000000000000000000000000000000000000000000000000000006020850152166024830152604482015260448152608081019181831067ffffffffffffffff8411176117e757611da49260405261229f565b91906001600160a01b036003541691608060409460248651809681937fb75adf9400000000000000000000000000000000000000000000000000000000835260048301525afa928315611ca1576000936121ef575b5080156121d057612710918281029080820484149015171561185e5704926060830190815185106000146121a257505061219861219f936020845194015190611a7d565b0490611ced565b90565b9261219891936121c761219f966121bf8451602086015190611ced565b965190611a70565b91015190611a7d565b505061219f916121e68251602084015190611ced565b91015190611ced565b6080939193813d60801161226d575b8161220b60809383611819565b8101031261080f57845191608083019083821067ffffffffffffffff831117612259575090606091865280518352602081015160208401528581015186840152015160608201529138612154565b80634e487b7160e01b602492526041600452fd5b3d91506121fe565b9061227f91611a7d565b62093a809081810291818304149015171561185e5764496cebb800900490565b906000602091828151910182855af115612313576000513d61230a57506001600160a01b0381163b155b6122d05750565b6024906001600160a01b03604051917f5274afe7000000000000000000000000000000000000000000000000000000008352166004820152fd5b600114156122c9565b6040513d6000823e3d90fd5b6001600160a01b03807f000000000000000000000000000000000000000000000000000000000000000016604090815192632b07fce360e01b8452600490600095808387015260c086602481875afa958615610a1457879661271f575b506001600160801b03938460a0880151164211156127155761239d876127e8565b509460808801818151169687808210911802871896600188106126a257506123c9878380935116611a70565b1690823b1561078657875163012aa6c360e01b81528681019485526001600160801b03928316602086015242909116919091166040840152918891839182908490829060600103925af18015610a145761268f575b506020809501519261244061271061243860095484611a7d565b048092611a70565b90806125b5575b5080612457575b50505050505050565b602490878360085416875193848092630e139c3f60e41b825289898301525afa918215610a66578892612596575b5081612492575b5061244e565b838784825416885192838092631c56369f60e21b82525afa97881561258c578998612554575b50506124c981846006541689612099565b826006541692833b15610dbb579288959492869260849589519a8b9889977ffc967542000000000000000000000000000000000000000000000000000000008952880152166024860152604485015260648401525af190811561254b5750612537575b80808080808061248c565b61254182916117d3565b61083c578061252c565b513d84823e3d90fd5b9080929850813d8311612585575b61256c8183611819565b81010312610a5b5761257d9061183b565b9538806124b8565b503d612562565b87513d8b823e3d90fd5b6125ab9192503d808a833e61068f8183611819565b9150509038612485565b838784825416885192838092631c56369f60e21b82525afa801561258c5782908a90612657575b6125ec9250856005541690612099565b826005541690813b15610dbb57889160248392895194859384927f142ca5560000000000000000000000000000000000000000000000000000000084528a8401525af18015610a6657908891612643575b50612447565b61264c906117d3565b61105957863861263d565b50508781813d8311612688575b61266e8183611819565b81010312610dbb57816126836125ec9261183b565b6125dc565b503d612664565b61269b909691966117d3565b943861241e565b9650509192508093979596503b1561060d57855163012aa6c360e01b81529687019182526001600160801b03938416602083015242169092166040830152829185919082908490829060600103925af191821561270b5750506127025750565b611da4906117d3565b51903d90823e3d90fd5b5050505050505050565b61273991965060c03d60c0116107295761071a8183611819565b943861237c565b906000828152602092600c602052604090818320549485156127e05783600a60205283852054805b612785575050508252600a6020528181812055600c602052812055565b60328210156127b757906127b092918652600b8252848620866001820181815493555592839161184f565b9192612768565b600485517f39017a2a000000000000000000000000000000000000000000000000000000008152fd5b509193505050565b6001600160a01b038060035416602083019081519260a06040946024865180958193634e06ad0960e01b835260048301525afa918215611ca157600092612937575b506008541692825190805191630e139c3f60e41b83526004830152600082602481885afa918215611c7057600092612917575b50602084516024835180988193636fd4cac760e01b835260048301525afa908115611c4657506000906128e3575b6128a29450818110611c03575050600091516120ff565b9081156128d9576128d581611be8846128ce6001600160801b0360a064496cebb8009701511642611a70565b9251611a7d565b0491565b5050600090600090565b506020843d60201161290f575b816128fd60209383611819565b81010312610663576128a2935161288b565b3d91506128f0565b61292d9192503d806000833e61068f8183611819565b915050903861285d565b61295191925060a03d60a0116106df576106cc8183611819565b5050509050903861282a56fea2646970667358221220bfb37efc08803c9d2e94caae0188769d44cf32098044e137ec637519d1a5569064736f6c63430008160033",
  "linkReferences": {},
  "deployedLinkReferences": {}
}