{
  "_format": "hh-sol-artifact-1",
  "contractName": "PolicyNFT",
  "sourceName": "contracts/tokens/PolicyNFT.sol",
  "abi": [
    {
      "inputs": [
        {
          "internalType": "address",
          "name": "_initialPolicyManager",
          "type": "address"
        },
        {
          "internalType": "address",
          "name": "initialOwner",
          "type": "address"
        }
      ],
      "stateMutability": "nonpayable",
      "type": "constructor"
    },
    {
      "inputs": [
        {
          "internalType": "address",
          "name": "sender",
          "type": "address"
        },
        {
          "internalType": "uint256",
          "name": "tokenId",
          "type": "uint256"
        },
        {
          "internalType": "address",
          "name": "owner",
          "type": "address"
        }
      ],
      "name": "ERC721IncorrectOwner",
      "type": "error"
    },
    {
      "inputs": [
        {
          "internalType": "address",
          "name": "operator",
          "type": "address"
        },
        {
          "internalType": "uint256",
          "name": "tokenId",
          "type": "uint256"
        }
      ],
      "name": "ERC721InsufficientApproval",
      "type": "error"
    },
    {
      "inputs": [
        {
          "internalType": "address",
          "name": "approver",
          "type": "address"
        }
      ],
      "name": "ERC721InvalidApprover",
      "type": "error"
    },
    {
      "inputs": [
        {
          "internalType": "address",
          "name": "operator",
          "type": "address"
        }
      ],
      "name": "ERC721InvalidOperator",
      "type": "error"
    },
    {
      "inputs": [
        {
          "internalType": "address",
          "name": "owner",
          "type": "address"
        }
      ],
      "name": "ERC721InvalidOwner",
      "type": "error"
    },
    {
      "inputs": [
        {
          "internalType": "address",
          "name": "receiver",
          "type": "address"
        }
      ],
      "name": "ERC721InvalidReceiver",
      "type": "error"
    },
    {
      "inputs": [
        {
          "internalType": "address",
          "name": "sender",
          "type": "address"
        }
      ],
      "name": "ERC721InvalidSender",
      "type": "error"
    },
    {
      "inputs": [
        {
          "internalType": "uint256",
          "name": "tokenId",
          "type": "uint256"
        }
      ],
      "name": "ERC721NonexistentToken",
      "type": "error"
    },
    {
      "inputs": [
        {
          "internalType": "address",
          "name": "owner",
          "type": "address"
        }
      ],
      "name": "OwnableInvalidOwner",
      "type": "error"
    },
    {
      "inputs": [
        {
          "internalType": "address",
          "name": "account",
          "type": "address"
        }
      ],
      "name": "OwnableUnauthorizedAccount",
      "type": "error"
    },
    {
      "anonymous": false,
      "inputs": [
        {
          "indexed": true,
          "internalType": "address",
          "name": "owner",
          "type": "address"
        },
        {
          "indexed": true,
          "internalType": "address",
          "name": "approved",
          "type": "address"
        },
        {
          "indexed": true,
          "internalType": "uint256",
          "name": "tokenId",
          "type": "uint256"
        }
      ],
      "name": "Approval",
      "type": "event"
    },
    {
      "anonymous": false,
      "inputs": [
        {
          "indexed": true,
          "internalType": "address",
          "name": "owner",
          "type": "address"
        },
        {
          "indexed": true,
          "internalType": "address",
          "name": "operator",
          "type": "address"
        },
        {
          "indexed": false,
          "internalType": "bool",
          "name": "approved",
          "type": "bool"
        }
      ],
      "name": "ApprovalForAll",
      "type": "event"
    },
    {
      "anonymous": false,
      "inputs": [
        {
          "indexed": false,
          "internalType": "uint256",
          "name": "_fromTokenId",
          "type": "uint256"
        },
        {
          "indexed": false,
          "internalType": "uint256",
          "name": "_toTokenId",
          "type": "uint256"
        }
      ],
      "name": "BatchMetadataUpdate",
      "type": "event"
    },
    {
      "anonymous": false,
      "inputs": [
        {
          "indexed": false,
          "internalType": "uint256",
          "name": "_tokenId",
          "type": "uint256"
        }
      ],
      "name": "MetadataUpdate",
      "type": "event"
    },
    {
      "anonymous": false,
      "inputs": [
        {
          "indexed": true,
          "internalType": "address",
          "name": "previousOwner",
          "type": "address"
        },
        {
          "indexed": true,
          "internalType": "address",
          "name": "newOwner",
          "type": "address"
        }
      ],
      "name": "OwnershipTransferred",
      "type": "event"
    },
    {
      "anonymous": false,
      "inputs": [
        {
          "indexed": true,
          "internalType": "uint256",
          "name": "policyId",
          "type": "uint256"
        }
      ],
      "name": "PolicyBurned",
      "type": "event"
    },
    {
      "anonymous": false,
      "inputs": [
        {
          "indexed": true,
          "internalType": "uint256",
          "name": "policyId",
          "type": "uint256"
        },
        {
          "indexed": false,
          "internalType": "uint256",
          "name": "newTotalCoverage",
          "type": "uint256"
        }
      ],
      "name": "PolicyCoverageIncreased",
      "type": "event"
    },
    {
      "anonymous": false,
      "inputs": [
        {
          "indexed": true,
          "internalType": "address",
          "name": "newPolicyManagerAddress",
          "type": "address"
        }
      ],
      "name": "PolicyManagerAddressSet",
      "type": "event"
    },
    {
      "anonymous": false,
      "inputs": [
        {
          "indexed": true,
          "internalType": "address",
          "name": "owner",
          "type": "address"
        },
        {
          "indexed": true,
          "internalType": "uint256",
          "name": "policyId",
          "type": "uint256"
        }
      ],
      "name": "PolicyMinted",
      "type": "event"
    },
    {
      "anonymous": false,
      "inputs": [
        {
          "indexed": true,
          "internalType": "uint256",
          "name": "policyId",
          "type": "uint256"
        },
        {
          "indexed": false,
          "internalType": "uint128",
          "name": "newDeposit",
          "type": "uint128"
        },
        {
          "indexed": false,
          "internalType": "uint128",
          "name": "newDrainTime",
          "type": "uint128"
        }
      ],
      "name": "PolicyPremiumAccountUpdated",
      "type": "event"
    },
    {
      "anonymous": false,
      "inputs": [
        {
          "indexed": true,
          "internalType": "uint256",
          "name": "policyId",
          "type": "uint256"
        }
      ],
      "name": "PolicyUpdated",
      "type": "event"
    },
    {
      "anonymous": false,
      "inputs": [
        {
          "indexed": true,
          "internalType": "address",
          "name": "from",
          "type": "address"
        },
        {
          "indexed": true,
          "internalType": "address",
          "name": "to",
          "type": "address"
        },
        {
          "indexed": true,
          "internalType": "uint256",
          "name": "tokenId",
          "type": "uint256"
        }
      ],
      "name": "Transfer",
      "type": "event"
    },
    {
      "inputs": [
        {
          "internalType": "address",
          "name": "to",
          "type": "address"
        },
        {
          "internalType": "uint256",
          "name": "tokenId",
          "type": "uint256"
        }
      ],
      "name": "approve",
      "outputs": [],
      "stateMutability": "nonpayable",
      "type": "function"
    },
    {
      "inputs": [
        {
          "internalType": "address",
          "name": "owner",
          "type": "address"
        }
      ],
      "name": "balanceOf",
      "outputs": [
        {
          "internalType": "uint256",
          "name": "",
          "type": "uint256"
        }
      ],
      "stateMutability": "view",
      "type": "function"
    },
    {
      "inputs": [
        {
          "internalType": "uint256",
          "name": "id",
          "type": "uint256"
        }
      ],
      "name": "burn",
      "outputs": [],
      "stateMutability": "nonpayable",
      "type": "function"
    },
    {
      "inputs": [
        {
          "internalType": "uint256",
          "name": "id",
          "type": "uint256"
        },
        {
          "internalType": "uint256",
          "name": "totalAmountToAdd",
          "type": "uint256"
        }
      ],
      "name": "finalizeIncreases",
      "outputs": [],
      "stateMutability": "nonpayable",
      "type": "function"
    },
    {
      "inputs": [
        {
          "internalType": "uint256",
          "name": "tokenId",
          "type": "uint256"
        }
      ],
      "name": "getApproved",
      "outputs": [
        {
          "internalType": "address",
          "name": "",
          "type": "address"
        }
      ],
      "stateMutability": "view",
      "type": "function"
    },
    {
      "inputs": [
        {
          "internalType": "uint256",
          "name": "id",
          "type": "uint256"
        }
      ],
      "name": "getPolicy",
      "outputs": [
        {
          "components": [
            {
              "internalType": "uint256",
              "name": "coverage",
              "type": "uint256"
            },
            {
              "internalType": "uint256",
              "name": "poolId",
              "type": "uint256"
            },
            {
              "internalType": "uint256",
              "name": "start",
              "type": "uint256"
            },
            {
              "internalType": "uint256",
              "name": "activation",
              "type": "uint256"
            },
            {
              "internalType": "uint128",
              "name": "premiumDeposit",
              "type": "uint128"
            },
            {
              "internalType": "uint128",
              "name": "lastDrainTime",
              "type": "uint128"
            }
          ],
          "internalType": "struct IPolicyNFT.Policy",
          "name": "",
          "type": "tuple"
        }
      ],
      "stateMutability": "view",
      "type": "function"
    },
    {
      "inputs": [
        {
          "internalType": "address",
          "name": "owner",
          "type": "address"
        },
        {
          "internalType": "address",
          "name": "operator",
          "type": "address"
        }
      ],
      "name": "isApprovedForAll",
      "outputs": [
        {
          "internalType": "bool",
          "name": "",
          "type": "bool"
        }
      ],
      "stateMutability": "view",
      "type": "function"
    },
    {
      "inputs": [
        {
          "internalType": "address",
          "name": "to",
          "type": "address"
        },
        {
          "internalType": "uint256",
          "name": "pid",
          "type": "uint256"
        },
        {
          "internalType": "uint256",
          "name": "coverage",
          "type": "uint256"
        },
        {
          "internalType": "uint256",
          "name": "activation",
          "type": "uint256"
        },
        {
          "internalType": "uint128",
          "name": "premiumDeposit",
          "type": "uint128"
        },
        {
          "internalType": "uint128",
          "name": "lastDrainTime",
          "type": "uint128"
        }
      ],
      "name": "mint",
      "outputs": [
        {
          "internalType": "uint256",
          "name": "id",
          "type": "uint256"
        }
      ],
      "stateMutability": "nonpayable",
      "type": "function"
    },
    {
      "inputs": [],
      "name": "name",
      "outputs": [
        {
          "internalType": "string",
          "name": "",
          "type": "string"
        }
      ],
      "stateMutability": "view",
      "type": "function"
    },
    {
      "inputs": [],
      "name": "nextId",
      "outputs": [
        {
          "internalType": "uint256",
          "name": "",
          "type": "uint256"
        }
      ],
      "stateMutability": "view",
      "type": "function"
    },
    {
      "inputs": [],
      "name": "owner",
      "outputs": [
        {
          "internalType": "address",
          "name": "",
          "type": "address"
        }
      ],
      "stateMutability": "view",
      "type": "function"
    },
    {
      "inputs": [
        {
          "internalType": "uint256",
          "name": "id",
          "type": "uint256"
        }
      ],
      "name": "ownerOf",
      "outputs": [
        {
          "internalType": "address",
          "name": "",
          "type": "address"
        }
      ],
      "stateMutability": "view",
      "type": "function"
    },
    {
      "inputs": [
        {
          "internalType": "uint256",
          "name": "",
          "type": "uint256"
        }
      ],
      "name": "policies",
      "outputs": [
        {
          "internalType": "uint256",
          "name": "coverage",
          "type": "uint256"
        },
        {
          "internalType": "uint256",
          "name": "poolId",
          "type": "uint256"
        },
        {
          "internalType": "uint256",
          "name": "start",
          "type": "uint256"
        },
        {
          "internalType": "uint256",
          "name": "activation",
          "type": "uint256"
        },
        {
          "internalType": "uint128",
          "name": "premiumDeposit",
          "type": "uint128"
        },
        {
          "internalType": "uint128",
          "name": "lastDrainTime",
          "type": "uint128"
        }
      ],
      "stateMutability": "view",
      "type": "function"
    },
    {
      "inputs": [],
      "name": "policyManagerContract",
      "outputs": [
        {
          "internalType": "address",
          "name": "",
          "type": "address"
        }
      ],
      "stateMutability": "view",
      "type": "function"
    },
    {
      "inputs": [],
      "name": "renounceOwnership",
      "outputs": [],
      "stateMutability": "nonpayable",
      "type": "function"
    },
    {
      "inputs": [
        {
          "internalType": "address",
          "name": "from",
          "type": "address"
        },
        {
          "internalType": "address",
          "name": "to",
          "type": "address"
        },
        {
          "internalType": "uint256",
          "name": "tokenId",
          "type": "uint256"
        }
      ],
      "name": "safeTransferFrom",
      "outputs": [],
      "stateMutability": "nonpayable",
      "type": "function"
    },
    {
      "inputs": [
        {
          "internalType": "address",
          "name": "from",
          "type": "address"
        },
        {
          "internalType": "address",
          "name": "to",
          "type": "address"
        },
        {
          "internalType": "uint256",
          "name": "tokenId",
          "type": "uint256"
        },
        {
          "internalType": "bytes",
          "name": "data",
          "type": "bytes"
        }
      ],
      "name": "safeTransferFrom",
      "outputs": [],
      "stateMutability": "nonpayable",
      "type": "function"
    },
    {
      "inputs": [
        {
          "internalType": "address",
          "name": "operator",
          "type": "address"
        },
        {
          "internalType": "bool",
          "name": "approved",
          "type": "bool"
        }
      ],
      "name": "setApprovalForAll",
      "outputs": [],
      "stateMutability": "nonpayable",
      "type": "function"
    },
    {
      "inputs": [
        {
          "internalType": "address",
          "name": "newPolicyManagerAddress",
          "type": "address"
        }
      ],
      "name": "setPolicyManagerAddress",
      "outputs": [],
      "stateMutability": "nonpayable",
      "type": "function"
    },
    {
      "inputs": [
        {
          "internalType": "bytes4",
          "name": "interfaceId",
          "type": "bytes4"
        }
      ],
      "name": "supportsInterface",
      "outputs": [
        {
          "internalType": "bool",
          "name": "",
          "type": "bool"
        }
      ],
      "stateMutability": "view",
      "type": "function"
    },
    {
      "inputs": [],
      "name": "symbol",
      "outputs": [
        {
          "internalType": "string",
          "name": "",
          "type": "string"
        }
      ],
      "stateMutability": "view",
      "type": "function"
    },
    {
      "inputs": [
        {
          "internalType": "uint256",
          "name": "tokenId",
          "type": "uint256"
        }
      ],
      "name": "tokenURI",
      "outputs": [
        {
          "internalType": "string",
          "name": "",
          "type": "string"
        }
      ],
      "stateMutability": "view",
      "type": "function"
    },
    {
      "inputs": [
        {
          "internalType": "address",
          "name": "from",
          "type": "address"
        },
        {
          "internalType": "address",
          "name": "to",
          "type": "address"
        },
        {
          "internalType": "uint256",
          "name": "tokenId",
          "type": "uint256"
        }
      ],
      "name": "transferFrom",
      "outputs": [],
      "stateMutability": "nonpayable",
      "type": "function"
    },
    {
      "inputs": [
        {
          "internalType": "address",
          "name": "newOwner",
          "type": "address"
        }
      ],
      "name": "transferOwnership",
      "outputs": [],
      "stateMutability": "nonpayable",
      "type": "function"
    },
    {
      "inputs": [
        {
          "internalType": "uint256",
          "name": "id",
          "type": "uint256"
        },
        {
          "internalType": "uint128",
          "name": "newDeposit",
          "type": "uint128"
        },
        {
          "internalType": "uint128",
          "name": "newDrainTime",
          "type": "uint128"
        }
      ],
      "name": "updatePremiumAccount",
      "outputs": [],
      "stateMutability": "nonpayable",
      "type": "function"
    }
  ],
  "bytecode": "0x6080346200043357601f19601f6001600160401b0362001db638819003838101851686019190838311878410176200041d57808792604094855283398101031262000433576200004f8462000458565b6200005e602080960162000458565b916200006962000438565b936006855265506f6c69637960d01b878601526200008662000438565b60068152652821a7ab22a960d11b888201528551968388116200041d576000978854976001988981811c9116801562000412575b8c821014620003fe57908b8287859411620003a8575b50508b9086831160011462000343578b9262000337575b5050600019600383901b1c191690881b1788555b8151938411620003235786548781811c9116801562000318575b8a82101462000304579081848695949311620002ad575b50899284116001146200024c5750879262000240575b5050600019600383901b1c191690841b1783555b6001600160a01b0391821692831562000227576007549360018060a01b03199581878716176007557f8be0079c531659141344cd1fd0a4f28419497f9722a3daafe3b4186f6b6457e08560405197169180a360085516928315620001ce575050600a541617600a5560405161194890816200046e8239f35b62461bcd60e51b82526004820152602f60248201527f506f6c6963794e46543a20506f6c6963794d616e61676572206164647265737360448201526e2063616e6e6f74206265207a65726f60881b606482015260849150fd5b604051631e4fbdf760e01b815260048101869052602490fd5b01519050388062000142565b87895289892088959093929116895b8b8282106200029657505084116200027c575b505050811b01835562000156565b015160001960f88460031b161c191690553880806200026e565b8385015186558a979095019493840193016200025b565b90919293508789528989208480870160051c8201928c8810620002fa575b9187968b92969594930160051c01915b828110620002eb5750506200012c565b8b81558796508a9101620002db565b92508192620002cb565b634e487b7160e01b89526022600452602489fd5b90607f169062000115565b634e487b7160e01b88526041600452602488fd5b015190503880620000e7565b8b80528c8c208b949092919086168d8f5b8282106200038e575050841162000374575b505050811b018855620000fb565b015160001960f88460031b161c1916905538808062000366565b8484015186558e9790950194938401939081019062000354565b909192508b805286828d209181860160051c8301938610620003f4575b918c91869594930160051c01915b828110620003e557508d9150620000d0565b8d81558594508c9101620003d3565b92508192620003c5565b634e487b7160e01b8b52602260045260248bfd5b90607f1690620000ba565b634e487b7160e01b600052604160045260246000fd5b600080fd5b60408051919082016001600160401b038111838210176200041d57604052565b51906001600160a01b0382168203620004335756fe6040608081526004908136101561001557600080fd5b600091823560e01c8063012aa6c31461120557806301ffc9a71461111657806306fdde0314611049578063081812fc14611010578063095ea7b314610f1d57806323b872dd14610f055780632b07fce314610e3257806331c0191614610d1d578063342edd7e1461099757806342842e0e1461096857806342966c681461086157806361b8ce8c146108425780636352211e1461081257806370a08231146107a4578063715018a6146107495780638da5cb5b1461072157806395d89b4114610604578063a22cb4651461054a578063ab94fa3114610522578063b88d4fde1461048d578063c87b56dd1461036d578063d3e8948314610300578063e985e9c5146102ae578063f2fde38b1461020d5763fd067b1b1461013457600080fd5b34610209576020366003190112610209576001600160a01b03610155611332565b61015d611787565b169182156101a0575050806001600160a01b0319600a541617600a557f96ef4362498b0fa85c8625240e1d0ebcdd2ec5c981849e05d81705ed0720ad478280a280f35b906020608492519162461bcd60e51b8352820152602160248201527f506f6c6963794e46543a20416464726573732063616e6e6f74206265207a657260448201527f6f000000000000000000000000000000000000000000000000000000000000006064820152fd5b8280fd5b503461020957602036600319011261020957610227611332565b90610230611787565b6001600160a01b0380921692831561027f575050600754826001600160a01b0319821617600755167f8be0079c531659141344cd1fd0a4f28419497f9722a3daafe3b4186f6b6457e08380a380f35b908460249251917f1e4fbdf7000000000000000000000000000000000000000000000000000000008352820152fd5b5050346102fc57806003193601126102fc5760ff816020936102ce611332565b6102d661134d565b6001600160a01b0391821683526005875283832091168252855220549151911615158152f35b5080fd5b509034610209576020366003190112610209578060c093833581526009602052208054926001820154926002830154916003840154930154938151958652602086015284015260608301526fffffffffffffffffffffffffffffffff8116608083015260801c60a0820152f35b509190346102fc576020908160031936011261020957833561038e8161174c565b508352600682528083209281519381908054906001908260011c92600181168015610483575b888510811461047057848a528995949392918990821561044957505060011461040b575b5050506104079392916103ec9103866113e6565b81516103f7816113ca565b52519282849384528301906112f2565b0390f35b8552868520879350859291905b82841061043157505050820101816103ec6104076103d8565b8054848b018601528995508894909301928101610418565b60ff19168782015293151560051b860190930193508492506103ec915061040790506103d8565b60248760228d634e487b7160e01b835252fd5b93607f16936103b4565b509034610209576080366003190112610209576104a8611332565b6104b061134d565b60443591856064359567ffffffffffffffff87116102fc57366023880112156102fc57860135956104ec6104e388611408565b965196876113e6565b86865236602488830101116102fc578661051f976024602093018389013786010152610519838383611577565b336117cb565b80f35b5050346102fc57816003193601126102fc576020906001600160a01b03600a54169051908152f35b509034610209578060031936011261020957610564611332565b9060243591821515809303610600576001600160a01b03169283156105d25750338452600560205280842083855260205280842060ff1981541660ff8416179055519081527f17307eab39ab6107e8899845ad3d59bd9653f200f220920489ca2b5937696c3160203392a380f35b8360249251917f5b08ba18000000000000000000000000000000000000000000000000000000008352820152fd5b8480fd5b50913461071e578060031936011261071e5781519181600192600154938460011c9160018616958615610714575b6020968785108114610701578899509688969785829a5291826000146106da57505060011461067e575b505050610407929161066f9103856113e6565b519282849384528301906112f2565b9190869350600183527fb10e2d527612073b26eecdfd717e6a320cf44b4afac2b0732d9fcbe2b7fa0cf65b8284106106c2575050508201018161066f61040761065c565b8054848a0186015288955087949093019281016106a9565b60ff19168782015293151560051b8601909301935084925061066f9150610407905061065c565b60248360228c634e487b7160e01b835252fd5b92607f1692610632565b80fd5b5050346102fc57816003193601126102fc576020906001600160a01b03600754169051908152f35b833461071e578060031936011261071e57610762611787565b806001600160a01b036007546001600160a01b03198116600755167f8be0079c531659141344cd1fd0a4f28419497f9722a3daafe3b4186f6b6457e08280a380f35b50913461071e57602036600319011261071e576001600160a01b036107c7611332565b169283156107e45750806020938392526003845220549051908152f35b9060249251917f89c62b64000000000000000000000000000000000000000000000000000000008352820152fd5b50913461071e57602036600319011261071e57506001600160a01b0361083a6020933561174c565b915191168152f35b5050346102fc57816003193601126102fc576020906008549051908152f35b508290346102fc5760203660031901126102fc578035926001600160a01b0361089a81600a5416610893811515611424565b3314611495565b848452600260205281842054168484821592831561092f575b82825260026020528482206001600160a01b031981541690557fddf252ad1be2c89b69c2b068fc378daa952ba7f163c4a11628f55a4df523b3ef8280a4610919578293835260096020528220828155826001820155826002820155826003820155015580f35b90836024925191637e27328960e01b8352820152fd5b61095083600052600460205260406000206001600160a01b03198154169055565b808252600360205284822080546000190190556108b3565b5050346102fc5761051f9061097c36611363565b91925192610989846113ca565b858452610519838383611577565b50346102095760c0366003190112610209576109b1611332565b91602491608435906fffffffffffffffffffffffffffffffff90818316809303610d195760a4359682881680980361071e576001600160a01b03956109ff87600a5416610893811515611424565b6008549660001998898914610d075760018901600855875190610a21826113ca565b848252828116928315610cf2578a848b9282895260209e8f9160028352858b205416918215159560029287610cbb575b50848c52600382528b2060018154019055848b52528c8920826001600160a01b03198254161790557fddf252ad1be2c89b69c2b068fc378daa952ba7f163c4a11628f55a4df523b3ef8980a4610c8d573b610b5e575b50509280928992888a610b5898978a805194610ac286611398565b60443586528386019235835260098287019442865260608801966064358852608089019d8e5260a089019b8c528352522093518455516001840155516002830155516003820155019351166fffffffffffffffffffffffffffffffff1984541617835551166fffffffffffffffffffffffffffffffff6fffffffffffffffffffffffffffffffff1983549260801b169116179055565b51908152f35b93610ba58a839a96859d948780869f9c999b988e5196879586948593630a85bd0160e11b9b8c865233908601528401528d60448401526080606484015260848301906112f2565b03925af1879181610c49575b50610c0c575050505050503d600014610c04573d610bce81611408565b90610bdb855192836113e6565b81528091833d92013e5b80519182610c01575050505191633250574960e11b8352820152fd5b01fd5b506060610be5565b6001600160e01b0319909a94979a999295999693961603610c34575091979091908187610aa7565b828a91885191633250574960e11b8352820152fd5b9091508881813d8311610c86575b610c6181836113e6565b81010312610c8257516001600160e01b031981168103610c82579038610bb1565b8780fd5b503d610c57565b8386868b51917f73c6ac6e000000000000000000000000000000000000000000000000000000008352820152fd5b610cdc87600052600460205260406000206001600160a01b03198154169055565b848d5260038352818d2090815401905538610a51565b8487878c5191633250574960e11b8352820152fd5b8284601187634e487b7160e01b835252fd5b8680fd5b503461020957816003193601126102095780359160243591610d4f6001600160a01b03600a5416610893811515611424565b8385526009602052610d68600283872001541515611506565b8215610dca578385526009602052818520908154938401809411610db7575091602091817f4e52e5c6c1f2802ac15497743e6c08a4251f6421a26a5cc4c2d82a3c2fded322945551908152a280f35b856011602492634e487b7160e01b835252fd5b6020608492519162461bcd60e51b8352820152603260248201527f506f6c6963794e46543a20416d6f756e7420746f20616464206d75737420626560448201527f2067726561746572207468616e207a65726f00000000000000000000000000006064820152fd5b503461020957602036600319011261020957818360c09460a08351610e5681611398565b828152826020820152828582015282606082015282608082015201528235815260096020522091805192610e8984611398565b80549384815260018201549160208201928352600281015494848301958652600382015491606084019283520154936fffffffffffffffffffffffffffffffff95869460a060808601958789168752019660801c87528251988952516020890152519087015251606086015251166080840152511660a0820152f35b833461071e5761051f610f1736611363565b91611577565b509034610209578060031936011261020957610f37611332565b91602435610f448161174c565b33151580610ffd575b80610fd5575b610fa65781906001600160a01b03809616958691167f8c5be1e5ebec7d5bd14f71427d1e84f3dd0314c0f7b2291e5b200ac8c7c3b9258880a484526020528220906001600160a01b031982541617905580f35b83517fa9fbf51f0000000000000000000000000000000000000000000000000000000081523381850152602490fd5b506001600160a01b0381168652600560205283862033875260205260ff848720541615610f53565b50336001600160a01b0382161415610f4d565b50346102095760203660031901126102095781602093826001600160a01b03933561103a8161174c565b50825285522054169051908152f35b50913461071e578060031936011261071e578151918182549260018460011c916001861695861561110c575b6020968785108114610701578899509688969785829a5291826000146106da5750506001146110b157505050610407929161066f9103856113e6565b91908693508280527f290decd9548b62a8d60345a988386fc84ba6bc95484008f6362f93160ef3e5635b8284106110f4575050508201018161066f61040761065c565b8054848a0186015288955087949093019281016110db565b92607f1692611075565b50346102095760203660031901126102095735906001600160e01b0319821680920361020957602092507f49064906000000000000000000000000000000000000000000000000000000008214918215611174575b50519015158152f35b9091507f80ac58cd0000000000000000000000000000000000000000000000000000000081149081156111db575b81156111b1575b50903861116b565b7f01ffc9a700000000000000000000000000000000000000000000000000000000915014386111a9565b7f5b5e139f00000000000000000000000000000000000000000000000000000000811491506111a2565b5034610209576060366003190112610209578035916024356fffffffffffffffffffffffffffffffff928382168092036112ee5760443593841690818503610d19577fa2feae0e047d1059af920dcd066c0d5306bdfde29004cde9e4cdb76b10fd4255946112e0916112876001600160a01b03600a5416610893811515611424565b87895260096020526112a06002878b2001541515611506565b87895260096020528589206fffffffffffffffffffffffffffffffff861660809390931b6fffffffffffffffffffffffffffffffff191692909217910155565b82519182526020820152a280f35b8580fd5b919082519283825260005b84811061131e575050826000602080949584010152601f8019910116010190565b6020818301810151848301820152016112fd565b600435906001600160a01b038216820361134857565b600080fd5b602435906001600160a01b038216820361134857565b6060906003190112611348576001600160a01b0390600435828116810361134857916024359081168103611348579060443590565b60c0810190811067ffffffffffffffff8211176113b457604052565b634e487b7160e01b600052604160045260246000fd5b6020810190811067ffffffffffffffff8211176113b457604052565b90601f8019910116810190811067ffffffffffffffff8211176113b457604052565b67ffffffffffffffff81116113b457601f01601f191660200190565b1561142b57565b608460405162461bcd60e51b815260206004820152602860248201527f506f6c6963794e46543a20506f6c6963794d616e61676572206164647265737360448201527f206e6f74207365740000000000000000000000000000000000000000000000006064820152fd5b1561149c57565b608460405162461bcd60e51b815260206004820152603560248201527f506f6c6963794e46543a2043616c6c6572206973206e6f74207468652061757460448201527f686f72697a656420506f6c6963794d616e6167657200000000000000000000006064820152fd5b1561150d57565b608460405162461bcd60e51b815260206004820152603360248201527f506f6c6963794e46543a20506f6c69637920646f6573206e6f7420657869737460448201527f206f7220686173206265656e206275726e6564000000000000000000000000006064820152fd5b90916001600160a01b0380931692831561173457600092828452826020956002875260409684888820541696879133151580611685575b509060027fddf252ad1be2c89b69c2b068fc378daa952ba7f163c4a11628f55a4df523b3ef928461164d575b858352600381528b83206001815401905586835252898120846001600160a01b031982541617905580a416928383036116135750505050565b6064945051927f64283d7b000000000000000000000000000000000000000000000000000000008452600484015260248301526044820152fd5b61166e87600052600460205260406000206001600160a01b03198154169055565b848352600381528b832080546000190190556115da565b919394509150806116f3575b156116a1578592918791386115ae565b8786886116be576024915190637e27328960e01b82526004820152fd5b60449151907f177e802f0000000000000000000000000000000000000000000000000000000082523360048301526024820152fd5b503387148015611718575b806116915750858252600481523385898420541614611691565b5086825260058152878220338352815260ff88832054166116fe565b6024604051633250574960e11b815260006004820152fd5b8060005260026020526001600160a01b036040600020541690811561176f575090565b60249060405190637e27328960e01b82526004820152fd5b6001600160a01b0360075416330361179b57565b60246040517f118cdaa7000000000000000000000000000000000000000000000000000000008152336004820152fd5b909192833b6117dc575b5050505050565b6001600160a01b039592939495809516946040519481630a85bd0160e11b948588521660048701521660248501526044840152608060648401528261182760209660848301906112f2565b039285816000958187895af18491816118d2575b5061189a575050503d600014611892573d61185581611408565b9061186360405192836113e6565b81528091843d92013e5b8051928361188d5760248360405190633250574960e11b82526004820152fd5b019050fd5b50606061186d565b9092506001600160e01b031991945016036118ba575038808080806117d5565b60249060405190633250574960e11b82526004820152fd5b9091508681813d831161190b575b6118ea81836113e6565b8101031261060057516001600160e01b03198116810361060057903861183b565b503d6118e056fea26469706673582212203f2ee2c599702d41f85f5dee6d70f5b190504ed60bf4ff092431756aa2e4cc8864736f6c63430008160033",
  "linkReferences": {},
  "deployedLinkReferences": {}
}