{
  "_format": "hh-sol-artifact-1",
  "contractName": "PolicyNFT",
  "sourceName": "contracts/tokens/PolicyNFT.sol",
  "abi": [
    {
      "inputs": [
        {
          "internalType": "address",
          "name": "_initialPolicyManager",
          "type": "address"
        },
        {
          "internalType": "address",
          "name": "initialOwner",
          "type": "address"
        }
      ],
      "stateMutability": "nonpayable",
      "type": "constructor"
    },
    {
      "inputs": [
        {
          "internalType": "address",
          "name": "sender",
          "type": "address"
        },
        {
          "internalType": "uint256",
          "name": "tokenId",
          "type": "uint256"
        },
        {
          "internalType": "address",
          "name": "owner",
          "type": "address"
        }
      ],
      "name": "ERC721IncorrectOwner",
      "type": "error"
    },
    {
      "inputs": [
        {
          "internalType": "address",
          "name": "operator",
          "type": "address"
        },
        {
          "internalType": "uint256",
          "name": "tokenId",
          "type": "uint256"
        }
      ],
      "name": "ERC721InsufficientApproval",
      "type": "error"
    },
    {
      "inputs": [
        {
          "internalType": "address",
          "name": "approver",
          "type": "address"
        }
      ],
      "name": "ERC721InvalidApprover",
      "type": "error"
    },
    {
      "inputs": [
        {
          "internalType": "address",
          "name": "operator",
          "type": "address"
        }
      ],
      "name": "ERC721InvalidOperator",
      "type": "error"
    },
    {
      "inputs": [
        {
          "internalType": "address",
          "name": "owner",
          "type": "address"
        }
      ],
      "name": "ERC721InvalidOwner",
      "type": "error"
    },
    {
      "inputs": [
        {
          "internalType": "address",
          "name": "receiver",
          "type": "address"
        }
      ],
      "name": "ERC721InvalidReceiver",
      "type": "error"
    },
    {
      "inputs": [
        {
          "internalType": "address",
          "name": "sender",
          "type": "address"
        }
      ],
      "name": "ERC721InvalidSender",
      "type": "error"
    },
    {
      "inputs": [
        {
          "internalType": "uint256",
          "name": "tokenId",
          "type": "uint256"
        }
      ],
      "name": "ERC721NonexistentToken",
      "type": "error"
    },
    {
      "inputs": [
        {
          "internalType": "address",
          "name": "owner",
          "type": "address"
        }
      ],
      "name": "OwnableInvalidOwner",
      "type": "error"
    },
    {
      "inputs": [
        {
          "internalType": "address",
          "name": "account",
          "type": "address"
        }
      ],
      "name": "OwnableUnauthorizedAccount",
      "type": "error"
    },
    {
      "anonymous": false,
      "inputs": [
        {
          "indexed": true,
          "internalType": "address",
          "name": "owner",
          "type": "address"
        },
        {
          "indexed": true,
          "internalType": "address",
          "name": "approved",
          "type": "address"
        },
        {
          "indexed": true,
          "internalType": "uint256",
          "name": "tokenId",
          "type": "uint256"
        }
      ],
      "name": "Approval",
      "type": "event"
    },
    {
      "anonymous": false,
      "inputs": [
        {
          "indexed": true,
          "internalType": "address",
          "name": "owner",
          "type": "address"
        },
        {
          "indexed": true,
          "internalType": "address",
          "name": "operator",
          "type": "address"
        },
        {
          "indexed": false,
          "internalType": "bool",
          "name": "approved",
          "type": "bool"
        }
      ],
      "name": "ApprovalForAll",
      "type": "event"
    },
    {
      "anonymous": false,
      "inputs": [
        {
          "indexed": false,
          "internalType": "uint256",
          "name": "_fromTokenId",
          "type": "uint256"
        },
        {
          "indexed": false,
          "internalType": "uint256",
          "name": "_toTokenId",
          "type": "uint256"
        }
      ],
      "name": "BatchMetadataUpdate",
      "type": "event"
    },
    {
      "anonymous": false,
      "inputs": [
        {
          "indexed": false,
          "internalType": "uint256",
          "name": "_tokenId",
          "type": "uint256"
        }
      ],
      "name": "MetadataUpdate",
      "type": "event"
    },
    {
      "anonymous": false,
      "inputs": [
        {
          "indexed": true,
          "internalType": "address",
          "name": "previousOwner",
          "type": "address"
        },
        {
          "indexed": true,
          "internalType": "address",
          "name": "newOwner",
          "type": "address"
        }
      ],
      "name": "OwnershipTransferred",
      "type": "event"
    },
    {
      "anonymous": false,
      "inputs": [
        {
          "indexed": true,
          "internalType": "uint256",
          "name": "policyId",
          "type": "uint256"
        }
      ],
      "name": "PolicyBurned",
      "type": "event"
    },
    {
      "anonymous": false,
      "inputs": [
        {
          "indexed": true,
          "internalType": "uint256",
          "name": "policyId",
          "type": "uint256"
        },
        {
          "indexed": false,
          "internalType": "uint256",
          "name": "newTotalCoverage",
          "type": "uint256"
        }
      ],
      "name": "PolicyCoverageIncreased",
      "type": "event"
    },
    {
      "anonymous": false,
      "inputs": [
        {
          "indexed": true,
          "internalType": "uint256",
          "name": "policyId",
          "type": "uint256"
        },
        {
          "indexed": false,
          "internalType": "uint256",
          "name": "newTotalCoverage",
          "type": "uint256"
        }
      ],
      "name": "PolicyCoverageReduced",
      "type": "event"
    },
    {
      "anonymous": false,
      "inputs": [
        {
          "indexed": true,
          "internalType": "address",
          "name": "newPolicyManagerAddress",
          "type": "address"
        }
      ],
      "name": "PolicyManagerAddressSet",
      "type": "event"
    },
    {
      "anonymous": false,
      "inputs": [
        {
          "indexed": true,
          "internalType": "address",
          "name": "owner",
          "type": "address"
        },
        {
          "indexed": true,
          "internalType": "uint256",
          "name": "policyId",
          "type": "uint256"
        }
      ],
      "name": "PolicyMinted",
      "type": "event"
    },
    {
      "anonymous": false,
      "inputs": [
        {
          "indexed": true,
          "internalType": "uint256",
          "name": "policyId",
          "type": "uint256"
        },
        {
          "indexed": false,
          "internalType": "uint128",
          "name": "newDeposit",
          "type": "uint128"
        },
        {
          "indexed": false,
          "internalType": "uint128",
          "name": "newDrainTime",
          "type": "uint128"
        }
      ],
      "name": "PolicyPremiumAccountUpdated",
      "type": "event"
    },
    {
      "anonymous": false,
      "inputs": [
        {
          "indexed": true,
          "internalType": "uint256",
          "name": "policyId",
          "type": "uint256"
        }
      ],
      "name": "PolicyUpdated",
      "type": "event"
    },
    {
      "anonymous": false,
      "inputs": [
        {
          "indexed": true,
          "internalType": "address",
          "name": "newRiskManagerAddress",
          "type": "address"
        }
      ],
      "name": "RiskManagerAddressSet",
      "type": "event"
    },
    {
      "anonymous": false,
      "inputs": [
        {
          "indexed": true,
          "internalType": "address",
          "name": "from",
          "type": "address"
        },
        {
          "indexed": true,
          "internalType": "address",
          "name": "to",
          "type": "address"
        },
        {
          "indexed": true,
          "internalType": "uint256",
          "name": "tokenId",
          "type": "uint256"
        }
      ],
      "name": "Transfer",
      "type": "event"
    },
    {
      "inputs": [
        {
          "internalType": "address",
          "name": "to",
          "type": "address"
        },
        {
          "internalType": "uint256",
          "name": "tokenId",
          "type": "uint256"
        }
      ],
      "name": "approve",
      "outputs": [],
      "stateMutability": "nonpayable",
      "type": "function"
    },
    {
      "inputs": [
        {
          "internalType": "address",
          "name": "owner",
          "type": "address"
        }
      ],
      "name": "balanceOf",
      "outputs": [
        {
          "internalType": "uint256",
          "name": "",
          "type": "uint256"
        }
      ],
      "stateMutability": "view",
      "type": "function"
    },
    {
      "inputs": [
        {
          "internalType": "uint256",
          "name": "id",
          "type": "uint256"
        }
      ],
      "name": "burn",
      "outputs": [],
      "stateMutability": "nonpayable",
      "type": "function"
    },
    {
      "inputs": [
        {
          "internalType": "uint256",
          "name": "id",
          "type": "uint256"
        },
        {
          "internalType": "uint256",
          "name": "totalAmountToAdd",
          "type": "uint256"
        }
      ],
      "name": "finalizeIncreases",
      "outputs": [],
      "stateMutability": "nonpayable",
      "type": "function"
    },
    {
      "inputs": [
        {
          "internalType": "uint256",
          "name": "tokenId",
          "type": "uint256"
        }
      ],
      "name": "getApproved",
      "outputs": [
        {
          "internalType": "address",
          "name": "",
          "type": "address"
        }
      ],
      "stateMutability": "view",
      "type": "function"
    },
    {
      "inputs": [
        {
          "internalType": "uint256",
          "name": "id",
          "type": "uint256"
        }
      ],
      "name": "getPolicy",
      "outputs": [
        {
          "components": [
            {
              "internalType": "uint256",
              "name": "coverage",
              "type": "uint256"
            },
            {
              "internalType": "uint256",
              "name": "poolId",
              "type": "uint256"
            },
            {
              "internalType": "uint256",
              "name": "start",
              "type": "uint256"
            },
            {
              "internalType": "uint256",
              "name": "activation",
              "type": "uint256"
            },
            {
              "internalType": "uint128",
              "name": "premiumDeposit",
              "type": "uint128"
            },
            {
              "internalType": "uint128",
              "name": "lastDrainTime",
              "type": "uint128"
            }
          ],
          "internalType": "struct IPolicyNFT.Policy",
          "name": "",
          "type": "tuple"
        }
      ],
      "stateMutability": "view",
      "type": "function"
    },
    {
      "inputs": [
        {
          "internalType": "address",
          "name": "owner",
          "type": "address"
        },
        {
          "internalType": "address",
          "name": "operator",
          "type": "address"
        }
      ],
      "name": "isApprovedForAll",
      "outputs": [
        {
          "internalType": "bool",
          "name": "",
          "type": "bool"
        }
      ],
      "stateMutability": "view",
      "type": "function"
    },
    {
      "inputs": [
        {
          "internalType": "address",
          "name": "to",
          "type": "address"
        },
        {
          "internalType": "uint256",
          "name": "pid",
          "type": "uint256"
        },
        {
          "internalType": "uint256",
          "name": "coverage",
          "type": "uint256"
        },
        {
          "internalType": "uint256",
          "name": "activation",
          "type": "uint256"
        },
        {
          "internalType": "uint128",
          "name": "premiumDeposit",
          "type": "uint128"
        },
        {
          "internalType": "uint128",
          "name": "lastDrainTime",
          "type": "uint128"
        }
      ],
      "name": "mint",
      "outputs": [
        {
          "internalType": "uint256",
          "name": "id",
          "type": "uint256"
        }
      ],
      "stateMutability": "nonpayable",
      "type": "function"
    },
    {
      "inputs": [],
      "name": "name",
      "outputs": [
        {
          "internalType": "string",
          "name": "",
          "type": "string"
        }
      ],
      "stateMutability": "view",
      "type": "function"
    },
    {
      "inputs": [],
      "name": "nextId",
      "outputs": [
        {
          "internalType": "uint256",
          "name": "",
          "type": "uint256"
        }
      ],
      "stateMutability": "view",
      "type": "function"
    },
    {
      "inputs": [],
      "name": "owner",
      "outputs": [
        {
          "internalType": "address",
          "name": "",
          "type": "address"
        }
      ],
      "stateMutability": "view",
      "type": "function"
    },
    {
      "inputs": [
        {
          "internalType": "uint256",
          "name": "id",
          "type": "uint256"
        }
      ],
      "name": "ownerOf",
      "outputs": [
        {
          "internalType": "address",
          "name": "",
          "type": "address"
        }
      ],
      "stateMutability": "view",
      "type": "function"
    },
    {
      "inputs": [
        {
          "internalType": "uint256",
          "name": "",
          "type": "uint256"
        }
      ],
      "name": "policies",
      "outputs": [
        {
          "internalType": "uint256",
          "name": "coverage",
          "type": "uint256"
        },
        {
          "internalType": "uint256",
          "name": "poolId",
          "type": "uint256"
        },
        {
          "internalType": "uint256",
          "name": "start",
          "type": "uint256"
        },
        {
          "internalType": "uint256",
          "name": "activation",
          "type": "uint256"
        },
        {
          "internalType": "uint128",
          "name": "premiumDeposit",
          "type": "uint128"
        },
        {
          "internalType": "uint128",
          "name": "lastDrainTime",
          "type": "uint128"
        }
      ],
      "stateMutability": "view",
      "type": "function"
    },
    {
      "inputs": [],
      "name": "policyManagerContract",
      "outputs": [
        {
          "internalType": "address",
          "name": "",
          "type": "address"
        }
      ],
      "stateMutability": "view",
      "type": "function"
    },
    {
      "inputs": [
        {
          "internalType": "uint256",
          "name": "id",
          "type": "uint256"
        },
        {
          "internalType": "uint256",
          "name": "reductionAmount",
          "type": "uint256"
        }
      ],
      "name": "reduceCoverage",
      "outputs": [],
      "stateMutability": "nonpayable",
      "type": "function"
    },
    {
      "inputs": [],
      "name": "renounceOwnership",
      "outputs": [],
      "stateMutability": "nonpayable",
      "type": "function"
    },
    {
      "inputs": [],
      "name": "riskManagerContract",
      "outputs": [
        {
          "internalType": "address",
          "name": "",
          "type": "address"
        }
      ],
      "stateMutability": "view",
      "type": "function"
    },
    {
      "inputs": [
        {
          "internalType": "address",
          "name": "from",
          "type": "address"
        },
        {
          "internalType": "address",
          "name": "to",
          "type": "address"
        },
        {
          "internalType": "uint256",
          "name": "tokenId",
          "type": "uint256"
        }
      ],
      "name": "safeTransferFrom",
      "outputs": [],
      "stateMutability": "nonpayable",
      "type": "function"
    },
    {
      "inputs": [
        {
          "internalType": "address",
          "name": "from",
          "type": "address"
        },
        {
          "internalType": "address",
          "name": "to",
          "type": "address"
        },
        {
          "internalType": "uint256",
          "name": "tokenId",
          "type": "uint256"
        },
        {
          "internalType": "bytes",
          "name": "data",
          "type": "bytes"
        }
      ],
      "name": "safeTransferFrom",
      "outputs": [],
      "stateMutability": "nonpayable",
      "type": "function"
    },
    {
      "inputs": [
        {
          "internalType": "address",
          "name": "operator",
          "type": "address"
        },
        {
          "internalType": "bool",
          "name": "approved",
          "type": "bool"
        }
      ],
      "name": "setApprovalForAll",
      "outputs": [],
      "stateMutability": "nonpayable",
      "type": "function"
    },
    {
      "inputs": [
        {
          "internalType": "address",
          "name": "newPolicyManagerAddress",
          "type": "address"
        }
      ],
      "name": "setPolicyManagerAddress",
      "outputs": [],
      "stateMutability": "nonpayable",
      "type": "function"
    },
    {
      "inputs": [
        {
          "internalType": "address",
          "name": "newRiskManagerAddress",
          "type": "address"
        }
      ],
      "name": "setRiskManagerAddress",
      "outputs": [],
      "stateMutability": "nonpayable",
      "type": "function"
    },
    {
      "inputs": [
        {
          "internalType": "bytes4",
          "name": "interfaceId",
          "type": "bytes4"
        }
      ],
      "name": "supportsInterface",
      "outputs": [
        {
          "internalType": "bool",
          "name": "",
          "type": "bool"
        }
      ],
      "stateMutability": "view",
      "type": "function"
    },
    {
      "inputs": [],
      "name": "symbol",
      "outputs": [
        {
          "internalType": "string",
          "name": "",
          "type": "string"
        }
      ],
      "stateMutability": "view",
      "type": "function"
    },
    {
      "inputs": [
        {
          "internalType": "uint256",
          "name": "tokenId",
          "type": "uint256"
        }
      ],
      "name": "tokenURI",
      "outputs": [
        {
          "internalType": "string",
          "name": "",
          "type": "string"
        }
      ],
      "stateMutability": "view",
      "type": "function"
    },
    {
      "inputs": [
        {
          "internalType": "address",
          "name": "from",
          "type": "address"
        },
        {
          "internalType": "address",
          "name": "to",
          "type": "address"
        },
        {
          "internalType": "uint256",
          "name": "tokenId",
          "type": "uint256"
        }
      ],
      "name": "transferFrom",
      "outputs": [],
      "stateMutability": "nonpayable",
      "type": "function"
    },
    {
      "inputs": [
        {
          "internalType": "address",
          "name": "newOwner",
          "type": "address"
        }
      ],
      "name": "transferOwnership",
      "outputs": [],
      "stateMutability": "nonpayable",
      "type": "function"
    },
    {
      "inputs": [
        {
          "internalType": "uint256",
          "name": "id",
          "type": "uint256"
        },
        {
          "internalType": "uint128",
          "name": "newDeposit",
          "type": "uint128"
        },
        {
          "internalType": "uint128",
          "name": "newDrainTime",
          "type": "uint128"
        }
      ],
      "name": "updatePremiumAccount",
      "outputs": [],
      "stateMutability": "nonpayable",
      "type": "function"
    }
  ],
  "bytecode": "0x608034620003ce57601f90601f19906001600160401b03620020573881900385810185168401919083831185841017620003b8578085926040948552833981010312620003ce576200005182620003f3565b620000606020809401620003f3565b916200006b620003d3565b956006875265506f6c69637960d01b8588015262000088620003d3565b60068152652821a7ab22a960d11b86820152875195838711620003b85760009687549960019a8b81811c91168015620003ad575b84821014620003995790818684931162000346575b508390868311600114620002dc578a92620002d0575b5050600019600383901b1c1916908a1b1787555b8151938411620002bc578854978989811c99168015620002b1575b828a10146200029d5783891162000254575b878596979899505081938511600114620001ef5750508692620001e3575b5050600019600383901b1c191690851b1784555b6001600160a01b03918216938415620001ca57600780546001600160a01b03198082168817909255604051969195908516907f8be0079c531659141344cd1fd0a4f28419497f9722a3daafe3b4186f6b6457e09080a36008551690600a541617600a55611c4e9081620004098239f35b604051631e4fbdf760e01b815260048101859052602490fd5b01519050388062000146565b899593929193168589528389209389905b8282106200023a575050841162000220575b505050811b0184556200015a565b015160001960f88460031b161c1916905538808062000212565b8484015186558b9790950194938401939081019062000200565b89885281882084860160051c81019983871062000292575b850160051c01988a905b8a81106200028657505062000128565b898155018a9062000276565b90995089906200026c565b634e487b7160e01b88526022600452602488fd5b98607f169862000116565b634e487b7160e01b87526041600452602487fd5b015190503880620000e7565b908b8d9416918b8052858c20928c5b878282106200032657505084116200030c575b505050811b018755620000fb565b015160001960f88460031b161c19169055388080620002fe565b91929395968291958786015181550195019301908e9594939291620002eb565b909150898052838a208680850160051c8201928686106200038f575b918e91869594930160051c01915b82811062000380575050620000d1565b8c81558594508e910162000370565b9250819262000362565b634e487b7160e01b8a52602260045260248afd5b90607f1690620000bc565b634e487b7160e01b600052604160045260246000fd5b600080fd5b60408051919082016001600160401b03811183821017620003b857604052565b51906001600160a01b0382168203620003ce5756fe60406080815260048036101561001457600080fd5b600091823560e01c918263012aa6c3146113c657826301ffc9a7146112d557826306fdde0314611208578263081812fc146111cd578263095ea7b3146110da578263188140131461106b57826323b872dd146110535782632b07fce314610f7e57826331c0191614610e81578263342edd7e14610af25782633b6eef7814610aca57826342842e0e14610a9b57826342966c681461096b57826360e0ca8f1461081e57826361b8ce8c146107ff5782636352211e146107cf57826370a0823114610761578263715018a6146107065782638da5cb5b146106de57826395d89b41146105c4578263a22cb4651461050a578263ab94fa31146104e2578263b88d4fde1461044d578263c87b56dd1461032e578263d3e89483146102c1578263e985e9c51461026f578263f2fde38b146101c857505063fd067b1b1461015757600080fd5b346101c55760203660031901126101c5576001600160a01b036101786114f5565b610180611a8d565b1661018c811515611750565b806001600160a01b0319600a541617600a557f96ef4362498b0fa85c8625240e1d0ebcdd2ec5c981849e05d81705ed0720ad478280a280f35b80fd5b9091503461026b57602036600319011261026b576101e46114f5565b906101ed611a8d565b6001600160a01b0380921692831561023c575050600754826001600160a01b0319821617600755167f8be0079c531659141344cd1fd0a4f28419497f9722a3daafe3b4186f6b6457e08380a380f35b908460249251917f1e4fbdf7000000000000000000000000000000000000000000000000000000008352820152fd5b8280fd5b8382346102bd57806003193601126102bd5760ff8160209361028f6114f5565b610297611510565b6001600160a01b0391821683526005875283832091168252855220549151911615158152f35b5080fd5b91503461026b57602036600319011261026b578060c093833581526009602052208054926001820154926002830154916003840154930154938151958652602086015284015260608301526fffffffffffffffffffffffffffffffff8116608083015260801c60a0820152f35b8382346102bd576020908160031936011261026b57833561034e81611a52565b508352600682528083209281519381908054906001908260011c92600181168015610443575b888510811461043057848a52899594939291899082156104095750506001146103cb575b5050506103c79392916103ac9103866115bf565b81516103b7816115a3565b52519282849384528301906114b5565b0390f35b8552868520879350859291905b8284106103f157505050820101816103ac6103c7610398565b8054848b0186015289955088949093019281016103d8565b60ff19168782015293151560051b860190930193508492506103ac91506103c79050610398565b60248760228d634e487b7160e01b835252fd5b93607f1693610374565b91503461026b57608036600319011261026b576104686114f5565b610470611510565b60443591856064359567ffffffffffffffff87116102bd57366023880112156102bd57860135956104ac6104a3886115e1565b965196876115bf565b86865236602488830101116102bd57866104df9760246020930183890137860101526104d98383836117c1565b33611ad1565b80f35b8382346102bd57816003193601126102bd576020906001600160a01b03600a54169051908152f35b91503461026b578060031936011261026b576105246114f5565b90602435918215158093036105c0576001600160a01b03169283156105925750338452600560205280842083855260205280842060ff1981541660ff8416179055519081527f17307eab39ab6107e8899845ad3d59bd9653f200f220920489ca2b5937696c3160203392a380f35b8360249251917f5b08ba18000000000000000000000000000000000000000000000000000000008352820152fd5b8480fd5b9083346101c557806003193601126101c55781519181600192600154938460011c91600186169586156106d4575b60209687851081146106c1578899509688969785829a52918260001461069a57505060011461063e575b5050506103c7929161062f9103856115bf565b519282849384528301906114b5565b9190869350600183527fb10e2d527612073b26eecdfd717e6a320cf44b4afac2b0732d9fcbe2b7fa0cf65b828410610682575050508201018161062f6103c761061c565b8054848a018601528895508794909301928101610669565b60ff19168782015293151560051b8601909301935084925061062f91506103c7905061061c565b60248360228c634e487b7160e01b835252fd5b92607f16926105f2565b8382346102bd57816003193601126102bd576020906001600160a01b03600754169051908152f35b83346101c557806003193601126101c55761071f611a8d565b806001600160a01b036007546001600160a01b03198116600755167f8be0079c531659141344cd1fd0a4f28419497f9722a3daafe3b4186f6b6457e08280a380f35b9083346101c55760203660031901126101c5576001600160a01b036107846114f5565b169283156107a15750806020938392526003845220549051908152f35b9060249251917f89c62b64000000000000000000000000000000000000000000000000000000008352820152fd5b9083346101c55760203660031901126101c557506001600160a01b036107f760209335611a52565b915191168152f35b8382346102bd57816003193601126102bd576020906008549051908152f35b91503461026b5761082e3661155b565b9190926108646001600160a01b0380600b5416801580159061095e575b61085490611996565b3314908115610950575b506119e1565b83855260096020528185209061087f600283015415156116df565b83151580610946575b156108dd5781549384039384116108ca575091602091817f6dfa7dfaef4b81d3ef0bf5bf4e47eb1f40273f4080d1373e7407a9246d736b65945551908152a280f35b856011602492634e487b7160e01b835252fd5b608490602084519162461bcd60e51b8352820152602360248201527f506f6c6963794e46543a20496e76616c696420726564756374696f6e20616d6f60448201527f756e7400000000000000000000000000000000000000000000000000000000006064820152fd5b5081548410610888565b9050600a541633143861085e565b50600a548216151561084b565b8390346102bd5760203660031901126102bd578035926001600160a01b0380600b54168015801590610a8e575b6109a190611996565b33148015610a81575b6109b3906119e1565b8484526002602052818420541684848215928315610a48575b82825260026020528482206001600160a01b031981541690557fddf252ad1be2c89b69c2b068fc378daa952ba7f163c4a11628f55a4df523b3ef8280a4610a32578293835260096020528220828155826001820155826002820155826003820155015580f35b90836024925191637e27328960e01b8352820152fd5b610a6983600052600460205260406000206001600160a01b03198154169055565b808252600360205284822080546000190190556109cc565b50600a54811633146109aa565b50600a5482161515610998565b8382346102bd576104df90610aaf36611526565b91925192610abc846115a3565b8584526104d98383836117c1565b8382346102bd57816003193601126102bd576020906001600160a01b03600b54169051908152f35b9091503461026b5760c036600319011261026b57610b0e6114f5565b91602491608435906fffffffffffffffffffffffffffffffff90818316809303610e7d5760a435968288168098036101c5576001600160a01b0395610b6387600a5416610b5c8115156115fd565b331461166e565b6008549660001998898914610e6b5760018901600855875190610b85826115a3565b848252828116928315610e56578a848b9282895260209e8f9160028352858b205416918215159560029287610e1f575b50848c52600382528b2060018154019055848b52528c8920826001600160a01b03198254161790557fddf252ad1be2c89b69c2b068fc378daa952ba7f163c4a11628f55a4df523b3ef8980a4610df1573b610cc2575b50509280928992888a610cbc98978a805194610c2686611571565b60443586528386019235835260098287019442865260608801966064358852608089019d8e5260a089019b8c528352522093518455516001840155516002830155516003820155019351166fffffffffffffffffffffffffffffffff1984541617835551166fffffffffffffffffffffffffffffffff6fffffffffffffffffffffffffffffffff1983549260801b169116179055565b51908152f35b93610d098a839a96859d948780869f9c999b988e5196879586948593630a85bd0160e11b9b8c865233908601528401528d60448401526080606484015260848301906114b5565b03925af1879181610dad575b50610d70575050505050503d600014610d68573d610d32816115e1565b90610d3f855192836115bf565b81528091833d92013e5b80519182610d65575050505191633250574960e11b8352820152fd5b01fd5b506060610d49565b6001600160e01b0319909a94979a999295999693961603610d98575091979091908187610c0b565b828a91885191633250574960e11b8352820152fd5b9091508881813d8311610dea575b610dc581836115bf565b81010312610de657516001600160e01b031981168103610de6579038610d15565b8780fd5b503d610dbb565b8386868b51917f73c6ac6e000000000000000000000000000000000000000000000000000000008352820152fd5b610e4087600052600460205260406000206001600160a01b03198154169055565b848d5260038352818d2090815401905538610bb5565b8487878c5191633250574960e11b8352820152fd5b8284601187634e487b7160e01b835252fd5b8680fd5b91503461026b57610e913661155b565b919092610eae6001600160a01b03600a5416610b5c8115156115fd565b8385526009602052610ec76002838720015415156116df565b8215610f165783855260096020528185209081549384018094116108ca575091602091817f4e52e5c6c1f2802ac15497743e6c08a4251f6421a26a5cc4c2d82a3c2fded322945551908152a280f35b6020608492519162461bcd60e51b8352820152603260248201527f506f6c6963794e46543a20416d6f756e7420746f20616464206d75737420626560448201527f2067726561746572207468616e207a65726f00000000000000000000000000006064820152fd5b9091503461026b57602036600319011261026b57818360c09460a08351610fa481611571565b828152826020820152828582015282606082015282608082015201528235815260096020522091805192610fd784611571565b80549384815260018201549160208201928352600281015494848301958652600382015491606084019283520154936fffffffffffffffffffffffffffffffff95869460a060808601958789168752019660801c87528251988952516020890152519087015251606086015251166080840152511660a0820152f35b83346101c5576104df61106536611526565b916117c1565b83346101c55760203660031901126101c5576001600160a01b0361108d6114f5565b611095611a8d565b166110a1811515611750565b806001600160a01b0319600b541617600b557fdfd2967b9417925459cd79ae13c6dec37092beff03f9cd8ed4c3e687fe93d2e48280a280f35b91503461026b578060031936011261026b576110f46114f5565b9160243561110181611a52565b331515806111ba575b80611192575b6111635781906001600160a01b03809616958691167f8c5be1e5ebec7d5bd14f71427d1e84f3dd0314c0f7b2291e5b200ac8c7c3b9258880a484526020528220906001600160a01b031982541617905580f35b83517fa9fbf51f0000000000000000000000000000000000000000000000000000000081523381850152602490fd5b506001600160a01b0381168652600560205283862033875260205260ff848720541615611110565b50336001600160a01b038216141561110a565b9091503461026b57602036600319011261026b5781602093826001600160a01b0393356111f981611a52565b50825285522054169051908152f35b9083346101c557806003193601126101c5578151918182549260018460011c91600186169586156112cb575b60209687851081146106c1578899509688969785829a52918260001461069a575050600114611270575050506103c7929161062f9103856115bf565b91908693508280527f290decd9548b62a8d60345a988386fc84ba6bc95484008f6362f93160ef3e5635b8284106112b3575050508201018161062f6103c761061c565b8054848a01860152889550879490930192810161129a565b92607f1692611234565b9091503461026b57602036600319011261026b5735906001600160e01b0319821680920361026b57602092507f49064906000000000000000000000000000000000000000000000000000000008214918215611335575b50519015158152f35b9091507f80ac58cd00000000000000000000000000000000000000000000000000000000811490811561139c575b8115611372575b50903861132c565b7f01ffc9a7000000000000000000000000000000000000000000000000000000009150143861136a565b7f5b5e139f0000000000000000000000000000000000000000000000000000000081149150611363565b9091503461026b57606036600319011261026b578035916024356fffffffffffffffffffffffffffffffff928382168092036114b15760443593841690818503610e7d577fa2feae0e047d1059af920dcd066c0d5306bdfde29004cde9e4cdb76b10fd4255946114a39161144a6001600160a01b03600a5416610b5c8115156115fd565b87895260096020526114636002878b20015415156116df565b87895260096020528589206fffffffffffffffffffffffffffffffff861660809390931b6fffffffffffffffffffffffffffffffff191692909217910155565b82519182526020820152a280f35b8580fd5b919082519283825260005b8481106114e1575050826000602080949584010152601f8019910116010190565b6020818301810151848301820152016114c0565b600435906001600160a01b038216820361150b57565b600080fd5b602435906001600160a01b038216820361150b57565b606090600319011261150b576001600160a01b0390600435828116810361150b5791602435908116810361150b579060443590565b604090600319011261150b576004359060243590565b60c0810190811067ffffffffffffffff82111761158d57604052565b634e487b7160e01b600052604160045260246000fd5b6020810190811067ffffffffffffffff82111761158d57604052565b90601f8019910116810190811067ffffffffffffffff82111761158d57604052565b67ffffffffffffffff811161158d57601f01601f191660200190565b1561160457565b608460405162461bcd60e51b815260206004820152602860248201527f506f6c6963794e46543a20506f6c6963794d616e61676572206164647265737360448201527f206e6f74207365740000000000000000000000000000000000000000000000006064820152fd5b1561167557565b608460405162461bcd60e51b815260206004820152603560248201527f506f6c6963794e46543a2043616c6c6572206973206e6f74207468652061757460448201527f686f72697a656420506f6c6963794d616e6167657200000000000000000000006064820152fd5b156116e657565b608460405162461bcd60e51b815260206004820152603360248201527f506f6c6963794e46543a20506f6c69637920646f6573206e6f7420657869737460448201527f206f7220686173206265656e206275726e6564000000000000000000000000006064820152fd5b1561175757565b608460405162461bcd60e51b815260206004820152602160248201527f506f6c6963794e46543a20416464726573732063616e6e6f74206265207a657260448201527f6f000000000000000000000000000000000000000000000000000000000000006064820152fd5b90916001600160a01b0380931692831561197e576000928284528260209560028752604096848888205416968791331515806118cf575b509060027fddf252ad1be2c89b69c2b068fc378daa952ba7f163c4a11628f55a4df523b3ef9284611897575b858352600381528b83206001815401905586835252898120846001600160a01b031982541617905580a4169283830361185d5750505050565b6064945051927f64283d7b000000000000000000000000000000000000000000000000000000008452600484015260248301526044820152fd5b6118b887600052600460205260406000206001600160a01b03198154169055565b848352600381528b83208054600019019055611824565b9193945091508061193d575b156118eb578592918791386117f8565b878688611908576024915190637e27328960e01b82526004820152fd5b60449151907f177e802f0000000000000000000000000000000000000000000000000000000082523360048301526024820152fd5b503387148015611962575b806118db57508582526004815233858984205416146118db565b5086825260058152878220338352815260ff8883205416611948565b6024604051633250574960e11b815260006004820152fd5b1561199d57565b606460405162461bcd60e51b815260206004820152601a60248201527f506f6c6963794e46543a2041646472657373206e6f74207365740000000000006044820152fd5b156119e857565b608460405162461bcd60e51b815260206004820152602360248201527f506f6c6963794e46543a2043616c6c6572206973206e6f7420617574686f726960448201527f7a656400000000000000000000000000000000000000000000000000000000006064820152fd5b8060005260026020526001600160a01b0360406000205416908115611a75575090565b60249060405190637e27328960e01b82526004820152fd5b6001600160a01b03600754163303611aa157565b60246040517f118cdaa7000000000000000000000000000000000000000000000000000000008152336004820152fd5b909192833b611ae2575b5050505050565b6001600160a01b039592939495809516946040519481630a85bd0160e11b9485885216600487015216602485015260448401526080606484015282611b2d60209660848301906114b5565b039285816000958187895af1849181611bd8575b50611ba0575050503d600014611b98573d611b5b816115e1565b90611b6960405192836115bf565b81528091843d92013e5b80519283611b935760248360405190633250574960e11b82526004820152fd5b019050fd5b506060611b73565b9092506001600160e01b03199194501603611bc057503880808080611adb565b60249060405190633250574960e11b82526004820152fd5b9091508681813d8311611c11575b611bf081836115bf565b810103126105c057516001600160e01b0319811681036105c0579038611b41565b503d611be656fea2646970667358221220cdd6d1ca0da4c25c1934224f27042be87946dea2d770e1ff0125e18b896c781d64736f6c63430008160033",
  "linkReferences": {},
  "deployedLinkReferences": {}
}