{
  "_format": "hh-sol-artifact-1",
  "contractName": "PoolRegistry",
  "sourceName": "contracts/core/PoolRegistry.sol",
  "abi": [
    {
      "inputs": [
        {
          "internalType": "address",
          "name": "initialOwner",
          "type": "address"
        },
        {
          "internalType": "address",
          "name": "riskManagerAddress",
          "type": "address"
        },
        {
          "internalType": "address",
          "name": "policyManagerAddress",
          "type": "address"
        }
      ],
      "stateMutability": "nonpayable",
      "type": "constructor"
    },
    {
      "inputs": [
        {
          "internalType": "address",
          "name": "owner",
          "type": "address"
        }
      ],
      "name": "OwnableInvalidOwner",
      "type": "error"
    },
    {
      "inputs": [
        {
          "internalType": "address",
          "name": "account",
          "type": "address"
        }
      ],
      "name": "OwnableUnauthorizedAccount",
      "type": "error"
    },
    {
      "anonymous": false,
      "inputs": [
        {
          "indexed": true,
          "internalType": "uint256",
          "name": "poolId",
          "type": "uint256"
        },
        {
          "indexed": false,
          "internalType": "uint256",
          "name": "newTotalCoverageSold",
          "type": "uint256"
        }
      ],
      "name": "CoverageSoldUpdated",
      "type": "event"
    },
    {
      "anonymous": false,
      "inputs": [
        {
          "indexed": true,
          "internalType": "uint256",
          "name": "poolId",
          "type": "uint256"
        },
        {
          "indexed": true,
          "internalType": "address",
          "name": "recipient",
          "type": "address"
        }
      ],
      "name": "FeeRecipientSet",
      "type": "event"
    },
    {
      "anonymous": false,
      "inputs": [
        {
          "indexed": true,
          "internalType": "address",
          "name": "previousOwner",
          "type": "address"
        },
        {
          "indexed": true,
          "internalType": "address",
          "name": "newOwner",
          "type": "address"
        }
      ],
      "name": "OwnershipTransferred",
      "type": "event"
    },
    {
      "anonymous": false,
      "inputs": [
        {
          "indexed": true,
          "internalType": "uint256",
          "name": "poolId",
          "type": "uint256"
        },
        {
          "indexed": false,
          "internalType": "bool",
          "name": "isPaused",
          "type": "bool"
        }
      ],
      "name": "PauseStateSet",
      "type": "event"
    },
    {
      "anonymous": false,
      "inputs": [
        {
          "indexed": true,
          "internalType": "address",
          "name": "newPolicyManager",
          "type": "address"
        }
      ],
      "name": "PolicyManagerAddressSet",
      "type": "event"
    },
    {
      "anonymous": false,
      "inputs": [
        {
          "indexed": true,
          "internalType": "uint256",
          "name": "poolId",
          "type": "uint256"
        },
        {
          "indexed": true,
          "internalType": "address",
          "name": "protocolTokenToCover",
          "type": "address"
        },
        {
          "components": [
            {
              "internalType": "uint256",
              "name": "base",
              "type": "uint256"
            },
            {
              "internalType": "uint256",
              "name": "slope1",
              "type": "uint256"
            },
            {
              "internalType": "uint256",
              "name": "slope2",
              "type": "uint256"
            },
            {
              "internalType": "uint256",
              "name": "kink",
              "type": "uint256"
            }
          ],
          "indexed": false,
          "internalType": "struct IPoolRegistry.RateModel",
          "name": "rateModel",
          "type": "tuple"
        },
        {
          "indexed": false,
          "internalType": "uint256",
          "name": "claimFeeBps",
          "type": "uint256"
        }
      ],
      "name": "PoolCreated",
      "type": "event"
    },
    {
      "anonymous": false,
      "inputs": [
        {
          "indexed": true,
          "internalType": "uint256",
          "name": "poolId",
          "type": "uint256"
        },
        {
          "indexed": false,
          "internalType": "bool",
          "name": "isYieldPool",
          "type": "bool"
        }
      ],
      "name": "PoolTypeSet",
      "type": "event"
    },
    {
      "anonymous": false,
      "inputs": [
        {
          "indexed": true,
          "internalType": "address",
          "name": "newRiskManager",
          "type": "address"
        }
      ],
      "name": "RiskManagerAddressSet",
      "type": "event"
    },
    {
      "inputs": [
        {
          "internalType": "address",
          "name": "protocolTokenToCover",
          "type": "address"
        },
        {
          "components": [
            {
              "internalType": "uint256",
              "name": "base",
              "type": "uint256"
            },
            {
              "internalType": "uint256",
              "name": "slope1",
              "type": "uint256"
            },
            {
              "internalType": "uint256",
              "name": "slope2",
              "type": "uint256"
            },
            {
              "internalType": "uint256",
              "name": "kink",
              "type": "uint256"
            }
          ],
          "internalType": "struct IPoolRegistry.RateModel",
          "name": "rateModel",
          "type": "tuple"
        },
        {
          "internalType": "uint256",
          "name": "claimFeeBps",
          "type": "uint256"
        }
      ],
      "name": "addProtocolRiskPool",
      "outputs": [
        {
          "internalType": "uint256",
          "name": "",
          "type": "uint256"
        }
      ],
      "stateMutability": "nonpayable",
      "type": "function"
    },
    {
      "inputs": [],
      "name": "getPoolCount",
      "outputs": [
        {
          "internalType": "uint256",
          "name": "",
          "type": "uint256"
        }
      ],
      "stateMutability": "view",
      "type": "function"
    },
    {
      "inputs": [
        {
          "internalType": "uint256",
          "name": "poolId",
          "type": "uint256"
        }
      ],
      "name": "getPoolRateModel",
      "outputs": [
        {
          "components": [
            {
              "internalType": "uint256",
              "name": "base",
              "type": "uint256"
            },
            {
              "internalType": "uint256",
              "name": "slope1",
              "type": "uint256"
            },
            {
              "internalType": "uint256",
              "name": "slope2",
              "type": "uint256"
            },
            {
              "internalType": "uint256",
              "name": "kink",
              "type": "uint256"
            }
          ],
          "internalType": "struct IPoolRegistry.RateModel",
          "name": "",
          "type": "tuple"
        }
      ],
      "stateMutability": "view",
      "type": "function"
    },
    {
      "inputs": [
        {
          "internalType": "uint256",
          "name": "poolId",
          "type": "uint256"
        }
      ],
      "name": "getPoolStaticData",
      "outputs": [
        {
          "internalType": "contract IERC20",
          "name": "protocolTokenToCover",
          "type": "address"
        },
        {
          "internalType": "uint256",
          "name": "totalCoverageSold",
          "type": "uint256"
        },
        {
          "internalType": "bool",
          "name": "isPaused",
          "type": "bool"
        },
        {
          "internalType": "address",
          "name": "feeRecipient",
          "type": "address"
        },
        {
          "internalType": "uint256",
          "name": "claimFeeBps",
          "type": "uint256"
        }
      ],
      "stateMutability": "view",
      "type": "function"
    },
    {
      "inputs": [
        {
          "internalType": "uint256[]",
          "name": "poolIds",
          "type": "uint256[]"
        }
      ],
      "name": "getPoolTokens",
      "outputs": [
        {
          "internalType": "address[]",
          "name": "tokens",
          "type": "address[]"
        }
      ],
      "stateMutability": "view",
      "type": "function"
    },
    {
      "inputs": [
        {
          "internalType": "uint256",
          "name": "",
          "type": "uint256"
        }
      ],
      "name": "isYieldRewardPool",
      "outputs": [
        {
          "internalType": "bool",
          "name": "",
          "type": "bool"
        }
      ],
      "stateMutability": "view",
      "type": "function"
    },
    {
      "inputs": [],
      "name": "owner",
      "outputs": [
        {
          "internalType": "address",
          "name": "",
          "type": "address"
        }
      ],
      "stateMutability": "view",
      "type": "function"
    },
    {
      "inputs": [],
      "name": "policyManager",
      "outputs": [
        {
          "internalType": "address",
          "name": "",
          "type": "address"
        }
      ],
      "stateMutability": "view",
      "type": "function"
    },
    {
      "inputs": [
        {
          "internalType": "uint256",
          "name": "",
          "type": "uint256"
        }
      ],
      "name": "protocolRiskPools",
      "outputs": [
        {
          "internalType": "contract IERC20",
          "name": "protocolTokenToCover",
          "type": "address"
        },
        {
          "components": [
            {
              "internalType": "uint256",
              "name": "base",
              "type": "uint256"
            },
            {
              "internalType": "uint256",
              "name": "slope1",
              "type": "uint256"
            },
            {
              "internalType": "uint256",
              "name": "slope2",
              "type": "uint256"
            },
            {
              "internalType": "uint256",
              "name": "kink",
              "type": "uint256"
            }
          ],
          "internalType": "struct IPoolRegistry.RateModel",
          "name": "rateModel",
          "type": "tuple"
        },
        {
          "internalType": "address",
          "name": "feeRecipient",
          "type": "address"
        },
        {
          "internalType": "uint256",
          "name": "claimFeeBps",
          "type": "uint256"
        },
        {
          "internalType": "uint256",
          "name": "totalCoverageSold",
          "type": "uint256"
        },
        {
          "internalType": "bool",
          "name": "isPaused",
          "type": "bool"
        },
        {
          "internalType": "uint256",
          "name": "pauseTimestamp",
          "type": "uint256"
        }
      ],
      "stateMutability": "view",
      "type": "function"
    },
    {
      "inputs": [],
      "name": "renounceOwnership",
      "outputs": [],
      "stateMutability": "nonpayable",
      "type": "function"
    },
    {
      "inputs": [],
      "name": "riskManager",
      "outputs": [
        {
          "internalType": "address",
          "name": "",
          "type": "address"
        }
      ],
      "stateMutability": "view",
      "type": "function"
    },
    {
      "inputs": [
        {
          "internalType": "uint256",
          "name": "poolId",
          "type": "uint256"
        },
        {
          "internalType": "address",
          "name": "recipient",
          "type": "address"
        }
      ],
      "name": "setFeeRecipient",
      "outputs": [],
      "stateMutability": "nonpayable",
      "type": "function"
    },
    {
      "inputs": [
        {
          "internalType": "uint256",
          "name": "poolId",
          "type": "uint256"
        },
        {
          "internalType": "bool",
          "name": "isYieldPool",
          "type": "bool"
        }
      ],
      "name": "setIsYieldRewardPool",
      "outputs": [],
      "stateMutability": "nonpayable",
      "type": "function"
    },
    {
      "inputs": [
        {
          "internalType": "uint256",
          "name": "poolId",
          "type": "uint256"
        },
        {
          "internalType": "bool",
          "name": "isPaused",
          "type": "bool"
        }
      ],
      "name": "setPauseState",
      "outputs": [],
      "stateMutability": "nonpayable",
      "type": "function"
    },
    {
      "inputs": [
        {
          "internalType": "address",
          "name": "newPolicyManager",
          "type": "address"
        }
      ],
      "name": "setPolicyManager",
      "outputs": [],
      "stateMutability": "nonpayable",
      "type": "function"
    },
    {
      "inputs": [
        {
          "internalType": "address",
          "name": "newRiskManager",
          "type": "address"
        }
      ],
      "name": "setRiskManager",
      "outputs": [],
      "stateMutability": "nonpayable",
      "type": "function"
    },
    {
      "inputs": [
        {
          "internalType": "address",
          "name": "newOwner",
          "type": "address"
        }
      ],
      "name": "transferOwnership",
      "outputs": [],
      "stateMutability": "nonpayable",
      "type": "function"
    },
    {
      "inputs": [
        {
          "internalType": "uint256",
          "name": "poolId",
          "type": "uint256"
        },
        {
          "internalType": "uint256",
          "name": "amount",
          "type": "uint256"
        },
        {
          "internalType": "bool",
          "name": "isSale",
          "type": "bool"
        }
      ],
      "name": "updateCoverageSold",
      "outputs": [],
      "stateMutability": "nonpayable",
      "type": "function"
    }
  ],
  "bytecode": "0x60803461018257601f610f4538819003918201601f191683019291906001600160401b038411838510176101875781606092849260409687528339810103126101825761004b8161019d565b6100628361005b6020850161019d565b930161019d565b6001600160a01b039182169190821561016a57816000549460018060a01b031994808688161760005582885197167f8be0079c531659141344cd1fd0a4f28419497f9722a3daafe3b4186f6b6457e0600080a3169384156101285750169182156100e457816002541617600255600354161760035551610d9390816101b28239f35b835162461bcd60e51b815260206004820152601760248201527f50523a205a65726f206164647265737320666f7220504d0000000000000000006044820152606490fd5b62461bcd60e51b815260206004820152601760248201527f50523a205a65726f206164647265737320666f7220524d0000000000000000006044820152606490fd5b8451631e4fbdf760e01b815260006004820152602490fd5b600080fd5b634e487b7160e01b600052604160045260246000fd5b51906001600160a01b03821682036101825756fe608080604052600436101561001357600080fd5b60003560e01c9081634784266314610b84575080634e06ad0914610b175780635d293f9e146109ac57806362ca84601461093e578063715018a6146108e5578063789404a0146107075780637b8827321461063b5780638da5cb5b146106145780638eec5d70146105f6578063ab3dbf3b146105cf578063adde41e114610561578063b05b829c14610408578063b56a532c1461036f578063b75adf94146102ef578063bb8d8e381461026e578063cccc2b521461023d578063f2fde38b1461019e5763f85f9cc6146100e557600080fd5b34610199576020366003190112610199576004356001548110156101995761010f61014091610bcd565b506001600160a01b03808254169161012960018201610c3e565b91600582015416600682015460078301549161017a600960ff600887015416950154956040519788526020880190606080918051845260208101516020850152604081015160408501520151910152565b60a086015260c085015260e08401521515610100830152610120820152f35b600080fd5b34610199576020366003190112610199576101b7610bb7565b6101bf610d19565b6001600160a01b0380911690811561020c57600054826001600160a01b0319821617600055167f8be0079c531659141344cd1fd0a4f28419497f9722a3daafe3b4186f6b6457e0600080a3005b60246040517f1e4fbdf700000000000000000000000000000000000000000000000000000000815260006004820152fd5b34610199576020366003190112610199576004356000526004602052602060ff604060002054166040519015158152f35b34610199576040366003190112610199576004357fc3a2719c062ec1f6d0c5042dac115e07232d414677e7f596e5dfe809951b940560206102ad610ba8565b6102b5610d19565b6102c26001548510610c6b565b83600052600482526102e48160406000209060ff801983541691151516179055565b6040519015158152a2005b34610199576020366003190112610199576080610342600161033b60043560006060610319610c1e565b828152826020820152826040820152015261033683548210610c6b565b610bcd565b5001610c3e565b61036d6040518092606080918051845260208101516020850152604081015160408501520151910152565bf35b34610199576040366003190112610199576004357fbdfc3d8f31f53b0dcca909ca985d4ed08caffef5ad243a61c21e4d606c8fbffc60206103ae610ba8565b6103b6610d19565b6103c36001548510610c6b565b6103cc84610bcd565b506103e682600883019060ff801983541691151516179055565b81156103fe57600942915b01556040519015158152a2005b60096000916103f1565b34610199576020806003193601126101995767ffffffffffffffff906004358281116101995736602382011215610199578060040135928084116101995760059360243682871b850182011161019957601f9361046483610d01565b60405186199690959101861685019081118582101761054b5760409795979694965282865261049283610d01565b86850197013688376000600195600154915b8581106104f25750505050505060405192818401908285525180915260408401949160005b8281106104d65785870386f35b83516001600160a01b03168752958101959281019284016104c9565b80829a989a9997991b6001600160a01b03610517878388010135610336878210610c6b565b5054169088518310156105365788018a015296989597959687016104a4565b86634e487b7160e01b60005260326004526000fd5b634e487b7160e01b600052604160045260246000fd5b34610199576020366003190112610199576001600160a01b03610582610bb7565b61058a610d19565b16610596811515610cb6565b806001600160a01b031960035416176003557f96ef4362498b0fa85c8625240e1d0ebcdd2ec5c981849e05d81705ed0720ad47600080a2005b346101995760003660031901126101995760206001600160a01b0360035416604051908152f35b34610199576000366003190112610199576020600154604051908152f35b346101995760003660031901126101995760206001600160a01b0360005416604051908152f35b3461019957604036600319011261019957600435602435906001600160a01b0382168092036101995761066c610d19565b6106796001548210610c6b565b81156106c357600561068a82610bcd565b5001826001600160a01b03198254161790557fe447cbb435e93e530d2e7a7ce3f176fdf5c379dc4a445af807ae9ac9da4a08a5600080a3005b606460405162461bcd60e51b815260206004820152601e60248201527f50523a205a65726f206164647265737320666f7220726563697069656e7400006044820152fd5b346101995760c036600319011261019957610720610bb7565b608036602319011261019957610734610d19565b6001546040519160e0830183811067ffffffffffffffff82111761054b576040526001600160a01b0381168352610769610c1e565b602435815260443560208201526064356040820152608435606082015260208401526000604084015260a435606084015260006080840152600060a0840152600060c08401526801000000000000000082101561054b57600182016001556107d082610bcd565b6108cf57600960c0856001600160a01b0360209751166001600160a01b0319908186541617855560608883015180516001880155898101516002880155604081015160038801550151600486015560058501906001600160a01b0360408401511690825416179055606081015160068501556080810151600785015561086b60a08201511515600886019060ff801983541691151516179055565b0151910155817fe0b79e6c32e992e9b7a0715ca3dab31633356e1081dd77679e05d1063a6fb08260a06001600160a01b03604051946024358652604435888701526064356040870152608435606087015260a43560808701521693a3604051908152f35b634e487b7160e01b600052600060045260246000fd5b34610199576000366003190112610199576108fe610d19565b60006001600160a01b0381546001600160a01b031981168355167f8be0079c531659141344cd1fd0a4f28419497f9722a3daafe3b4186f6b6457e08280a3005b34610199576020366003190112610199576001600160a01b0361095f610bb7565b610967610d19565b16610973811515610cb6565b806001600160a01b031960025416176002557fdfd2967b9417925459cd79ae13c6dec37092beff03f9cd8ed4c3e687fe93d2e4600080a2005b34610199576060366003190112610199576004356044356024358115158203610199576001600160a01b03600354163303610ad3576109ee6001548410610c6b565b6109f783610bcd565b509115610a5957600782018054918201809211610a43577f3ebecab554dc28d5f4e7cbfbc0b93518143ca80fdfdd6539a092f2486cec775192602092600792555b0154604051908152a2005b634e487b7160e01b600052601160045260246000fd5b600782018054909180821115610aa2578103908111610a43577f3ebecab554dc28d5f4e7cbfbc0b93518143ca80fdfdd6539a092f2486cec775192602092600792905b55610a38565b505060077f3ebecab554dc28d5f4e7cbfbc0b93518143ca80fdfdd6539a092f2486cec775192602092600090610a9c565b606460405162461bcd60e51b815260206004820152601560248201527f50523a204e6f7420506f6c6963794d616e6167657200000000000000000000006044820152fd5b346101995760203660031901126101995760a0610b3d6004356103366001548210610c6b565b506001600160a01b038082541691600781015491600660ff600884015416916005840154169201549260405194855260208501521515604084015260608301526080820152f35b34610199576000366003190112610199576020906001600160a01b03600254168152f35b60243590811515820361019957565b600435906001600160a01b038216820361019957565b600154811015610c0857600a906001600052027fb10e2d527612073b26eecdfd717e6a320cf44b4afac2b0732d9fcbe2b7fa0cf60190600090565b634e487b7160e01b600052603260045260246000fd5b604051906080820182811067ffffffffffffffff82111761054b57604052565b906003610c49610c1e565b9280548452600181015460208501526002810154604085015201546060830152565b15610c7257565b606460405162461bcd60e51b815260206004820152601260248201527f50523a20496e76616c696420706f6f6c496400000000000000000000000000006044820152fd5b15610cbd57565b606460405162461bcd60e51b815260206004820152601060248201527f50523a205a65726f2061646472657373000000000000000000000000000000006044820152fd5b67ffffffffffffffff811161054b5760051b60200190565b6001600160a01b03600054163303610d2d57565b60246040517f118cdaa7000000000000000000000000000000000000000000000000000000008152336004820152fdfea2646970667358221220fa715acc0e25d8796b6daddecf9fc568f277fed9159dfe17d028fc3fa56725f064736f6c63430008160033",
  "linkReferences": {},
  "deployedLinkReferences": {}
}