{
  "_format": "hh-sol-artifact-1",
  "contractName": "PoolRegistry",
  "sourceName": "contracts/core/PoolRegistry.sol",
  "abi": [
    {
      "inputs": [
        {
          "internalType": "address",
          "name": "initialOwner",
          "type": "address"
        },
        {
          "internalType": "address",
          "name": "riskManagerAddress",
          "type": "address"
        },
        {
          "internalType": "address",
          "name": "underwriterManagerAddress",
          "type": "address"
        }
      ],
      "stateMutability": "nonpayable",
      "type": "constructor"
    },
    {
      "inputs": [
        {
          "internalType": "address",
          "name": "owner",
          "type": "address"
        }
      ],
      "name": "OwnableInvalidOwner",
      "type": "error"
    },
    {
      "inputs": [
        {
          "internalType": "address",
          "name": "account",
          "type": "address"
        }
      ],
      "name": "OwnableUnauthorizedAccount",
      "type": "error"
    },
    {
      "anonymous": false,
      "inputs": [
        {
          "indexed": true,
          "internalType": "address",
          "name": "previousOwner",
          "type": "address"
        },
        {
          "indexed": true,
          "internalType": "address",
          "name": "newOwner",
          "type": "address"
        }
      ],
      "name": "OwnershipTransferred",
      "type": "event"
    },
    {
      "anonymous": false,
      "inputs": [
        {
          "indexed": true,
          "internalType": "address",
          "name": "newRiskManager",
          "type": "address"
        }
      ],
      "name": "RiskManagerAddressSet",
      "type": "event"
    },
    {
      "anonymous": false,
      "inputs": [
        {
          "indexed": true,
          "internalType": "address",
          "name": "newUnderwriterManager",
          "type": "address"
        }
      ],
      "name": "UnderwriterManagerAddressSet",
      "type": "event"
    },
    {
      "inputs": [
        {
          "internalType": "address",
          "name": "protocolTokenToCover",
          "type": "address"
        },
        {
          "components": [
            {
              "internalType": "uint256",
              "name": "base",
              "type": "uint256"
            },
            {
              "internalType": "uint256",
              "name": "slope1",
              "type": "uint256"
            },
            {
              "internalType": "uint256",
              "name": "slope2",
              "type": "uint256"
            },
            {
              "internalType": "uint256",
              "name": "kink",
              "type": "uint256"
            }
          ],
          "internalType": "struct IPoolRegistry.RateModel",
          "name": "rateModel",
          "type": "tuple"
        },
        {
          "internalType": "uint256",
          "name": "claimFeeBps",
          "type": "uint256"
        }
      ],
      "name": "addProtocolRiskPool",
      "outputs": [
        {
          "internalType": "uint256",
          "name": "",
          "type": "uint256"
        }
      ],
      "stateMutability": "nonpayable",
      "type": "function"
    },
    {
      "inputs": [
        {
          "internalType": "uint256",
          "name": "poolId",
          "type": "uint256"
        },
        {
          "internalType": "address",
          "name": "adapter",
          "type": "address"
        }
      ],
      "name": "getCapitalPerAdapter",
      "outputs": [
        {
          "internalType": "uint256",
          "name": "",
          "type": "uint256"
        }
      ],
      "stateMutability": "view",
      "type": "function"
    },
    {
      "inputs": [
        {
          "internalType": "uint256[]",
          "name": "poolIds",
          "type": "uint256[]"
        }
      ],
      "name": "getMultiplePoolData",
      "outputs": [
        {
          "components": [
            {
              "internalType": "contract IERC20",
              "name": "protocolTokenToCover",
              "type": "address"
            },
            {
              "internalType": "uint256",
              "name": "totalCapitalPledgedToPool",
              "type": "uint256"
            },
            {
              "internalType": "uint256",
              "name": "totalCoverageSold",
              "type": "uint256"
            },
            {
              "internalType": "uint256",
              "name": "capitalPendingWithdrawal",
              "type": "uint256"
            },
            {
              "internalType": "bool",
              "name": "isPaused",
              "type": "bool"
            },
            {
              "internalType": "address",
              "name": "feeRecipient",
              "type": "address"
            },
            {
              "internalType": "uint256",
              "name": "claimFeeBps",
              "type": "uint256"
            }
          ],
          "internalType": "struct IPoolRegistry.PoolInfo[]",
          "name": "",
          "type": "tuple[]"
        }
      ],
      "stateMutability": "view",
      "type": "function"
    },
    {
      "inputs": [
        {
          "internalType": "uint256",
          "name": "poolId",
          "type": "uint256"
        }
      ],
      "name": "getPoolActiveAdapters",
      "outputs": [
        {
          "internalType": "address[]",
          "name": "",
          "type": "address[]"
        }
      ],
      "stateMutability": "view",
      "type": "function"
    },
    {
      "inputs": [],
      "name": "getPoolCount",
      "outputs": [
        {
          "internalType": "uint256",
          "name": "",
          "type": "uint256"
        }
      ],
      "stateMutability": "view",
      "type": "function"
    },
    {
      "inputs": [
        {
          "internalType": "uint256",
          "name": "poolId",
          "type": "uint256"
        }
      ],
      "name": "getPoolData",
      "outputs": [
        {
          "internalType": "contract IERC20",
          "name": "protocolTokenToCover",
          "type": "address"
        },
        {
          "internalType": "uint256",
          "name": "totalCapitalPledgedToPool",
          "type": "uint256"
        },
        {
          "internalType": "uint256",
          "name": "totalCoverageSold",
          "type": "uint256"
        },
        {
          "internalType": "uint256",
          "name": "capitalPendingWithdrawal",
          "type": "uint256"
        },
        {
          "internalType": "bool",
          "name": "isPaused",
          "type": "bool"
        },
        {
          "internalType": "address",
          "name": "feeRecipient",
          "type": "address"
        },
        {
          "internalType": "uint256",
          "name": "claimFeeBps",
          "type": "uint256"
        }
      ],
      "stateMutability": "view",
      "type": "function"
    },
    {
      "inputs": [
        {
          "internalType": "uint256",
          "name": "poolId",
          "type": "uint256"
        }
      ],
      "name": "getPoolPayoutData",
      "outputs": [
        {
          "internalType": "address[]",
          "name": "",
          "type": "address[]"
        },
        {
          "internalType": "uint256[]",
          "name": "",
          "type": "uint256[]"
        },
        {
          "internalType": "uint256",
          "name": "",
          "type": "uint256"
        }
      ],
      "stateMutability": "view",
      "type": "function"
    },
    {
      "inputs": [
        {
          "internalType": "uint256",
          "name": "poolId",
          "type": "uint256"
        }
      ],
      "name": "getPoolRateModel",
      "outputs": [
        {
          "components": [
            {
              "internalType": "uint256",
              "name": "base",
              "type": "uint256"
            },
            {
              "internalType": "uint256",
              "name": "slope1",
              "type": "uint256"
            },
            {
              "internalType": "uint256",
              "name": "slope2",
              "type": "uint256"
            },
            {
              "internalType": "uint256",
              "name": "kink",
              "type": "uint256"
            }
          ],
          "internalType": "struct IPoolRegistry.RateModel",
          "name": "",
          "type": "tuple"
        }
      ],
      "stateMutability": "view",
      "type": "function"
    },
    {
      "inputs": [
        {
          "internalType": "uint256[]",
          "name": "poolIds",
          "type": "uint256[]"
        }
      ],
      "name": "getPoolTokens",
      "outputs": [
        {
          "internalType": "address[]",
          "name": "tokens",
          "type": "address[]"
        }
      ],
      "stateMutability": "view",
      "type": "function"
    },
    {
      "inputs": [],
      "name": "owner",
      "outputs": [
        {
          "internalType": "address",
          "name": "",
          "type": "address"
        }
      ],
      "stateMutability": "view",
      "type": "function"
    },
    {
      "inputs": [
        {
          "internalType": "uint256",
          "name": "",
          "type": "uint256"
        }
      ],
      "name": "protocolRiskPools",
      "outputs": [
        {
          "internalType": "contract IERC20",
          "name": "protocolTokenToCover",
          "type": "address"
        },
        {
          "internalType": "address",
          "name": "feeRecipient",
          "type": "address"
        },
        {
          "internalType": "bool",
          "name": "isPaused",
          "type": "bool"
        },
        {
          "internalType": "uint256",
          "name": "totalCapitalPledgedToPool",
          "type": "uint256"
        },
        {
          "internalType": "uint256",
          "name": "capitalPendingWithdrawal",
          "type": "uint256"
        },
        {
          "internalType": "uint256",
          "name": "totalCoverageSold",
          "type": "uint256"
        },
        {
          "internalType": "uint256",
          "name": "claimFeeBps",
          "type": "uint256"
        },
        {
          "internalType": "uint256",
          "name": "pauseTimestamp",
          "type": "uint256"
        },
        {
          "components": [
            {
              "internalType": "uint256",
              "name": "base",
              "type": "uint256"
            },
            {
              "internalType": "uint256",
              "name": "slope1",
              "type": "uint256"
            },
            {
              "internalType": "uint256",
              "name": "slope2",
              "type": "uint256"
            },
            {
              "internalType": "uint256",
              "name": "kink",
              "type": "uint256"
            }
          ],
          "internalType": "struct IPoolRegistry.RateModel",
          "name": "rateModel",
          "type": "tuple"
        }
      ],
      "stateMutability": "view",
      "type": "function"
    },
    {
      "inputs": [],
      "name": "renounceOwnership",
      "outputs": [],
      "stateMutability": "nonpayable",
      "type": "function"
    },
    {
      "inputs": [],
      "name": "riskManager",
      "outputs": [
        {
          "internalType": "address",
          "name": "",
          "type": "address"
        }
      ],
      "stateMutability": "view",
      "type": "function"
    },
    {
      "inputs": [
        {
          "internalType": "uint256",
          "name": "poolId",
          "type": "uint256"
        },
        {
          "internalType": "address",
          "name": "recipient",
          "type": "address"
        }
      ],
      "name": "setFeeRecipient",
      "outputs": [],
      "stateMutability": "nonpayable",
      "type": "function"
    },
    {
      "inputs": [
        {
          "internalType": "uint256",
          "name": "poolId",
          "type": "uint256"
        },
        {
          "internalType": "bool",
          "name": "isPaused",
          "type": "bool"
        }
      ],
      "name": "setPauseState",
      "outputs": [],
      "stateMutability": "nonpayable",
      "type": "function"
    },
    {
      "inputs": [
        {
          "internalType": "address",
          "name": "newRiskManager",
          "type": "address"
        }
      ],
      "name": "setRiskManagerAddress",
      "outputs": [],
      "stateMutability": "nonpayable",
      "type": "function"
    },
    {
      "inputs": [
        {
          "internalType": "address",
          "name": "newUnderwriterManager",
          "type": "address"
        }
      ],
      "name": "setUnderwriterManagerAddress",
      "outputs": [],
      "stateMutability": "nonpayable",
      "type": "function"
    },
    {
      "inputs": [
        {
          "internalType": "address",
          "name": "newOwner",
          "type": "address"
        }
      ],
      "name": "transferOwnership",
      "outputs": [],
      "stateMutability": "nonpayable",
      "type": "function"
    },
    {
      "inputs": [],
      "name": "underwriterManager",
      "outputs": [
        {
          "internalType": "address",
          "name": "",
          "type": "address"
        }
      ],
      "stateMutability": "view",
      "type": "function"
    },
    {
      "inputs": [
        {
          "internalType": "uint256",
          "name": "poolId",
          "type": "uint256"
        },
        {
          "internalType": "address",
          "name": "adapterAddress",
          "type": "address"
        },
        {
          "internalType": "uint256",
          "name": "pledgeAmount",
          "type": "uint256"
        },
        {
          "internalType": "bool",
          "name": "isAllocation",
          "type": "bool"
        }
      ],
      "name": "updateCapitalAllocation",
      "outputs": [],
      "stateMutability": "nonpayable",
      "type": "function"
    },
    {
      "inputs": [
        {
          "internalType": "uint256",
          "name": "poolId",
          "type": "uint256"
        },
        {
          "internalType": "uint256",
          "name": "amount",
          "type": "uint256"
        },
        {
          "internalType": "bool",
          "name": "isRequest",
          "type": "bool"
        }
      ],
      "name": "updateCapitalPendingWithdrawal",
      "outputs": [],
      "stateMutability": "nonpayable",
      "type": "function"
    },
    {
      "inputs": [
        {
          "internalType": "uint256",
          "name": "poolId",
          "type": "uint256"
        },
        {
          "internalType": "uint256",
          "name": "amount",
          "type": "uint256"
        },
        {
          "internalType": "bool",
          "name": "isSale",
          "type": "bool"
        }
      ],
      "name": "updateCoverageSold",
      "outputs": [],
      "stateMutability": "nonpayable",
      "type": "function"
    }
  ],
  "bytecode": "0x6080346200019057601f6200145c38819003918201601f191683019291906001600160401b038411838510176200019557816060928492604096875283398101031262000190576200005181620001ab565b6200006c836200006460208501620001ab565b9301620001ab565b6001600160a01b03918216919082156200017857816000549460018060a01b031994808688161760005582885197167f8be0079c531659141344cd1fd0a4f28419497f9722a3daafe3b4186f6b6457e0600080a31693841562000136575016918215620000f25781600254161760025560035416176003555161129b9081620001c18239f35b835162461bcd60e51b815260206004820152601760248201527f50523a205a65726f206164647265737320666f7220554d0000000000000000006044820152606490fd5b62461bcd60e51b815260206004820152601760248201527f50523a205a65726f206164647265737320666f7220524d0000000000000000006044820152606490fd5b8451631e4fbdf760e01b815260006004820152602490fd5b600080fd5b634e487b7160e01b600052604160045260246000fd5b51906001600160a01b0382168203620001905756fe608060408181526004918236101561001657600080fd5b60009060e0823560e01c9182630342a90714610e1e57508163120bfa4514610daf5781631881401314610d405781633897427714610b83575080634784266314610b5b57806357204dc914610b1c5780635d293f9e14610a89578063715018a614610a30578063789404a0146109715780637b8827321461092b5780638da5cb5b146109055780638eec5d70146108e6578063a1b6dbfe14610849578063a6bd24ab1461062f578063b05b829c14610548578063b56a532c146104af578063b75adf941461043c578063d21c87ad146103c5578063e139c3f0146102cb578063e9b2ce2414610287578063f2fde38b146101e35763f85f9cc61461011957600080fd5b346101e05760203660031901126101e0578235906001548210156101e05750610180926101486101de92610f21565b506001600160a01b0391828254169460018301549160028401546003850154918501549260ff600587015495610185600760068a01549901610fe2565b9883519b8c52811660208c015260a01c161515908901526060880152608087015260a086015260c085015260e0840152610100830190606080918051845260208101516020850152604081015160408501520151910152565bf35b80fd5b509134610283576020366003190112610283576101fe610e43565b9061020761113f565b6001600160a01b038092169283156102545750508254826001600160a01b03198216178455167f8be0079c531659141344cd1fd0a4f28419497f9722a3daafe3b4186f6b6457e08380a380f35b908460249251917f1e4fbdf7000000000000000000000000000000000000000000000000000000008352820152fd5b8280fd5b509134610283578160031936011261028357602092600b83926001600160a01b036102ba6102b3610e5e565b9235610f21565b509116835201845220549051908152f35b5082346103c15760209081600319360112610283576102ea9035610f21565b50916102f8600c840161109b565b80519261031c6103078561105f565b9461031488519687610fc0565b80865261105f565b8482019290601f1901368437600b860192845b825181101561036957806001600160a01b0361034d60019386611087565b5116875285855289872054610362828a611087565b520161032f565b5085888660028a01549286610388845197606089526060890190610ec1565b918783038289015251918281520194915b8181106103ad575050508380955001520390f35b825186529487019491870191600101610399565b5080fd5b5091346102835760203660031901126102835760e092506103e68135610f21565b506001600160a01b03908181541693600282015493820154600383015491600560018501549401549581519788526020880152860152606085015260ff8160a01c16151560808501521660a083015260c0820152f35b5091346102835760203660031901126102835761048860076104816101de936080966060875161046b81610fa4565b8281528260208201528289820152015235610f21565b5001610fe2565b91518092606080918051845260208101516020850152604081015160408501520151910152565b50919034610283573660031901126103c15760243580151591828203610544576104e1906104db61113f565b35610f21565b509160018301907fffffffffffffffffffffff00ffffffffffffffffffffffffffffffffffffffff74ff000000000000000000000000000000000000000083549260a01b16911617905560001461053b5760064291015580f35b60068291015580f35b8380fd5b509190346102835761055936610e74565b936105638561105f565b9361057084519586610fc0565b85855261057c8661105f565b60209290601f1901368785013791600196600154935b8181106105b2578651602080825281906105ae9082018b610ec1565b0390f35b6105bd818388611077565b35858110156105ed57906001600160a01b036105d98b93610f21565b5054166105e6828b611087565b5201610592565b606485858a519162461bcd60e51b8352820152601260248201527f50523a20496e76616c696420706f6f6c496400000000000000000000000000006044820152fd5b5090346103c15760803660031901126103c15761064a610e5e565b9060443591606435908115158203610845576001600160a01b03806003541633148015610838575b156107cf576106818735610f21565b50921561077c576002830161069786825461111a565b9055811693848652600b83016020526106b484872091825461111a565b9055838552600e8201602052828520805460ff8116156106da575b505050505050905080f35b60019060ff1916179055600c820190815468010000000000000000811015610769579061071082600161072f9401855584611127565b9091906001600160a01b038084549260031b9316831b921b1916179055565b54600019810193908411610756578452600d016020528220559050803880808080806106cf565b602485601188634e487b7160e01b835252fd5b60248760418a634e487b7160e01b835252fd5b9194955092600285016107908282546110f7565b9055600b850191841690818752826020526107af8488209182546110f7565b90558552602052832054156107c357505080f35b6107cc91611183565b80f35b608487602086519162461bcd60e51b8352820152602960248201527f50523a204e6f74205269736b4d616e61676572206f7220556e6465727772697460448201527f65724d616e6167657200000000000000000000000000000000000000000000006064820152fd5b5080600254163314610672565b8480fd5b5091346102835761085936610efe565b9290936001600160a01b036003541633036108a357505061087990610f21565b50901561089457600361088f910191825461111a565b905580f35b600361088f91019182546110f7565b906020606492519162461bcd60e51b8352820152601a60248201527f50523a204e6f7420556e6465727772697465724d616e616765720000000000006044820152fd5b5090346103c157816003193601126103c1576020906001549051908152f35b5090346103c157816003193601126103c1576001600160a01b0360209254169051908152f35b50919034610283573660031901126103c1576001600160a01b03600161095b610952610e5e565b936104db61113f565b500191166001600160a01b031982541617905580f35b5090346103c15760c03660031901126103c15761098c610e43565b6080366023190112610283576109a061113f565b6001549268010000000000000000841015610a1d575060209350600183016001556109ca83610f21565b50506001600160a01b036109dd84610f21565b5091166001600160a01b0319825416178155602435600782015560443560088201556064356009820155608435600a820155600560a43591015551908152f35b80604186634e487b7160e01b6024945252fd5b50346101e057806003193601126101e057610a4961113f565b806001600160a01b0381546001600160a01b031981168355167f8be0079c531659141344cd1fd0a4f28419497f9722a3daafe3b4186f6b6457e08280a380f35b50913461028357610a9936610efe565b929190936001600160a01b03600254163303610ada5750610ab990610f21565b509115610acd5761088f910191825461111a565b61088f91019182546110f7565b5162461bcd60e51b8152602081840152601360248201527f50523a204e6f74205269736b4d616e61676572000000000000000000000000006044820152606490fd5b50346101e05760203660031901126101e05750610b48600c610b416105ae9435610f21565b500161109b565b9051918291602083526020830190610ec1565b5090346103c157816003193601126103c1576020906001600160a01b03600254169051908152f35b92919050346101e057929091610b9836610e74565b90610ba28261105f565b93610baf86519586610fc0565b828552610bbb8361105f565b60209390601f1901885b818110610cf7575050875b818110610c61575050505083519381850192828652845180945282828701950196915b848310610c005786860387f35b875180516001600160a01b039081168852818601518887015281830151888401526060808301519089015260808083015115159089015260a0808301519091169088015260c090810151908701529683019694810194600190920191610bf3565b80610c786104db60019385889d999a9c9b9d611077565b50876001600160a01b0391828154169260028201548c898401546003850154918986015493600560a097015497825199610cb18b610f72565b8a52890152870152606086015260ff81841c1615156080860152169083015260c0820152610cdf828c611087565b52610cea818b611087565b5001979596949397610bd0565b948897999581979951610d0981610f72565b8781528783820152878a8201528760608201528760808201528760a08201528760c082015282828d01015201989697959498610bc5565b82346101e05760203660031901126101e0576001600160a01b03610d62610e43565b610d6a61113f565b16610d76811515611014565b806001600160a01b031960025416176002557fdfd2967b9417925459cd79ae13c6dec37092beff03f9cd8ed4c3e687fe93d2e48280a280f35b82346101e05760203660031901126101e0576001600160a01b03610dd1610e43565b610dd961113f565b16610de5811515611014565b806001600160a01b031960035416176003557f06db6d5b075156acf1957fa22a87371011f8c68f26a39cc49e8ca9cb568b909b8280a280f35b8390346103c157816003193601126103c1576020906001600160a01b03600354168152f35b600435906001600160a01b0382168203610e5957565b600080fd5b602435906001600160a01b0382168203610e5957565b906020600319830112610e595760043567ffffffffffffffff92838211610e595780602383011215610e59578160040135938411610e595760248460051b83010111610e59576024019190565b90815180825260208080930193019160005b828110610ee1575050505090565b83516001600160a01b031685529381019392810192600101610ed3565b6060906003190112610e595760043590602435906044358015158103610e595790565b600154811015610f5c57600f906001600052027fb10e2d527612073b26eecdfd717e6a320cf44b4afac2b0732d9fcbe2b7fa0cf60190600090565b634e487b7160e01b600052603260045260246000fd5b60e0810190811067ffffffffffffffff821117610f8e57604052565b634e487b7160e01b600052604160045260246000fd5b6080810190811067ffffffffffffffff821117610f8e57604052565b90601f8019910116810190811067ffffffffffffffff821117610f8e57604052565b90604051610fef81610fa4565b6060600382948054845260018101546020850152600281015460408501520154910152565b1561101b57565b606460405162461bcd60e51b815260206004820152601060248201527f50523a205a65726f2061646472657373000000000000000000000000000000006044820152fd5b67ffffffffffffffff8111610f8e5760051b60200190565b9190811015610f5c5760051b0190565b8051821015610f5c5760209160051b010190565b90604051918281549182825260209260208301916000526020600020936000905b8282106110d4575050506110d292500383610fc0565b565b85546001600160a01b0316845260019586019588955093810193909101906110bc565b9190820391821161110457565b634e487b7160e01b600052601160045260246000fd5b9190820180921161110457565b8054821015610f5c5760005260206000200190600090565b6001600160a01b0360005416330361115357565b60246040517f118cdaa7000000000000000000000000000000000000000000000000000000008152336004820152fd5b600e81016001600160a01b038093166000938185528260205260ff6040862054161561125e57600d84019384602052600c60408720549101908154906000199182810190811161124a576111d8859185611127565b90549060031b1c166111ee816107108487611127565b88528660205260408820558154801561123657019161120d8383611127565b909182549160031b1b191690555583526020526040822060ff1981541690556020526040812055565b602488634e487b7160e01b81526031600452fd5b602489634e487b7160e01b81526011600452fd5b505050505056fea2646970667358221220087de1eeb7f0f064b58b00fa65d536c5e4eefdae1639ccb40edc6f3abacd9e9164736f6c63430008160033",
  "linkReferences": {},
  "deployedLinkReferences": {}
}