{
  "_format": "hh-sol-artifact-1",
  "contractName": "PoolRegistry",
  "sourceName": "contracts/core/PoolRegistry.sol",
  "abi": [
    {
      "inputs": [
        {
          "internalType": "address",
          "name": "initialOwner",
          "type": "address"
        },
        {
          "internalType": "address",
          "name": "riskManagerAddress",
          "type": "address"
        }
      ],
      "stateMutability": "nonpayable",
      "type": "constructor"
    },
    {
      "inputs": [
        {
          "internalType": "address",
          "name": "owner",
          "type": "address"
        }
      ],
      "name": "OwnableInvalidOwner",
      "type": "error"
    },
    {
      "inputs": [
        {
          "internalType": "address",
          "name": "account",
          "type": "address"
        }
      ],
      "name": "OwnableUnauthorizedAccount",
      "type": "error"
    },
    {
      "anonymous": false,
      "inputs": [
        {
          "indexed": true,
          "internalType": "address",
          "name": "previousOwner",
          "type": "address"
        },
        {
          "indexed": true,
          "internalType": "address",
          "name": "newOwner",
          "type": "address"
        }
      ],
      "name": "OwnershipTransferred",
      "type": "event"
    },
    {
      "anonymous": false,
      "inputs": [
        {
          "indexed": true,
          "internalType": "address",
          "name": "newRiskManager",
          "type": "address"
        }
      ],
      "name": "RiskManagerAddressSet",
      "type": "event"
    },
    {
      "inputs": [
        {
          "internalType": "address",
          "name": "protocolTokenToCover",
          "type": "address"
        },
        {
          "components": [
            {
              "internalType": "uint256",
              "name": "base",
              "type": "uint256"
            },
            {
              "internalType": "uint256",
              "name": "slope1",
              "type": "uint256"
            },
            {
              "internalType": "uint256",
              "name": "slope2",
              "type": "uint256"
            },
            {
              "internalType": "uint256",
              "name": "kink",
              "type": "uint256"
            }
          ],
          "internalType": "struct IPoolRegistry.RateModel",
          "name": "rateModel",
          "type": "tuple"
        },
        {
          "internalType": "uint256",
          "name": "claimFeeBps",
          "type": "uint256"
        }
      ],
      "name": "addProtocolRiskPool",
      "outputs": [
        {
          "internalType": "uint256",
          "name": "",
          "type": "uint256"
        }
      ],
      "stateMutability": "nonpayable",
      "type": "function"
    },
    {
      "inputs": [
        {
          "internalType": "uint256",
          "name": "poolId",
          "type": "uint256"
        },
        {
          "internalType": "address",
          "name": "adapter",
          "type": "address"
        }
      ],
      "name": "getCapitalPerAdapter",
      "outputs": [
        {
          "internalType": "uint256",
          "name": "",
          "type": "uint256"
        }
      ],
      "stateMutability": "view",
      "type": "function"
    },
    {
      "inputs": [
        {
          "internalType": "uint256[]",
          "name": "poolIds",
          "type": "uint256[]"
        }
      ],
      "name": "getMultiplePoolData",
      "outputs": [
        {
          "components": [
            {
              "internalType": "contract IERC20",
              "name": "protocolTokenToCover",
              "type": "address"
            },
            {
              "internalType": "uint256",
              "name": "totalCapitalPledgedToPool",
              "type": "uint256"
            },
            {
              "internalType": "uint256",
              "name": "totalCoverageSold",
              "type": "uint256"
            },
            {
              "internalType": "uint256",
              "name": "capitalPendingWithdrawal",
              "type": "uint256"
            },
            {
              "internalType": "bool",
              "name": "isPaused",
              "type": "bool"
            },
            {
              "internalType": "address",
              "name": "feeRecipient",
              "type": "address"
            },
            {
              "internalType": "uint256",
              "name": "claimFeeBps",
              "type": "uint256"
            }
          ],
          "internalType": "struct IPoolRegistry.PoolInfo[]",
          "name": "",
          "type": "tuple[]"
        }
      ],
      "stateMutability": "view",
      "type": "function"
    },
    {
      "inputs": [
        {
          "internalType": "uint256",
          "name": "poolId",
          "type": "uint256"
        }
      ],
      "name": "getPoolActiveAdapters",
      "outputs": [
        {
          "internalType": "address[]",
          "name": "",
          "type": "address[]"
        }
      ],
      "stateMutability": "view",
      "type": "function"
    },
    {
      "inputs": [],
      "name": "getPoolCount",
      "outputs": [
        {
          "internalType": "uint256",
          "name": "",
          "type": "uint256"
        }
      ],
      "stateMutability": "view",
      "type": "function"
    },
    {
      "inputs": [
        {
          "internalType": "uint256",
          "name": "poolId",
          "type": "uint256"
        }
      ],
      "name": "getPoolData",
      "outputs": [
        {
          "internalType": "contract IERC20",
          "name": "protocolTokenToCover",
          "type": "address"
        },
        {
          "internalType": "uint256",
          "name": "totalCapitalPledgedToPool",
          "type": "uint256"
        },
        {
          "internalType": "uint256",
          "name": "totalCoverageSold",
          "type": "uint256"
        },
        {
          "internalType": "uint256",
          "name": "capitalPendingWithdrawal",
          "type": "uint256"
        },
        {
          "internalType": "bool",
          "name": "isPaused",
          "type": "bool"
        },
        {
          "internalType": "address",
          "name": "feeRecipient",
          "type": "address"
        },
        {
          "internalType": "uint256",
          "name": "claimFeeBps",
          "type": "uint256"
        }
      ],
      "stateMutability": "view",
      "type": "function"
    },
    {
      "inputs": [
        {
          "internalType": "uint256",
          "name": "poolId",
          "type": "uint256"
        }
      ],
      "name": "getPoolPayoutData",
      "outputs": [
        {
          "internalType": "address[]",
          "name": "",
          "type": "address[]"
        },
        {
          "internalType": "uint256[]",
          "name": "",
          "type": "uint256[]"
        },
        {
          "internalType": "uint256",
          "name": "",
          "type": "uint256"
        }
      ],
      "stateMutability": "view",
      "type": "function"
    },
    {
      "inputs": [
        {
          "internalType": "uint256",
          "name": "poolId",
          "type": "uint256"
        }
      ],
      "name": "getPoolRateModel",
      "outputs": [
        {
          "components": [
            {
              "internalType": "uint256",
              "name": "base",
              "type": "uint256"
            },
            {
              "internalType": "uint256",
              "name": "slope1",
              "type": "uint256"
            },
            {
              "internalType": "uint256",
              "name": "slope2",
              "type": "uint256"
            },
            {
              "internalType": "uint256",
              "name": "kink",
              "type": "uint256"
            }
          ],
          "internalType": "struct IPoolRegistry.RateModel",
          "name": "",
          "type": "tuple"
        }
      ],
      "stateMutability": "view",
      "type": "function"
    },
    {
      "inputs": [
        {
          "internalType": "uint256[]",
          "name": "poolIds",
          "type": "uint256[]"
        }
      ],
      "name": "getPoolTokens",
      "outputs": [
        {
          "internalType": "address[]",
          "name": "tokens",
          "type": "address[]"
        }
      ],
      "stateMutability": "view",
      "type": "function"
    },
    {
      "inputs": [],
      "name": "owner",
      "outputs": [
        {
          "internalType": "address",
          "name": "",
          "type": "address"
        }
      ],
      "stateMutability": "view",
      "type": "function"
    },
    {
      "inputs": [
        {
          "internalType": "uint256",
          "name": "",
          "type": "uint256"
        }
      ],
      "name": "protocolRiskPools",
      "outputs": [
        {
          "internalType": "contract IERC20",
          "name": "protocolTokenToCover",
          "type": "address"
        },
        {
          "components": [
            {
              "internalType": "uint256",
              "name": "base",
              "type": "uint256"
            },
            {
              "internalType": "uint256",
              "name": "slope1",
              "type": "uint256"
            },
            {
              "internalType": "uint256",
              "name": "slope2",
              "type": "uint256"
            },
            {
              "internalType": "uint256",
              "name": "kink",
              "type": "uint256"
            }
          ],
          "internalType": "struct IPoolRegistry.RateModel",
          "name": "rateModel",
          "type": "tuple"
        },
        {
          "internalType": "uint256",
          "name": "totalCapitalPledgedToPool",
          "type": "uint256"
        },
        {
          "internalType": "uint256",
          "name": "capitalPendingWithdrawal",
          "type": "uint256"
        },
        {
          "internalType": "uint256",
          "name": "totalCoverageSold",
          "type": "uint256"
        },
        {
          "internalType": "uint256",
          "name": "claimFeeBps",
          "type": "uint256"
        },
        {
          "internalType": "bool",
          "name": "isPaused",
          "type": "bool"
        },
        {
          "internalType": "uint256",
          "name": "pauseTimestamp",
          "type": "uint256"
        },
        {
          "internalType": "address",
          "name": "feeRecipient",
          "type": "address"
        }
      ],
      "stateMutability": "view",
      "type": "function"
    },
    {
      "inputs": [],
      "name": "renounceOwnership",
      "outputs": [],
      "stateMutability": "nonpayable",
      "type": "function"
    },
    {
      "inputs": [],
      "name": "riskManager",
      "outputs": [
        {
          "internalType": "address",
          "name": "",
          "type": "address"
        }
      ],
      "stateMutability": "view",
      "type": "function"
    },
    {
      "inputs": [
        {
          "internalType": "uint256",
          "name": "poolId",
          "type": "uint256"
        },
        {
          "internalType": "address",
          "name": "recipient",
          "type": "address"
        }
      ],
      "name": "setFeeRecipient",
      "outputs": [],
      "stateMutability": "nonpayable",
      "type": "function"
    },
    {
      "inputs": [
        {
          "internalType": "uint256",
          "name": "poolId",
          "type": "uint256"
        },
        {
          "internalType": "bool",
          "name": "isPaused",
          "type": "bool"
        }
      ],
      "name": "setPauseState",
      "outputs": [],
      "stateMutability": "nonpayable",
      "type": "function"
    },
    {
      "inputs": [
        {
          "internalType": "address",
          "name": "newRiskManager",
          "type": "address"
        }
      ],
      "name": "setRiskManager",
      "outputs": [],
      "stateMutability": "nonpayable",
      "type": "function"
    },
    {
      "inputs": [
        {
          "internalType": "address",
          "name": "newOwner",
          "type": "address"
        }
      ],
      "name": "transferOwnership",
      "outputs": [],
      "stateMutability": "nonpayable",
      "type": "function"
    },
    {
      "inputs": [
        {
          "internalType": "uint256",
          "name": "poolId",
          "type": "uint256"
        },
        {
          "internalType": "address",
          "name": "adapterAddress",
          "type": "address"
        },
        {
          "internalType": "uint256",
          "name": "pledgeAmount",
          "type": "uint256"
        },
        {
          "internalType": "bool",
          "name": "isAllocation",
          "type": "bool"
        }
      ],
      "name": "updateCapitalAllocation",
      "outputs": [],
      "stateMutability": "nonpayable",
      "type": "function"
    },
    {
      "inputs": [
        {
          "internalType": "uint256",
          "name": "poolId",
          "type": "uint256"
        },
        {
          "internalType": "uint256",
          "name": "amount",
          "type": "uint256"
        },
        {
          "internalType": "bool",
          "name": "isRequest",
          "type": "bool"
        }
      ],
      "name": "updateCapitalPendingWithdrawal",
      "outputs": [],
      "stateMutability": "nonpayable",
      "type": "function"
    },
    {
      "inputs": [
        {
          "internalType": "uint256",
          "name": "poolId",
          "type": "uint256"
        },
        {
          "internalType": "uint256",
          "name": "amount",
          "type": "uint256"
        },
        {
          "internalType": "bool",
          "name": "isSale",
          "type": "bool"
        }
      ],
      "name": "updateCoverageSold",
      "outputs": [],
      "stateMutability": "nonpayable",
      "type": "function"
    }
  ],
  "bytecode": "0x60803461011357601f61124838819003918201601f19168301916001600160401b0383118484101761011857808492604094855283398101031261011357610052602061004b8361012e565b920161012e565b906001600160a01b039081169081156100fa576000549260018060a01b03199280848616176000558260405195167f8be0079c531659141344cd1fd0a4f28419497f9722a3daafe3b4186f6b6457e0600080a3169182156100c55750600254161760025560405161110590816101438239f35b62461bcd60e51b815260206004820152601060248201526f50523a205a65726f206164647265737360801b6044820152606490fd5b604051631e4fbdf760e01b815260006004820152602490fd5b600080fd5b634e487b7160e01b600052604160045260246000fd5b51906001600160a01b03821682036101135756fe6040608081526004908136101561001557600080fd5b60009160e0833560e01c9081633897427714610af0575080634784266314610ac857806357204dc914610a885780635d293f9e14610a5157806362ca8460146109a1578063715018a614610948578063789404a0146108825780637b882732146108355780638da5cb5b1461080f5780638eec5d70146107f0578063a1b6dbfe14610795578063a6bd24ab146105f4578063b05b829c1461050e578063b56a532c1461049f578063b75adf941461042b578063d21c87ad146103b0578063e139c3f0146102b5578063e9b2ce2414610272578063f2fde38b146101d35763f85f9cc61461010157600080fd5b346101cf5760203660031901126101cf5735916001548310156101cc575061012b61018092610d8c565b50906001600160a01b0391828154169261014760018301610e4c565b600583015460068401546007850154916101a160088701549460ff60098901541696600b600a8a0154990154169851998a5260208a0190606080918051845260208101516020850152604081015160408501520151910152565b60a088015260c087015260e08601526101008501521515610120840152610140830152610160820152f35b80fd5b8280fd5b50346101cf5760203660031901126101cf576101ed610d60565b906101f6610fa9565b6001600160a01b038092169283156102435750508254826001600160a01b03198216178455167f8be0079c531659141344cd1fd0a4f28419497f9722a3daafe3b4186f6b6457e08380a380f35b908460249251917f1e4fbdf7000000000000000000000000000000000000000000000000000000008352820152fd5b50346101cf57816003193601126101cf57602092600c83926001600160a01b036102a461029d610d76565b9235610d8c565b509116835201845220549051908152f35b508290346103ac57602090816003193601126101cf576102d59035610d8c565b50916102e3600d8401610eba565b8051926103076102f285610e7e565b946102ff88519687610e2a565b808652610e7e565b8482019290601f1901368437600c860192845b825181101561035457806001600160a01b0361033860019386610ea6565b511687528585528987205461034d828a610ea6565b520161031a565b5085888660058a01549286610373845197606089526060890190610d00565b918783038289015251918281520194915b818110610398575050508380955001520390f35b825186529487019491870191600101610384565b5080fd5b5091346101cc5760203660031901126101cc57506103d060e09235610d8c565b50906001600160a01b039182815416926005820154926007830154600684015491600860ff60098701541694600b87015416950154958151978852602088015286015260608501521515608084015260a083015260c0820152f35b50346101cf5760203660031901126101cf57610476600161046f61049d936080966060875161045981610e0e565b8281528260208201528289820152015235610d8c565b5001610e4c565b91518092606080918051845260208101516020850152604081015160408501520151910152565bf35b5090346101cf573660031901126103ac576024358015159182820361050a576104de906104d86001600160a01b03600254163314610f16565b35610d8c565b5091600983019060ff8019835416911617905560001461050157600a4291015580f35b600a8291015580f35b8380fd5b5090346101cf5761051e36610cae565b9361052885610e7e565b9361053584519586610e2a565b85855261054186610e7e565b60209290601f1901368785013791600196600154935b818110610577578651602080825281906105739082018b610d00565b0390f35b610582818388610e96565b35858110156105b257906001600160a01b0361059e8b93610d8c565b5054166105ab828b610ea6565b5201610557565b606485858a519162461bcd60e51b8352820152601260248201527f50523a20496e76616c696420706f6f6c496400000000000000000000000000006044820152fd5b509190346103ac5760803660031901126103ac57610610610d76565b9060443591606435908115158203610791576001600160a01b0361063981600254163314610f16565b6106438735610d8c565b50921561073e5760058301610659868254610f84565b9055811693848652600c8301602052610676848720918254610f84565b9055838552600f8201602052828520805460ff81161561069c575b505050505050905080f35b60019060ff1916179055600d82019081546801000000000000000081101561072b57906106d28260016106f19401855584610f91565b9091906001600160a01b038084549260031b9316831b921b1916179055565b54600019810193908411610718578452600e01602052822055905080388080808080610691565b602485601188634e487b7160e01b835252fd5b60248760418a634e487b7160e01b835252fd5b919495509260058501610752828254610f61565b9055600c85019184169081875282602052610771848820918254610f61565b905585526020528320541561078557505080f35b61078e91610fed565b80f35b8480fd5b83346101cc576107c66107a736610d3d565b916107c16001600160a01b03600295939554163314610f16565b610d8c565b5090156107e15760066107dc9101918254610f84565b905580f35b60066107dc9101918254610f61565b5050346103ac57816003193601126103ac576020906001549051908152f35b5050346103ac57816003193601126103ac576001600160a01b0360209254169051908152f35b5090346101cf573660031901126103ac5761084e610d76565b90600b61086c6001600160a01b03926104d884600254163314610f16565b500191166001600160a01b031982541617905580f35b509190346103ac5760c03660031901126103ac5761089e610d60565b60803660231901126101cf576001600160a01b036108c181600254163314610f16565b6001549368010000000000000000851015610935575093602094600185016001556108eb85610d8c565b50506108f685610d8c565b5092166001600160a01b031983541617825560243560018301556044356002830155606435600383015560843590820155600860a43591015551908152f35b80604187634e487b7160e01b6024945252fd5b83346101cc57806003193601126101cc57610961610fa9565b806001600160a01b0381546001600160a01b031981168355167f8be0079c531659141344cd1fd0a4f28419497f9722a3daafe3b4186f6b6457e08280a380f35b50346101cf5760203660031901126101cf576001600160a01b036109c3610d60565b6109cb610fa9565b16918215610a0e575050806001600160a01b031960025416176002557fdfd2967b9417925459cd79ae13c6dec37092beff03f9cd8ed4c3e687fe93d2e48280a280f35b906020606492519162461bcd60e51b8352820152601060248201527f50523a205a65726f2061646472657373000000000000000000000000000000006044820152fd5b83346101cc57610a636107a736610d3d565b509015610a795760076107dc9101918254610f84565b60076107dc9101918254610f61565b5091346101cc5760203660031901126101cc5750610ab5600d610aae6105739435610d8c565b5001610eba565b9051918291602083526020830190610d00565b5050346103ac57816003193601126103ac576020906001600160a01b03600254169051908152f35b849084346101cf5790610b0236610cae565b610b0e81939293610e7e565b92610b1b85519485610e2a565b818452610b2782610e7e565b60209290601f1901875b818110610c65575050865b818110610bcc5750505083519381850192828652845180945282828701950196915b848310610b6b5786860387f35b875180516001600160a01b039081168852818601518887015281830151888401526060808301519089015260808083015115159089015260a0808301519091169088015260c090810151908701529683019694810194600190920191610b5e565b80610be36104d860019385879c98999b9a9c610e96565b506001600160a01b0380825416916005810154916007820154600683015490600860ff60098601541693600b86015416940154948d5196610c2388610ddc565b87528c8701528c86015260608501521515608084015260a083015260c0820152610c4d828b610ea6565b52610c58818a610ea6565b5001969495939296610b3c565b938796989481969851610c7781610ddc565b868152868382015286898201528660608201528660808201528660a08201528660c082015282828c01015201979596949397610b31565b906020600319830112610cfb5760043567ffffffffffffffff92838211610cfb5780602383011215610cfb578160040135938411610cfb5760248460051b83010111610cfb576024019190565b600080fd5b90815180825260208080930193019160005b828110610d20575050505090565b83516001600160a01b031685529381019392810192600101610d12565b6060906003190112610cfb5760043590602435906044358015158103610cfb5790565b600435906001600160a01b0382168203610cfb57565b602435906001600160a01b0382168203610cfb57565b600154811015610dc657600160005260041b7fb10e2d527612073b26eecdfd717e6a320cf44b4afac2b0732d9fcbe2b7fa0cf60190600090565b634e487b7160e01b600052603260045260246000fd5b60e0810190811067ffffffffffffffff821117610df857604052565b634e487b7160e01b600052604160045260246000fd5b6080810190811067ffffffffffffffff821117610df857604052565b90601f8019910116810190811067ffffffffffffffff821117610df857604052565b90604051610e5981610e0e565b6060600382948054845260018101546020850152600281015460408501520154910152565b67ffffffffffffffff8111610df85760051b60200190565b9190811015610dc65760051b0190565b8051821015610dc65760209160051b010190565b90604051918281549182825260209260208301916000526020600020936000905b828210610ef357505050610ef192500383610e2a565b565b85546001600160a01b031684526001958601958895509381019390910190610edb565b15610f1d57565b606460405162461bcd60e51b815260206004820152601360248201527f50523a204e6f74205269736b4d616e61676572000000000000000000000000006044820152fd5b91908203918211610f6e57565b634e487b7160e01b600052601160045260246000fd5b91908201809211610f6e57565b8054821015610dc65760005260206000200190600090565b6001600160a01b03600054163303610fbd57565b60246040517f118cdaa7000000000000000000000000000000000000000000000000000000008152336004820152fd5b600f81016001600160a01b038093166000938185528260205260ff604086205416156110c857600e84019384602052600d6040872054910190815490600019918281019081116110b457611042859185610f91565b90549060031b1c16611058816106d28487610f91565b8852866020526040882055815480156110a05701916110778383610f91565b909182549160031b1b191690555583526020526040822060ff1981541690556020526040812055565b602488634e487b7160e01b81526031600452fd5b602489634e487b7160e01b81526011600452fd5b505050505056fea26469706673582212203685b5457bb556190c8af5d27b4fa945cfcde45c904f127ad6299a084236301d64736f6c63430008160033",
  "linkReferences": {},
  "deployedLinkReferences": {}
}