{
  "_format": "hh-sol-artifact-1",
  "contractName": "PoolRegistry",
  "sourceName": "contracts/core/PoolRegistry.sol",
  "abi": [
    {
      "inputs": [
        {
          "internalType": "address",
          "name": "initialOwner",
          "type": "address"
        },
        {
          "internalType": "address",
          "name": "riskManagerAddress",
          "type": "address"
        },
        {
          "internalType": "address",
          "name": "underwriterManagerAddress",
          "type": "address"
        }
      ],
      "stateMutability": "nonpayable",
      "type": "constructor"
    },
    {
      "inputs": [
        {
          "internalType": "address",
          "name": "owner",
          "type": "address"
        }
      ],
      "name": "OwnableInvalidOwner",
      "type": "error"
    },
    {
      "inputs": [
        {
          "internalType": "address",
          "name": "account",
          "type": "address"
        }
      ],
      "name": "OwnableUnauthorizedAccount",
      "type": "error"
    },
    {
      "anonymous": false,
      "inputs": [
        {
          "indexed": true,
          "internalType": "address",
          "name": "previousOwner",
          "type": "address"
        },
        {
          "indexed": true,
          "internalType": "address",
          "name": "newOwner",
          "type": "address"
        }
      ],
      "name": "OwnershipTransferred",
      "type": "event"
    },
    {
      "anonymous": false,
      "inputs": [
        {
          "indexed": true,
          "internalType": "uint256",
          "name": "poolId",
          "type": "uint256"
        },
        {
          "indexed": false,
          "internalType": "bool",
          "name": "isYieldPool",
          "type": "bool"
        }
      ],
      "name": "PoolTypeSet",
      "type": "event"
    },
    {
      "anonymous": false,
      "inputs": [
        {
          "indexed": true,
          "internalType": "address",
          "name": "newRiskManager",
          "type": "address"
        }
      ],
      "name": "RiskManagerAddressSet",
      "type": "event"
    },
    {
      "anonymous": false,
      "inputs": [
        {
          "indexed": true,
          "internalType": "address",
          "name": "newUnderwriterManager",
          "type": "address"
        }
      ],
      "name": "UnderwriterManagerAddressSet",
      "type": "event"
    },
    {
      "inputs": [
        {
          "internalType": "address",
          "name": "protocolTokenToCover",
          "type": "address"
        },
        {
          "components": [
            {
              "internalType": "uint256",
              "name": "base",
              "type": "uint256"
            },
            {
              "internalType": "uint256",
              "name": "slope1",
              "type": "uint256"
            },
            {
              "internalType": "uint256",
              "name": "slope2",
              "type": "uint256"
            },
            {
              "internalType": "uint256",
              "name": "kink",
              "type": "uint256"
            }
          ],
          "internalType": "struct IPoolRegistry.RateModel",
          "name": "rateModel",
          "type": "tuple"
        },
        {
          "internalType": "uint256",
          "name": "claimFeeBps",
          "type": "uint256"
        }
      ],
      "name": "addProtocolRiskPool",
      "outputs": [
        {
          "internalType": "uint256",
          "name": "",
          "type": "uint256"
        }
      ],
      "stateMutability": "nonpayable",
      "type": "function"
    },
    {
      "inputs": [
        {
          "internalType": "uint256",
          "name": "poolId",
          "type": "uint256"
        },
        {
          "internalType": "address",
          "name": "adapter",
          "type": "address"
        }
      ],
      "name": "getCapitalPerAdapter",
      "outputs": [
        {
          "internalType": "uint256",
          "name": "",
          "type": "uint256"
        }
      ],
      "stateMutability": "view",
      "type": "function"
    },
    {
      "inputs": [
        {
          "internalType": "uint256[]",
          "name": "poolIds",
          "type": "uint256[]"
        }
      ],
      "name": "getMultiplePoolData",
      "outputs": [
        {
          "components": [
            {
              "internalType": "contract IERC20",
              "name": "protocolTokenToCover",
              "type": "address"
            },
            {
              "internalType": "uint256",
              "name": "totalCapitalPledgedToPool",
              "type": "uint256"
            },
            {
              "internalType": "uint256",
              "name": "totalCoverageSold",
              "type": "uint256"
            },
            {
              "internalType": "uint256",
              "name": "capitalPendingWithdrawal",
              "type": "uint256"
            },
            {
              "internalType": "bool",
              "name": "isPaused",
              "type": "bool"
            },
            {
              "internalType": "address",
              "name": "feeRecipient",
              "type": "address"
            },
            {
              "internalType": "uint256",
              "name": "claimFeeBps",
              "type": "uint256"
            }
          ],
          "internalType": "struct IPoolRegistry.PoolInfo[]",
          "name": "",
          "type": "tuple[]"
        }
      ],
      "stateMutability": "view",
      "type": "function"
    },
    {
      "inputs": [
        {
          "internalType": "uint256",
          "name": "poolId",
          "type": "uint256"
        }
      ],
      "name": "getPoolActiveAdapters",
      "outputs": [
        {
          "internalType": "address[]",
          "name": "",
          "type": "address[]"
        }
      ],
      "stateMutability": "view",
      "type": "function"
    },
    {
      "inputs": [],
      "name": "getPoolCount",
      "outputs": [
        {
          "internalType": "uint256",
          "name": "",
          "type": "uint256"
        }
      ],
      "stateMutability": "view",
      "type": "function"
    },
    {
      "inputs": [
        {
          "internalType": "uint256",
          "name": "poolId",
          "type": "uint256"
        }
      ],
      "name": "getPoolData",
      "outputs": [
        {
          "internalType": "contract IERC20",
          "name": "protocolTokenToCover",
          "type": "address"
        },
        {
          "internalType": "uint256",
          "name": "totalCapitalPledgedToPool",
          "type": "uint256"
        },
        {
          "internalType": "uint256",
          "name": "totalCoverageSold",
          "type": "uint256"
        },
        {
          "internalType": "uint256",
          "name": "capitalPendingWithdrawal",
          "type": "uint256"
        },
        {
          "internalType": "bool",
          "name": "isPaused",
          "type": "bool"
        },
        {
          "internalType": "address",
          "name": "feeRecipient",
          "type": "address"
        },
        {
          "internalType": "uint256",
          "name": "claimFeeBps",
          "type": "uint256"
        }
      ],
      "stateMutability": "view",
      "type": "function"
    },
    {
      "inputs": [
        {
          "internalType": "uint256",
          "name": "poolId",
          "type": "uint256"
        }
      ],
      "name": "getPoolPayoutData",
      "outputs": [
        {
          "internalType": "address[]",
          "name": "",
          "type": "address[]"
        },
        {
          "internalType": "uint256[]",
          "name": "",
          "type": "uint256[]"
        },
        {
          "internalType": "uint256",
          "name": "",
          "type": "uint256"
        }
      ],
      "stateMutability": "view",
      "type": "function"
    },
    {
      "inputs": [
        {
          "internalType": "uint256",
          "name": "poolId",
          "type": "uint256"
        }
      ],
      "name": "getPoolRateModel",
      "outputs": [
        {
          "components": [
            {
              "internalType": "uint256",
              "name": "base",
              "type": "uint256"
            },
            {
              "internalType": "uint256",
              "name": "slope1",
              "type": "uint256"
            },
            {
              "internalType": "uint256",
              "name": "slope2",
              "type": "uint256"
            },
            {
              "internalType": "uint256",
              "name": "kink",
              "type": "uint256"
            }
          ],
          "internalType": "struct IPoolRegistry.RateModel",
          "name": "",
          "type": "tuple"
        }
      ],
      "stateMutability": "view",
      "type": "function"
    },
    {
      "inputs": [
        {
          "internalType": "uint256[]",
          "name": "poolIds",
          "type": "uint256[]"
        }
      ],
      "name": "getPoolTokens",
      "outputs": [
        {
          "internalType": "address[]",
          "name": "tokens",
          "type": "address[]"
        }
      ],
      "stateMutability": "view",
      "type": "function"
    },
    {
      "inputs": [
        {
          "internalType": "uint256",
          "name": "",
          "type": "uint256"
        }
      ],
      "name": "isYieldRewardPool",
      "outputs": [
        {
          "internalType": "bool",
          "name": "",
          "type": "bool"
        }
      ],
      "stateMutability": "view",
      "type": "function"
    },
    {
      "inputs": [],
      "name": "owner",
      "outputs": [
        {
          "internalType": "address",
          "name": "",
          "type": "address"
        }
      ],
      "stateMutability": "view",
      "type": "function"
    },
    {
      "inputs": [
        {
          "internalType": "uint256",
          "name": "",
          "type": "uint256"
        }
      ],
      "name": "protocolRiskPools",
      "outputs": [
        {
          "internalType": "contract IERC20",
          "name": "protocolTokenToCover",
          "type": "address"
        },
        {
          "internalType": "address",
          "name": "feeRecipient",
          "type": "address"
        },
        {
          "internalType": "bool",
          "name": "isPaused",
          "type": "bool"
        },
        {
          "internalType": "uint256",
          "name": "totalCapitalPledgedToPool",
          "type": "uint256"
        },
        {
          "internalType": "uint256",
          "name": "capitalPendingWithdrawal",
          "type": "uint256"
        },
        {
          "internalType": "uint256",
          "name": "totalCoverageSold",
          "type": "uint256"
        },
        {
          "internalType": "uint256",
          "name": "claimFeeBps",
          "type": "uint256"
        },
        {
          "internalType": "uint256",
          "name": "pauseTimestamp",
          "type": "uint256"
        },
        {
          "components": [
            {
              "internalType": "uint256",
              "name": "base",
              "type": "uint256"
            },
            {
              "internalType": "uint256",
              "name": "slope1",
              "type": "uint256"
            },
            {
              "internalType": "uint256",
              "name": "slope2",
              "type": "uint256"
            },
            {
              "internalType": "uint256",
              "name": "kink",
              "type": "uint256"
            }
          ],
          "internalType": "struct IPoolRegistry.RateModel",
          "name": "rateModel",
          "type": "tuple"
        }
      ],
      "stateMutability": "view",
      "type": "function"
    },
    {
      "inputs": [],
      "name": "renounceOwnership",
      "outputs": [],
      "stateMutability": "nonpayable",
      "type": "function"
    },
    {
      "inputs": [],
      "name": "riskManager",
      "outputs": [
        {
          "internalType": "address",
          "name": "",
          "type": "address"
        }
      ],
      "stateMutability": "view",
      "type": "function"
    },
    {
      "inputs": [
        {
          "internalType": "uint256",
          "name": "poolId",
          "type": "uint256"
        },
        {
          "internalType": "address",
          "name": "recipient",
          "type": "address"
        }
      ],
      "name": "setFeeRecipient",
      "outputs": [],
      "stateMutability": "nonpayable",
      "type": "function"
    },
    {
      "inputs": [
        {
          "internalType": "uint256",
          "name": "poolId",
          "type": "uint256"
        },
        {
          "internalType": "bool",
          "name": "isYieldPool",
          "type": "bool"
        }
      ],
      "name": "setIsYieldRewardPool",
      "outputs": [],
      "stateMutability": "nonpayable",
      "type": "function"
    },
    {
      "inputs": [
        {
          "internalType": "uint256",
          "name": "poolId",
          "type": "uint256"
        },
        {
          "internalType": "bool",
          "name": "isPaused",
          "type": "bool"
        }
      ],
      "name": "setPauseState",
      "outputs": [],
      "stateMutability": "nonpayable",
      "type": "function"
    },
    {
      "inputs": [
        {
          "internalType": "address",
          "name": "newRiskManager",
          "type": "address"
        }
      ],
      "name": "setRiskManagerAddress",
      "outputs": [],
      "stateMutability": "nonpayable",
      "type": "function"
    },
    {
      "inputs": [
        {
          "internalType": "address",
          "name": "newUnderwriterManager",
          "type": "address"
        }
      ],
      "name": "setUnderwriterManagerAddress",
      "outputs": [],
      "stateMutability": "nonpayable",
      "type": "function"
    },
    {
      "inputs": [
        {
          "internalType": "address",
          "name": "newOwner",
          "type": "address"
        }
      ],
      "name": "transferOwnership",
      "outputs": [],
      "stateMutability": "nonpayable",
      "type": "function"
    },
    {
      "inputs": [],
      "name": "underwriterManager",
      "outputs": [
        {
          "internalType": "address",
          "name": "",
          "type": "address"
        }
      ],
      "stateMutability": "view",
      "type": "function"
    },
    {
      "inputs": [
        {
          "internalType": "uint256",
          "name": "poolId",
          "type": "uint256"
        },
        {
          "internalType": "address",
          "name": "adapterAddress",
          "type": "address"
        },
        {
          "internalType": "uint256",
          "name": "pledgeAmount",
          "type": "uint256"
        },
        {
          "internalType": "bool",
          "name": "isAllocation",
          "type": "bool"
        }
      ],
      "name": "updateCapitalAllocation",
      "outputs": [],
      "stateMutability": "nonpayable",
      "type": "function"
    },
    {
      "inputs": [
        {
          "internalType": "uint256",
          "name": "poolId",
          "type": "uint256"
        },
        {
          "internalType": "uint256",
          "name": "amount",
          "type": "uint256"
        },
        {
          "internalType": "bool",
          "name": "isRequest",
          "type": "bool"
        }
      ],
      "name": "updateCapitalPendingWithdrawal",
      "outputs": [],
      "stateMutability": "nonpayable",
      "type": "function"
    },
    {
      "inputs": [
        {
          "internalType": "uint256",
          "name": "poolId",
          "type": "uint256"
        },
        {
          "internalType": "uint256",
          "name": "amount",
          "type": "uint256"
        },
        {
          "internalType": "bool",
          "name": "isSale",
          "type": "bool"
        }
      ],
      "name": "updateCoverageSold",
      "outputs": [],
      "stateMutability": "nonpayable",
      "type": "function"
    }
  ],
  "bytecode": "0x6080346200019057601f6200153d38819003918201601f191683019291906001600160401b038411838510176200019557816060928492604096875283398101031262000190576200005181620001ab565b6200006c836200006460208501620001ab565b9301620001ab565b6001600160a01b03918216919082156200017857816000549460018060a01b031994808688161760005582885197167f8be0079c531659141344cd1fd0a4f28419497f9722a3daafe3b4186f6b6457e0600080a31693841562000136575016918215620000f25781600254161760025560035416176003555161137c9081620001c18239f35b835162461bcd60e51b815260206004820152601760248201527f50523a205a65726f206164647265737320666f7220554d0000000000000000006044820152606490fd5b62461bcd60e51b815260206004820152601760248201527f50523a205a65726f206164647265737320666f7220524d0000000000000000006044820152606490fd5b8451631e4fbdf760e01b815260006004820152602490fd5b600080fd5b634e487b7160e01b600052604160045260246000fd5b51906001600160a01b0382168203620001905756fe608060408181526004918236101561001657600080fd5b60009060e0823560e01c9182630342a90714610ea557508163120bfa4514610e365781631881401314610dc75781633897427714610c04575080634784266314610bdc57806357204dc914610b9d5780635d293f9e14610b0a578063715018a614610ab1578063789404a0146109f25780637b8827321461099f5780638da5cb5b146109795780638eec5d701461095a578063a1b6dbfe146108bd578063a6bd24ab146106a3578063b05b829c14610606578063b56a532c14610569578063b75adf94146104f6578063bb8d8e381461047e578063cccc2b5214610452578063d21c87ad146103db578063e139c3f0146102e1578063e9b2ce241461029d578063f2fde38b146101f95763f85f9cc61461012f57600080fd5b346101f65760203660031901126101f6578235906001548210156101f657506101809261015e6101f492610fb7565b506001600160a01b0391828254169460018301549160028401546003850154918501549260ff60058701549561019b600760068a01549901611078565b9883519b8c52811660208c015260a01c161515908901526060880152608087015260a086015260c085015260e0840152610100830190606080918051845260208101516020850152604081015160408501520151910152565bf35b80fd5b50913461029957602036600319011261029957610214610eca565b9061021d611220565b6001600160a01b0380921692831561026a5750508254826001600160a01b03198216178455167f8be0079c531659141344cd1fd0a4f28419497f9722a3daafe3b4186f6b6457e08380a380f35b908460249251917f1e4fbdf7000000000000000000000000000000000000000000000000000000008352820152fd5b8280fd5b509134610299578160031936011261029957602092600b83926001600160a01b036102d06102c9610ee5565b9235610fb7565b509116835201845220549051908152f35b5082346103d75760209081600319360112610299576103009035610fb7565b509161030e600c8401611131565b80519261033261031d856110f5565b9461032a88519687611056565b8086526110f5565b8482019290601f1901368437600b860192845b825181101561037f57806001600160a01b036103636001938661111d565b5116875285855289872054610378828a61111d565b5201610345565b5085888660028a0154928661039e845197606089526060890190610f48565b918783038289015251918281520194915b8181106103c3575050508380955001520390f35b8251865294870194918701916001016103af565b5080fd5b5091346102995760203660031901126102995760e092506103fc8135610fb7565b506001600160a01b03908181541693600282015493820154600383015491600560018501549401549581519788526020880152860152606085015260ff8160a01c16151560808501521660a083015260c0820152f35b50913461029957602036600319011261029957816020938260ff93358252855220541690519015158152f35b5091346102995781600319360112610299576020817fc3a2719c062ec1f6d0c5042dac115e07232d414677e7f596e5dfe809951b94059235936104bf610f85565b916104c8611220565b6104d560015487106111bd565b85875283528086209115159160ff1981541660ff841617905551908152a280f35b50913461029957602036600319011261029957610542600761053b6101f493608096606087516105258161103a565b8281528260208201528289820152015235610fb7565b5001611078565b91518092606080918051845260208101516020850152604081015160408501520151910152565b50919034610299573660031901126103d757356105a2610587610f85565b91610590611220565b61059d60015482106111bd565b610fb7565b50906001820180547fffffffffffffffffffffff00ffffffffffffffffffffffffffffffffffffffff74ff000000000000000000000000000000000000000084151560a01b1691161790556000146105fd5760064291015580f35b60068291015580f35b50346101f65761061536610efb565b9290610620846110f5565b9261062d83519485611056565b848452601f1961063c866110f5565b01366020860137600194600154915b81811061066b5784516020808252819061066790820189610f48565b0390f35b806001600160a01b0361068f6106838a94868961110d565b3561059d8782106111bd565b50541661069c828961111d565b520161064b565b5090346103d75760803660031901126103d7576106be610ee5565b90604435916064359081151582036108b9576001600160a01b038060035416331480156108ac575b15610843576106f58735610fb7565b5092156107f0576002830161070b8682546111b0565b9055811693848652600b83016020526107288487209182546111b0565b9055838552600e8201602052828520805460ff81161561074e575b505050505050905080f35b60019060ff1916179055600c8201908154680100000000000000008110156107dd57906107848260016107a39401855584611208565b9091906001600160a01b038084549260031b9316831b921b1916179055565b546000198101939084116107ca578452600d01602052822055905080388080808080610743565b602485601188634e487b7160e01b835252fd5b60248760418a634e487b7160e01b835252fd5b91949550926002850161080482825461118d565b9055600b8501918416908187528260205261082384882091825461118d565b905585526020528320541561083757505080f35b61084091611264565b80f35b608487602086519162461bcd60e51b8352820152602960248201527f50523a204e6f74205269736b4d616e61676572206f7220556e6465727772697460448201527f65724d616e6167657200000000000000000000000000000000000000000000006064820152fd5b50806002541633146106e6565b8480fd5b509134610299576108cd36610f94565b9290936001600160a01b036003541633036109175750506108ed90610fb7565b50901561090857600361090391019182546111b0565b905580f35b6003610903910191825461118d565b906020606492519162461bcd60e51b8352820152601a60248201527f50523a204e6f7420556e6465727772697465724d616e616765720000000000006044820152fd5b5090346103d757816003193601126103d7576020906001549051908152f35b5090346103d757816003193601126103d7576001600160a01b0360209254169051908152f35b50919034610299573660031901126103d757356001600160a01b0360016109dc6109c7610ee5565b936109d0611220565b61059d835482106111bd565b500191166001600160a01b031982541617905580f35b5090346103d75760c03660031901126103d757610a0d610eca565b608036602319011261029957610a21611220565b6001549268010000000000000000841015610a9e57506020935060018301600155610a4b83610fb7565b50506001600160a01b03610a5e84610fb7565b5091166001600160a01b0319825416178155602435600782015560443560088201556064356009820155608435600a820155600560a43591015551908152f35b80604186634e487b7160e01b6024945252fd5b50346101f657806003193601126101f657610aca611220565b806001600160a01b0381546001600160a01b031981168355167f8be0079c531659141344cd1fd0a4f28419497f9722a3daafe3b4186f6b6457e08280a380f35b50913461029957610b1a36610f94565b929190936001600160a01b03600254163303610b5b5750610b3a90610fb7565b509115610b4e5761090391019182546111b0565b610903910191825461118d565b5162461bcd60e51b8152602081840152601360248201527f50523a204e6f74205269736b4d616e61676572000000000000000000000000006044820152606490fd5b50346101f65760203660031901126101f65750610bc9600c610bc26106679435610fb7565b5001611131565b9051918291602083526020830190610f48565b5090346103d757816003193601126103d7576020906001600160a01b03600254169051908152f35b92919050346101f657929091610c1936610efb565b90610c23826110f5565b93610c3086519586611056565b828552610c3c836110f5565b60209390601f1901885b818110610d7e575050875b818110610ce2575050505083519381850192828652845180945282828701950196915b848310610c815786860387f35b875180516001600160a01b039081168852818601518887015281830151888401526060808301519089015260808083015115159089015260a0808301519091169088015260c090810151908701529683019694810194600190920191610c74565b80610cff610cf960019385889d999a9c9b9d61110d565b35610fb7565b50876001600160a01b0391828154169260028201548c898401546003850154918986015493600560a097015497825199610d388b611008565b8a52890152870152606086015260ff81841c1615156080860152169083015260c0820152610d66828c61111d565b52610d71818b61111d565b5001979596949397610c51565b948897999581979951610d9081611008565b8781528783820152878a8201528760608201528760808201528760a08201528760c082015282828d01015201989697959498610c46565b82346101f65760203660031901126101f6576001600160a01b03610de9610eca565b610df1611220565b16610dfd8115156110aa565b806001600160a01b031960025416176002557fdfd2967b9417925459cd79ae13c6dec37092beff03f9cd8ed4c3e687fe93d2e48280a280f35b82346101f65760203660031901126101f6576001600160a01b03610e58610eca565b610e60611220565b16610e6c8115156110aa565b806001600160a01b031960035416176003557f06db6d5b075156acf1957fa22a87371011f8c68f26a39cc49e8ca9cb568b909b8280a280f35b8390346103d757816003193601126103d7576020906001600160a01b03600354168152f35b600435906001600160a01b0382168203610ee057565b600080fd5b602435906001600160a01b0382168203610ee057565b906020600319830112610ee05760043567ffffffffffffffff92838211610ee05780602383011215610ee0578160040135938411610ee05760248460051b83010111610ee0576024019190565b90815180825260208080930193019160005b828110610f68575050505090565b83516001600160a01b031685529381019392810192600101610f5a565b602435908115158203610ee057565b6060906003190112610ee05760043590602435906044358015158103610ee05790565b600154811015610ff257600f906001600052027fb10e2d527612073b26eecdfd717e6a320cf44b4afac2b0732d9fcbe2b7fa0cf60190600090565b634e487b7160e01b600052603260045260246000fd5b60e0810190811067ffffffffffffffff82111761102457604052565b634e487b7160e01b600052604160045260246000fd5b6080810190811067ffffffffffffffff82111761102457604052565b90601f8019910116810190811067ffffffffffffffff82111761102457604052565b906040516110858161103a565b6060600382948054845260018101546020850152600281015460408501520154910152565b156110b157565b606460405162461bcd60e51b815260206004820152601060248201527f50523a205a65726f2061646472657373000000000000000000000000000000006044820152fd5b67ffffffffffffffff81116110245760051b60200190565b9190811015610ff25760051b0190565b8051821015610ff25760209160051b010190565b90604051918281549182825260209260208301916000526020600020936000905b82821061116a5750505061116892500383611056565b565b85546001600160a01b031684526001958601958895509381019390910190611152565b9190820391821161119a57565b634e487b7160e01b600052601160045260246000fd5b9190820180921161119a57565b156111c457565b606460405162461bcd60e51b815260206004820152601260248201527f50523a20496e76616c696420706f6f6c496400000000000000000000000000006044820152fd5b8054821015610ff25760005260206000200190600090565b6001600160a01b0360005416330361123457565b60246040517f118cdaa7000000000000000000000000000000000000000000000000000000008152336004820152fd5b600e81016001600160a01b038093166000938185528260205260ff6040862054161561133f57600d84019384602052600c60408720549101908154906000199182810190811161132b576112b9859185611208565b90549060031b1c166112cf816107848487611208565b8852866020526040882055815480156113175701916112ee8383611208565b909182549160031b1b191690555583526020526040822060ff1981541690556020526040812055565b602488634e487b7160e01b81526031600452fd5b602489634e487b7160e01b81526011600452fd5b505050505056fea2646970667358221220442ec5d616e80fe733eef84ffafde879400873051443c9d96f57dc8a47775fa864736f6c63430008160033",
  "linkReferences": {},
  "deployedLinkReferences": {}
}