{"abi":[{"type":"constructor","inputs":[{"name":"_initialOwner","type":"address","internalType":"address"}],"stateMutability":"nonpayable"},{"type":"function","name":"addProtocolRiskPool","inputs":[{"name":"protocolTokenToCover","type":"address","internalType":"address"},{"name":"rateModel","type":"tuple","internalType":"struct IPoolRegistry.RateModel","components":[{"name":"U_1","type":"uint128","internalType":"uint128"},{"name":"U_2","type":"uint128","internalType":"uint128"},{"name":"R_0","type":"uint128","internalType":"uint128"},{"name":"R_1","type":"uint128","internalType":"uint128"},{"name":"R_2","type":"uint128","internalType":"uint128"}]},{"name":"claimFeeBps","type":"uint256","internalType":"uint256"}],"outputs":[{"name":"","type":"uint256","internalType":"uint256"}],"stateMutability":"nonpayable"},{"type":"function","name":"committee","inputs":[],"outputs":[{"name":"","type":"address","internalType":"address"}],"stateMutability":"view"},{"type":"function","name":"owner","inputs":[],"outputs":[{"name":"","type":"address","internalType":"address"}],"stateMutability":"view"},{"type":"function","name":"poolRegistry","inputs":[],"outputs":[{"name":"","type":"address","internalType":"contract IPoolRegistry"}],"stateMutability":"view"},{"type":"function","name":"renounceOwnership","inputs":[],"outputs":[],"stateMutability":"nonpayable"},{"type":"function","name":"reportIncident","inputs":[{"name":"poolId","type":"uint256","internalType":"uint256"},{"name":"pauseState","type":"bool","internalType":"bool"}],"outputs":[],"stateMutability":"nonpayable"},{"type":"function","name":"setAddresses","inputs":[{"name":"_registry","type":"address","internalType":"address"}],"outputs":[],"stateMutability":"nonpayable"},{"type":"function","name":"setCommittee","inputs":[{"name":"_newCommittee","type":"address","internalType":"address"}],"outputs":[],"stateMutability":"nonpayable"},{"type":"function","name":"setPoolFeeRecipient","inputs":[{"name":"poolId","type":"uint256","internalType":"uint256"},{"name":"recipient","type":"address","internalType":"address"}],"outputs":[],"stateMutability":"nonpayable"},{"type":"function","name":"transferOwnership","inputs":[{"name":"newOwner","type":"address","internalType":"address"}],"outputs":[],"stateMutability":"nonpayable"},{"type":"event","name":"AddressesSet","inputs":[{"name":"registry","type":"address","indexed":false,"internalType":"address"}],"anonymous":false},{"type":"event","name":"CommitteeSet","inputs":[{"name":"newCommittee","type":"address","indexed":true,"internalType":"address"}],"anonymous":false},{"type":"event","name":"IncidentReported","inputs":[{"name":"poolId","type":"uint256","indexed":true,"internalType":"uint256"},{"name":"isPaused","type":"bool","indexed":false,"internalType":"bool"}],"anonymous":false},{"type":"event","name":"OwnershipTransferred","inputs":[{"name":"previousOwner","type":"address","indexed":true,"internalType":"address"},{"name":"newOwner","type":"address","indexed":true,"internalType":"address"}],"anonymous":false},{"type":"event","name":"PoolAdded","inputs":[{"name":"poolId","type":"uint256","indexed":true,"internalType":"uint256"},{"name":"protocolToken","type":"address","indexed":true,"internalType":"address"}],"anonymous":false},{"type":"event","name":"PoolFeeRecipientSet","inputs":[{"name":"poolId","type":"uint256","indexed":true,"internalType":"uint256"},{"name":"recipient","type":"address","indexed":true,"internalType":"address"}],"anonymous":false},{"type":"error","name":"NotCommittee","inputs":[]},{"type":"error","name":"OwnableInvalidOwner","inputs":[{"name":"owner","type":"address","internalType":"address"}]},{"type":"error","name":"OwnableUnauthorizedAccount","inputs":[{"name":"account","type":"address","internalType":"address"}]},{"type":"error","name":"ZeroAddressNotAllowed","inputs":[]}],"bytecode":{"object":"0x6080346100b957601f61084338819003918201601f19168301916001600160401b038311848410176100bd578084926020946040528339810103126100b957516001600160a01b0390818116908190036100b95780156100a1575f80546001600160a01b03198116831782556040519316907f8be0079c531659141344cd1fd0a4f28419497f9722a3daafe3b4186f6b6457e09080a361077190816100d28239f35b604051631e4fbdf760e01b81525f6004820152602490fd5b5f80fd5b634e487b7160e01b5f52604160045260245ffdfe60406080815260049081361015610014575f80fd5b5f915f3560e01c806327a6cf0e1461052357806331e28e551461041b578063715018a6146103b2578063762c4b0f146102ca57806381d3c4351461023c5780638da5cb5b14610216578063afcff50f146101ee578063bddae40e14610167578063d864e7401461013b5763f2fde38b1461008c575f80fd5b34610137576020366003190112610137576100a56106ba565b906100ae6106f8565b6001600160a01b038092169283156101085750505f548273ffffffffffffffffffffffffffffffffffffffff198216175f55167f8be0079c531659141344cd1fd0a4f28419497f9722a3daafe3b4186f6b6457e05f80a380f35b908460249251917f1e4fbdf7000000000000000000000000000000000000000000000000000000008352820152fd5b8280fd5b5050346101635781600319360112610163576020906001600160a01b03600254169051908152f35b5080fd5b5034610137576020366003190112610137576001600160a01b036101896106ba565b6101916106f8565b169182156101e15750508073ffffffffffffffffffffffffffffffffffffffff1960025416176002557f66fc13429d88ce88ca5934124e753e47ea4b02d41cc1d9d2010eb5504d1ec3278280a280f35b516342bcdf7f60e11b8152fd5b5050346101635781600319360112610163576020906001600160a01b03600154169051908152f35b5050346101635781600319360112610163576001600160a01b0360209254169051908152f35b509034610137576020366003190112610137576001600160a01b0361025f6106ba565b6102676106f8565b169182156102bc5750816020917f42a456866a0731114133c0b0a1ac4c629e13e3c9eee0aa94fc6f96ad93c362d69373ffffffffffffffffffffffffffffffffffffffff19600154161760015551908152a180f35b90516342bcdf7f60e11b8152fd5b5034610137578160031936011261013757803590602435926001600160a01b038085168095036103ae57806002541633036103a057908592916001541691823b1561039c57846044859283855196879485937f7b8827320000000000000000000000000000000000000000000000000000000085528401528a60248401525af1908115610393575061037f575b50807f237701dd376851727124708d9d64dcf722d749419cac0ffc01e6a2ac12de62d291a380f35b610388906106d0565b61013757825f610357565b513d84823e3d90fd5b8380fd5b50516373d664e160e11b8152fd5b5f80fd5b83346104185780600319360112610418576103cb6106f8565b5f6001600160a01b03815473ffffffffffffffffffffffffffffffffffffffff1981168355167f8be0079c531659141344cd1fd0a4f28419497f9722a3daafe3b4186f6b6457e08280a380f35b80fd5b50346103ae57816003193601126103ae57803591602435918215158093036103ae576001600160a01b0380600254163303610514576001541690813b156103ae578460445f9283865195869485937fb56a532c0000000000000000000000000000000000000000000000000000000085528401528860248401525af1801561050a576104d0575b507f888cf2c9e1f2e131054940f027c015bd27e6f4a1b2acdfe0b4d28cfb7b9fbb949160209151908152a280f35b6020919450916105007f888cf2c9e1f2e131054940f027c015bd27e6f4a1b2acdfe0b4d28cfb7b9fbb94936106d0565b5f949150916104a2565b82513d5f823e3d90fd5b5090516373d664e160e11b8152fd5b5090346103ae5760e03660031901126103ae5761053e6106ba565b9160a03660231901126103ae576105536106f8565b6001600160a01b03918260015416928151947f27a6cf0e00000000000000000000000000000000000000000000000000000000865216928383860152602435906fffffffffffffffffffffffffffffffff918281168091036103ae5760248701526044358281168091036103ae5760448701526064358281168091036103ae5760648701526084358281168091036103ae57608487015260a4359182168092036103ae5760e4865f819360209560a484015260c43560c48401525af19182156106b0575f9261064d575b50602093505191817f1f1f6396247a5ba59b7b1e094ec3a8e439d4dace0c5ac4fe3ecfde3e68e03a8a5f80a38152f35b9091506020903d6020116106a8575b601f8201601f191685019067ffffffffffffffff821186831017610695575060209185918452810103126103ae5760209251908461061d565b604190634e487b7160e01b5f525260245ffd5b3d915061065c565b50513d5f823e3d90fd5b600435906001600160a01b03821682036103ae57565b67ffffffffffffffff81116106e457604052565b634e487b7160e01b5f52604160045260245ffd5b6001600160a01b035f5416330361070b57565b60246040517f118cdaa7000000000000000000000000000000000000000000000000000000008152336004820152fdfea26469706673582212201cd35fc136c8dbff36a8b4f61ab8b6583858f14f00a9fb5bfbcde543abba75ac64736f6c63430008160033","linkReferences":{}},"methodIdentifiers":{"addProtocolRiskPool(address,(uint128,uint128,uint128,uint128,uint128),uint256)":"27a6cf0e","committee()":"d864e740","owner()":"8da5cb5b","poolRegistry()":"afcff50f","renounceOwnership()":"715018a6","reportIncident(uint256,bool)":"31e28e55","setAddresses(address)":"81d3c435","setCommittee(address)":"bddae40e","setPoolFeeRecipient(uint256,address)":"762c4b0f","transferOwnership(address)":"f2fde38b"},"id":9}