{
  "_format": "hh-sol-artifact-1",
  "contractName": "RiskAdmin",
  "sourceName": "contracts/core/ProtocolConfigurator.sol",
  "abi": [
    {
      "inputs": [
        {
          "internalType": "address",
          "name": "_initialOwner",
          "type": "address"
        }
      ],
      "stateMutability": "nonpayable",
      "type": "constructor"
    },
    {
      "inputs": [],
      "name": "AlreadyInitialized",
      "type": "error"
    },
    {
      "inputs": [],
      "name": "NotCommittee",
      "type": "error"
    },
    {
      "inputs": [],
      "name": "NotInitialized",
      "type": "error"
    },
    {
      "inputs": [
        {
          "internalType": "address",
          "name": "owner",
          "type": "address"
        }
      ],
      "name": "OwnableInvalidOwner",
      "type": "error"
    },
    {
      "inputs": [
        {
          "internalType": "address",
          "name": "account",
          "type": "address"
        }
      ],
      "name": "OwnableUnauthorizedAccount",
      "type": "error"
    },
    {
      "inputs": [],
      "name": "ZeroAddressNotAllowed",
      "type": "error"
    },
    {
      "anonymous": false,
      "inputs": [
        {
          "indexed": true,
          "internalType": "address",
          "name": "newCommittee",
          "type": "address"
        }
      ],
      "name": "CommitteeSet",
      "type": "event"
    },
    {
      "anonymous": false,
      "inputs": [
        {
          "indexed": true,
          "internalType": "uint256",
          "name": "poolId",
          "type": "uint256"
        },
        {
          "indexed": false,
          "internalType": "bool",
          "name": "isPaused",
          "type": "bool"
        }
      ],
      "name": "IncidentReported",
      "type": "event"
    },
    {
      "anonymous": false,
      "inputs": [
        {
          "indexed": false,
          "internalType": "address",
          "name": "registry",
          "type": "address"
        },
        {
          "indexed": false,
          "internalType": "address",
          "name": "capitalPool",
          "type": "address"
        },
        {
          "indexed": false,
          "internalType": "address",
          "name": "policyManager",
          "type": "address"
        },
        {
          "indexed": false,
          "internalType": "address",
          "name": "underwriterManager",
          "type": "address"
        }
      ],
      "name": "Initialized",
      "type": "event"
    },
    {
      "anonymous": false,
      "inputs": [
        {
          "indexed": true,
          "internalType": "address",
          "name": "previousOwner",
          "type": "address"
        },
        {
          "indexed": true,
          "internalType": "address",
          "name": "newOwner",
          "type": "address"
        }
      ],
      "name": "OwnershipTransferred",
      "type": "event"
    },
    {
      "anonymous": false,
      "inputs": [
        {
          "indexed": true,
          "internalType": "uint256",
          "name": "poolId",
          "type": "uint256"
        },
        {
          "indexed": true,
          "internalType": "address",
          "name": "protocolToken",
          "type": "address"
        }
      ],
      "name": "PoolAdded",
      "type": "event"
    },
    {
      "anonymous": false,
      "inputs": [
        {
          "indexed": true,
          "internalType": "uint256",
          "name": "poolId",
          "type": "uint256"
        },
        {
          "indexed": true,
          "internalType": "address",
          "name": "recipient",
          "type": "address"
        }
      ],
      "name": "PoolFeeRecipientSet",
      "type": "event"
    },
    {
      "inputs": [
        {
          "internalType": "address",
          "name": "protocolTokenToCover",
          "type": "address"
        },
        {
          "components": [
            {
              "internalType": "uint256",
              "name": "base",
              "type": "uint256"
            },
            {
              "internalType": "uint256",
              "name": "slope1",
              "type": "uint256"
            },
            {
              "internalType": "uint256",
              "name": "slope2",
              "type": "uint256"
            },
            {
              "internalType": "uint256",
              "name": "kink",
              "type": "uint256"
            }
          ],
          "internalType": "struct IPoolRegistry.RateModel",
          "name": "rateModel",
          "type": "tuple"
        },
        {
          "internalType": "uint256",
          "name": "claimFeeBps",
          "type": "uint256"
        }
      ],
      "name": "addProtocolRiskPool",
      "outputs": [
        {
          "internalType": "uint256",
          "name": "",
          "type": "uint256"
        }
      ],
      "stateMutability": "nonpayable",
      "type": "function"
    },
    {
      "inputs": [],
      "name": "capitalPool",
      "outputs": [
        {
          "internalType": "address",
          "name": "",
          "type": "address"
        }
      ],
      "stateMutability": "view",
      "type": "function"
    },
    {
      "inputs": [],
      "name": "committee",
      "outputs": [
        {
          "internalType": "address",
          "name": "",
          "type": "address"
        }
      ],
      "stateMutability": "view",
      "type": "function"
    },
    {
      "inputs": [
        {
          "internalType": "address",
          "name": "_registry",
          "type": "address"
        },
        {
          "internalType": "address",
          "name": "_capitalPool",
          "type": "address"
        },
        {
          "internalType": "address",
          "name": "_policyManager",
          "type": "address"
        },
        {
          "internalType": "address",
          "name": "_underwriterManager",
          "type": "address"
        }
      ],
      "name": "initialize",
      "outputs": [],
      "stateMutability": "nonpayable",
      "type": "function"
    },
    {
      "inputs": [],
      "name": "owner",
      "outputs": [
        {
          "internalType": "address",
          "name": "",
          "type": "address"
        }
      ],
      "stateMutability": "view",
      "type": "function"
    },
    {
      "inputs": [],
      "name": "policyManager",
      "outputs": [
        {
          "internalType": "address",
          "name": "",
          "type": "address"
        }
      ],
      "stateMutability": "view",
      "type": "function"
    },
    {
      "inputs": [],
      "name": "poolRegistry",
      "outputs": [
        {
          "internalType": "contract IPoolRegistry",
          "name": "",
          "type": "address"
        }
      ],
      "stateMutability": "view",
      "type": "function"
    },
    {
      "inputs": [],
      "name": "renounceOwnership",
      "outputs": [],
      "stateMutability": "nonpayable",
      "type": "function"
    },
    {
      "inputs": [
        {
          "internalType": "uint256",
          "name": "poolId",
          "type": "uint256"
        },
        {
          "internalType": "bool",
          "name": "pauseState",
          "type": "bool"
        }
      ],
      "name": "reportIncident",
      "outputs": [],
      "stateMutability": "nonpayable",
      "type": "function"
    },
    {
      "inputs": [
        {
          "internalType": "enum ICapitalPoolAdmin.YieldPlatform",
          "name": "platform",
          "type": "uint8"
        },
        {
          "internalType": "address",
          "name": "adapter",
          "type": "address"
        }
      ],
      "name": "setCapitalPoolBaseYieldAdapter",
      "outputs": [],
      "stateMutability": "nonpayable",
      "type": "function"
    },
    {
      "inputs": [
        {
          "internalType": "uint256",
          "name": "newPeriod",
          "type": "uint256"
        }
      ],
      "name": "setCapitalPoolNoticePeriod",
      "outputs": [],
      "stateMutability": "nonpayable",
      "type": "function"
    },
    {
      "inputs": [
        {
          "internalType": "address",
          "name": "_newCommittee",
          "type": "address"
        },
        {
          "internalType": "address",
          "name": "_riskManager",
          "type": "address"
        }
      ],
      "name": "setCommittee",
      "outputs": [],
      "stateMutability": "nonpayable",
      "type": "function"
    },
    {
      "inputs": [
        {
          "internalType": "address",
          "name": "catPoolAddress",
          "type": "address"
        }
      ],
      "name": "setPolicyCatPool",
      "outputs": [],
      "stateMutability": "nonpayable",
      "type": "function"
    },
    {
      "inputs": [
        {
          "internalType": "uint256",
          "name": "newBps",
          "type": "uint256"
        }
      ],
      "name": "setPolicyCatPremiumShare",
      "outputs": [],
      "stateMutability": "nonpayable",
      "type": "function"
    },
    {
      "inputs": [
        {
          "internalType": "uint256",
          "name": "newPeriod",
          "type": "uint256"
        }
      ],
      "name": "setPolicyCoverCooldown",
      "outputs": [],
      "stateMutability": "nonpayable",
      "type": "function"
    },
    {
      "inputs": [
        {
          "internalType": "uint256",
          "name": "poolId",
          "type": "uint256"
        },
        {
          "internalType": "address",
          "name": "recipient",
          "type": "address"
        }
      ],
      "name": "setPoolFeeRecipient",
      "outputs": [],
      "stateMutability": "nonpayable",
      "type": "function"
    },
    {
      "inputs": [
        {
          "internalType": "address",
          "name": "target",
          "type": "address"
        },
        {
          "internalType": "address",
          "name": "newRiskManager",
          "type": "address"
        }
      ],
      "name": "setRiskManager",
      "outputs": [],
      "stateMutability": "nonpayable",
      "type": "function"
    },
    {
      "inputs": [
        {
          "internalType": "uint256",
          "name": "newPeriod",
          "type": "uint256"
        }
      ],
      "name": "setUnderwriterDeallocationNotice",
      "outputs": [],
      "stateMutability": "nonpayable",
      "type": "function"
    },
    {
      "inputs": [
        {
          "internalType": "address",
          "name": "target",
          "type": "address"
        },
        {
          "internalType": "address",
          "name": "newUnderwriterManager",
          "type": "address"
        }
      ],
      "name": "setUnderwriterManager",
      "outputs": [],
      "stateMutability": "nonpayable",
      "type": "function"
    },
    {
      "inputs": [
        {
          "internalType": "uint256",
          "name": "newMax",
          "type": "uint256"
        }
      ],
      "name": "setUnderwriterMaxAllocations",
      "outputs": [],
      "stateMutability": "nonpayable",
      "type": "function"
    },
    {
      "inputs": [
        {
          "internalType": "address",
          "name": "newOwner",
          "type": "address"
        }
      ],
      "name": "transferOwnership",
      "outputs": [],
      "stateMutability": "nonpayable",
      "type": "function"
    },
    {
      "inputs": [],
      "name": "underwriterManager",
      "outputs": [
        {
          "internalType": "address",
          "name": "",
          "type": "address"
        }
      ],
      "stateMutability": "view",
      "type": "function"
    }
  ],
  "bytecode": "0x6080346100bb57601f610fd038819003918201601f19168301916001600160401b038311848410176100c0578084926020946040528339810103126100bb57516001600160a01b0390818116908190036100bb5780156100a257600080546001600160a01b03198116831782556040519316907f8be0079c531659141344cd1fd0a4f28419497f9722a3daafe3b4186f6b6457e09080a3610ef990816100d78239f35b604051631e4fbdf760e01b815260006004820152602490fd5b600080fd5b634e487b7160e01b600052604160045260246000fdfe608060409080825260048036101561001657600080fd5b600091823560e01c9081630342a90714610e04575080630b228e8514610d6857806331e28e5514610c6757806344f6e94014610be657806353aa7c9514610b655780635bfb750814610b3d5780635d5ecc0e14610abb578063715018a614610a54578063762c4b0f14610963578063789404a0146107e1578063833e905f146107345780638da5cb5b1461070e578063a568ef6a14610677578063ab3dbf3b1461064f578063afcff50f14610627578063ca80015114610520578063d23b199a14610493578063d864e7401461046b578063ed0782e9146103cb578063f2fde38b1461031a578063f8c8765e146101c85763fc0af3c81461011657600080fd5b346101c45760203660031901126101c45761012f610e7f565b6001600160a01b03928360015416156101b757829382541691823b156101b257839260248492845195869384927f9a23dfee0000000000000000000000000000000000000000000000000000000084528035908401525af19081156101a957506101965750f35b61019f90610e55565b6101a65780f35b80fd5b513d84823e3d90fd5b505050fd5b516321c4e35760e21b8152fd5b5080fd5b50829034610316576080366003190112610316576101e4610e3f565b906101ed610e29565b92604435916001600160a01b039384841680940361031157606435948086168096036103115761021b610e7f565b600154918183166102e957811696871580156102df575b80156102d7575b80156102cf575b6102c05795809492889694926080987f3514319b7a526ad5f1f42edf0c1df25fa0ea2ae054779987fbe636f164515e2f9a73ffffffffffffffffffffffffffffffffffffffff198094161760015516928382600354161760035585828254161790556005541617600555815194855260208501528301526060820152a180f35b8385516342bcdf7f60e11b8152fd5b508615610240565b508515610239565b5081811615610232565b8385517f0dc149f0000000000000000000000000000000000000000000000000000000008152fd5b600080fd5b8280fd5b5082903461031657602036600319011261031657610336610e3f565b9061033f610e7f565b6001600160a01b0380921692831561039c5750506000548273ffffffffffffffffffffffffffffffffffffffff19821617600055167f8be0079c531659141344cd1fd0a4f28419497f9722a3daafe3b4186f6b6457e0600080a380f35b908460249251917f1e4fbdf7000000000000000000000000000000000000000000000000000000008352820152fd5b50346101c457826003193601126101c4576103e4610e3f565b926103ed610e29565b6103f5610e7f565b6001600160a01b0380600154161561045c5780859616803b1561045857859283602492865197889586947f120bfa4500000000000000000000000000000000000000000000000000000000865216908401525af19081156101a957506101965750f35b8580fd5b5050516321c4e35760e21b8152fd5b8284346101c457816003193601126101c4576020906001600160a01b03600254169051908152f35b50346101c457826003193601126101c4576104ac610e3f565b926104b5610e29565b6104bd610e7f565b6001600160a01b0380600154161561045c5780859616803b1561045857859283602492865197889586947f1881401300000000000000000000000000000000000000000000000000000000865216908401525af19081156101a957506101965750f35b5082903461031657816003193601126103165761053b610e3f565b91610544610e29565b9261054d610e7f565b6001600160a01b039081600154161561045c5781169384156106185790859392918573ffffffffffffffffffffffffffffffffffffffff1960025416176002551691823b1561061457846024859283855196879485937fbddae40e0000000000000000000000000000000000000000000000000000000085528401525af19081156101a95750610600575b50807f66fc13429d88ce88ca5934124e753e47ea4b02d41cc1d9d2010eb5504d1ec32791a280f35b61060990610e55565b6101c45781836105d8565b8380fd5b5050516342bcdf7f60e11b8152fd5b8284346101c457816003193601126101c4576020906001600160a01b03600154169051908152f35b509190346101a657806003193601126101a657506001600160a01b0360209254169051908152f35b50346101c45760203660031901126101c457610691610e3f565b9261069a610e7f565b6001600160a01b039384600154161561070057848495845416803b1561045857859283602492865197889586947ff8fee53000000000000000000000000000000000000000000000000000000000865216908401525af19081156101a957506101965750f35b50516321c4e35760e21b8152fd5b8284346101c457816003193601126101c4576001600160a01b0360209254169051908152f35b5091346101c457806003193601126101c4578235908382101561031657610759610e29565b91610762610e7f565b6001600160a01b03908160015416156107d2578495826003541690813b156107ce57866044928195875198899687957f0bdf3c7f0000000000000000000000000000000000000000000000000000000087528601521660248401525af19081156101a957506101965750f35b8680fd5b8583516321c4e35760e21b8152fd5b50346101c45760c03660031901126101c4576107fb610e3f565b60803660231901126103165761080f610e7f565b6001600160a01b03806001541691821561095457849160c4602092885194859384927f789404a000000000000000000000000000000000000000000000000000000000845216968789840152602435602484015260443560448401526064356064840152608435608484015260a43560a48401525af192831561094a5784936108c2575b5050817f1f1f6396247a5ba59b7b1e094ec3a8e439d4dace0c5ac4fe3ecfde3e68e03a8a602095519480a38152f35b9091939492506020903d602011610942575b601f8201601f191683019067ffffffffffffffff82118483101761092d575060209183918552810103126106145751909291837f1f1f6396247a5ba59b7b1e094ec3a8e439d4dace0c5ac4fe3ecfde3e68e03a8a610893565b604190634e487b7160e01b6000525260246000fd5b3d91506108d4565b85513d86823e3d90fd5b8386516321c4e35760e21b8152fd5b508234610316578060031936011261031657813590610980610e29565b906001600160a01b0380600154169283156107d25781600254163303610a455716938415610a375790829186933b1561061457846044859283855196879485937f7b8827320000000000000000000000000000000000000000000000000000000085528401528a60248401525af19081156101a95750610a23575b50807f237701dd376851727124708d9d64dcf722d749419cac0ffc01e6a2ac12de62d291a380f35b610a2c90610e55565b6103165782846109fb565b90516342bcdf7f60e11b8152fd5b8583516373d664e160e11b8152fd5b82346101a657806003193601126101a657610a6d610e7f565b60006001600160a01b03815473ffffffffffffffffffffffffffffffffffffffff1981168355167f8be0079c531659141344cd1fd0a4f28419497f9722a3daafe3b4186f6b6457e08280a380f35b50346101c45760203660031901126101c457610ad5610e7f565b6001600160a01b03928360015416156101b75782936003541691823b156101b257839260248492845195869384927f58b12bc30000000000000000000000000000000000000000000000000000000084528035908401525af19081156101a957506101965750f35b8284346101c457816003193601126101c4576020906001600160a01b03600354169051908152f35b50346101c45760203660031901126101c457610b7f610e7f565b6001600160a01b03928360015416156101b75782936005541691823b156101b257839260248492845195869384927e73ba5d0000000000000000000000000000000000000000000000000000000084528035908401525af19081156101a957506101965750f35b50346101c45760203660031901126101c457610c00610e7f565b6001600160a01b03928360015416156101b757829382541691823b156101b257839260248492845195869384927ff290cc8d0000000000000000000000000000000000000000000000000000000084528035908401525af19081156101a957506101965750f35b5082903461031657816003193601126103165780359160243591821515809303610d64576001600160a01b03908160015416918215610d5557600254163303610d4757908591813b1561031657856044849283875195869485937fb56a532c0000000000000000000000000000000000000000000000000000000085528401528960248401525af18015610d3d57610d29575b50507f888cf2c9e1f2e131054940f027c015bd27e6f4a1b2acdfe0b4d28cfb7b9fbb949160209151908152a280f35b610d3290610e55565b610614578385610cfa565b83513d84823e3d90fd5b82516373d664e160e11b8152fd5b5082516321c4e35760e21b8152fd5b8480fd5b5091346101c45760203660031901126101c457610d83610e7f565b6001600160a01b03806001541615610df55792829360055416803b156101b25760248492845195869384927fa923099a0000000000000000000000000000000000000000000000000000000084528035908401525af19081156101a95750610de9575080f35b610df290610e55565b80f35b8382516321c4e35760e21b8152fd5b8390346101c457816003193601126101c4576020906001600160a01b03600554168152f35b602435906001600160a01b038216820361031157565b600435906001600160a01b038216820361031157565b67ffffffffffffffff8111610e6957604052565b634e487b7160e01b600052604160045260246000fd5b6001600160a01b03600054163303610e9357565b60246040517f118cdaa7000000000000000000000000000000000000000000000000000000008152336004820152fdfea264697066735822122049b5969f735d2d0f35cd8af69d6cd1b08a7122de1b38ab6500961b7cb1aca29e64736f6c63430008160033",
  "linkReferences": {},
  "deployedLinkReferences": {}
}