{
  "_format": "hh-sol-artifact-1",
  "contractName": "RiskAdmin",
  "sourceName": "contracts/core/ProtocolConfigurator.sol",
  "abi": [
    {
      "inputs": [
        {
          "internalType": "address",
          "name": "_initialOwner",
          "type": "address"
        }
      ],
      "stateMutability": "nonpayable",
      "type": "constructor"
    },
    {
      "inputs": [],
      "name": "AlreadyInitialized",
      "type": "error"
    },
    {
      "inputs": [],
      "name": "NotCommittee",
      "type": "error"
    },
    {
      "inputs": [],
      "name": "NotInitialized",
      "type": "error"
    },
    {
      "inputs": [
        {
          "internalType": "address",
          "name": "owner",
          "type": "address"
        }
      ],
      "name": "OwnableInvalidOwner",
      "type": "error"
    },
    {
      "inputs": [
        {
          "internalType": "address",
          "name": "account",
          "type": "address"
        }
      ],
      "name": "OwnableUnauthorizedAccount",
      "type": "error"
    },
    {
      "inputs": [],
      "name": "ZeroAddressNotAllowed",
      "type": "error"
    },
    {
      "anonymous": false,
      "inputs": [
        {
          "indexed": true,
          "internalType": "address",
          "name": "newCommittee",
          "type": "address"
        }
      ],
      "name": "CommitteeSet",
      "type": "event"
    },
    {
      "anonymous": false,
      "inputs": [
        {
          "indexed": true,
          "internalType": "uint256",
          "name": "poolId",
          "type": "uint256"
        },
        {
          "indexed": false,
          "internalType": "bool",
          "name": "isPaused",
          "type": "bool"
        }
      ],
      "name": "IncidentReported",
      "type": "event"
    },
    {
      "anonymous": false,
      "inputs": [
        {
          "indexed": false,
          "internalType": "address",
          "name": "registry",
          "type": "address"
        },
        {
          "indexed": false,
          "internalType": "address",
          "name": "capitalPool",
          "type": "address"
        },
        {
          "indexed": false,
          "internalType": "address",
          "name": "policyManager",
          "type": "address"
        },
        {
          "indexed": false,
          "internalType": "address",
          "name": "underwriterManager",
          "type": "address"
        }
      ],
      "name": "Initialized",
      "type": "event"
    },
    {
      "anonymous": false,
      "inputs": [
        {
          "indexed": true,
          "internalType": "address",
          "name": "previousOwner",
          "type": "address"
        },
        {
          "indexed": true,
          "internalType": "address",
          "name": "newOwner",
          "type": "address"
        }
      ],
      "name": "OwnershipTransferred",
      "type": "event"
    },
    {
      "anonymous": false,
      "inputs": [
        {
          "indexed": true,
          "internalType": "uint256",
          "name": "poolId",
          "type": "uint256"
        },
        {
          "indexed": true,
          "internalType": "address",
          "name": "protocolToken",
          "type": "address"
        }
      ],
      "name": "PoolAdded",
      "type": "event"
    },
    {
      "anonymous": false,
      "inputs": [
        {
          "indexed": true,
          "internalType": "uint256",
          "name": "poolId",
          "type": "uint256"
        },
        {
          "indexed": true,
          "internalType": "address",
          "name": "recipient",
          "type": "address"
        }
      ],
      "name": "PoolFeeRecipientSet",
      "type": "event"
    },
    {
      "inputs": [
        {
          "internalType": "address",
          "name": "protocolTokenToCover",
          "type": "address"
        },
        {
          "components": [
            {
              "internalType": "uint256",
              "name": "base",
              "type": "uint256"
            },
            {
              "internalType": "uint256",
              "name": "slope1",
              "type": "uint256"
            },
            {
              "internalType": "uint256",
              "name": "slope2",
              "type": "uint256"
            },
            {
              "internalType": "uint256",
              "name": "kink",
              "type": "uint256"
            }
          ],
          "internalType": "struct IPoolRegistry.RateModel",
          "name": "rateModel",
          "type": "tuple"
        },
        {
          "internalType": "uint256",
          "name": "claimFeeBps",
          "type": "uint256"
        }
      ],
      "name": "addProtocolRiskPool",
      "outputs": [
        {
          "internalType": "uint256",
          "name": "",
          "type": "uint256"
        }
      ],
      "stateMutability": "nonpayable",
      "type": "function"
    },
    {
      "inputs": [],
      "name": "capitalPool",
      "outputs": [
        {
          "internalType": "address",
          "name": "",
          "type": "address"
        }
      ],
      "stateMutability": "view",
      "type": "function"
    },
    {
      "inputs": [],
      "name": "committee",
      "outputs": [
        {
          "internalType": "address",
          "name": "",
          "type": "address"
        }
      ],
      "stateMutability": "view",
      "type": "function"
    },
    {
      "inputs": [
        {
          "internalType": "address",
          "name": "_registry",
          "type": "address"
        },
        {
          "internalType": "address",
          "name": "_capitalPool",
          "type": "address"
        },
        {
          "internalType": "address",
          "name": "_policyManager",
          "type": "address"
        },
        {
          "internalType": "address",
          "name": "_underwriterManager",
          "type": "address"
        }
      ],
      "name": "initialize",
      "outputs": [],
      "stateMutability": "nonpayable",
      "type": "function"
    },
    {
      "inputs": [],
      "name": "owner",
      "outputs": [
        {
          "internalType": "address",
          "name": "",
          "type": "address"
        }
      ],
      "stateMutability": "view",
      "type": "function"
    },
    {
      "inputs": [],
      "name": "policyManager",
      "outputs": [
        {
          "internalType": "address",
          "name": "",
          "type": "address"
        }
      ],
      "stateMutability": "view",
      "type": "function"
    },
    {
      "inputs": [],
      "name": "poolRegistry",
      "outputs": [
        {
          "internalType": "contract IPoolRegistry",
          "name": "",
          "type": "address"
        }
      ],
      "stateMutability": "view",
      "type": "function"
    },
    {
      "inputs": [],
      "name": "renounceOwnership",
      "outputs": [],
      "stateMutability": "nonpayable",
      "type": "function"
    },
    {
      "inputs": [
        {
          "internalType": "uint256",
          "name": "poolId",
          "type": "uint256"
        },
        {
          "internalType": "bool",
          "name": "pauseState",
          "type": "bool"
        }
      ],
      "name": "reportIncident",
      "outputs": [],
      "stateMutability": "nonpayable",
      "type": "function"
    },
    {
      "inputs": [
        {
          "internalType": "enum ICapitalPoolAdmin.YieldPlatform",
          "name": "platform",
          "type": "uint8"
        },
        {
          "internalType": "address",
          "name": "adapter",
          "type": "address"
        }
      ],
      "name": "setCapitalPoolBaseYieldAdapter",
      "outputs": [],
      "stateMutability": "nonpayable",
      "type": "function"
    },
    {
      "inputs": [
        {
          "internalType": "uint256",
          "name": "newPeriod",
          "type": "uint256"
        }
      ],
      "name": "setCapitalPoolNoticePeriod",
      "outputs": [],
      "stateMutability": "nonpayable",
      "type": "function"
    },
    {
      "inputs": [
        {
          "internalType": "address",
          "name": "_newCommittee",
          "type": "address"
        },
        {
          "internalType": "address",
          "name": "_riskManager",
          "type": "address"
        }
      ],
      "name": "setCommittee",
      "outputs": [],
      "stateMutability": "nonpayable",
      "type": "function"
    },
    {
      "inputs": [
        {
          "internalType": "address",
          "name": "target",
          "type": "address"
        },
        {
          "internalType": "address",
          "name": "newLossDistributor",
          "type": "address"
        }
      ],
      "name": "setLossDistributor",
      "outputs": [],
      "stateMutability": "nonpayable",
      "type": "function"
    },
    {
      "inputs": [
        {
          "internalType": "address",
          "name": "catPoolAddress",
          "type": "address"
        }
      ],
      "name": "setPolicyCatPool",
      "outputs": [],
      "stateMutability": "nonpayable",
      "type": "function"
    },
    {
      "inputs": [
        {
          "internalType": "uint256",
          "name": "newBps",
          "type": "uint256"
        }
      ],
      "name": "setPolicyCatPremiumShare",
      "outputs": [],
      "stateMutability": "nonpayable",
      "type": "function"
    },
    {
      "inputs": [
        {
          "internalType": "uint256",
          "name": "newPeriod",
          "type": "uint256"
        }
      ],
      "name": "setPolicyCoverCooldown",
      "outputs": [],
      "stateMutability": "nonpayable",
      "type": "function"
    },
    {
      "inputs": [
        {
          "internalType": "uint256",
          "name": "poolId",
          "type": "uint256"
        },
        {
          "internalType": "address",
          "name": "recipient",
          "type": "address"
        }
      ],
      "name": "setPoolFeeRecipient",
      "outputs": [],
      "stateMutability": "nonpayable",
      "type": "function"
    },
    {
      "inputs": [
        {
          "internalType": "address",
          "name": "target",
          "type": "address"
        },
        {
          "internalType": "address",
          "name": "newRewardDistributor",
          "type": "address"
        }
      ],
      "name": "setRewardDistributor",
      "outputs": [],
      "stateMutability": "nonpayable",
      "type": "function"
    },
    {
      "inputs": [
        {
          "internalType": "address",
          "name": "target",
          "type": "address"
        },
        {
          "internalType": "address",
          "name": "newRiskManager",
          "type": "address"
        }
      ],
      "name": "setRiskManager",
      "outputs": [],
      "stateMutability": "nonpayable",
      "type": "function"
    },
    {
      "inputs": [
        {
          "internalType": "uint256",
          "name": "newPeriod",
          "type": "uint256"
        }
      ],
      "name": "setUnderwriterDeallocationNotice",
      "outputs": [],
      "stateMutability": "nonpayable",
      "type": "function"
    },
    {
      "inputs": [
        {
          "internalType": "address",
          "name": "target",
          "type": "address"
        },
        {
          "internalType": "address",
          "name": "newUnderwriterManager",
          "type": "address"
        }
      ],
      "name": "setUnderwriterManager",
      "outputs": [],
      "stateMutability": "nonpayable",
      "type": "function"
    },
    {
      "inputs": [
        {
          "internalType": "uint256",
          "name": "newMax",
          "type": "uint256"
        }
      ],
      "name": "setUnderwriterMaxAllocations",
      "outputs": [],
      "stateMutability": "nonpayable",
      "type": "function"
    },
    {
      "inputs": [
        {
          "internalType": "address",
          "name": "newOwner",
          "type": "address"
        }
      ],
      "name": "transferOwnership",
      "outputs": [],
      "stateMutability": "nonpayable",
      "type": "function"
    },
    {
      "inputs": [],
      "name": "underwriterManager",
      "outputs": [
        {
          "internalType": "address",
          "name": "",
          "type": "address"
        }
      ],
      "stateMutability": "view",
      "type": "function"
    }
  ],
  "bytecode": "0x6080346100bb57601f61110038819003918201601f19168301916001600160401b038311848410176100c0578084926020946040528339810103126100bb57516001600160a01b0390818116908190036100bb5780156100a257600080546001600160a01b03198116831782556040519316907f8be0079c531659141344cd1fd0a4f28419497f9722a3daafe3b4186f6b6457e09080a361102990816100d78239f35b604051631e4fbdf760e01b815260006004820152602490fd5b600080fd5b634e487b7160e01b600052604160045260246000fdfe608060409080825260048036101561001657600080fd5b600091823560e01c9081630342a90714610f34575080630b228e8514610e9857806331e28e5514610d9757806344f6e94014610d1657806353aa7c9514610c9557806353cc9e5414610c085780635bfb750814610be05780635d5ecc0e14610b5e578063715018a614610af7578063762c4b0f14610a06578063789404a014610884578063833e905f146107d75780638da5cb5b146107b1578063a568ef6a1461071a578063ab3dbf3b146106f2578063afcff50f146106ca578063c6f22b191461063d578063ca80015114610536578063d23b199a146104a9578063d864e74014610481578063ed0782e9146103e1578063f2fde38b14610330578063f8c8765e146101de5763fc0af3c81461012c57600080fd5b346101da5760203660031901126101da57610145610faf565b6001600160a01b03928360015416156101cd57829382541691823b156101c857839260248492845195869384927f9a23dfee0000000000000000000000000000000000000000000000000000000084528035908401525af19081156101bf57506101ac5750f35b6101b590610f85565b6101bc5780f35b80fd5b513d84823e3d90fd5b505050fd5b516321c4e35760e21b8152fd5b5080fd5b5082903461032c57608036600319011261032c576101fa610f59565b90610203610f6f565b92604435916001600160a01b0393848416809403610327576064359480861680960361032757610231610faf565b600154918183166102ff57811696871580156102f5575b80156102ed575b80156102e5575b6102d65795809492889694926080987f3514319b7a526ad5f1f42edf0c1df25fa0ea2ae054779987fbe636f164515e2f9a73ffffffffffffffffffffffffffffffffffffffff198094161760015516928382600354161760035585828254161790556005541617600555815194855260208501528301526060820152a180f35b8385516342bcdf7f60e11b8152fd5b508615610256565b50851561024f565b5081811615610248565b8385517f0dc149f0000000000000000000000000000000000000000000000000000000008152fd5b600080fd5b8280fd5b5082903461032c57602036600319011261032c5761034c610f59565b90610355610faf565b6001600160a01b038092169283156103b25750506000548273ffffffffffffffffffffffffffffffffffffffff19821617600055167f8be0079c531659141344cd1fd0a4f28419497f9722a3daafe3b4186f6b6457e0600080a380f35b908460249251917f1e4fbdf7000000000000000000000000000000000000000000000000000000008352820152fd5b50346101da57826003193601126101da576103fa610f59565b92610403610f6f565b61040b610faf565b6001600160a01b038060015416156104725780859616803b1561046e57859283602492865197889586947f5ccea26b00000000000000000000000000000000000000000000000000000000865216908401525af19081156101bf57506101ac5750f35b8580fd5b5050516321c4e35760e21b8152fd5b8284346101da57816003193601126101da576020906001600160a01b03600254169051908152f35b50346101da57826003193601126101da576104c2610f59565b926104cb610f6f565b6104d3610faf565b6001600160a01b038060015416156104725780859616803b1561046e57859283602492865197889586947f62ca846000000000000000000000000000000000000000000000000000000000865216908401525af19081156101bf57506101ac5750f35b5082903461032c578160031936011261032c57610551610f59565b9161055a610f6f565b92610563610faf565b6001600160a01b039081600154161561047257811693841561062e5790859392918573ffffffffffffffffffffffffffffffffffffffff1960025416176002551691823b1561062a57846024859283855196879485937fbddae40e0000000000000000000000000000000000000000000000000000000085528401525af19081156101bf5750610616575b50807f66fc13429d88ce88ca5934124e753e47ea4b02d41cc1d9d2010eb5504d1ec32791a280f35b61061f90610f85565b6101da5781836105ee565b8380fd5b5050516342bcdf7f60e11b8152fd5b50346101da57826003193601126101da57610656610f59565b9261065f610f6f565b610667610faf565b6001600160a01b038060015416156104725780859616803b1561046e57859283602492865197889586947f4537e21500000000000000000000000000000000000000000000000000000000865216908401525af19081156101bf57506101ac5750f35b8284346101da57816003193601126101da576020906001600160a01b03600154169051908152f35b509190346101bc57806003193601126101bc57506001600160a01b0360209254169051908152f35b50346101da5760203660031901126101da57610734610f59565b9261073d610faf565b6001600160a01b03938460015416156107a357848495845416803b1561046e57859283602492865197889586947ff8fee53000000000000000000000000000000000000000000000000000000000865216908401525af19081156101bf57506101ac5750f35b50516321c4e35760e21b8152fd5b8284346101da57816003193601126101da576001600160a01b0360209254169051908152f35b5091346101da57806003193601126101da578235908382101561032c576107fc610f6f565b91610805610faf565b6001600160a01b0390816001541615610875578495826003541690813b1561087157866044928195875198899687957f0bdf3c7f0000000000000000000000000000000000000000000000000000000087528601521660248401525af19081156101bf57506101ac5750f35b8680fd5b8583516321c4e35760e21b8152fd5b50346101da5760c03660031901126101da5761089e610f59565b608036602319011261032c576108b2610faf565b6001600160a01b0380600154169182156109f757849160c4602092885194859384927f789404a000000000000000000000000000000000000000000000000000000000845216968789840152602435602484015260443560448401526064356064840152608435608484015260a43560a48401525af19283156109ed578493610965575b5050817f1f1f6396247a5ba59b7b1e094ec3a8e439d4dace0c5ac4fe3ecfde3e68e03a8a602095519480a38152f35b9091939492506020903d6020116109e5575b601f8201601f191683019067ffffffffffffffff8211848310176109d05750602091839185528101031261062a5751909291837f1f1f6396247a5ba59b7b1e094ec3a8e439d4dace0c5ac4fe3ecfde3e68e03a8a610936565b604190634e487b7160e01b6000525260246000fd5b3d9150610977565b85513d86823e3d90fd5b8386516321c4e35760e21b8152fd5b50823461032c578060031936011261032c57813590610a23610f6f565b906001600160a01b0380600154169283156108755781600254163303610ae85716938415610ada5790829186933b1561062a57846044859283855196879485937f7b8827320000000000000000000000000000000000000000000000000000000085528401528a60248401525af19081156101bf5750610ac6575b50807f237701dd376851727124708d9d64dcf722d749419cac0ffc01e6a2ac12de62d291a380f35b610acf90610f85565b61032c578284610a9e565b90516342bcdf7f60e11b8152fd5b8583516373d664e160e11b8152fd5b82346101bc57806003193601126101bc57610b10610faf565b60006001600160a01b03815473ffffffffffffffffffffffffffffffffffffffff1981168355167f8be0079c531659141344cd1fd0a4f28419497f9722a3daafe3b4186f6b6457e08280a380f35b50346101da5760203660031901126101da57610b78610faf565b6001600160a01b03928360015416156101cd5782936003541691823b156101c857839260248492845195869384927f58b12bc30000000000000000000000000000000000000000000000000000000084528035908401525af19081156101bf57506101ac5750f35b8284346101da57816003193601126101da576020906001600160a01b03600354169051908152f35b50346101da57826003193601126101da57610c21610f59565b92610c2a610f6f565b610c32610faf565b6001600160a01b038060015416156104725780859616803b1561046e57859283602492865197889586947fa1809b9500000000000000000000000000000000000000000000000000000000865216908401525af19081156101bf57506101ac5750f35b50346101da5760203660031901126101da57610caf610faf565b6001600160a01b03928360015416156101cd5782936005541691823b156101c857839260248492845195869384927e73ba5d0000000000000000000000000000000000000000000000000000000084528035908401525af19081156101bf57506101ac5750f35b50346101da5760203660031901126101da57610d30610faf565b6001600160a01b03928360015416156101cd57829382541691823b156101c857839260248492845195869384927ff290cc8d0000000000000000000000000000000000000000000000000000000084528035908401525af19081156101bf57506101ac5750f35b5082903461032c578160031936011261032c5780359160243591821515809303610e94576001600160a01b03908160015416918215610e8557600254163303610e7757908591813b1561032c57856044849283875195869485937fb56a532c0000000000000000000000000000000000000000000000000000000085528401528960248401525af18015610e6d57610e59575b50507f888cf2c9e1f2e131054940f027c015bd27e6f4a1b2acdfe0b4d28cfb7b9fbb949160209151908152a280f35b610e6290610f85565b61062a578385610e2a565b83513d84823e3d90fd5b82516373d664e160e11b8152fd5b5082516321c4e35760e21b8152fd5b8480fd5b5091346101da5760203660031901126101da57610eb3610faf565b6001600160a01b03806001541615610f255792829360055416803b156101c85760248492845195869384927fa923099a0000000000000000000000000000000000000000000000000000000084528035908401525af19081156101bf5750610f19575080f35b610f2290610f85565b80f35b8382516321c4e35760e21b8152fd5b8390346101da57816003193601126101da576020906001600160a01b03600554168152f35b600435906001600160a01b038216820361032757565b602435906001600160a01b038216820361032757565b67ffffffffffffffff8111610f9957604052565b634e487b7160e01b600052604160045260246000fd5b6001600160a01b03600054163303610fc357565b60246040517f118cdaa7000000000000000000000000000000000000000000000000000000008152336004820152fdfea2646970667358221220381ae3733ad2a9725192df4a1814f9009c324376cab934c05ac446ca90ac8a4c64736f6c63430008160033",
  "linkReferences": {},
  "deployedLinkReferences": {}
}