{
  "_format": "hh-sol-artifact-1",
  "contractName": "RewardDistributor",
  "sourceName": "contracts/utils/RewardDistributor.sol",
  "abi": [
    {
      "inputs": [
        {
          "internalType": "address",
          "name": "_poolRegistry",
          "type": "address"
        },
        {
          "internalType": "address",
          "name": "_policyManager",
          "type": "address"
        },
        {
          "internalType": "address",
          "name": "_capitalPool",
          "type": "address"
        },
        {
          "internalType": "address",
          "name": "_underwriterManager",
          "type": "address"
        },
        {
          "internalType": "address",
          "name": "_riskManager",
          "type": "address"
        }
      ],
      "stateMutability": "nonpayable",
      "type": "constructor"
    },
    {
      "inputs": [
        {
          "internalType": "address",
          "name": "owner",
          "type": "address"
        }
      ],
      "name": "OwnableInvalidOwner",
      "type": "error"
    },
    {
      "inputs": [
        {
          "internalType": "address",
          "name": "account",
          "type": "address"
        }
      ],
      "name": "OwnableUnauthorizedAccount",
      "type": "error"
    },
    {
      "inputs": [],
      "name": "ReentrancyGuardReentrantCall",
      "type": "error"
    },
    {
      "inputs": [
        {
          "internalType": "address",
          "name": "token",
          "type": "address"
        }
      ],
      "name": "SafeERC20FailedOperation",
      "type": "error"
    },
    {
      "inputs": [],
      "name": "ZeroAddress",
      "type": "error"
    },
    {
      "anonymous": false,
      "inputs": [
        {
          "indexed": true,
          "internalType": "address",
          "name": "newCapitalPool",
          "type": "address"
        }
      ],
      "name": "CapitalPoolSet",
      "type": "event"
    },
    {
      "anonymous": false,
      "inputs": [
        {
          "indexed": true,
          "internalType": "address",
          "name": "newCatPool",
          "type": "address"
        }
      ],
      "name": "CatPoolSet",
      "type": "event"
    },
    {
      "anonymous": false,
      "inputs": [
        {
          "indexed": true,
          "internalType": "address",
          "name": "previousOwner",
          "type": "address"
        },
        {
          "indexed": true,
          "internalType": "address",
          "name": "newOwner",
          "type": "address"
        }
      ],
      "name": "OwnershipTransferred",
      "type": "event"
    },
    {
      "anonymous": false,
      "inputs": [
        {
          "indexed": true,
          "internalType": "address",
          "name": "newPolicyManager",
          "type": "address"
        }
      ],
      "name": "PolicyManagerSet",
      "type": "event"
    },
    {
      "anonymous": false,
      "inputs": [
        {
          "indexed": true,
          "internalType": "address",
          "name": "newPoolRegistry",
          "type": "address"
        }
      ],
      "name": "PoolRegistrySet",
      "type": "event"
    },
    {
      "anonymous": false,
      "inputs": [
        {
          "indexed": true,
          "internalType": "address",
          "name": "newCatPool",
          "type": "address"
        }
      ],
      "name": "RiskManagerSet",
      "type": "event"
    },
    {
      "anonymous": false,
      "inputs": [
        {
          "indexed": true,
          "internalType": "address",
          "name": "newUnderwriterManager",
          "type": "address"
        }
      ],
      "name": "UnderwriterManagerSet",
      "type": "event"
    },
    {
      "inputs": [],
      "name": "PRECISION_FACTOR",
      "outputs": [
        {
          "internalType": "uint256",
          "name": "",
          "type": "uint256"
        }
      ],
      "stateMutability": "view",
      "type": "function"
    },
    {
      "inputs": [],
      "name": "capitalPool",
      "outputs": [
        {
          "internalType": "address",
          "name": "",
          "type": "address"
        }
      ],
      "stateMutability": "view",
      "type": "function"
    },
    {
      "inputs": [],
      "name": "catPool",
      "outputs": [
        {
          "internalType": "address",
          "name": "",
          "type": "address"
        }
      ],
      "stateMutability": "view",
      "type": "function"
    },
    {
      "inputs": [
        {
          "internalType": "address",
          "name": "user",
          "type": "address"
        },
        {
          "internalType": "uint256",
          "name": "poolId",
          "type": "uint256"
        },
        {
          "internalType": "address",
          "name": "rewardToken",
          "type": "address"
        },
        {
          "internalType": "uint256",
          "name": "userPledge",
          "type": "uint256"
        }
      ],
      "name": "claim",
      "outputs": [
        {
          "internalType": "uint256",
          "name": "",
          "type": "uint256"
        }
      ],
      "stateMutability": "nonpayable",
      "type": "function"
    },
    {
      "inputs": [
        {
          "internalType": "address",
          "name": "user",
          "type": "address"
        },
        {
          "internalType": "uint256",
          "name": "poolId",
          "type": "uint256"
        },
        {
          "internalType": "address",
          "name": "rewardToken",
          "type": "address"
        },
        {
          "internalType": "uint256",
          "name": "userPledge",
          "type": "uint256"
        }
      ],
      "name": "claimForCatPool",
      "outputs": [
        {
          "internalType": "uint256",
          "name": "",
          "type": "uint256"
        }
      ],
      "stateMutability": "nonpayable",
      "type": "function"
    },
    {
      "inputs": [
        {
          "internalType": "uint256",
          "name": "poolId",
          "type": "uint256"
        },
        {
          "internalType": "address",
          "name": "rewardToken",
          "type": "address"
        },
        {
          "internalType": "uint256",
          "name": "rewardAmount",
          "type": "uint256"
        },
        {
          "internalType": "uint256",
          "name": "totalPledgeInPool",
          "type": "uint256"
        }
      ],
      "name": "distribute",
      "outputs": [],
      "stateMutability": "nonpayable",
      "type": "function"
    },
    {
      "inputs": [],
      "name": "owner",
      "outputs": [
        {
          "internalType": "address",
          "name": "",
          "type": "address"
        }
      ],
      "stateMutability": "view",
      "type": "function"
    },
    {
      "inputs": [
        {
          "internalType": "address",
          "name": "user",
          "type": "address"
        },
        {
          "internalType": "uint256",
          "name": "poolId",
          "type": "uint256"
        },
        {
          "internalType": "address",
          "name": "rewardToken",
          "type": "address"
        },
        {
          "internalType": "uint256",
          "name": "userPledge",
          "type": "uint256"
        }
      ],
      "name": "pendingRewards",
      "outputs": [
        {
          "internalType": "uint256",
          "name": "",
          "type": "uint256"
        }
      ],
      "stateMutability": "view",
      "type": "function"
    },
    {
      "inputs": [],
      "name": "policyManager",
      "outputs": [
        {
          "internalType": "address",
          "name": "",
          "type": "address"
        }
      ],
      "stateMutability": "view",
      "type": "function"
    },
    {
      "inputs": [],
      "name": "poolRegistry",
      "outputs": [
        {
          "internalType": "contract IPoolRegistry",
          "name": "",
          "type": "address"
        }
      ],
      "stateMutability": "view",
      "type": "function"
    },
    {
      "inputs": [
        {
          "internalType": "uint256",
          "name": "",
          "type": "uint256"
        },
        {
          "internalType": "address",
          "name": "",
          "type": "address"
        }
      ],
      "name": "poolRewardTrackers",
      "outputs": [
        {
          "internalType": "uint256",
          "name": "accumulatedRewardsPerShare",
          "type": "uint256"
        }
      ],
      "stateMutability": "view",
      "type": "function"
    },
    {
      "inputs": [],
      "name": "renounceOwnership",
      "outputs": [],
      "stateMutability": "nonpayable",
      "type": "function"
    },
    {
      "inputs": [],
      "name": "riskManager",
      "outputs": [
        {
          "internalType": "address",
          "name": "",
          "type": "address"
        }
      ],
      "stateMutability": "view",
      "type": "function"
    },
    {
      "inputs": [
        {
          "internalType": "address",
          "name": "newCapitalPool",
          "type": "address"
        }
      ],
      "name": "setCapitalPool",
      "outputs": [],
      "stateMutability": "nonpayable",
      "type": "function"
    },
    {
      "inputs": [
        {
          "internalType": "address",
          "name": "newCatPool",
          "type": "address"
        }
      ],
      "name": "setCatPool",
      "outputs": [],
      "stateMutability": "nonpayable",
      "type": "function"
    },
    {
      "inputs": [
        {
          "internalType": "address",
          "name": "newPolicyManager",
          "type": "address"
        }
      ],
      "name": "setPolicyManager",
      "outputs": [],
      "stateMutability": "nonpayable",
      "type": "function"
    },
    {
      "inputs": [
        {
          "internalType": "address",
          "name": "newPoolRegistry",
          "type": "address"
        }
      ],
      "name": "setPoolRegistry",
      "outputs": [],
      "stateMutability": "nonpayable",
      "type": "function"
    },
    {
      "inputs": [
        {
          "internalType": "address",
          "name": "newRiskManager",
          "type": "address"
        }
      ],
      "name": "setRiskManager",
      "outputs": [],
      "stateMutability": "nonpayable",
      "type": "function"
    },
    {
      "inputs": [
        {
          "internalType": "address",
          "name": "newUnderwriterManager",
          "type": "address"
        }
      ],
      "name": "setUnderwriterManager",
      "outputs": [],
      "stateMutability": "nonpayable",
      "type": "function"
    },
    {
      "inputs": [
        {
          "internalType": "address",
          "name": "newOwner",
          "type": "address"
        }
      ],
      "name": "transferOwnership",
      "outputs": [],
      "stateMutability": "nonpayable",
      "type": "function"
    },
    {
      "inputs": [],
      "name": "underwriterManager",
      "outputs": [
        {
          "internalType": "address",
          "name": "",
          "type": "address"
        }
      ],
      "stateMutability": "view",
      "type": "function"
    },
    {
      "inputs": [
        {
          "internalType": "address",
          "name": "user",
          "type": "address"
        },
        {
          "internalType": "uint256",
          "name": "poolId",
          "type": "uint256"
        },
        {
          "internalType": "address",
          "name": "rewardToken",
          "type": "address"
        },
        {
          "internalType": "uint256",
          "name": "newUserPledge",
          "type": "uint256"
        }
      ],
      "name": "updateUserState",
      "outputs": [],
      "stateMutability": "nonpayable",
      "type": "function"
    },
    {
      "inputs": [
        {
          "internalType": "address",
          "name": "",
          "type": "address"
        },
        {
          "internalType": "uint256",
          "name": "",
          "type": "uint256"
        },
        {
          "internalType": "address",
          "name": "",
          "type": "address"
        }
      ],
      "name": "userRewardStates",
      "outputs": [
        {
          "internalType": "uint256",
          "name": "rewardDebt",
          "type": "uint256"
        }
      ],
      "stateMutability": "view",
      "type": "function"
    }
  ],
  "bytecode": "0x6080346200019357601f6200117938819003918201601f19168301916001600160401b03831184841017620001985780849260a09460405283398101031262000193576200004d81620001ae565b906200005c60208201620001ae565b906200006b60408201620001ae565b906200008860806200008060608401620001ae565b9201620001ae565b9133156200017a576000549360018060a01b03948560018060a01b031997338984161760005560405192823391167f8be0079c531659141344cd1fd0a4f28419497f9722a3daafe3b4186f6b6457e0600080a3600180551690811580156200016f575b801562000164575b801562000159575b6200014a5750918580949392819389600254161760025516876003541617600355168560045416176004551683600554161760055516906007541617600755604051610fb59081620001c48239f35b63d92e233d60e01b8152600490fd5b5086851615620000fb565b5086841615620000f3565b5086831615620000eb565b604051631e4fbdf760e01b815260006004820152602490fd5b600080fd5b634e487b7160e01b600052604160045260246000fd5b51906001600160a01b0382168203620001935756fe608060409080825260048036101561001657600080fd5b600091823560e01c9081630342a907146109de5750806313038af0146109b857806325998c981461093c578063386be889146108fa57806347842663146108d25780635a9b9cba146108735780635bfb75081461084b5780635c9244af146108235780635ccea26b146107b457806362ca8460146107455780636c19408a146106b9578063715018a61461065d5780637b77cd6a146105ee57806386e87487146104c25780638da5cb5b1461049c578063ab3dbf3b14610474578063adde41e114610405578063afcff50f146103dd578063ccd34cd5146103ba578063e7c14c681461034e578063f2fde38b146102ad578063f8fee530146102145763fc9675421461012157600080fd5b346102105760803660031901126102105761013a610a03565b906001600160a01b0380600354163314908115610202575b81156101f3575b81156101e5575b501561017c579061017991606435916044359135610c55565b80f35b608490602085519162461bcd60e51b8352820152602160248201527f52443a204e6f7420616e20617574686f72697a6564206469737472696275746f60448201527f72000000000000000000000000000000000000000000000000000000000000006064820152fd5b905060065416331438610160565b80915060075416331490610159565b809150825416331490610152565b5080fd5b508290346102a95760203660031901126102a9576001600160a01b03610238610a1e565b610240610d60565b16918215610283575050806001600160a01b031960065416176006557f82283d6ce7728636b4d495b6b9fc94bc0a15f2a0ab79c8080e5ca70d086986678280a280f35b517fd92e233d000000000000000000000000000000000000000000000000000000008152fd5b8280fd5b508290346102a95760203660031901126102a9576102c9610a1e565b906102d2610d60565b6001600160a01b0380921692831561031f5750508254826001600160a01b03198216178455167f8be0079c531659141344cd1fd0a4f28419497f9722a3daafe3b4186f6b6457e08380a380f35b908460249251917f1e4fbdf7000000000000000000000000000000000000000000000000000000008352820152fd5b508290346102a95760203660031901126102a9576001600160a01b03610372610a1e565b61037a610d60565b169182156102835750816001600160a01b03198254161790557f4b661626443182ffd0706ac37de04ee5847d39057837148bbf5d01a5b70bf6ca8280a280f35b82843461021057816003193601126102105760209051670de0b6b3a76400008152f35b8284346102105781600319360112610210576020906001600160a01b03600254169051908152f35b508290346102a95760203660031901126102a9576001600160a01b03610429610a1e565b610431610d60565b16918215610283575050806001600160a01b031960035416176003557f7459f7f9aac6fc4ca8cf3734456a89022a8afccd59e1789f17777ec2012f21ed8280a280f35b8284346102105781600319360112610210576020906001600160a01b03600354169051908152f35b8284346102105781600319360112610210576001600160a01b0360209254169051908152f35b5034610210576104d136610a34565b93916001600160a01b039283815416331480156105e1575b15610578575091670de0b6b3a76400006105668861056d948661051b6105138a996105739b610da4565b83838b610aa2565b95818c52600860205280848d20931692838d52602052838c2098168b526009602052828b20908b52602052818a20908a5260205288209661055e88549485610c48565b955490610a6c565b0492610a95565b90610a95565b905580f35b608490602089519162461bcd60e51b8352820152602960248201527f52443a204e6f74204361706974616c506f6f6c206f7220556e6465727772697460448201527f65724d616e6167657200000000000000000000000000000000000000000000006064820152fd5b50836005541633146104e9565b508290346102a95760203660031901126102a9576001600160a01b03610612610a1e565b61061a610d60565b16918215610283575050806001600160a01b031960025416176002557fd63daa75c27e40358d8dadaebf7cd68c1b0df32fc4a593abcbcda2232ba0bfe78280a280f35b82346106b657806003193601126106b657610676610d60565b806001600160a01b0381546001600160a01b031981168355167f8be0079c531659141344cd1fd0a4f28419497f9722a3daafe3b4186f6b6457e08280a380f35b80fd5b5090346106b657506106ca36610a34565b936001600160a01b03600594929454163303610702576020866106f7878787876106f2610ced565b610b1f565b906001805551908152f35b606490602087519162461bcd60e51b8352820152601a60248201527f52443a204e6f7420556e6465727772697465724d616e616765720000000000006044820152fd5b508290346102a95760203660031901126102a9576001600160a01b03610769610a1e565b610771610d60565b16918215610283575050806001600160a01b031960075416176007557f95329fb8cf31c0dda21532344c24159acccf2f795f93c87a30ac6d3ddb9d03d68280a280f35b508290346102a95760203660031901126102a9576001600160a01b036107d8610a1e565b6107e0610d60565b16918215610283575050806001600160a01b031960055416176005557fda1ab4d9bf3aaf27501818ce6108ebfa2279c6ef7a66e80b0b71555b4182315e8280a280f35b8284346102105781600319360112610210576020906001600160a01b03600654169051908152f35b509190346106b657806003193601126106b657506001600160a01b0360209254169051908152f35b8284346102105760603660031901126102105761088e610a1e565b604435906001600160a01b03908183168093036108ce57916020949184931682526009855282822060243583528552828220908252845220549051908152f35b8480fd5b8284346102105781600319360112610210576020906001600160a01b03600754169051908152f35b508290346102a957816003193601126102a957602092829161091a610a03565b90358252600885526001600160a01b0383832091168252845220549051908152f35b5090346106b6575061094d36610a34565b936001600160a01b03600694929454163303610975576020866106f7878787876106f2610ced565b606490602087519162461bcd60e51b8352820152600f60248201527f52443a204e6f7420436174506f6f6c00000000000000000000000000000000006044820152fd5b828434610210576020906109d76109ce36610a34565b92919091610aa2565b9051908152f35b8390346102105781600319360112610210576020906001600160a01b03600554168152f35b602435906001600160a01b0382168203610a1957565b600080fd5b600435906001600160a01b0382168203610a1957565b6080906003190112610a19576001600160a01b036004358181168103610a195791602435916044359081168103610a19579060643590565b81810292918115918404141715610a7f57565b634e487b7160e01b600052601160045260246000fd5b91908203918211610a7f57565b91670de0b6b3a76400009193610b0191600095808752600860205260408720916001600160a01b038091169283895260205260408820961687526009602052604087209087526020526040862090865260205260408520935490610a6c565b9154910481811115610b1a57610b179250610a95565b90565b505090565b610b2b84848484610aa2565b9384610b39575b5050505090565b6001600160a01b039260009283918582168352670de0b6b3a7640000610b916020956009875260409889872085885288528987209a16998a87528752888620938652600887528886208a875287528886205490610a6c565b04905584517fa9059cbb000000000000000000000000000000000000000000000000000000008482019081526001600160a01b0392909216602482015260448082018990528152610be3606482610d28565b519082875af115610c3d57513d610c345750813b155b610c04578080610b32565b6024925051907f5274afe70000000000000000000000000000000000000000000000000000000082526004820152fd5b60011415610bf9565b9051903d90823e3d90fd5b91908201809211610a7f57565b8215939291848015610ce5575b610cde57600091825260086020526001600160a01b0360408320911682526020526040812093670de0b6b3a7640000808402938404141715610cca578215610cb6575090610cb291048254610c48565b9055565b80634e487b7160e01b602492526012600452fd5b80634e487b7160e01b602492526011600452fd5b5050505050565b508315610c62565b600260015414610cfe576002600155565b60046040517f3ee5aeb5000000000000000000000000000000000000000000000000000000008152fd5b90601f8019910116810190811067ffffffffffffffff821117610d4a57604052565b634e487b7160e01b600052604160045260246000fd5b6001600160a01b03600054163303610d7457565b60246040517f118cdaa7000000000000000000000000000000000000000000000000000000008152336004820152fd5b906001600160a01b0391826002541692604092835180957fcccc2b5200000000000000000000000000000000000000000000000000000000825282600483015281602460209889935afa908115610f7457600091610f3e575b5015610ea557508060246080926004541693855194859384927f731f25c00000000000000000000000000000000000000000000000000000000084521660048301525afa928315610e9a57600093610e56575b50505090565b608093919293833d608011610e92575b81610e7360809383610d28565b810103126102105760049083015110156106b657500151388080610e50565b3d9150610e66565b82513d6000823e3d90fd5b60055484517ffb7ce3570000000000000000000000000000000000000000000000000000000081526001600160a01b03949094166004850152602484019190915292939192829184916044918391165afa928315610f345750600092610f0a57505090565b90809250813d8311610f2d575b610f218183610d28565b81010312610a19575190565b503d610f17565b513d6000823e3d90fd5b8681813d8311610f6d575b610f538183610d28565b8101031261021057519081151582036106b6575038610dfd565b503d610f49565b85513d6000823e3d90fdfea2646970667358221220de190bd13010fc2416d4f618435f861fe88709a3a42bdb6f8066494eaff5ff9d64736f6c63430008160033",
  "linkReferences": {},
  "deployedLinkReferences": {}
}