{
  "_format": "hh-sol-artifact-1",
  "contractName": "RewardDistributor",
  "sourceName": "contracts/utils/RewardDistributor.sol",
  "abi": [
    {
      "inputs": [
        {
          "internalType": "address",
          "name": "_riskManagerAddress",
          "type": "address"
        },
        {
          "internalType": "address",
          "name": "_policyManagerAddress",
          "type": "address"
        }
      ],
      "stateMutability": "nonpayable",
      "type": "constructor"
    },
    {
      "inputs": [
        {
          "internalType": "address",
          "name": "owner",
          "type": "address"
        }
      ],
      "name": "OwnableInvalidOwner",
      "type": "error"
    },
    {
      "inputs": [
        {
          "internalType": "address",
          "name": "account",
          "type": "address"
        }
      ],
      "name": "OwnableUnauthorizedAccount",
      "type": "error"
    },
    {
      "inputs": [],
      "name": "ReentrancyGuardReentrantCall",
      "type": "error"
    },
    {
      "inputs": [
        {
          "internalType": "address",
          "name": "token",
          "type": "address"
        }
      ],
      "name": "SafeERC20FailedOperation",
      "type": "error"
    },
    {
      "inputs": [],
      "name": "ZeroAddress",
      "type": "error"
    },
    {
      "anonymous": false,
      "inputs": [
        {
          "indexed": true,
          "internalType": "address",
          "name": "newCatPool",
          "type": "address"
        }
      ],
      "name": "CatPoolSet",
      "type": "event"
    },
    {
      "anonymous": false,
      "inputs": [
        {
          "indexed": true,
          "internalType": "address",
          "name": "previousOwner",
          "type": "address"
        },
        {
          "indexed": true,
          "internalType": "address",
          "name": "newOwner",
          "type": "address"
        }
      ],
      "name": "OwnershipTransferred",
      "type": "event"
    },
    {
      "anonymous": false,
      "inputs": [
        {
          "indexed": true,
          "internalType": "address",
          "name": "newPolicyManager",
          "type": "address"
        }
      ],
      "name": "PolicyManagerAddressSet",
      "type": "event"
    },
    {
      "anonymous": false,
      "inputs": [
        {
          "indexed": true,
          "internalType": "address",
          "name": "newRiskManager",
          "type": "address"
        }
      ],
      "name": "RiskManagerAddressSet",
      "type": "event"
    },
    {
      "inputs": [],
      "name": "PRECISION_FACTOR",
      "outputs": [
        {
          "internalType": "uint256",
          "name": "",
          "type": "uint256"
        }
      ],
      "stateMutability": "view",
      "type": "function"
    },
    {
      "inputs": [],
      "name": "catPool",
      "outputs": [
        {
          "internalType": "address",
          "name": "",
          "type": "address"
        }
      ],
      "stateMutability": "view",
      "type": "function"
    },
    {
      "inputs": [
        {
          "internalType": "address",
          "name": "user",
          "type": "address"
        },
        {
          "internalType": "uint256",
          "name": "poolId",
          "type": "uint256"
        },
        {
          "internalType": "address",
          "name": "rewardToken",
          "type": "address"
        },
        {
          "internalType": "uint256",
          "name": "userPledge",
          "type": "uint256"
        }
      ],
      "name": "claim",
      "outputs": [
        {
          "internalType": "uint256",
          "name": "",
          "type": "uint256"
        }
      ],
      "stateMutability": "nonpayable",
      "type": "function"
    },
    {
      "inputs": [
        {
          "internalType": "address",
          "name": "user",
          "type": "address"
        },
        {
          "internalType": "uint256",
          "name": "poolId",
          "type": "uint256"
        },
        {
          "internalType": "address",
          "name": "rewardToken",
          "type": "address"
        },
        {
          "internalType": "uint256",
          "name": "userPledge",
          "type": "uint256"
        }
      ],
      "name": "claimForCatPool",
      "outputs": [
        {
          "internalType": "uint256",
          "name": "",
          "type": "uint256"
        }
      ],
      "stateMutability": "nonpayable",
      "type": "function"
    },
    {
      "inputs": [
        {
          "internalType": "uint256",
          "name": "poolId",
          "type": "uint256"
        },
        {
          "internalType": "address",
          "name": "rewardToken",
          "type": "address"
        },
        {
          "internalType": "uint256",
          "name": "rewardAmount",
          "type": "uint256"
        },
        {
          "internalType": "uint256",
          "name": "totalPledgeInPool",
          "type": "uint256"
        }
      ],
      "name": "distribute",
      "outputs": [],
      "stateMutability": "nonpayable",
      "type": "function"
    },
    {
      "inputs": [],
      "name": "owner",
      "outputs": [
        {
          "internalType": "address",
          "name": "",
          "type": "address"
        }
      ],
      "stateMutability": "view",
      "type": "function"
    },
    {
      "inputs": [
        {
          "internalType": "address",
          "name": "user",
          "type": "address"
        },
        {
          "internalType": "uint256",
          "name": "poolId",
          "type": "uint256"
        },
        {
          "internalType": "address",
          "name": "rewardToken",
          "type": "address"
        },
        {
          "internalType": "uint256",
          "name": "userPledge",
          "type": "uint256"
        }
      ],
      "name": "pendingRewards",
      "outputs": [
        {
          "internalType": "uint256",
          "name": "",
          "type": "uint256"
        }
      ],
      "stateMutability": "view",
      "type": "function"
    },
    {
      "inputs": [],
      "name": "policyManager",
      "outputs": [
        {
          "internalType": "address",
          "name": "",
          "type": "address"
        }
      ],
      "stateMutability": "view",
      "type": "function"
    },
    {
      "inputs": [
        {
          "internalType": "uint256",
          "name": "",
          "type": "uint256"
        },
        {
          "internalType": "address",
          "name": "",
          "type": "address"
        }
      ],
      "name": "poolRewardTrackers",
      "outputs": [
        {
          "internalType": "uint256",
          "name": "accumulatedRewardsPerShare",
          "type": "uint256"
        }
      ],
      "stateMutability": "view",
      "type": "function"
    },
    {
      "inputs": [],
      "name": "renounceOwnership",
      "outputs": [],
      "stateMutability": "nonpayable",
      "type": "function"
    },
    {
      "inputs": [],
      "name": "riskManager",
      "outputs": [
        {
          "internalType": "address",
          "name": "",
          "type": "address"
        }
      ],
      "stateMutability": "view",
      "type": "function"
    },
    {
      "inputs": [
        {
          "internalType": "address",
          "name": "catPoolAddress",
          "type": "address"
        }
      ],
      "name": "setCatPool",
      "outputs": [],
      "stateMutability": "nonpayable",
      "type": "function"
    },
    {
      "inputs": [
        {
          "internalType": "address",
          "name": "newPolicyManager",
          "type": "address"
        }
      ],
      "name": "setPolicyManager",
      "outputs": [],
      "stateMutability": "nonpayable",
      "type": "function"
    },
    {
      "inputs": [
        {
          "internalType": "address",
          "name": "newRiskManager",
          "type": "address"
        }
      ],
      "name": "setRiskManager",
      "outputs": [],
      "stateMutability": "nonpayable",
      "type": "function"
    },
    {
      "inputs": [
        {
          "internalType": "address",
          "name": "newOwner",
          "type": "address"
        }
      ],
      "name": "transferOwnership",
      "outputs": [],
      "stateMutability": "nonpayable",
      "type": "function"
    },
    {
      "inputs": [
        {
          "internalType": "address",
          "name": "user",
          "type": "address"
        },
        {
          "internalType": "uint256",
          "name": "poolId",
          "type": "uint256"
        },
        {
          "internalType": "address",
          "name": "rewardToken",
          "type": "address"
        },
        {
          "internalType": "uint256",
          "name": "userPledge",
          "type": "uint256"
        }
      ],
      "name": "updateUserState",
      "outputs": [],
      "stateMutability": "nonpayable",
      "type": "function"
    },
    {
      "inputs": [
        {
          "internalType": "address",
          "name": "",
          "type": "address"
        },
        {
          "internalType": "uint256",
          "name": "",
          "type": "uint256"
        },
        {
          "internalType": "address",
          "name": "",
          "type": "address"
        }
      ],
      "name": "userRewardStates",
      "outputs": [
        {
          "internalType": "uint256",
          "name": "rewardDebt",
          "type": "uint256"
        }
      ],
      "stateMutability": "view",
      "type": "function"
    }
  ],
  "bytecode": "0x60803461016357610c5690601f38839003908101601f19168201906001600160401b03821183831017610168578083916040958694855283398101031261016357610055602061004e8361017e565b920161017e565b91331561014c57600080546001600160a01b031980821633908117845584519691959394936001600160a01b039384929083167f8be0079c531659141344cd1fd0a4f28419497f9722a3daafe3b4186f6b6457e08880a3600180551695861561013d57501692831561012c57908482857f96ef4362498b0fa85c8625240e1d0ebcdd2ec5c981849e05d81705ed0720ad4795946003541617600355600254161760025551937fdfd2967b9417925459cd79ae13c6dec37092beff03f9cd8ed4c3e687fe93d2e48280a280a2610ac390816101938239f35b815163d92e233d60e01b8152600490fd5b63d92e233d60e01b8152600490fd5b51631e4fbdf760e01b815260006004820152602490fd5b600080fd5b634e487b7160e01b600052604160045260246000fd5b51906001600160a01b03821682036101635756fe60406080815260048036101561001457600080fd5b600090813560e01c806313038af0146106b157806325998c9814610636578063386be889146105f457806347842663146105cc5780635a9b9cba1461056d5780635c9244af1461054557806362ca8460146104d65780636c19408a1461048e578063715018a61461043257806386e87487146103b95780638da5cb5b14610393578063ab3dbf3b1461036b578063adde41e1146102fc578063ccd34cd5146102d9578063f2fde38b14610238578063f8fee530146101a25763fc967542146100db57600080fd5b3461019e57608036600319011261019e576100f46106d7565b906001600160a01b0380600254163314908115610190575b5015610128579061012591606435916044359135610976565b80f35b608490602085519162461bcd60e51b83528201526024808201527f52443a204e6f74205269736b4d616e61676572206f7220706f6c6963794d616e60448201527f61676572000000000000000000000000000000000000000000000000000000006064820152fd5b90506003541633143861010c565b5080fd5b50829034610234576020366003190112610234576001600160a01b036101c66106f2565b6101ce610a49565b1691821561020e5750816001600160a01b03198254161790557f82283d6ce7728636b4d495b6b9fc94bc0a15f2a0ab79c8080e5ca70d086986678280a280f35b517fd92e233d000000000000000000000000000000000000000000000000000000008152fd5b8280fd5b50829034610234576020366003190112610234576102546106f2565b9061025d610a49565b6001600160a01b038092169283156102aa5750508254826001600160a01b03198216178455167f8be0079c531659141344cd1fd0a4f28419497f9722a3daafe3b4186f6b6457e08380a380f35b908460249251917f1e4fbdf7000000000000000000000000000000000000000000000000000000008352820152fd5b82843461019e578160031936011261019e5760209051670de0b6b3a76400008152f35b50829034610234576020366003190112610234576001600160a01b036103206106f2565b610328610a49565b1691821561020e575050806001600160a01b031960035416176003557f96ef4362498b0fa85c8625240e1d0ebcdd2ec5c981849e05d81705ed0720ad478280a280f35b82843461019e578160031936011261019e576020906001600160a01b03600354169051908152f35b82843461019e578160031936011261019e576001600160a01b0360209254169051908152f35b82843461019e57670de0b6b3a764000061042c6103d536610708565b9295916001600160a01b036103ef8160025416331461092b565b818952600560205280848a20931692838a526020528389209716885260066020528288209088526020528187209087526020528520935490610740565b04905580f35b823461048b578060031936011261048b5761044b610a49565b806001600160a01b0381546001600160a01b031981168355167f8be0079c531659141344cd1fd0a4f28419497f9722a3daafe3b4186f6b6457e08280a380f35b80fd5b82843461019e576020906104cb6104a436610708565b926104be6001600160a01b0360029493945416331461092b565b6104c6610a0e565b6107ec565b906001805551908152f35b50829034610234576020366003190112610234576001600160a01b036104fa6106f2565b610502610a49565b1691821561020e575050806001600160a01b031960025416176002557fdfd2967b9417925459cd79ae13c6dec37092beff03f9cd8ed4c3e687fe93d2e48280a280f35b5091903461048b578060031936011261048b57506001600160a01b0360209254169051908152f35b82843461019e57606036600319011261019e576105886106f2565b604435906001600160a01b03908183168093036105c857916020949184931682526006855282822060243583528552828220908252845220549051908152f35b8480fd5b82843461019e578160031936011261019e576020906001600160a01b03600254169051908152f35b5082903461023457816003193601126102345760209282916106146106d7565b90358252600585526001600160a01b0383832091168252845220549051908152f35b50903461048b575061064736610708565b936001600160a01b03819492945416330361066e576020866104cb878787876104c6610a0e565b606490602087519162461bcd60e51b8352820152600f60248201527f52443a204e6f7420436174506f6f6c00000000000000000000000000000000006044820152fd5b82843461019e576020906106d06106c736610708565b92919091610769565b9051908152f35b602435906001600160a01b03821682036106ed57565b600080fd5b600435906001600160a01b03821682036106ed57565b60809060031901126106ed576001600160a01b0360043581811681036106ed57916024359160443590811681036106ed579060643590565b8181029291811591840414171561075357565b634e487b7160e01b600052601160045260246000fd5b926107c890670de0b6b3a76400009293600094808652600560205260408620916001600160a01b038091169283885260205260408720971686526006602052604086209086526020526040852090855260205260408420945490610740565b04915482039182116107d8575090565b80634e487b7160e01b602492526011600452fd5b906107f984848385610769565b9384610807575b5050505090565b6001600160a01b03809316600092818452670de0b6b3a764000061085d60209460068652604097888820858952875288882099169889885286528787209387526005865287872089885286528787205490610740565b0490558351828101917fa9059cbb0000000000000000000000000000000000000000000000000000000083526024820152866044820152604481526080810181811067ffffffffffffffff82111761091757855251839182875af11561090c57513d6109035750813b155b6108d3578080610800565b6024925051907f5274afe70000000000000000000000000000000000000000000000000000000082526004820152fd5b600114156108c8565b9051903d90823e3d90fd5b602485634e487b7160e01b81526041600452fd5b1561093257565b606460405162461bcd60e51b815260206004820152601360248201527f52443a204e6f74205269736b4d616e61676572000000000000000000000000006044820152fd5b909192831592838015610a06575b6109ff57600092835260056020526001600160a01b0360408420911683526020526040822092670de0b6b3a76400008086029586041417156109eb5780156109d7578254930483018093116107d8575055565b602482634e487b7160e01b81526012600452fd5b602482634e487b7160e01b81526011600452fd5b5050505050565b508115610984565b600260015414610a1f576002600155565b60046040517f3ee5aeb5000000000000000000000000000000000000000000000000000000008152fd5b6001600160a01b03600054163303610a5d57565b60246040517f118cdaa7000000000000000000000000000000000000000000000000000000008152336004820152fdfea2646970667358221220b3bb4cd5aebbd98ede69ba5fa4ae4dbbeffc7da55ab8ed4d65d0a90a91eb037b64736f6c63430008160033",
  "linkReferences": {},
  "deployedLinkReferences": {}
}