{
  "_format": "hh-sol-artifact-1",
  "contractName": "RewardDistributor",
  "sourceName": "contracts/utils/RewardDistributor.sol",
  "abi": [
    {
      "inputs": [
        {
          "internalType": "address",
          "name": "_poolRegistry",
          "type": "address"
        },
        {
          "internalType": "address",
          "name": "_policyManager",
          "type": "address"
        },
        {
          "internalType": "address",
          "name": "_capitalPool",
          "type": "address"
        },
        {
          "internalType": "address",
          "name": "_underwriterManager",
          "type": "address"
        }
      ],
      "stateMutability": "nonpayable",
      "type": "constructor"
    },
    {
      "inputs": [
        {
          "internalType": "address",
          "name": "owner",
          "type": "address"
        }
      ],
      "name": "OwnableInvalidOwner",
      "type": "error"
    },
    {
      "inputs": [
        {
          "internalType": "address",
          "name": "account",
          "type": "address"
        }
      ],
      "name": "OwnableUnauthorizedAccount",
      "type": "error"
    },
    {
      "inputs": [],
      "name": "ReentrancyGuardReentrantCall",
      "type": "error"
    },
    {
      "inputs": [
        {
          "internalType": "address",
          "name": "token",
          "type": "address"
        }
      ],
      "name": "SafeERC20FailedOperation",
      "type": "error"
    },
    {
      "inputs": [],
      "name": "ZeroAddress",
      "type": "error"
    },
    {
      "anonymous": false,
      "inputs": [
        {
          "indexed": true,
          "internalType": "address",
          "name": "newCapitalPool",
          "type": "address"
        }
      ],
      "name": "CapitalPoolSet",
      "type": "event"
    },
    {
      "anonymous": false,
      "inputs": [
        {
          "indexed": true,
          "internalType": "address",
          "name": "newCatPool",
          "type": "address"
        }
      ],
      "name": "CatPoolSet",
      "type": "event"
    },
    {
      "anonymous": false,
      "inputs": [
        {
          "indexed": true,
          "internalType": "address",
          "name": "previousOwner",
          "type": "address"
        },
        {
          "indexed": true,
          "internalType": "address",
          "name": "newOwner",
          "type": "address"
        }
      ],
      "name": "OwnershipTransferred",
      "type": "event"
    },
    {
      "anonymous": false,
      "inputs": [
        {
          "indexed": true,
          "internalType": "address",
          "name": "newPolicyManager",
          "type": "address"
        }
      ],
      "name": "PolicyManagerSet",
      "type": "event"
    },
    {
      "anonymous": false,
      "inputs": [
        {
          "indexed": true,
          "internalType": "address",
          "name": "newPoolRegistry",
          "type": "address"
        }
      ],
      "name": "PoolRegistrySet",
      "type": "event"
    },
    {
      "anonymous": false,
      "inputs": [
        {
          "indexed": true,
          "internalType": "address",
          "name": "newUnderwriterManager",
          "type": "address"
        }
      ],
      "name": "UnderwriterManagerSet",
      "type": "event"
    },
    {
      "inputs": [],
      "name": "PRECISION_FACTOR",
      "outputs": [
        {
          "internalType": "uint256",
          "name": "",
          "type": "uint256"
        }
      ],
      "stateMutability": "view",
      "type": "function"
    },
    {
      "inputs": [],
      "name": "capitalPool",
      "outputs": [
        {
          "internalType": "address",
          "name": "",
          "type": "address"
        }
      ],
      "stateMutability": "view",
      "type": "function"
    },
    {
      "inputs": [],
      "name": "catPool",
      "outputs": [
        {
          "internalType": "address",
          "name": "",
          "type": "address"
        }
      ],
      "stateMutability": "view",
      "type": "function"
    },
    {
      "inputs": [
        {
          "internalType": "address",
          "name": "user",
          "type": "address"
        },
        {
          "internalType": "uint256",
          "name": "poolId",
          "type": "uint256"
        },
        {
          "internalType": "address",
          "name": "rewardToken",
          "type": "address"
        },
        {
          "internalType": "uint256",
          "name": "userPledge",
          "type": "uint256"
        }
      ],
      "name": "claim",
      "outputs": [
        {
          "internalType": "uint256",
          "name": "",
          "type": "uint256"
        }
      ],
      "stateMutability": "nonpayable",
      "type": "function"
    },
    {
      "inputs": [
        {
          "internalType": "address",
          "name": "user",
          "type": "address"
        },
        {
          "internalType": "uint256",
          "name": "poolId",
          "type": "uint256"
        },
        {
          "internalType": "address",
          "name": "rewardToken",
          "type": "address"
        },
        {
          "internalType": "uint256",
          "name": "userPledge",
          "type": "uint256"
        }
      ],
      "name": "claimForCatPool",
      "outputs": [
        {
          "internalType": "uint256",
          "name": "",
          "type": "uint256"
        }
      ],
      "stateMutability": "nonpayable",
      "type": "function"
    },
    {
      "inputs": [
        {
          "internalType": "uint256",
          "name": "poolId",
          "type": "uint256"
        },
        {
          "internalType": "address",
          "name": "rewardToken",
          "type": "address"
        },
        {
          "internalType": "uint256",
          "name": "rewardAmount",
          "type": "uint256"
        },
        {
          "internalType": "uint256",
          "name": "totalPledgeInPool",
          "type": "uint256"
        }
      ],
      "name": "distribute",
      "outputs": [],
      "stateMutability": "nonpayable",
      "type": "function"
    },
    {
      "inputs": [],
      "name": "owner",
      "outputs": [
        {
          "internalType": "address",
          "name": "",
          "type": "address"
        }
      ],
      "stateMutability": "view",
      "type": "function"
    },
    {
      "inputs": [
        {
          "internalType": "address",
          "name": "user",
          "type": "address"
        },
        {
          "internalType": "uint256",
          "name": "poolId",
          "type": "uint256"
        },
        {
          "internalType": "address",
          "name": "rewardToken",
          "type": "address"
        },
        {
          "internalType": "uint256",
          "name": "userPledge",
          "type": "uint256"
        }
      ],
      "name": "pendingRewards",
      "outputs": [
        {
          "internalType": "uint256",
          "name": "",
          "type": "uint256"
        }
      ],
      "stateMutability": "view",
      "type": "function"
    },
    {
      "inputs": [],
      "name": "policyManager",
      "outputs": [
        {
          "internalType": "address",
          "name": "",
          "type": "address"
        }
      ],
      "stateMutability": "view",
      "type": "function"
    },
    {
      "inputs": [],
      "name": "poolRegistry",
      "outputs": [
        {
          "internalType": "contract IPoolRegistry",
          "name": "",
          "type": "address"
        }
      ],
      "stateMutability": "view",
      "type": "function"
    },
    {
      "inputs": [
        {
          "internalType": "uint256",
          "name": "",
          "type": "uint256"
        },
        {
          "internalType": "address",
          "name": "",
          "type": "address"
        }
      ],
      "name": "poolRewardTrackers",
      "outputs": [
        {
          "internalType": "uint256",
          "name": "accumulatedRewardsPerShare",
          "type": "uint256"
        }
      ],
      "stateMutability": "view",
      "type": "function"
    },
    {
      "inputs": [],
      "name": "renounceOwnership",
      "outputs": [],
      "stateMutability": "nonpayable",
      "type": "function"
    },
    {
      "inputs": [
        {
          "internalType": "address",
          "name": "newCapitalPool",
          "type": "address"
        }
      ],
      "name": "setCapitalPool",
      "outputs": [],
      "stateMutability": "nonpayable",
      "type": "function"
    },
    {
      "inputs": [
        {
          "internalType": "address",
          "name": "newCatPool",
          "type": "address"
        }
      ],
      "name": "setCatPool",
      "outputs": [],
      "stateMutability": "nonpayable",
      "type": "function"
    },
    {
      "inputs": [
        {
          "internalType": "address",
          "name": "newPolicyManager",
          "type": "address"
        }
      ],
      "name": "setPolicyManager",
      "outputs": [],
      "stateMutability": "nonpayable",
      "type": "function"
    },
    {
      "inputs": [
        {
          "internalType": "address",
          "name": "newPoolRegistry",
          "type": "address"
        }
      ],
      "name": "setPoolRegistry",
      "outputs": [],
      "stateMutability": "nonpayable",
      "type": "function"
    },
    {
      "inputs": [
        {
          "internalType": "address",
          "name": "newUnderwriterManager",
          "type": "address"
        }
      ],
      "name": "setUnderwriterManager",
      "outputs": [],
      "stateMutability": "nonpayable",
      "type": "function"
    },
    {
      "inputs": [
        {
          "internalType": "address",
          "name": "newOwner",
          "type": "address"
        }
      ],
      "name": "transferOwnership",
      "outputs": [],
      "stateMutability": "nonpayable",
      "type": "function"
    },
    {
      "inputs": [],
      "name": "underwriterManager",
      "outputs": [
        {
          "internalType": "address",
          "name": "",
          "type": "address"
        }
      ],
      "stateMutability": "view",
      "type": "function"
    },
    {
      "inputs": [
        {
          "internalType": "address",
          "name": "user",
          "type": "address"
        },
        {
          "internalType": "uint256",
          "name": "poolId",
          "type": "uint256"
        },
        {
          "internalType": "address",
          "name": "rewardToken",
          "type": "address"
        },
        {
          "internalType": "uint256",
          "name": "newUserPledge",
          "type": "uint256"
        }
      ],
      "name": "updateUserState",
      "outputs": [],
      "stateMutability": "nonpayable",
      "type": "function"
    },
    {
      "inputs": [
        {
          "internalType": "address",
          "name": "",
          "type": "address"
        },
        {
          "internalType": "uint256",
          "name": "",
          "type": "uint256"
        },
        {
          "internalType": "address",
          "name": "",
          "type": "address"
        }
      ],
      "name": "userRewardStates",
      "outputs": [
        {
          "internalType": "uint256",
          "name": "rewardDebt",
          "type": "uint256"
        }
      ],
      "stateMutability": "view",
      "type": "function"
    }
  ],
  "bytecode": "0x6080346200017757601f6200108438819003918201601f19168301916001600160401b038311848410176200017c5780849260809460405283398101031262000177576200004d8162000192565b906200005c6020820162000192565b90620000796060620000716040840162000192565b920162000192565b9033156200015e576000549260018060a01b03938460018060a01b031996338884161760005560405192823391167f8be0079c531659141344cd1fd0a4f28419497f9722a3daafe3b4186f6b6457e0600080a36001805516908115801562000153575b801562000148575b80156200013d575b6200012e57508492918391876002541617600255168560035416176003551683600454161760045516906005541617600555604051610edc9081620001a88239f35b63d92e233d60e01b8152600490fd5b5085851615620000ec565b5085841615620000e4565b5085831615620000dc565b604051631e4fbdf760e01b815260006004820152602490fd5b600080fd5b634e487b7160e01b600052604160045260246000fd5b51906001600160a01b0382168203620001775756fe608060409080825260048036101561001657600080fd5b600091823560e01c9081630342a907146109055750806313038af0146108df57806325998c9814610863578063386be889146108215780635a9b9cba146107c25780635bfb75081461079a5780635c9244af146107725780635ccea26b146107035780636c19408a14610677578063715018a61461061b5780637b77cd6a146105ac57806386e87487146104805780638da5cb5b1461045a578063ab3dbf3b14610432578063adde41e1146103c3578063afcff50f1461039b578063ccd34cd514610378578063e7c14c681461030c578063f2fde38b1461026b578063f8fee530146101d25763fc9675421461010b57600080fd5b346101ce5760803660031901126101ce5761012461092a565b906001600160a01b03806003541633149081156101c1575b5015610158579061015591606435916044359135610b7c565b80f35b608490602085519162461bcd60e51b8352820152602160248201527f52443a204e6f7420616e20617574686f72697a6564206469737472696275746f60448201527f72000000000000000000000000000000000000000000000000000000000000006064820152fd5b905081541633143861013c565b5080fd5b50829034610267576020366003190112610267576001600160a01b036101f6610945565b6101fe610c87565b16918215610241575050806001600160a01b031960065416176006557f82283d6ce7728636b4d495b6b9fc94bc0a15f2a0ab79c8080e5ca70d086986678280a280f35b517fd92e233d000000000000000000000000000000000000000000000000000000008152fd5b8280fd5b5082903461026757602036600319011261026757610287610945565b90610290610c87565b6001600160a01b038092169283156102dd5750508254826001600160a01b03198216178455167f8be0079c531659141344cd1fd0a4f28419497f9722a3daafe3b4186f6b6457e08380a380f35b908460249251917f1e4fbdf7000000000000000000000000000000000000000000000000000000008352820152fd5b50829034610267576020366003190112610267576001600160a01b03610330610945565b610338610c87565b169182156102415750816001600160a01b03198254161790557f4b661626443182ffd0706ac37de04ee5847d39057837148bbf5d01a5b70bf6ca8280a280f35b8284346101ce57816003193601126101ce5760209051670de0b6b3a76400008152f35b8284346101ce57816003193601126101ce576020906001600160a01b03600254169051908152f35b50829034610267576020366003190112610267576001600160a01b036103e7610945565b6103ef610c87565b16918215610241575050806001600160a01b031960035416176003557f7459f7f9aac6fc4ca8cf3734456a89022a8afccd59e1789f17777ec2012f21ed8280a280f35b8284346101ce57816003193601126101ce576020906001600160a01b03600354169051908152f35b8284346101ce57816003193601126101ce576001600160a01b0360209254169051908152f35b50346101ce5761048f3661095b565b93916001600160a01b0392838154163314801561059f575b15610536575091670de0b6b3a76400006105248861052b94866104d96104d18a996105319b610ccb565b83838b6109c9565b95818c52600760205280848d20931692838d52602052838c2098168b526008602052828b20908b52602052818a20908a5260205288209661051c88549485610b6f565b955490610993565b04926109bc565b906109bc565b905580f35b608490602089519162461bcd60e51b8352820152602960248201527f52443a204e6f74204361706974616c506f6f6c206f7220556e6465727772697460448201527f65724d616e6167657200000000000000000000000000000000000000000000006064820152fd5b50836005541633146104a7565b50829034610267576020366003190112610267576001600160a01b036105d0610945565b6105d8610c87565b16918215610241575050806001600160a01b031960025416176002557fd63daa75c27e40358d8dadaebf7cd68c1b0df32fc4a593abcbcda2232ba0bfe78280a280f35b8234610674578060031936011261067457610634610c87565b806001600160a01b0381546001600160a01b031981168355167f8be0079c531659141344cd1fd0a4f28419497f9722a3daafe3b4186f6b6457e08280a380f35b80fd5b50903461067457506106883661095b565b936001600160a01b036005949294541633036106c0576020866106b5878787876106b0610c14565b610a46565b906001805551908152f35b606490602087519162461bcd60e51b8352820152601a60248201527f52443a204e6f7420556e6465727772697465724d616e616765720000000000006044820152fd5b50829034610267576020366003190112610267576001600160a01b03610727610945565b61072f610c87565b16918215610241575050806001600160a01b031960055416176005557fda1ab4d9bf3aaf27501818ce6108ebfa2279c6ef7a66e80b0b71555b4182315e8280a280f35b8284346101ce57816003193601126101ce576020906001600160a01b03600654169051908152f35b50919034610674578060031936011261067457506001600160a01b0360209254169051908152f35b8284346101ce5760603660031901126101ce576107dd610945565b604435906001600160a01b039081831680930361081d57916020949184931682526008855282822060243583528552828220908252845220549051908152f35b8480fd5b50829034610267578160031936011261026757602092829161084161092a565b90358252600785526001600160a01b0383832091168252845220549051908152f35b50903461067457506108743661095b565b936001600160a01b0360069492945416330361089c576020866106b5878787876106b0610c14565b606490602087519162461bcd60e51b8352820152600f60248201527f52443a204e6f7420436174506f6f6c00000000000000000000000000000000006044820152fd5b8284346101ce576020906108fe6108f53661095b565b929190916109c9565b9051908152f35b8390346101ce57816003193601126101ce576020906001600160a01b03600554168152f35b602435906001600160a01b038216820361094057565b600080fd5b600435906001600160a01b038216820361094057565b6080906003190112610940576001600160a01b0360043581811681036109405791602435916044359081168103610940579060643590565b818102929181159184041417156109a657565b634e487b7160e01b600052601160045260246000fd5b919082039182116109a657565b91670de0b6b3a76400009193610a2891600095808752600760205260408720916001600160a01b038091169283895260205260408820961687526008602052604087209087526020526040862090865260205260408520935490610993565b9154910481811115610a4157610a3e92506109bc565b90565b505090565b610a52848484846109c9565b9384610a60575b5050505090565b6001600160a01b039260009283918582168352670de0b6b3a7640000610ab86020956008875260409889872085885288528987209a16998a87528752888620938652600787528886208a875287528886205490610993565b04905584517fa9059cbb000000000000000000000000000000000000000000000000000000008482019081526001600160a01b0392909216602482015260448082018990528152610b0a606482610c4f565b519082875af115610b6457513d610b5b5750813b155b610b2b578080610a59565b6024925051907f5274afe70000000000000000000000000000000000000000000000000000000082526004820152fd5b60011415610b20565b9051903d90823e3d90fd5b919082018092116109a657565b8215939291848015610c0c575b610c0557600091825260076020526001600160a01b0360408320911682526020526040812093670de0b6b3a7640000808402938404141715610bf1578215610bdd575090610bd991048254610b6f565b9055565b80634e487b7160e01b602492526012600452fd5b80634e487b7160e01b602492526011600452fd5b5050505050565b508315610b89565b600260015414610c25576002600155565b60046040517f3ee5aeb5000000000000000000000000000000000000000000000000000000008152fd5b90601f8019910116810190811067ffffffffffffffff821117610c7157604052565b634e487b7160e01b600052604160045260246000fd5b6001600160a01b03600054163303610c9b57565b60246040517f118cdaa7000000000000000000000000000000000000000000000000000000008152336004820152fd5b906001600160a01b0391826002541692604092835180957fcccc2b5200000000000000000000000000000000000000000000000000000000825282600483015281602460209889935afa908115610e9b57600091610e65575b5015610dcc57508060246080926004541693855194859384927f731f25c00000000000000000000000000000000000000000000000000000000084521660048301525afa928315610dc157600093610d7d575b50505090565b608093919293833d608011610db9575b81610d9a60809383610c4f565b810103126101ce57600490830151101561067457500151388080610d77565b3d9150610d8d565b82513d6000823e3d90fd5b60055484517ffb7ce3570000000000000000000000000000000000000000000000000000000081526001600160a01b03949094166004850152602484019190915292939192829184916044918391165afa928315610e5b5750600092610e3157505090565b90809250813d8311610e54575b610e488183610c4f565b81010312610940575190565b503d610e3e565b513d6000823e3d90fd5b8681813d8311610e94575b610e7a8183610c4f565b810103126101ce5751908115158203610674575038610d24565b503d610e70565b85513d6000823e3d90fdfea2646970667358221220898b2ff1f44cf0e776714a8de293d8bc5953aefec4c4daabdc77bee6d9df273264736f6c63430008160033",
  "linkReferences": {},
  "deployedLinkReferences": {}
}