{
  "_format": "hh-sol-artifact-1",
  "contractName": "RiskManager",
  "sourceName": "contracts/core/RiskManager.sol",
  "abi": [
    {
      "inputs": [
        {
          "internalType": "address",
          "name": "_initialOwner",
          "type": "address"
        }
      ],
      "stateMutability": "nonpayable",
      "type": "constructor"
    },
    {
      "inputs": [],
      "name": "NotPolicyManager",
      "type": "error"
    },
    {
      "inputs": [],
      "name": "OnlyPolicyOwner",
      "type": "error"
    },
    {
      "inputs": [
        {
          "internalType": "address",
          "name": "owner",
          "type": "address"
        }
      ],
      "name": "OwnableInvalidOwner",
      "type": "error"
    },
    {
      "inputs": [
        {
          "internalType": "address",
          "name": "account",
          "type": "address"
        }
      ],
      "name": "OwnableUnauthorizedAccount",
      "type": "error"
    },
    {
      "inputs": [],
      "name": "PolicyNotActive",
      "type": "error"
    },
    {
      "inputs": [],
      "name": "ReentrancyGuardReentrantCall",
      "type": "error"
    },
    {
      "inputs": [
        {
          "internalType": "address",
          "name": "token",
          "type": "address"
        }
      ],
      "name": "SafeERC20FailedOperation",
      "type": "error"
    },
    {
      "inputs": [],
      "name": "UnderwriterNotInsolvent",
      "type": "error"
    },
    {
      "inputs": [],
      "name": "ZeroAddressNotAllowed",
      "type": "error"
    },
    {
      "anonymous": false,
      "inputs": [
        {
          "indexed": false,
          "internalType": "address",
          "name": "capital",
          "type": "address"
        },
        {
          "indexed": false,
          "internalType": "address",
          "name": "registry",
          "type": "address"
        },
        {
          "indexed": false,
          "internalType": "address",
          "name": "policyMgr",
          "type": "address"
        },
        {
          "indexed": false,
          "internalType": "address",
          "name": "cat",
          "type": "address"
        },
        {
          "indexed": false,
          "internalType": "address",
          "name": "loss",
          "type": "address"
        },
        {
          "indexed": false,
          "internalType": "address",
          "name": "rewards",
          "type": "address"
        },
        {
          "indexed": false,
          "internalType": "address",
          "name": "underwriterMgr",
          "type": "address"
        }
      ],
      "name": "AddressesSet",
      "type": "event"
    },
    {
      "anonymous": false,
      "inputs": [
        {
          "indexed": false,
          "internalType": "address",
          "name": "committee",
          "type": "address"
        }
      ],
      "name": "CommitteeSet",
      "type": "event"
    },
    {
      "anonymous": false,
      "inputs": [
        {
          "indexed": true,
          "internalType": "address",
          "name": "previousOwner",
          "type": "address"
        },
        {
          "indexed": true,
          "internalType": "address",
          "name": "newOwner",
          "type": "address"
        }
      ],
      "name": "OwnershipTransferred",
      "type": "event"
    },
    {
      "anonymous": false,
      "inputs": [
        {
          "indexed": true,
          "internalType": "address",
          "name": "liquidator",
          "type": "address"
        },
        {
          "indexed": true,
          "internalType": "address",
          "name": "underwriter",
          "type": "address"
        }
      ],
      "name": "UnderwriterLiquidated",
      "type": "event"
    },
    {
      "inputs": [],
      "name": "BPS",
      "outputs": [
        {
          "internalType": "uint256",
          "name": "",
          "type": "uint256"
        }
      ],
      "stateMutability": "view",
      "type": "function"
    },
    {
      "inputs": [],
      "name": "CLAIM_FEE_BPS",
      "outputs": [
        {
          "internalType": "uint256",
          "name": "",
          "type": "uint256"
        }
      ],
      "stateMutability": "view",
      "type": "function"
    },
    {
      "inputs": [],
      "name": "capitalPool",
      "outputs": [
        {
          "internalType": "contract ICapitalPool",
          "name": "",
          "type": "address"
        }
      ],
      "stateMutability": "view",
      "type": "function"
    },
    {
      "inputs": [],
      "name": "catPool",
      "outputs": [
        {
          "internalType": "contract IBackstopPool",
          "name": "",
          "type": "address"
        }
      ],
      "stateMutability": "view",
      "type": "function"
    },
    {
      "inputs": [],
      "name": "committee",
      "outputs": [
        {
          "internalType": "address",
          "name": "",
          "type": "address"
        }
      ],
      "stateMutability": "view",
      "type": "function"
    },
    {
      "inputs": [
        {
          "internalType": "address",
          "name": "_underwriter",
          "type": "address"
        }
      ],
      "name": "liquidateInsolventUnderwriter",
      "outputs": [],
      "stateMutability": "nonpayable",
      "type": "function"
    },
    {
      "inputs": [],
      "name": "lossDistributor",
      "outputs": [
        {
          "internalType": "contract ILossDistributor",
          "name": "",
          "type": "address"
        }
      ],
      "stateMutability": "view",
      "type": "function"
    },
    {
      "inputs": [],
      "name": "owner",
      "outputs": [
        {
          "internalType": "address",
          "name": "",
          "type": "address"
        }
      ],
      "stateMutability": "view",
      "type": "function"
    },
    {
      "inputs": [],
      "name": "policyManager",
      "outputs": [
        {
          "internalType": "address",
          "name": "",
          "type": "address"
        }
      ],
      "stateMutability": "view",
      "type": "function"
    },
    {
      "inputs": [],
      "name": "policyNFT",
      "outputs": [
        {
          "internalType": "contract IPolicyNFT",
          "name": "",
          "type": "address"
        }
      ],
      "stateMutability": "view",
      "type": "function"
    },
    {
      "inputs": [],
      "name": "poolRegistry",
      "outputs": [
        {
          "internalType": "contract IPoolRegistry",
          "name": "",
          "type": "address"
        }
      ],
      "stateMutability": "view",
      "type": "function"
    },
    {
      "inputs": [
        {
          "internalType": "uint256",
          "name": "policyId",
          "type": "uint256"
        }
      ],
      "name": "processClaim",
      "outputs": [],
      "stateMutability": "nonpayable",
      "type": "function"
    },
    {
      "inputs": [],
      "name": "renounceOwnership",
      "outputs": [],
      "stateMutability": "nonpayable",
      "type": "function"
    },
    {
      "inputs": [],
      "name": "rewardDistributor",
      "outputs": [
        {
          "internalType": "contract IRewardDistributor",
          "name": "",
          "type": "address"
        }
      ],
      "stateMutability": "view",
      "type": "function"
    },
    {
      "inputs": [
        {
          "internalType": "address",
          "name": "_capital",
          "type": "address"
        },
        {
          "internalType": "address",
          "name": "_registry",
          "type": "address"
        },
        {
          "internalType": "address",
          "name": "_policyManager",
          "type": "address"
        },
        {
          "internalType": "address",
          "name": "_cat",
          "type": "address"
        },
        {
          "internalType": "address",
          "name": "_loss",
          "type": "address"
        },
        {
          "internalType": "address",
          "name": "_rewards",
          "type": "address"
        },
        {
          "internalType": "address",
          "name": "_underwriterManager",
          "type": "address"
        }
      ],
      "name": "setAddresses",
      "outputs": [],
      "stateMutability": "nonpayable",
      "type": "function"
    },
    {
      "inputs": [
        {
          "internalType": "address",
          "name": "_newCommittee",
          "type": "address"
        }
      ],
      "name": "setCommittee",
      "outputs": [],
      "stateMutability": "nonpayable",
      "type": "function"
    },
    {
      "inputs": [
        {
          "internalType": "address",
          "name": "newOwner",
          "type": "address"
        }
      ],
      "name": "transferOwnership",
      "outputs": [],
      "stateMutability": "nonpayable",
      "type": "function"
    },
    {
      "inputs": [],
      "name": "underwriterManager",
      "outputs": [
        {
          "internalType": "contract IUnderwriterManager",
          "name": "",
          "type": "address"
        }
      ],
      "stateMutability": "view",
      "type": "function"
    },
    {
      "inputs": [
        {
          "internalType": "uint256",
          "name": "poolId",
          "type": "uint256"
        },
        {
          "internalType": "uint256",
          "name": "amount",
          "type": "uint256"
        },
        {
          "internalType": "bool",
          "name": "isSale",
          "type": "bool"
        }
      ],
      "name": "updateCoverageSold",
      "outputs": [],
      "stateMutability": "nonpayable",
      "type": "function"
    }
  ],
  "bytecode": "0x6080346100bf57601f611ce038819003918201601f19168301916001600160401b038311848410176100c4578084926020946040528339810103126100bf57516001600160a01b0390818116908190036100bf5780156100a657600080546001600160a01b03198116831782556040519316907f8be0079c531659141344cd1fd0a4f28419497f9722a3daafe3b4186f6b6457e09080a360018055611c0590816100db8239f35b604051631e4fbdf760e01b815260006004820152602490fd5b600080fd5b634e487b7160e01b600052604160045260246000fdfe608080604052600436101561001357600080fd5b600090813560e01c9081630342a907146115735750806317a7ee6514611556578063249d39e914611539578063426483a6146115125780635bfb7508146114eb5780635c9244af146114c45780635d293f9e1461140f578063715018a6146113a85780637257dfc9146109a25780638da5cb5b1461097c578063ab3dbf3b14610955578063acc2166a1461092e578063af02808a14610907578063afcff50f146108e0578063bddae40e14610862578063d864e7401461083b578063de51d2bb1461042b578063eaa8ba7f146101a25763f2fde38b146100f257600080fd5b3461019f57602036600319011261019f5761010b611598565b610113611631565b6001600160a01b0380911690811561016e576000548273ffffffffffffffffffffffffffffffffffffffff19821617600055167f8be0079c531659141344cd1fd0a4f28419497f9722a3daafe3b4186f6b6457e0600080a380f35b602483604051907f1e4fbdf70000000000000000000000000000000000000000000000000000000082526004820152fd5b80fd5b503461019f5760e036600319011261019f576101bc611598565b6024356001600160a01b0391828216809203610426576044358381168091036104265760643584811680910361042657608435908582168092036104265760a435928684168094036104265760c43594878616809603610426578790610220611631565b16958615801561041e575b8015610416575b801561040e575b8015610406575b80156103fe575b80156103f6575b6103cc5773ffffffffffffffffffffffffffffffffffffffff19978789600254161760025581896003541617600355828960095416176009556040517faf02808a000000000000000000000000000000000000000000000000000000008152602081600481875afa9081156103c1578b9161034b575b50967ff6409549cf8ba8bf1c5a0b2a8c472fd1b5a9c8ff7067cebd4e713cf4d15f3f32998197969594939260e09a99168160045416176004558481600554161760055585816006541617600655868160075416176007556008541617600855604051968752602087015260408601526060850152608084015260a083015260c0820152a180f35b90506020989796959493929198813d6020116103b9575b8161036f602093836115de565b810103126103b5575188811681036103b5577ff6409549cf8ba8bf1c5a0b2a8c472fd1b5a9c8ff7067cebd4e713cf4d15f3f329960e099929394959697989950996102c4565b8a80fd5b3d9150610362565b6040513d8d823e3d90fd5b60046040517f8579befe000000000000000000000000000000000000000000000000000000008152fd5b50851561024e565b508415610247565b508315610240565b508215610239565b508115610232565b50801561022b565b600080fd5b503461019f576020908160031936011261019f57610447611598565b91610450611675565b6001600160a01b039182600254169183604051957f731f25c0000000000000000000000000000000000000000000000000000000008752168060048701526024956080818881885afa9081156108305784916107eb575b50801561073257829087604051809781937f8a69c8dd00000000000000000000000000000000000000000000000000000000835260048301525afa9384156107e05783946107b1575b50846008541690604051947f55a1930400000000000000000000000000000000000000000000000000000000865281600487015284868981865afa9586156107a657859661075c575b5095948490859660065416915b8151881015610687576105598883611a8c565b516040517ffb7ce357000000000000000000000000000000000000000000000000000000008152856004820152818c8201526044888282818b5afa91821561067c578a9261064d575b50604051927f9c9426790000000000000000000000000000000000000000000000000000000084528760048501528d8401528201528681606481875afa908115610642578891610615575b50810180911161060257600190970196610546565b8987634e487b7160e01b81526011600452fd5b90508681813d831161063b575b61062c81836115de565b810103126104265751386105ed565b503d610622565b6040513d8a823e3d90fd5b9091508881813d8311610675575b61066581836115de565b81010312610426575190386105a2565b503d61065b565b6040513d8c823e3d90fd5b838a868b8a941115610732578391813b1561072e5782918291604051809481937f845132320000000000000000000000000000000000000000000000000000000083528860048401525af180156107235761070b575b5050337fba59811b72bb5d2e4c1ecc0eef9821dbe02fb865bba67e9318d50b491dd1f54b8380a36001805580f35b610714906115ae565b61071f5781836106dd565b5080fd5b6040513d84823e3d90fd5b8280fd5b60046040517fac335932000000000000000000000000000000000000000000000000000000008152fd5b9095503d8086833e61076e81836115de565b81019084818303126107a25780519067ffffffffffffffff821161079e576107979291016116c8565b9438610539565b8680fd5b8580fd5b6040513d87823e3d90fd5b9093508181813d83116107d9575b6107c981836115de565b81010312610426575192386104f0565b503d6107bf565b6040513d85823e3d90fd5b90506080813d608011610828575b81610806608093836115de565b810103126108245760048382015110156108245760400151386104a7565b8380fd5b3d91506107f9565b6040513d86823e3d90fd5b503461019f578060031936011261019f5760206001600160a01b03600a5416604051908152f35b503461019f57602036600319011261019f576001600160a01b03610884611598565b61088c611631565b1680156103cc576020817f66fc13429d88ce88ca5934124e753e47ea4b02d41cc1d9d2010eb5504d1ec3279273ffffffffffffffffffffffffffffffffffffffff19600a541617600a55604051908152a180f35b503461019f578060031936011261019f5760206001600160a01b0360035416604051908152f35b503461019f578060031936011261019f5760206001600160a01b0360045416604051908152f35b503461019f578060031936011261019f5760206001600160a01b0360075416604051908152f35b503461019f578060031936011261019f5760206001600160a01b0360095416604051908152f35b503461019f578060031936011261019f576001600160a01b036020915416604051908152f35b503461019f57602036600319011261019f576109bc611675565b6001600160a01b036004541690604051907f6352211e0000000000000000000000000000000000000000000000000000000082526004356004830152602082602481865afa9182156111a757819261136c575b506001600160a01b03821633036113425760c0602493604051948580927f2b07fce300000000000000000000000000000000000000000000000000000000825260043560048301525afa9283156111a75781936112bf575b5060608301514210611295576040519161012083019083821067ffffffffffffffff8311176110875782826001600160a01b0393604052610aa7816115c2565b52826101408501528261016085015282610180850152826101a0850152826101c0850152826040850152826060850152826080850152606060a0850152606060c08501528260e08501528261010085015284845216602083015260206001600160a01b0360035416930151604051907fe139c3f000000000000000000000000000000000000000000000000000000000825260048201528181602481875afa908115610723578291839184916111b4575b50604085015260c084015260a083015260e06020835101516024604051809681937fd21c87ad00000000000000000000000000000000000000000000000000000000835260048301525afa80156111a7578190829083908490611133575b6080860152151561010085015260e08401526001600160a01b03166060830152909150610be282611742565b81519182519260408201519060206001600160a01b0360065416910151813b15610f3c5784916064839260405194859384927f5385653300000000000000000000000000000000000000000000000000000000845260048401528a60248401528760448401525af180156108305790849161111f575b505083811881851002811884111561111957610c7c81851082861802821885611a36565b806110a5575b50612710610c97835151608085015190611a59565b04938251518580821160001461109d57610cb091611a36565b6001600160a01b03602085015116956001600160a01b03600a54169060a08601519060c0870151926040880151946040519a8b67ffffffffffffffff60e08281810110920111176110875760e08c016040528b5260208b015260408a01526060890152608088015260a087015260c08601526001600160a01b0360025416803b15610f3c5794604051907f3c139af6000000000000000000000000000000000000000000000000000000008252602060048301526001600160a01b038151166024830152602081015160448301526001600160a01b0360408201511660648301526060810151608483015260808101519060e060a484015281518061010485015260206101248501930190885b8181106110685750505060a0810151916023198482030160c485015260208084519283815201930190885b818110611052575050508697838881819560c08296015160e483015203925af19081156107a6578591611039575b5050818110828218028214158061102c575b610f40575b5050610100810151610eb1575b506001600160a01b0360045416803b15610eae578180916024604051809481937f42966c6800000000000000000000000000000000000000000000000000000000835260043560048401525af1801561072357610e9a575b506001805580f35b610ea3906115ae565b61019f578038610e92565b50fd5b805160e08151920151918280821091180291828103610ed2575b5050610e3a565b60206001600160a01b036003541692015191803b15610f3c578492836064926040519687958694632e949fcf60e11b865260048601521860248401528160448401525af1801561072357610f28575b8080610ecb565b610f31906115ae565b61019f578038610f21565b8480fd5b90925b8460a08401515182101561102157610f77610f628360c0870151611a8c565b51604086015190878610888718028818611b32565b80610f87575b5050600101610f43565b6001600160a01b0360035416602086510151906001600160a01b03610fb08660a08a0151611a8c565b511690803b15610f3c5784928360849260405196879586947fa6bd24ab0000000000000000000000000000000000000000000000000000000086526004860152602485015260448401528160648401525af180156107235715610f7d57611016906115ae565b610f3c578438610f7d565b935050503880610e2d565b5060408301511515610e28565b611042906115ae565b61104d578338610e16565b505050fd5b8251855260209485019490920191600101610de8565b82516001600160a01b0316855260209485019490920191600101610dbd565b634e487b7160e01b600052604160045260246000fd5b505083610cb0565b6001600160a01b036005541690813b15610f3c5784916024839260405194859384927f9b154aea00000000000000000000000000000000000000000000000000000000845260048401525af1801561083057908491611105575b50610c82565b61110e906115ae565b61072e5782386110ff565b82610c7c565b611128906115ae565b61072e578238610c58565b5050505060e0833d60e01161119f575b8161115060e093836115de565b8101031261019f5761116183611600565b60408401519060808501519081151582036108245760c08661118f60a06001600160a01b0397989901611600565b5001519092919086959450610bb6565b3d9150611143565b50604051903d90823e3d90fd5b925050503d8083833e6111c781836115de565b606082828101031261072e5781519067ffffffffffffffff821161082457808301601f8385010112156108245781830151611201816116b0565b9261120f60405194856115de565b818452602084019083860160208460051b83890101011161079e5790602082870101915b60208460051b8289010101831061127a575050505060208301519067ffffffffffffffff8211610f3c5760409161126e9185019085016116c8565b92015190919038610b58565b602080809361128886611600565b8152019301929150611233565b60046040517f8966b51f000000000000000000000000000000000000000000000000000000008152fd5b90925060c0813d60c01161133a575b816112db60c093836115de565b8101031261072e5761132e60a0604051926112f5846115c2565b8051845260208101516020850152604081015160408501526060810151606085015261132360808201611614565b608085015201611614565b60a08201529138610a67565b3d91506112ce565b60046040517f01647d11000000000000000000000000000000000000000000000000000000008152fd5b9091506020813d6020116113a0575b81611388602093836115de565b8101031261071f5761139990611600565b9038610a0f565b3d915061137b565b503461019f578060031936011261019f576113c1611631565b60006001600160a01b03815473ffffffffffffffffffffffffffffffffffffffff1981168355167f8be0079c531659141344cd1fd0a4f28419497f9722a3daafe3b4186f6b6457e08280a380f35b503461019f57606036600319011261019f5760443580151580910361071f576001600160a01b03908160095416330361149a57829160035416803b1561149657606483926040519485938492632e949fcf60e11b84526004356004850152602435602485015260448401525af180156107235761148a575080f35b611493906115ae565b80f35b5050fd5b60046040517f22485e99000000000000000000000000000000000000000000000000000000008152fd5b503461019f578060031936011261019f5760206001600160a01b0360055416604051908152f35b503461019f578060031936011261019f5760206001600160a01b0360025416604051908152f35b503461019f578060031936011261019f5760206001600160a01b0360065416604051908152f35b503461019f578060031936011261019f5760206040516127108152f35b503461019f578060031936011261019f5760206040516101f48152f35b90503461071f578160031936011261071f576020906001600160a01b03600854168152f35b600435906001600160a01b038216820361042657565b67ffffffffffffffff811161108757604052565b60c0810190811067ffffffffffffffff82111761108757604052565b90601f8019910116810190811067ffffffffffffffff82111761108757604052565b51906001600160a01b038216820361042657565b51906fffffffffffffffffffffffffffffffff8216820361042657565b6001600160a01b0360005416330361164557565b60246040517f118cdaa7000000000000000000000000000000000000000000000000000000008152336004820152fd5b600260015414611686576002600155565b60046040517f3ee5aeb5000000000000000000000000000000000000000000000000000000008152fd5b67ffffffffffffffff81116110875760051b60200190565b9080601f83011215610426578151906020916116e3816116b0565b936116f160405195866115de565b81855260208086019260051b82010192831161042657602001905b82821061171a575050505090565b8151815290830190830161170c565b90816020910312610426575160ff811681036104265790565b805151158015611a21575b611a1e57606081016001600160a01b0390818151169060409283518080947f313ce5670000000000000000000000000000000000000000000000000000000090818352602096879160049586915afa9182156119ac579083916000936119ff575b508685600254168951938480927f7158da7c0000000000000000000000000000000000000000000000000000000082525afa9182156119f4579184889287946000936119b7575b508a5194859384928352165afa9081156119ac5790611820929160009161197f575b50885151611adb565b918084511681600754168751878101917f23b872dd00000000000000000000000000000000000000000000000000000000835233602483015260448201528560648201526064815260a0810181811067ffffffffffffffff82111761196a5789525187916000919082855af11561195f576000513d6119565750803b155b611927575080869160075416958851015194511696015191843b156104265760009460849386928851998a9788967ffc9675420000000000000000000000000000000000000000000000000000000088528701526024860152604485015260648401525af190811561191d57506119125750565b61191b906115ae565b565b513d6000823e3d90fd5b826024918851917f5274afe7000000000000000000000000000000000000000000000000000000008352820152fd5b6001141561189e565b86513d6000823e3d90fd5b604186634e487b7160e01b6000525260246000fd5b61199f9150873d89116119a5575b61199781836115de565b810190611729565b38611817565b503d61198d565b87513d6000823e3d90fd5b93925093505081813d83116119ed575b6119d181836115de565b81010312610426578491846119e68993611600565b91386117f5565b503d6119c7565b88513d6000823e3d90fd5b611a17919350873d89116119a55761199781836115de565b91386117ae565b50565b506001600160a01b036060820151161561174d565b91908203918211611a4357565b634e487b7160e01b600052601160045260246000fd5b81810292918115918404141715611a4357565b8115611a76570490565b634e487b7160e01b600052601260045260246000fd5b8051821015611aa05760209160051b010190565b634e487b7160e01b600052603260045260246000fd5b9060ff8091169116039060ff8211611a4357565b60ff16604d8111611a4357600a0a90565b9060ff811660ff8416818111600014611b0e575050611b00611b0591611b0b94611ab6565b611aca565b90611a59565b90565b93929310611b1b57505090565b611b00611b0b9392611b2c92611ab6565b90611a6c565b90916000198383099280830292838086109503948086039514611bc25784831115611ba9579082910981600003821680920460028082600302188083028203028083028203028083028203028083028203028083028203028092029003029360018380600003040190848311900302920304170290565b82634e487b71600052156003026011186020526024601cfd5b505090611b0b9250611a6c56fea2646970667358221220f02a1847b64ad3505051ed58d2bbaadc5e3e7f303559da112ab383d760a02d3d64736f6c63430008160033",
  "linkReferences": {},
  "deployedLinkReferences": {}
}