{
  "_format": "hh-sol-artifact-1",
  "contractName": "RiskManager",
  "sourceName": "contracts/core/RiskManager.sol",
  "abi": [
    {
      "inputs": [
        {
          "internalType": "address",
          "name": "_initialOwner",
          "type": "address"
        }
      ],
      "stateMutability": "nonpayable",
      "type": "constructor"
    },
    {
      "inputs": [],
      "name": "InvalidClaimAmount",
      "type": "error"
    },
    {
      "inputs": [],
      "name": "NotPolicyManager",
      "type": "error"
    },
    {
      "inputs": [],
      "name": "OnlyPolicyOwner",
      "type": "error"
    },
    {
      "inputs": [
        {
          "internalType": "address",
          "name": "owner",
          "type": "address"
        }
      ],
      "name": "OwnableInvalidOwner",
      "type": "error"
    },
    {
      "inputs": [
        {
          "internalType": "address",
          "name": "account",
          "type": "address"
        }
      ],
      "name": "OwnableUnauthorizedAccount",
      "type": "error"
    },
    {
      "inputs": [],
      "name": "PolicyNotActive",
      "type": "error"
    },
    {
      "inputs": [],
      "name": "ReentrancyGuardReentrantCall",
      "type": "error"
    },
    {
      "inputs": [
        {
          "internalType": "address",
          "name": "token",
          "type": "address"
        }
      ],
      "name": "SafeERC20FailedOperation",
      "type": "error"
    },
    {
      "inputs": [],
      "name": "UnderwriterNotInsolvent",
      "type": "error"
    },
    {
      "inputs": [],
      "name": "ZeroAddressNotAllowed",
      "type": "error"
    },
    {
      "anonymous": false,
      "inputs": [
        {
          "indexed": false,
          "internalType": "address",
          "name": "capital",
          "type": "address"
        },
        {
          "indexed": false,
          "internalType": "address",
          "name": "registry",
          "type": "address"
        },
        {
          "indexed": false,
          "internalType": "address",
          "name": "policyMgr",
          "type": "address"
        },
        {
          "indexed": false,
          "internalType": "address",
          "name": "cat",
          "type": "address"
        },
        {
          "indexed": false,
          "internalType": "address",
          "name": "loss",
          "type": "address"
        },
        {
          "indexed": false,
          "internalType": "address",
          "name": "rewards",
          "type": "address"
        },
        {
          "indexed": false,
          "internalType": "address",
          "name": "underwriterMgr",
          "type": "address"
        }
      ],
      "name": "AddressesSet",
      "type": "event"
    },
    {
      "anonymous": false,
      "inputs": [
        {
          "indexed": true,
          "internalType": "uint256",
          "name": "policyId",
          "type": "uint256"
        },
        {
          "indexed": false,
          "internalType": "uint256",
          "name": "amountClaimed",
          "type": "uint256"
        },
        {
          "indexed": false,
          "internalType": "bool",
          "name": "isFullClaim",
          "type": "bool"
        }
      ],
      "name": "ClaimProcessed",
      "type": "event"
    },
    {
      "anonymous": false,
      "inputs": [
        {
          "indexed": false,
          "internalType": "address",
          "name": "committee",
          "type": "address"
        }
      ],
      "name": "CommitteeSet",
      "type": "event"
    },
    {
      "anonymous": false,
      "inputs": [
        {
          "indexed": true,
          "internalType": "address",
          "name": "previousOwner",
          "type": "address"
        },
        {
          "indexed": true,
          "internalType": "address",
          "name": "newOwner",
          "type": "address"
        }
      ],
      "name": "OwnershipTransferred",
      "type": "event"
    },
    {
      "anonymous": false,
      "inputs": [
        {
          "indexed": true,
          "internalType": "address",
          "name": "liquidator",
          "type": "address"
        },
        {
          "indexed": true,
          "internalType": "address",
          "name": "underwriter",
          "type": "address"
        }
      ],
      "name": "UnderwriterLiquidated",
      "type": "event"
    },
    {
      "inputs": [],
      "name": "BPS",
      "outputs": [
        {
          "internalType": "uint256",
          "name": "",
          "type": "uint256"
        }
      ],
      "stateMutability": "view",
      "type": "function"
    },
    {
      "inputs": [],
      "name": "CLAIM_FEE_BPS",
      "outputs": [
        {
          "internalType": "uint256",
          "name": "",
          "type": "uint256"
        }
      ],
      "stateMutability": "view",
      "type": "function"
    },
    {
      "inputs": [],
      "name": "capitalPool",
      "outputs": [
        {
          "internalType": "contract ICapitalPool",
          "name": "",
          "type": "address"
        }
      ],
      "stateMutability": "view",
      "type": "function"
    },
    {
      "inputs": [],
      "name": "catPool",
      "outputs": [
        {
          "internalType": "contract IBackstopPool",
          "name": "",
          "type": "address"
        }
      ],
      "stateMutability": "view",
      "type": "function"
    },
    {
      "inputs": [],
      "name": "committee",
      "outputs": [
        {
          "internalType": "address",
          "name": "",
          "type": "address"
        }
      ],
      "stateMutability": "view",
      "type": "function"
    },
    {
      "inputs": [
        {
          "internalType": "address",
          "name": "_underwriter",
          "type": "address"
        }
      ],
      "name": "liquidateInsolventUnderwriter",
      "outputs": [],
      "stateMutability": "nonpayable",
      "type": "function"
    },
    {
      "inputs": [],
      "name": "lossDistributor",
      "outputs": [
        {
          "internalType": "contract ILossDistributor",
          "name": "",
          "type": "address"
        }
      ],
      "stateMutability": "view",
      "type": "function"
    },
    {
      "inputs": [],
      "name": "owner",
      "outputs": [
        {
          "internalType": "address",
          "name": "",
          "type": "address"
        }
      ],
      "stateMutability": "view",
      "type": "function"
    },
    {
      "inputs": [],
      "name": "policyManager",
      "outputs": [
        {
          "internalType": "address",
          "name": "",
          "type": "address"
        }
      ],
      "stateMutability": "view",
      "type": "function"
    },
    {
      "inputs": [],
      "name": "policyNFT",
      "outputs": [
        {
          "internalType": "contract IPolicyNFT",
          "name": "",
          "type": "address"
        }
      ],
      "stateMutability": "view",
      "type": "function"
    },
    {
      "inputs": [],
      "name": "poolRegistry",
      "outputs": [
        {
          "internalType": "contract IPoolRegistry",
          "name": "",
          "type": "address"
        }
      ],
      "stateMutability": "view",
      "type": "function"
    },
    {
      "inputs": [
        {
          "internalType": "uint256",
          "name": "policyId",
          "type": "uint256"
        },
        {
          "internalType": "uint256",
          "name": "claimAmount",
          "type": "uint256"
        }
      ],
      "name": "processClaim",
      "outputs": [],
      "stateMutability": "nonpayable",
      "type": "function"
    },
    {
      "inputs": [],
      "name": "renounceOwnership",
      "outputs": [],
      "stateMutability": "nonpayable",
      "type": "function"
    },
    {
      "inputs": [],
      "name": "rewardDistributor",
      "outputs": [
        {
          "internalType": "contract IRewardDistributor",
          "name": "",
          "type": "address"
        }
      ],
      "stateMutability": "view",
      "type": "function"
    },
    {
      "inputs": [
        {
          "internalType": "address",
          "name": "_capital",
          "type": "address"
        },
        {
          "internalType": "address",
          "name": "_registry",
          "type": "address"
        },
        {
          "internalType": "address",
          "name": "_policyManager",
          "type": "address"
        },
        {
          "internalType": "address",
          "name": "_cat",
          "type": "address"
        },
        {
          "internalType": "address",
          "name": "_loss",
          "type": "address"
        },
        {
          "internalType": "address",
          "name": "_rewards",
          "type": "address"
        },
        {
          "internalType": "address",
          "name": "_underwriterManager",
          "type": "address"
        }
      ],
      "name": "setAddresses",
      "outputs": [],
      "stateMutability": "nonpayable",
      "type": "function"
    },
    {
      "inputs": [
        {
          "internalType": "address",
          "name": "_newCommittee",
          "type": "address"
        }
      ],
      "name": "setCommittee",
      "outputs": [],
      "stateMutability": "nonpayable",
      "type": "function"
    },
    {
      "inputs": [
        {
          "internalType": "address",
          "name": "newOwner",
          "type": "address"
        }
      ],
      "name": "transferOwnership",
      "outputs": [],
      "stateMutability": "nonpayable",
      "type": "function"
    },
    {
      "inputs": [],
      "name": "underwriterManager",
      "outputs": [
        {
          "internalType": "contract IUnderwriterManager",
          "name": "",
          "type": "address"
        }
      ],
      "stateMutability": "view",
      "type": "function"
    },
    {
      "inputs": [
        {
          "internalType": "uint256",
          "name": "poolId",
          "type": "uint256"
        },
        {
          "internalType": "uint256",
          "name": "amount",
          "type": "uint256"
        },
        {
          "internalType": "bool",
          "name": "isSale",
          "type": "bool"
        }
      ],
      "name": "updateCoverageSold",
      "outputs": [],
      "stateMutability": "nonpayable",
      "type": "function"
    }
  ],
  "bytecode": "0x6080346100bf57601f611e0838819003918201601f19168301916001600160401b038311848410176100c4578084926020946040528339810103126100bf57516001600160a01b0390818116908190036100bf5780156100a657600080546001600160a01b03198116831782556040519316907f8be0079c531659141344cd1fd0a4f28419497f9722a3daafe3b4186f6b6457e09080a360018055611d2d90816100db8239f35b604051631e4fbdf760e01b815260006004820152602490fd5b600080fd5b634e487b7160e01b600052604160045260246000fdfe608080604052600436101561001357600080fd5b600090813560e01c9081630342a907146116985750806317a7ee651461167b578063249d39e91461165e578063426483a61461163757806347daf36614610b125780635bfb750814610aeb5780635c9244af14610ac45780635d293f9e14610a09578063715018a6146109a25780638da5cb5b1461097c578063ab3dbf3b14610955578063acc2166a1461092e578063af02808a14610907578063afcff50f146108e0578063bddae40e14610862578063d864e7401461083b578063de51d2bb1461042b578063eaa8ba7f146101a25763f2fde38b146100f257600080fd5b3461019f57602036600319011261019f5761010b6116bd565b610113611b9a565b6001600160a01b0380911690811561016e576000548273ffffffffffffffffffffffffffffffffffffffff19821617600055167f8be0079c531659141344cd1fd0a4f28419497f9722a3daafe3b4186f6b6457e0600080a380f35b602483604051907f1e4fbdf70000000000000000000000000000000000000000000000000000000082526004820152fd5b80fd5b503461019f5760e036600319011261019f576101bc6116bd565b6024356001600160a01b0391828216809203610426576044358381168091036104265760643584811680910361042657608435908582168092036104265760a435928684168094036104265760c43594878616809603610426578790610220611b9a565b16958615801561041e575b8015610416575b801561040e575b8015610406575b80156103fe575b80156103f6575b6103cc5773ffffffffffffffffffffffffffffffffffffffff19978789600254161760025581896003541617600355828960095416176009556040517faf02808a000000000000000000000000000000000000000000000000000000008152602081600481875afa9081156103c1578b9161034b575b50967ff6409549cf8ba8bf1c5a0b2a8c472fd1b5a9c8ff7067cebd4e713cf4d15f3f32998197969594939260e09a99168160045416176004558481600554161760055585816006541617600655868160075416176007556008541617600855604051968752602087015260408601526060850152608084015260a083015260c0820152a180f35b90506020989796959493929198813d6020116103b9575b8161036f60209383611703565b810103126103b5575188811681036103b5577ff6409549cf8ba8bf1c5a0b2a8c472fd1b5a9c8ff7067cebd4e713cf4d15f3f329960e099929394959697989950996102c4565b8a80fd5b3d9150610362565b6040513d8d823e3d90fd5b60046040517f8579befe000000000000000000000000000000000000000000000000000000008152fd5b50851561024e565b508415610247565b508315610240565b508215610239565b508115610232565b50801561022b565b600080fd5b503461019f576020908160031936011261019f576104476116bd565b91610450611756565b6001600160a01b039182600254169183604051957f731f25c0000000000000000000000000000000000000000000000000000000008752168060048701526024956080818881885afa9081156108305784916107eb575b50801561073257829087604051809781937f8a69c8dd00000000000000000000000000000000000000000000000000000000835260048301525afa9384156107e05783946107b1575b50846008541690604051947f55a1930400000000000000000000000000000000000000000000000000000000865281600487015284868981865afa9586156107a657859661075c575b5095948490859660065416915b8151881015610687576105598883611b70565b516040517ffb7ce357000000000000000000000000000000000000000000000000000000008152856004820152818c8201526044888282818b5afa91821561067c578a9261064d575b50604051927f9c9426790000000000000000000000000000000000000000000000000000000084528760048501528d8401528201528681606481875afa908115610642578891610615575b50810180911161060257600190970196610546565b8987634e487b7160e01b81526011600452fd5b90508681813d831161063b575b61062c8183611703565b810103126104265751386105ed565b503d610622565b6040513d8a823e3d90fd5b9091508881813d8311610675575b6106658183611703565b81010312610426575190386105a2565b503d61065b565b6040513d8c823e3d90fd5b838a868b8a941115610732578391813b1561072e5782918291604051809481937f845132320000000000000000000000000000000000000000000000000000000083528860048401525af180156107235761070b575b5050337fba59811b72bb5d2e4c1ecc0eef9821dbe02fb865bba67e9318d50b491dd1f54b8380a36001805580f35b610714906116ef565b61071f5781836106dd565b5080fd5b6040513d84823e3d90fd5b8280fd5b60046040517fac335932000000000000000000000000000000000000000000000000000000008152fd5b9095503d8086833e61076e8183611703565b81019084818303126107a25780519067ffffffffffffffff821161079e576107979291016117a9565b9438610539565b8680fd5b8580fd5b6040513d87823e3d90fd5b9093508181813d83116107d9575b6107c98183611703565b81010312610426575192386104f0565b503d6107bf565b6040513d85823e3d90fd5b90506080813d608011610828575b8161080660809383611703565b810103126108245760048382015110156108245760400151386104a7565b8380fd5b3d91506107f9565b6040513d86823e3d90fd5b503461019f578060031936011261019f5760206001600160a01b03600a5416604051908152f35b503461019f57602036600319011261019f576001600160a01b036108846116bd565b61088c611b9a565b1680156103cc576020817f66fc13429d88ce88ca5934124e753e47ea4b02d41cc1d9d2010eb5504d1ec3279273ffffffffffffffffffffffffffffffffffffffff19600a541617600a55604051908152a180f35b503461019f578060031936011261019f5760206001600160a01b0360035416604051908152f35b503461019f578060031936011261019f5760206001600160a01b0360045416604051908152f35b503461019f578060031936011261019f5760206001600160a01b0360075416604051908152f35b503461019f578060031936011261019f5760206001600160a01b0360095416604051908152f35b503461019f578060031936011261019f576001600160a01b036020915416604051908152f35b503461019f578060031936011261019f576109bb611b9a565b60006001600160a01b03815473ffffffffffffffffffffffffffffffffffffffff1981168355167f8be0079c531659141344cd1fd0a4f28419497f9722a3daafe3b4186f6b6457e08280a380f35b503461019f57606036600319011261019f5760443580151580910361071f576001600160a01b039081600954163303610a9a5782916003541690813b15610a96578291606483926040519485938492632e949fcf60e11b84526004356004850152602435602485015260448401525af1801561072357610a865750f35b610a8f906116ef565b61019f5780f35b5050fd5b60046040517f22485e99000000000000000000000000000000000000000000000000000000008152fd5b503461019f578060031936011261019f5760206001600160a01b0360055416604051908152f35b503461019f578060031936011261019f5760206001600160a01b0360025416604051908152f35b503461019f57604036600319011261019f57610b2c611756565b6001600160a01b0360045416604051917f6352211e0000000000000000000000000000000000000000000000000000000083526004356004840152602083602481855afa9283156115c45781936115fb575b506001600160a01b03831633036115d15760c0602492604051938480927f2b07fce300000000000000000000000000000000000000000000000000000000825260043560048301525afa9182156115c4578192611541575b50606082015142106115175760243515801561150b575b6114e15760405192610120840184811067ffffffffffffffff8211176114cd579082826001600160a01b0393604052610c25816116d3565b52826101408601528261016086015282610180860152826101a0860152826101c0860152826040860152826060860152826080860152606060a0860152606060c08601528260e0860152826101008601528385521660208401526001600160a01b03600354166020830151604051907fe139c3f000000000000000000000000000000000000000000000000000000000825260048201528281602481855afa9081156107e0578391849185916113e8575b50604087015260c086015260a085015260e06020855101516024604051809481937fd21c87ad00000000000000000000000000000000000000000000000000000000835260048301525afa8015610723578290839084908590611376575b6080880152151561010087015260e08601526001600160a01b0316606085015250610d6160243584611823565b6001600160a01b0360065416602084510151604085015190823b156108245790606484928360405195869485937f538565330000000000000000000000000000000000000000000000000000000085526004850152602435602485015260448401525af1801561072357611367575b5090604083015192836024351084602435180284186024351160001461136157610e0560243580861886821002861890611b1a565b806112ed575b50612710610e1f6080830151602435611b3d565b049384602435116000146112e757610e3985602435611b1a565b6001600160a01b03602084015116956001600160a01b03600a54169060a08501519060c0860151926040870151946040519a8b67ffffffffffffffff60e08281810110920111176112d15760e08c016040528b5260208b015260408a01526060890152608088015260a087015260c08601526001600160a01b0360025416803b156111885794604051907f3c139af6000000000000000000000000000000000000000000000000000000008252602060048301526001600160a01b038151166024830152602081015160448301526001600160a01b0360408201511660648301526060810151608483015260808101519060e060a484015281518061010485015260206101248501930190885b8181106112b25750505060a0810151916023198482030160c485015260208084519283815201930190885b81811061129c57505050869783888181999a9560c08296015160e483015203925af1908115610830578491611288575b505080602435108160243518028114158061127b575b61118c575b506101008101516110fc575b50505160243514801561108157816001600160a01b0360045416803b1561071f578180916024604051809481937f42966c6800000000000000000000000000000000000000000000000000000000835260043560048401525af180156107235761106d575b50505b60405190602435825260208201527f47d6b74f128d91ea1a0539d711bc0a10c0c9025d02b326ebef0b7e03900cc50b604060043592a26001805580f35b611076906116ef565b61071f57813861102d565b816001600160a01b0360045416803b1561071f578180916044604051809481937f60e0ca8f000000000000000000000000000000000000000000000000000000008352600435600484015260243560248401525af18015610723576110e8575b5050611030565b6110f1906116ef565b61071f5781386110e1565b60e08101519081602435108260243518029182810361111d575b5050610fc8565b60206001600160a01b03600354169251015191803b15611188578492836064926040519687958694632e949fcf60e11b865260048601521860248401528160448401525af1801561072357611174575b8080611116565b61117d906116ef565b61071f57813861116d565b8480fd5b90915b8460a084015151821015611271576111c76111ae8360c0870151611b70565b5160408601519085602435108660243518028618611c5a565b806111d7575b505060010161118f565b6001600160a01b0360035416602086510151906001600160a01b036112008660a08a0151611b70565b511690803b156111885784928360849260405196879586947fa6bd24ab0000000000000000000000000000000000000000000000000000000086526004860152602485015260448401528160648401525af1801561072357156111cd57611266906116ef565b6111885784386111cd565b9291505038610fbc565b5060408201511515610fb7565b611291906116ef565b61072e578238610fa1565b8251855260209485019490920191600101610f71565b82516001600160a01b0316855260209485019490920191600101610f46565b634e487b7160e01b600052604160045260246000fd5b83610e39565b6001600160a01b036005541690813b156111885784916024839260405194859384927f9b154aea00000000000000000000000000000000000000000000000000000000845260048401525af180156108305790849161134d575b50610e0b565b611356906116ef565b61072e578238611347565b82610e05565b611370906116ef565b38610dd0565b5050505060e0813d60e0116113e0575b8161139360e09383611703565b8101031261071f576113a481611725565b906040810151916080820151918215158303611188579060c0826113d460a06001600160a01b0397969501611725565b50015190929190610d34565b3d9150611386565b925050503d8084833e6113fb8183611703565b60608282810103126108245781519067ffffffffffffffff821161118857808301601f838501011215611188578183015161143581611791565b926114436040519485611703565b818452602084019083860160208460051b8389010101116114c95790602082870101915b60208460051b828901010183106114ae575050505060208301519067ffffffffffffffff82116107a2576040916114a29185019085016117a9565b92015190919038610cd6565b60208080936114bc86611725565b8152019301929150611467565b8780fd5b602483634e487b7160e01b81526041600452fd5b60046040517f843ce46b000000000000000000000000000000000000000000000000000000008152fd5b50815160243511610bed565b60046040517f8966b51f000000000000000000000000000000000000000000000000000000008152fd5b90915060c0813d60c0116115bc575b8161155d60c09383611703565b8101031261071f576115b060a060405192611577846116d3565b805184526020810151602085015260408101516040850152606081015160608501526115a560808201611739565b608085015201611739565b60a08201529038610bd6565b3d9150611550565b50604051903d90823e3d90fd5b60046040517f01647d11000000000000000000000000000000000000000000000000000000008152fd5b9092506020813d60201161162f575b8161161760209383611703565b8101031261072e5761162890611725565b9138610b7e565b3d915061160a565b503461019f578060031936011261019f5760206001600160a01b0360065416604051908152f35b503461019f578060031936011261019f5760206040516127108152f35b503461019f578060031936011261019f5760206040516101f48152f35b90503461071f578160031936011261071f576020906001600160a01b03600854168152f35b600435906001600160a01b038216820361042657565b60c0810190811067ffffffffffffffff8211176112d157604052565b67ffffffffffffffff81116112d157604052565b90601f8019910116810190811067ffffffffffffffff8211176112d157604052565b51906001600160a01b038216820361042657565b51906fffffffffffffffffffffffffffffffff8216820361042657565b600260015414611767576002600155565b60046040517f3ee5aeb5000000000000000000000000000000000000000000000000000000008152fd5b67ffffffffffffffff81116112d15760051b60200190565b9080601f83011215610426578151906020916117c481611791565b936117d26040519586611703565b81855260208086019260051b82010192831161042657602001905b8282106117fb575050505090565b815181529083019083016117ed565b90816020910312610426575160ff811681036104265790565b9080158015611b05575b611b015760608201906001600160a01b039182815116926040938451809481927f313ce5670000000000000000000000000000000000000000000000000000000090818452602097889160049687915afa928315611a8f57908491600094611ae2575b508786600254168a51938480927f7158da7c0000000000000000000000000000000000000000000000000000000082525afa918215611ad75791858992889594600093611a9a575b508b5195869384928352165afa918215611a8f5790611901939291600092611a60575b50611c03565b918084511681600754168751878101917f23b872dd00000000000000000000000000000000000000000000000000000000835233602483015260448201528560648201526064815260a0810181811067ffffffffffffffff821117611a4b5789525187916000919082855af115611a40576000513d611a375750803b155b611a08575080869160075416958851015194511696015191843b156104265760009460849386928851998a9788967ffc9675420000000000000000000000000000000000000000000000000000000088528701526024860152604485015260648401525af19081156119fe57506119f35750565b6119fc906116ef565b565b513d6000823e3d90fd5b826024918851917f5274afe7000000000000000000000000000000000000000000000000000000008352820152fd5b6001141561197f565b86513d6000823e3d90fd5b604186634e487b7160e01b6000525260246000fd5b611a81919250883d8a11611a88575b611a798183611703565b81019061180a565b90386118fb565b503d611a6f565b88513d6000823e3d90fd5b93925094505081813d8311611ad0575b611ab48183611703565b8101031261042657859285611ac98a93611725565b91386118d8565b503d611aaa565b89513d6000823e3d90fd5b611afa919450883d8a11611a8857611a798183611703565b9238611890565b5050565b506001600160a01b036060830151161561182d565b91908203918211611b2757565b634e487b7160e01b600052601160045260246000fd5b81810292918115918404141715611b2757565b8115611b5a570490565b634e487b7160e01b600052601260045260246000fd5b8051821015611b845760209160051b010190565b634e487b7160e01b600052603260045260246000fd5b6001600160a01b03600054163303611bae57565b60246040517f118cdaa7000000000000000000000000000000000000000000000000000000008152336004820152fd5b9060ff8091169116039060ff8211611b2757565b60ff16604d8111611b2757600a0a90565b9060ff811660ff8416818111600014611c36575050611c28611c2d91611c3394611bde565b611bf2565b90611b3d565b90565b93929310611c4357505090565b611c28611c339392611c5492611bde565b90611b50565b90916000198383099280830292838086109503948086039514611cea5784831115611cd1579082910981600003821680920460028082600302188083028203028083028203028083028203028083028203028083028203028092029003029360018380600003040190848311900302920304170290565b82634e487b71600052156003026011186020526024601cfd5b505090611c339250611b5056fea264697066735822122013e6252b6485f3c87dcd49640a7021cdbeebc489114c9ce0fc71528da716d6d664736f6c63430008160033",
  "linkReferences": {},
  "deployedLinkReferences": {}
}