{
  "_format": "hh-sol-artifact-1",
  "contractName": "RiskManager",
  "sourceName": "contracts/core/RiskManager.sol",
  "abi": [
    {
      "inputs": [
        {
          "internalType": "address",
          "name": "_initialOwner",
          "type": "address"
        }
      ],
      "stateMutability": "nonpayable",
      "type": "constructor"
    },
    {
      "inputs": [
        {
          "internalType": "address",
          "name": "target",
          "type": "address"
        }
      ],
      "name": "AddressEmptyCode",
      "type": "error"
    },
    {
      "inputs": [
        {
          "internalType": "address",
          "name": "account",
          "type": "address"
        }
      ],
      "name": "AddressInsufficientBalance",
      "type": "error"
    },
    {
      "inputs": [],
      "name": "FailedInnerCall",
      "type": "error"
    },
    {
      "inputs": [],
      "name": "InvalidClaimAmount",
      "type": "error"
    },
    {
      "inputs": [],
      "name": "NotPolicyManager",
      "type": "error"
    },
    {
      "inputs": [],
      "name": "OnlyPolicyOwner",
      "type": "error"
    },
    {
      "inputs": [
        {
          "internalType": "address",
          "name": "owner",
          "type": "address"
        }
      ],
      "name": "OwnableInvalidOwner",
      "type": "error"
    },
    {
      "inputs": [
        {
          "internalType": "address",
          "name": "account",
          "type": "address"
        }
      ],
      "name": "OwnableUnauthorizedAccount",
      "type": "error"
    },
    {
      "inputs": [],
      "name": "PolicyNotActive",
      "type": "error"
    },
    {
      "inputs": [],
      "name": "ReentrancyGuardReentrantCall",
      "type": "error"
    },
    {
      "inputs": [
        {
          "internalType": "address",
          "name": "token",
          "type": "address"
        }
      ],
      "name": "SafeERC20FailedOperation",
      "type": "error"
    },
    {
      "inputs": [],
      "name": "UnderwriterNotInsolvent",
      "type": "error"
    },
    {
      "inputs": [],
      "name": "ZeroAddressNotAllowed",
      "type": "error"
    },
    {
      "anonymous": false,
      "inputs": [
        {
          "indexed": false,
          "internalType": "address",
          "name": "capital",
          "type": "address"
        },
        {
          "indexed": false,
          "internalType": "address",
          "name": "registry",
          "type": "address"
        },
        {
          "indexed": false,
          "internalType": "address",
          "name": "policyMgr",
          "type": "address"
        },
        {
          "indexed": false,
          "internalType": "address",
          "name": "cat",
          "type": "address"
        },
        {
          "indexed": false,
          "internalType": "address",
          "name": "loss",
          "type": "address"
        },
        {
          "indexed": false,
          "internalType": "address",
          "name": "rewards",
          "type": "address"
        },
        {
          "indexed": false,
          "internalType": "address",
          "name": "underwriterMgr",
          "type": "address"
        }
      ],
      "name": "AddressesSet",
      "type": "event"
    },
    {
      "anonymous": false,
      "inputs": [
        {
          "indexed": true,
          "internalType": "uint256",
          "name": "policyId",
          "type": "uint256"
        },
        {
          "indexed": false,
          "internalType": "uint256",
          "name": "amountClaimed",
          "type": "uint256"
        },
        {
          "indexed": false,
          "internalType": "bool",
          "name": "isFullClaim",
          "type": "bool"
        }
      ],
      "name": "ClaimProcessed",
      "type": "event"
    },
    {
      "anonymous": false,
      "inputs": [
        {
          "indexed": false,
          "internalType": "address",
          "name": "committee",
          "type": "address"
        }
      ],
      "name": "CommitteeSet",
      "type": "event"
    },
    {
      "anonymous": false,
      "inputs": [
        {
          "indexed": true,
          "internalType": "address",
          "name": "previousOwner",
          "type": "address"
        },
        {
          "indexed": true,
          "internalType": "address",
          "name": "newOwner",
          "type": "address"
        }
      ],
      "name": "OwnershipTransferred",
      "type": "event"
    },
    {
      "anonymous": false,
      "inputs": [
        {
          "indexed": true,
          "internalType": "address",
          "name": "liquidator",
          "type": "address"
        },
        {
          "indexed": true,
          "internalType": "address",
          "name": "underwriter",
          "type": "address"
        }
      ],
      "name": "UnderwriterLiquidated",
      "type": "event"
    },
    {
      "inputs": [],
      "name": "BPS",
      "outputs": [
        {
          "internalType": "uint256",
          "name": "",
          "type": "uint256"
        }
      ],
      "stateMutability": "view",
      "type": "function"
    },
    {
      "inputs": [],
      "name": "capitalPool",
      "outputs": [
        {
          "internalType": "contract ICapitalPool",
          "name": "",
          "type": "address"
        }
      ],
      "stateMutability": "view",
      "type": "function"
    },
    {
      "inputs": [],
      "name": "catPool",
      "outputs": [
        {
          "internalType": "contract IBackstopPool",
          "name": "",
          "type": "address"
        }
      ],
      "stateMutability": "view",
      "type": "function"
    },
    {
      "inputs": [],
      "name": "committee",
      "outputs": [
        {
          "internalType": "address",
          "name": "",
          "type": "address"
        }
      ],
      "stateMutability": "view",
      "type": "function"
    },
    {
      "inputs": [
        {
          "internalType": "address",
          "name": "_underwriter",
          "type": "address"
        }
      ],
      "name": "liquidateInsolventUnderwriter",
      "outputs": [],
      "stateMutability": "nonpayable",
      "type": "function"
    },
    {
      "inputs": [],
      "name": "lossDistributor",
      "outputs": [
        {
          "internalType": "contract ILossDistributor",
          "name": "",
          "type": "address"
        }
      ],
      "stateMutability": "view",
      "type": "function"
    },
    {
      "inputs": [],
      "name": "owner",
      "outputs": [
        {
          "internalType": "address",
          "name": "",
          "type": "address"
        }
      ],
      "stateMutability": "view",
      "type": "function"
    },
    {
      "inputs": [],
      "name": "policyManager",
      "outputs": [
        {
          "internalType": "address",
          "name": "",
          "type": "address"
        }
      ],
      "stateMutability": "view",
      "type": "function"
    },
    {
      "inputs": [],
      "name": "policyNFT",
      "outputs": [
        {
          "internalType": "contract IPolicyNFT",
          "name": "",
          "type": "address"
        }
      ],
      "stateMutability": "view",
      "type": "function"
    },
    {
      "inputs": [],
      "name": "poolRegistry",
      "outputs": [
        {
          "internalType": "contract IPoolRegistry",
          "name": "",
          "type": "address"
        }
      ],
      "stateMutability": "view",
      "type": "function"
    },
    {
      "inputs": [
        {
          "internalType": "uint256",
          "name": "policyId",
          "type": "uint256"
        },
        {
          "internalType": "uint256",
          "name": "claimAmount",
          "type": "uint256"
        }
      ],
      "name": "processClaim",
      "outputs": [],
      "stateMutability": "nonpayable",
      "type": "function"
    },
    {
      "inputs": [],
      "name": "renounceOwnership",
      "outputs": [],
      "stateMutability": "nonpayable",
      "type": "function"
    },
    {
      "inputs": [],
      "name": "rewardDistributor",
      "outputs": [
        {
          "internalType": "contract IRewardDistributor",
          "name": "",
          "type": "address"
        }
      ],
      "stateMutability": "view",
      "type": "function"
    },
    {
      "inputs": [
        {
          "internalType": "address",
          "name": "_capital",
          "type": "address"
        },
        {
          "internalType": "address",
          "name": "_registry",
          "type": "address"
        },
        {
          "internalType": "address",
          "name": "_policyManager",
          "type": "address"
        },
        {
          "internalType": "address",
          "name": "_cat",
          "type": "address"
        },
        {
          "internalType": "address",
          "name": "_loss",
          "type": "address"
        },
        {
          "internalType": "address",
          "name": "_rewards",
          "type": "address"
        },
        {
          "internalType": "address",
          "name": "_underwriterManager",
          "type": "address"
        }
      ],
      "name": "setAddresses",
      "outputs": [],
      "stateMutability": "nonpayable",
      "type": "function"
    },
    {
      "inputs": [
        {
          "internalType": "address",
          "name": "_newCommittee",
          "type": "address"
        }
      ],
      "name": "setCommittee",
      "outputs": [],
      "stateMutability": "nonpayable",
      "type": "function"
    },
    {
      "inputs": [
        {
          "internalType": "address",
          "name": "newOwner",
          "type": "address"
        }
      ],
      "name": "transferOwnership",
      "outputs": [],
      "stateMutability": "nonpayable",
      "type": "function"
    },
    {
      "inputs": [],
      "name": "underwriterManager",
      "outputs": [
        {
          "internalType": "contract IUnderwriterManager",
          "name": "",
          "type": "address"
        }
      ],
      "stateMutability": "view",
      "type": "function"
    },
    {
      "inputs": [
        {
          "internalType": "uint256",
          "name": "poolId",
          "type": "uint256"
        },
        {
          "internalType": "uint256",
          "name": "amount",
          "type": "uint256"
        },
        {
          "internalType": "bool",
          "name": "isSale",
          "type": "bool"
        }
      ],
      "name": "updateCoverageSold",
      "outputs": [],
      "stateMutability": "nonpayable",
      "type": "function"
    }
  ],
  "bytecode": "0x6080346100bf57601f611b7838819003918201601f19168301916001600160401b038311848410176100c4578084926020946040528339810103126100bf57516001600160a01b0390818116908190036100bf5780156100a657600080546001600160a01b03198116831782556040519316907f8be0079c531659141344cd1fd0a4f28419497f9722a3daafe3b4186f6b6457e09080a360018055611a9d90816100db8239f35b604051631e4fbdf760e01b815260006004820152602490fd5b600080fd5b634e487b7160e01b600052604160045260246000fdfe608080604052600436101561001357600080fd5b600090813560e01c9081630342a907146114a657508063249d39e914611489578063426483a61461146257806347daf36614610b055780635bfb750814610ade5780635c9244af14610ab75780635d293f9e146109fc578063715018a6146109955780638da5cb5b1461096f578063ab3dbf3b14610948578063acc2166a14610921578063af02808a146108fa578063afcff50f146108d3578063bddae40e14610855578063d864e7401461082e578063de51d2bb14610420578063eaa8ba7f146101975763f2fde38b146100e757600080fd5b34610194576020366003190112610194576101006114cb565b610108611990565b6001600160a01b03809116908115610163576000548273ffffffffffffffffffffffffffffffffffffffff19821617600055167f8be0079c531659141344cd1fd0a4f28419497f9722a3daafe3b4186f6b6457e0600080a380f35b602483604051907f1e4fbdf70000000000000000000000000000000000000000000000000000000082526004820152fd5b80fd5b50346101945760e0366003190112610194576101b16114cb565b6024356001600160a01b039182821680920361041b5760443583811680910361041b5760643584811680910361041b576084359085821680920361041b5760a4359286841680940361041b5760c4359487861680960361041b578790610215611990565b169586158015610413575b801561040b575b8015610403575b80156103fb575b80156103f3575b80156103eb575b6103c15773ffffffffffffffffffffffffffffffffffffffff19978789600254161760025581896003541617600355828960095416176009556040517faf02808a000000000000000000000000000000000000000000000000000000008152602081600481875afa9081156103b6578b91610340575b50967ff6409549cf8ba8bf1c5a0b2a8c472fd1b5a9c8ff7067cebd4e713cf4d15f3f32998197969594939260e09a99168160045416176004558481600554161760055585816006541617600655868160075416176007556008541617600855604051968752602087015260408601526060850152608084015260a083015260c0820152a180f35b90506020989796959493929198813d6020116103ae575b8161036460209383611543565b810103126103aa575188811681036103aa577ff6409549cf8ba8bf1c5a0b2a8c472fd1b5a9c8ff7067cebd4e713cf4d15f3f329960e099929394959697989950996102b9565b8a80fd5b3d9150610357565b6040513d8d823e3d90fd5b60046040517f8579befe000000000000000000000000000000000000000000000000000000008152fd5b508515610243565b50841561023c565b508315610235565b50821561022e565b508115610227565b508015610220565b600080fd5b503461019457602090816003193601126101945761043c6114cb565b91610445611596565b6001600160a01b039182600254169183604051957f731f25c0000000000000000000000000000000000000000000000000000000008752168060048701526024956080818881885afa9081156108235784916107de575b50801561072557829087604051809781937f8a69c8dd00000000000000000000000000000000000000000000000000000000835260048301525afa9384156107d35783946107a4575b50846008541690604051947f55a1930400000000000000000000000000000000000000000000000000000000865281600487015284868981865afa95861561079957859661074f575b5095948490859660065416915b815188101561067a57858860051b830101516040517ffb7ce357000000000000000000000000000000000000000000000000000000008152856004820152818c8201526044888282818b5afa91821561066f578a92610640575b50604051927f9c9426790000000000000000000000000000000000000000000000000000000084528760048501528d8401528201528681606481875afa908115610635578891610608575b5081018091116105f55760019097019661053b565b8987634e487b7160e01b81526011600452fd5b90508681813d831161062e575b61061f8183611543565b8101031261041b5751386105e0565b503d610615565b6040513d8a823e3d90fd5b9091508881813d8311610668575b6106588183611543565b8101031261041b57519038610595565b503d61064e565b6040513d8c823e3d90fd5b838a868b8a941115610725578391813b156107215782918291604051809481937f845132320000000000000000000000000000000000000000000000000000000083528860048401525af18015610716576106fe575b5050337fba59811b72bb5d2e4c1ecc0eef9821dbe02fb865bba67e9318d50b491dd1f54b8380a36001805580f35b6107079061152f565b6107125781836106d0565b5080fd5b6040513d84823e3d90fd5b8280fd5b60046040517fac335932000000000000000000000000000000000000000000000000000000008152fd5b9095503d8086833e6107618183611543565b81019084818303126107955780519067ffffffffffffffff82116107915761078a9291016115e9565b943861052e565b8680fd5b8580fd5b6040513d87823e3d90fd5b9093508181813d83116107cc575b6107bc8183611543565b8101031261041b575192386104e5565b503d6107b2565b6040513d85823e3d90fd5b90506080813d60801161081b575b816107f960809383611543565b8101031261081757600483820151101561081757604001513861049c565b8380fd5b3d91506107ec565b6040513d86823e3d90fd5b503461019457806003193601126101945760206001600160a01b03600a5416604051908152f35b5034610194576020366003190112610194576001600160a01b036108776114cb565b61087f611990565b1680156103c1576020817f66fc13429d88ce88ca5934124e753e47ea4b02d41cc1d9d2010eb5504d1ec3279273ffffffffffffffffffffffffffffffffffffffff19600a541617600a55604051908152a180f35b503461019457806003193601126101945760206001600160a01b0360035416604051908152f35b503461019457806003193601126101945760206001600160a01b0360045416604051908152f35b503461019457806003193601126101945760206001600160a01b0360075416604051908152f35b503461019457806003193601126101945760206001600160a01b0360095416604051908152f35b50346101945780600319360112610194576001600160a01b036020915416604051908152f35b50346101945780600319360112610194576109ae611990565b60006001600160a01b03815473ffffffffffffffffffffffffffffffffffffffff1981168355167f8be0079c531659141344cd1fd0a4f28419497f9722a3daafe3b4186f6b6457e08280a380f35b503461019457606036600319011261019457604435801515809103610712576001600160a01b039081600954163303610a8d5782916003541690813b15610a89578291606483926040519485938492632e949fcf60e11b84526004356004850152602435602485015260448401525af1801561071657610a795750f35b610a829061152f565b6101945780f35b5050fd5b60046040517f22485e99000000000000000000000000000000000000000000000000000000008152fd5b503461019457806003193601126101945760206001600160a01b0360055416604051908152f35b503461019457806003193601126101945760206001600160a01b0360025416604051908152f35b503461019457604036600319011261019457610b1f611596565b6001600160a01b03600454166040517f6352211e0000000000000000000000000000000000000000000000000000000081526004356004820152602081602481855afa9081156107d3578391611428575b506001600160a01b03811633036113fe5760c0602492604051938480927f2b07fce300000000000000000000000000000000000000000000000000000000825260043560048301525afa9182156107d357839261137b575b506060820151421061135157602435158015611345575b61131b576001600160a01b0360405191610bf883611513565b8460a0604051610c07816114e1565b8281528260208201528260408201528260608201528260808201520152846040840152846060840152846080840152606060a0840152606060c08401528383521660208201526001600160a01b03600854168360208401516024604051809481937fe139c3f000000000000000000000000000000000000000000000000000000000835260048301525afa90811561082357849185918691611236575b50604084015260c083015260a08201526001600160a01b036003541660a06020835101516024604051809481937f4e06ad0900000000000000000000000000000000000000000000000000000000835260048301525afa801561082357849085906111d6575b60808401526001600160a01b0316606083015250610d2a60243582611663565b6040810151806024351081602435180290818103611148575b80821860243511156111415784610d5e83831860243561195a565b806110d2575b5050612710610d79608085015160243561197d565b049283602435116000146110cb57610d938460243561195a565b905b6001600160a01b03602082015116946001600160a01b03600a541660c060a08401519301519360405197610dc889611513565b8852602088015260408701526060860152608085015260a08401521860c08201526001600160a01b0360025416803b1561081757908391604051917f3c139af6000000000000000000000000000000000000000000000000000000008352602060048401526101048301906001600160a01b038151166024850152602081015160448501526001600160a01b0360408201511660648501526060810151608485015260808101519160e060a4860152825180915260206101248601930190865b8181106110a95750505060a0810151916023198582030160c486015260208084519283815201930190865b8181106110905750505091838581809460c08397015160e483015203925af180156107165761107c575b50815160243514918215610fff576001600160a01b0360045416803b15610721578280916024604051809481937f42966c6800000000000000000000000000000000000000000000000000000000835260043560048401525af19081156107d3578391610feb575b50505b60206001600160a01b0360035416910151813b15610721578291606483926040519485938492632e949fcf60e11b8452600484015260243560248401528160448401525af1801561071657610fd7575b505060405190602435825260208201527f47d6b74f128d91ea1a0539d711bc0a10c0c9025d02b326ebef0b7e03900cc50b604060043592a26001805580f35b610fe09061152f565b610712578138610f98565b610ff49061152f565b610712578138610f45565b6001600160a01b0360045416803b15610721578280916044604051809481937f60e0ca8f000000000000000000000000000000000000000000000000000000008352600435600484015260243560248401525af19081156107d3578391611068575b5050610f48565b6110719061152f565b610712578138611061565b6110859061152f565b610712578138610edd565b8251855289975060209485019490920191600101610eb3565b82516001600160a01b0316855289975060209485019490920191600101610e88565b8590610d95565b6001600160a01b036005541690813b156107215782916024839260405194859384927f9b154aea00000000000000000000000000000000000000000000000000000000845260048401525af180156107165715610d64576111329061152f565b61113d578438610d64565b8480fd5b8480610d5e565b846001600160a01b036006541660208551015190803b15610721576064839260405194859384927f53856533000000000000000000000000000000000000000000000000000000008452600484015288881860248401528760448401525af180156111cb576111b8575b50610d43565b6111c49095919561152f565b93386111b2565b6040513d88823e3d90fd5b505060a0813d60a01161122e575b816111f160a09383611543565b810103126108175761120281611565565b60408201518015150361113d5760808261122660606001600160a01b039501611565565b500151610d0a565b3d91506111e4565b925050503d8085833e6112498183611543565b606082828101031261113d5781519067ffffffffffffffff821161079557808301601f8385010112156107955781830151611283816115d1565b926112916040519485611543565b818452602084019083860160208460051b8389010101116113175790602082870101915b60208460051b828901010183106112fc575050505060208301519067ffffffffffffffff8211610791576040916112f09185019085016115e9565b92015190919038610ca4565b602080809361130a86611565565b81520193019291506112b5565b8880fd5b60046040517f843ce46b000000000000000000000000000000000000000000000000000000008152fd5b50815160243511610bdf565b60046040517f8966b51f000000000000000000000000000000000000000000000000000000008152fd5b90915060c0813d60c0116113f6575b8161139760c09383611543565b81010312610721576113ea60a0604051926113b1846114e1565b805184526020810151602085015260408101516040850152606081015160608501526113df60808201611579565b608085015201611579565b60a08201529038610bc8565b3d915061138a565b60046040517f01647d11000000000000000000000000000000000000000000000000000000008152fd5b90506020813d60201161145a575b8161144360209383611543565b810103126107215761145490611565565b38610b70565b3d9150611436565b503461019457806003193601126101945760206001600160a01b0360065416604051908152f35b503461019457806003193601126101945760206040516127108152f35b9050346107125781600319360112610712576020906001600160a01b03600854168152f35b600435906001600160a01b038216820361041b57565b60c0810190811067ffffffffffffffff8211176114fd57604052565b634e487b7160e01b600052604160045260246000fd5b60e0810190811067ffffffffffffffff8211176114fd57604052565b67ffffffffffffffff81116114fd57604052565b90601f8019910116810190811067ffffffffffffffff8211176114fd57604052565b51906001600160a01b038216820361041b57565b51906fffffffffffffffffffffffffffffffff8216820361041b57565b6002600154146115a7576002600155565b60046040517f3ee5aeb5000000000000000000000000000000000000000000000000000000008152fd5b67ffffffffffffffff81116114fd5760051b60200190565b9080601f8301121561041b57815190602091611604816115d1565b936116126040519586611543565b81855260208086019260051b82010192831161041b57602001905b82821061163b575050505090565b8151815290830190830161162d565b9081602091031261041b575160ff8116810361041b5790565b9080158015611945575b6119415760608201906001600160a01b039182815116926040938451809481927f313ce5670000000000000000000000000000000000000000000000000000000090818452602097889160049687915afa9283156118cf57908491600094611922575b508786600254168a51938480927f7158da7c0000000000000000000000000000000000000000000000000000000082525afa91821561191757918589928895946000936118da575b508b5195869384928352165afa9182156118cf57906117419392916000926118a0575b506119f9565b918084511681600754168751878101917f23b872dd00000000000000000000000000000000000000000000000000000000835233602483015260448201528560648201526064815260a0810181811067ffffffffffffffff82111761188b5789525187916000919082855af115611880576000513d6118775750803b155b611848575080869160075416958851015194511696015191843b1561041b5760009460849386928851998a9788967ffc9675420000000000000000000000000000000000000000000000000000000088528701526024860152604485015260648401525af190811561183e57506118335750565b61183c9061152f565b565b513d6000823e3d90fd5b826024918851917f5274afe7000000000000000000000000000000000000000000000000000000008352820152fd5b600114156117bf565b86513d6000823e3d90fd5b604186634e487b7160e01b6000525260246000fd5b6118c1919250883d8a116118c8575b6118b98183611543565b81019061164a565b903861173b565b503d6118af565b88513d6000823e3d90fd5b93925094505081813d8311611910575b6118f48183611543565b8101031261041b578592856119098a93611565565b9138611718565b503d6118ea565b89513d6000823e3d90fd5b61193a919450883d8a116118c8576118b98183611543565b92386116d0565b5050565b506001600160a01b036060830151161561166d565b9190820391821161196757565b634e487b7160e01b600052601160045260246000fd5b8181029291811591840414171561196757565b6001600160a01b036000541633036119a457565b60246040517f118cdaa7000000000000000000000000000000000000000000000000000000008152336004820152fd5b9060ff8091169116039060ff821161196757565b60ff16604d811161196757600a0a90565b9060ff811660ff8416818111600014611a2c575050611a1e611a2391611a29946119d4565b6119e8565b9061197d565b90565b93929310611a3957505090565b611a4691611a1e916119d4565b908115611a51570490565b634e487b7160e01b600052601260045260246000fdfea2646970667358221220769322e55808a0385b21963ae302aa882cdded60f8adfa2726a9ff18cb12535064736f6c63430008160033",
  "linkReferences": {},
  "deployedLinkReferences": {}
}