{"abi":[{"type":"constructor","inputs":[{"name":"_initialOwner","type":"address","internalType":"address"}],"stateMutability":"nonpayable"},{"type":"function","name":"BPS","inputs":[],"outputs":[{"name":"","type":"uint256","internalType":"uint256"}],"stateMutability":"view"},{"type":"function","name":"CLAIM_FEE_BPS","inputs":[],"outputs":[{"name":"","type":"uint256","internalType":"uint256"}],"stateMutability":"view"},{"type":"function","name":"capitalPool","inputs":[],"outputs":[{"name":"","type":"address","internalType":"contract ICapitalPool"}],"stateMutability":"view"},{"type":"function","name":"catPool","inputs":[],"outputs":[{"name":"","type":"address","internalType":"contract IBackstopPool"}],"stateMutability":"view"},{"type":"function","name":"committee","inputs":[],"outputs":[{"name":"","type":"address","internalType":"address"}],"stateMutability":"view"},{"type":"function","name":"liquidateInsolventUnderwriter","inputs":[{"name":"_underwriter","type":"address","internalType":"address"}],"outputs":[],"stateMutability":"nonpayable"},{"type":"function","name":"lossDistributor","inputs":[],"outputs":[{"name":"","type":"address","internalType":"contract ILossDistributor"}],"stateMutability":"view"},{"type":"function","name":"owner","inputs":[],"outputs":[{"name":"","type":"address","internalType":"address"}],"stateMutability":"view"},{"type":"function","name":"policyManager","inputs":[],"outputs":[{"name":"","type":"address","internalType":"address"}],"stateMutability":"view"},{"type":"function","name":"policyNFT","inputs":[],"outputs":[{"name":"","type":"address","internalType":"contract IPolicyNFT"}],"stateMutability":"view"},{"type":"function","name":"poolRegistry","inputs":[],"outputs":[{"name":"","type":"address","internalType":"contract IPoolRegistry"}],"stateMutability":"view"},{"type":"function","name":"processClaim","inputs":[{"name":"policyId","type":"uint256","internalType":"uint256"}],"outputs":[],"stateMutability":"nonpayable"},{"type":"function","name":"renounceOwnership","inputs":[],"outputs":[],"stateMutability":"nonpayable"},{"type":"function","name":"rewardDistributor","inputs":[],"outputs":[{"name":"","type":"address","internalType":"contract IRewardDistributor"}],"stateMutability":"view"},{"type":"function","name":"setAddresses","inputs":[{"name":"_capital","type":"address","internalType":"address"},{"name":"_registry","type":"address","internalType":"address"},{"name":"_policyManager","type":"address","internalType":"address"},{"name":"_cat","type":"address","internalType":"address"},{"name":"_loss","type":"address","internalType":"address"},{"name":"_rewards","type":"address","internalType":"address"},{"name":"_underwriterManager","type":"address","internalType":"address"}],"outputs":[],"stateMutability":"nonpayable"},{"type":"function","name":"setCommittee","inputs":[{"name":"_newCommittee","type":"address","internalType":"address"}],"outputs":[],"stateMutability":"nonpayable"},{"type":"function","name":"transferOwnership","inputs":[{"name":"newOwner","type":"address","internalType":"address"}],"outputs":[],"stateMutability":"nonpayable"},{"type":"function","name":"underwriterManager","inputs":[],"outputs":[{"name":"","type":"address","internalType":"contract IUnderwriterManager"}],"stateMutability":"view"},{"type":"function","name":"updateCoverageSold","inputs":[{"name":"poolId","type":"uint256","internalType":"uint256"},{"name":"amount","type":"uint256","internalType":"uint256"},{"name":"isSale","type":"bool","internalType":"bool"}],"outputs":[],"stateMutability":"nonpayable"},{"type":"event","name":"AddressesSet","inputs":[{"name":"capital","type":"address","indexed":false,"internalType":"address"},{"name":"registry","type":"address","indexed":false,"internalType":"address"},{"name":"policyMgr","type":"address","indexed":false,"internalType":"address"},{"name":"cat","type":"address","indexed":false,"internalType":"address"},{"name":"loss","type":"address","indexed":false,"internalType":"address"},{"name":"rewards","type":"address","indexed":false,"internalType":"address"},{"name":"underwriterMgr","type":"address","indexed":false,"internalType":"address"}],"anonymous":false},{"type":"event","name":"CommitteeSet","inputs":[{"name":"committee","type":"address","indexed":false,"internalType":"address"}],"anonymous":false},{"type":"event","name":"OwnershipTransferred","inputs":[{"name":"previousOwner","type":"address","indexed":true,"internalType":"address"},{"name":"newOwner","type":"address","indexed":true,"internalType":"address"}],"anonymous":false},{"type":"event","name":"UnderwriterLiquidated","inputs":[{"name":"liquidator","type":"address","indexed":true,"internalType":"address"},{"name":"underwriter","type":"address","indexed":true,"internalType":"address"}],"anonymous":false},{"type":"error","name":"NotPolicyManager","inputs":[]},{"type":"error","name":"OnlyPolicyOwner","inputs":[]},{"type":"error","name":"OwnableInvalidOwner","inputs":[{"name":"owner","type":"address","internalType":"address"}]},{"type":"error","name":"OwnableUnauthorizedAccount","inputs":[{"name":"account","type":"address","internalType":"address"}]},{"type":"error","name":"ReentrancyGuardReentrantCall","inputs":[]},{"type":"error","name":"SafeERC20FailedOperation","inputs":[{"name":"token","type":"address","internalType":"address"}]},{"type":"error","name":"UnderwriterNotInsolvent","inputs":[]},{"type":"error","name":"ZeroAddressNotAllowed","inputs":[]}],"bytecode":{"object":"0x6080346100bd57601f611b8838819003918201601f19168301916001600160401b038311848410176100c1578084926020946040528339810103126100bd57516001600160a01b0390818116908190036100bd5780156100a5575f80546001600160a01b03198116831782556040519316907f8be0079c531659141344cd1fd0a4f28419497f9722a3daafe3b4186f6b6457e09080a360018055611ab290816100d68239f35b604051631e4fbdf760e01b81525f6004820152602490fd5b5f80fd5b634e487b7160e01b5f52604160045260245ffdfe6080806040526004361015610012575f80fd5b5f905f3560e01c9081630342a907146117d85750806317a7ee65146117bc578063249d39e9146117a0578063426483a61461177a5780635bfb7508146117545780635c9244af1461172e5780635d293f9e14611672578063715018a61461160c5780637257dfc91461098e5780638da5cb5b14610968578063ab3dbf3b14610941578063acc2166a1461091a578063af02808a146108f3578063afcff50f146108cc578063bddae40e1461084e578063d864e74014610827578063de51d2bb14610424578063eaa8ba7f1461019c5763f2fde38b146100ef575f80fd5b34610199576020366003190112610199576101086117fb565b61011061190a565b6001600160a01b03809116908115610168575f548273ffffffffffffffffffffffffffffffffffffffff198216175f55167f8be0079c531659141344cd1fd0a4f28419497f9722a3daafe3b4186f6b6457e05f80a380f35b602483604051907f1e4fbdf70000000000000000000000000000000000000000000000000000000082526004820152fd5b80fd5b50346101995760e0366003190112610199576101b66117fb565b6024356001600160a01b0391828216809203610420576044358381168091036104205760643584811680910361042057608435908582168092036104205760a435928684168094036104205760c4359487861680960361042057879061021a61190a565b169586158015610418575b8015610410575b8015610408575b8015610400575b80156103f8575b80156103f0575b6103c65773ffffffffffffffffffffffffffffffffffffffff19978789600254161760025581896003541617600355828960095416176009556040517faf02808a000000000000000000000000000000000000000000000000000000008152602081600481875afa9081156103bb578b91610345575b50967ff6409549cf8ba8bf1c5a0b2a8c472fd1b5a9c8ff7067cebd4e713cf4d15f3f32998197969594939260e09a99168160045416176004558481600554161760055585816006541617600655868160075416176007556008541617600855604051968752602087015260408601526060850152608084015260a083015260c0820152a180f35b90506020989796959493929198813d6020116103b3575b8161036960209383611841565b810103126103af575188811681036103af577ff6409549cf8ba8bf1c5a0b2a8c472fd1b5a9c8ff7067cebd4e713cf4d15f3f329960e099929394959697989950996102be565b8a80fd5b3d915061035c565b6040513d8d823e3d90fd5b60046040517f8579befe000000000000000000000000000000000000000000000000000000008152fd5b508515610248565b508415610241565b50831561023a565b508215610233565b50811561022c565b508015610225565b5f80fd5b50346101995760209081600319360112610199576104406117fb565b9161044961194d565b6001600160a01b039182600254169183604051957f731f25c00000000000000000000000000000000000000000000000000000000087521680600487015260249560a0818881885afa90811561081c5784916107e3575b50801561072a57829087604051809781937f8a69c8dd00000000000000000000000000000000000000000000000000000000835260048301525afa9384156107d85783946107a9575b50846008541690604051947f55a1930400000000000000000000000000000000000000000000000000000000865281600487015284868981865afa95861561079e578596610754575b5095948490859660065416915b81518810156106805761055288836118e2565b516040517ffb7ce357000000000000000000000000000000000000000000000000000000008152856004820152818c8201526044888282818b5afa918215610675578a92610646575b50604051927f9c9426790000000000000000000000000000000000000000000000000000000084528760048501528d8401528201528681606481875afa90811561063b57889161060e575b5081018091116105fb5760019097019661053f565b8987634e487b7160e01b81526011600452fd5b90508681813d8311610634575b6106258183611841565b8101031261042057515f6105e6565b503d61061b565b6040513d8a823e3d90fd5b9091508881813d831161066e575b61065e8183611841565b810103126104205751905f61059b565b503d610654565b6040513d8c823e3d90fd5b838a868b8a941061072a578391813b156107265782918291604051809481937f845132320000000000000000000000000000000000000000000000000000000083528860048401525af1801561071b57610703575b5050337fba59811b72bb5d2e4c1ecc0eef9821dbe02fb865bba67e9318d50b491dd1f54b8380a36001805580f35b61070c90611811565b6107175781836106d5565b5080fd5b6040513d84823e3d90fd5b8280fd5b60046040517fac335932000000000000000000000000000000000000000000000000000000008152fd5b9095503d8086833e6107668183611841565b810190848183031261079a5780519067ffffffffffffffff82116107965761078f9291016119a0565b945f610532565b8680fd5b8580fd5b6040513d87823e3d90fd5b9093508181813d83116107d1575b6107c18183611841565b810103126104205751925f6104e9565b503d6107b7565b6040513d85823e3d90fd5b905060a0813d60a011610814575b816107fe60a09383611841565b8101031261081057604001515f6104a0565b8380fd5b3d91506107f1565b6040513d86823e3d90fd5b503461019957806003193601126101995760206001600160a01b03600a5416604051908152f35b5034610199576020366003190112610199576001600160a01b036108706117fb565b61087861190a565b1680156103c6576020817f66fc13429d88ce88ca5934124e753e47ea4b02d41cc1d9d2010eb5504d1ec3279273ffffffffffffffffffffffffffffffffffffffff19600a541617600a55604051908152a180f35b503461019957806003193601126101995760206001600160a01b0360035416604051908152f35b503461019957806003193601126101995760206001600160a01b0360045416604051908152f35b503461019957806003193601126101995760206001600160a01b0360075416604051908152f35b503461019957806003193601126101995760206001600160a01b0360095416604051908152f35b50346101995780600319360112610199576001600160a01b036020915416604051908152f35b5034610199576020366003190112610199576109a861194d565b60405190610100820182811067ffffffffffffffff82111761103d57806040526109d181611825565b818152816101208401528161014084015281610160840152816101808401528252806020830152806040830152806060830152806080830152606060a0830152606060c08301528060e08301526001600160a01b03600454166040517f2b07fce3000000000000000000000000000000000000000000000000000000008152600435600482015260a081602481855afa80156107d85783906115a4575b6060915080855201514210611546576020602491604051928380927f6352211e00000000000000000000000000000000000000000000000000000000825260043560048301525afa801561071b578290611506575b6001600160a01b0391501660208301526001600160a01b0360035416825151604051907fe139c3f000000000000000000000000000000000000000000000000000000000825260048201528281602481855afa9081156107d857839184918591611421575b50604086015260c085015260a084015260e08351516024604051809481937fd21c87ad00000000000000000000000000000000000000000000000000000000835260048301525afa801561071b578290839084906113ac575b6001600160a01b039350608086015260e08501521660608301526001600160a01b0360208301511633036113825781516020815191015190816110df575b6001600160a01b03600654166040850151813b15610ee85784916064839260405194859384927f5385653300000000000000000000000000000000000000000000000000000000845288600485015289602485015260448401525af1801561081c579084916110cb575b50506040840151938285188584100285188311156110c557610c5385841086851802861884611890565b80611051575b50612710610c6b6080830151856118b1565b04946001600160a01b0360208301511695610c868186611890565b906001600160a01b03600a54169060a08501519060c0860151926040870151946040519b8c67ffffffffffffffff60e082818101109201111761103d5760e08d016040528c5260208c015260408b015260608a0152608089015260a088015260c08701526001600160a01b0360025416803b1561079a5795604051907f3c139af6000000000000000000000000000000000000000000000000000000008252602060048301526001600160a01b038151166024830152602081015160448301526001600160a01b0360408201511660648301526060810151608483015260808101519060e060a484015281518061010485015260206101248501930190895b81811061101e5750505060a0810151916023198482030160c485015260208084519283815201930190895b818110611008575050508798838981819560c08296015160e483015203925af1908115610ffd578691610fe9575b50508084108185180281141580610fdc575b610eec575b5060e00151918280821091180291828103610e84575b5050506001600160a01b0360045416803b15610e81578180916024604051809481937f42966c6800000000000000000000000000000000000000000000000000000000835260043560048401525af1801561071b57610e6d575b506001805580f35b610e7690611811565b61019957805f610e65565b50fd5b6001600160a01b0360035416803b15610ee8578492836064926040519687958694632e949fcf60e11b865260048601521860248401528160448401525af1801561071b57610ed4575b8080610e0b565b610edd90611811565b61019957805f610ecd565b8480fd5b939290925b8560a085015151821015610fd157610f2d610f22610f138460c08901516118e2565b518886108987180289186118b1565b6040870151906118c4565b80610f3d575b5050600101610ef1565b6001600160a01b0360035416906001600160a01b03610f608560a08a01516118e2565b511690823b1561081057608484928360405195869485937fa6bd24ab0000000000000000000000000000000000000000000000000000000085528c6004860152602485015260448401528160648401525af1801561071b5715610f3357610fc690611811565b61079a57855f610f33565b9450509160e0610df5565b5060408201511515610df0565b610ff290611811565b610ee857845f610dde565b6040513d88823e3d90fd5b8251855260209485019490920191600101610db0565b82516001600160a01b0316855260209485019490920191600101610d85565b634e487b7160e01b5f52604160045260245ffd5b6001600160a01b036005541690813b1561079a5785916024839260405194859384927f9b154aea00000000000000000000000000000000000000000000000000000000845260048401525af1801561079e579085916110b1575b50610c59565b6110ba90611811565b61081057835f6110ab565b83610c53565b6110d490611811565b61072657825f610c29565b600460206001600160a01b036060870151166040519283809263313ce56760e01b82525afa90811561081c578491611363575b50600460206001600160a01b0360025416604051928380927f7158da7c0000000000000000000000000000000000000000000000000000000082525afa90811561079e57859161131e575b5060206001600160a01b039160046040518094819363313ce56760e01b8352165afa90811561079e579061119a929186916112ef575b5084611a26565b6001600160a01b036060860151166020856001600160a01b0360075416604051838101917f23b872dd0000000000000000000000000000000000000000000000000000000083523360248301526044820152856064820152606481526111ff81611825565b519082855af11561081c5784513d6112e65750803b155b6112b557506001600160a01b0360075416906001600160a01b03606087015116604087015192803b15610796578692918360849260405196879586947ffc9675420000000000000000000000000000000000000000000000000000000086528a60048701526024860152604485015260648401525af1801561081c579084916112a1575b5050610bbf565b6112aa90611811565b61072657825f61129a565b602490604051907f5274afe70000000000000000000000000000000000000000000000000000000082526004820152fd5b60011415611216565b611311915060203d602011611317575b6113098183611841565b810190611863565b5f611193565b503d6112ff565b90506020813d60201161135b575b8161133960209383611841565b81010312610ee85760206113546001600160a01b039261187c565b915061115d565b3d915061132c565b61137c915060203d602011611317576113098183611841565b5f611112565b60046040517f01647d11000000000000000000000000000000000000000000000000000000008152fd5b50505060e0813d60e011611419575b816113c860e09383611841565b810103126107175780516001600160a01b038116810361072657604082015191608081015180151503610810579060c08261140e60a06001600160a01b0396950161187c565b500151909190610b81565b3d91506113bb565b925050503d8084833e6114348183611841565b60608282810103126108105781519067ffffffffffffffff8211610ee857808301601f838501011215610ee8578183015161146e81611988565b9261147c6040519485611841565b818452602084019083860160208460051b8389010101116115025790602082870101915b60208460051b828901010183106114e7575050505060208301519067ffffffffffffffff821161079a576040916114db9185019085016119a0565b9201519091905f610b28565b60208080936114f58661187c565b81520193019291506114a0565b8780fd5b506020813d60201161153e575b8161152060209383611841565b81010312610717576115396001600160a01b039161187c565b610ac3565b3d9150611513565b60646040517f08c379a000000000000000000000000000000000000000000000000000000000815260206004820152601160248201527f506f6c696379206e6f74206163746976650000000000000000000000000000006044820152fd5b5060a0813d60a011611604575b816115be60a09383611841565b81010312610726576060906080604051916115d883611825565b805183526020810151602084015260408101516040840152838101518484015201516080820152610a6e565b3d91506115b1565b503461019957806003193601126101995761162561190a565b5f6001600160a01b03815473ffffffffffffffffffffffffffffffffffffffff1981168355167f8be0079c531659141344cd1fd0a4f28419497f9722a3daafe3b4186f6b6457e08280a380f35b503461042057606036600319011261042057604435801515809103610420576001600160a01b0380600954163303611704576003541690813b15610420575f91606483926040519485938492632e949fcf60e11b84526004356004850152602435602485015260448401525af180156116f9576116ed575080f35b6116f79150611811565b005b6040513d5f823e3d90fd5b60046040517f22485e99000000000000000000000000000000000000000000000000000000008152fd5b34610420575f3660031901126104205760206001600160a01b0360055416604051908152f35b34610420575f3660031901126104205760206001600160a01b0360025416604051908152f35b34610420575f3660031901126104205760206001600160a01b0360065416604051908152f35b34610420575f3660031901126104205760206040516127108152f35b34610420575f3660031901126104205760206040516101f48152f35b34610420575f366003190112610420576020906001600160a01b03600854168152f35b600435906001600160a01b038216820361042057565b67ffffffffffffffff811161103d57604052565b60a0810190811067ffffffffffffffff82111761103d57604052565b90601f8019910116810190811067ffffffffffffffff82111761103d57604052565b90816020910312610420575160ff811681036104205790565b51906001600160a01b038216820361042057565b9190820391821161189d57565b634e487b7160e01b5f52601160045260245ffd5b8181029291811591840414171561189d57565b81156118ce570490565b634e487b7160e01b5f52601260045260245ffd5b80518210156118f65760209160051b010190565b634e487b7160e01b5f52603260045260245ffd5b6001600160a01b035f5416330361191d57565b60246040517f118cdaa7000000000000000000000000000000000000000000000000000000008152336004820152fd5b60026001541461195e576002600155565b60046040517f3ee5aeb5000000000000000000000000000000000000000000000000000000008152fd5b67ffffffffffffffff811161103d5760051b60200190565b9080601f83011215610420578151906020916119bb81611988565b936119c96040519586611841565b81855260208086019260051b82010192831161042057602001905b8282106119f2575050505090565b815181529083019083016119e4565b9060ff8091169116039060ff821161189d57565b60ff16604d811161189d57600a0a90565b9060ff811660ff84168181115f14611a58575050611a4a611a4f91611a5594611a01565b611a15565b906118b1565b90565b93929310611a6557505090565b611a4a611a559392611a7692611a01565b906118c456fea26469706673582212205e656eaec7a707eb82a1832ba2ddf10e0db70013b1698708df9f4bf10f33bffa64736f6c63430008160033","linkReferences":{}},"methodIdentifiers":{"BPS()":"249d39e9","CLAIM_FEE_BPS()":"17a7ee65","capitalPool()":"5bfb7508","catPool()":"5c9244af","committee()":"d864e740","liquidateInsolventUnderwriter(address)":"de51d2bb","lossDistributor()":"426483a6","owner()":"8da5cb5b","policyManager()":"ab3dbf3b","policyNFT()":"af02808a","poolRegistry()":"afcff50f","processClaim(uint256)":"7257dfc9","renounceOwnership()":"715018a6","rewardDistributor()":"acc2166a","setAddresses(address,address,address,address,address,address,address)":"eaa8ba7f","setCommittee(address)":"bddae40e","transferOwnership(address)":"f2fde38b","underwriterManager()":"0342a907","updateCoverageSold(uint256,uint256,bool)":"5d293f9e"},"id":11}