{
  "_format": "hh-sol-artifact-1",
  "contractName": "UnderwriterManager",
  "sourceName": "contracts/core/UnderwriterManager.sol",
  "abi": [
    {
      "inputs": [
        {
          "internalType": "address",
          "name": "_initialOwner",
          "type": "address"
        }
      ],
      "stateMutability": "nonpayable",
      "type": "constructor"
    },
    {
      "inputs": [],
      "name": "AlreadyAllocated",
      "type": "error"
    },
    {
      "inputs": [],
      "name": "DeallocationRequestPending",
      "type": "error"
    },
    {
      "inputs": [],
      "name": "ExceedsMaxAllocations",
      "type": "error"
    },
    {
      "inputs": [],
      "name": "InsufficientFreeCapital",
      "type": "error"
    },
    {
      "inputs": [
        {
          "internalType": "uint256",
          "name": "current",
          "type": "uint256"
        },
        {
          "internalType": "uint256",
          "name": "required",
          "type": "uint256"
        },
        {
          "internalType": "uint256",
          "name": "total",
          "type": "uint256"
        }
      ],
      "name": "InsufficientRiskPoints",
      "type": "error"
    },
    {
      "inputs": [
        {
          "internalType": "uint256",
          "name": "requested",
          "type": "uint256"
        },
        {
          "internalType": "uint256",
          "name": "available",
          "type": "uint256"
        }
      ],
      "name": "InsufficientWithdrawableCapital",
      "type": "error"
    },
    {
      "inputs": [],
      "name": "InvalidPoolId",
      "type": "error"
    },
    {
      "inputs": [
        {
          "internalType": "uint256",
          "name": "poolId",
          "type": "uint256"
        },
        {
          "internalType": "uint256",
          "name": "groupId",
          "type": "uint256"
        }
      ],
      "name": "MutexAllocationNotAllowed",
      "type": "error"
    },
    {
      "inputs": [],
      "name": "NoCapitalToAllocate",
      "type": "error"
    },
    {
      "inputs": [],
      "name": "NoDeallocationRequest",
      "type": "error"
    },
    {
      "inputs": [],
      "name": "NotAllocated",
      "type": "error"
    },
    {
      "inputs": [],
      "name": "NotCapitalPool",
      "type": "error"
    },
    {
      "inputs": [],
      "name": "NotRiskManager",
      "type": "error"
    },
    {
      "inputs": [],
      "name": "NoticePeriodActive",
      "type": "error"
    },
    {
      "inputs": [
        {
          "internalType": "address",
          "name": "owner",
          "type": "address"
        }
      ],
      "name": "OwnableInvalidOwner",
      "type": "error"
    },
    {
      "inputs": [
        {
          "internalType": "address",
          "name": "account",
          "type": "address"
        }
      ],
      "name": "OwnableUnauthorizedAccount",
      "type": "error"
    },
    {
      "inputs": [],
      "name": "ReentrancyGuardReentrantCall",
      "type": "error"
    },
    {
      "inputs": [
        {
          "internalType": "address",
          "name": "token",
          "type": "address"
        }
      ],
      "name": "SafeERC20FailedOperation",
      "type": "error"
    },
    {
      "inputs": [],
      "name": "ZeroAddressNotAllowed",
      "type": "error"
    },
    {
      "anonymous": false,
      "inputs": [
        {
          "indexed": false,
          "internalType": "address",
          "name": "capital",
          "type": "address"
        },
        {
          "indexed": false,
          "internalType": "address",
          "name": "registry",
          "type": "address"
        },
        {
          "indexed": false,
          "internalType": "address",
          "name": "cat",
          "type": "address"
        },
        {
          "indexed": false,
          "internalType": "address",
          "name": "loss",
          "type": "address"
        },
        {
          "indexed": false,
          "internalType": "address",
          "name": "rewards",
          "type": "address"
        },
        {
          "indexed": false,
          "internalType": "address",
          "name": "riskMgr",
          "type": "address"
        }
      ],
      "name": "AddressesSet",
      "type": "event"
    },
    {
      "anonymous": false,
      "inputs": [
        {
          "indexed": true,
          "internalType": "address",
          "name": "underwriter",
          "type": "address"
        },
        {
          "indexed": true,
          "internalType": "uint256",
          "name": "poolId",
          "type": "uint256"
        },
        {
          "indexed": false,
          "internalType": "uint256",
          "name": "amount",
          "type": "uint256"
        },
        {
          "indexed": false,
          "internalType": "address",
          "name": "adapter",
          "type": "address"
        }
      ],
      "name": "CapitalAllocated",
      "type": "event"
    },
    {
      "anonymous": false,
      "inputs": [
        {
          "indexed": true,
          "internalType": "address",
          "name": "underwriter",
          "type": "address"
        },
        {
          "indexed": true,
          "internalType": "uint256",
          "name": "poolId",
          "type": "uint256"
        },
        {
          "indexed": false,
          "internalType": "uint256",
          "name": "amount",
          "type": "uint256"
        },
        {
          "indexed": false,
          "internalType": "address",
          "name": "adapter",
          "type": "address"
        }
      ],
      "name": "CapitalDeallocated",
      "type": "event"
    },
    {
      "anonymous": false,
      "inputs": [
        {
          "indexed": false,
          "internalType": "uint256",
          "name": "newPeriod",
          "type": "uint256"
        }
      ],
      "name": "DeallocationNoticePeriodSet",
      "type": "event"
    },
    {
      "anonymous": false,
      "inputs": [
        {
          "indexed": true,
          "internalType": "address",
          "name": "underwriter",
          "type": "address"
        },
        {
          "indexed": true,
          "internalType": "uint256",
          "name": "poolId",
          "type": "uint256"
        },
        {
          "indexed": false,
          "internalType": "uint256",
          "name": "amount",
          "type": "uint256"
        },
        {
          "indexed": false,
          "internalType": "uint256",
          "name": "timestamp",
          "type": "uint256"
        }
      ],
      "name": "DeallocationRequested",
      "type": "event"
    },
    {
      "anonymous": false,
      "inputs": [
        {
          "indexed": false,
          "internalType": "uint256",
          "name": "newMax",
          "type": "uint256"
        }
      ],
      "name": "MaxAllocationsPerUnderwriterSet",
      "type": "event"
    },
    {
      "anonymous": false,
      "inputs": [
        {
          "indexed": true,
          "internalType": "address",
          "name": "previousOwner",
          "type": "address"
        },
        {
          "indexed": true,
          "internalType": "address",
          "name": "newOwner",
          "type": "address"
        }
      ],
      "name": "OwnershipTransferred",
      "type": "event"
    },
    {
      "anonymous": false,
      "inputs": [
        {
          "indexed": true,
          "internalType": "uint256",
          "name": "groupId",
          "type": "uint256"
        },
        {
          "indexed": false,
          "internalType": "uint256[]",
          "name": "poolIds",
          "type": "uint256[]"
        }
      ],
      "name": "PoolMutexGroupSet",
      "type": "event"
    },
    {
      "inputs": [],
      "name": "ABSOLUTE_MAX_ALLOCATIONS",
      "outputs": [
        {
          "internalType": "uint256",
          "name": "",
          "type": "uint256"
        }
      ],
      "stateMutability": "view",
      "type": "function"
    },
    {
      "inputs": [],
      "name": "TOTAL_RISK_POINTS",
      "outputs": [
        {
          "internalType": "uint256",
          "name": "",
          "type": "uint256"
        }
      ],
      "stateMutability": "view",
      "type": "function"
    },
    {
      "inputs": [
        {
          "internalType": "uint256[]",
          "name": "poolIds",
          "type": "uint256[]"
        }
      ],
      "name": "allocateCapital",
      "outputs": [],
      "stateMutability": "nonpayable",
      "type": "function"
    },
    {
      "inputs": [
        {
          "internalType": "uint256",
          "name": "requestIndex",
          "type": "uint256"
        }
      ],
      "name": "cancelWithdrawal",
      "outputs": [],
      "stateMutability": "nonpayable",
      "type": "function"
    },
    {
      "inputs": [
        {
          "internalType": "uint256",
          "name": "",
          "type": "uint256"
        }
      ],
      "name": "capitalPendingWithdrawal",
      "outputs": [
        {
          "internalType": "uint256",
          "name": "",
          "type": "uint256"
        }
      ],
      "stateMutability": "view",
      "type": "function"
    },
    {
      "inputs": [
        {
          "internalType": "uint256",
          "name": "",
          "type": "uint256"
        },
        {
          "internalType": "address",
          "name": "",
          "type": "address"
        }
      ],
      "name": "capitalPerAdapter",
      "outputs": [
        {
          "internalType": "uint256",
          "name": "",
          "type": "uint256"
        }
      ],
      "stateMutability": "view",
      "type": "function"
    },
    {
      "inputs": [],
      "name": "capitalPool",
      "outputs": [
        {
          "internalType": "contract ICapitalPool",
          "name": "",
          "type": "address"
        }
      ],
      "stateMutability": "view",
      "type": "function"
    },
    {
      "inputs": [],
      "name": "catPool",
      "outputs": [
        {
          "internalType": "contract IBackstopPool",
          "name": "",
          "type": "address"
        }
      ],
      "stateMutability": "view",
      "type": "function"
    },
    {
      "inputs": [
        {
          "internalType": "uint256",
          "name": "poolId",
          "type": "uint256"
        }
      ],
      "name": "deallocateFromPool",
      "outputs": [],
      "stateMutability": "nonpayable",
      "type": "function"
    },
    {
      "inputs": [],
      "name": "deallocationNoticePeriod",
      "outputs": [
        {
          "internalType": "uint256",
          "name": "",
          "type": "uint256"
        }
      ],
      "stateMutability": "view",
      "type": "function"
    },
    {
      "inputs": [
        {
          "internalType": "address",
          "name": "",
          "type": "address"
        },
        {
          "internalType": "uint256",
          "name": "",
          "type": "uint256"
        }
      ],
      "name": "deallocationRequestTimestamp",
      "outputs": [
        {
          "internalType": "uint256",
          "name": "",
          "type": "uint256"
        }
      ],
      "stateMutability": "view",
      "type": "function"
    },
    {
      "inputs": [
        {
          "internalType": "uint256",
          "name": "amount",
          "type": "uint256"
        },
        {
          "internalType": "enum ICapitalPool.YieldPlatform",
          "name": "yieldChoice",
          "type": "uint8"
        },
        {
          "internalType": "uint256[]",
          "name": "poolIds",
          "type": "uint256[]"
        }
      ],
      "name": "depositAndAllocate",
      "outputs": [],
      "stateMutability": "nonpayable",
      "type": "function"
    },
    {
      "inputs": [
        {
          "internalType": "uint256",
          "name": "requestIndex",
          "type": "uint256"
        }
      ],
      "name": "executeWithdrawal",
      "outputs": [],
      "stateMutability": "nonpayable",
      "type": "function"
    },
    {
      "inputs": [
        {
          "internalType": "uint256",
          "name": "poolId",
          "type": "uint256"
        }
      ],
      "name": "getPoolPayoutData",
      "outputs": [
        {
          "internalType": "address[]",
          "name": "",
          "type": "address[]"
        },
        {
          "internalType": "uint256[]",
          "name": "",
          "type": "uint256[]"
        },
        {
          "internalType": "uint256",
          "name": "",
          "type": "uint256"
        }
      ],
      "stateMutability": "view",
      "type": "function"
    },
    {
      "inputs": [
        {
          "internalType": "uint256",
          "name": "poolId",
          "type": "uint256"
        }
      ],
      "name": "getPoolUnderwriterPledges",
      "outputs": [
        {
          "internalType": "address[]",
          "name": "underwriters",
          "type": "address[]"
        },
        {
          "internalType": "uint256[]",
          "name": "pledges",
          "type": "uint256[]"
        }
      ],
      "stateMutability": "view",
      "type": "function"
    },
    {
      "inputs": [
        {
          "internalType": "uint256",
          "name": "poolId",
          "type": "uint256"
        }
      ],
      "name": "getPoolUnderwriters",
      "outputs": [
        {
          "internalType": "address[]",
          "name": "",
          "type": "address[]"
        }
      ],
      "stateMutability": "view",
      "type": "function"
    },
    {
      "inputs": [
        {
          "internalType": "uint256",
          "name": "poolId",
          "type": "uint256"
        },
        {
          "internalType": "uint256",
          "name": "cursor",
          "type": "uint256"
        },
        {
          "internalType": "uint256",
          "name": "limit",
          "type": "uint256"
        }
      ],
      "name": "getPoolUnderwritersPaginated",
      "outputs": [
        {
          "internalType": "address[]",
          "name": "underwriters_",
          "type": "address[]"
        },
        {
          "internalType": "uint256",
          "name": "nextCursor",
          "type": "uint256"
        }
      ],
      "stateMutability": "view",
      "type": "function"
    },
    {
      "inputs": [
        {
          "internalType": "address",
          "name": "user",
          "type": "address"
        },
        {
          "internalType": "uint256",
          "name": "poolId",
          "type": "uint256"
        }
      ],
      "name": "getRiskAdjustedPledge",
      "outputs": [
        {
          "internalType": "uint256",
          "name": "",
          "type": "uint256"
        }
      ],
      "stateMutability": "view",
      "type": "function"
    },
    {
      "inputs": [
        {
          "internalType": "address",
          "name": "user",
          "type": "address"
        }
      ],
      "name": "getTotalWithdrawableCapital",
      "outputs": [
        {
          "internalType": "uint256",
          "name": "totalWithdrawable",
          "type": "uint256"
        },
        {
          "internalType": "uint256",
          "name": "unpledgedCapital",
          "type": "uint256"
        }
      ],
      "stateMutability": "view",
      "type": "function"
    },
    {
      "inputs": [
        {
          "internalType": "address",
          "name": "user",
          "type": "address"
        }
      ],
      "name": "getUnderwriterAllocations",
      "outputs": [
        {
          "internalType": "uint256[]",
          "name": "",
          "type": "uint256[]"
        }
      ],
      "stateMutability": "view",
      "type": "function"
    },
    {
      "inputs": [
        {
          "internalType": "address",
          "name": "user",
          "type": "address"
        }
      ],
      "name": "getUnpledgedCapital",
      "outputs": [
        {
          "internalType": "uint256",
          "name": "unpledgedCapital",
          "type": "uint256"
        },
        {
          "internalType": "uint256",
          "name": "totalPledged",
          "type": "uint256"
        }
      ],
      "stateMutability": "view",
      "type": "function"
    },
    {
      "inputs": [
        {
          "internalType": "uint256",
          "name": "",
          "type": "uint256"
        },
        {
          "internalType": "address",
          "name": "",
          "type": "address"
        }
      ],
      "name": "isAdapterInPool",
      "outputs": [
        {
          "internalType": "bool",
          "name": "",
          "type": "bool"
        }
      ],
      "stateMutability": "view",
      "type": "function"
    },
    {
      "inputs": [
        {
          "internalType": "address",
          "name": "",
          "type": "address"
        },
        {
          "internalType": "uint256",
          "name": "",
          "type": "uint256"
        }
      ],
      "name": "isAllocatedToPool",
      "outputs": [
        {
          "internalType": "bool",
          "name": "",
          "type": "bool"
        }
      ],
      "stateMutability": "view",
      "type": "function"
    },
    {
      "inputs": [],
      "name": "lossDistributor",
      "outputs": [
        {
          "internalType": "contract ILossDistributor",
          "name": "",
          "type": "address"
        }
      ],
      "stateMutability": "view",
      "type": "function"
    },
    {
      "inputs": [],
      "name": "maxAllocationsPerUnderwriter",
      "outputs": [
        {
          "internalType": "uint256",
          "name": "",
          "type": "uint256"
        }
      ],
      "stateMutability": "view",
      "type": "function"
    },
    {
      "inputs": [
        {
          "internalType": "address",
          "name": "underwriter",
          "type": "address"
        },
        {
          "internalType": "uint256",
          "name": "amount",
          "type": "uint256"
        }
      ],
      "name": "onCapitalDeposited",
      "outputs": [],
      "stateMutability": "nonpayable",
      "type": "function"
    },
    {
      "inputs": [
        {
          "internalType": "address",
          "name": "underwriter",
          "type": "address"
        },
        {
          "internalType": "uint256",
          "name": "principalComponentRemoved",
          "type": "uint256"
        },
        {
          "internalType": "bool",
          "name": "isFullWithdrawal",
          "type": "bool"
        }
      ],
      "name": "onCapitalWithdrawn",
      "outputs": [],
      "stateMutability": "nonpayable",
      "type": "function"
    },
    {
      "inputs": [
        {
          "internalType": "address",
          "name": "underwriter",
          "type": "address"
        },
        {
          "internalType": "uint256",
          "name": "valueLost",
          "type": "uint256"
        }
      ],
      "name": "onLossRealized",
      "outputs": [],
      "stateMutability": "nonpayable",
      "type": "function"
    },
    {
      "inputs": [
        {
          "internalType": "uint256",
          "name": "",
          "type": "uint256"
        },
        {
          "internalType": "uint256",
          "name": "",
          "type": "uint256"
        }
      ],
      "name": "overlapExposure",
      "outputs": [
        {
          "internalType": "uint256",
          "name": "",
          "type": "uint256"
        }
      ],
      "stateMutability": "view",
      "type": "function"
    },
    {
      "inputs": [],
      "name": "owner",
      "outputs": [
        {
          "internalType": "address",
          "name": "",
          "type": "address"
        }
      ],
      "stateMutability": "view",
      "type": "function"
    },
    {
      "inputs": [
        {
          "internalType": "uint256",
          "name": "",
          "type": "uint256"
        },
        {
          "internalType": "uint256",
          "name": "",
          "type": "uint256"
        }
      ],
      "name": "poolActiveAdapters",
      "outputs": [
        {
          "internalType": "address",
          "name": "",
          "type": "address"
        }
      ],
      "stateMutability": "view",
      "type": "function"
    },
    {
      "inputs": [
        {
          "internalType": "uint256",
          "name": "",
          "type": "uint256"
        },
        {
          "internalType": "address",
          "name": "",
          "type": "address"
        }
      ],
      "name": "poolAdapterIndex",
      "outputs": [
        {
          "internalType": "uint256",
          "name": "",
          "type": "uint256"
        }
      ],
      "stateMutability": "view",
      "type": "function"
    },
    {
      "inputs": [
        {
          "internalType": "uint256",
          "name": "",
          "type": "uint256"
        }
      ],
      "name": "poolMutexGroupId",
      "outputs": [
        {
          "internalType": "uint256",
          "name": "",
          "type": "uint256"
        }
      ],
      "stateMutability": "view",
      "type": "function"
    },
    {
      "inputs": [],
      "name": "poolRegistry",
      "outputs": [
        {
          "internalType": "contract IPoolRegistry",
          "name": "",
          "type": "address"
        }
      ],
      "stateMutability": "view",
      "type": "function"
    },
    {
      "inputs": [
        {
          "internalType": "uint256",
          "name": "",
          "type": "uint256"
        },
        {
          "internalType": "uint256",
          "name": "",
          "type": "uint256"
        }
      ],
      "name": "poolSpecificUnderwriters",
      "outputs": [
        {
          "internalType": "address",
          "name": "",
          "type": "address"
        }
      ],
      "stateMutability": "view",
      "type": "function"
    },
    {
      "inputs": [
        {
          "internalType": "address",
          "name": "user",
          "type": "address"
        }
      ],
      "name": "realizeLossesForAllPools",
      "outputs": [],
      "stateMutability": "nonpayable",
      "type": "function"
    },
    {
      "inputs": [],
      "name": "renounceOwnership",
      "outputs": [],
      "stateMutability": "nonpayable",
      "type": "function"
    },
    {
      "inputs": [
        {
          "internalType": "uint256",
          "name": "poolId",
          "type": "uint256"
        }
      ],
      "name": "requestDeallocateFromPool",
      "outputs": [],
      "stateMutability": "nonpayable",
      "type": "function"
    },
    {
      "inputs": [
        {
          "internalType": "uint256",
          "name": "amount",
          "type": "uint256"
        }
      ],
      "name": "requestWithdrawal",
      "outputs": [],
      "stateMutability": "nonpayable",
      "type": "function"
    },
    {
      "inputs": [],
      "name": "rewardDistributor",
      "outputs": [
        {
          "internalType": "contract IRewardDistributor",
          "name": "",
          "type": "address"
        }
      ],
      "stateMutability": "view",
      "type": "function"
    },
    {
      "inputs": [],
      "name": "riskManager",
      "outputs": [
        {
          "internalType": "address",
          "name": "",
          "type": "address"
        }
      ],
      "stateMutability": "view",
      "type": "function"
    },
    {
      "inputs": [
        {
          "internalType": "address",
          "name": "_capitalPool",
          "type": "address"
        },
        {
          "internalType": "address",
          "name": "_poolRegistry",
          "type": "address"
        },
        {
          "internalType": "address",
          "name": "_catPool",
          "type": "address"
        },
        {
          "internalType": "address",
          "name": "_lossDistributor",
          "type": "address"
        },
        {
          "internalType": "address",
          "name": "_rewardDistributor",
          "type": "address"
        },
        {
          "internalType": "address",
          "name": "_riskManager",
          "type": "address"
        }
      ],
      "name": "setAddresses",
      "outputs": [],
      "stateMutability": "nonpayable",
      "type": "function"
    },
    {
      "inputs": [
        {
          "internalType": "uint256",
          "name": "_newPeriod",
          "type": "uint256"
        }
      ],
      "name": "setDeallocationNoticePeriod",
      "outputs": [],
      "stateMutability": "nonpayable",
      "type": "function"
    },
    {
      "inputs": [
        {
          "internalType": "uint256",
          "name": "_newMax",
          "type": "uint256"
        }
      ],
      "name": "setMaxAllocationsPerUnderwriter",
      "outputs": [],
      "stateMutability": "nonpayable",
      "type": "function"
    },
    {
      "inputs": [
        {
          "internalType": "uint256[]",
          "name": "poolIds",
          "type": "uint256[]"
        },
        {
          "internalType": "uint256",
          "name": "groupId",
          "type": "uint256"
        }
      ],
      "name": "setPoolMutexGroup",
      "outputs": [],
      "stateMutability": "nonpayable",
      "type": "function"
    },
    {
      "inputs": [
        {
          "internalType": "uint256",
          "name": "",
          "type": "uint256"
        }
      ],
      "name": "totalCapitalPledgedToPool",
      "outputs": [
        {
          "internalType": "uint256",
          "name": "",
          "type": "uint256"
        }
      ],
      "stateMutability": "view",
      "type": "function"
    },
    {
      "inputs": [
        {
          "internalType": "address",
          "name": "newOwner",
          "type": "address"
        }
      ],
      "name": "transferOwnership",
      "outputs": [],
      "stateMutability": "nonpayable",
      "type": "function"
    },
    {
      "inputs": [
        {
          "internalType": "address",
          "name": "",
          "type": "address"
        },
        {
          "internalType": "uint256",
          "name": "",
          "type": "uint256"
        }
      ],
      "name": "underwriterAllocationIndex",
      "outputs": [
        {
          "internalType": "uint256",
          "name": "",
          "type": "uint256"
        }
      ],
      "stateMutability": "view",
      "type": "function"
    },
    {
      "inputs": [
        {
          "internalType": "address",
          "name": "",
          "type": "address"
        },
        {
          "internalType": "uint256",
          "name": "",
          "type": "uint256"
        }
      ],
      "name": "underwriterAllocations",
      "outputs": [
        {
          "internalType": "uint256",
          "name": "",
          "type": "uint256"
        }
      ],
      "stateMutability": "view",
      "type": "function"
    },
    {
      "inputs": [
        {
          "internalType": "uint256",
          "name": "",
          "type": "uint256"
        },
        {
          "internalType": "address",
          "name": "",
          "type": "address"
        }
      ],
      "name": "underwriterIndexInPoolArray",
      "outputs": [
        {
          "internalType": "uint256",
          "name": "",
          "type": "uint256"
        }
      ],
      "stateMutability": "view",
      "type": "function"
    },
    {
      "inputs": [
        {
          "internalType": "address",
          "name": "",
          "type": "address"
        },
        {
          "internalType": "uint256",
          "name": "",
          "type": "uint256"
        }
      ],
      "name": "underwriterPoolPledge",
      "outputs": [
        {
          "internalType": "uint256",
          "name": "",
          "type": "uint256"
        }
      ],
      "stateMutability": "view",
      "type": "function"
    },
    {
      "inputs": [
        {
          "internalType": "address",
          "name": "",
          "type": "address"
        }
      ],
      "name": "underwriterRiskPointsUsed",
      "outputs": [
        {
          "internalType": "uint256",
          "name": "",
          "type": "uint256"
        }
      ],
      "stateMutability": "view",
      "type": "function"
    }
  ],
  "bytecode": "0x608034620000cb57601f620045c838819003918201601f19168301916001600160401b03831184841017620000d057808492602094604052833981010312620000cb57516001600160a01b039081811690819003620000cb578015620000b257600080546001600160a01b03198116831782556040519316907f8be0079c531659141344cd1fd0a4f28419497f9722a3daafe3b4186f6b6457e09080a36001805560056018556144e19081620000e78239f35b604051631e4fbdf760e01b815260006004820152602490fd5b600080fd5b634e487b7160e01b600052604160045260246000fdfe608060408181526004918236101561001657600080fd5b600092833560e01c9182620d913d1461201157508162662ebe14611fbb57816273ba5d14611f0f5781630987e3d314611df25781630b107f7c14611db15783826324f13a7614611d05575081632c060ed914611cce5781633910833114611c87578382633efcfda414611be157508163426483a614611bb95781634784266314611b9157816355a1930414611b0b5781635bfb750814611ae35781635c9244af14611abc5781636cfb6bf9146119325781636fa4eb48146117505781636fd4cac7146117285781637013b27114611704578163715018a61461169d57816377d9cabd14611663578163845132321461163957816388745960146116115781638da5cb5b146115eb57816399e18977146115bb5781639ee679e814611321578163a4318d3c14611304578163a68292ad146112e8578163a923099a1461129a578163a9d1bd661461126e578163ac220ef914611229578163acc2166a14611201578163afcff50f146111d9578163b071110f146111ba578163b2d300df14611178578163b41ab39814611131578163b6a6f5ae146110f6578163b909107d146110ac578163bc0bc3a314611067578163bf02ec6514611048578163c5b085051461102c578163d01ebe3714610fd1578163d359ac4214610f9e578163df11aa4e14610f5e578163e026f27a14610e77578163e139c3f014610d7a578163f089434a14610902578163f2fde38b14610852578163f646137114610398578163fa1ba25c14610358578163fa21ef61146102d0578163fb360a5d146102a4575063fb7ce3571461026257600080fd5b346102a057806003193601126102a057806020926001600160a01b03610286612065565b168152600884528181206024358252845220549051908152f35b5080fd5b9050346102cc5760203660031901126102cc576020928291358152600e845220549051908152f35b8280fd5b919050346102cc57602091826003193601126103545735835260148252808320815190819485928583549182815201928252858220915b86828210610334578590610330886103218489038561219b565b51928284938452830190612124565b0390f35b83546001600160a01b031685528895509093019260019283019201610307565b8380fd5b5050346102a057806003193601126102a057806020926001600160a01b0361037e612065565b168152600b84528181206024358252845220549051908152f35b9050346102cc5760603660031901126102cc578035916024358281101561076e5767ffffffffffffffff9060443582811161084e576103da90369086016120a9565b9590926103e5613464565b816105c5575b5050508490338252602090600960205283832084519283602083549182815201928652602086209186905b8282106105aa57505050508261042d91038361219b565b825b82518110156104be576001600160a01b036005541661044e82856121bd565b5190803b156104ba578651636844f57760e11b815233818a019081526020810193909352918691839182908490829060400103925af180156104b05790859161049c575b505060010161042f565b6104a590612171565b610354578338610492565b86513d87823e3d90fd5b8580fd5b508584866104cc83856134b7565b939093338952600d6020526104e5828a209182546121d1565b9055875b85811061050e578861050789610500368a8c61220c565b9033613a86565b6001805580f35b886001600160a01b036005541661052683898b612161565b3590803b156102cc578451636844f57760e11b8152338882019081526020810193909352918391839182908490829060400103925af180156105a057610588575b505080610582868561057c6001958b8d612161565b356138cb565b016104e9565b61059190612171565b61059c57888a610567565b8880fd5b84513d84823e3d90fd5b835485528b9750938401936001938401939190910190610416565b6001600160a01b0390816002541686519182917f7158da7c000000000000000000000000000000000000000000000000000000008352828a60209586935afa918215610844578b92610809575b508751838101917f23b872dd0000000000000000000000000000000000000000000000000000000083523360248301523060448301528660648301526064825260a0820190828210908211176107f45789525183918c919082855af1156107ea5789513d6107e157508281163b155b6107b057818392856106e2938a8e878e829c9b9a600254169351988996879586937f095ea7b30000000000000000000000000000000000000000000000000000000085528401602090939291936001600160a01b0360408201951681520152565b0393165af180156107a657610772575b50506002541691823b15610354576064849283885195869485937faade3691000000000000000000000000000000000000000000000000000000008552338d860152602485015261074281613400565b60448401525af180156105a05761075a575b806103eb565b61076390612171565b61076e578438610754565b8480fd5b81813d831161079f575b610786818361219b565b8101031261076e57610797906133f3565b5038806106f2565b503d61077c565b88513d88823e3d90fd5b86517f5274afe700000000000000000000000000000000000000000000000000000000815290831681890152602490fd5b60011415610681565b86513d8b823e3d90fd5b60418b634e487b7160e01b6000525260246000fd5b9091508281813d831161083d575b610821818361219b565b8101031261083957610832906123c9565b9038610612565b8a80fd5b503d610817565b88513d8d823e3d90fd5b8680fd5b9050346102cc5760203660031901126102cc5761086d612065565b90610876613420565b6001600160a01b038092169283156108d35750506000548273ffffffffffffffffffffffffffffffffffffffff19821617600055167f8be0079c531659141344cd1fd0a4f28419497f9722a3daafe3b4186f6b6457e0600080a380f35b908460249251917f1e4fbdf7000000000000000000000000000000000000000000000000000000008352820152fd5b9050346102cc576020918260031936011261035457813592610922613464565b338552600c81528185208486528152818520548015610d5257601954610947916121d1565b4210610d2b579060249161095b8533614107565b33865260088152818620858752815281862054936001600160a01b038281600254168551968780926311f6be9960e11b825233878301525afa948515610d21578895610ce6575b50338852600c83528388208789528352600084892055600e83528388206109ca878254612285565b9055868852600f83528388206109e1878254612285565b9055868852601083528388208186169081600052845284600020610a06888254612285565b905587895260108452848920906000528352836000205415610cd7575b6024838260035416865192838092639618714160e01b82528c888301525afa908115610ccd5790610a5b918a91610ca0575b5061444d565b338952600d8452888581208281541015600014610c99575050338952600d8452610a89858a20918254612285565b90555b33885260098352838820600b8452848920888a52845284892054815460001993929190848101908111610c8657610ac3908361207b565b90549060031b1c610af181610ad8848661207b565b90919082549060031b91821b91600019901b1916179055565b338c52600b8752878c20908c528652868b205580548015610c7357830190610b19828261207b565b8582549160031b1b191690555587895260158452848920336000528452846000205491888a5260148552858a20938454918201918211610c605750927fdd72ba2f57070e525da84e77d5d5bb067e25a5a0aefb94eb4fb44fc08d6b7965969492610bda92610b8b610c5698968461207b565b90549060031b1c16610bc081610ba1848661207b565b9091906001600160a01b038084549260031b9316831b921b1916179055565b8a8c5260158552858c209060005284528460002055614241565b86885260158152818820336000528152600082812055338852600b81528188208789528152600082892055338852600881528188208789528152600082892055338852600a8152818820908789525280872060ff198154169055519182913395839092916001600160a01b036020916040840195845216910152565b0390a36001805580f35b8a6011602492634e487b7160e01b835252fd5b60248b603187634e487b7160e01b835252fd5b60248c601188634e487b7160e01b835252fd5b5550610a8c565b610cc09150853d8711610cc6575b610cb8818361219b565b81019061349f565b38610a55565b503d610cae565b85513d8b823e3d90fd5b610ce18588614284565b610a23565b9094508281813d8311610d1a575b610cfe818361219b565b81010312610d1657610d0f906123c9565b93386109a2565b8780fd5b503d610cf4565b84513d8a823e3d90fd5b50517ff214e773000000000000000000000000000000000000000000000000000000008152fd5b5050517f28d2fa90000000000000000000000000000000000000000000000000000000008152fd5b9050346102cc5760209081600319360112610354573591828452601182528084208151808285829454938481520190885285882092885b87828210610e5857505050610dc89250038261219b565b610dd28151612dd2565b92855b8251811015610e1a57600190868852601083528488206001600160a01b03610dfd83876121bd565b511660005283528460002054610e1382886121bd565b5201610dd5565b509183610e50610e43948389898152600e83522054928451968796606088526060880190612124565b91868303908701526120da565b918301520390f35b85546001600160a01b0316845260019586019587955093019201610db1565b919050346102cc576020918260031936011261035457359081845260148352808420938151808686829854938481520190845286842092845b88828210610f3f57505050610ec79250038661219b565b610ed18551612dd2565b92815b8651811015610f1757806001600160a01b03610ef26001938a6121bd565b5116845260088752848420838552875284842054610f1082886121bd565b5201610ed4565b5050509161033091610f328451958587968752860190612124565b91848303908501526120da565b85546001600160a01b031684526001958601958b955093019201610eb0565b5050346102a057806003193601126102a057806020926001600160a01b03610f84612065565b168152600c84528181206024358252845220549051908152f35b828434610fce576020366003190112610fce5750610fc2610fbd612065565b61330b565b82519182526020820152f35b80fd5b8383346102a05760603660031901126102a057610fec612065565b604435918215158303610354576001600160a01b0360025416330361101d57509061101a9160243590612ee6565b80f35b84905163da37af0b60e01b8152fd5b5050346102a057816003193601126102a05760209051600c8152f35b5050346102a057816003193601126102a0576020906018549051908152f35b90508234610fce576060366003190112610fce575061108e90604435906024359035612e04565b82518381529283926110a291840190612124565b9060208301520390f35b5050346102a0576110bc3661210e565b929081526014602052818120908154841015610fce57506110e76020936001600160a01b039261207b565b92905490519260031b1c168152f35b5050346102a0576111063661210e565b929081526011602052818120908154841015610fce57506110e76020936001600160a01b039261207b565b9050346102cc57816003193601126102cc5761114b612065565b916001600160a01b0360025416330361116b578361101a60243585612b81565b5163da37af0b60e01b8152fd5b9050346102cc57816003193601126102cc576001600160a01b038260209461119e61204f565b9335815260158652209116600052825280600020549051908152f35b5050346102a057816003193601126102a0576020906019549051908152f35b5050346102a057816003193601126102a0576020906001600160a01b03600354169051908152f35b5050346102a057816003193601126102a0576020906001600160a01b03600654169051908152f35b5050346102a057806003193601126102a05760ff816020936001600160a01b03611251612065565b168152600a85528181206024358252855220541690519015158152f35b5050346102a057806020926112823661210e565b90825260168552828220908252845220549051908152f35b9050346102cc5760203660031901126102cc577ff94b894768b2123b1e98b0ad017af5950f57d77ec75b8ce6916f235fd0a780909160209135906112dc613420565b8160195551908152a180f35b5050346102a057816003193601126102a0576020905160328152f35b8390346102a05760203660031901126102a05761101a9035612a3f565b839150346102a057602092836003193601126102cc57813591611342613464565b61134b3361330b565b8185979297116115865794955085948411611470576001600160a01b0360025416938351907f25d27d8b000000000000000000000000000000000000000000000000000000008252838201528181602481885afa918215611466578692611430575b5050833b1561076e5782517fda95ebf700000000000000000000000000000000000000000000000000000000815233928101928352602083019190915292849184919082908490829060400103925af19081156114275750611413575b50506001805580f35b61141c90612171565b610fce57808261140a565b513d84823e3d90fd5b8196508092503d831161145f575b611448818361219b565b8101031261145a5784935186806113ad565b600080fd5b503d61143e565b84513d88823e3d90fd5b919092935033855260098252808520938151808685829854938481520190895285892092895b87828210611570575050506114ad9250038661219b565b8594865b8151811015611565576114c481836121bd565b516114d0848233613f37565b6114dd57506001016114b1565b925050506114ee9192939450612a3f565b60015b156114fe57505050610507565b60849350519162461bcd60e51b8352820152602860248201527f436f756c64206e6f742066696e64206120706f6f6c20746f206465616c6c6f6360448201527f6174652066726f6d0000000000000000000000000000000000000000000000006064820152fd5b5050509091926114f1565b855484526001958601958b955093019201611496565b60448388878751927f032fcf030000000000000000000000000000000000000000000000000000000084528301526024820152fd5b5050346102a057806003193601126102a0576020906115e46115db612065565b602435906128e5565b9051908152f35b5050346102a057816003193601126102a0576001600160a01b0360209254169051908152f35b9050346102cc5760203660031901126102cc5760209282913581526017845220549051908152f35b8334610fce576020366003190112610fce57610507611656612065565b61165e613464565b6126f8565b9050346102cc57816003193601126102cc5761167d612065565b916001600160a01b0360025416330361116b578361101a602435856123dd565b8334610fce5780600319360112610fce576116b6613420565b60006001600160a01b03815473ffffffffffffffffffffffffffffffffffffffff1981168355167f8be0079c531659141344cd1fd0a4f28419497f9722a3daafe3b4186f6b6457e08280a380f35b828434610fce576020366003190112610fce5750610fc2611723612065565b612292565b9050346102cc5760203660031901126102cc576020928291358152600f845220549051908152f35b9050346102cc576020918260031936011261035457813567ffffffffffffffff811161076e576117848591369085016120a9565b9061178d613464565b338352600986528383209184519283888254918281520191865288862090865b8a82821061191b5750505050836117c591038461219b565b835b8351811015611852576001600160a01b03600554166117e682866121bd565b5190803b1561084e578751636844f57760e11b815233818b019081526020810193909352918791839182908490829060400103925af1801561184857908691611834575b50506001016117c7565b61183d90612171565b61076e57843861182a565b87513d88823e3d90fd5b508686600d8761186285876134b7565b91939095338b5252611878828a209182546121d1565b9055875b858110611893578861050789610500368a8c61220c565b886001600160a01b03600554166118ab83898b612161565b3590803b156102cc578451636844f57760e11b8152338882019081526020810193909352918391839182908490829060400103925af180156105a057611907575b505080611901868561057c6001958b8d612161565b0161187c565b61191090612171565b61059c57888a6118ec565b835485528c985090930192600192830192016117ad565b9050346102cc5760c03660031901126102cc5761194d612065565b9061195661204f565b906044356001600160a01b039485821680920361145a576064359286841680940361145a576084359487861680960361145a5760a4359688881680980361145a5788906119a1613420565b169788158015611ab2575b8015611aaa575b8015611aa2575b8015611a9a575b8015611a92575b611a6a57918760c0989694927f7355bf2d91d3126ad1129aa9b075c9949b70842c100c36075d35c129ba591bf19a98969473ffffffffffffffffffffffffffffffffffffffff19918a836002541617600255169283826003541617600355858282541617905585816005541617600555868160065416176006556007541617600755815196875260208701528501526060840152608083015260a0820152a180f35b8284517f8579befe000000000000000000000000000000000000000000000000000000008152fd5b5087156119c8565b5086156119c1565b5085156119ba565b5084156119b3565b50808216156119ac565b828434610fce5780600319360112610fce57506001600160a01b0360209254169051908152f35b5050346102a057816003193601126102a0576020906001600160a01b03600254169051908152f35b5050346102a057602090816003193601126102cc576001600160a01b03611b30612065565b16835260098252808320815190819485928583549182815201928252858220915b86828210611b7a57859061033088611b6b8489038561219b565b519282849384528301906120da565b835485528895509093019260019283019201611b51565b5050346102a057816003193601126102a0576020906001600160a01b03600754169051908152f35b5050346102a057816003193601126102a0576020906001600160a01b03600554169051908152f35b80918434611c83576020366003190112611c8357611bfd613464565b6001600160a01b0360025416803b15611c7e5781517f64ea50b60000000000000000000000000000000000000000000000000000000081523381850190815293356020850152928491849182908490829060400103925af19081156114275750611c6a575b506001805580f35b611c7390612171565b610fce578082611c62565b505050fd5b5050fd5b9050346102cc57816003193601126102cc576001600160a01b0382602094611cad61204f565b9335815260138652209116600052825260ff81600020541690519015158152f35b5050346102a05760203660031901126102a057806020926001600160a01b03611cf5612065565b168152600d845220549051908152f35b92915034611c83576020366003190112611c8357611d21613464565b611d29613464565b611d32336126f8565b600180556001600160a01b036002541690813b15611c7e5782517f7ac9245600000000000000000000000000000000000000000000000000000000815233818301908152913560208301529391849182908490829060400103925af19081156114275750611da257506001805580f35b611dab90612171565b38611c62565b9050346102cc57816003193601126102cc576020928291611dd061204f565b90358252601285526001600160a01b0383832091168252845220549051908152f35b919050346102cc57806003193601126102cc57813567ffffffffffffffff811161035457611e2390369084016120a9565b909160243593611e31613420565b8415611ecd5750845b828110611eac5750805191602083528060208401527f07ffffffffffffffffffffffffffffffffffffffffffffffffffffffffffffff81116104ba577f3e2b2f3da89786a99644a5dd2db3f94f69aceae9c2c94b973c75731c9120940f93839160051b8091848401378101030190a280f35b80611eba6001928587612161565b3587526017602052858388205501611e3a565b6020606492519162461bcd60e51b8352820152601760248201527f47726f75702049442063616e6e6f74206265207a65726f0000000000000000006044820152fd5b919050346102cc5760203660031901126102cc57813591611f2e613420565b82151580611fb0575b15611f6e5750816020917fb8cddf3d95d9e26fabb43fd968b8e13af6606acbff3ffceb271e3cbdeb9e78919360185551908152a180f35b6020606492519162461bcd60e51b8352820152600b60248201527f496e76616c6964206d61780000000000000000000000000000000000000000006044820152fd5b506032831115611f37565b5050346102a057806003193601126102a057611fd5612065565b6001600160a01b03168252600960205280822080546024359390841015610fce57506020926120039161207b565b91905490519160031b1c8152f35b929150346103545781600319360112610354579260209361203061204f565b90358252601085526001600160a01b0383832091168252845220548152f35b602435906001600160a01b038216820361145a57565b600435906001600160a01b038216820361145a57565b80548210156120935760005260206000200190600090565b634e487b7160e01b600052603260045260246000fd5b9181601f8401121561145a5782359167ffffffffffffffff831161145a576020808501948460051b01011161145a57565b90815180825260208080930193019160005b8281106120fa575050505090565b8351855293810193928101926001016120ec565b604090600319011261145a576004359060243590565b90815180825260208080930193019160005b828110612144575050505090565b83516001600160a01b031685529381019392810192600101612136565b91908110156120935760051b0190565b67ffffffffffffffff811161218557604052565b634e487b7160e01b600052604160045260246000fd5b90601f8019910116810190811067ffffffffffffffff82111761218557604052565b80518210156120935760209160051b010190565b919082018092116121de57565b634e487b7160e01b600052601160045260246000fd5b67ffffffffffffffff81116121855760051b60200190565b9291612217826121f4565b91612225604051938461219b565b829481845260208094019160051b810192831161145a57905b82821061224b5750505050565b8135815290830190830161223e565b919082608091031261145a578151916020810151600481101561145a57916060604083015192015190565b919082039182116121de57565b60009060006001600160a01b03938460025416608060409460248651809981936301cc7c9760e61b835216948560048301525afa9586156123bf57839661238b575b5080835260209060098252848420928551808585829754938481520190885285882092885b87828210612375575050506123109250038561219b565b84965b845188101561234d57612345600191848852600886528888206123368b896121bd565b518952865288882054906121d1565b970196612313565b9650969250505083919250818110156000146123705761236d9250612285565b91565b505091565b855484526001958601958a9550930192016122f9565b6123ae91965060803d6080116123b8575b6123a6818361219b565b81019061225a565b50505094386122d4565b503d61239c565b84513d85823e3d90fd5b51906001600160a01b038216820361145a57565b9190916123e8613464565b6123f1816126f8565b60018080556001600160a01b0393846002541660409586516301cc7c9760e61b8152608081602481858a16968760048301525afa9081156126ed576000916126cb575b5083808211156126c15761244791612285565b905b81156126b75761245886613c5b565b826000526020916009835288600020918951808486829654938481520190600052866000209260005b8b898383106126a2575050505061249a9250038461219b565b82516124b5575b505050505050506124b3919250613d73565b565b9081846024949360029b9a999b54168c51958680926311f6be9960e11b82528a60048301525afa93841561269757600094612660575b50831691821561261d5760009a9899979890885b61250b575b50506124a1565b809a99989a518c1015612614578a8c612529829e849e9c9d9e6121bd565b5189600052896008808b5286600020836000528b52898d898960002054918261255b575b50505050505050019b6124ff565b61256492613e83565b80612571575b898f61254d565b7f6981e75271ab17d7bd4ad5bc8c0183e2eb5bb5bd59f7d84708a0adbc941c551092846000528d5288600020856000528d52886000206125b28282546121d1565b905584600052600e8d52886000206125cb8282546121d1565b90558460005260108d52886000208b6000528d52886000206125ee8282546121d1565b905588519081526001600160a01b03919091166020820152604090a3388981898161256a565b88999a50612504565b6064858c519062461bcd60e51b82526004820152601d60248201527f554d3a205573657220686173206e6f207969656c6420616461707465720000006044820152fd5b9093508481813d8311612690575b612678818361219b565b8101031261145a57612689906123c9565b92386124eb565b503d61266e565b8b513d6000823e3d90fd5b86548552958101958995509093019201612481565b5050505050509050565b5050600090612449565b6126e4915060803d6080116123b8576123a6818361219b565b50505038612434565b88513d6000823e3d90fd5b906001600160a01b03918281169260009084825260209060098252604093848420968551808986829b54938481520190885286882092885b888282106128cf575050506127479250038961219b565b8751156126b7578497855b81518110156128245761276581836121bd565b5183885260088752888820818952875288882054908161278a575b5050600101612752565b6005548a51639c94267960e01b81526001600160a01b038816600482015260248101929092526044820192909252919a91908790829060649082908a165afa90811561281a5788916127ec575b506127e4906001926121d1565b999038612780565b90508681813d8311612813575b612803818361219b565b81010312610d16575160016127d7565b503d6127f9565b89513d8a823e3d90fd5b50949792915092508161283b575b50505050509050565b6005541691823b1561084e5791869391846128999798948751988995869485937fbcb40c80000000000000000000000000000000000000000000000000000000008552600485015260248401526060604484015260648301906120da565b03925af19182156128c55750506128b6575b808080808594612832565b6128bf90612171565b386128ab565b51903d90823e3d90fd5b855484526001958601958e955093019201612730565b906001600160a01b03916000928082168452602060088152604093848620818752825284862054938415612a36576002546005548751639c94267960e01b81526001600160a01b039390931660048401526024830193909352604482018690528416939091839183916064918391165afa908115612a2c5790829187916129fd575b5060248651809581937f8a69c8dd00000000000000000000000000000000000000000000000000000000835260048301525afa9384156129f4575084936129c4575b50508181106129bf576129bc9250612285565b90565b505090565b9080929350813d83116129ed575b6129dc818361219b565b810103126102cc57519038806129a9565b503d6129d2565b513d86823e3d90fd5b82819392503d8311612a25575b612a14818361219b565b810103126104ba5781905138612967565b503d612a0a565b85513d88823e3d90fd5b50505050505090565b60003381526020906008825260408082208483528352612a63818320548533613f37565b15612b58576001600160a01b0360055416803b156102cc578151636844f57760e11b8152336004820152602481018690529083908290604490829084905af18015612b4c57612b1b575b507ffbeb47a6bd9b7dbbbabf46435818010ab86574e23e88ae1cc9ffefec367d39d19192338452600881528184208585528152818085205494338152600c835281812087825283524282822055600f835220612b0a8582546121d1565b9055815193845242908401523392a3565b91612b467ffbeb47a6bd9b7dbbbabf46435818010ab86574e23e88ae1cc9ffefec367d39d193612171565b91612aad565b505051903d90823e3d90fd5b600490517fc7068bf0000000000000000000000000000000000000000000000000000000008152fd5b90612b8b82613c5b565b6001600160a01b0380600254169160408051926301cc7c9760e61b845280861693846004820152608081602481895afa908115612dc757612bd6918591600091612da5575b506121d1565b8015612d9c57846000526020916009835283600020968451808986829b54938481520190600052866000209260005b88828210612d8657505050612c1c9250038961219b565b8751612c34575b50505050505050506124b390613d73565b83602491869798999b9651928380926311f6be9960e11b82528c60048301525afa908115612d7b57600091612d46575b5016928315612d3b5760005b8951811015612d235780612c866001928c6121bd565b5189600052600890818752886000208160005287528860002054868b82612cb3575b505050505001612c70565b612cbc92613e83565b918b60005287528860002081600052875288600020612cdc838254612285565b905580600052600e875288600020612cf5838254612285565b90556000526010865287600020876000528652612d1788600020918254612285565b9055388080868b612ca8565b5097505050505050506124b338808080808080612c23565b975050505050505050565b90508381813d8311612d74575b612d5d818361219b565b8101031261145a57612d6e906123c9565b38612c64565b503d612d53565b86513d6000823e3d90fd5b855484526001958601958e955093019201612c05565b50505050505050565b612dbe915060803d6080116123b8576123a6818361219b565b50505038612bd0565b83513d6000823e3d90fd5b90612ddc826121f4565b612de9604051918261219b565b8281528092612dfa601f19916121f4565b0190602036910137565b90929160009182526014602052604082209081549081861015612ea557612e2b90866121d1565b91818311612e9c575b612e3e8684612285565b90612e4882612dd2565b96855b838110612e6557505050508103612e60575090565b905090565b806001600160a01b03612e83612e7d600194866121d1565b8661207b565b90549060031b1c16612e95828c6121bd565b5201612e4b565b91508091612e34565b50505091506040516020810181811067ffffffffffffffff821117612ed257604052828152823681379190565b602484634e487b7160e01b81526041600452fd5b9190612ef183613c5b565b6001600160a01b03908160025416906040908151926301cc7c9760e61b845284871693846004820152608081602481855afa90811561314e57612f3d918491600091612da557506121d1565b91821561330157846000526020926009845284600020928551808587829754938481520190600052876000209260005b898282106132eb57505050612f849250038561219b565b8351613159575b5050505084612faa575b5050505015612fa15750565b6124b390613d73565b8596612fbb60249394959697613c5b565b8186600254168551948580926311f6be9960e11b82528960048301525afa92831561314e57600093613117575b50846000526009825283600020978451808a85829c54938481520190600052856000209260005b87828210613101575050506130269250038a61219b565b60005b89518110156130a6578061303f6001928c6121bd565b5188600052600886528760002081600052865287600020549081613066575b505001613029565b600e875288600020613079838254612285565b905560005260108652876000208a8816600052865261309d88600020918254612285565b9055388061305e565b5096955096509192905080600052600982528260002080549060008155816130e1575b505060009291600d9184525281205538808080612f95565b60005282600020908101905b818110156130c957600081556001016130ed565b855484526001958601958f95509301920161300f565b9092508181813d8311613147575b61312f818361219b565b8101031261145a57613140906123c9565b9138612fe8565b503d613125565b84513d6000823e3d90fd5b8460249187989a979c94999b93959c51928380926311f6be9960e11b82528d60048301525afa9081156132e057908a916000916132a8575b50169485156132645760005b8b5181101561325057806131b36001928e6121bd565b518b6000526008908189528a6000208160005289528a60002054888d826131e0575b50505050500161319d565b6131e992613e83565b918d60005289528a6000208160005289528a600020613209838254612285565b905580600052600e89528a600020613222838254612285565b905560005260108852896000208960005288526132448a600020918254612285565b9055388080888d6131d5565b509795945097955097505084388080612f8b565b865162461bcd60e51b815260206004820152601960248201527f5573657220686173206e6f207969656c642061646170746572000000000000006044820152606490fd5b809250868092503d83116132d9575b6132c1818361219b565b8101031261145a576132d38a916123c9565b38613191565b503d6132b7565b87513d6000823e3d90fd5b855484526001958601958a955093019201612f6d565b5050505050505050565b9061331582612292565b509182906001600160a01b038116906000828152602090600982526040916040822097604051808a84829c54938481520190865284862092865b868282106133dd575050506133669250038a61219b565b825b89518110156133d15761337b818b6121bd565b5187855260088452858520818652845285852054908180151591826133bf575b50506133ab575b50600101613368565b6133b890600192996121d1565b97906133a2565b6133ca925089613f37565b813861339b565b50969597505050505050565b855484526001958601958f95509301920161334f565b5190811515820361145a57565b6004111561340a57565b634e487b7160e01b600052602160045260246000fd5b6001600160a01b0360005416330361343457565b60246040517f118cdaa7000000000000000000000000000000000000000000000000000000008152336004820152fd5b600260015414613475576002600155565b60046040517f3ee5aeb5000000000000000000000000000000000000000000000000000000008152fd5b9081602091031261145a5751600481101561145a5790565b916001600160a01b03928360025416936040908151926301cc7c9760e61b84523360048501526080846024818a5afa938415612dc75760009461387f575b5083156138565785158015613835575b61380c5733600052600960205282600020868285519283906020815495868152019060005260206000209460005b8181106137f057505061355294508161354d91038261219b565b61435e565b33600052600d6020528260002054906000968360035416908551906308eec5d760e41b8252602082600481865afa9182156137e6578a926137ae575b5092919089935b8085106136b4575050505050600c6135ad87836121d1565b11613677575060206024968351978880926311f6be9960e11b82523360048301525afa95861561366c57600096613630575b508516156135ed5750929190565b5162461bcd60e51b815260206004820152601960248201527f5573657220686173206e6f207969656c642061646170746572000000000000006044820152606490fd5b9095506020813d602011613664575b8161364c6020938361219b565b8101031261145a5761365d906123c9565b94386135df565b3d915061363f565b82513d6000823e3d90fd5b606490868451917f6ad5abbb00000000000000000000000000000000000000000000000000000000835260048301526024820152600c6044820152fd5b90919293996136c48b8387612161565b35838110156137855733600052600a602052886000208160005260205260ff89600020541661375c57885190639618714160e01b82526004820152602081602481885afa908115613751579161372761372d92600194600091613738575061444d565b906121d1565b9a0193929190613595565b610cc0915060203d602011610cc657610cb8818361219b565b89513d6000823e3d90fd5b600489517fc2f34d18000000000000000000000000000000000000000000000000000000008152fd5b600489517f0afa7ee8000000000000000000000000000000000000000000000000000000008152fd5b9091506020813d6020116137de575b816137ca6020938361219b565b810103126137da5751903861358e565b8980fd5b3d91506137bd565b87513d8c823e3d90fd5b865483526001968701968d965088955060209093019201613533565b600483517f480c2784000000000000000000000000000000000000000000000000000000008152fd5b5033600052600960205261384d8360002054876121d1565b60185410613505565b600483517f46d2e181000000000000000000000000000000000000000000000000000000008152fd5b61389991945060803d6080116123b8576123a6818361219b565b50505092386134f5565b90815491680100000000000000008310156121855782610ba19160016124b39501815561207b565b91600033815260206008815260409182812086825282528483822055338152600a8252828120868252825282812060ff19906001828254161790553382526009835283822054600b84528483208884528452848320553382526009835283822080549068010000000000000000821015612ed25794809387959361397e8b610ad886613a2f9b60017f6981e75271ab17d7bd4ad5bc8c0183e2eb5bb5bd59f7d84708a0adbc941c55109e9901815561207b565b8a82526014855282822054601586528383203384528652838320558a8252601485526139ac338484206138a3565b8a8252600e85528282206139c18b82546121d1565b90558a825260108552828220946001600160a01b0385169586845281528383206139ec8c82546121d1565b90558b835260138152838320868452815260ff848420541615613a34575b50509351978852505050506001600160a01b0316602084015233929081906040820190565b0390a3565b613a7b956011928d85526013835285852082865283526001868620918254161790558c84528282528484205490601283528585209085528252848420558b835252206138a3565b388282828080613a0a565b918051918215613c5557805180613b66575b505060005b828110613aaa5750505050565b613ab481836121bd565b516001600160a01b0385169081600052600860209281845260409182600020846000528552826000205415613b595760005b888110613afd575050505050506001905b01613a9d565b80613b0a6001928a6121bd565b5184600052838852856000208160005288528560002054908115613b5257876000526016895286600020906000528852613b49866000209182546121d1565b90555b01613ae6565b5050613b4c565b5050505050600190613af7565b60005b848110613b765750613a98565b613b8081856121bd565b516001600160a01b0387169081600052600891602090838252604091826000208460005281528260002054948515613c475760005b888110613bcd57505050505050506001905b01613b69565b80613bda6001928c6121bd565b5185600052838552866000208160005285528660002054908115613c40576016808752886000208a600052875288600020613c168c82546121d1565b905589600052865287600020906000528552613c37876000209182546121d1565b90555b01613bb5565b5050613c3a565b505050505050600190613bc7565b50505050565b6001600160a01b031660008181526020600981526040808320908051808385829554938481520190875285872092875b87828210613d5d57505050613ca29250038361219b565b8151938415613d5557805b858110613cbd5750505050505050565b613cc781856121bd565b51878352600880875284842082855287528484205415613d4b57835b888110613cf7575050506001905b01613cad565b80613d04600192896121bd565b518b8752838a528787208188528a5287872054908115613d445785885260168b528888209088528a52613d3b888820918254612285565b90555b01613ce3565b5050613d3e565b5050600190613cf1565b505050505050565b8554845260019586019588955093019201613c8b565b6001600160a01b031660008181526020600981526040808320908051808385829554938481520190875285872092875b87828210613e6d57505050613dba9250038361219b565b8151938415613d5557805b858110613dd55750505050505050565b613ddf81856121bd565b51878352600880875284842082855287528484205415613e6357835b888110613e0f575050506001905b01613dc5565b80613e1c600192896121bd565b518b8752838a528787208188528a5287872054908115613e5c5785885260168b528888209088528a52613e538888209182546121d1565b90555b01613dfb565b5050613e56565b5050600190613e09565b8554845260019586019588955093019201613da3565b90916000198383099280830292838086109503948086039514613f135784831115613efa579082910981600003821680920460028082600302188083028203028083028203028083028203028083028203028083028203028092029003029360018380600003040190848311900302920304170290565b82634e487b71600052156003026011186020526024601cfd5b505080925015613f21570490565b634e487b7160e01b600052601260045260246000fd5b6001600160a01b03908160035416926040918251936308eec5d760e41b855260209485816004818a5afa9081156140fc576000916140cf575b508310918215926140aa575b8215614087575b505061407d5760c06024948351958680927f4e06ad090000000000000000000000000000000000000000000000000000000082528560048301525afa93841561366c57600094614016575b50600052600e8252600f816000205492526000205490613fee82846121d1565b81111561400c576140079261400291612285565b612285565b101590565b5050506000101590565b909360c0823d60c011614075575b8161403160c0938361219b565b81010312610fce57614042826123c9565b50600460a085840151936140578682016133f3565b50614064606082016123c9565b5001511015610fce57509238613fce565b3d9150614024565b5050505050600090565b90915016600052600c835281600020816000528352816000205415153880613f83565b9150808216600052600a85528360002083600052855260ff8460002054161591613f7c565b90508581813d83116140f5575b6140e6818361219b565b8101031261145a575138613f70565b503d6140dc565b85513d6000823e3d90fd5b6001600160a01b0390929192169160009083825260209160098352604090818120958251808887829a54938481520190855287852092855b8982821061422b575050506141569250038861219b565b8082526008946008815283832085845281528383205495861561422057835b89518110156141fa578061418b6001928c6121bd565b518881146141f4578587528385528787208188528552878720549081156141ed5760168087528989208b8a5287528989206141c78d8254612285565b90558a8952865288882090885285526141e4888820918254612285565b90555b01614175565b50506141e7565b506141e7565b5050919293905061421c94959650825260168152828220905220918254612285565b9055565b505050505050509050565b855484526001958601958d95509301920161413f565b8054801561426e576000190190614258828261207b565b6001600160a01b0382549160031b1b1916905555565b634e487b7160e01b600052603160045260246000fd5b600091818352602060138152604092838520926001600160a01b0380911693848752835260ff858720541615613d55578186526012835284862084875283528486205482875260118452858720918254600019810190811161434a57906142f084939261431e9561207b565b90549060031b1c1661430681610ba1848661207b565b84895260128652878920908952855286882055614241565b808552601382528385208386528252838520805460ff1916905584526012815282842091845252812055565b602489634e487b7160e01b81526011600452fd5b909180156144485781519160005b82811061437a575050505050565b614385818487612161565b35806000526017602090808252604090816000205492836143ae575b505050505060010161436c565b60005b898110614424575060005b8681106143c957506143a1565b6143d4818a8d612161565b35600052828252836000205485146143ee576001016143bc565b604486868651917f1903d19c00000000000000000000000000000000000000000000000000000000835260048301526024820152fd5b61442e81896121bd565b51600052828252836000205485146143ee576001016143b1565b505050565b61445681613400565b80156144a55761446581613400565b6001811461449f5761447681613400565b60028114614499578061448a600392613400565b1461449457600090565b600490565b50600390565b50600290565b5060019056fea2646970667358221220588912a6c81dd141142f2a343da0377624d776f1ba931910d47d1241c83198e464736f6c63430008160033",
  "linkReferences": {},
  "deployedLinkReferences": {}
}