{
  "_format": "hh-sol-artifact-1",
  "contractName": "UnderwriterManager",
  "sourceName": "contracts/core/UnderwriterManager.sol",
  "abi": [
    {
      "inputs": [
        {
          "internalType": "address",
          "name": "_initialOwner",
          "type": "address"
        }
      ],
      "stateMutability": "nonpayable",
      "type": "constructor"
    },
    {
      "inputs": [],
      "name": "AlreadyAllocated",
      "type": "error"
    },
    {
      "inputs": [],
      "name": "DeallocationRequestPending",
      "type": "error"
    },
    {
      "inputs": [],
      "name": "ExceedsMaxAllocations",
      "type": "error"
    },
    {
      "inputs": [],
      "name": "InsufficientFreeCapital",
      "type": "error"
    },
    {
      "inputs": [
        {
          "internalType": "uint256",
          "name": "current",
          "type": "uint256"
        },
        {
          "internalType": "uint256",
          "name": "required",
          "type": "uint256"
        },
        {
          "internalType": "uint256",
          "name": "total",
          "type": "uint256"
        }
      ],
      "name": "InsufficientRiskPoints",
      "type": "error"
    },
    {
      "inputs": [
        {
          "internalType": "uint256",
          "name": "requested",
          "type": "uint256"
        },
        {
          "internalType": "uint256",
          "name": "available",
          "type": "uint256"
        }
      ],
      "name": "InsufficientUnpledgedCapital",
      "type": "error"
    },
    {
      "inputs": [],
      "name": "InvalidPoolId",
      "type": "error"
    },
    {
      "inputs": [],
      "name": "MathOverflowedMulDiv",
      "type": "error"
    },
    {
      "inputs": [],
      "name": "NoCapitalToAllocate",
      "type": "error"
    },
    {
      "inputs": [],
      "name": "NoDeallocationRequest",
      "type": "error"
    },
    {
      "inputs": [],
      "name": "NotAllocated",
      "type": "error"
    },
    {
      "inputs": [],
      "name": "NotCapitalPool",
      "type": "error"
    },
    {
      "inputs": [],
      "name": "NotRiskManager",
      "type": "error"
    },
    {
      "inputs": [],
      "name": "NoticePeriodActive",
      "type": "error"
    },
    {
      "inputs": [
        {
          "internalType": "address",
          "name": "owner",
          "type": "address"
        }
      ],
      "name": "OwnableInvalidOwner",
      "type": "error"
    },
    {
      "inputs": [
        {
          "internalType": "address",
          "name": "account",
          "type": "address"
        }
      ],
      "name": "OwnableUnauthorizedAccount",
      "type": "error"
    },
    {
      "inputs": [],
      "name": "ReentrancyGuardReentrantCall",
      "type": "error"
    },
    {
      "inputs": [],
      "name": "ZeroAddressNotAllowed",
      "type": "error"
    },
    {
      "anonymous": false,
      "inputs": [
        {
          "indexed": false,
          "internalType": "address",
          "name": "capital",
          "type": "address"
        },
        {
          "indexed": false,
          "internalType": "address",
          "name": "registry",
          "type": "address"
        },
        {
          "indexed": false,
          "internalType": "address",
          "name": "cat",
          "type": "address"
        },
        {
          "indexed": false,
          "internalType": "address",
          "name": "loss",
          "type": "address"
        },
        {
          "indexed": false,
          "internalType": "address",
          "name": "rewards",
          "type": "address"
        },
        {
          "indexed": false,
          "internalType": "address",
          "name": "riskMgr",
          "type": "address"
        }
      ],
      "name": "AddressesSet",
      "type": "event"
    },
    {
      "anonymous": false,
      "inputs": [
        {
          "indexed": true,
          "internalType": "address",
          "name": "underwriter",
          "type": "address"
        },
        {
          "indexed": true,
          "internalType": "uint256",
          "name": "poolId",
          "type": "uint256"
        },
        {
          "indexed": false,
          "internalType": "uint256",
          "name": "amount",
          "type": "uint256"
        },
        {
          "indexed": false,
          "internalType": "address",
          "name": "adapter",
          "type": "address"
        }
      ],
      "name": "CapitalAllocated",
      "type": "event"
    },
    {
      "anonymous": false,
      "inputs": [
        {
          "indexed": true,
          "internalType": "address",
          "name": "underwriter",
          "type": "address"
        },
        {
          "indexed": true,
          "internalType": "uint256",
          "name": "poolId",
          "type": "uint256"
        },
        {
          "indexed": false,
          "internalType": "uint256",
          "name": "amount",
          "type": "uint256"
        },
        {
          "indexed": false,
          "internalType": "address",
          "name": "adapter",
          "type": "address"
        }
      ],
      "name": "CapitalDeallocated",
      "type": "event"
    },
    {
      "anonymous": false,
      "inputs": [
        {
          "indexed": false,
          "internalType": "uint256",
          "name": "newPeriod",
          "type": "uint256"
        }
      ],
      "name": "DeallocationNoticePeriodSet",
      "type": "event"
    },
    {
      "anonymous": false,
      "inputs": [
        {
          "indexed": true,
          "internalType": "address",
          "name": "underwriter",
          "type": "address"
        },
        {
          "indexed": true,
          "internalType": "uint256",
          "name": "poolId",
          "type": "uint256"
        },
        {
          "indexed": false,
          "internalType": "uint256",
          "name": "amount",
          "type": "uint256"
        },
        {
          "indexed": false,
          "internalType": "uint256",
          "name": "timestamp",
          "type": "uint256"
        }
      ],
      "name": "DeallocationRequested",
      "type": "event"
    },
    {
      "anonymous": false,
      "inputs": [
        {
          "indexed": false,
          "internalType": "uint256",
          "name": "newMax",
          "type": "uint256"
        }
      ],
      "name": "MaxAllocationsPerUnderwriterSet",
      "type": "event"
    },
    {
      "anonymous": false,
      "inputs": [
        {
          "indexed": true,
          "internalType": "address",
          "name": "previousOwner",
          "type": "address"
        },
        {
          "indexed": true,
          "internalType": "address",
          "name": "newOwner",
          "type": "address"
        }
      ],
      "name": "OwnershipTransferred",
      "type": "event"
    },
    {
      "inputs": [],
      "name": "ABSOLUTE_MAX_ALLOCATIONS",
      "outputs": [
        {
          "internalType": "uint256",
          "name": "",
          "type": "uint256"
        }
      ],
      "stateMutability": "view",
      "type": "function"
    },
    {
      "inputs": [],
      "name": "TOTAL_RISK_POINTS",
      "outputs": [
        {
          "internalType": "uint256",
          "name": "",
          "type": "uint256"
        }
      ],
      "stateMutability": "view",
      "type": "function"
    },
    {
      "inputs": [
        {
          "internalType": "uint256[]",
          "name": "poolIds",
          "type": "uint256[]"
        }
      ],
      "name": "allocateCapital",
      "outputs": [],
      "stateMutability": "nonpayable",
      "type": "function"
    },
    {
      "inputs": [
        {
          "internalType": "uint256",
          "name": "requestIndex",
          "type": "uint256"
        }
      ],
      "name": "cancelWithdrawal",
      "outputs": [],
      "stateMutability": "nonpayable",
      "type": "function"
    },
    {
      "inputs": [
        {
          "internalType": "uint256",
          "name": "",
          "type": "uint256"
        }
      ],
      "name": "capitalPendingWithdrawal",
      "outputs": [
        {
          "internalType": "uint256",
          "name": "",
          "type": "uint256"
        }
      ],
      "stateMutability": "view",
      "type": "function"
    },
    {
      "inputs": [
        {
          "internalType": "uint256",
          "name": "",
          "type": "uint256"
        },
        {
          "internalType": "address",
          "name": "",
          "type": "address"
        }
      ],
      "name": "capitalPerAdapter",
      "outputs": [
        {
          "internalType": "uint256",
          "name": "",
          "type": "uint256"
        }
      ],
      "stateMutability": "view",
      "type": "function"
    },
    {
      "inputs": [],
      "name": "capitalPool",
      "outputs": [
        {
          "internalType": "contract ICapitalPool",
          "name": "",
          "type": "address"
        }
      ],
      "stateMutability": "view",
      "type": "function"
    },
    {
      "inputs": [],
      "name": "catPool",
      "outputs": [
        {
          "internalType": "contract IBackstopPool",
          "name": "",
          "type": "address"
        }
      ],
      "stateMutability": "view",
      "type": "function"
    },
    {
      "inputs": [
        {
          "internalType": "uint256",
          "name": "poolId",
          "type": "uint256"
        }
      ],
      "name": "deallocateFromPool",
      "outputs": [],
      "stateMutability": "nonpayable",
      "type": "function"
    },
    {
      "inputs": [],
      "name": "deallocationNoticePeriod",
      "outputs": [
        {
          "internalType": "uint256",
          "name": "",
          "type": "uint256"
        }
      ],
      "stateMutability": "view",
      "type": "function"
    },
    {
      "inputs": [
        {
          "internalType": "address",
          "name": "",
          "type": "address"
        },
        {
          "internalType": "uint256",
          "name": "",
          "type": "uint256"
        }
      ],
      "name": "deallocationRequestTimestamp",
      "outputs": [
        {
          "internalType": "uint256",
          "name": "",
          "type": "uint256"
        }
      ],
      "stateMutability": "view",
      "type": "function"
    },
    {
      "inputs": [
        {
          "internalType": "uint256",
          "name": "requestIndex",
          "type": "uint256"
        }
      ],
      "name": "executeWithdrawal",
      "outputs": [],
      "stateMutability": "nonpayable",
      "type": "function"
    },
    {
      "inputs": [
        {
          "internalType": "uint256",
          "name": "poolId",
          "type": "uint256"
        }
      ],
      "name": "getPoolPayoutData",
      "outputs": [
        {
          "internalType": "address[]",
          "name": "",
          "type": "address[]"
        },
        {
          "internalType": "uint256[]",
          "name": "",
          "type": "uint256[]"
        },
        {
          "internalType": "uint256",
          "name": "",
          "type": "uint256"
        }
      ],
      "stateMutability": "view",
      "type": "function"
    },
    {
      "inputs": [
        {
          "internalType": "uint256",
          "name": "poolId",
          "type": "uint256"
        }
      ],
      "name": "getPoolUnderwriterPledges",
      "outputs": [
        {
          "internalType": "address[]",
          "name": "underwriters",
          "type": "address[]"
        },
        {
          "internalType": "uint256[]",
          "name": "pledges",
          "type": "uint256[]"
        }
      ],
      "stateMutability": "view",
      "type": "function"
    },
    {
      "inputs": [
        {
          "internalType": "uint256",
          "name": "poolId",
          "type": "uint256"
        }
      ],
      "name": "getPoolUnderwriters",
      "outputs": [
        {
          "internalType": "address[]",
          "name": "",
          "type": "address[]"
        }
      ],
      "stateMutability": "view",
      "type": "function"
    },
    {
      "inputs": [
        {
          "internalType": "uint256",
          "name": "poolId",
          "type": "uint256"
        },
        {
          "internalType": "uint256",
          "name": "cursor",
          "type": "uint256"
        },
        {
          "internalType": "uint256",
          "name": "limit",
          "type": "uint256"
        }
      ],
      "name": "getPoolUnderwritersPaginated",
      "outputs": [
        {
          "internalType": "address[]",
          "name": "underwriters_",
          "type": "address[]"
        },
        {
          "internalType": "uint256",
          "name": "nextCursor",
          "type": "uint256"
        }
      ],
      "stateMutability": "view",
      "type": "function"
    },
    {
      "inputs": [
        {
          "internalType": "address",
          "name": "user",
          "type": "address"
        }
      ],
      "name": "getUnderwriterAllocations",
      "outputs": [
        {
          "internalType": "uint256[]",
          "name": "",
          "type": "uint256[]"
        }
      ],
      "stateMutability": "view",
      "type": "function"
    },
    {
      "inputs": [
        {
          "internalType": "address",
          "name": "user",
          "type": "address"
        }
      ],
      "name": "getUnpledgedCapital",
      "outputs": [
        {
          "internalType": "uint256",
          "name": "unpledgedCapital",
          "type": "uint256"
        },
        {
          "internalType": "uint256",
          "name": "totalPledged",
          "type": "uint256"
        }
      ],
      "stateMutability": "view",
      "type": "function"
    },
    {
      "inputs": [
        {
          "internalType": "uint256",
          "name": "",
          "type": "uint256"
        },
        {
          "internalType": "address",
          "name": "",
          "type": "address"
        }
      ],
      "name": "isAdapterInPool",
      "outputs": [
        {
          "internalType": "bool",
          "name": "",
          "type": "bool"
        }
      ],
      "stateMutability": "view",
      "type": "function"
    },
    {
      "inputs": [
        {
          "internalType": "address",
          "name": "",
          "type": "address"
        },
        {
          "internalType": "uint256",
          "name": "",
          "type": "uint256"
        }
      ],
      "name": "isAllocatedToPool",
      "outputs": [
        {
          "internalType": "bool",
          "name": "",
          "type": "bool"
        }
      ],
      "stateMutability": "view",
      "type": "function"
    },
    {
      "inputs": [],
      "name": "lossDistributor",
      "outputs": [
        {
          "internalType": "contract ILossDistributor",
          "name": "",
          "type": "address"
        }
      ],
      "stateMutability": "view",
      "type": "function"
    },
    {
      "inputs": [],
      "name": "maxAllocationsPerUnderwriter",
      "outputs": [
        {
          "internalType": "uint256",
          "name": "",
          "type": "uint256"
        }
      ],
      "stateMutability": "view",
      "type": "function"
    },
    {
      "inputs": [
        {
          "internalType": "address",
          "name": "underwriter",
          "type": "address"
        },
        {
          "internalType": "uint256",
          "name": "amount",
          "type": "uint256"
        }
      ],
      "name": "onCapitalDeposited",
      "outputs": [],
      "stateMutability": "nonpayable",
      "type": "function"
    },
    {
      "inputs": [
        {
          "internalType": "address",
          "name": "underwriter",
          "type": "address"
        },
        {
          "internalType": "uint256",
          "name": "principalComponentRemoved",
          "type": "uint256"
        },
        {
          "internalType": "bool",
          "name": "isFullWithdrawal",
          "type": "bool"
        }
      ],
      "name": "onCapitalWithdrawn",
      "outputs": [],
      "stateMutability": "nonpayable",
      "type": "function"
    },
    {
      "inputs": [
        {
          "internalType": "address",
          "name": "underwriter",
          "type": "address"
        },
        {
          "internalType": "uint256",
          "name": "valueLost",
          "type": "uint256"
        }
      ],
      "name": "onLossRealized",
      "outputs": [],
      "stateMutability": "nonpayable",
      "type": "function"
    },
    {
      "inputs": [
        {
          "internalType": "uint256",
          "name": "",
          "type": "uint256"
        },
        {
          "internalType": "uint256",
          "name": "",
          "type": "uint256"
        }
      ],
      "name": "overlapExposure",
      "outputs": [
        {
          "internalType": "uint256",
          "name": "",
          "type": "uint256"
        }
      ],
      "stateMutability": "view",
      "type": "function"
    },
    {
      "inputs": [],
      "name": "owner",
      "outputs": [
        {
          "internalType": "address",
          "name": "",
          "type": "address"
        }
      ],
      "stateMutability": "view",
      "type": "function"
    },
    {
      "inputs": [
        {
          "internalType": "uint256",
          "name": "",
          "type": "uint256"
        },
        {
          "internalType": "uint256",
          "name": "",
          "type": "uint256"
        }
      ],
      "name": "poolActiveAdapters",
      "outputs": [
        {
          "internalType": "address",
          "name": "",
          "type": "address"
        }
      ],
      "stateMutability": "view",
      "type": "function"
    },
    {
      "inputs": [
        {
          "internalType": "uint256",
          "name": "",
          "type": "uint256"
        },
        {
          "internalType": "address",
          "name": "",
          "type": "address"
        }
      ],
      "name": "poolAdapterIndex",
      "outputs": [
        {
          "internalType": "uint256",
          "name": "",
          "type": "uint256"
        }
      ],
      "stateMutability": "view",
      "type": "function"
    },
    {
      "inputs": [],
      "name": "poolRegistry",
      "outputs": [
        {
          "internalType": "contract IPoolRegistry",
          "name": "",
          "type": "address"
        }
      ],
      "stateMutability": "view",
      "type": "function"
    },
    {
      "inputs": [
        {
          "internalType": "uint256",
          "name": "",
          "type": "uint256"
        },
        {
          "internalType": "uint256",
          "name": "",
          "type": "uint256"
        }
      ],
      "name": "poolSpecificUnderwriters",
      "outputs": [
        {
          "internalType": "address",
          "name": "",
          "type": "address"
        }
      ],
      "stateMutability": "view",
      "type": "function"
    },
    {
      "inputs": [
        {
          "internalType": "address",
          "name": "user",
          "type": "address"
        }
      ],
      "name": "realizeLossesForAllPools",
      "outputs": [],
      "stateMutability": "nonpayable",
      "type": "function"
    },
    {
      "inputs": [],
      "name": "renounceOwnership",
      "outputs": [],
      "stateMutability": "nonpayable",
      "type": "function"
    },
    {
      "inputs": [
        {
          "internalType": "uint256",
          "name": "poolId",
          "type": "uint256"
        }
      ],
      "name": "requestDeallocateFromPool",
      "outputs": [],
      "stateMutability": "nonpayable",
      "type": "function"
    },
    {
      "inputs": [
        {
          "internalType": "uint256",
          "name": "amount",
          "type": "uint256"
        }
      ],
      "name": "requestWithdrawal",
      "outputs": [],
      "stateMutability": "nonpayable",
      "type": "function"
    },
    {
      "inputs": [],
      "name": "rewardDistributor",
      "outputs": [
        {
          "internalType": "contract IRewardDistributor",
          "name": "",
          "type": "address"
        }
      ],
      "stateMutability": "view",
      "type": "function"
    },
    {
      "inputs": [],
      "name": "riskManager",
      "outputs": [
        {
          "internalType": "address",
          "name": "",
          "type": "address"
        }
      ],
      "stateMutability": "view",
      "type": "function"
    },
    {
      "inputs": [
        {
          "internalType": "address",
          "name": "_capitalPool",
          "type": "address"
        },
        {
          "internalType": "address",
          "name": "_poolRegistry",
          "type": "address"
        },
        {
          "internalType": "address",
          "name": "_catPool",
          "type": "address"
        },
        {
          "internalType": "address",
          "name": "_lossDistributor",
          "type": "address"
        },
        {
          "internalType": "address",
          "name": "_rewardDistributor",
          "type": "address"
        },
        {
          "internalType": "address",
          "name": "_riskManager",
          "type": "address"
        }
      ],
      "name": "setAddresses",
      "outputs": [],
      "stateMutability": "nonpayable",
      "type": "function"
    },
    {
      "inputs": [
        {
          "internalType": "uint256",
          "name": "_newPeriod",
          "type": "uint256"
        }
      ],
      "name": "setDeallocationNoticePeriod",
      "outputs": [],
      "stateMutability": "nonpayable",
      "type": "function"
    },
    {
      "inputs": [
        {
          "internalType": "uint256",
          "name": "_newMax",
          "type": "uint256"
        }
      ],
      "name": "setMaxAllocationsPerUnderwriter",
      "outputs": [],
      "stateMutability": "nonpayable",
      "type": "function"
    },
    {
      "inputs": [
        {
          "internalType": "uint256",
          "name": "",
          "type": "uint256"
        }
      ],
      "name": "totalCapitalPledgedToPool",
      "outputs": [
        {
          "internalType": "uint256",
          "name": "",
          "type": "uint256"
        }
      ],
      "stateMutability": "view",
      "type": "function"
    },
    {
      "inputs": [
        {
          "internalType": "address",
          "name": "newOwner",
          "type": "address"
        }
      ],
      "name": "transferOwnership",
      "outputs": [],
      "stateMutability": "nonpayable",
      "type": "function"
    },
    {
      "inputs": [
        {
          "internalType": "address",
          "name": "",
          "type": "address"
        },
        {
          "internalType": "uint256",
          "name": "",
          "type": "uint256"
        }
      ],
      "name": "underwriterAllocationIndex",
      "outputs": [
        {
          "internalType": "uint256",
          "name": "",
          "type": "uint256"
        }
      ],
      "stateMutability": "view",
      "type": "function"
    },
    {
      "inputs": [
        {
          "internalType": "address",
          "name": "",
          "type": "address"
        },
        {
          "internalType": "uint256",
          "name": "",
          "type": "uint256"
        }
      ],
      "name": "underwriterAllocations",
      "outputs": [
        {
          "internalType": "uint256",
          "name": "",
          "type": "uint256"
        }
      ],
      "stateMutability": "view",
      "type": "function"
    },
    {
      "inputs": [
        {
          "internalType": "uint256",
          "name": "",
          "type": "uint256"
        },
        {
          "internalType": "address",
          "name": "",
          "type": "address"
        }
      ],
      "name": "underwriterIndexInPoolArray",
      "outputs": [
        {
          "internalType": "uint256",
          "name": "",
          "type": "uint256"
        }
      ],
      "stateMutability": "view",
      "type": "function"
    },
    {
      "inputs": [
        {
          "internalType": "address",
          "name": "",
          "type": "address"
        },
        {
          "internalType": "uint256",
          "name": "",
          "type": "uint256"
        }
      ],
      "name": "underwriterPoolPledge",
      "outputs": [
        {
          "internalType": "uint256",
          "name": "",
          "type": "uint256"
        }
      ],
      "stateMutability": "view",
      "type": "function"
    },
    {
      "inputs": [
        {
          "internalType": "address",
          "name": "",
          "type": "address"
        }
      ],
      "name": "underwriterRiskPointsUsed",
      "outputs": [
        {
          "internalType": "uint256",
          "name": "",
          "type": "uint256"
        }
      ],
      "stateMutability": "view",
      "type": "function"
    }
  ],
  "bytecode": "0x6080346100c657601f6200266938819003918201601f19168301916001600160401b038311848410176100cb578084926020946040528339810103126100c657516001600160a01b0390818116908190036100c65780156100ad57600080546001600160a01b03198116831782556040519316907f8be0079c531659141344cd1fd0a4f28419497f9722a3daafe3b4186f6b6457e09080a36001805560056015556125879081620000e28239f35b604051631e4fbdf760e01b815260006004820152602490fd5b600080fd5b634e487b7160e01b600052604160045260246000fdfe608060408181526004918236101561001657600080fd5b600092833560e01c9182620d913d146116d957508162662ebe1461168357816273ba5d146115d75781630b107f7c146115965781633910833114611550578163426483a614611528578163478426631461150057816355a193041461147a5781635bfb7508146114525781635c9244af1461142b5781636cfb6bf9146112a15781636fa4eb4814610e055781636fd4cac714610ddd578163715018a614610d7757816377d9cabd14610d385781638da5cb5b14610d12578163a4318d3c14610a59578163a68292ad14610a3d578163a923099a146109ef578163ac220ef9146109aa578163acc2166a14610982578163afcff50f1461095a578163b071110f1461093b578163b2d300df146108fa578163b41ab398146108ca578163b6a6f5ae1461088f578163b909107d14610845578163bf02ec6514610826578163d01ebe37146107cb578163d576b7c614610747578163df11aa4e14610707578163e139c3f0146105ea578163f089434a146103a7578163f2fde38b146102fa578163fa1ba25c146102ba578163fa21ef6114610232578163fb360a5d14610206575063fb7ce357146101c457600080fd5b34610202578060031936011261020257806020926001600160a01b036101e8611732565b168152600884528181206024358252845220549051908152f35b5080fd5b90503461022e57602036600319011261022e576020928291358152600d845220549051908152f35b8280fd5b9190503461022e57602091826003193601126102b65735835260138252808320815190819485928583549182815201928252858220915b8682821061029657859061029288610283848903856117fd565b519282849384528301906117c0565b0390f35b83546001600160a01b031685528895509093019260019283019201610269565b8380fd5b505034610202578060031936011261020257806020926001600160a01b036102e0611732565b168152600b84528181206024358252845220549051908152f35b90503461022e57602036600319011261022e57610315611732565b9061031e611f24565b6001600160a01b0380921692831561037857505082548273ffffffffffffffffffffffffffffffffffffffff198216178455167f8be0079c531659141344cd1fd0a4f28419497f9722a3daafe3b4186f6b6457e08380a380f35b908460249251917f1e4fbdf7000000000000000000000000000000000000000000000000000000008352820152fd5b9190503461022e576020806003193601126102b6578235926103c7611f68565b338552600c825282852084865282528285205480156105c2576016546103ec91611890565b421061059b5733855260088252828520848652825282852054926001600160a01b03928084600254169360248451809681936311f6be9960e11b835233908301525afa92831561059157879361052d575b50907fdd72ba2f57070e525da84e77d5d5bb067e25a5a0aefb94eb4fb44fc08d6b7965936105149392338952600c8152828920888a528152888381205561048333611fec565b878952600d8152828920610498888254611951565b9055878952600e81528289206104af888254611951565b9055878952600f815282892091841691828a5281528289206104d2888254611951565b9055878952600f815282892091895252808720541561051e575b6104f686336123d8565b519384526001600160a01b0316602084015233929081906040820190565b0390a36001805580f35b61052882876122f6565b6104ec565b9250908183813d831161058a575b61054581836117fd565b81010312610586577fdd72ba2f57070e525da84e77d5d5bb067e25a5a0aefb94eb4fb44fc08d6b79659361057b610514946118de565b93509391909161043d565b8680fd5b503d61053b565b82513d89823e3d90fd5b82517ff214e773000000000000000000000000000000000000000000000000000000008152fd5b5082517f28d2fa90000000000000000000000000000000000000000000000000000000008152fd5b838334610202576020928360031936011261022e573591828152601084528181208251808287829454938481520190855287852092855b898282106106e857505050610638925003826117fd565b80519461064486611f0c565b95610651855197886117fd565b808752610660601f1991611f0c565b013682880137825b82518110156106ab57600190868552600f83528585206001600160a01b03610690838761193d565b511686528352858520546106a4828a61193d565b5201610668565b50836106d396936106e093968152600d835220549284519687966060885260608801906117c0565b9186830390870152611776565b918301520390f35b85546001600160a01b0316845260019586019587955093019201610621565b505034610202578060031936011261020257806020926001600160a01b0361072d611732565b168152600c84528181206024358252845220549051908152f35b90503461022e57606036600319011261022e57610762611732565b916001600160a01b03600754163303610788578361078560443560243586611d3e565b80f35b906020606492519162461bcd60e51b8352820152601360248201527f554d3a204e6f74205269736b4d616e61676572000000000000000000000000006044820152fd5b8334610823576060366003190112610823576107e5611732565b604435801515810361022e5761081c9161080b6001600160a01b03600254163314611845565b610813611f68565b6024359061195e565b6001805580f35b80fd5b5050346102025781600319360112610202576020906015549051908152f35b50503461020257610855366117aa565b92908152601360205281812090815484101561082357506108806020936001600160a01b0392611748565b92905490519260031b1c168152f35b5050346102025761089f366117aa565b92908152601060205281812090815484101561082357506108806020936001600160a01b0392611748565b50503461020257366003190112610823576108e3611732565b506107856001600160a01b03600254163314611845565b90503461022e578160031936011261022e576020928291610919611717565b90358252601485526001600160a01b0383832091168252845220549051908152f35b5050346102025781600319360112610202576020906016549051908152f35b5050346102025781600319360112610202576020906001600160a01b03600354169051908152f35b5050346102025781600319360112610202576020906001600160a01b03600654169051908152f35b50503461020257806003193601126102025760ff816020936001600160a01b036109d2611732565b168152600a85528181206024358252855220541690519015158152f35b90503461022e57602036600319011261022e577ff94b894768b2123b1e98b0ad017af5950f57d77ec75b8ce6916f235fd0a78090916020913590610a31611f24565b8160165551908152a180f35b5050346102025781600319360112610202576020905160328152f35b9190503461022e57602090816003193601126102b657823592610a7a611f68565b6001600160a01b0380600354169083516308eec5d760e41b815285818581865afa908115610c7c578891610ce5575b50861015610cd657338752600a8552838720868852855260ff848820541615610cae57338752600c8552838720868852855283872054610c8657338752600885528387208688528552602460a085892054938651928380927f4e06ad090000000000000000000000000000000000000000000000000000000082528b898301525afa918215610c7c578892610c1d575b5050858752600d855283872054600e86528488205490610b598284611890565b811115610c1357610b7292610b6d91611951565b611951565b905b11610bec57507ffbeb47a6bd9b7dbbbabf46435818010ab86574e23e88ae1cc9ffefec367d39d1903385526008835280852084865283528085205492338652600c815281862085875281524282872055600e8152818620610bd6858254611890565b9055815193845242908401523392a36001805580f35b90517fc7068bf0000000000000000000000000000000000000000000000000000000008152fd5b5050508590610b74565b90915060a0823d60a011610c74575b81610c3960a093836117fd565b81010312610c70578151908116036105865784810151908481015180151503610c70576060610c6891016118de565b503880610b39565b8780fd5b3d9150610c2c565b85513d8a823e3d90fd5b8284517f644d75d9000000000000000000000000000000000000000000000000000000008152fd5b8284517f6c101931000000000000000000000000000000000000000000000000000000008152fd5b82845163015f4fdd60e31b8152fd5b90508581813d8311610d0b575b610cfc81836117fd565b81010312610c70575138610aa9565b503d610cf2565b5050346102025781600319360112610202576001600160a01b0360209254169051908152f35b505034610202573660031901126108235761081c610d54611732565b610d6a6001600160a01b03600254163314611845565b610d72611f68565b611fec565b8334610823578060031936011261082357610d90611f24565b806001600160a01b03815473ffffffffffffffffffffffffffffffffffffffff1981168355167f8be0079c531659141344cd1fd0a4f28419497f9722a3daafe3b4186f6b6457e08280a380f35b90503461022e57602036600319011261022e576020928291358152600e845220549051908152f35b838334610202576020928360031936011261022e5780359167ffffffffffffffff9081841161129d573660238501121561129d578383013591821161129d576024840193602436918460051b01011161129d57610e60611f68565b6001600160a01b038060025416968251936301cc7c9760e61b855233868601526080856024818c5afa94851561129357889561125f575b5084156112375780158015611219575b6111f15781602498998551998a80926311f6be9960e11b8252338b8301525afa9788156111e75789986111ac575b508582848a1694610ee78615156118f2565b600354168651928380926308eec5d760e41b82525afa9081156111a2578a91611171575b50895b828110611104575050885b818110610f2857896001805580f35b610f3381838a611835565b35338b5260088452858b20818c52845286868c2055338b52600a8452858b20818c528452858b2060019060ff19908282825416179055338d5260098087528d898082205491600b8a528181208782528a5220558d3390528652878d20805490680100000000000000008210156110f1578e84938f9387610fc0828f9660019c9b9a610fd995018155611748565b90919082549060031b91821b91600019901b1916179055565b8582526013808b528383205460148c528484203385528c52848420558683528a5261100633848420611fa3565b858252600d8a528c61101c848420918254611890565b9055858252600f8a528282208b83528a528c61103c848420918254611890565b9055858252601294858b528383208c84528b5260ff8484205416156110a4575b505090518b81526001600160a01b03929092166020830152503391507f6981e75271ab17d7bd4ad5bc8c0183e2eb5bb5bd59f7d84708a0adbc941c551090604090a301610f19565b6110e6958784528b528383208c84528b52838320918254161790558481526010808a528282205460118b528383208c84528b5283832055858252895220611fa3565b8c8b888e838061105c565b60248f60418e634e487b7160e01b835252fd5b61110f81848b611835565b358281101561116257338c52600a8552868c20908c52845260ff868c20541661113a57600101610f0e565b8786517fc2f34d18000000000000000000000000000000000000000000000000000000008152fd5b88875163015f4fdd60e31b8152fd5b90508281813d831161119b575b61118881836117fd565b8101031261119757518a610f0b565b8980fd5b503d61117e565b85513d8c823e3d90fd5b9097508181813d83116111e0575b6111c481836117fd565b810103126111dc576111d5906118de565b9689610ed5565b8880fd5b503d6111ba565b84513d8b823e3d90fd5b8584517f480c2784000000000000000000000000000000000000000000000000000000008152fd5b503388526009825261122e8489205482611890565b60155410610ea7565b8584517f46d2e181000000000000000000000000000000000000000000000000000000008152fd5b61128291955060803d60801161128c575b61127a81836117fd565b8101906118b3565b5050509389610e97565b503d611270565b84513d8a823e3d90fd5b8480fd5b90503461022e5760c036600319011261022e576112bc611732565b906112c5611717565b906044356001600160a01b03948582168092036105865760643592868416809403610c7057608435948786168096036111dc5760a43596888816809803611197578890611310611f24565b169788158015611421575b8015611419575b8015611411575b8015611409575b8015611401575b6113d957918760c0989694927f7355bf2d91d3126ad1129aa9b075c9949b70842c100c36075d35c129ba591bf19a98969473ffffffffffffffffffffffffffffffffffffffff19918a836002541617600255169283826003541617600355858282541617905585816005541617600555868160065416176006556007541617600755815196875260208701528501526060840152608083015260a0820152a180f35b8284517f8579befe000000000000000000000000000000000000000000000000000000008152fd5b508715611337565b508615611330565b508515611329565b508415611322565b508082161561131b565b828434610823578060031936011261082357506001600160a01b0360209254169051908152f35b5050346102025781600319360112610202576020906001600160a01b03600254169051908152f35b505034610202576020908160031936011261022e576001600160a01b0361149f611732565b16835260098252808320815190819485928583549182815201928252858220915b868282106114e9578590610292886114da848903856117fd565b51928284938452830190611776565b8354855288955090930192600192830192016114c0565b5050346102025781600319360112610202576020906001600160a01b03600754169051908152f35b5050346102025781600319360112610202576020906001600160a01b03600554169051908152f35b90503461022e578160031936011261022e578160209360ff92611571611717565b90358252601286526001600160a01b0383832091168252855220541690519015158152f35b90503461022e578160031936011261022e5760209282916115b5611717565b90358252601185526001600160a01b0383832091168252845220549051908152f35b9190503461022e57602036600319011261022e578135916115f6611f24565b82151580611678575b156116365750816020917fb8cddf3d95d9e26fabb43fd968b8e13af6606acbff3ffceb271e3cbdeb9e78919360155551908152a180f35b6020606492519162461bcd60e51b8352820152600b60248201527f496e76616c6964206d61780000000000000000000000000000000000000000006044820152fd5b5060328311156115ff565b50503461020257806003193601126102025761169d611732565b6001600160a01b0316825260096020528082208054602435939084101561082357506020926116cb91611748565b91905490519160031b1c8152f35b929150346102b657816003193601126102b657926020936116f8611717565b90358252600f85526001600160a01b0383832091168252845220548152f35b602435906001600160a01b038216820361172d57565b600080fd5b600435906001600160a01b038216820361172d57565b80548210156117605760005260206000200190600090565b634e487b7160e01b600052603260045260246000fd5b90815180825260208080930193019160005b828110611796575050505090565b835185529381019392810192600101611788565b604090600319011261172d576004359060243590565b90815180825260208080930193019160005b8281106117e0575050505090565b83516001600160a01b0316855293810193928101926001016117d2565b90601f8019910116810190811067ffffffffffffffff82111761181f57604052565b634e487b7160e01b600052604160045260246000fd5b91908110156117605760051b0190565b1561184c57565b606460405162461bcd60e51b815260206004820152601360248201527f554d3a204e6f74204361706974616c506f6f6c000000000000000000000000006044820152fd5b9190820180921161189d57565b634e487b7160e01b600052601160045260246000fd5b919082608091031261172d578151916020810151600481101561172d57916060604083015192015190565b51906001600160a01b038216820361172d57565b156118f957565b606460405162461bcd60e51b815260206004820152601960248201527f5573657220686173206e6f207969656c642061646170746572000000000000006044820152fd5b80518210156117605760209160051b010190565b9190820391821161189d57565b906001600160a01b038060025416936040908151956301cc7c9760e61b875283861696876004820152608081602481855afa908115611d33576119ab918791600091611d11575b50611890565b948515611d075787600052602095600987528460002092855180858a8297549384815201906000528a6000209260005b8c828210611cf1575050506119f2925003856117fd565b8351611b9c575b50505050611a09575b5050505050565b60248383600254168351928380926311f6be9960e11b82528a60048301525afa908115611b9157600091611b5c575b508560005260098452816000208251808287829454938481520190600052876000209260005b89828210611b4657505050611a75925003826117fd565b60005b8151811015611afc5780611ab6611a916001938561193d565b518a6000526008895286600020816000528952866000205480611abc575b50896123d8565b01611a78565b600d8a5287600020611acf828254611951565b905581600052600f8a52876000208988166000528a52611af488600020918254611951565b905538611aaf565b5050509250509160005260098252600020908154916000815582611b22575b8080611a02565b600052600020908101905b818110611b3a5780611b1b565b60008155600101611b2d565b8554845260019586019587955093019201611a5e565b90508381813d8311611b8a575b611b7381836117fd565b8101031261172d57611b84906118de565b38611a38565b503d611b69565b82513d6000823e3d90fd5b876024918798979c9499969b9a93959c51928380926311f6be9960e11b82528d60048301525afa908115611ce657908691600091611cae575b501694611be38615156118f2565b60005b8b51811015611c995780611bfc6001928e61193d565b518b6000526008908189528a6000208160005289528a60002054888d82611c29575b505050505001611be6565b611c32926121ff565b918d60005289528a6000208160005289528a600020611c52838254611951565b905580600052600d89528a600020611c6b838254611951565b9055600052600f885289600020896000528852611c8d8a600020918254611951565b9055388080888d611c1e565b509594509697929550975050388080806119f9565b809250868092503d8311611cdf575b611cc781836117fd565b8101031261172d57611cd986916118de565b38611bd5565b503d611cbd565b87513d6000823e3d90fd5b855484526001958601958a9550930192016119db565b5050505050505050565b611d2a915060803d60801161128c5761127a81836117fd565b505050386119a5565b84513d6000823e3d90fd5b9291928315611f06576001600160a01b039081811691600095838752602092600884526024604092838a20888b528652838a2054948681600254168651948580926311f6be9960e11b82528c60048301525afa928315611efc578b93611e90575b50998285928a9b9c7fa5c1194afcdcfa03ca4930a040c60617cf21f2bd4d1862a8c17978bf3fbc00f89a9b951697611dd88915156118f2565b8180821091180218968a8352600889528383208584528952838320611dfe898254611951565b9055848352600d8952838320611e15898254611951565b9055848352600f89528383208184528952838320611e34898254611951565b9055848352600f895283832090835288528282205415611e80575b50888152600887528181208382528752205415611e70575b505051908152a3565b611e79916123d8565b3886611e67565b611e8a90846122f6565b38611e4f565b9092508681813d8311611ef5575b611ea881836117fd565b81010312611ef1579988999a928592611ee37fa5c1194afcdcfa03ca4930a040c60617cf21f2bd4d1862a8c17978bf3fbc00f89a9b956118de565b94509250909a999897611d9f565b8a80fd5b503d611e9e565b85513d8d823e3d90fd5b50509050565b67ffffffffffffffff811161181f5760051b60200190565b6001600160a01b03600054163303611f3857565b60246040517f118cdaa7000000000000000000000000000000000000000000000000000000008152336004820152fd5b600260015414611f79576002600155565b60046040517f3ee5aeb5000000000000000000000000000000000000000000000000000000008152fd5b908154916801000000000000000083101561181f5782611fcb916001611fea95018155611748565b9091906001600160a01b038084549260031b9316831b921b1916179055565b565b906001600160a01b038092169160009083825260209160098352604092838220958451808884829a54938481520190865284862092865b868282106121e95750505061203a925003886117fd565b865115612131578296835b815181101561212457612058818361193d565b51838652600885528786208187528552878620548061207c575b5050600101612045565b859060648960059d959d5416938b5194859384927f9c9426790000000000000000000000000000000000000000000000000000000084528a6004850152602484015260448301525afa90811561211a5786916120e8575b506120e090600192611890565b989038612072565b90508481813d8311612113575b6120ff81836117fd565b8101031261210f575160016120d3565b8580fd5b503d6120f5565b88513d88823e3d90fd5b509390929691508161213a575b50505050509050565b6005541691823b156105865791869391846121989798948751988995869485937fbcb40c8000000000000000000000000000000000000000000000000000000000855260048501526024840152606060448401526064830190611776565b03925af180156121dd576121b0575b80808594612131565b67ffffffffffffffff83116121c95750523880806121a7565b80634e487b7160e01b602492526041600452fd5b509051903d90823e3d90fd5b855484526001958601958d955093019201612023565b9091600019838309928083029283808610950394808603951461228f5784831115612276579082910981600003821680920460028082600302188083028203028083028203028083028203028083028203028083028203028092029003029360018380600003040190848311900302920304170290565b82634e487b71600052156003026011186020526024601cfd5b50508092501561229d570490565b634e487b7160e01b600052601260045260246000fd5b805480156122e05760001901906122ca8282611748565b6001600160a01b0382549160031b1b1916905555565b634e487b7160e01b600052603160045260246000fd5b600091818352602060128152604092838520926001600160a01b0380911693848752835260ff8587205416156123d057818652601183528486208487528352848620548287526010845285872091825460001981019081116123bc579061236284939261239095611748565b90549060031b1c1661237881611fcb8486611748565b848952601186528789209089528552868820556122b3565b808552601282528385208386528252838520805460ff1916905584526011815282842091845252812055565b602489634e487b7160e01b81526011600452fd5b505050505050565b906001600160a01b03809216906000918083526020906009825260409485852090600b845286862085875284528686205491805492600019938481019081116123bc576124259083611748565b90549060031b1c61243a81610fc08486611748565b858952600b87528989209089528652888820558054801561253d578301906124628282611748565b8582549160031b1b191690555584865260148452868620838752845286862054908587526013855287872092835490810190811161252957906124aa8493926124d895611748565b90549060031b1c166124c081611fcb8486611748565b868852601486528888209088528552878720556122b3565b8284526014825284842081855282528385812055600b82528484208385528252838581205580845260088252848420838552825283858120558352600a8152838320918352522060ff198154169055565b602488634e487b7160e01b81526011600452fd5b602488634e487b7160e01b81526031600452fdfea2646970667358221220bb08fad9f7d39e31aef7f40d483d668f9809dabed9961d206c342bccf9eb5a6264736f6c63430008160033",
  "linkReferences": {},
  "deployedLinkReferences": {}
}