{
  "_format": "hh-sol-artifact-1",
  "contractName": "UnderwriterManager",
  "sourceName": "contracts/core/UnderwriterManager.sol",
  "abi": [
    {
      "inputs": [
        {
          "internalType": "address",
          "name": "_initialOwner",
          "type": "address"
        }
      ],
      "stateMutability": "nonpayable",
      "type": "constructor"
    },
    {
      "inputs": [],
      "name": "AlreadyAllocated",
      "type": "error"
    },
    {
      "inputs": [],
      "name": "DeallocationRequestPending",
      "type": "error"
    },
    {
      "inputs": [],
      "name": "ExceedsMaxAllocations",
      "type": "error"
    },
    {
      "inputs": [],
      "name": "InsufficientFreeCapital",
      "type": "error"
    },
    {
      "inputs": [],
      "name": "InvalidPoolId",
      "type": "error"
    },
    {
      "inputs": [],
      "name": "NoCapitalToAllocate",
      "type": "error"
    },
    {
      "inputs": [],
      "name": "NoDeallocationRequest",
      "type": "error"
    },
    {
      "inputs": [],
      "name": "NotAllocated",
      "type": "error"
    },
    {
      "inputs": [],
      "name": "NotCapitalPool",
      "type": "error"
    },
    {
      "inputs": [],
      "name": "NotRiskManager",
      "type": "error"
    },
    {
      "inputs": [],
      "name": "NoticePeriodActive",
      "type": "error"
    },
    {
      "inputs": [
        {
          "internalType": "address",
          "name": "owner",
          "type": "address"
        }
      ],
      "name": "OwnableInvalidOwner",
      "type": "error"
    },
    {
      "inputs": [
        {
          "internalType": "address",
          "name": "account",
          "type": "address"
        }
      ],
      "name": "OwnableUnauthorizedAccount",
      "type": "error"
    },
    {
      "inputs": [],
      "name": "ReentrancyGuardReentrantCall",
      "type": "error"
    },
    {
      "inputs": [],
      "name": "ZeroAddressNotAllowed",
      "type": "error"
    },
    {
      "anonymous": false,
      "inputs": [
        {
          "indexed": false,
          "internalType": "address",
          "name": "capital",
          "type": "address"
        },
        {
          "indexed": false,
          "internalType": "address",
          "name": "registry",
          "type": "address"
        },
        {
          "indexed": false,
          "internalType": "address",
          "name": "cat",
          "type": "address"
        },
        {
          "indexed": false,
          "internalType": "address",
          "name": "loss",
          "type": "address"
        },
        {
          "indexed": false,
          "internalType": "address",
          "name": "rewards",
          "type": "address"
        },
        {
          "indexed": false,
          "internalType": "address",
          "name": "riskMgr",
          "type": "address"
        }
      ],
      "name": "AddressesSet",
      "type": "event"
    },
    {
      "anonymous": false,
      "inputs": [
        {
          "indexed": true,
          "internalType": "address",
          "name": "underwriter",
          "type": "address"
        },
        {
          "indexed": true,
          "internalType": "uint256",
          "name": "poolId",
          "type": "uint256"
        },
        {
          "indexed": false,
          "internalType": "uint256",
          "name": "amount",
          "type": "uint256"
        }
      ],
      "name": "CapitalAllocated",
      "type": "event"
    },
    {
      "anonymous": false,
      "inputs": [
        {
          "indexed": true,
          "internalType": "address",
          "name": "underwriter",
          "type": "address"
        },
        {
          "indexed": true,
          "internalType": "uint256",
          "name": "poolId",
          "type": "uint256"
        },
        {
          "indexed": false,
          "internalType": "uint256",
          "name": "amount",
          "type": "uint256"
        }
      ],
      "name": "CapitalDeallocated",
      "type": "event"
    },
    {
      "anonymous": false,
      "inputs": [
        {
          "indexed": false,
          "internalType": "uint256",
          "name": "newPeriod",
          "type": "uint256"
        }
      ],
      "name": "DeallocationNoticePeriodSet",
      "type": "event"
    },
    {
      "anonymous": false,
      "inputs": [
        {
          "indexed": true,
          "internalType": "address",
          "name": "underwriter",
          "type": "address"
        },
        {
          "indexed": true,
          "internalType": "uint256",
          "name": "poolId",
          "type": "uint256"
        },
        {
          "indexed": false,
          "internalType": "uint256",
          "name": "amount",
          "type": "uint256"
        },
        {
          "indexed": false,
          "internalType": "uint256",
          "name": "timestamp",
          "type": "uint256"
        }
      ],
      "name": "DeallocationRequested",
      "type": "event"
    },
    {
      "anonymous": false,
      "inputs": [
        {
          "indexed": false,
          "internalType": "uint256",
          "name": "newMax",
          "type": "uint256"
        }
      ],
      "name": "MaxAllocationsPerUnderwriterSet",
      "type": "event"
    },
    {
      "anonymous": false,
      "inputs": [
        {
          "indexed": true,
          "internalType": "address",
          "name": "previousOwner",
          "type": "address"
        },
        {
          "indexed": true,
          "internalType": "address",
          "name": "newOwner",
          "type": "address"
        }
      ],
      "name": "OwnershipTransferred",
      "type": "event"
    },
    {
      "inputs": [
        {
          "internalType": "uint256[]",
          "name": "poolIds",
          "type": "uint256[]"
        }
      ],
      "name": "allocateCapital",
      "outputs": [],
      "stateMutability": "nonpayable",
      "type": "function"
    },
    {
      "inputs": [],
      "name": "capitalPool",
      "outputs": [
        {
          "internalType": "contract ICapitalPool",
          "name": "",
          "type": "address"
        }
      ],
      "stateMutability": "view",
      "type": "function"
    },
    {
      "inputs": [],
      "name": "catPool",
      "outputs": [
        {
          "internalType": "contract IBackstopPool",
          "name": "",
          "type": "address"
        }
      ],
      "stateMutability": "view",
      "type": "function"
    },
    {
      "inputs": [
        {
          "internalType": "uint256[]",
          "name": "poolIds",
          "type": "uint256[]"
        }
      ],
      "name": "claimDistressedAssets",
      "outputs": [],
      "stateMutability": "nonpayable",
      "type": "function"
    },
    {
      "inputs": [
        {
          "internalType": "uint256[]",
          "name": "poolIds",
          "type": "uint256[]"
        }
      ],
      "name": "claimPremiumRewards",
      "outputs": [],
      "stateMutability": "nonpayable",
      "type": "function"
    },
    {
      "inputs": [
        {
          "internalType": "uint256",
          "name": "poolId",
          "type": "uint256"
        }
      ],
      "name": "deallocateFromPool",
      "outputs": [],
      "stateMutability": "nonpayable",
      "type": "function"
    },
    {
      "inputs": [],
      "name": "deallocationNoticePeriod",
      "outputs": [
        {
          "internalType": "uint256",
          "name": "",
          "type": "uint256"
        }
      ],
      "stateMutability": "view",
      "type": "function"
    },
    {
      "inputs": [
        {
          "internalType": "address",
          "name": "",
          "type": "address"
        },
        {
          "internalType": "uint256",
          "name": "",
          "type": "uint256"
        }
      ],
      "name": "deallocationRequestAmount",
      "outputs": [
        {
          "internalType": "uint256",
          "name": "",
          "type": "uint256"
        }
      ],
      "stateMutability": "view",
      "type": "function"
    },
    {
      "inputs": [
        {
          "internalType": "address",
          "name": "",
          "type": "address"
        },
        {
          "internalType": "uint256",
          "name": "",
          "type": "uint256"
        }
      ],
      "name": "deallocationRequestTimestamp",
      "outputs": [
        {
          "internalType": "uint256",
          "name": "",
          "type": "uint256"
        }
      ],
      "stateMutability": "view",
      "type": "function"
    },
    {
      "inputs": [
        {
          "internalType": "address",
          "name": "user",
          "type": "address"
        }
      ],
      "name": "getUnderwriterAllocations",
      "outputs": [
        {
          "internalType": "uint256[]",
          "name": "",
          "type": "uint256[]"
        }
      ],
      "stateMutability": "view",
      "type": "function"
    },
    {
      "inputs": [
        {
          "internalType": "address",
          "name": "",
          "type": "address"
        },
        {
          "internalType": "uint256",
          "name": "",
          "type": "uint256"
        }
      ],
      "name": "isAllocatedToPool",
      "outputs": [
        {
          "internalType": "bool",
          "name": "",
          "type": "bool"
        }
      ],
      "stateMutability": "view",
      "type": "function"
    },
    {
      "inputs": [],
      "name": "lossDistributor",
      "outputs": [
        {
          "internalType": "contract ILossDistributor",
          "name": "",
          "type": "address"
        }
      ],
      "stateMutability": "view",
      "type": "function"
    },
    {
      "inputs": [],
      "name": "maxAllocationsPerUnderwriter",
      "outputs": [
        {
          "internalType": "uint256",
          "name": "",
          "type": "uint256"
        }
      ],
      "stateMutability": "view",
      "type": "function"
    },
    {
      "inputs": [
        {
          "internalType": "address",
          "name": "underwriter",
          "type": "address"
        },
        {
          "internalType": "uint256",
          "name": "amount",
          "type": "uint256"
        }
      ],
      "name": "onCapitalDeposited",
      "outputs": [],
      "stateMutability": "nonpayable",
      "type": "function"
    },
    {
      "inputs": [
        {
          "internalType": "address",
          "name": "underwriter",
          "type": "address"
        },
        {
          "internalType": "uint256",
          "name": "principalComponentRemoved",
          "type": "uint256"
        },
        {
          "internalType": "bool",
          "name": "isFullWithdrawal",
          "type": "bool"
        }
      ],
      "name": "onCapitalWithdrawn",
      "outputs": [],
      "stateMutability": "nonpayable",
      "type": "function"
    },
    {
      "inputs": [
        {
          "internalType": "address",
          "name": "underwriter",
          "type": "address"
        },
        {
          "internalType": "uint256",
          "name": "principalComponent",
          "type": "uint256"
        }
      ],
      "name": "onWithdrawalCancelled",
      "outputs": [],
      "stateMutability": "nonpayable",
      "type": "function"
    },
    {
      "inputs": [
        {
          "internalType": "address",
          "name": "underwriter",
          "type": "address"
        },
        {
          "internalType": "uint256",
          "name": "principalComponent",
          "type": "uint256"
        }
      ],
      "name": "onWithdrawalRequested",
      "outputs": [],
      "stateMutability": "nonpayable",
      "type": "function"
    },
    {
      "inputs": [],
      "name": "owner",
      "outputs": [
        {
          "internalType": "address",
          "name": "",
          "type": "address"
        }
      ],
      "stateMutability": "view",
      "type": "function"
    },
    {
      "inputs": [],
      "name": "poolRegistry",
      "outputs": [
        {
          "internalType": "contract IPoolRegistry",
          "name": "",
          "type": "address"
        }
      ],
      "stateMutability": "view",
      "type": "function"
    },
    {
      "inputs": [
        {
          "internalType": "uint256",
          "name": "",
          "type": "uint256"
        },
        {
          "internalType": "uint256",
          "name": "",
          "type": "uint256"
        }
      ],
      "name": "poolSpecificUnderwriters",
      "outputs": [
        {
          "internalType": "address",
          "name": "",
          "type": "address"
        }
      ],
      "stateMutability": "view",
      "type": "function"
    },
    {
      "inputs": [
        {
          "internalType": "address",
          "name": "user",
          "type": "address"
        }
      ],
      "name": "realizeLossesForAllPools",
      "outputs": [],
      "stateMutability": "nonpayable",
      "type": "function"
    },
    {
      "inputs": [],
      "name": "renounceOwnership",
      "outputs": [],
      "stateMutability": "nonpayable",
      "type": "function"
    },
    {
      "inputs": [
        {
          "internalType": "uint256",
          "name": "poolId",
          "type": "uint256"
        },
        {
          "internalType": "uint256",
          "name": "amount",
          "type": "uint256"
        }
      ],
      "name": "requestDeallocateFromPool",
      "outputs": [],
      "stateMutability": "nonpayable",
      "type": "function"
    },
    {
      "inputs": [],
      "name": "rewardDistributor",
      "outputs": [
        {
          "internalType": "contract IRewardDistributor",
          "name": "",
          "type": "address"
        }
      ],
      "stateMutability": "view",
      "type": "function"
    },
    {
      "inputs": [],
      "name": "riskManager",
      "outputs": [
        {
          "internalType": "address",
          "name": "",
          "type": "address"
        }
      ],
      "stateMutability": "view",
      "type": "function"
    },
    {
      "inputs": [
        {
          "internalType": "address",
          "name": "_capitalPool",
          "type": "address"
        },
        {
          "internalType": "address",
          "name": "_poolRegistry",
          "type": "address"
        },
        {
          "internalType": "address",
          "name": "_catPool",
          "type": "address"
        },
        {
          "internalType": "address",
          "name": "_lossDistributor",
          "type": "address"
        },
        {
          "internalType": "address",
          "name": "_rewardDistributor",
          "type": "address"
        },
        {
          "internalType": "address",
          "name": "_riskManager",
          "type": "address"
        }
      ],
      "name": "setAddresses",
      "outputs": [],
      "stateMutability": "nonpayable",
      "type": "function"
    },
    {
      "inputs": [
        {
          "internalType": "uint256",
          "name": "_newPeriod",
          "type": "uint256"
        }
      ],
      "name": "setDeallocationNoticePeriod",
      "outputs": [],
      "stateMutability": "nonpayable",
      "type": "function"
    },
    {
      "inputs": [
        {
          "internalType": "uint256",
          "name": "_newMax",
          "type": "uint256"
        }
      ],
      "name": "setMaxAllocationsPerUnderwriter",
      "outputs": [],
      "stateMutability": "nonpayable",
      "type": "function"
    },
    {
      "inputs": [
        {
          "internalType": "address",
          "name": "newOwner",
          "type": "address"
        }
      ],
      "name": "transferOwnership",
      "outputs": [],
      "stateMutability": "nonpayable",
      "type": "function"
    },
    {
      "inputs": [
        {
          "internalType": "address",
          "name": "",
          "type": "address"
        },
        {
          "internalType": "uint256",
          "name": "",
          "type": "uint256"
        }
      ],
      "name": "underwriterAllocations",
      "outputs": [
        {
          "internalType": "uint256",
          "name": "",
          "type": "uint256"
        }
      ],
      "stateMutability": "view",
      "type": "function"
    },
    {
      "inputs": [
        {
          "internalType": "uint256",
          "name": "",
          "type": "uint256"
        },
        {
          "internalType": "address",
          "name": "",
          "type": "address"
        }
      ],
      "name": "underwriterIndexInPoolArray",
      "outputs": [
        {
          "internalType": "uint256",
          "name": "",
          "type": "uint256"
        }
      ],
      "stateMutability": "view",
      "type": "function"
    },
    {
      "inputs": [
        {
          "internalType": "address",
          "name": "",
          "type": "address"
        },
        {
          "internalType": "uint256",
          "name": "",
          "type": "uint256"
        }
      ],
      "name": "underwriterPoolPledge",
      "outputs": [
        {
          "internalType": "uint256",
          "name": "",
          "type": "uint256"
        }
      ],
      "stateMutability": "view",
      "type": "function"
    },
    {
      "inputs": [
        {
          "internalType": "address",
          "name": "",
          "type": "address"
        }
      ],
      "name": "underwriterTotalPledge",
      "outputs": [
        {
          "internalType": "uint256",
          "name": "",
          "type": "uint256"
        }
      ],
      "stateMutability": "view",
      "type": "function"
    }
  ],
  "bytecode": "0x6080346100c657601f62002b4238819003918201601f19168301916001600160401b038311848410176100cb578084926020946040528339810103126100c657516001600160a01b0390818116908190036100c65780156100ad57600080546001600160a01b03198116831782556040519316907f8be0079c531659141344cd1fd0a4f28419497f9722a3daafe3b4186f6b6457e09080a3600180556005600e55612a609081620000e28239f35b604051631e4fbdf760e01b815260006004820152602490fd5b600080fd5b634e487b7160e01b600052604160045260246000fdfe6080604052600436101561001257600080fd5b60003560e01c8062662ebe146117d357806273ba5d1461173c5780631db2a4331461168b5780633550013e146112fe578063426483a6146112d757806347842663146112b057806355a19304146112255780635bfb7508146111fe5780635c9244af146111d75780636cfb6bf9146110525780636fa4eb4814610c15578063715018a614610baf57806377d9cabd14610b525780638451323214610af35780638b9f30b514610aab5780638da5cb5b14610a84578063a2d8e60814610a44578063a79e1eb614610a0a578063a923099a146109be578063ac220ef914610971578063acc2166a1461094a578063afcff50f14610923578063b071110f14610905578063b2d300df146108bc578063b909107d14610872578063bf02ec6514610854578063cfb2ab4b146106bf578063d01ebe37146105f6578063df11aa4e146105ae578063e20b09771461053e578063f089434a1461027e578063f2fde38b146101d25763fb7ce3571461018557600080fd5b346101cd5760403660031901126101cd576001600160a01b036101a6611829565b16600052600960205260406000206024356000526020526020604060002054604051908152f35b600080fd5b346101cd5760203660031901126101cd576101eb611829565b6101f3611b19565b6001600160a01b0380911690811561024d576000548273ffffffffffffffffffffffffffffffffffffffff19821617600055167f8be0079c531659141344cd1fd0a4f28419497f9722a3daafe3b4186f6b6457e0600080a3005b60246040517f1e4fbdf700000000000000000000000000000000000000000000000000000000815260006004820152fd5b346101cd576020806003193601126101cd576004359061029c611b5d565b33600052601081526040600020826000528152604060002054801561051457600f546102c79161197c565b42106104ea5733600052601181526040600020826000528152604060002054906102f033611f7d565b3360005260098152604060002083600052815261031d604060002054928380821091180283188093611b0c565b6001600160a01b03906024838360025416604051928380926311f6be9960e11b82523360048301525afa80156104885783916000916104b2575b501690610365821515611d61565b3360005260098452604060002086600052845280604060002055156104a3575b33600052601083526040600020856000528352600060408120553360005260118352604060002085600052835260006040812055816003541690813b156101cd5760009160848392604051948593849263a6bd24ab60e01b84528b600485015260248401528960448401528160648401525af1801561048857610494575b506003541690813b156101cd57600080926064604051809581936350db6dff60e11b83528960048401528860248401528160448401525af1918215610488577fb4433a6b5f4e95fd87f376e5ae6f647206e649a052d164fdf462e84e6526814f92610479575b506040519283523392a360018055005b61048290611936565b84610469565b6040513d6000823e3d90fd5b61049d90611936565b84610403565b6104ad8533612844565b610385565b809250858092503d83116104e3575b6104cb818361194a565b810103126101cd576104dd83916119a1565b87610357565b503d6104c1565b60046040517ff214e773000000000000000000000000000000000000000000000000000000008152fd5b60046040517f28d2fa90000000000000000000000000000000000000000000000000000000008152fd5b346101cd5760403660031901126101cd57610557611829565b61055f611b5d565b6001600160a01b036002541633036105845761057e90602435906123a0565b60018055005b60046040517fda37af0b000000000000000000000000000000000000000000000000000000008152fd5b346101cd5760403660031901126101cd576001600160a01b036105cf611829565b16600052601060205260406000206024356000526020526020604060002054604051908152f35b346101cd5760603660031901126101cd5761060f611829565b60443560243581151582036101cd57610626611b5d565b6001600160a01b03806002541633036105845761067491839161064886611f7d565b851694856000526008602052604060002061066d815484811085821802851890611b0c565b90556125a9565b61067e5760018055005b600052600b6020526040600020805490600081558161069e575b5061057e565b6000526020600020908101905b8181101561069857600081556001016106ab565b346101cd576106cd36611883565b6106d5611b5d565b6001600160a01b0380600354169160006040518094633897427760e01b82528180610704868a60048401611aca565b03915afa9283156104885760009361082f575b5060005b8181106107285760018055005b61073381838761196c565b35336000526009906020918083526040600020826000528352604060002054610762575b50505060010161071b565b6107f1918391610772868a611922565b51908880600654169251169033600052845260406000208360005284526000604081205493604051968795869485937f6c19408a00000000000000000000000000000000000000000000000000000000855233600486019060609295949360808301966001600160a01b03809316845260208401521660408201520152565b03925af1801561048857610806575b80610757565b813d8311610828575b610819818361194a565b810103126101cd578580610800565b503d61080f565b61084d9193503d806000833e610845818361194a565b8101906119c2565b9184610717565b346101cd5760003660031901126101cd576020600e54604051908152f35b346101cd57610880366118d0565b90600052600a60205260406000209081548110156101cd576108ac6001600160a01b0391602093611855565b9190546040519260031b1c168152f35b346101cd5760403660031901126101cd576108d561183f565b600435600052600d6020526001600160a01b03604060002091166000526020526020604060002054604051908152f35b346101cd5760003660031901126101cd576020600f54604051908152f35b346101cd5760003660031901126101cd5760206001600160a01b0360035416604051908152f35b346101cd5760003660031901126101cd5760206001600160a01b0360065416604051908152f35b346101cd5760403660031901126101cd576001600160a01b03610992611829565b16600052600c6020526040600020602435600052602052602060ff604060002054166040519015158152f35b346101cd5760203660031901126101cd577ff94b894768b2123b1e98b0ad017af5950f57d77ec75b8ce6916f235fd0a7809060206004356109fd611b19565b80600f55604051908152a1005b346101cd5760203660031901126101cd576001600160a01b03610a2b611829565b1660005260086020526020604060002054604051908152f35b346101cd5760403660031901126101cd57610a5d611829565b610a65611b5d565b6001600160a01b036002541633036105845761057e90602435906121a8565b346101cd5760003660031901126101cd5760206001600160a01b0360005416604051908152f35b346101cd5760403660031901126101cd576001600160a01b03610acc611829565b16600052601160205260406000206024356000526020526020604060002054604051908152f35b346101cd5760203660031901126101cd57610b0c611829565b6001600160a01b03600754163303610b2957610b2790611f7d565b005b60046040517ece6460000000000000000000000000000000000000000000000000000000008152fd5b346101cd5760403660031901126101cd57610b6b611829565b602435610b76611b5d565b6001600160a01b0391826002541633036105845761057e92811660005260086020526040600020610ba883825461197c565b9055611dac565b346101cd5760003660031901126101cd57610bc8611b19565b60006001600160a01b03815473ffffffffffffffffffffffffffffffffffffffff1981168355167f8be0079c531659141344cd1fd0a4f28419497f9722a3daafe3b4186f6b6457e08280a3005b346101cd57610c2336611883565b90610c2c611b5d565b33600052600860205260406000205480156110285782158015611006575b610fdc5760249260206001600160a01b0360025416604051958680926311f6be9960e11b82523360048301525afa93841561048857600094610fa0575b50610c9c6001600160a01b0385161515611d61565b600460206001600160a01b0360035416604051928380926308eec5d760e41b82525afa90811561048857600091610f6e575b5060005b828110610edc57505060005b818110610ceb5760018055005b610cf681838661196c565b35903360005260096020526040600020826000526020528360406000205533600052600c6020526040600020826000526020526040600020600160ff1982541617905533600052600b6020526040600020805468010000000000000000811015610ec657610d6e81610d879360018794018155611855565b90919082549060031b91821b91600019901b1916179055565b81600052600a602052604060002080549068010000000000000000821015610ec65781610dbc916001610dda94018155611855565b33906001600160a01b038084549260031b9316831b921b1916179055565b81600052600a6020526040600020546000198101908111610eb05782600052600d6020526040600020336000526020526040600020556001600160a01b036003541691823b156101cd576000809360846040518096819363a6bd24ab60e01b83528660048401526001600160a01b038d1660248401528a6044840152600160648401525af192831561048857600193610ea1575b506040518581527f8b612cc9f41788c6e9b8068147327216e8b8373f43483d7db9e068843abffd6f60203392a301610cde565b610eaa90611936565b87610e6e565b634e487b7160e01b600052601160045260246000fd5b634e487b7160e01b600052604160045260246000fd5b610ee781848761196c565b3582811015610f445733600052600c60205260406000209060005260205260ff60406000205416610f1a57600101610cd2565b60046040517fc2f34d18000000000000000000000000000000000000000000000000000000008152fd5b60046040517f0afa7ee8000000000000000000000000000000000000000000000000000000008152fd5b90506020813d602011610f98575b81610f896020938361194a565b810103126101cd575185610cce565b3d9150610f7c565b9093506020813d602011610fd4575b81610fbc6020938361194a565b810103126101cd57610fcd906119a1565b9284610c87565b3d9150610faf565b60046040517f480c2784000000000000000000000000000000000000000000000000000000008152fd5b5033600052600b60205261101f6040600020548461197c565b600e5410610c4a565b60046040517f46d2e181000000000000000000000000000000000000000000000000000000008152fd5b346101cd5760c03660031901126101cd5761106b611829565b61107361183f565b906044356001600160a01b03918282168092036101cd576064358381168091036101cd57608435908482168092036101cd5760a435928584168094036101cd5785906110bd611b19565b1693841580156111cd575b80156111c5575b80156111bd575b80156111b5575b80156111ad575b611183577f7355bf2d91d3126ad1129aa9b075c9949b70842c100c36075d35c129ba591bf1968460c09773ffffffffffffffffffffffffffffffffffffffff1992888460025416176002551691828160035416176003558381600454161760045584816005541617600555858160065416176006556007541617600755604051958652602086015260408501526060840152608083015260a0820152a1005b60046040517f8579befe000000000000000000000000000000000000000000000000000000008152fd5b5083156110e4565b5082156110dd565b5081156110d6565b5080156110cf565b50858716156110c8565b346101cd5760003660031901126101cd5760206001600160a01b0360045416604051908152f35b346101cd5760003660031901126101cd5760206001600160a01b0360025416604051908152f35b346101cd576020806003193601126101cd576001600160a01b03611247611829565b16600052600b6020526040600020906040519081602084549182815201936000526020600020916000905b82821061129957611295856112898189038261194a565b604051918291826118e6565b0390f35b835486529485019460019384019390910190611272565b346101cd5760003660031901126101cd5760206001600160a01b0360075416604051908152f35b346101cd5760003660031901126101cd5760206001600160a01b0360055416604051908152f35b346101cd5761130c366118d0565b611314611b5d565b6001600160a01b03806003541690604051916308eec5d760e41b83526020928381600481855afa9081156104885760009161165e575b50851015610f445733600052600c8352604060002085600052835260ff6040600020541615611634573360005260108352604060002085600052835260406000205461160a5783156115c6573360005260098352604060002085600052835260406000205484116115825760e0602491604051928380927fd21c87ad0000000000000000000000000000000000000000000000000000000082528960048301525afa80156104885760008092600092611519575b50611409828461197c565b81111561150f576114229261141d91611b0c565b611b0c565b83116114e5573360005260108252604060002084600052825242604060002055336000526011825260406000208460005282528260406000205560035416803b156101cd57600080916064604051809481936350db6dff60e11b8352896004840152886024840152600160448401525af18015610488576114d6575b5060405191825242908201527ffbeb47a6bd9b7dbbbabf46435818010ab86574e23e88ae1cc9ffefec367d39d160403392a360018055005b6114df90611936565b8361149e565b60046040517fc7068bf0000000000000000000000000000000000000000000000000000000008152fd5b5050506000611422565b9250505060e0813d60e01161157a575b8161153660e0938361194a565b810103126101cd57611547816119a1565b508281015160408201519061157060a0606085015194611569608082016119b5565b50016119a1565b50909190876113fe565b3d9150611529565b6064836040519062461bcd60e51b82526004820152601560248201527f416d6f756e74206578636565647320706c6564676500000000000000000000006044820152fd5b6064836040519062461bcd60e51b82526004820152600e60248201527f496e76616c696420616d6f756e740000000000000000000000000000000000006044820152fd5b60046040517f644d75d9000000000000000000000000000000000000000000000000000000008152fd5b60046040517f6c101931000000000000000000000000000000000000000000000000000000008152fd5b90508381813d8311611684575b611675818361194a565b810103126101cd57518661134a565b503d61166b565b346101cd576116aa61169c36611883565b906116a5611b5d565b611bca565b60005b815181101561057e576001600160a01b03908160045416916116cf8285611922565b5116823b156101cd576000926044849260405195869384927f476187cb00000000000000000000000000000000000000000000000000000000845233600485015260248401525af19182156104885760019261172d575b50016116ad565b61173690611936565b83611726565b346101cd5760203660031901126101cd57600435611758611b19565b801561178f576020817fb8cddf3d95d9e26fabb43fd968b8e13af6606acbff3ffceb271e3cbdeb9e789192600e55604051908152a1005b606460405162461bcd60e51b815260206004820152600b60248201527f496e76616c6964206d61780000000000000000000000000000000000000000006044820152fd5b346101cd5760403660031901126101cd576117ec611829565b6001600160a01b036024359116600052600b602052604060002080548210156101cd5760209161181b91611855565b90546040519160031b1c8152f35b600435906001600160a01b03821682036101cd57565b602435906001600160a01b03821682036101cd57565b805482101561186d5760005260206000200190600090565b634e487b7160e01b600052603260045260246000fd5b9060206003198301126101cd5760043567ffffffffffffffff928382116101cd57806023830112156101cd5781600401359384116101cd5760248460051b830101116101cd576024019190565b60409060031901126101cd576004359060243590565b602090602060408183019282815285518094520193019160005b82811061190e575050505090565b835185529381019392810192600101611900565b805182101561186d5760209160051b010190565b67ffffffffffffffff8111610ec657604052565b90601f8019910116810190811067ffffffffffffffff821117610ec657604052565b919081101561186d5760051b0190565b91908201809211610eb057565b67ffffffffffffffff8111610ec65760051b60200190565b51906001600160a01b03821682036101cd57565b519081151582036101cd57565b90602080838303126101cd57825167ffffffffffffffff938482116101cd57019082601f830112156101cd578151926119fa84611989565b946040611a0a604051978861194a565b858752838701928460e0809802870101958187116101cd578501935b868510611a3857505050505050505090565b87858303126101cd578251908882019082821086831117611ab557899288928652611a62886119a1565b815282880151838201528588015186820152606080890151908201526080611a8b818a016119b5565b9082015260a0611a9c818a016119a1565b9082015260c08089015190820152815201940193611a26565b60246000634e487b7160e01b81526041600452fd5b602081528260208201527f07ffffffffffffffffffffffffffffffffffffffffffffffffffffffffffffff83116101cd5760409260051b809284830137010190565b91908203918211610eb057565b6001600160a01b03600054163303611b2d57565b60246040517f118cdaa7000000000000000000000000000000000000000000000000000000008152336004820152fd5b600260015414611b6e576002600155565b60046040517f3ee5aeb5000000000000000000000000000000000000000000000000000000008152fd5b90611ba282611989565b611baf604051918261194a565b8281528092611bc0601f1991611989565b0190602036910137565b90918215611d35576001600160a01b0391826003541690604051948592633897427760e01b845260009384918180611c088660049860048401611aca565b03915afa958615611d2a578396611d0a575b50611c2490611b98565b8295835b8151811015611cc65786611c3c8284611922565b5151168015611cbd5785865b8a8110611c98575b5015611c62575b506001905b01611c28565b611c6f89859a939a611922565b526000198114611c855760018091019790611c57565b602485601186634e487b7160e01b835252fd5b828a611ca48389611922565b511614611cb357600101611c48565b5050600138611c50565b50600190611c5c565b50509050939193929092611cd983611b98565b935b838110611ce9575050505090565b8083611cf760019385611922565b5116611d038288611922565b5201611cdb565b611c24919650611d23903d8086833e610845818361194a565b9590611c1a565b6040513d85823e3d90fd5b9150506040516020810181811067ffffffffffffffff821117610ec65760405260008152600036813790565b15611d6857565b606460405162461bcd60e51b815260206004820152601960248201527f5573657220686173206e6f207969656c642061646170746572000000000000006044820152fd5b906001600160a01b0380831692600093808552602093600b855260409283872084518082898294549384815201908b52898b20928b5b8b828210611f6757505050611df99250038261194a565b805115611f5d57856003541690855197633897427760e01b895289896004948180611e2787600483016118e6565b03915afa988915611f53578a99611f37575b50895b8251811015611f2a57868b526009808352888c20611e5a8386611922565b518d528352888c20611e6d88825461197c565b905589611e7a838d611922565b515116908c8a8c6006541691611e908689611922565b51938c82528752818120611ea4878a611922565b51825287522054813b15611f26578b516386e8748760e01b81526001600160a01b03808b16828b019081526020810195909552909416604084015260608301528d9183919082908490829060800103925af18015611f1c579060019291611f0d575b5001611e3c565b611f1690611936565b38611f06565b89513d8e823e3d90fd5b8e80fd5b5050505050505050505050565b611f4c9199503d808c833e610845818361194a565b9738611e39565b87513d8c823e3d90fd5b5050505050505050565b8554845260019586019587955093019201611de2565b906001600160a01b0380921691600090838252602093600b85526040908184208251808289829454938481520190885289882092885b8b82821061219257505050611fca9250038261194a565b845b81518110156121885785611fe08284611922565b518482528960099182825287842081855282528784205490811561217b578960055416938951927f304717b70000000000000000000000000000000000000000000000000000000084526004948a868601528460648160249a878c83015260449a868c8401525af1938415612171578f908e9493928c918697612135575b5086612079575b505050505050505050506001905b01611fcc565b868082109118028618945252898c20908c528d52888b2061209b828254611b0c565b9055878b5260088d526120b2898c20918254611b0c565b9055886002541690813b1561213157918a80949289948b5197889687957f3746060d0000000000000000000000000000000000000000000000000000000087528601528401525af18015612127579060019291612118575b8192818981808e8a82612065565b61212190611936565b3861210a565b85513d89823e3d90fd5b8a80fd5b9394955095505081813d831161216a575b612150818361194a565b8101031261216657908e8a8e949351953861205e565b8c80fd5b503d612146565b8b513d8f823e3d90fd5b5050505050600190612073565b5050505050509050565b8554845260019586019587955093019201611fb3565b6001600160a01b0380821691600093838552602093600b8552604092838720958451808883829a549384815201908b52838b20928b5b8582821061238a575050506121f59250038861194a565b865115611f5d5786906003948760035416908a88518093633897427760e01b82528180612227600499600483016118e6565b03915afa918215612380578b92612364575b508a5b8a518110156123565761224f818c611922565b518a895416803b15612352578d809160648d51809481936350db6dff60e11b8352878d840152896024840152600160448401525af1801561234657612337575b508a61229b8386611922565b515116908d8b8d60065416918b81526009895281812084825289522054813b15612333578c516386e8748760e01b81526001600160a01b03808c16828c019081526020810195909552909416604084015260608301528e9183919082908490829060800103925af1801561232957906001929161231a575b500161223c565b61232390611936565b38612313565b8a513d8f823e3d90fd5b8f80fd5b61234090611936565b3861228f565b8e8c51903d90823e3d90fd5b8d80fd5b505050505050505050505050565b6123799192503d808d833e610845818361194a565b9038612239565b88513d8d823e3d90fd5b855484526001958601958d9550930192016121de565b90916001600160a01b0380831692600093808552602090600b825260409283872084518082868294549384815201908b52868b20928b5b88828210612593575050506123ee9250038261194a565b80511561258857600393866003541691865190633897427760e01b82528a82600495818061241f86600483016118e6565b03915afa918215612380578b9261256c575b508a5b815181101561255d576124478183611922565b518d151580612545575b6124ef575b8a6124618386611922565b515116908d8b8d60065416918b81526009895281812084825289522054813b15612333578c516386e8748760e01b81526001600160a01b03808c16828c019081526020810195909552909416604084015260608301528e9183919082908490829060800103925af180156123295790600192916124e0575b5001612434565b6124e990611936565b386124d9565b8a895416803b15612352578d8f91606489838f9387945196879586946350db6dff60e11b865285015260248401528160448401525af1801561234657612536575b50612456565b61253f90611936565b38612530565b508d60606125538487611922565b5101511015612451565b50505050505050505050915050565b6125819192503d808d833e610845818361194a565b9038612431565b505050505050915050565b85548452600195860195879550930192016123d7565b909291926001600160a01b038216600052600b6020526040600020936040518086602082985493848152019060005260206000209260005b81811061282b5750506125f69250038661194a565b845115612824576001600160a01b03600354169460006040518097633897427760e01b8252818061262a86600483016118e6565b03915afa95861561048857600096612807575b5060005b81518110156127fe576126548183611922565b51906060612662828a611922565b510151916001600160a01b03612678838b611922565b5151169280871081881802810361279b575b506001600160a01b03871660005260099283602052604060002082600052602052604060002054878181101560001461278c5750506000935b6001600160a01b038916600052602052604060002082600052602052836040600020556001600160a01b0360065416803b156101cd576040516386e8748760e01b81526001600160a01b038a8116600483015260248201859052929092166044830152606482018590529093906000908590608490829084905af19384156104885760019461277d575b5085908615612774575b50612764575b5001612641565b61276e9087612844565b3861275d565b90501538612757565b61278690611936565b3861274d565b61279591611b0c565b936126c3565b6001600160a01b036003541690813b156101cd576000916064839260405194859384926350db6dff60e11b84528860048501528d818082109118021860248401528160448401525af18015610488571561268a576127f890611936565b3861268a565b50505050509050565b61281d9196503d806000833e610845818361194a565b943861263d565b5050509050565b845483526001948501948a9450602090930192016125e1565b906001600160a01b038092166000918183526020600c8152604092838520838652825283852060ff198154169055808552600b825283852095855b875480821015612a1c578590612895838b611855565b929054600393841b1c146128ad57505060010161287f565b90929394959697989160001991828101908111612a085790610d6e6128d56128e29386611855565b905490871b1c9185611855565b815480156129f4578101926128f78484611855565b81939154921b1b19169055555b838652600d8352848620828752835284862054848752600a845285872080549091600019918281019081116129e05761293e859185611855565b90549060031b1c16612973816129548487611855565b9091906001600160a01b038084549260031b9316831b921b1916179055565b878a52600d8752888a20908a52865287892055815480156129cc57019161299a8383611855565b909182549160031b1b1916905555828552600d8252838520908552815283838120556009815282842091845252812055565b602489634e487b7160e01b81526031600452fd5b60248a634e487b7160e01b81526011600452fd5b60248a634e487b7160e01b81526031600452fd5b60248b634e487b7160e01b81526011600452fd5b50509091929394955061290456fea264697066735822122015a0859607beb1ccc0286384d412782af3b4f7969ee340b4c608de4353af396564736f6c63430008160033",
  "linkReferences": {},
  "deployedLinkReferences": {}
}