{
  "_format": "hh-sol-artifact-1",
  "contractName": "UnderwriterManager",
  "sourceName": "contracts/core/UnderwriterManager.sol",
  "abi": [
    {
      "inputs": [
        {
          "internalType": "address",
          "name": "_initialOwner",
          "type": "address"
        }
      ],
      "stateMutability": "nonpayable",
      "type": "constructor"
    },
    {
      "inputs": [],
      "name": "AlreadyAllocated",
      "type": "error"
    },
    {
      "inputs": [],
      "name": "DeallocationRequestPending",
      "type": "error"
    },
    {
      "inputs": [],
      "name": "ExceedsMaxAllocations",
      "type": "error"
    },
    {
      "inputs": [],
      "name": "InsufficientFreeCapital",
      "type": "error"
    },
    {
      "inputs": [],
      "name": "InvalidPoolId",
      "type": "error"
    },
    {
      "inputs": [],
      "name": "NoCapitalToAllocate",
      "type": "error"
    },
    {
      "inputs": [],
      "name": "NoDeallocationRequest",
      "type": "error"
    },
    {
      "inputs": [],
      "name": "NotAllocated",
      "type": "error"
    },
    {
      "inputs": [],
      "name": "NotCapitalPool",
      "type": "error"
    },
    {
      "inputs": [],
      "name": "NotRiskManager",
      "type": "error"
    },
    {
      "inputs": [],
      "name": "NoticePeriodActive",
      "type": "error"
    },
    {
      "inputs": [
        {
          "internalType": "address",
          "name": "owner",
          "type": "address"
        }
      ],
      "name": "OwnableInvalidOwner",
      "type": "error"
    },
    {
      "inputs": [
        {
          "internalType": "address",
          "name": "account",
          "type": "address"
        }
      ],
      "name": "OwnableUnauthorizedAccount",
      "type": "error"
    },
    {
      "inputs": [],
      "name": "ReentrancyGuardReentrantCall",
      "type": "error"
    },
    {
      "inputs": [],
      "name": "ZeroAddressNotAllowed",
      "type": "error"
    },
    {
      "anonymous": false,
      "inputs": [
        {
          "indexed": false,
          "internalType": "address",
          "name": "capital",
          "type": "address"
        },
        {
          "indexed": false,
          "internalType": "address",
          "name": "registry",
          "type": "address"
        },
        {
          "indexed": false,
          "internalType": "address",
          "name": "cat",
          "type": "address"
        },
        {
          "indexed": false,
          "internalType": "address",
          "name": "loss",
          "type": "address"
        },
        {
          "indexed": false,
          "internalType": "address",
          "name": "rewards",
          "type": "address"
        },
        {
          "indexed": false,
          "internalType": "address",
          "name": "riskMgr",
          "type": "address"
        }
      ],
      "name": "AddressesSet",
      "type": "event"
    },
    {
      "anonymous": false,
      "inputs": [
        {
          "indexed": true,
          "internalType": "address",
          "name": "underwriter",
          "type": "address"
        },
        {
          "indexed": true,
          "internalType": "uint256",
          "name": "poolId",
          "type": "uint256"
        },
        {
          "indexed": false,
          "internalType": "uint256",
          "name": "amount",
          "type": "uint256"
        }
      ],
      "name": "CapitalAllocated",
      "type": "event"
    },
    {
      "anonymous": false,
      "inputs": [
        {
          "indexed": true,
          "internalType": "address",
          "name": "underwriter",
          "type": "address"
        },
        {
          "indexed": true,
          "internalType": "uint256",
          "name": "poolId",
          "type": "uint256"
        },
        {
          "indexed": false,
          "internalType": "uint256",
          "name": "amount",
          "type": "uint256"
        }
      ],
      "name": "CapitalDeallocated",
      "type": "event"
    },
    {
      "anonymous": false,
      "inputs": [
        {
          "indexed": false,
          "internalType": "uint256",
          "name": "newPeriod",
          "type": "uint256"
        }
      ],
      "name": "DeallocationNoticePeriodSet",
      "type": "event"
    },
    {
      "anonymous": false,
      "inputs": [
        {
          "indexed": true,
          "internalType": "address",
          "name": "underwriter",
          "type": "address"
        },
        {
          "indexed": true,
          "internalType": "uint256",
          "name": "poolId",
          "type": "uint256"
        },
        {
          "indexed": false,
          "internalType": "uint256",
          "name": "amount",
          "type": "uint256"
        },
        {
          "indexed": false,
          "internalType": "uint256",
          "name": "timestamp",
          "type": "uint256"
        }
      ],
      "name": "DeallocationRequested",
      "type": "event"
    },
    {
      "anonymous": false,
      "inputs": [
        {
          "indexed": false,
          "internalType": "uint256",
          "name": "newMax",
          "type": "uint256"
        }
      ],
      "name": "MaxAllocationsPerUnderwriterSet",
      "type": "event"
    },
    {
      "anonymous": false,
      "inputs": [
        {
          "indexed": true,
          "internalType": "address",
          "name": "previousOwner",
          "type": "address"
        },
        {
          "indexed": true,
          "internalType": "address",
          "name": "newOwner",
          "type": "address"
        }
      ],
      "name": "OwnershipTransferred",
      "type": "event"
    },
    {
      "inputs": [],
      "name": "ABSOLUTE_MAX_ALLOCATIONS",
      "outputs": [
        {
          "internalType": "uint256",
          "name": "",
          "type": "uint256"
        }
      ],
      "stateMutability": "view",
      "type": "function"
    },
    {
      "inputs": [
        {
          "internalType": "uint256[]",
          "name": "poolIds",
          "type": "uint256[]"
        }
      ],
      "name": "allocateCapital",
      "outputs": [],
      "stateMutability": "nonpayable",
      "type": "function"
    },
    {
      "inputs": [],
      "name": "capitalPool",
      "outputs": [
        {
          "internalType": "contract ICapitalPool",
          "name": "",
          "type": "address"
        }
      ],
      "stateMutability": "view",
      "type": "function"
    },
    {
      "inputs": [],
      "name": "catPool",
      "outputs": [
        {
          "internalType": "contract IBackstopPool",
          "name": "",
          "type": "address"
        }
      ],
      "stateMutability": "view",
      "type": "function"
    },
    {
      "inputs": [
        {
          "internalType": "uint256",
          "name": "poolId",
          "type": "uint256"
        }
      ],
      "name": "claimDistressedAssets",
      "outputs": [],
      "stateMutability": "nonpayable",
      "type": "function"
    },
    {
      "inputs": [
        {
          "internalType": "uint256",
          "name": "poolId",
          "type": "uint256"
        }
      ],
      "name": "claimPremiumRewards",
      "outputs": [],
      "stateMutability": "nonpayable",
      "type": "function"
    },
    {
      "inputs": [
        {
          "internalType": "uint256",
          "name": "poolId",
          "type": "uint256"
        }
      ],
      "name": "deallocateFromPool",
      "outputs": [],
      "stateMutability": "nonpayable",
      "type": "function"
    },
    {
      "inputs": [],
      "name": "deallocationNoticePeriod",
      "outputs": [
        {
          "internalType": "uint256",
          "name": "",
          "type": "uint256"
        }
      ],
      "stateMutability": "view",
      "type": "function"
    },
    {
      "inputs": [
        {
          "internalType": "address",
          "name": "",
          "type": "address"
        },
        {
          "internalType": "uint256",
          "name": "",
          "type": "uint256"
        }
      ],
      "name": "deallocationRequestAmount",
      "outputs": [
        {
          "internalType": "uint256",
          "name": "",
          "type": "uint256"
        }
      ],
      "stateMutability": "view",
      "type": "function"
    },
    {
      "inputs": [
        {
          "internalType": "address",
          "name": "",
          "type": "address"
        },
        {
          "internalType": "uint256",
          "name": "",
          "type": "uint256"
        }
      ],
      "name": "deallocationRequestTimestamp",
      "outputs": [
        {
          "internalType": "uint256",
          "name": "",
          "type": "uint256"
        }
      ],
      "stateMutability": "view",
      "type": "function"
    },
    {
      "inputs": [
        {
          "internalType": "address",
          "name": "user",
          "type": "address"
        }
      ],
      "name": "getUnderwriterAllocations",
      "outputs": [
        {
          "internalType": "uint256[]",
          "name": "",
          "type": "uint256[]"
        }
      ],
      "stateMutability": "view",
      "type": "function"
    },
    {
      "inputs": [
        {
          "internalType": "address",
          "name": "",
          "type": "address"
        },
        {
          "internalType": "uint256",
          "name": "",
          "type": "uint256"
        }
      ],
      "name": "isAllocatedToPool",
      "outputs": [
        {
          "internalType": "bool",
          "name": "",
          "type": "bool"
        }
      ],
      "stateMutability": "view",
      "type": "function"
    },
    {
      "inputs": [],
      "name": "lossDistributor",
      "outputs": [
        {
          "internalType": "contract ILossDistributor",
          "name": "",
          "type": "address"
        }
      ],
      "stateMutability": "view",
      "type": "function"
    },
    {
      "inputs": [],
      "name": "maxAllocationsPerUnderwriter",
      "outputs": [
        {
          "internalType": "uint256",
          "name": "",
          "type": "uint256"
        }
      ],
      "stateMutability": "view",
      "type": "function"
    },
    {
      "inputs": [
        {
          "internalType": "address",
          "name": "underwriter",
          "type": "address"
        },
        {
          "internalType": "uint256",
          "name": "amount",
          "type": "uint256"
        }
      ],
      "name": "onCapitalDeposited",
      "outputs": [],
      "stateMutability": "nonpayable",
      "type": "function"
    },
    {
      "inputs": [
        {
          "internalType": "address",
          "name": "underwriter",
          "type": "address"
        },
        {
          "internalType": "uint256",
          "name": "principalComponentRemoved",
          "type": "uint256"
        },
        {
          "internalType": "bool",
          "name": "isFullWithdrawal",
          "type": "bool"
        }
      ],
      "name": "onCapitalWithdrawn",
      "outputs": [],
      "stateMutability": "nonpayable",
      "type": "function"
    },
    {
      "inputs": [
        {
          "internalType": "address",
          "name": "underwriter",
          "type": "address"
        },
        {
          "internalType": "uint256",
          "name": "principalComponent",
          "type": "uint256"
        }
      ],
      "name": "onWithdrawalCancelled",
      "outputs": [],
      "stateMutability": "nonpayable",
      "type": "function"
    },
    {
      "inputs": [
        {
          "internalType": "address",
          "name": "underwriter",
          "type": "address"
        },
        {
          "internalType": "uint256",
          "name": "principalComponent",
          "type": "uint256"
        }
      ],
      "name": "onWithdrawalRequested",
      "outputs": [],
      "stateMutability": "nonpayable",
      "type": "function"
    },
    {
      "inputs": [],
      "name": "owner",
      "outputs": [
        {
          "internalType": "address",
          "name": "",
          "type": "address"
        }
      ],
      "stateMutability": "view",
      "type": "function"
    },
    {
      "inputs": [],
      "name": "poolRegistry",
      "outputs": [
        {
          "internalType": "contract IPoolRegistry",
          "name": "",
          "type": "address"
        }
      ],
      "stateMutability": "view",
      "type": "function"
    },
    {
      "inputs": [
        {
          "internalType": "uint256",
          "name": "",
          "type": "uint256"
        },
        {
          "internalType": "uint256",
          "name": "",
          "type": "uint256"
        }
      ],
      "name": "poolSpecificUnderwriters",
      "outputs": [
        {
          "internalType": "address",
          "name": "",
          "type": "address"
        }
      ],
      "stateMutability": "view",
      "type": "function"
    },
    {
      "inputs": [
        {
          "internalType": "address",
          "name": "user",
          "type": "address"
        }
      ],
      "name": "realizeLossesForAllPools",
      "outputs": [],
      "stateMutability": "nonpayable",
      "type": "function"
    },
    {
      "inputs": [],
      "name": "renounceOwnership",
      "outputs": [],
      "stateMutability": "nonpayable",
      "type": "function"
    },
    {
      "inputs": [
        {
          "internalType": "uint256",
          "name": "poolId",
          "type": "uint256"
        },
        {
          "internalType": "uint256",
          "name": "amount",
          "type": "uint256"
        }
      ],
      "name": "requestDeallocateFromPool",
      "outputs": [],
      "stateMutability": "nonpayable",
      "type": "function"
    },
    {
      "inputs": [],
      "name": "rewardDistributor",
      "outputs": [
        {
          "internalType": "contract IRewardDistributor",
          "name": "",
          "type": "address"
        }
      ],
      "stateMutability": "view",
      "type": "function"
    },
    {
      "inputs": [],
      "name": "riskManager",
      "outputs": [
        {
          "internalType": "address",
          "name": "",
          "type": "address"
        }
      ],
      "stateMutability": "view",
      "type": "function"
    },
    {
      "inputs": [
        {
          "internalType": "address",
          "name": "_capitalPool",
          "type": "address"
        },
        {
          "internalType": "address",
          "name": "_poolRegistry",
          "type": "address"
        },
        {
          "internalType": "address",
          "name": "_catPool",
          "type": "address"
        },
        {
          "internalType": "address",
          "name": "_lossDistributor",
          "type": "address"
        },
        {
          "internalType": "address",
          "name": "_rewardDistributor",
          "type": "address"
        },
        {
          "internalType": "address",
          "name": "_riskManager",
          "type": "address"
        }
      ],
      "name": "setAddresses",
      "outputs": [],
      "stateMutability": "nonpayable",
      "type": "function"
    },
    {
      "inputs": [
        {
          "internalType": "uint256",
          "name": "_newPeriod",
          "type": "uint256"
        }
      ],
      "name": "setDeallocationNoticePeriod",
      "outputs": [],
      "stateMutability": "nonpayable",
      "type": "function"
    },
    {
      "inputs": [
        {
          "internalType": "uint256",
          "name": "_newMax",
          "type": "uint256"
        }
      ],
      "name": "setMaxAllocationsPerUnderwriter",
      "outputs": [],
      "stateMutability": "nonpayable",
      "type": "function"
    },
    {
      "inputs": [
        {
          "internalType": "address",
          "name": "newOwner",
          "type": "address"
        }
      ],
      "name": "transferOwnership",
      "outputs": [],
      "stateMutability": "nonpayable",
      "type": "function"
    },
    {
      "inputs": [
        {
          "internalType": "address",
          "name": "",
          "type": "address"
        },
        {
          "internalType": "uint256",
          "name": "",
          "type": "uint256"
        }
      ],
      "name": "underwriterAllocationIndex",
      "outputs": [
        {
          "internalType": "uint256",
          "name": "",
          "type": "uint256"
        }
      ],
      "stateMutability": "view",
      "type": "function"
    },
    {
      "inputs": [
        {
          "internalType": "address",
          "name": "",
          "type": "address"
        },
        {
          "internalType": "uint256",
          "name": "",
          "type": "uint256"
        }
      ],
      "name": "underwriterAllocations",
      "outputs": [
        {
          "internalType": "uint256",
          "name": "",
          "type": "uint256"
        }
      ],
      "stateMutability": "view",
      "type": "function"
    },
    {
      "inputs": [
        {
          "internalType": "uint256",
          "name": "",
          "type": "uint256"
        },
        {
          "internalType": "address",
          "name": "",
          "type": "address"
        }
      ],
      "name": "underwriterIndexInPoolArray",
      "outputs": [
        {
          "internalType": "uint256",
          "name": "",
          "type": "uint256"
        }
      ],
      "stateMutability": "view",
      "type": "function"
    },
    {
      "inputs": [
        {
          "internalType": "address",
          "name": "",
          "type": "address"
        },
        {
          "internalType": "uint256",
          "name": "",
          "type": "uint256"
        }
      ],
      "name": "underwriterPoolPledge",
      "outputs": [
        {
          "internalType": "uint256",
          "name": "",
          "type": "uint256"
        }
      ],
      "stateMutability": "view",
      "type": "function"
    },
    {
      "inputs": [
        {
          "internalType": "address",
          "name": "",
          "type": "address"
        }
      ],
      "name": "underwriterTotalPledge",
      "outputs": [
        {
          "internalType": "uint256",
          "name": "",
          "type": "uint256"
        }
      ],
      "stateMutability": "view",
      "type": "function"
    }
  ],
  "bytecode": "0x6080346100c657601f620029db38819003918201601f19168301916001600160401b038311848410176100cb578084926020946040528339810103126100c657516001600160a01b0390818116908190036100c65780156100ad57600080546001600160a01b03198116831782556040519316907f8be0079c531659141344cd1fd0a4f28419497f9722a3daafe3b4186f6b6457e09080a3600180556005600f556128f99081620000e28239f35b604051631e4fbdf760e01b815260006004820152602490fd5b600080fd5b634e487b7160e01b600052604160045260246000fdfe6080604052600436101561001257600080fd5b600060e08135811c908162662ebe1461188857816273ba5d146117dc5781633550013e146114d1578163426483a6146114aa578163478426631461148357816355a19304146113fd5781635bfb7508146113d65781635c9244af146113af5781636cfb6bf9146112285781636fa4eb4814610d9b578163715018a614610d3457816377d9cabd14610cd85781637ee3112914610bb85781638451323214610b575781638b9f30b514610b155781638da5cb5b14610aef578163a2d8e60814610aae578163a50cd45f1461092757508063a68292ad1461090b578063a79e1eb6146108d3578063a923099a14610885578063ac220ef91461083e578063acc2166a14610817578063afcff50f146107f0578063b071110f146107d2578063b2d300df1461078a578063b909107d14610740578063bf02ec6514610722578063d01ebe371461065c578063df11aa4e1461061a578063e20b0977146105a8578063f089434a146102d3578063f2fde38b14610225578063fa1ba25c146101e35763fb7ce3571461019f57600080fd5b346101e05760403660031901126101e05760406020916001600160a01b036101c56118de565b16815260098352818120602435825283522054604051908152f35b80fd5b50346101e05760403660031901126101e05760406020916001600160a01b0361020a6118de565b168152600e8352818120602435825283522054604051908152f35b50346101e05760203660031901126101e05761023f6118de565b610247611a7f565b6001600160a01b038091169081156102a2576000548273ffffffffffffffffffffffffffffffffffffffff19821617600055167f8be0079c531659141344cd1fd0a4f28419497f9722a3daafe3b4186f6b6457e0600080a380f35b602483604051907f1e4fbdf70000000000000000000000000000000000000000000000000000000082526004820152fd5b50346101e0576020806003193601126104df57600435906102f2611ac3565b338352601181526040832082845281526040832054801561057e57601054610319916119e6565b421061055457338352601281526040832082845281526040832054903384526011815260408420838552815260006040852055338452601281526040842083855281526000604085205561036c33611e42565b33845260098152604084208385528152836103966040822054938480821091180284188094611a72565b6001600160a01b03906024848360025416604051928380926311f6be9960e11b82523360048301525afa80156105495783918591610511575b5016906103dd821515611afe565b3384526009855260408420878552855280604085205515610502575b816003541690813b156104d057839160848392604051948593849263a6bd24ab60e01b84528c600485015260248401528a6044840152600060648401525af19081156104f75783916104e3575b505060035416803b156104df578180916064604051809481936350db6dff60e11b83528a60048401528960248401528160448401525af180156104d4576104bc575b50507fb4433a6b5f4e95fd87f376e5ae6f647206e649a052d164fdf462e84e6526814f906040519283523392a36001805580f35b6104c59061198a565b6104d0578338610488565b8380fd5b6040513d84823e3d90fd5b5080fd5b6104ec9061198a565b6104df578138610446565b6040513d85823e3d90fd5b61050c8633612715565b6103f9565b809250868092503d8311610542575b61052a81836119b4565b810103126104d05761053c8391611a09565b386103cf565b503d610520565b6040513d86823e3d90fd5b60046040517ff214e773000000000000000000000000000000000000000000000000000000008152fd5b60046040517f28d2fa90000000000000000000000000000000000000000000000000000000008152fd5b50346101e05760403660031901126101e0576105c26118de565b6105ca611ac3565b6001600160a01b036002541633036105f0576105e99060243590612265565b6001805580f35b60046040517fda37af0b000000000000000000000000000000000000000000000000000000008152fd5b50346101e05760403660031901126101e05760406020916001600160a01b036106416118de565b16815260118352818120602435825283522054604051908152f35b50346101e05760603660031901126101e0576106766118de565b60443560243581151582036104d05761068d611ac3565b6001600160a01b03806002541633036105f0576106d99183916106af86611e42565b8516948587526008602052604087206106d2815484811085821802851890611a72565b905561246e565b6106e6575b506001805580f35b8152600b6020526040812080549082815581610703575b506106de565b825260208220908101905b818110156106fd576000815560010161070e565b50346101e057806003193601126101e0576020600f54604051908152f35b50346101e05761074f36611938565b91908152600a602052604081209081548310156101e05760206001600160a01b0361077a858561190a565b9190546040519260031b1c168152f35b50346101e05760403660031901126101e0576001600160a01b0360406107ae6118f4565b926004358152600d6020522091166000526020526020604060002054604051908152f35b50346101e057806003193601126101e0576020601054604051908152f35b50346101e057806003193601126101e05760206001600160a01b0360035416604051908152f35b50346101e057806003193601126101e05760206001600160a01b0360065416604051908152f35b50346101e05760403660031901126101e05760ff60406020926001600160a01b036108676118de565b168152600c8452818120602435825284522054166040519015158152f35b50346101e05760203660031901126101e0577ff94b894768b2123b1e98b0ad017af5950f57d77ec75b8ce6916f235fd0a7809060206004356108c5611a7f565b80601055604051908152a180f35b50346101e05760203660031901126101e05760406020916001600160a01b036108fa6118de565b168152600883522054604051908152f35b50346101e057806003193601126101e057602060405160328152f35b9050346104df5760209081600319360112610aaa5760043590610948611ac3565b338452600983526040842082855283526040842054918215610a805760246001600160a01b038381600354166040519384809263d21c87ad60e01b82528760048301525afa918215610a755786948893610a40575b50506006546040517f6c19408a00000000000000000000000000000000000000000000000000000000815233600482015260248101949094529181166001600160a01b03166044840152606483019490945290928391168186816084810103925af180156104f757610a12575b826001805580f35b813d8311610a39575b610a2581836119b4565b81010312610a34573880610a0a565b600080fd5b503d610a1b565b610a60929350803d10610a6e575b610a5881836119b4565b810190611a2a565b50505050505090388061099d565b503d610a4e565b6040513d89823e3d90fd5b60046040517f6c101931000000000000000000000000000000000000000000000000000000008152fd5b8280fd5b82346101e05760403660031901126101e057610ac86118de565b610ad0611ac3565b6001600160a01b036002541633036105f0576105e99060243590612071565b82346101e057806003193601126101e0576001600160a01b036020915416604051908152f35b82346101e05760403660031901126101e05760406020916001600160a01b03610b3c6118de565b16815260128352818120602435825283522054604051908152f35b82346101e05760203660031901126101e057610b716118de565b6001600160a01b03600754163303610b8f57610b8c90611e42565b80f35b60046040517ece6460000000000000000000000000000000000000000000000000000000008152fd5b9050346104df5760203660031901126104df57600435610bd6611ac3565b338352600c6020526040832081845260205260ff60408420541615610a805782916001600160a01b03918183600354169160246040518094819363d21c87ad60e01b835260048301525afa9081156105495783928592610cb5575b5050169081610c4257826001805580f35b6004541690813b15610cb15782916044839260405194859384927f476187cb00000000000000000000000000000000000000000000000000000000845233600485015260248401525af180156104d457610c9d575b80610a0a565b610ca69061198a565b6101e0578038610c97565b5050fd5b610ccb9250803d10610a6e57610a5881836119b4565b5050505050503880610c31565b82346101e05760403660031901126101e057610cf26118de565b602435610cfd611ac3565b6001600160a01b0391826002541633036105f0576105e99281168452600860205260408420610d2d8382546119e6565b9055611c69565b82346101e057806003193601126101e057610d4d611a7f565b60006001600160a01b03815473ffffffffffffffffffffffffffffffffffffffff1981168355167f8be0079c531659141344cd1fd0a4f28419497f9722a3daafe3b4186f6b6457e08280a380f35b82346101e05760203660031901126101e05760043567ffffffffffffffff808211610aaa5736602383011215610aaa578160040135116104df57366024826004013560051b830101116104df57610df0611ac3565b3382526008602052604082205480156111fe5781600401351580156111da575b6111b05760249060206001600160a01b0360025416604051938480926311f6be9960e11b82523360048301525afa918215610549578492611174575b50610e616001600160a01b0383161515611afe565b600460206001600160a01b0360035416604051928380926308eec5d760e41b82525afa908115611169578591611137575b50845b846004013581106110a2575050835b83600401358110610eb757846001805580f35b610ec9818560040135602487016119d6565b3590338652600960205260408620828752602052826040872055338652600c60205260408620828752602052604086206001908160ff19825416179055338752600b806020526040882054600e60205260408920858a526020526040892055338852602052604087208054906801000000000000000082101561108e57610f5982869285610f729501815561190a565b90919082549060031b91821b91600019901b1916179055565b828752600a806020526040882054600d6020526040892033600052602052604060002055838852602052604087208054906801000000000000000082101561108e57610fc882610fe692858c969501815561190a565b33906001600160a01b038084549260031b9316831b921b1916179055565b6001600160a01b036003541690813b15610aaa57829160848392604051948593849263a6bd24ab60e01b84528a60048501526001600160a01b038d1660248501528b604485015260648401525af180156104d457611076575b50506001916040518481527f8b612cc9f41788c6e9b8068147327216e8b8373f43483d7db9e068843abffd6f60203392a301610ea4565b61107f9061198a565b61108a57858761103f565b8580fd5b602489634e487b7160e01b81526041600452fd5b6110b4818660040135602488016119d6565b358281101561110d57338752600c6020526040872090875260205260ff6040872054166110e357600101610e95565b60046040517fc2f34d18000000000000000000000000000000000000000000000000000000008152fd5b60046040517f0afa7ee8000000000000000000000000000000000000000000000000000000008152fd5b90506020813d602011611161575b81611152602093836119b4565b81010312610a34575185610e92565b3d9150611145565b6040513d87823e3d90fd5b9091506020813d6020116111a8575b81611190602093836119b4565b810103126104d0576111a190611a09565b9084610e4c565b3d9150611183565b60046040517f480c2784000000000000000000000000000000000000000000000000000000008152fd5b50338352600b6020526111f5604084205483600401356119e6565b600f5410610e10565b60046040517f46d2e181000000000000000000000000000000000000000000000000000000008152fd5b82346101e05760c03660031901126101e0576112426118de565b61124a6118f4565b906044356001600160a01b0391828216809203610a3457606435838116809103610a345760843590848216809203610a345760a43592858416809403610a34578590611294611a7f565b1693841580156113a5575b801561139d575b8015611395575b801561138d575b8015611385575b61135b577f7355bf2d91d3126ad1129aa9b075c9949b70842c100c36075d35c129ba591bf1968460c09773ffffffffffffffffffffffffffffffffffffffff1992888460025416176002551691828160035416176003558381600454161760045584816005541617600555858160065416176006556007541617600755604051958652602086015260408501526060840152608083015260a0820152a180f35b60046040517f8579befe000000000000000000000000000000000000000000000000000000008152fd5b5083156112bb565b5082156112b4565b5081156112ad565b5080156112a6565b508587161561129f565b82346101e057806003193601126101e05760206001600160a01b0360045416604051908152f35b82346101e057806003193601126101e05760206001600160a01b0360025416604051908152f35b82346101e0576020806003193601126104df576001600160a01b036114206118de565b168252600b602052604082209160405180926020855492838152019483526020832092905b82821061146c576114688561145c818903826119b4565b6040519182918261194e565b0390f35b835486529485019460019384019390910190611445565b82346101e057806003193601126101e05760206001600160a01b0360075416604051908152f35b82346101e057806003193601126101e05760206001600160a01b0360055416604051908152f35b9050346104df576114e136611938565b90916114eb611ac3565b6001600160a01b03806003541691604051926308eec5d760e41b84526020938481600481855afa9081156117d15788916117a0575b5086101561110d57338752600c845260408720868852845260ff60408820541615610a80573387526011845260408720868852845260408720546117765784156117325733875260098452604087208688528452604087205485116116ee57816024916040519283809263d21c87ad60e01b82528a60048301525afa908115610a75578790889389936116c6575b50506115ba82846119e6565b8111156116bd576115d3926115ce91611a72565b611a72565b8311611693578490338252601183526040822085835283524260408320553382526012835260408220858352835283604083205560035416803b156104df5781906064604051809481936350db6dff60e11b8352896004840152886024840152600160448401525af1801561116957611680575b5060405191825242908201527ffbeb47a6bd9b7dbbbabf46435818010ab86574e23e88ae1cc9ffefec367d39d160403392a36001805580f35b61168c9094919461198a565b9238611647565b60046040517fc7068bf0000000000000000000000000000000000000000000000000000000008152fd5b505050846115d3565b915091506116e09250803d10610a6e57610a5881836119b4565b5050509250919038806115ae565b6064846040519062461bcd60e51b82526004820152601560248201527f416d6f756e74206578636565647320706c6564676500000000000000000000006044820152fd5b6064846040519062461bcd60e51b82526004820152600e60248201527f496e76616c696420616d6f756e740000000000000000000000000000000000006044820152fd5b60046040517f644d75d9000000000000000000000000000000000000000000000000000000008152fd5b90508481813d83116117ca575b6117b781836119b4565b810103126117c6575138611520565b8780fd5b503d6117ad565b6040513d8a823e3d90fd5b82346101e05760203660031901126101e0576004356117f9611a7f565b8015158061187d575b15611839576020817fb8cddf3d95d9e26fabb43fd968b8e13af6606acbff3ffceb271e3cbdeb9e789192600f55604051908152a180f35b606460405162461bcd60e51b815260206004820152600b60248201527f496e76616c6964206d61780000000000000000000000000000000000000000006044820152fd5b506032811115611802565b82346101e05760403660031901126101e0576118a26118de565b6001600160a01b03168152600b60205260408120805460243592908310156101e05760206118d0848461190a565b90546040519160031b1c8152f35b600435906001600160a01b0382168203610a3457565b602435906001600160a01b0382168203610a3457565b80548210156119225760005260206000200190600090565b634e487b7160e01b600052603260045260246000fd5b6040906003190112610a34576004359060243590565b602090602060408183019282815285518094520193019160005b828110611976575050505090565b835185529381019392810192600101611968565b67ffffffffffffffff811161199e57604052565b634e487b7160e01b600052604160045260246000fd5b90601f8019910116810190811067ffffffffffffffff82111761199e57604052565b91908110156119225760051b0190565b919082018092116119f357565b634e487b7160e01b600052601160045260246000fd5b51906001600160a01b0382168203610a3457565b51908115158203610a3457565b908160e0910312610a3457611a3e81611a09565b91602082015191604081015191606082015191611a5d60808201611a1d565b9160c0611a6c60a08401611a09565b92015190565b919082039182116119f357565b6001600160a01b03600054163303611a9357565b60246040517f118cdaa7000000000000000000000000000000000000000000000000000000008152336004820152fd5b600260015414611ad4576002600155565b60046040517f3ee5aeb5000000000000000000000000000000000000000000000000000000008152fd5b15611b0557565b606460405162461bcd60e51b815260206004820152601960248201527f5573657220686173206e6f207969656c642061646170746572000000000000006044820152fd5b9060208083830312610a3457825167ffffffffffffffff93848211610a3457019082601f83011215610a345781519284841161199e5760409460405195611b95848760051b01886119b4565b858752838701928460e080980287010195818711610a34578501935b868510611bc357505050505050505090565b8785830312610a34578251908882019082821086831117611c4057899288928652611bed88611a09565b815282880151838201528588015186820152606080890151908201526080611c16818a01611a1d565b9082015260a0611c27818a01611a09565b9082015260c08089015190820152815201940193611bb1565b60246000634e487b7160e01b81526041600452fd5b80518210156119225760209160051b010190565b906001600160a01b0380831692600093808552602093600b855260409283872084518082898294549384815201908b52898b20928b5b8b828210611e2c57505050611cb6925003826119b4565b805115611e2257856003541690855197633897427760e01b895289896004948180611ce4876004830161194e565b03915afa988915611e18578a99611df4575b50895b8251811015611de757868b526009808352888c20611d178386611c55565b518d528352888c20611d2a8882546119e6565b905589611d37838d611c55565b515116908c8a8c6006541691611d4d8689611c55565b51938c82528752818120611d61878a611c55565b51825287522054813b15611de3578b516386e8748760e01b81526001600160a01b03808b16828b019081526020810195909552909416604084015260608301528d9183919082908490829060800103925af18015611dd9579060019291611dca575b5001611cf9565b611dd39061198a565b38611dc3565b89513d8e823e3d90fd5b8e80fd5b5050505050505050505050565b611e119199503d808c833e611e0981836119b4565b810190611b49565b9738611cf6565b87513d8c823e3d90fd5b5050505050505050565b8554845260019586019587955093019201611c9f565b906001600160a01b03809216600090808252602090600b8252604090818420928251808583829754938481520190885283882092885b8582821061205b57505050611e8f925003856119b4565b818552600881528285205493855b815181101561204a57611eb08183611c55565b51848852876009808652878220838352865287822054801561203e578c60055416918951947f304717b70000000000000000000000000000000000000000000000000000000086526004928a848801528987606481602499868b830152604499868b8401525af196871561203257908e92918398611ff9575b5087611f42575b50505050505050506001905b01611e9d565b908782819f94939980611f7998999a9b1091180218938c83528b528c8220915289528a8d20611f72838254611a72565b9055611a72565b988c6002541690813b15611ff557918b8094928a948c5197889687957f3746060d0000000000000000000000000000000000000000000000000000000087528601528401525af18015611feb579060019291611fdc575b819281808b8180611f30565b611fe59061198a565b38611fd0565b86513d8a823e3d90fd5b8b80fd5b8b80929950819394503d831161202b575b61201481836119b4565b8101031261202757908d91519638611f29565b8d80fd5b503d61200a565b8e8d51903d90823e3d90fd5b50505050600190611f3c565b505090845260089052909120559050565b855484526001958601958a955093019201611e78565b6001600160a01b0380821691600093838552602093600b8552604092838720958451808883829a549384815201908b52838b20928b5b8582821061224f575050506120be925003886119b4565b865115611e225786906003948760035416908a88518093633897427760e01b825281806120f06004996004830161194e565b03915afa918215612245578b92612229575b508a5b8a5181101561221b57612118818c611c55565b518a895416803b15612027578d809160648d51809481936350db6dff60e11b8352878d840152896024840152600160448401525af1801561220f57612200575b508a6121648386611c55565b515116908d8b8d60065416918b81526009895281812084825289522054813b156121fc578c516386e8748760e01b81526001600160a01b03808c16828c019081526020810195909552909416604084015260608301528e9183919082908490829060800103925af180156121f25790600192916121e3575b5001612105565b6121ec9061198a565b386121dc565b8a513d8f823e3d90fd5b8f80fd5b6122099061198a565b38612158565b8e8c51903d90823e3d90fd5b505050505050505050505050565b61223e9192503d808d833e611e0981836119b4565b9038612102565b88513d8d823e3d90fd5b855484526001958601958d9550930192016120a7565b90916001600160a01b0380831692600093808552602090600b825260409283872084518082868294549384815201908b52868b20928b5b88828210612458575050506122b3925003826119b4565b80511561244d57600393866003541691865190633897427760e01b82528a8260049581806122e4866004830161194e565b03915afa918215612245578b92612431575b508a5b81518110156124225761230c8183611c55565b518d15158061240a575b6123b4575b8a6123268386611c55565b515116908d8b8d60065416918b81526009895281812084825289522054813b156121fc578c516386e8748760e01b81526001600160a01b03808c16828c019081526020810195909552909416604084015260608301528e9183919082908490829060800103925af180156121f25790600192916123a5575b50016122f9565b6123ae9061198a565b3861239e565b8a895416803b15612027578d8f91606489838f9387945196879586946350db6dff60e11b865285015260248401528160448401525af1801561220f576123fb575b5061231b565b6124049061198a565b386123f5565b508d60606124188487611c55565b5101511015612316565b50505050505050505050915050565b6124469192503d808d833e611e0981836119b4565b90386122f6565b505050505050915050565b855484526001958601958795509301920161229c565b909291926001600160a01b038216600052600b6020526040600020936040518086602082985493848152019060005260206000209260005b8181106126fc5750506124bb925003866119b4565b8451156126f5576001600160a01b03600354169460006040518097633897427760e01b825281806124ef866004830161194e565b03915afa958615612651576000966126d8575b5060005b81518110156126cf576125198183611c55565b51906060612527828a611c55565b510151916001600160a01b0361253d838b611c55565b5151169280871081881802810361266c575b506001600160a01b03871660005260099283602052604060002082600052602052604060002054878181101560001461265d5750506000935b6001600160a01b038916600052602052604060002082600052602052836040600020556001600160a01b0360065416803b15610a34576040516386e8748760e01b81526001600160a01b038a8116600483015260248201859052929092166044830152606482018590529093906000908590608490829084905af193841561265157600194612642575b5085908615612639575b50612629575b5001612506565b6126339087612715565b38612622565b9050153861261c565b61264b9061198a565b38612612565b6040513d6000823e3d90fd5b61266691611a72565b93612588565b6001600160a01b036003541690813b15610a34576000916064839260405194859384926350db6dff60e11b84528860048501528d818082109118021860248401528160448401525af18015612651571561254f576126c99061198a565b3861254f565b50505050509050565b6126ee9196503d806000833e611e0981836119b4565b9438612502565b5050509050565b845483526001948501948a9450602090930192016124a6565b6001600160a01b0380911691600092808452602090600c8252604093848620848752835284862060ff198154169055818652600b8352848620600e845285872085885284528587205490805491600019928381019081116128af5761277a908361190a565b90549060031b1c61278f81610f59848661190a565b858a52600e8752888a20908a528652878920558054801561289b578201906127b7828261190a565b8482549160031b1b1916905555848752600d845285872083885284528587205490858852600a85528688209182548281019081116128af576127fa85918561190a565b90549060031b1c1661282f81612810848761190a565b9091906001600160a01b038084549260031b9316831b921b1916179055565b878a52600d8752888a20908a528652878920558154801561289b570191612856838361190a565b909182549160031b1b1916905555828552600d825283852081865282528484812055600e82528385208386528252848481205584526009815282842091845252812055565b602489634e487b7160e01b81526031600452fd5b60248a634e487b7160e01b81526011600452fdfea26469706673582212205057c8ec5412f80921d07fb9624fc50485c8b4ac805d3fc01cad2bb5b729d02864736f6c63430008160033",
  "linkReferences": {},
  "deployedLinkReferences": {}
}