{"abi":[{"type":"constructor","inputs":[{"name":"_initialOwner","type":"address","internalType":"address"}],"stateMutability":"nonpayable"},{"type":"function","name":"allocateCapital","inputs":[{"name":"poolIds","type":"uint256[]","internalType":"uint256[]"}],"outputs":[],"stateMutability":"nonpayable"},{"type":"function","name":"capitalPool","inputs":[],"outputs":[{"name":"","type":"address","internalType":"contract ICapitalPool"}],"stateMutability":"view"},{"type":"function","name":"catPool","inputs":[],"outputs":[{"name":"","type":"address","internalType":"contract IBackstopPool"}],"stateMutability":"view"},{"type":"function","name":"claimDistressedAssets","inputs":[{"name":"poolIds","type":"uint256[]","internalType":"uint256[]"}],"outputs":[],"stateMutability":"nonpayable"},{"type":"function","name":"claimPremiumRewards","inputs":[{"name":"poolIds","type":"uint256[]","internalType":"uint256[]"}],"outputs":[],"stateMutability":"nonpayable"},{"type":"function","name":"deallocateFromPool","inputs":[{"name":"poolId","type":"uint256","internalType":"uint256"}],"outputs":[],"stateMutability":"nonpayable"},{"type":"function","name":"deallocationNoticePeriod","inputs":[],"outputs":[{"name":"","type":"uint256","internalType":"uint256"}],"stateMutability":"view"},{"type":"function","name":"deallocationRequestAmount","inputs":[{"name":"","type":"address","internalType":"address"},{"name":"","type":"uint256","internalType":"uint256"}],"outputs":[{"name":"","type":"uint256","internalType":"uint256"}],"stateMutability":"view"},{"type":"function","name":"deallocationRequestTimestamp","inputs":[{"name":"","type":"address","internalType":"address"},{"name":"","type":"uint256","internalType":"uint256"}],"outputs":[{"name":"","type":"uint256","internalType":"uint256"}],"stateMutability":"view"},{"type":"function","name":"getUnderwriterAllocations","inputs":[{"name":"user","type":"address","internalType":"address"}],"outputs":[{"name":"","type":"uint256[]","internalType":"uint256[]"}],"stateMutability":"view"},{"type":"function","name":"isAllocatedToPool","inputs":[{"name":"","type":"address","internalType":"address"},{"name":"","type":"uint256","internalType":"uint256"}],"outputs":[{"name":"","type":"bool","internalType":"bool"}],"stateMutability":"view"},{"type":"function","name":"lossDistributor","inputs":[],"outputs":[{"name":"","type":"address","internalType":"contract ILossDistributor"}],"stateMutability":"view"},{"type":"function","name":"maxAllocationsPerUnderwriter","inputs":[],"outputs":[{"name":"","type":"uint256","internalType":"uint256"}],"stateMutability":"view"},{"type":"function","name":"onCapitalDeposited","inputs":[{"name":"underwriter","type":"address","internalType":"address"},{"name":"amount","type":"uint256","internalType":"uint256"}],"outputs":[],"stateMutability":"nonpayable"},{"type":"function","name":"onCapitalWithdrawn","inputs":[{"name":"underwriter","type":"address","internalType":"address"},{"name":"principalComponentRemoved","type":"uint256","internalType":"uint256"},{"name":"isFullWithdrawal","type":"bool","internalType":"bool"}],"outputs":[],"stateMutability":"nonpayable"},{"type":"function","name":"onWithdrawalCancelled","inputs":[{"name":"underwriter","type":"address","internalType":"address"},{"name":"principalComponent","type":"uint256","internalType":"uint256"}],"outputs":[],"stateMutability":"nonpayable"},{"type":"function","name":"onWithdrawalRequested","inputs":[{"name":"underwriter","type":"address","internalType":"address"},{"name":"principalComponent","type":"uint256","internalType":"uint256"}],"outputs":[],"stateMutability":"nonpayable"},{"type":"function","name":"owner","inputs":[],"outputs":[{"name":"","type":"address","internalType":"address"}],"stateMutability":"view"},{"type":"function","name":"poolRegistry","inputs":[],"outputs":[{"name":"","type":"address","internalType":"contract IPoolRegistry"}],"stateMutability":"view"},{"type":"function","name":"poolSpecificUnderwriters","inputs":[{"name":"","type":"uint256","internalType":"uint256"},{"name":"","type":"uint256","internalType":"uint256"}],"outputs":[{"name":"","type":"address","internalType":"address"}],"stateMutability":"view"},{"type":"function","name":"realizeLossesForAllPools","inputs":[{"name":"user","type":"address","internalType":"address"}],"outputs":[],"stateMutability":"nonpayable"},{"type":"function","name":"renounceOwnership","inputs":[],"outputs":[],"stateMutability":"nonpayable"},{"type":"function","name":"requestDeallocateFromPool","inputs":[{"name":"poolId","type":"uint256","internalType":"uint256"},{"name":"amount","type":"uint256","internalType":"uint256"}],"outputs":[],"stateMutability":"nonpayable"},{"type":"function","name":"rewardDistributor","inputs":[],"outputs":[{"name":"","type":"address","internalType":"contract IRewardDistributor"}],"stateMutability":"view"},{"type":"function","name":"riskManager","inputs":[],"outputs":[{"name":"","type":"address","internalType":"address"}],"stateMutability":"view"},{"type":"function","name":"setAddresses","inputs":[{"name":"_capitalPool","type":"address","internalType":"address"},{"name":"_poolRegistry","type":"address","internalType":"address"},{"name":"_catPool","type":"address","internalType":"address"},{"name":"_lossDistributor","type":"address","internalType":"address"},{"name":"_rewardDistributor","type":"address","internalType":"address"},{"name":"_riskManager","type":"address","internalType":"address"}],"outputs":[],"stateMutability":"nonpayable"},{"type":"function","name":"setDeallocationNoticePeriod","inputs":[{"name":"_newPeriod","type":"uint256","internalType":"uint256"}],"outputs":[],"stateMutability":"nonpayable"},{"type":"function","name":"setMaxAllocationsPerUnderwriter","inputs":[{"name":"_newMax","type":"uint256","internalType":"uint256"}],"outputs":[],"stateMutability":"nonpayable"},{"type":"function","name":"transferOwnership","inputs":[{"name":"newOwner","type":"address","internalType":"address"}],"outputs":[],"stateMutability":"nonpayable"},{"type":"function","name":"underwriterAllocations","inputs":[{"name":"","type":"address","internalType":"address"},{"name":"","type":"uint256","internalType":"uint256"}],"outputs":[{"name":"","type":"uint256","internalType":"uint256"}],"stateMutability":"view"},{"type":"function","name":"underwriterIndexInPoolArray","inputs":[{"name":"","type":"uint256","internalType":"uint256"},{"name":"","type":"address","internalType":"address"}],"outputs":[{"name":"","type":"uint256","internalType":"uint256"}],"stateMutability":"view"},{"type":"function","name":"underwriterPoolPledge","inputs":[{"name":"","type":"address","internalType":"address"},{"name":"","type":"uint256","internalType":"uint256"}],"outputs":[{"name":"","type":"uint256","internalType":"uint256"}],"stateMutability":"view"},{"type":"function","name":"underwriterTotalPledge","inputs":[{"name":"","type":"address","internalType":"address"}],"outputs":[{"name":"","type":"uint256","internalType":"uint256"}],"stateMutability":"view"},{"type":"event","name":"AddressesSet","inputs":[{"name":"capital","type":"address","indexed":false,"internalType":"address"},{"name":"registry","type":"address","indexed":false,"internalType":"address"},{"name":"cat","type":"address","indexed":false,"internalType":"address"},{"name":"loss","type":"address","indexed":false,"internalType":"address"},{"name":"rewards","type":"address","indexed":false,"internalType":"address"},{"name":"riskMgr","type":"address","indexed":false,"internalType":"address"}],"anonymous":false},{"type":"event","name":"CapitalAllocated","inputs":[{"name":"underwriter","type":"address","indexed":true,"internalType":"address"},{"name":"poolId","type":"uint256","indexed":true,"internalType":"uint256"},{"name":"amount","type":"uint256","indexed":false,"internalType":"uint256"}],"anonymous":false},{"type":"event","name":"CapitalDeallocated","inputs":[{"name":"underwriter","type":"address","indexed":true,"internalType":"address"},{"name":"poolId","type":"uint256","indexed":true,"internalType":"uint256"},{"name":"amount","type":"uint256","indexed":false,"internalType":"uint256"}],"anonymous":false},{"type":"event","name":"DeallocationNoticePeriodSet","inputs":[{"name":"newPeriod","type":"uint256","indexed":false,"internalType":"uint256"}],"anonymous":false},{"type":"event","name":"DeallocationRequested","inputs":[{"name":"underwriter","type":"address","indexed":true,"internalType":"address"},{"name":"poolId","type":"uint256","indexed":true,"internalType":"uint256"},{"name":"amount","type":"uint256","indexed":false,"internalType":"uint256"},{"name":"timestamp","type":"uint256","indexed":false,"internalType":"uint256"}],"anonymous":false},{"type":"event","name":"MaxAllocationsPerUnderwriterSet","inputs":[{"name":"newMax","type":"uint256","indexed":false,"internalType":"uint256"}],"anonymous":false},{"type":"event","name":"OwnershipTransferred","inputs":[{"name":"previousOwner","type":"address","indexed":true,"internalType":"address"},{"name":"newOwner","type":"address","indexed":true,"internalType":"address"}],"anonymous":false},{"type":"error","name":"AlreadyAllocated","inputs":[]},{"type":"error","name":"DeallocationRequestPending","inputs":[]},{"type":"error","name":"ExceedsMaxAllocations","inputs":[]},{"type":"error","name":"InsufficientFreeCapital","inputs":[]},{"type":"error","name":"InvalidPoolId","inputs":[]},{"type":"error","name":"NoCapitalToAllocate","inputs":[]},{"type":"error","name":"NoDeallocationRequest","inputs":[]},{"type":"error","name":"NotAllocated","inputs":[]},{"type":"error","name":"NotCapitalPool","inputs":[]},{"type":"error","name":"NotRiskManager","inputs":[]},{"type":"error","name":"NoticePeriodActive","inputs":[]},{"type":"error","name":"OwnableInvalidOwner","inputs":[{"name":"owner","type":"address","internalType":"address"}]},{"type":"error","name":"OwnableUnauthorizedAccount","inputs":[{"name":"account","type":"address","internalType":"address"}]},{"type":"error","name":"ReentrancyGuardReentrantCall","inputs":[]},{"type":"error","name":"ZeroAddressNotAllowed","inputs":[]}],"bytecode":{"object":"0x6080346100c457601f6200296738819003918201601f19168301916001600160401b038311848410176100c8578084926020946040528339810103126100c457516001600160a01b0390818116908190036100c45780156100ac575f80546001600160a01b03198116831782556040519316907f8be0079c531659141344cd1fd0a4f28419497f9722a3daafe3b4186f6b6457e09080a3600180556005600e5561288a9081620000dd8239f35b604051631e4fbdf760e01b81525f6004820152602490fd5b5f80fd5b634e487b7160e01b5f52604160045260245ffdfe604060a08152600480361015610013575f80fd5b5f3560e01c908162662ebe146115e457816273ba5d1461154d5781631db2a4331461149f5781633550013e1461111e578163426483a6146110f757816347842663146110d057816355a193041461104c5781635bfb7508146110255781635c9244af146110005781636cfb6bf914610e795781636fa4eb4814610aaf578163715018a614610a4b57816377d9cabd14610a1f57816384513232146109c05781638b9f30b5146109805781638da5cb5b1461095a578163a2d8e6081461092e578163a79e1eb6146108f7578163a923099a146108aa578163ac220ef914610865578163acc2166a1461083e578163afcff50f14610817578163b071110f146107f9578163b2d300df146107b9578163b909107d14610771578163bf02ec6514610753578163cfb2ab4b146105c4578163d01ebe371461058a578163df11aa4e1461054a578163e20b097714610518578163f089434a14610275578163f2fde38b146101c9575063fb7ce35714610186575f80fd5b346101c557806003193601126101c5576020906001600160a01b036101a9611638565b165f5260098252805f206024355f528252805f20549051908152f35b5f80fd5b9050346101c55760203660031901126101c5576101e4611638565b906101ed612276565b6001600160a01b038092169283156102465750505f548273ffffffffffffffffffffffffffffffffffffffff198216175f55167f8be0079c531659141344cd1fd0a4f28419497f9722a3daafe3b4186f6b6457e05f80a3005b905f60249251917f1e4fbdf7000000000000000000000000000000000000000000000000000000008352820152fd5b82346101c557602090816003193601126101c5578235916102946122b9565b335f5260108152815f20835f528152815f205491335f5260118252805f20845f528252805f20549280156104f057600f546102ce916117ba565b42106104c8576102dd336124b4565b335f5260098252805f20845f528252610304815f2054938480821091180284188094611799565b6001600160a01b039060248483600254168551928380926311f6be9960e11b8252338d8301525afa9081156104be579083915f91610486575b50169061034b82151561222b565b335f5260098552835f20875f52855280845f205515610477575b335f5260108452825f20865f5284525f83812055335f5260118452825f20865f5284525f838120558160035416803b156101c557866084895f80948851968795869463a6bd24ab60e01b865285015260248401528a60448401528160648401525af1801561046d5761045e575b506003541694853b156101c5578460645f92838551998a9485936350db6dff60e11b85528401528860248401528160448401525af1948515610454577fb4433a6b5f4e95fd87f376e5ae6f647206e649a052d164fdf462e84e6526814f939495610445575b50519283523392a360018055005b61044e9061173f565b85610437565b50513d5f823e3d90fd5b6104679061173f565b866103d2565b83513d5f823e3d90fd5b61048186336126ad565b610365565b809250868092503d83116104b7575b61049f8183611767565b810103126101c5576104b183916117df565b8961033d565b503d610495565b84513d5f823e3d90fd5b8490517ff214e773000000000000000000000000000000000000000000000000000000008152fd5b8582517f28d2fa90000000000000000000000000000000000000000000000000000000008152fd5b82346101c5573660031901126101c557610544610533611638565b61053b6122b9565b6024359061202e565b60018055005b82346101c557806003193601126101c5576020906001600160a01b0361056e611638565b165f5260108252805f206024355f528252805f20549051908152f35b346101c55760603660031901126101c5576105a3611638565b60443580151581036101c557610544916105bb6122b9565b60243590611d3f565b9050346101c5576105d43661168d565b9190926105df6122b9565b6001600160a01b038060035416935f83518096633897427760e01b8252818061060b868c8b8401611cfd565b03915afa94851561046d575f9561072f575b505f5b81811061062d5760018055005b610638818389611789565b35335f52600990602091808352865f20825f528352865f2054610661575b505050600101610620565b829061066d858b61172b565b5187806006541691511691335f528352885f20845f528352885f2054935f8b6106e78c51978896879586947f6c19408a000000000000000000000000000000000000000000000000000000008652339086019060609295949360808301966001600160a01b03809316845260208401521660408201520152565b03925af18015610725576106fc575b80610656565b813d831161071e575b61070f8183611767565b810103126101c5575f806106f6565b503d610705565b86513d5f823e3d90fd5b61074c9195503d805f833e6107448183611767565b810190611800565b935f61061d565b82346101c5575f3660031901126101c557602090600e549051908152f35b82346101c557610780366116da565b91905f52600a602052805f209182548110156101c5576107aa6001600160a01b0391602094611664565b92905490519260031b1c168152f35b82346101c557806003193601126101c5576020916107d561164e565b90355f52600d83526001600160a01b03825f2091165f528252805f20549051908152f35b82346101c5575f3660031901126101c557602090600f549051908152f35b82346101c5575f3660031901126101c5576020906001600160a01b03600354169051908152f35b82346101c5575f3660031901126101c5576020906001600160a01b03600654169051908152f35b82346101c557806003193601126101c5576020906001600160a01b03610889611638565b165f52600c8252805f206024355f52825260ff815f20541690519015158152f35b9050346101c55760203660031901126101c5577ff94b894768b2123b1e98b0ad017af5950f57d77ec75b8ce6916f235fd0a780909160209135906108ec612276565b81600f5551908152a1005b82346101c55760203660031901126101c5576020906001600160a01b0361091c611638565b165f5260088252805f20549051908152f35b82346101c5573660031901126101c557610544610949611638565b6109516122b9565b60243590611b12565b82346101c5575f3660031901126101c5576020906001600160a01b035f54169051908152f35b82346101c557806003193601126101c5576020906001600160a01b036109a4611638565b165f5260118252805f206024355f528252805f20549051908152f35b82346101c55760203660031901126101c5576109da611638565b906001600160a01b036007541633036109f8576109f6826124b4565b005b9050517ece6460000000000000000000000000000000000000000000000000000000008152fd5b82346101c5573660031901126101c557610544610a3a611638565b610a426122b9565b602435906118f3565b346101c5575f3660031901126101c557610a63612276565b5f6001600160a01b03815473ffffffffffffffffffffffffffffffffffffffff1981168355167f8be0079c531659141344cd1fd0a4f28419497f9722a3daafe3b4186f6b6457e08280a3005b9050346101c557610abf3661168d565b9091610ac96122b9565b335f52602060088152845f2054918215610e525783158015610e34575b610e0d576001600160a01b039384600254169187516311f6be9960e11b81523382820152848160248181975afa8015610e035787915f91610dcb575b501691610b3083151561222b565b600390828689600354168c51928380926308eec5d760e41b82525afa908115610dc1575f91610d94575b505f5b828110610d275750505f5b818110610b755760018055005b610b8081838c611789565b3590335f52600988528b5f20825f528852888c5f2055335f52600c88528b5f20825f5288528b5f20916001928360ff19825416179055335f52600b89528c5f208054680100000000000000009182821015610d15578f9291610beb81610c0393898894018155611664565b90919082549060031b91821b915f19901b1916179055565b825f52600a91828c525f20805491821015610d155781610c2a9187610c4894018155611664565b33906001600160a01b038084549260031b9316831b921b1916179055565b815f5289528c5f20545f198101908111610d0357815f52600d8a528d5f20335f528a528d5f20558a855416803b156101c5578160848f5f80948f988e998e8e95519b8c98899763a6bd24ab60e01b8952880152860152604485015260648401525af1928315610cf957600193610cea575b508c518a81527f8b612cc9f41788c6e9b8068147327216e8b8373f43483d7db9e068843abffd6f8a3392a301610b68565b610cf39061173f565b5f610cb9565b8d513d5f823e3d90fd5b88601188634e487b7160e01b5f52525ffd5b8a60418a634e487b7160e01b5f52525ffd5b610d3281848d611789565b3582811015610d8557335f52600c89528c5f20905f52885260ff8c5f205416610d5d57600101610b5d565b848c517fc2f34d18000000000000000000000000000000000000000000000000000000008152fd5b858d5163015f4fdd60e31b8152fd5b90508681813d8311610dba575b610dab8183611767565b810103126101c557515f610b5a565b503d610da1565b8b513d5f823e3d90fd5b809250868092503d8311610dfc575b610de48183611767565b810103126101c557610df687916117df565b5f610b22565b503d610dda565b89513d5f823e3d90fd5b85517f480c2784000000000000000000000000000000000000000000000000000000008152fd5b50335f52600b8252610e49865f2054856117ba565b600e5410610ae6565b85517f46d2e181000000000000000000000000000000000000000000000000000000008152fd5b82346101c55760c03660031901126101c557610e93611638565b610e9b61164e565b604435926001600160a01b03938481168091036101c557606435918583168093036101c557608435938685168095036101c55760a435958787168097036101c5578790610ee6612276565b169687158015610ff6575b8015610fee575b8015610fe6575b8015610fde575b8015610fd6575b610fae57978660c0989796959493927f7355bf2d91d3126ad1129aa9b075c9949b70842c100c36075d35c129ba591bf19a73ffffffffffffffffffffffffffffffffffffffff19918a836002541617600255169283826003541617600355858282541617905585816005541617600555868160065416176006556007541617600755815196875260208701528501526060840152608083015260a0820152a1005b8883517f8579befe000000000000000000000000000000000000000000000000000000008152fd5b508615610f0d565b508515610f06565b508415610eff565b508315610ef8565b5080821615610ef1565b82346101c5575f3660031901126101c5576001600160a01b0360209254169051908152f35b82346101c5575f3660031901126101c5576020906001600160a01b03600254169051908152f35b82346101c5576020806003193601126101c5576001600160a01b0361106f611638565b165f52600b602052815f209180519182602085549182815201945f5260205f20915f905b8282106110b9576110b586866110ab828b0383611767565b51918291826116f0565b0390f35b835487529586019560019384019390910190611093565b82346101c5575f3660031901126101c5576020906001600160a01b03600754169051908152f35b82346101c5575f3660031901126101c5576020906001600160a01b03600554169051908152f35b82346101c55761112d366116da565b90916111376122b9565b6001600160a01b038060035416908251916308eec5d760e41b835260209283818981855afa908115611495575f91611468575b5086101561145957335f52600c8352835f20865f52835260ff845f2054161561143157335f5260108352835f20865f528352835f20546114095784156113c757335f5260098352835f20865f528352835f205485116113855760e06024918551928380927fd21c87ad0000000000000000000000000000000000000000000000000000000082528a8c8301525afa80156104be575f80925f9261131d575b5061121382846117ba565b8111156113145761122c9261122791611799565b611799565b84116112ec57335f5260108252825f20855f52825242835f2055335f5260118252825f20855f52825283835f20556003541694853b156101c5578460645f92838651998a9485936350db6dff60e11b8552840152886024840152600160448401525af19485156112e2577ffbeb47a6bd9b7dbbbabf46435818010ab86574e23e88ae1cc9ffefec367d39d19394956112d3575b50815193845242908401523392a360018055005b6112dc9061173f565b856112bf565b82513d5f823e3d90fd5b8583517fc7068bf0000000000000000000000000000000000000000000000000000000008152fd5b5050505f61122c565b9250505060e0813d60e01161137d575b8161133a60e09383611767565b810103126101c55761134b816117df565b5082810151848201519061137360a060608501519461136c608082016117f3565b50016117df565b5090919089611208565b3d915061132d565b6064878486519162461bcd60e51b8352820152601560248201527f416d6f756e74206578636565647320706c6564676500000000000000000000006044820152fd5b6064878486519162461bcd60e51b8352820152600e60248201527f496e76616c696420616d6f756e740000000000000000000000000000000000006044820152fd5b8684517f644d75d9000000000000000000000000000000000000000000000000000000008152fd5b8684517f6c101931000000000000000000000000000000000000000000000000000000008152fd5b86845163015f4fdd60e31b8152fd5b90508381813d831161148e575b61147f8183611767565b810103126101c557518861116a565b503d611475565b85513d5f823e3d90fd5b9050346101c5576114c06114b23661168d565b906114bb6122b9565b612326565b5f5b8151811015610544576001600160a01b039081845416916114e3828561172b565b5116823b156101c5575f9260448492885195869384927f476187cb000000000000000000000000000000000000000000000000000000008452338b85015260248401525af19182156114955760019261153e575b50016114c2565b6115479061173f565b5f611537565b9050346101c55760203660031901126101c55780359061156b612276565b81156115a1577fb8cddf3d95d9e26fabb43fd968b8e13af6606acbff3ffceb271e3cbdeb9e78916020838581600e5551908152a1005b606490602084519162461bcd60e51b8352820152600b60248201527f496e76616c6964206d61780000000000000000000000000000000000000000006044820152fd5b82346101c557806003193601126101c5576115fd611638565b906001600160a01b0360243592165f52600b602052805f2080548310156101c55760209261162a91611664565b91905490519160031b1c8152f35b600435906001600160a01b03821682036101c557565b602435906001600160a01b03821682036101c557565b8054821015611679575f5260205f2001905f90565b634e487b7160e01b5f52603260045260245ffd5b9060206003198301126101c55760043567ffffffffffffffff928382116101c557806023830112156101c55781600401359384116101c55760248460051b830101116101c5576024019190565b60409060031901126101c5576004359060243590565b60209060206040818301928281528551809452019301915f5b828110611717575050505090565b835185529381019392810192600101611709565b80518210156116795760209160051b010190565b67ffffffffffffffff811161175357604052565b634e487b7160e01b5f52604160045260245ffd5b90601f8019910116810190811067ffffffffffffffff82111761175357604052565b91908110156116795760051b0190565b919082039182116117a657565b634e487b7160e01b5f52601160045260245ffd5b919082018092116117a657565b67ffffffffffffffff81116117535760051b60200190565b51906001600160a01b03821682036101c557565b519081151582036101c557565b90602080838303126101c557825167ffffffffffffffff938482116101c557019082601f830112156101c557815192611838846117c7565b9460406118486040519788611767565b858752838701928460e0809802870101958187116101c5578501935b86851061187657505050505050505090565b87858303126101c5578251908882019082821086831117611753578992889286526118a0886117df565b8152828801518382015285880151868201526060808901519082015260806118c9818a016117f3565b9082015260a06118da818a016117df565b9082015260c08089015190820152815201940193611864565b91906001600160a01b039081600254163303611ae857818416805f5260209460088652604095865f206119278582546117ba565b9055825f52600b8152865f209087518083838295549384815201905f52835f20925f5b85828210611ad25750505061196192500383611767565b815115611ac857856003541694885190633897427760e01b82525f82600498818061198f89600483016116f0565b03915afa918215611abe575f92611aa2575b505f5b8451811015611a9557865f526009908185528b5f206119c3828861172b565b515f5285528b5f206119d68482546117ba565b9055896119e3828661172b565b515116918a60065416906119f7838961172b565b51908a5f5287528d5f20611a0b848a61172b565b515f5287528d5f205491803b156101c557898f8d611a625f96879351998a97889687956386e8748760e01b875286019060609295949360808301966001600160a01b03809316845260208401521660408201520152565b03925af1918215611a8b57600192611a7c575b50016119a4565b611a859061173f565b5f611a75565b8c513d5f823e3d90fd5b5050505050505050509050565b611ab79192503d805f833e6107448183611767565b905f6119a1565b8a513d5f823e3d90fd5b5050505050509050565b855484526001958601958895509301920161194a565b60046040517fda37af0b000000000000000000000000000000000000000000000000000000008152fd5b91906001600160a01b039081600254163303611ae857818416805f52602090600b8252604095865f209287518085838297549384815201905f52835f20925f5b85828210611ce757505050611b6992500385611767565b835115611ac857600393866003541695895191633897427760e01b83525f836004998180611b9a86600483016116f0565b03915afa928315610dc1575f93611ccb575b505f5b8151811015611cbd57611bc2818361172b565b51908a895416803b156101c5575f838f8d836064925195869485936350db6dff60e11b85528401528a6024840152600160448401525af18015611cb357611ca4575b508c8b611c11838861172b565b515116928c60065416918a5f5260098952805f20825f5289525f205491803b156101c5578f5f8e611c7b82968e9451998a97889687956386e8748760e01b875286019060609295949360808301966001600160a01b03809316845260208401521660408201520152565b03925af1918215610cf957600192611c95575b5001611baf565b611c9e9061173f565b5f611c8e565b611cad9061173f565b5f611c04565b8e513d5f823e3d90fd5b505050505050505050509050565b611ce09193503d805f833e6107448183611767565b915f611bac565b855484526001958601958a955093019201611b52565b602081528260208201527f07ffffffffffffffffffffffffffffffffffffffffffffffffffffffffffffff83116101c55760409260051b809284830137010190565b60025491926001600160a01b039283163303611ae857611d5e826124b4565b828216805f5260206008815260406080526080515f20611d88815488811089821802891890611799565b9055815f52600b81526080515f2094608051518087848299549384815201905f52845f20925f5b8682821061201857505050611dc692500387611767565b85511561200f578060035416916080515197633897427760e01b89525f896004958180611df68d600483016116f0565b03915afa988915611f33575f99611ff3575b505f5b8851811015611fa65780611e208b928b61172b565b5185611e3b836060611e32828861172b565b5101519561172b565b5151169280851081861802808203611f4e575b50505f88815260098087526080805183208484528852519091205485818110611f3f5750505f905b895f5286526080515f20825f528652806080515f20558660065416803b156101c557825f918d838c611ee187608051519b8c97889687956386e8748760e01b875286019060609295949360808301966001600160a01b03809316845260208401521660408201520152565b03925af1938415611f3357600194611f24575b5089908a15611f1b575b50611f0b575b5001611e0b565b611f15908a6126ad565b5f611f04565b9050155f611efe565b611f2d9061173f565b5f611ef4565b608051513d5f823e3d90fd5b611f4891611799565b90611e76565b8760035416803b156101c55760648a5f869381956080515197889687956350db6dff60e11b87528601521860248401528160448401525af18015611f3357611f97575b80611e4e565b611fa09061173f565b5f611f91565b50509650505092509050611fb8575050565b5f52600b81526080515f20908154915f815582611fd457505050565b5f525f20908101905b818110611fe8575050565b5f8155600101611fdd565b6120089199503d805f833e6107448183611767565b975f611e08565b50505050505050565b855484526001958601958c955093019201611daf565b91906001600160a01b039081600254163303611ae857818416805f52602090600b8252604095865f209287518085838297549384815201905f52835f20925f5b858282106122155750505061208592500385611767565b835115611ac857600393866003541695895191633897427760e01b83525f8360049981806120b686600483016116f0565b03915afa928315610dc1575f936121f9575b505f5b8151811015611cbd576120de818361172b565b5190831515806121e1575b61218d575b8c8b6120fa838861172b565b515116928c60065416918a5f5260098952805f20825f5289525f205491803b156101c5578f5f8e61216482968e9451998a97889687956386e8748760e01b875286019060609295949360808301966001600160a01b03809316845260208401521660408201520152565b03925af1918215610cf95760019261217e575b50016120cb565b6121879061173f565b5f612177565b8a895416803b156101c5575f838f8d836064925195869485936350db6dff60e11b85528401528a60248401528160448401525af18015611cb3576121d2575b506120ee565b6121db9061173f565b5f6121cc565b508360606121ef838861172b565b51015110156120e9565b61220e9193503d805f833e6107448183611767565b915f6120c8565b855484526001958601958a95509301920161206e565b1561223257565b606460405162461bcd60e51b815260206004820152601960248201527f5573657220686173206e6f207969656c642061646170746572000000000000006044820152fd5b6001600160a01b035f5416330361228957565b60246040517f118cdaa7000000000000000000000000000000000000000000000000000000008152336004820152fd5b6002600154146122ca576002600155565b60046040517f3ee5aeb5000000000000000000000000000000000000000000000000000000008152fd5b906122fe826117c7565b61230b6040519182611767565b828152809261231c601f19916117c7565b0190602036910137565b9091821561248a576001600160a01b03918260035416935f6040518096633897427760e01b8252818061235f8660049860048401611cfd565b03915afa94851561247f575f9561245f575b5061237b906122f4565b5f945f5b815181101561241c5785612393828461172b565b5151168015612413575f805b8981106123ee575b50156123b9575b506001905b0161237f565b6123c6888599939961172b565b525f1981146123db57600180910196906123ae565b601184634e487b7160e01b5f525260245ffd5b82896123fa838961172b565b5116146124095760010161239f565b505060015f6123a7565b506001906123b3565b505092905092909261242d826122f4565b925f5b83811061243e575050505090565b808361244c6001938561172b565b5116612458828861172b565b5201612430565b61237b919550612478903d805f833e6107448183611767565b9490612371565b6040513d5f823e3d90fd5b9150506040516020810181811067ffffffffffffffff821117611753576040525f81525f36813790565b906001600160a01b0380921691825f526020600b8152604093845f2085518082858294549384815201905f52855f20925f5b87828210612697575050506124fd92500382611767565b5f5b815181101561268e57612512818361172b565b5190835f526009808652885f20835f528652885f20549283156126835787600554168a51927f304717b7000000000000000000000000000000000000000000000000000000008452600492888486015260249681888701528a866064815f604498868a8401525af1958615611cb3575f96612654575b50856125a0575b505050505050600191505b016124ff565b85808210911802851891895f528a528c5f20905f5289528b5f206125c5828254611799565b9055875f52600889526125dc8c5f20918254611799565b9055886002541691823b156101c5575f889381958e5198899687957f3746060d0000000000000000000000000000000000000000000000000000000087528601528401525af191821561264a5760019261263b575b808080808061258f565b6126449061173f565b5f612631565b88513d5f823e3d90fd5b9095508a81813d831161267c575b61266c8183611767565b810103126101c55751945f612588565b503d612662565b50506001915061259a565b50505050509050565b85548452600195860195879550930192016124e6565b6001600160a01b0380911691825f52602090600c8252604091825f20825f528152825f2060ff198154169055845f52600b8152825f20945f5b8654808210156128475784906126fc838a611664565b929054600393841b1c146127145750506001016126e6565b5f98929193949596979819918282019182116117a657610beb61273a6127479386611664565b905490871b1c9185611664565b815480156128335781019261275c8484611664565b81939154921b1b19169055555b825f52600d8252835f20815f528252835f205494835f52600a8352845f208054965f19978881019081116117a6576127a2849184611664565b90549060031b1c166127d7816127b88486611664565b9091906001600160a01b038084549260031b9316831b921b1916179055565b865f52600d8652875f20905f528552865f20558054968715612833575f9701916128018383611664565b909182549160031b1b1916905555828552600d8252838520908552815283838120556009815282842091845252812055565b634e487b7160e01b5f52603160045260245ffd5b505090919293945061276956fea264697066735822122082bea534a5f750b5ca6cbf5c4770aebc0001e55ef3aec20714f17b68f71137e464736f6c63430008160033","linkReferences":{}},"methodIdentifiers":{"allocateCapital(uint256[])":"6fa4eb48","capitalPool()":"5bfb7508","catPool()":"5c9244af","claimDistressedAssets(uint256[])":"1db2a433","claimPremiumRewards(uint256[])":"cfb2ab4b","deallocateFromPool(uint256)":"f089434a","deallocationNoticePeriod()":"b071110f","deallocationRequestAmount(address,uint256)":"8b9f30b5","deallocationRequestTimestamp(address,uint256)":"df11aa4e","getUnderwriterAllocations(address)":"55a19304","isAllocatedToPool(address,uint256)":"ac220ef9","lossDistributor()":"426483a6","maxAllocationsPerUnderwriter()":"bf02ec65","onCapitalDeposited(address,uint256)":"77d9cabd","onCapitalWithdrawn(address,uint256,bool)":"d01ebe37","onWithdrawalCancelled(address,uint256)":"e20b0977","onWithdrawalRequested(address,uint256)":"a2d8e608","owner()":"8da5cb5b","poolRegistry()":"afcff50f","poolSpecificUnderwriters(uint256,uint256)":"b909107d","realizeLossesForAllPools(address)":"84513232","renounceOwnership()":"715018a6","requestDeallocateFromPool(uint256,uint256)":"3550013e","rewardDistributor()":"acc2166a","riskManager()":"47842663","setAddresses(address,address,address,address,address,address)":"6cfb6bf9","setDeallocationNoticePeriod(uint256)":"a923099a","setMaxAllocationsPerUnderwriter(uint256)":"0073ba5d","transferOwnership(address)":"f2fde38b","underwriterAllocations(address,uint256)":"00662ebe","underwriterIndexInPoolArray(uint256,address)":"b2d300df","underwriterPoolPledge(address,uint256)":"fb7ce357","underwriterTotalPledge(address)":"a79e1eb6"},"id":12}