{
  "_format": "hh-sol-artifact-1",
  "contractName": "UnderwriterManager",
  "sourceName": "contracts/core/UnderwriterManager.sol",
  "abi": [
    {
      "inputs": [
        {
          "internalType": "address",
          "name": "_initialOwner",
          "type": "address"
        }
      ],
      "stateMutability": "nonpayable",
      "type": "constructor"
    },
    {
      "inputs": [],
      "name": "AlreadyAllocated",
      "type": "error"
    },
    {
      "inputs": [],
      "name": "DeallocationRequestPending",
      "type": "error"
    },
    {
      "inputs": [],
      "name": "ExceedsMaxAllocations",
      "type": "error"
    },
    {
      "inputs": [],
      "name": "InsufficientFreeCapital",
      "type": "error"
    },
    {
      "inputs": [],
      "name": "InvalidPoolId",
      "type": "error"
    },
    {
      "inputs": [],
      "name": "NoCapitalToAllocate",
      "type": "error"
    },
    {
      "inputs": [],
      "name": "NoDeallocationRequest",
      "type": "error"
    },
    {
      "inputs": [],
      "name": "NotAllocated",
      "type": "error"
    },
    {
      "inputs": [],
      "name": "NotCapitalPool",
      "type": "error"
    },
    {
      "inputs": [],
      "name": "NotRiskManager",
      "type": "error"
    },
    {
      "inputs": [],
      "name": "NoticePeriodActive",
      "type": "error"
    },
    {
      "inputs": [
        {
          "internalType": "address",
          "name": "owner",
          "type": "address"
        }
      ],
      "name": "OwnableInvalidOwner",
      "type": "error"
    },
    {
      "inputs": [
        {
          "internalType": "address",
          "name": "account",
          "type": "address"
        }
      ],
      "name": "OwnableUnauthorizedAccount",
      "type": "error"
    },
    {
      "inputs": [],
      "name": "ReentrancyGuardReentrantCall",
      "type": "error"
    },
    {
      "inputs": [],
      "name": "ZeroAddressNotAllowed",
      "type": "error"
    },
    {
      "anonymous": false,
      "inputs": [
        {
          "indexed": false,
          "internalType": "address",
          "name": "capital",
          "type": "address"
        },
        {
          "indexed": false,
          "internalType": "address",
          "name": "registry",
          "type": "address"
        },
        {
          "indexed": false,
          "internalType": "address",
          "name": "cat",
          "type": "address"
        },
        {
          "indexed": false,
          "internalType": "address",
          "name": "loss",
          "type": "address"
        },
        {
          "indexed": false,
          "internalType": "address",
          "name": "rewards",
          "type": "address"
        },
        {
          "indexed": false,
          "internalType": "address",
          "name": "riskMgr",
          "type": "address"
        }
      ],
      "name": "AddressesSet",
      "type": "event"
    },
    {
      "anonymous": false,
      "inputs": [
        {
          "indexed": true,
          "internalType": "address",
          "name": "underwriter",
          "type": "address"
        },
        {
          "indexed": true,
          "internalType": "uint256",
          "name": "poolId",
          "type": "uint256"
        },
        {
          "indexed": false,
          "internalType": "uint256",
          "name": "amount",
          "type": "uint256"
        }
      ],
      "name": "CapitalAllocated",
      "type": "event"
    },
    {
      "anonymous": false,
      "inputs": [
        {
          "indexed": true,
          "internalType": "address",
          "name": "underwriter",
          "type": "address"
        },
        {
          "indexed": true,
          "internalType": "uint256",
          "name": "poolId",
          "type": "uint256"
        },
        {
          "indexed": false,
          "internalType": "uint256",
          "name": "amount",
          "type": "uint256"
        }
      ],
      "name": "CapitalDeallocated",
      "type": "event"
    },
    {
      "anonymous": false,
      "inputs": [
        {
          "indexed": false,
          "internalType": "uint256",
          "name": "newPeriod",
          "type": "uint256"
        }
      ],
      "name": "DeallocationNoticePeriodSet",
      "type": "event"
    },
    {
      "anonymous": false,
      "inputs": [
        {
          "indexed": true,
          "internalType": "address",
          "name": "underwriter",
          "type": "address"
        },
        {
          "indexed": true,
          "internalType": "uint256",
          "name": "poolId",
          "type": "uint256"
        },
        {
          "indexed": false,
          "internalType": "uint256",
          "name": "amount",
          "type": "uint256"
        },
        {
          "indexed": false,
          "internalType": "uint256",
          "name": "timestamp",
          "type": "uint256"
        }
      ],
      "name": "DeallocationRequested",
      "type": "event"
    },
    {
      "anonymous": false,
      "inputs": [
        {
          "indexed": false,
          "internalType": "uint256",
          "name": "newMax",
          "type": "uint256"
        }
      ],
      "name": "MaxAllocationsPerUnderwriterSet",
      "type": "event"
    },
    {
      "anonymous": false,
      "inputs": [
        {
          "indexed": true,
          "internalType": "address",
          "name": "previousOwner",
          "type": "address"
        },
        {
          "indexed": true,
          "internalType": "address",
          "name": "newOwner",
          "type": "address"
        }
      ],
      "name": "OwnershipTransferred",
      "type": "event"
    },
    {
      "inputs": [],
      "name": "ABSOLUTE_MAX_ALLOCATIONS",
      "outputs": [
        {
          "internalType": "uint256",
          "name": "",
          "type": "uint256"
        }
      ],
      "stateMutability": "view",
      "type": "function"
    },
    {
      "inputs": [
        {
          "internalType": "uint256[]",
          "name": "poolIds",
          "type": "uint256[]"
        }
      ],
      "name": "allocateCapital",
      "outputs": [],
      "stateMutability": "nonpayable",
      "type": "function"
    },
    {
      "inputs": [],
      "name": "capitalPool",
      "outputs": [
        {
          "internalType": "contract ICapitalPool",
          "name": "",
          "type": "address"
        }
      ],
      "stateMutability": "view",
      "type": "function"
    },
    {
      "inputs": [],
      "name": "catPool",
      "outputs": [
        {
          "internalType": "contract IBackstopPool",
          "name": "",
          "type": "address"
        }
      ],
      "stateMutability": "view",
      "type": "function"
    },
    {
      "inputs": [
        {
          "internalType": "uint256",
          "name": "poolId",
          "type": "uint256"
        }
      ],
      "name": "claimDistressedAssets",
      "outputs": [],
      "stateMutability": "nonpayable",
      "type": "function"
    },
    {
      "inputs": [
        {
          "internalType": "uint256",
          "name": "poolId",
          "type": "uint256"
        }
      ],
      "name": "claimPremiumRewards",
      "outputs": [],
      "stateMutability": "nonpayable",
      "type": "function"
    },
    {
      "inputs": [],
      "name": "claimYieldRewards",
      "outputs": [],
      "stateMutability": "nonpayable",
      "type": "function"
    },
    {
      "inputs": [
        {
          "internalType": "uint256",
          "name": "poolId",
          "type": "uint256"
        }
      ],
      "name": "deallocateFromPool",
      "outputs": [],
      "stateMutability": "nonpayable",
      "type": "function"
    },
    {
      "inputs": [],
      "name": "deallocationNoticePeriod",
      "outputs": [
        {
          "internalType": "uint256",
          "name": "",
          "type": "uint256"
        }
      ],
      "stateMutability": "view",
      "type": "function"
    },
    {
      "inputs": [
        {
          "internalType": "address",
          "name": "",
          "type": "address"
        },
        {
          "internalType": "uint256",
          "name": "",
          "type": "uint256"
        }
      ],
      "name": "deallocationRequestAmount",
      "outputs": [
        {
          "internalType": "uint256",
          "name": "",
          "type": "uint256"
        }
      ],
      "stateMutability": "view",
      "type": "function"
    },
    {
      "inputs": [
        {
          "internalType": "address",
          "name": "",
          "type": "address"
        },
        {
          "internalType": "uint256",
          "name": "",
          "type": "uint256"
        }
      ],
      "name": "deallocationRequestTimestamp",
      "outputs": [
        {
          "internalType": "uint256",
          "name": "",
          "type": "uint256"
        }
      ],
      "stateMutability": "view",
      "type": "function"
    },
    {
      "inputs": [
        {
          "internalType": "uint256",
          "name": "poolId",
          "type": "uint256"
        }
      ],
      "name": "getPoolUnderwriters",
      "outputs": [
        {
          "internalType": "address[]",
          "name": "",
          "type": "address[]"
        }
      ],
      "stateMutability": "view",
      "type": "function"
    },
    {
      "inputs": [
        {
          "internalType": "address",
          "name": "user",
          "type": "address"
        }
      ],
      "name": "getUnderwriterAllocations",
      "outputs": [
        {
          "internalType": "uint256[]",
          "name": "",
          "type": "uint256[]"
        }
      ],
      "stateMutability": "view",
      "type": "function"
    },
    {
      "inputs": [
        {
          "internalType": "address",
          "name": "",
          "type": "address"
        },
        {
          "internalType": "uint256",
          "name": "",
          "type": "uint256"
        }
      ],
      "name": "isAllocatedToPool",
      "outputs": [
        {
          "internalType": "bool",
          "name": "",
          "type": "bool"
        }
      ],
      "stateMutability": "view",
      "type": "function"
    },
    {
      "inputs": [],
      "name": "lossDistributor",
      "outputs": [
        {
          "internalType": "contract ILossDistributor",
          "name": "",
          "type": "address"
        }
      ],
      "stateMutability": "view",
      "type": "function"
    },
    {
      "inputs": [],
      "name": "maxAllocationsPerUnderwriter",
      "outputs": [
        {
          "internalType": "uint256",
          "name": "",
          "type": "uint256"
        }
      ],
      "stateMutability": "view",
      "type": "function"
    },
    {
      "inputs": [
        {
          "internalType": "address",
          "name": "underwriter",
          "type": "address"
        },
        {
          "internalType": "uint256",
          "name": "amount",
          "type": "uint256"
        }
      ],
      "name": "onCapitalDeposited",
      "outputs": [],
      "stateMutability": "nonpayable",
      "type": "function"
    },
    {
      "inputs": [
        {
          "internalType": "address",
          "name": "underwriter",
          "type": "address"
        },
        {
          "internalType": "uint256",
          "name": "principalComponentRemoved",
          "type": "uint256"
        },
        {
          "internalType": "bool",
          "name": "isFullWithdrawal",
          "type": "bool"
        }
      ],
      "name": "onCapitalWithdrawn",
      "outputs": [],
      "stateMutability": "nonpayable",
      "type": "function"
    },
    {
      "inputs": [
        {
          "internalType": "address",
          "name": "underwriter",
          "type": "address"
        },
        {
          "internalType": "uint256",
          "name": "principalComponent",
          "type": "uint256"
        }
      ],
      "name": "onWithdrawalCancelled",
      "outputs": [],
      "stateMutability": "nonpayable",
      "type": "function"
    },
    {
      "inputs": [
        {
          "internalType": "address",
          "name": "underwriter",
          "type": "address"
        },
        {
          "internalType": "uint256",
          "name": "principalComponent",
          "type": "uint256"
        }
      ],
      "name": "onWithdrawalRequested",
      "outputs": [],
      "stateMutability": "nonpayable",
      "type": "function"
    },
    {
      "inputs": [],
      "name": "owner",
      "outputs": [
        {
          "internalType": "address",
          "name": "",
          "type": "address"
        }
      ],
      "stateMutability": "view",
      "type": "function"
    },
    {
      "inputs": [],
      "name": "poolRegistry",
      "outputs": [
        {
          "internalType": "contract IPoolRegistry",
          "name": "",
          "type": "address"
        }
      ],
      "stateMutability": "view",
      "type": "function"
    },
    {
      "inputs": [
        {
          "internalType": "uint256",
          "name": "",
          "type": "uint256"
        },
        {
          "internalType": "uint256",
          "name": "",
          "type": "uint256"
        }
      ],
      "name": "poolSpecificUnderwriters",
      "outputs": [
        {
          "internalType": "address",
          "name": "",
          "type": "address"
        }
      ],
      "stateMutability": "view",
      "type": "function"
    },
    {
      "inputs": [
        {
          "internalType": "address",
          "name": "user",
          "type": "address"
        }
      ],
      "name": "realizeLossesForAllPools",
      "outputs": [],
      "stateMutability": "nonpayable",
      "type": "function"
    },
    {
      "inputs": [],
      "name": "renounceOwnership",
      "outputs": [],
      "stateMutability": "nonpayable",
      "type": "function"
    },
    {
      "inputs": [
        {
          "internalType": "uint256",
          "name": "poolId",
          "type": "uint256"
        },
        {
          "internalType": "uint256",
          "name": "amount",
          "type": "uint256"
        }
      ],
      "name": "requestDeallocateFromPool",
      "outputs": [],
      "stateMutability": "nonpayable",
      "type": "function"
    },
    {
      "inputs": [],
      "name": "rewardDistributor",
      "outputs": [
        {
          "internalType": "contract IRewardDistributor",
          "name": "",
          "type": "address"
        }
      ],
      "stateMutability": "view",
      "type": "function"
    },
    {
      "inputs": [],
      "name": "riskManager",
      "outputs": [
        {
          "internalType": "address",
          "name": "",
          "type": "address"
        }
      ],
      "stateMutability": "view",
      "type": "function"
    },
    {
      "inputs": [
        {
          "internalType": "address",
          "name": "_capitalPool",
          "type": "address"
        },
        {
          "internalType": "address",
          "name": "_poolRegistry",
          "type": "address"
        },
        {
          "internalType": "address",
          "name": "_catPool",
          "type": "address"
        },
        {
          "internalType": "address",
          "name": "_lossDistributor",
          "type": "address"
        },
        {
          "internalType": "address",
          "name": "_rewardDistributor",
          "type": "address"
        },
        {
          "internalType": "address",
          "name": "_riskManager",
          "type": "address"
        }
      ],
      "name": "setAddresses",
      "outputs": [],
      "stateMutability": "nonpayable",
      "type": "function"
    },
    {
      "inputs": [
        {
          "internalType": "uint256",
          "name": "_newPeriod",
          "type": "uint256"
        }
      ],
      "name": "setDeallocationNoticePeriod",
      "outputs": [],
      "stateMutability": "nonpayable",
      "type": "function"
    },
    {
      "inputs": [
        {
          "internalType": "uint256",
          "name": "_newMax",
          "type": "uint256"
        }
      ],
      "name": "setMaxAllocationsPerUnderwriter",
      "outputs": [],
      "stateMutability": "nonpayable",
      "type": "function"
    },
    {
      "inputs": [
        {
          "internalType": "address",
          "name": "newOwner",
          "type": "address"
        }
      ],
      "name": "transferOwnership",
      "outputs": [],
      "stateMutability": "nonpayable",
      "type": "function"
    },
    {
      "inputs": [
        {
          "internalType": "address",
          "name": "",
          "type": "address"
        },
        {
          "internalType": "uint256",
          "name": "",
          "type": "uint256"
        }
      ],
      "name": "underwriterAllocationIndex",
      "outputs": [
        {
          "internalType": "uint256",
          "name": "",
          "type": "uint256"
        }
      ],
      "stateMutability": "view",
      "type": "function"
    },
    {
      "inputs": [
        {
          "internalType": "address",
          "name": "",
          "type": "address"
        },
        {
          "internalType": "uint256",
          "name": "",
          "type": "uint256"
        }
      ],
      "name": "underwriterAllocations",
      "outputs": [
        {
          "internalType": "uint256",
          "name": "",
          "type": "uint256"
        }
      ],
      "stateMutability": "view",
      "type": "function"
    },
    {
      "inputs": [
        {
          "internalType": "uint256",
          "name": "",
          "type": "uint256"
        },
        {
          "internalType": "address",
          "name": "",
          "type": "address"
        }
      ],
      "name": "underwriterIndexInPoolArray",
      "outputs": [
        {
          "internalType": "uint256",
          "name": "",
          "type": "uint256"
        }
      ],
      "stateMutability": "view",
      "type": "function"
    },
    {
      "inputs": [
        {
          "internalType": "address",
          "name": "",
          "type": "address"
        },
        {
          "internalType": "uint256",
          "name": "",
          "type": "uint256"
        }
      ],
      "name": "underwriterPoolPledge",
      "outputs": [
        {
          "internalType": "uint256",
          "name": "",
          "type": "uint256"
        }
      ],
      "stateMutability": "view",
      "type": "function"
    },
    {
      "inputs": [
        {
          "internalType": "address",
          "name": "",
          "type": "address"
        }
      ],
      "name": "underwriterTotalPledge",
      "outputs": [
        {
          "internalType": "uint256",
          "name": "",
          "type": "uint256"
        }
      ],
      "stateMutability": "view",
      "type": "function"
    }
  ],
  "bytecode": "0x608034620000cb57601f62002c6138819003918201601f19168301916001600160401b03831184841017620000d057808492602094604052833981010312620000cb57516001600160a01b039081811690819003620000cb578015620000b257600080546001600160a01b03198116831782556040519316907f8be0079c531659141344cd1fd0a4f28419497f9722a3daafe3b4186f6b6457e09080a3600180556005600f55612b7a9081620000e78239f35b604051631e4fbdf760e01b815260006004820152602490fd5b600080fd5b634e487b7160e01b600052604160045260246000fdfe6080604052600436101561001257600080fd5b600060e08135811c908162662ebe14611c3857816273ba5d14611b8c5781633550013e14611881578163426483a61461185a578163478426631461183357816355a19304146117ad5781635bfb7508146117865781635c9244af1461175f5781636cfb6bf9146115d85781636fa4eb481461115a578163715018a6146110f357816377d9cabd146110975781637ee3112914610f775781638451323214610f165781638b9f30b514610ed45781638da5cb5b14610eae578163a2d8e60814610e6d578163a50cd45f14610d3f57508063a68292ad14610d23578063a79e1eb614610ceb578063a923099a14610c9d578063ac220ef914610c56578063acc2166a14610c2f578063afcff50f14610c08578063b071110f14610bea578063b2d300df14610ba2578063b909107d14610b58578063bf02ec6514610b3a578063d01ebe3714610a74578063db0f53f914610724578063df11aa4e146106e2578063e20b097714610670578063f089434a1461039f578063f2fde38b146102f1578063fa1ba25c146102af578063fa21ef61146101f95763fb7ce357146101b557600080fd5b346101f65760403660031901126101f65760406020916001600160a01b036101db611c8e565b16815260098352818120602435825283522054604051908152f35b80fd5b50346101f6576020806003193601126102ab576004358252600a81526040822060405192838383549182815201908193835284832090835b81811061028e5750505084610247910385611d64565b60405193838594850191818652518092526040850193925b82811061026e57505050500390f35b83516001600160a01b03168552869550938101939281019260010161025f565b82546001600160a01b031684529286019260019283019201610231565b5080fd5b50346101f65760403660031901126101f65760406020916001600160a01b036102d6611c8e565b168152600e8352818120602435825283522054604051908152f35b50346101f65760203660031901126101f65761030b611c8e565b610313611e2f565b6001600160a01b0380911690811561036e576000548273ffffffffffffffffffffffffffffffffffffffff19821617600055167f8be0079c531659141344cd1fd0a4f28419497f9722a3daafe3b4186f6b6457e0600080a380f35b602483604051907f1e4fbdf70000000000000000000000000000000000000000000000000000000082526004820152fd5b50346101f6576020806003193601126102ab57600435906103be611e73565b3383526011815260408320828452815260408320548015610646576010546103e591611d96565b421061061c573383526012815260408320828452815260408320549033845260118152604084208385528152600060408520553384526012815260408420838552815260006040852055610438336121f2565b33845260098152604084208385528152836104626040822054938480821091180284188094611e22565b6001600160a01b03906024848360025416604051928380926311f6be9960e11b82523360048301525afa801561061157839185916105d9575b5016906104a9821515611eae565b33845260098552604084208785528552806040852055156105ca575b816003541690813b1561059c57839160848392604051948593849263a6bd24ab60e01b84528c600485015260248401528a6044840152600060648401525af19081156105bf5783916105ab575b505060035416803b156102ab578180916064604051809481936350db6dff60e11b83528a60048401528960248401528160448401525af180156105a057610588575b50507fb4433a6b5f4e95fd87f376e5ae6f647206e649a052d164fdf462e84e6526814f906040519283523392a36001805580f35b61059190611d3a565b61059c578338610554565b8380fd5b6040513d84823e3d90fd5b6105b490611d3a565b6102ab578138610512565b6040513d85823e3d90fd5b6105d48633612996565b6104c5565b809250868092503d831161060a575b6105f28183611d64565b8101031261059c576106048391611db9565b3861049b565b503d6105e8565b6040513d86823e3d90fd5b60046040517ff214e773000000000000000000000000000000000000000000000000000000008152fd5b60046040517f28d2fa90000000000000000000000000000000000000000000000000000000008152fd5b50346101f65760403660031901126101f65761068a611c8e565b610692611e73565b6001600160a01b036002541633036106b8576106b190602435906124ef565b6001805580f35b60046040517fda37af0b000000000000000000000000000000000000000000000000000000008152fd5b50346101f65760403660031901126101f65760406020916001600160a01b03610709611c8e565b16815260118352818120602435825283522054604051908152f35b50346101f657806003193601126101f65761073d611e73565b6001600160a01b03806002541690604051916311f6be9960e11b83523360048401526020928381602481855afa80156109e95783918691610a38575b501680156109f457604051907f8ffd61b800000000000000000000000000000000000000000000000000000000825260048201528381602481855afa9081156109e95785916109bc575b50801561097857604051917f731f25c0000000000000000000000000000000000000000000000000000000008352336004840152608083602481845afa92831561096d578693610925575b50838686600495966006541693604051968780927f7158da7c0000000000000000000000000000000000000000000000000000000082525afa801561091857879582916108e2575b5061089d6040519788968795869463360ca04560e11b8652169033600486019060609295949360808301966001600160a01b03809316845260208401521660408201520152565b03925af180156105bf576108b4575b826001805580f35b813d83116108db575b6108c78183611d64565b810103126108d65738806108ac565b600080fd5b503d6108bd565b86819792503d8311610911575b6108f98183611d64565b810103126101f65761090b8795611db9565b38610856565b503d6108ef565b50604051903d90823e3d90fd5b92506080833d608011610965575b8161094060809383611d64565b8101031261096157600485840151101561096157604060049301519261080e565b8580fd5b3d9150610933565b6040513d88823e3d90fd5b6064846040519062461bcd60e51b82526004820152601f60248201527f52657761726420706f6f6c20666f722061646170746572206e6f7420736574006044820152fd5b90508381813d83116109e2575b6109d38183611d64565b810103126108d65751386107c3565b503d6109c9565b6040513d87823e3d90fd5b6064846040519062461bcd60e51b82526004820152601760248201527f4e6f207969656c6420616461707465722063686f73656e0000000000000000006044820152fd5b809250858092503d8311610a6d575b610a518183611d64565b81010312610a6957610a638391611db9565b38610779565b8480fd5b503d610a47565b50346101f65760603660031901126101f657610a8e611c8e565b604435602435811515820361059c57610aa5611e73565b6001600160a01b03806002541633036106b857610af1918391610ac7866121f2565b851694858752600860205260408720610aea815484811085821802851890611e22565b90556126f8565b610afe575b506001805580f35b8152600b6020526040812080549082815581610b1b575b50610af6565b825260208220908101905b81811015610b155760008155600101610b26565b50346101f657806003193601126101f6576020600f54604051908152f35b50346101f657610b6736611ce8565b91908152600a602052604081209081548310156101f65760206001600160a01b03610b928585611cba565b9190546040519260031b1c168152f35b50346101f65760403660031901126101f6576001600160a01b036040610bc6611ca4565b926004358152600d6020522091166000526020526020604060002054604051908152f35b50346101f657806003193601126101f6576020601054604051908152f35b50346101f657806003193601126101f65760206001600160a01b0360035416604051908152f35b50346101f657806003193601126101f65760206001600160a01b0360065416604051908152f35b50346101f65760403660031901126101f65760ff60406020926001600160a01b03610c7f611c8e565b168152600c8452818120602435825284522054166040519015158152f35b50346101f65760203660031901126101f6577ff94b894768b2123b1e98b0ad017af5950f57d77ec75b8ce6916f235fd0a780906020600435610cdd611e2f565b80601055604051908152a180f35b50346101f65760203660031901126101f65760406020916001600160a01b03610d12611c8e565b168152600883522054604051908152f35b50346101f657806003193601126101f657602060405160328152f35b9050346102ab5760209081600319360112610e695760043590610d60611e73565b338452600983526040842082855283526040842054918215610e3f5760246001600160a01b038381600354166040519384809263d21c87ad60e01b82528760048301525afa918215610e345786948893610dff575b505060065460405163360ca04560e11b815233600482015260248101949094529181166001600160a01b03166044840152606483019490945290928391168186816084810161089d565b610e1f929350803d10610e2d575b610e178183611d64565b810190611dda565b505050505050903880610db5565b503d610e0d565b6040513d89823e3d90fd5b60046040517f6c101931000000000000000000000000000000000000000000000000000000008152fd5b8280fd5b82346101f65760403660031901126101f657610e87611c8e565b610e8f611e73565b6001600160a01b036002541633036106b8576106b190602435906122f7565b82346101f657806003193601126101f6576001600160a01b036020915416604051908152f35b82346101f65760403660031901126101f65760406020916001600160a01b03610efb611c8e565b16815260128352818120602435825283522054604051908152f35b82346101f65760203660031901126101f657610f30611c8e565b6001600160a01b03600754163303610f4e57610f4b906121f2565b80f35b60046040517ece6460000000000000000000000000000000000000000000000000000000008152fd5b9050346102ab5760203660031901126102ab57600435610f95611e73565b338352600c6020526040832081845260205260ff60408420541615610e3f5782916001600160a01b03918183600354169160246040518094819363d21c87ad60e01b835260048301525afa9081156106115783928592611074575b505016908161100157826001805580f35b6004541690813b156110705782916044839260405194859384927f476187cb00000000000000000000000000000000000000000000000000000000845233600485015260248401525af180156105a05761105c575b806108ac565b61106590611d3a565b6101f6578038611056565b5050fd5b61108a9250803d10610e2d57610e178183611d64565b5050505050503880610ff0565b82346101f65760403660031901126101f6576110b1611c8e565b6024356110bc611e73565b6001600160a01b0391826002541633036106b8576106b192811684526008602052604084206110ec838254611d96565b9055612019565b82346101f657806003193601126101f65761110c611e2f565b60006001600160a01b03815473ffffffffffffffffffffffffffffffffffffffff1981168355167f8be0079c531659141344cd1fd0a4f28419497f9722a3daafe3b4186f6b6457e08280a380f35b82346101f65760203660031901126101f65760043567ffffffffffffffff808211610e695736602383011215610e69578160040135116102ab57366024826004013560051b830101116102ab576111af611e73565b3382526008602052604082205480156115ae57816004013515801561158a575b6115605760249060206001600160a01b0360025416604051938480926311f6be9960e11b82523360048301525afa918215610611578492611524575b506112206001600160a01b0383161515611eae565b600460206001600160a01b0360035416604051928380926308eec5d760e41b82525afa9081156109e95785916114f2575b50845b8460040135811061145d575050835b8360040135811061127657846001805580f35b61128881856004013560248701611d86565b3590338652600960205260408620828752602052826040872055338652600c60205260408620828752602052604086206001908160ff19825416179055338752600b806020526040882054600e60205260408920858a5260205260408920553388526020526040872080549068010000000000000000821015611449576113188286928561133195018155611cba565b90919082549060031b91821b91600019901b1916179055565b828752600a806020526040882054600d6020526040892033600052602052604060002055838852602052604087208054906801000000000000000082101561144957611387826113a592858c9695018155611cba565b33906001600160a01b038084549260031b9316831b921b1916179055565b6001600160a01b036003541690813b15610e6957829160848392604051948593849263a6bd24ab60e01b84528a60048501526001600160a01b038d1660248501528b604485015260648401525af180156105a057611435575b50506001916040518481527f8b612cc9f41788c6e9b8068147327216e8b8373f43483d7db9e068843abffd6f60203392a301611263565b61143e90611d3a565b6109615785876113fe565b602489634e487b7160e01b81526041600452fd5b61146f81866004013560248801611d86565b35828110156114c857338752600c6020526040872090875260205260ff60408720541661149e57600101611254565b60046040517fc2f34d18000000000000000000000000000000000000000000000000000000008152fd5b60046040517f0afa7ee8000000000000000000000000000000000000000000000000000000008152fd5b90506020813d60201161151c575b8161150d60209383611d64565b810103126108d6575185611251565b3d9150611500565b9091506020813d602011611558575b8161154060209383611d64565b8101031261059c5761155190611db9565b908461120b565b3d9150611533565b60046040517f480c2784000000000000000000000000000000000000000000000000000000008152fd5b50338352600b6020526115a560408420548360040135611d96565b600f54106111cf565b60046040517f46d2e181000000000000000000000000000000000000000000000000000000008152fd5b82346101f65760c03660031901126101f6576115f2611c8e565b6115fa611ca4565b906044356001600160a01b03918282168092036108d6576064358381168091036108d657608435908482168092036108d65760a435928584168094036108d6578590611644611e2f565b169384158015611755575b801561174d575b8015611745575b801561173d575b8015611735575b61170b577f7355bf2d91d3126ad1129aa9b075c9949b70842c100c36075d35c129ba591bf1968460c09773ffffffffffffffffffffffffffffffffffffffff1992888460025416176002551691828160035416176003558381600454161760045584816005541617600555858160065416176006556007541617600755604051958652602086015260408501526060840152608083015260a0820152a180f35b60046040517f8579befe000000000000000000000000000000000000000000000000000000008152fd5b50831561166b565b508215611664565b50811561165d565b508015611656565b508587161561164f565b82346101f657806003193601126101f65760206001600160a01b0360045416604051908152f35b82346101f657806003193601126101f65760206001600160a01b0360025416604051908152f35b82346101f6576020806003193601126102ab576001600160a01b036117d0611c8e565b168252600b602052604082209160405180926020855492838152019483526020832092905b82821061181c576118188561180c81890382611d64565b60405191829182611cfe565b0390f35b8354865294850194600193840193909101906117f5565b82346101f657806003193601126101f65760206001600160a01b0360075416604051908152f35b82346101f657806003193601126101f65760206001600160a01b0360055416604051908152f35b9050346102ab5761189136611ce8565b909161189b611e73565b6001600160a01b03806003541691604051926308eec5d760e41b84526020938481600481855afa908115611b81578891611b50575b508610156114c857338752600c845260408720868852845260ff60408820541615610e3f57338752601184526040872086885284526040872054611b26578415611ae2573387526009845260408720868852845260408720548511611a9e57816024916040519283809263d21c87ad60e01b82528a60048301525afa908115610e3457879088938993611a76575b505061196a8284611d96565b811115611a6d576119839261197e91611e22565b611e22565b8311611a43578490338252601183526040822085835283524260408320553382526012835260408220858352835283604083205560035416803b156102ab5781906064604051809481936350db6dff60e11b8352896004840152886024840152600160448401525af180156109e957611a30575b5060405191825242908201527ffbeb47a6bd9b7dbbbabf46435818010ab86574e23e88ae1cc9ffefec367d39d160403392a36001805580f35b611a3c90949194611d3a565b92386119f7565b60046040517fc7068bf0000000000000000000000000000000000000000000000000000000008152fd5b50505084611983565b91509150611a909250803d10610e2d57610e178183611d64565b50505092509190388061195e565b6064846040519062461bcd60e51b82526004820152601560248201527f416d6f756e74206578636565647320706c6564676500000000000000000000006044820152fd5b6064846040519062461bcd60e51b82526004820152600e60248201527f496e76616c696420616d6f756e740000000000000000000000000000000000006044820152fd5b60046040517f644d75d9000000000000000000000000000000000000000000000000000000008152fd5b90508481813d8311611b7a575b611b678183611d64565b81010312611b765751386118d0565b8780fd5b503d611b5d565b6040513d8a823e3d90fd5b82346101f65760203660031901126101f657600435611ba9611e2f565b80151580611c2d575b15611be9576020817fb8cddf3d95d9e26fabb43fd968b8e13af6606acbff3ffceb271e3cbdeb9e789192600f55604051908152a180f35b606460405162461bcd60e51b815260206004820152600b60248201527f496e76616c6964206d61780000000000000000000000000000000000000000006044820152fd5b506032811115611bb2565b82346101f65760403660031901126101f657611c52611c8e565b6001600160a01b03168152600b60205260408120805460243592908310156101f6576020611c808484611cba565b90546040519160031b1c8152f35b600435906001600160a01b03821682036108d657565b602435906001600160a01b03821682036108d657565b8054821015611cd25760005260206000200190600090565b634e487b7160e01b600052603260045260246000fd5b60409060031901126108d6576004359060243590565b602090602060408183019282815285518094520193019160005b828110611d26575050505090565b835185529381019392810192600101611d18565b67ffffffffffffffff8111611d4e57604052565b634e487b7160e01b600052604160045260246000fd5b90601f8019910116810190811067ffffffffffffffff821117611d4e57604052565b9190811015611cd25760051b0190565b91908201809211611da357565b634e487b7160e01b600052601160045260246000fd5b51906001600160a01b03821682036108d657565b519081151582036108d657565b908160e09103126108d657611dee81611db9565b91602082015191604081015191606082015191611e0d60808201611dcd565b9160c0611e1c60a08401611db9565b92015190565b91908203918211611da357565b6001600160a01b03600054163303611e4357565b60246040517f118cdaa7000000000000000000000000000000000000000000000000000000008152336004820152fd5b600260015414611e84576002600155565b60046040517f3ee5aeb5000000000000000000000000000000000000000000000000000000008152fd5b15611eb557565b606460405162461bcd60e51b815260206004820152601960248201527f5573657220686173206e6f207969656c642061646170746572000000000000006044820152fd5b90602080838303126108d657825167ffffffffffffffff938482116108d657019082601f830112156108d657815192848411611d4e5760409460405195611f45848760051b0188611d64565b858752838701928460e0809802870101958187116108d6578501935b868510611f7357505050505050505090565b87858303126108d6578251908882019082821086831117611ff057899288928652611f9d88611db9565b815282880151838201528588015186820152606080890151908201526080611fc6818a01611dcd565b9082015260a0611fd7818a01611db9565b9082015260c08089015190820152815201940193611f61565b60246000634e487b7160e01b81526041600452fd5b8051821015611cd25760209160051b010190565b906001600160a01b0380831692600093808552602093600b855260409283872084518082898294549384815201908b52898b20928b5b8b8282106121dc5750505061206692500382611d64565b8051156121d257856003541690855197633897427760e01b8952898960049481806120948760048301611cfe565b03915afa9889156121c8578a996121a4575b50895b825181101561219757868b526009808352888c206120c78386612005565b518d528352888c206120da888254611d96565b9055896120e7838d612005565b515116908c8a8c60065416916120fd8689612005565b51938c82528752818120612111878a612005565b51825287522054813b15612193578b516386e8748760e01b81526001600160a01b03808b16828b019081526020810195909552909416604084015260608301528d9183919082908490829060800103925af1801561218957906001929161217a575b50016120a9565b61218390611d3a565b38612173565b89513d8e823e3d90fd5b8e80fd5b5050505050505050505050565b6121c19199503d808c833e6121b98183611d64565b810190611ef9565b97386120a6565b87513d8c823e3d90fd5b5050505050505050565b855484526001958601958795509301920161204f565b906001600160a01b03809216600092818452602091600b602052604091604086209360405180958691602082549182815201918a5260208a20938a905b8282106122dd5750505061224592500385611d64565b855b84518110156122d4578682600554166122608388612005565b5190803b15610e695760448392885194859384927ffd3c2d7d0000000000000000000000000000000000000000000000000000000084528a600485015260248401525af180156122ca5790600192916122bb575b5001612247565b6122c490611d3a565b386122b4565b85513d8a823e3d90fd5b50505050509050565b855484526001958601958a9550938101939091019061222f565b6001600160a01b0380821691600093838552602093600b8552604092838720958451808883829a549384815201908b52838b20928b5b858282106124d95750505061234492500388611d64565b8651156121d25786906003948760035416908a88518093633897427760e01b8252818061237660049960048301611cfe565b03915afa9182156124cf578b926124b3575b508a5b8a518110156124a55761239e818c612005565b518a895416803b156124a1578d809160648d51809481936350db6dff60e11b8352878d840152896024840152600160448401525af1801561249557612486575b508a6123ea8386612005565b515116908d8b8d60065416918b81526009895281812084825289522054813b15612482578c516386e8748760e01b81526001600160a01b03808c16828c019081526020810195909552909416604084015260608301528e9183919082908490829060800103925af18015612478579060019291612469575b500161238b565b61247290611d3a565b38612462565b8a513d8f823e3d90fd5b8f80fd5b61248f90611d3a565b386123de565b8e8c51903d90823e3d90fd5b8d80fd5b505050505050505050505050565b6124c89192503d808d833e6121b98183611d64565b9038612388565b88513d8d823e3d90fd5b855484526001958601958d95509301920161232d565b90916001600160a01b0380831692600093808552602090600b825260409283872084518082868294549384815201908b52868b20928b5b888282106126e25750505061253d92500382611d64565b8051156126d757600393866003541691865190633897427760e01b82528a82600495818061256e8660048301611cfe565b03915afa9182156124cf578b926126bb575b508a5b81518110156126ac576125968183612005565b518d151580612694575b61263e575b8a6125b08386612005565b515116908d8b8d60065416918b81526009895281812084825289522054813b15612482578c516386e8748760e01b81526001600160a01b03808c16828c019081526020810195909552909416604084015260608301528e9183919082908490829060800103925af1801561247857906001929161262f575b5001612583565b61263890611d3a565b38612628565b8a895416803b156124a1578d8f91606489838f9387945196879586946350db6dff60e11b865285015260248401528160448401525af1801561249557612685575b506125a5565b61268e90611d3a565b3861267f565b508d60606126a28487612005565b51015110156125a0565b50505050505050505050915050565b6126d09192503d808d833e6121b98183611d64565b9038612580565b505050505050915050565b8554845260019586019587955093019201612526565b909291926001600160a01b038216600052600b6020526040600020936040518086602082985493848152019060005260206000209260005b81811061297d57505061274592500386611d64565b845115612976576001600160a01b03600354169460006040518097633897427760e01b825281806127798660048301611cfe565b03915afa9586156128db57600096612959575b5060005b81518110156122d4576127a38183612005565b519060606127b1828a612005565b510151916001600160a01b036127c7838b612005565b515116928087108188180281036128f6575b506001600160a01b0387166000526009928360205260406000208260005260205260406000205487818110156000146128e75750506000935b6001600160a01b038916600052602052604060002082600052602052836040600020556001600160a01b0360065416803b156108d6576040516386e8748760e01b81526001600160a01b038a8116600483015260248201859052929092166044830152606482018590529093906000908590608490829084905af19384156128db576001946128cc575b50859086156128c3575b506128b3575b5001612790565b6128bd9087612996565b386128ac565b905015386128a6565b6128d590611d3a565b3861289c565b6040513d6000823e3d90fd5b6128f091611e22565b93612812565b6001600160a01b036003541690813b156108d6576000916064839260405194859384926350db6dff60e11b84528860048501528d818082109118021860248401528160448401525af180156128db57156127d95761295390611d3a565b386127d9565b61296f9196503d806000833e6121b98183611d64565b943861278c565b5050509050565b845483526001948501948a945060209093019201612730565b6001600160a01b0380911691600092808452602090600c8252604093848620848752835284862060ff198154169055818652600b8352848620600e84528587208588528452858720549080549160001992838101908111612b30576129fb9083611cba565b90549060031b1c612a10816113188486611cba565b858a52600e8752888a20908a5286528789205580548015612b1c57820190612a388282611cba565b8482549160031b1b1916905555848752600d845285872083885284528587205490858852600a8552868820918254828101908111612b3057612a7b859185611cba565b90549060031b1c16612ab081612a918487611cba565b9091906001600160a01b038084549260031b9316831b921b1916179055565b878a52600d8752888a20908a5286528789205581548015612b1c570191612ad78383611cba565b909182549160031b1b1916905555828552600d825283852081865282528484812055600e82528385208386528252848481205584526009815282842091845252812055565b602489634e487b7160e01b81526031600452fd5b60248a634e487b7160e01b81526011600452fdfea2646970667358221220c51c2bfa3f5ed63f2ffb5f8f9a59dea1b4b8c6365c89c793fe116248faac827a64736f6c63430008160033",
  "linkReferences": {},
  "deployedLinkReferences": {}
}